{"contracts/AuditLog.sol":{"AuditLog":{"abi":[{"inputs":[{"internalType":"address","name":"_coreAddress","type":"address"}],"stateMutability":"nonpayable","type":"constructor"},{"anonymous":false,"inputs":[{"indexed":true,"internalType":"uint256","name":"entryId","type":"uint256"},{"indexed":true,"internalType":"address","name":"user","type":"address"},{"indexed":false,"internalType":"enum IAuditTypes.AuditAction","name":"action","type":"uint8"},{"indexed":false,"internalType":"string","name":"entityType","type":"string"},{"indexed":true,"internalType":"uint256","name":"entityId","type":"uint256"},{"indexed":false,"internalType":"bytes32","name":"dataHash","type":"bytes32"}],"name":"AuditEntryCreated","type":"event"},{"anonymous":false,"inputs":[{"indexed":false,"internalType":"uint256","name":"previousLimit","type":"uint256"},{"indexed":false,"internalType":"uint256","name":"newLimit","type":"uint256"}],"name":"DailyLimitUpdated","type":"event"},{"anonymous":false,"inputs":[{"indexed":true,"internalType":"uint256","name":"entryId","type":"uint256"},{"indexed":false,"internalType":"bytes32","name":"dataHash","type":"bytes32"},{"indexed":false,"internalType":"bool","name":"isValid","type":"bool"},{"indexed":false,"internalType":"address","name":"verifiedBy","type":"address"}],"name":"HashVerified","type":"event"},{"anonymous":false,"inputs":[{"indexed":true,"internalType":"address","name":"module","type":"address"},{"indexed":true,"internalType":"address","name":"authorizedBy","type":"address"}],"name":"ModuleAuthorized","type":"event"},{"anonymous":false,"inputs":[{"indexed":true,"internalType":"address","name":"module","type":"address"},{"indexed":true,"internalType":"address","name":"deauthorizedBy","type":"address"}],"name":"ModuleDeauthorized","type":"event"},{"inputs":[{"internalType":"address","name":"module","type":"address"}],"name":"authorizeModule","outputs":[],"stateMutability":"nonpayable","type":"function"},{"inputs":[{"internalType":"address","name":"","type":"address"}],"name":"authorizedModules","outputs":[{"internalType":"bool","name":"","type":"bool"}],"stateMutability":"view","type":"function"},{"inputs":[{"internalType":"address[]","name":"users","type":"address[]"},{"internalType":"string[]","name":"userNames","type":"string[]"},{"internalType":"enum IAuditTypes.AuditAction[]","name":"actions","type":"uint8[]"},{"internalType":"string[]","name":"entityTypes","type":"string[]"},{"internalType":"uint256[]","name":"entityIds","type":"uint256[]"},{"internalType":"string[]","name":"detailsArray","type":"string[]"}],"name":"batchLogEntries","outputs":[],"stateMutability":"nonpayable","type":"function"},{"inputs":[],"name":"core","outputs":[{"internalType":"contract BlockERPCore","name":"","type":"address"}],"stateMutability":"view","type":"function"},{"inputs":[],"name":"dailyLimitPerUser","outputs":[{"internalType":"uint256","name":"","type":"uint256"}],"stateMutability":"view","type":"function"},{"inputs":[{"internalType":"address","name":"module","type":"address"}],"name":"deauthorizeModule","outputs":[],"stateMutability":"nonpayable","type":"function"},{"inputs":[],"name":"getAllEntryIds","outputs":[{"internalType":"uint256[]","name":"","type":"uint256[]"}],"stateMutability":"view","type":"function"},{"inputs":[],"name":"getAuditStats","outputs":[{"internalType":"uint256","name":"total","type":"uint256"},{"internalType":"uint256","name":"today","type":"uint256"},{"internalType":"uint256","name":"uniqueUsers","type":"uint256"},{"internalType":"uint256","name":"withHashes","type":"uint256"}],"stateMutability":"view","type":"function"},{"inputs":[{"internalType":"enum IAuditTypes.AuditAction","name":"action","type":"uint8"}],"name":"getEntriesByAction","outputs":[{"internalType":"uint256[]","name":"","type":"uint256[]"}],"stateMutability":"view","type":"function"},{"inputs":[{"internalType":"uint256","name":"entityId","type":"uint256"}],"name":"getEntriesByEntityId","outputs":[{"internalType":"uint256[]","name":"","type":"uint256[]"}],"stateMutability":"view","type":"function"},{"inputs":[{"internalType":"string","name":"entityType","type":"string"}],"name":"getEntriesByEntityType","outputs":[{"internalType":"uint256[]","name":"","type":"uint256[]"}],"stateMutability":"view","type":"function"},{"inputs":[{"internalType":"address","name":"user","type":"address"}],"name":"getEntriesByUser","outputs":[{"internalType":"uint256[]","name":"","type":"uint256[]"}],"stateMutability":"view","type":"function"},{"inputs":[{"internalType":"uint256","name":"fromTimestamp","type":"uint256"},{"internalType":"uint256","name":"toTimestamp","type":"uint256"}],"name":"getEntriesInRange","outputs":[{"internalType":"uint256[]","name":"","type":"uint256[]"}],"stateMutability":"view","type":"function"},{"inputs":[{"internalType":"uint256","name":"entryId","type":"uint256"}],"name":"getEntry","outputs":[{"components":[{"internalType":"uint256","name":"id","type":"uint256"},{"internalType":"address","name":"user","type":"address"},{"internalType":"string","name":"userName","type":"string"},{"internalType":"enum IAuditTypes.AuditAction","name":"action","type":"uint8"},{"internalType":"string","name":"entityType","type":"string"},{"internalType":"uint256","name":"entityId","type":"uint256"},{"internalType":"string","name":"details","type":"string"},{"internalType":"bytes32","name":"dataHash","type":"bytes32"},{"internalType":"uint256","name":"timestamp","type":"uint256"},{"internalType":"uint256","name":"blockNumber","type":"uint256"}],"internalType":"struct IAuditTypes.AuditEntry","name":"","type":"tuple"}],"stateMutability":"view","type":"function"},{"inputs":[{"internalType":"bytes32","name":"dataHash","type":"bytes32"}],"name":"getEntryByHash","outputs":[{"components":[{"internalType":"uint256","name":"id","type":"uint256"},{"internalType":"address","name":"user","type":"address"},{"internalType":"string","name":"userName","type":"string"},{"internalType":"enum IAuditTypes.AuditAction","name":"action","type":"uint8"},{"internalType":"string","name":"entityType","type":"string"},{"internalType":"uint256","name":"entityId","type":"uint256"},{"internalType":"string","name":"details","type":"string"},{"internalType":"bytes32","name":"dataHash","type":"bytes32"},{"internalType":"uint256","name":"timestamp","type":"uint256"},{"internalType":"uint256","name":"blockNumber","type":"uint256"}],"internalType":"struct IAuditTypes.AuditEntry","name":"","type":"tuple"}],"stateMutability":"view","type":"function"},{"inputs":[],"name":"getEntryCount","outputs":[{"internalType":"uint256","name":"","type":"uint256"}],"stateMutability":"view","type":"function"},{"inputs":[{"internalType":"uint256","name":"count","type":"uint256"}],"name":"getRecentEntries","outputs":[{"components":[{"internalType":"uint256","name":"id","type":"uint256"},{"internalType":"address","name":"user","type":"address"},{"internalType":"string","name":"userName","type":"string"},{"internalType":"enum IAuditTypes.AuditAction","name":"action","type":"uint8"},{"internalType":"string","name":"entityType","type":"string"},{"internalType":"uint256","name":"entityId","type":"uint256"},{"internalType":"string","name":"details","type":"string"},{"internalType":"bytes32","name":"dataHash","type":"bytes32"},{"internalType":"uint256","name":"timestamp","type":"uint256"},{"internalType":"uint256","name":"blockNumber","type":"uint256"}],"internalType":"struct IAuditTypes.AuditEntry[]","name":"","type":"tuple[]"}],"stateMutability":"view","type":"function"},{"inputs":[{"internalType":"string","name":"entityType","type":"string"},{"internalType":"uint256","name":"entityId","type":"uint256"},{"internalType":"string","name":"details","type":"string"}],"name":"logCreate","outputs":[{"internalType":"uint256","name":"","type":"uint256"}],"stateMutability":"nonpayable","type":"function"},{"inputs":[{"internalType":"string","name":"entityType","type":"string"},{"internalType":"uint256","name":"entityId","type":"uint256"},{"internalType":"string","name":"details","type":"string"}],"name":"logDelete","outputs":[{"internalType":"uint256","name":"","type":"uint256"}],"stateMutability":"nonpayable","type":"function"},{"inputs":[{"internalType":"address","name":"user","type":"address"},{"internalType":"string","name":"userName","type":"string"},{"internalType":"enum IAuditTypes.AuditAction","name":"action","type":"uint8"},{"internalType":"string","name":"entityType","type":"string"},{"internalType":"uint256","name":"entityId","type":"uint256"},{"internalType":"string","name":"details","type":"string"},{"internalType":"bytes32","name":"dataHash","type":"bytes32"}],"name":"logEntry","outputs":[{"internalType":"uint256","name":"","type":"uint256"}],"stateMutability":"nonpayable","type":"function"},{"inputs":[{"internalType":"string","name":"entityType","type":"string"},{"internalType":"uint256","name":"entityId","type":"uint256"},{"internalType":"string","name":"details","type":"string"}],"name":"logStatusChange","outputs":[{"internalType":"uint256","name":"","type":"uint256"}],"stateMutability":"nonpayable","type":"function"},{"inputs":[{"internalType":"string","name":"entityType","type":"string"},{"internalType":"uint256","name":"entityId","type":"uint256"},{"internalType":"string","name":"details","type":"string"}],"name":"logTransfer","outputs":[{"internalType":"uint256","name":"","type":"uint256"}],"stateMutability":"nonpayable","type":"function"},{"inputs":[{"internalType":"string","name":"entityType","type":"string"},{"internalType":"uint256","name":"entityId","type":"uint256"},{"internalType":"string","name":"details","type":"string"}],"name":"logUpdate","outputs":[{"internalType":"uint256","name":"","type":"uint256"}],"stateMutability":"nonpayable","type":"function"},{"inputs":[{"internalType":"string","name":"entityType","type":"string"},{"internalType":"uint256","name":"entityId","type":"uint256"},{"internalType":"string","name":"details","type":"string"},{"internalType":"bytes32","name":"dataHash","type":"bytes32"}],"name":"logVerification","outputs":[{"internalType":"uint256","name":"","type":"uint256"}],"stateMutability":"nonpayable","type":"function"},{"inputs":[{"internalType":"uint256","name":"newLimit","type":"uint256"}],"name":"setDailyLimit","outputs":[],"stateMutability":"nonpayable","type":"function"},{"inputs":[{"internalType":"uint256","name":"entryId","type":"uint256"},{"internalType":"bytes32","name":"providedHash","type":"bytes32"}],"name":"verifyEntryIntegrity","outputs":[{"internalType":"bool","name":"","type":"bool"}],"stateMutability":"view","type":"function"},{"inputs":[{"internalType":"bytes32","name":"dataHash","type":"bytes32"}],"name":"verifyHash","outputs":[{"internalType":"bool","name":"","type":"bool"}],"stateMutability":"view","type":"function"}],"evm":{"bytecode":{"linkReferences":{},"object":"60a0346200011457601f6200665938819003918201601f19168301916001600160401b0383118484101762000119578084926020946040528339810103126200011457516001600160a01b0381169081900362000114578015620000cf57608052600080556000600855604051616529908162000130823960805181818161015e015281816101f1015281816110e3015281816111ae01528181611d9601528181611f4e015281816123370152818161251a0152818161309a01528181613dd70152818161454101526147650152f35b60405162461bcd60e51b815260206004820152601e60248201527f41756469744c6f673a20696e76616c696420636f7265206164647265737300006044820152606490fd5b600080fd5b634e487b7160e01b600052604160045260246000fdfe608080604052600436101561001357600080fd5b60003560e01c9081630ce3d863146153a25750806317f6fe5b146153635780631b5b0148146152f95780631b9efecd14615280578063268719021461473457806345b454711461461557806352f00b05146144f85780635e1fa7bf14613c165780636191043b14613bca578063650834d6146130695780637a360e651461304b5780637bf2abdc146124e95780637d7aed9e14612401578063813289971461229057806392860ff2146121f557806393cb8108146121685780639c32f6b41461203d578063a252b87e14611ed8578063a30a8e7114611d4d578063ad72367314611cc9578063af8c57e71461117d578063b20d30a9146110ac578063bae78d7b14610fbe578063c2b0ad4b14610dd9578063e271105f146101c0578063ef020f4a146101925763f2f4eb261461014857600080fd5b3461018d57600036600319011261018d576040517f00000000000000000000000000000000000000000000000000000000000000006001600160a01b03168152602090f35b600080fd5b3461018d57602036600319011261018d57600435600052600660205260206040600020541515604051908152f35b3461018d576101ce366154a3565b906040516395a8c58d60e01b8152602081806101ed336004830161568a565b03817f00000000000000000000000000000000000000000000000000000000000000006001600160a01b03165afa908115610dcd57600091610d9e575b508015610d85575b61023b906156be565b6008541561083757336000526009602052604060002062015180420460005260205261026f60406000205460085411615705565b610277615dac565b91610283600054615751565b9283600055604051602081019085825260018060601b03193360601b166040820152600160f91b60548201526102e560958289516102c9818c6020605586019101615584565b810188605582015242607582015203607581018452018261542a565b51902091604051916102f68361540e565b8583523360208401526040830152600260608301528560808301528360a083015260c08201528160e082015242610100820152436101208201528360005260016020526040600020815181556001810160018060a01b0360208401511660018060a01b0319825416179055604082015180519060018060401b038211610675578190610385600285015461576c565b601f81116107e4575b50602090601f83116001146107775760009261076c575b50508160011b916000199060031b1c19161760028201555b60038101606083015160068110156107565760ff80198354169116179055608082015180519060018060401b0382116106755781906103ff600485015461576c565b601f8111610703575b50602090601f83116001146106965760009261068b575b50508160011b916000199060031b1c19161760048201555b60a0820151600582015560c0820151805192906001600160401b03841161067557610465600684015461576c565b601f811161062e575b50916020979187938990601f87116001146105a65791866000805160206164d483398151915296976101209360099560009261059b575b50508160011b916000199060031b1c19161760068501555b60e08101516007850155610100810151600885015501519101556104e0836157d7565b33600052600387526104f683604060002061580e565b61051d836040518981855161050e8183858a01615584565b8101600481520301902061580e565b846000526005875261053383604060002061580e565b83600052600687528260406000205561055d604051916002835260608984015260608301906155a7565b9360408201528033940390a433600052600982526040600020620151804204600052825260406000206105908154615751565b90555b604051908152f35b015190508d806104a5565b9590600684016000528a6000209660005b601f19841681106106145750826000805160206164d483398151915297986009959360019361012096601f198116106105fb575b505050811b0160068501556104bd565b015160001960f88460031b161c191690558d80806105eb565b8282015189556001909801978b9750918c01918c016105b7565b600684016000526020600020601f860160051c81016020871061066e575b601f830160051c8201811061066257505061046e565b6000815560010161064c565b508061064c565b634e487b7160e01b600052604160045260246000fd5b01519050888061041f565b600485016000908152602081209350601f198516905b8181106106eb57509084600195949392106106d2575b505050811b016004820155610437565b015160001960f88460031b161c191690558880806106c2565b929360206001819287860151815501950193016106ac565b909150600484016000526020600020601f840160051c81016020851061074f575b90849392915b601f830160051c82018110610740575050610408565b6000815585945060010161072a565b5080610724565b634e487b7160e01b600052602160045260246000fd5b0151905088806103a5565b600285016000908152602081209350601f198516905b8181106107cc57509084600195949392106107b3575b505050811b0160028201556103bd565b015160001960f88460031b161c191690558880806107a3565b9293602060018192878601518155019501930161078d565b909150600284016000526020600020601f840160051c810160208510610830575b90849392915b601f830160051c8201811061082157505061038e565b6000815585945060010161080b565b5080610805565b61083f615dac565b9161084b600054615751565b9283600055604051602081019085825260018060601b03193360601b166040820152600160f91b605482015261089160958289516102c9818c6020605586019101615584565b51902091604051916108a28361540e565b8583523360208401526040830152600260608301528560808301528360a083015260c08201528160e082015242610100820152436101208201528360005260016020526040600020815181556001810160018060a01b0360208401511660018060a01b0319825416179055604082015180519060018060401b038211610675578190610931600285015461576c565b601f8111610d32575b50602090601f8311600114610cc057600092610cb5575b50508160011b916000199060031b1c19161760028201555b60038101606083015160068110156107565760ff80198354169116179055608082015180519060018060401b0382116106755781906109ab600485015461576c565b601f8111610c62575b50602090601f8311600114610bf057600092610be5575b50508160011b916000199060031b1c19161760048201555b60a0820151600582015560c0820151805192906001600160401b03841161067557610a11600684015461576c565b601f8111610b9e575b50916020979187938990601f8711600114610b165791866000805160206164d4833981519152969761012093600995600092610b0b575b50508160011b916000199060031b1c19161760068501555b60e0810151600785015561010081015160088501550151910155610a8c836157d7565b3360005260038752610aa283604060002061580e565b610aba836040518981855161050e8183858a01615584565b8460005260058752610ad083604060002061580e565b836000526006875282604060002055610afa604051916002835260608984015260608301906155a7565b9360408201528033940390a4610593565b015190508d80610a51565b9590600684016000528a6000209660005b601f1984168110610b845750826000805160206164d483398151915297986009959360019361012096601f19811610610b6b575b505050811b016006850155610a69565b015160001960f88460031b161c191690558d8080610b5b565b8282015189556001909801978b9750918c01918c01610b27565b600684016000526020600020601f860160051c810160208710610bde575b601f830160051c82018110610bd2575050610a1a565b60008155600101610bbc565b5080610bbc565b0151905088806109cb565b9250600484016000526020600020906000935b601f1984168510610c47576001945083601f19811610610c2e575b505050811b0160048201556109e3565b015160001960f88460031b161c19169055888080610c1e565b81810151835560209485019460019093019290910190610c03565b909150600484016000526020600020601f840160051c810160208510610cae575b90849392915b601f830160051c82018110610c9f5750506109b4565b60008155859450600101610c89565b5080610c83565b015190508880610951565b9250600284016000526020600020906000935b601f1984168510610d17576001945083601f19811610610cfe575b505050811b016002820155610969565b015160001960f88460031b161c19169055888080610cee565b81810151835560209485019460019093019290910190610cd3565b909150600284016000526020600020601f840160051c810160208510610d7e575b90849392915b601f830160051c82018110610d6f57505061093a565b60008155859450600101610d59565b5080610d53565b503360009081526007602052604090205460ff16610232565b610dc0915060203d602011610dc6575b610db8818361542a565b810190615672565b8461022a565b503d610dae565b6040513d6000823e3d90fd5b3461018d5760208060031936011261018d57600280549060043582811115610fb85750815b610e07836154ed565b92610e15604051948561542a565b808452601f19610e24826154ed565b018560005b828110610fa2575091926000198082019350915080831160005b858110610ea857604080518a81528951818c01819052600092600582901b83018101918c8e01918e9085015b828710610e7c5785850386f35b909192938280610e98600193603f198a820301865288516155d9565b9601920196019592919092610e6f565b81610f8c57838184030190858211610f8c578760098b610f2360ff610ecf610f87976157a6565b9054600391821b1c600052610f1160019687865260406000209560405198610ef68a61540e565b87548a528701546001600160a01b03169089015285016163af565b60408701528301541660608501615760565b610f2f600482016163af565b6080840152600581015460a0840152610f4a600682016163af565b60c0840152600781015460e084015260088101546101008401520154610120820152610f76828b61634c565b52610f81818a61634c565b50615751565b610e43565b634e487b7160e01b600052601160045260246000fd5b610faa616360565b828289010152018690610e29565b91610dfe565b3461018d5760208060031936011261018d57600435610fdb616360565b508060005260018252610ff46040600020541515616455565b600052600181526040600020906009604051926110108461540e565b8054845260018101546001600160a01b031683850152611032600282016163af565b604085015261104b60ff60038301541660608601615760565b611057600482016163af565b6080850152600581015460a0850152611072600682016163af565b60c0850152600781015460e0850152600881015461010085015201546101208301526110a86040519282849384528301906155d9565b0390f35b3461018d57602036600319011261018d57600435604051906395a8c58d60e01b8252602082806110df33600483016156a4565b03817f00000000000000000000000000000000000000000000000000000000000000006001600160a01b03165afa908115610dcd5761114a6040927f207c4cbdf55ec315a13f0d5e047732ec5d947da056e706593aa509909941cedf9460009161115f575b50616300565b600854908060085582519182526020820152a1005b611177915060203d8111610dc657610db8818361542a565b85611144565b3461018d5761118b366154a3565b906040516395a8c58d60e01b8152602081806111aa336004830161568a565b03817f00000000000000000000000000000000000000000000000000000000000000006001600160a01b03165afa908115610dcd57600091611caa575b508015611c91575b6111f8906156be565b6008541561175f57336000526009602052604060002062015180420460005260205261122c60406000205460085411615705565b611234615dac565b91611240600054615751565b9283600055604051602081019085825260018060601b03193360601b166040820152600160fa1b605482015261128660958289516102c9818c6020605586019101615584565b51902091604051916112978361540e565b8583523360208401526040830152600460608301528560808301528360a083015260c08201528160e082015242610100820152436101208201528360005260016020526040600020815181556001810160018060a01b0360208401511660018060a01b0319825416179055604082015180519060018060401b038211610675578190611326600285015461576c565b601f811161170c575b50602090601f831160011461169f57600092611694575b50508160011b916000199060031b1c19161760028201555b60038101606083015160068110156107565760ff80198354169116179055608082015180519060018060401b0382116106755781906113a0600485015461576c565b601f8111611641575b50602090601f83116001146115d4576000926115c9575b50508160011b916000199060031b1c19161760048201555b60a0820151600582015560c0820151805192906001600160401b03841161067557611406600684015461576c565b601f8111611582575b50916020979187938990601f87116001146114fa5791866000805160206164d48339815191529697610120936009956000926114ef575b50508160011b916000199060031b1c19161760068501555b60e0810151600785015561010081015160088501550151910155611481836157d7565b336000526003875261149783604060002061580e565b6114af836040518981855161050e8183858a01615584565b84600052600587526114c583604060002061580e565b83600052600687528260406000205561055d604051916004835260608984015260608301906155a7565b015190508d80611446565b9590600684016000528a6000209660005b601f19841681106115685750826000805160206164d483398151915297986009959360019361012096601f1981161061154f575b505050811b01600685015561145e565b015160001960f88460031b161c191690558d808061153f565b8282015189556001909801978b9750918c01918c0161150b565b600684016000526020600020601f860160051c8101602087106115c2575b601f830160051c820181106115b657505061140f565b600081556001016115a0565b50806115a0565b0151905088806113c0565b600485016000908152602081209350601f198516905b8181106116295750908460019594939210611610575b505050811b0160048201556113d8565b015160001960f88460031b161c19169055888080611600565b929360206001819287860151815501950193016115ea565b909150600484016000526020600020601f840160051c81016020851061168d575b90849392915b601f830160051c8201811061167e5750506113a9565b60008155859450600101611668565b5080611662565b015190508880611346565b600285016000908152602081209350601f198516905b8181106116f457509084600195949392106116db575b505050811b01600282015561135e565b015160001960f88460031b161c191690558880806116cb565b929360206001819287860151815501950193016116b5565b909150600284016000526020600020601f840160051c810160208510611758575b90849392915b601f830160051c8201811061174957505061132f565b60008155859450600101611733565b508061172d565b611767615dac565b91611773600054615751565b9283600055604051602081019085825260018060601b03193360601b166040820152600160fa1b60548201526117b960958289516102c9818c6020605586019101615584565b51902091604051916117ca8361540e565b858352602083019133835260408401918252600460608501528760808501528560a085015260c08401528360e0840152426101008401524361012084015285600052600160205260406000209183518355600183019060018060a01b0390511660018060a01b03198254161790555180519060018060401b038211610675578190611858600285015461576c565b601f8111611c3e575b50602090601f8311600114611bd157600092611bc6575b50508160011b916000199060031b1c19161760028201555b60038101606083015160068110156107565760ff80198354169116179055608082015180519060018060401b0382116106755781906118d2600485015461576c565b601f8111611b73575b50602090601f8311600114611b0657600092611afb575b50508160011b916000199060031b1c19161760048201555b60a0820151600582015560c0820151805192906001600160401b03841161067557611938600684015461576c565b601f8111611ab4575b50916020979187938990601f8711600114611a2c5791866000805160206164d4833981519152969761012093600995600092611a21575b50508160011b916000199060031b1c19161760068501555b60e08101516007850155610100810151600885015501519101556119b3836157d7565b33600052600387526119c983604060002061580e565b6119e1836040518981855161050e8183858a01615584565b84600052600587526119f783604060002061580e565b836000526006875282604060002055610afa604051916004835260608984015260608301906155a7565b015190508d80611978565b9590600684016000528a6000209660005b601f1984168110611a9a5750826000805160206164d483398151915297986009959360019361012096601f19811610611a81575b505050811b016006850155611990565b015160001960f88460031b161c191690558d8080611a71565b8282015189556001909801978b9750918c01918c01611a3d565b600684016000526020600020601f860160051c810160208710611af4575b601f830160051c82018110611ae8575050611941565b60008155600101611ad2565b5080611ad2565b0151905088806118f2565b600485016000908152602081209350601f198516905b818110611b5b5750908460019594939210611b42575b505050811b01600482015561190a565b015160001960f88460031b161c19169055888080611b32565b92936020600181928786015181550195019301611b1c565b909150600484016000526020600020601f840160051c810160208510611bbf575b90849392915b601f830160051c82018110611bb05750506118db565b60008155859450600101611b9a565b5080611b94565b015190508880611878565b600285016000908152602081209350601f198516905b818110611c265750908460019594939210611c0d575b505050811b016002820155611890565b015160001960f88460031b161c19169055888080611bfd565b92936020600181928786015181550195019301611be7565b909150600284016000526020600020601f840160051c810160208510611c8a575b90849392915b601f830160051c82018110611c7b575050611861565b60008155859450600101611c65565b5080611c5f565b503360009081526007602052604090205460ff166111ef565b611cc3915060203d602011610dc657610db8818361542a565b846111e7565b3461018d5760208060031936011261018d576001600160a01b03611ceb6153bd565b1660005260038152604060002090604051908181845491828152019360005281600020916000905b828210611d36576110a885611d2a8189038261542a565b604051918291826153d3565b835486529485019460019384019390910190611d13565b3461018d5760208060031936011261018d57611d676153bd565b6040516395a8c58d60e01b81529081611d8333600483016156a4565b6001600160a01b039391859183919003817f000000000000000000000000000000000000000000000000000000000000000087165afa8015610dcd57611dd091600091611ec15750616300565b16908115611e7e57816000526007815260ff60406000205416611e2e5760079082600052526040600020600160ff1982541617905533907fbc77d0d80282c2ecb43fbfedcc07876ee409cc1d3444079d801da714afda69f2600080a3005b6084906040519062461bcd60e51b82526004820152602360248201527f41756469744c6f673a206d6f64756c6520616c726561647920617574686f72696044820152621e995960ea1b6064820152fd5b6064906040519062461bcd60e51b825280600483015260248201527f41756469744c6f673a20696e76616c6964206d6f64756c6520616464726573736044820152fd5b6111779150853d8711610dc657610db8818361542a565b3461018d57608036600319011261018d576001600160401b0360043581811161018d57611f0990369060040161544d565b6024359160443590811161018d57611f2590369060040161544d565b6040516395a8c58d60e01b81526020936064359291858180611f4a336004830161568a565b03817f00000000000000000000000000000000000000000000000000000000000000006001600160a01b03165afa908115610dcd57600091612020575b508015612008575b611f98906156be565b60085415611ffa5790611fd792916201518042049433600052600987526040600020866000528752611fd260406000205460085411615705565b615dde565b903360005260098352604060002090600052825260406000206105908154615751565b61200393615dde565b610593565b5033600090815260078652604090205460ff16611f8f565b6120379150863d8811610dc657610db8818361542a565b86611f87565b3461018d57604036600319011261018d57600254600435906024356000805b838110612106575061206d906164a1565b9260009060005b84811061208957604051806110a888826153d3565b612092816157a6565b9054600391821b1c6000526001602052600860406000200154858482101591826120fb575b50506120cd575b506120c890615751565b612074565b81936120f4916120df6120c8946157a6565b9054911b1c6120ee828a61634c565b52615751565b92906120be565b1115905085896120b7565b61210f816157a6565b90549060031b1c60005260016020526008604060002001548386821015918261215d575b5050612148575b61214390615751565b61205c565b9061215561214391615751565b91905061213a565b111590508387612133565b3461018d5760208060031936011261018d57612182616360565b506004356000526006815260406000205480156121b557600052600181526040600020906009604051926110108461540e565b60405162461bcd60e51b8152600481018390526018602482015277105d591a5d131bd9ce881a185cda081b9bdd08199bdd5b9960421b6044820152606490fd5b3461018d5760208060031936011261018d576004356001600160401b03811161018d578161222a61223d92369060040161544d565b8160405193828580945193849201615584565b8101600481520301902090604051908181845491828152019360005281600020916000905b828210612279576110a885611d2a8189038261542a565b835486529485019460019384019390910190612262565b3461018d5760e036600319011261018d576122a96153bd565b6001600160401b039060243582811161018d576122ca90369060040161544d565b9160443590600682101561018d5760643581811161018d576122f090369060040161544d565b906084359060a43590811161018d5761230d90369060040161544d565b9160c43593604051966395a8c58d60e01b8852602097888180612333336004830161568a565b03817f00000000000000000000000000000000000000000000000000000000000000006001600160a01b03165afa908115610dcd576000916123e4575b5080156123cc575b612381906156be565b600854156123c35790611fd79594939291620151804204973360005260098a526040600020896000528a526123be60406000205460085411615705565b615860565b61200396615860565b5033600090815260078952604090205460ff16612378565b6123fb9150893d8b11610dc657610db8818361542a565b89612370565b3461018d57600036600319011261018d576002546201518090814204828102928184041490151715610f8c5760009160009060005b83811061247f5750506080926064831160001461246a57600a8304905b604051938452602084015260408301526060820152f35b821561247857825b90612453565b6001612472565b612488816157a6565b90549060031b1c6000526001602052604060002082600882015410156124d5575b600701546124c0575b6124bb90615751565b612436565b916124cd6124bb91615751565b9290506124b2565b946124e1600791615751565b9590506124a9565b3461018d576124f7366154a3565b906040516395a8c58d60e01b815260208180612516336004830161568a565b03817f00000000000000000000000000000000000000000000000000000000000000006001600160a01b03165afa908115610dcd5760009161302c575b508015613013575b612564906156be565b60085415612ad557336000526009602052604060002062015180420460005260205261259860406000205460085411615705565b6125a0615dac565b916125ac600054615751565b9283600055604051602081019085825260018060601b03193360601b166040820152600360f81b60548201526125f260958289516102c9818c6020605586019101615584565b51902091604051916126038361540e565b8583523360208401526040830152600360608301528560808301528360a083015260c08201528160e082015242610100820152436101208201528360005260016020526040600020815181556001810160018060a01b0360208401511660018060a01b0319825416179055604082015180519060018060401b038211610675578190612692600285015461576c565b601f8111612a82575b50602090601f8311600114612a1057600092612a05575b50508160011b916000199060031b1c19161760028201555b60038101606083015160068110156107565760ff80198354169116179055608082015180519060018060401b03821161067557819061270c600485015461576c565b601f81116129b2575b50602090601f831160011461294057600092612935575b50508160011b916000199060031b1c19161760048201555b60a0820151600582015560c0820151805192906001600160401b03841161067557612772600684015461576c565b601f81116128ee575b50916020979187938990601f87116001146128665791866000805160206164d483398151915296976101209360099560009261285b575b50508160011b916000199060031b1c19161760068501555b60e08101516007850155610100810151600885015501519101556127ed836157d7565b336000526003875261280383604060002061580e565b61281b836040518981855161050e8183858a01615584565b846000526005875261283183604060002061580e565b83600052600687528260406000205561055d604051916003835260608984015260608301906155a7565b015190508d806127b2565b9590600684016000528a6000209660005b601f19841681106128d45750826000805160206164d483398151915297986009959360019361012096601f198116106128bb575b505050811b0160068501556127ca565b015160001960f88460031b161c191690558d80806128ab565b8282015189556001909801978b9750918c01918c01612877565b600684016000526020600020601f860160051c81016020871061292e575b601f830160051c8201811061292257505061277b565b6000815560010161290c565b508061290c565b01519050888061272c565b9250600484016000526020600020906000935b601f1984168510612997576001945083601f1981161061297e575b505050811b016004820155612744565b015160001960f88460031b161c1916905588808061296e565b81810151835560209485019460019093019290910190612953565b909150600484016000526020600020601f840160051c8101602085106129fe575b90849392915b601f830160051c820181106129ef575050612715565b600081558594506001016129d9565b50806129d3565b0151905088806126b2565b9250600284016000526020600020906000935b601f1984168510612a67576001945083601f19811610612a4e575b505050811b0160028201556126ca565b015160001960f88460031b161c19169055888080612a3e565b81810151835560209485019460019093019290910190612a23565b909150600284016000526020600020601f840160051c810160208510612ace575b90849392915b601f830160051c82018110612abf57505061269b565b60008155859450600101612aa9565b5080612aa3565b612add615dac565b91612ae9600054615751565b9283600055604051602081019085825260018060601b03193360601b166040820152600360f81b6054820152612b2f60958289516102c9818c6020605586019101615584565b5190209160405191612b408361540e565b8583523360208401526040830152600360608301528560808301528360a083015260c08201528160e082015242610100820152436101208201528360005260016020526040600020815181556001810160018060a01b0360208401511660018060a01b0319825416179055604082015180519060018060401b038211610675578190612bcf600285015461576c565b601f8111612fc0575b50602090601f8311600114612f4e57600092612f43575b50508160011b916000199060031b1c19161760028201555b6060820151600681101561075657600382019060ff80198354169116179055608082015180519060018060401b038211610675578190612c4a600485015461576c565b601f8111612ef0575b50602090601f8311600114612e7e57600092612e73575b50508160011b916000199060031b1c19161760048201555b60a0820151600582015560c0820151805192906001600160401b03841161067557612cb0600684015461576c565b601f8111612e2c575b50916020979187938990601f8711600114612da45791866000805160206164d4833981519152969761012093600995600092612d99575b50508160011b916000199060031b1c19161760068501555b60e0810151600785015561010081015160088501550151910155612d2b836157d7565b3360005260038752612d4183604060002061580e565b612d59836040518981855161050e8183858a01615584565b8460005260058752612d6f83604060002061580e565b836000526006875282604060002055610afa604051916003835260608984015260608301906155a7565b015190508d80612cf0565b9590600684016000528a6000209660005b601f1984168110612e125750826000805160206164d483398151915297986009959360019361012096601f19811610612df9575b505050811b016006850155612d08565b015160001960f88460031b161c191690558d8080612de9565b8282015189556001909801978b9750918c01918c01612db5565b600684016000526020600020601f860160051c810160208710612e6c575b601f830160051c82018110612e60575050612cb9565b60008155600101612e4a565b5080612e4a565b015190508880612c6a565b9250600484016000526020600020906000935b601f1984168510612ed5576001945083601f19811610612ebc575b505050811b016004820155612c82565b015160001960f88460031b161c19169055888080612eac565b81810151835560209485019460019093019290910190612e91565b909150600484016000526020600020601f840160051c810160208510612f3c575b90849392915b601f830160051c82018110612f2d575050612c53565b60008155859450600101612f17565b5080612f11565b015190508880612bef565b9250600284016000526020600020906000935b601f1984168510612fa5576001945083601f19811610612f8c575b505050811b016002820155612c07565b015160001960f88460031b161c19169055888080612f7c565b81810151835560209485019460019093019290910190612f61565b909150600284016000526020600020601f840160051c81016020851061300c575b90849392915b601f830160051c82018110612ffd575050612bd8565b60008155859450600101612fe7565b5080612fe1565b503360009081526007602052604090205460ff1661255b565b613045915060203d602011610dc657610db8818361542a565b84612553565b3461018d57600036600319011261018d576020600254604051908152f35b3461018d57613077366154a3565b906040516395a8c58d60e01b815260208180613096336004830161568a565b03817f00000000000000000000000000000000000000000000000000000000000000006001600160a01b03165afa908115610dcd57600091613bab575b508015613b92575b6130e4906156be565b6008541561365557336000526009602052604060002062015180420460005260205261311860406000205460085411615705565b613120615dac565b9161312c600054615751565b9283600055604051602081019085825260018060601b03193360601b166040820152600160f81b605482015261317260958289516102c9818c6020605586019101615584565b51902091604051916131838361540e565b8583523360208401526040830152600160608301528560808301528360a083015260c08201528160e082015242610100820152436101208201528360005260016020526040600020815181556001810160018060a01b0360208401511660018060a01b0319825416179055604082015180519060018060401b038211610675578190613212600285015461576c565b601f8111613602575b50602090601f831160011461359057600092613585575b50508160011b916000199060031b1c19161760028201555b60038101606083015160068110156107565760ff80198354169116179055608082015180519060018060401b03821161067557819061328c600485015461576c565b601f8111613532575b50602090601f83116001146134c0576000926134b5575b50508160011b916000199060031b1c19161760048201555b60a0820151600582015560c0820151805192906001600160401b038411610675576132f2600684015461576c565b601f811161346e575b50916020979187938990601f87116001146133e65791866000805160206164d48339815191529697610120936009956000926133db575b50508160011b916000199060031b1c19161760068501555b60e081015160078501556101008101516008850155015191015561336d836157d7565b336000526003875261338383604060002061580e565b61339b836040518981855161050e8183858a01615584565b84600052600587526133b183604060002061580e565b83600052600687528260406000205561055d604051916001835260608984015260608301906155a7565b015190508d80613332565b9590600684016000528a6000209660005b601f19841681106134545750826000805160206164d483398151915297986009959360019361012096601f1981161061343b575b505050811b01600685015561334a565b015160001960f88460031b161c191690558d808061342b565b8282015189556001909801978b9750918c01918c016133f7565b600684016000526020600020601f860160051c8101602087106134ae575b601f830160051c820181106134a25750506132fb565b6000815560010161348c565b508061348c565b0151905088806132ac565b9250600484016000526020600020906000935b601f1984168510613517576001945083601f198116106134fe575b505050811b0160048201556132c4565b015160001960f88460031b161c191690558880806134ee565b818101518355602094850194600190930192909101906134d3565b909150600484016000526020600020601f840160051c81016020851061357e575b90849392915b601f830160051c8201811061356f575050613295565b60008155859450600101613559565b5080613553565b015190508880613232565b9250600284016000526020600020906000935b601f19841685106135e7576001945083601f198116106135ce575b505050811b01600282015561324a565b015160001960f88460031b161c191690558880806135be565b818101518355602094850194600190930192909101906135a3565b909150600284016000526020600020601f840160051c81016020851061364e575b90849392915b601f830160051c8201811061363f57505061321b565b60008155859450600101613629565b5080613623565b61365d615dac565b91613669600054615751565b9283600055604051602081019085825260018060601b03193360601b166040820152600160f81b60548201526136af60958289516102c9818c6020605586019101615584565b51902091604051916136c08361540e565b8583523360208401526040830152600160608301528560808301528360a083015260c08201528160e082015242610100820152436101208201528360005260016020526040600020815181556001810160018060a01b0360208401511660018060a01b0319825416179055604082015180519060018060401b03821161067557819061374f600285015461576c565b601f8111613b3f575b50602090601f8311600114613acd57600092613ac2575b50508160011b916000199060031b1c19161760028201555b60038101606083015160068110156107565760ff80198354169116179055608082015180519060018060401b0382116106755781906137c9600485015461576c565b601f8111613a6f575b50602090601f83116001146139fd576000926139f2575b50508160011b916000199060031b1c19161760048201555b60a0820151600582015560c0820151805192906001600160401b0384116106755761382f600684015461576c565b601f81116139ab575b50916020979187938990601f87116001146139235791866000805160206164d4833981519152969761012093600995600092613918575b50508160011b916000199060031b1c19161760068501555b60e08101516007850155610100810151600885015501519101556138aa836157d7565b33600052600387526138c083604060002061580e565b6138d8836040518981855161050e8183858a01615584565b84600052600587526138ee83604060002061580e565b836000526006875282604060002055610afa604051916001835260608984015260608301906155a7565b015190508d8061386f565b9590600684016000528a6000209660005b601f19841681106139915750826000805160206164d483398151915297986009959360019361012096601f19811610613978575b505050811b016006850155613887565b015160001960f88460031b161c191690558d8080613968565b8282015189556001909801978b9750918c01918c01613934565b600684016000526020600020601f860160051c8101602087106139eb575b601f830160051c820181106139df575050613838565b600081556001016139c9565b50806139c9565b0151905088806137e9565b9250600484016000526020600020906000935b601f1984168510613a54576001945083601f19811610613a3b575b505050811b016004820155613801565b015160001960f88460031b161c19169055888080613a2b565b81810151835560209485019460019093019290910190613a10565b909150600484016000526020600020601f840160051c810160208510613abb575b90849392915b601f830160051c82018110613aac5750506137d2565b60008155859450600101613a96565b5080613a90565b01519050888061376f565b9250600284016000526020600020906000935b601f1984168510613b24576001945083601f19811610613b0b575b505050811b016002820155613787565b015160001960f88460031b161c19169055888080613afb565b81810151835560209485019460019093019290910190613ae0565b909150600284016000526020600020601f840160051c810160208510613b8b575b90849392915b601f830160051c82018110613b7c575050613758565b60008155859450600101613b66565b5080613b60565b503360009081526007602052604090205460ff166130db565b613bc4915060203d602011610dc657610db8818361542a565b846130d3565b3461018d57604036600319011261018d57600435806000526001602052613bf76040600020541515616455565b6000526001602052602060243560076040600020015414604051908152f35b3461018d5760c036600319011261018d576004356001600160401b03811161018d573660238201121561018d578060040135613c51816154ed565b91613c5f604051938461542a565b8183526024602084019260051b8201019036821161018d57602401915b8183106144d857836024356001600160401b03811161018d57613ca3903690600401615504565b60443591906001600160401b03831161018d573660238401121561018d578260040135613ccf816154ed565b93613cdd604051958661542a565b8185526024602086019260051b8201019036821161018d57602401915b8183106144bf57505060643590506001600160401b03811161018d57613d24903690600401615504565b6001600160401b036084351161018d5736602360843501121561018d576084356004013593613d52856154ed565b94613d60604051968761542a565b808652602086013660248360051b60843501011161018d57602460843501905b60248360051b608435010182106144af57505060a43590506001600160401b03811161018d57613db4903690600401615504565b926040516395a8c58d60e01b815260208180613dd333600483016156a4565b03817f00000000000000000000000000000000000000000000000000000000000000006001600160a01b03165afa8015610dcd57613e18916000916144905750616300565b8451815181149081614485575b8161447a575b8161446f575b81614464575b501561441f5760005b855181101561441d57613e53818761634c565b51613e5e828461634c565b51613e69838661634c565b5190600682101561075657613e7e848861634c565b51613e89858c61634c565b5193613e95868b61634c565b51613ea1600054615751565b938460005560405185602082015260018060601b03198460601b1660408201528660f81b6054820152613f0060958651613ee2816055860160208b01615584565b83018a6055820152836075914283820152039081018452018261542a565b602081519101209160405191613f158361540e565b8683526001600160a01b03851660208401526040830152613f398760608401615760565b8460808301528760a083015260c08201528160e08201524261010082015243610120820152846000526001602052604060002090805182556001820160018060a01b0360208301511660018060a01b0319825416179055604081015180519060018060401b038211610675578190613fb4600286015461576c565b601f81116143ca575b50602090601f83116001146143585760009261434d575b50508160011b916000199060031b1c19161760028301555b6060810151600681101561075657600383019060ff80198354169116179055608081015180519060018060401b03821161067557819061402f600486015461576c565b601f81116142fa575b50602090601f83116001146142885760009261427d575b50508160011b916000199060031b1c19161760048301555b60a0810151600583015560c08101518051906001600160401b03821161067557614094600685015461576c565b601f8111614236575b50602090601f83116001146141a25761012061418a94846141929e9d9c9b9a98956000805160206164d48339815191529a9895600995600092614197575b50508160011b916000199060031b1c19161760068501555b60e0810151600785015561010081015160088501550151910155614116866157d7565b60018060a01b038316600052600360205261413586604060002061580e565b61414e86604051602081885161050e8183858d01615584565b87600052600560205261416586604060002061580e565b8060005260066020528560406000205560405193849360018060a01b03169784615837565b0390a4615751565b613e40565b0151905038806140db565b906006850160005260206000209160005b601f198516811061421e575061418a946001856141929f9e9d9c9b999695600995610120956000805160206164d48339815191529d9b98601f19811610614205575b505050811b0160068501556140f3565b015160001960f88460031b161c191690553880806141f5565b919260206001819286850151815501940192016141b3565b600685016000526020600020601f840160051c810160208510614276575b601f830160051c8201811061426a57505061409d565b60008155600101614254565b5080614254565b01519050388061404f565b9250600485016000526020600020906000935b601f19841685106142df576001945083601f198116106142c6575b505050811b016004830155614067565b015160001960f88460031b161c191690553880806142b6565b8181015183556020948501946001909301929091019061429b565b909150600485016000526020600020601f840160051c810160208510614346575b90849392915b601f830160051c82018110614337575050614038565b60008155859450600101614321565b508061431b565b015190503880613fd4565b9250600285016000526020600020906000935b601f19841685106143af576001945083601f19811610614396575b505050811b016002830155613fec565b015160001960f88460031b161c19169055388080614386565b8181015183556020948501946001909301929091019061436b565b909150600285016000526020600020601f840160051c810160208510614416575b90849392915b601f830160051c82018110614407575050613fbd565b600081558594506001016143f1565b50806143eb565b005b60405162461bcd60e51b815260206004820152601f60248201527f41756469744c6f673a206172726179206c656e677468206d69736d61746368006044820152606490fd5b905084511487613e37565b875181149150613e31565b845181149150613e2b565b835181149150613e25565b6144a9915060203d602011610dc657610db8818361542a565b88611144565b8135815260209182019101613d80565b8235600681101561018d57815260209283019201613cfa565b82356001600160a01b038116810361018d57815260209283019201613c7c565b3461018d5760208060031936011261018d576145126153bd565b6040516395a8c58d60e01b8152908161452e33600483016156a4565b6001600160a01b039391859183919003817f000000000000000000000000000000000000000000000000000000000000000087165afa8015610dcd5761457b91600091611ec15750616300565b1690816000526007815260ff60406000205416156145d1576007908260005252604060002060ff19815416905533907fb542d86d237fe74c234c6e7863d124bdade62e5da92ba5692155922e6daf65c3600080a3005b6064906040519062461bcd60e51b82526004820152601f60248201527f41756469744c6f673a206d6f64756c65206e6f7420617574686f72697a6564006044820152fd5b3461018d5760208060031936011261018d57600435600680821015928361018d57600254916000805b8481106146da575061464f906164a1565b9360009160005b85811061466b57604051806110a889826153d3565b614674816157a6565b9054600391821b1c600052600186528860ff8260406000200154169061075657838110156107565784146146b2575b506146ad90615751565b614656565b81946146d3916146c46146ad946157a6565b9054911b1c6120ee828b61634c565b93906146a3565b8660ff6146e6836157a6565b9054600391821b1c60005260018752604060002001541690610756578381101561075657861461471f575b61471a90615751565b61463e565b9061472c61471a91615751565b919050614711565b3461018d57614742366154a3565b906040516395a8c58d60e01b815260208180614761336004830161568a565b03817f00000000000000000000000000000000000000000000000000000000000000006001600160a01b03165afa908115610dcd57600091615261575b508015615248575b6147af906156be565b60085415614d135733600052600960205260406000206201518042046000526020526147e360406000205460085411615705565b6147eb615dac565b916147f7600054615751565b9283600055604051602081019085825260018060601b03193360601b1660408201526000605482015261483a60958289516102c9818c6020605586019101615584565b519020916040519161484b8361540e565b8583523360208401526040830152600060608301528560808301528360a083015260c08201528160e082015242610100820152436101208201528360005260016020526040600020815181556001810160018060a01b0360208401511660018060a01b0319825416179055604082015180519060018060401b0382116106755781906148da600285015461576c565b601f8111614cc0575b50602090601f8311600114614c5357600092614c48575b50508160011b916000199060031b1c19161760028201555b60038101606083015160068110156107565760ff80198354169116179055608082015180519060018060401b038211610675578190614954600485015461576c565b601f8111614bf5575b50602090601f8311600114614b8857600092614b7d575b50508160011b916000199060031b1c19161760048201555b60a0820151600582015560c0820151805192906001600160401b038411610675576149ba600684015461576c565b601f8111614b36575b50916020979187938990601f8711600114614aae5791866000805160206164d4833981519152969761012093600995600092614aa3575b50508160011b916000199060031b1c19161760068501555b60e0810151600785015561010081015160088501550151910155614a35836157d7565b3360005260038752614a4b83604060002061580e565b614a63836040518981855161050e8183858a01615584565b8460005260058752614a7983604060002061580e565b83600052600687528260406000205561055d604051916000835260608984015260608301906155a7565b015190508d806149fa565b9590600684016000528a6000209660005b601f1984168110614b1c5750826000805160206164d483398151915297986009959360019361012096601f19811610614b03575b505050811b016006850155614a12565b015160001960f88460031b161c191690558d8080614af3565b8282015189556001909801978b9750918c01918c01614abf565b600684016000526020600020601f860160051c810160208710614b76575b601f830160051c82018110614b6a5750506149c3565b60008155600101614b54565b5080614b54565b015190508880614974565b600485016000908152602081209350601f198516905b818110614bdd5750908460019594939210614bc4575b505050811b01600482015561498c565b015160001960f88460031b161c19169055888080614bb4565b92936020600181928786015181550195019301614b9e565b909150600484016000526020600020601f840160051c810160208510614c41575b90849392915b601f830160051c82018110614c3257505061495d565b60008155859450600101614c1c565b5080614c16565b0151905088806148fa565b600285016000908152602081209350601f198516905b818110614ca85750908460019594939210614c8f575b505050811b016002820155614912565b015160001960f88460031b161c19169055888080614c7f565b92936020600181928786015181550195019301614c69565b909150600284016000526020600020601f840160051c810160208510614d0c575b90849392915b601f830160051c82018110614cfd5750506148e3565b60008155859450600101614ce7565b5080614ce1565b614d1b615dac565b91614d27600054615751565b9283600055604051602081019085825260018060601b03193360601b16604082015260006054820152614d6a60958289516102c9818c6020605586019101615584565b5190209160405191614d7b8361540e565b8583523360208401526040830152600060608301528560808301528360a083015260c08201528160e082015242610100820152436101208201528360005260016020526040600020815181556001810160018060a01b0360208401511660018060a01b0319825416179055604082015180519060018060401b038211610675578190614e0a600285015461576c565b601f81116151f5575b50602090601f83116001146151885760009261517d575b50508160011b916000199060031b1c19161760028201555b60038101606083015160068110156107565760ff80198354169116179055608082015180519060018060401b038211610675578190614e84600485015461576c565b601f811161512a575b50602090601f83116001146150b8576000926150ad575b50508160011b916000199060031b1c19161760048201555b60a0820151600582015560c0820151805192906001600160401b03841161067557614eea600684015461576c565b601f8111615066575b50916020979187938990601f8711600114614fde5791866000805160206164d4833981519152969761012093600995600092614fd3575b50508160011b916000199060031b1c19161760068501555b60e0810151600785015561010081015160088501550151910155614f65836157d7565b3360005260038752614f7b83604060002061580e565b614f93836040518981855161050e8183858a01615584565b8460005260058752614fa983604060002061580e565b836000526006875282604060002055610afa604051916000835260608984015260608301906155a7565b015190508d80614f2a565b9590600684016000528a6000209660005b601f198416811061504c5750826000805160206164d483398151915297986009959360019361012096601f19811610615033575b505050811b016006850155614f42565b015160001960f88460031b161c191690558d8080615023565b8282015189556001909801978b9750918c01918c01614fef565b600684016000526020600020601f860160051c8101602087106150a6575b601f830160051c8201811061509a575050614ef3565b60008155600101615084565b5080615084565b015190508880614ea4565b9250600484016000526020600020906000935b601f198416851061510f576001945083601f198116106150f6575b505050811b016004820155614ebc565b015160001960f88460031b161c191690558880806150e6565b818101518355602094850194600190930192909101906150cb565b909150600484016000526020600020601f840160051c810160208510615176575b90849392915b601f830160051c82018110615167575050614e8d565b60008155859450600101615151565b508061514b565b015190508880614e2a565b600285016000908152602081209350601f198516905b8181106151dd57509084600195949392106151c4575b505050811b016002820155614e42565b015160001960f88460031b161c191690558880806151b4565b9293602060018192878601518155019501930161519e565b909150600284016000526020600020601f840160051c810160208510615241575b90849392915b601f830160051c82018110615232575050614e13565b6000815585945060010161521c565b5080615216565b503360009081526007602052604090205460ff166147a6565b61527a915060203d602011610dc657610db8818361542a565b8461479e565b3461018d57600036600319011261018d57604051600280548083526000918252602080840193927f405787fa12a823e0f2b7631cc41b3ba8828b3321ca811111fa75cd3aa3bb5ace92915b8282106152e2576110a885611d2a8189038261542a565b8354865294850194600193840193909101906152cb565b3461018d5760208060031936011261018d5760043560005260058152604060002090604051908181845491828152019360005281600020916000905b82821061534c576110a885611d2a8189038261542a565b835486529485019460019384019390910190615335565b3461018d57602036600319011261018d576001600160a01b036153846153bd565b166000526007602052602060ff604060002054166040519015158152f35b3461018d57600036600319011261018d576020906008548152f35b600435906001600160a01b038216820361018d57565b6020908160408183019282815285518094520193019160005b8281106153fa575050505090565b8351855293810193928101926001016153ec565b61014081019081106001600160401b0382111761067557604052565b601f909101601f19168101906001600160401b0382119082101761067557604052565b81601f8201121561018d578035906001600160401b0382116106755760405192615481601f8401601f19166020018561542a565b8284526020838301011161018d57816000926020809301838601378301015290565b606060031982011261018d576001600160401b039160043583811161018d57826154cf9160040161544d565b926024359260443591821161018d576154ea9160040161544d565b90565b6001600160401b0381116106755760051b60200190565b9080601f8301121561018d5781359061551c826154ed565b9261552a604051948561542a565b828452602092838086019160051b8301019280841161018d57848301915b8483106155585750505050505090565b82356001600160401b03811161018d5786916155798484809489010161544d565b815201920191615548565b60005b8381106155975750506000910152565b8181015183820152602001615587565b906020916155c081518092818552858086019101615584565b601f01601f1916010190565b9060068210156107565752565b908151815260018060a01b03602083015116602082015261564f61563361560f60408501516101408060408701528501906155a7565b615621606086015160608601906155cc565b608085015184820360808601526155a7565b60a084015160a084015260c084015183820360c08501526155a7565b9160e081015160e083015261010080820151908301526101208091015191015290565b9081602091031261018d5751801515810361018d5790565b6001600160a01b0390911681526002602082015260400190565b6001600160a01b0390911681526003602082015260400190565b156156c557565b60405162461bcd60e51b8152602060048201526018602482015277105d591a5d131bd9ce881b9bdd08185d5d1a1bdc9a5e995960421b6044820152606490fd5b1561570c57565b60405162461bcd60e51b815260206004820152601e60248201527f41756469744c6f673a206461696c79206c696d697420657863656564656400006044820152606490fd5b6000198114610f8c5760010190565b60068210156107565752565b90600182811c9216801561579c575b602083101461578657565b634e487b7160e01b600052602260045260246000fd5b91607f169161577b565b6002548110156157c157600260005260206000200190600090565b634e487b7160e01b600052603260045260246000fd5b600254600160401b811015610675578060016157f692016002556157a6565b819291549060031b91821b91600019901b1916179055565b805490600160401b82101561067557600182018082558210156157c15760005260206000200155565b93929161585b9061584a866040946155cc565b6060602087015260608601906155a7565b930152565b949290919394615871600054615751565b9687600055604051936158838561540e565b8885526001600160a01b0383166020860190815260408601918252956158ac8860608801615760565b6080860185905260a0860189905260c086015260e085018290524261010086015243610120860152600089815260016020819052604090912086518155965190870180546001600160a01b0319166001600160a01b0392909216919091179055518051906001600160401b03821161067557819061592d600289015461576c565b601f8111615d59575b50602090601f8311600114615ce757600092615cdc575b50508160011b916000199060031b1c19161760028601555b60038501606085015160068110156107565760ff80198354169116179055608084015180519060018060401b0382116106755781906159a7600489015461576c565b601f8111615c89575b50602090601f8311600114615c1757600092615c0c575b50508160011b916000199060031b1c19161760048601555b60a0840151600586015560c084015180519094906001600160401b038111610675578995615a10600689015461576c565b601f8111615baf575b50602090601f8311600114615b1e57615af89493836000805160206164d4833981519152999a9460099461012094600092615b13575b50508160011b916000199060031b1c19161760068501555b60e0810151600785015561010081015160088501550151910155615a8a866157d7565b60018060a01b0383166000526003602052615aa986604060002061580e565b615ac286604051602081885161050e8183858d01615584565b876000526005602052615ad986604060002061580e565b80615afe575b6040516001600160a01b03909316969293849384615837565b0390a490565b80600052600660205285604060002055615adf565b015190503880615a4f565b979291906006840160005260206000209860005b601f1984168110615b945750926001836000805160206164d48339815191529a9b61012094615af8999897600997601f19811610615b7b575b505050811b016006850155615a67565b015160001960f88460031b161c19169055388080615b6b565b828201518b556001909a01998d995060209283019201615b32565b9091929394959650600688016000526020600020601f840160051c810160208510615c05575b908c98979695949392915b601f830160051c82018110615bf6575050615a19565b600081558d9950600101615be0565b5080615bd5565b0151905038806159c7565b9250600488016000526020600020906000935b601f1984168510615c6e576001945083601f19811610615c55575b505050811b0160048601556159df565b015160001960f88460031b161c19169055388080615c45565b81810151835560209485019460019093019290910190615c2a565b909150600488016000526020600020601f840160051c810160208510615cd5575b90849392915b601f830160051c82018110615cc65750506159b0565b60008155859450600101615cb0565b5080615caa565b01519050388061594d565b9250600288016000526020600020906000935b601f1984168510615d3e576001945083601f19811610615d25575b505050811b016002860155615965565b015160001960f88460031b161c19169055388080615d15565b81810151835560209485019460019093019290910190615cfa565b909150600288016000526020600020601f840160051c810160208510615da5575b90849392915b601f830160051c82018110615d96575050615936565b60008155859450600101615d80565b5080615d7a565b60408051919082016001600160401b0381118382101761067557604052600682526553797374656d60d01b6020830152565b929091615dec600054615751565b938460005560405191615dfe8361540e565b858352336020840152615e0f615dac565b6040840152600560608401528160808401528460a084015260c08301528260e08301524261010083015243610120830152846000526001602052604060002090825182556001820160018060a01b0360208501511660018060a01b0319825416179055604083015180519060018060401b038211610675578190615e96600286015461576c565b601f81116162ad575b50602090601f831160011461623b57600092616230575b50508160011b916000199060031b1c19161760028301555b6060830151600681101561075657600383019060ff80198354169116179055608083015180519060018060401b038211610675578190615f11600486015461576c565b601f81116161dd575b50602090601f831160011461616b57600092616160575b50508160011b916000199060031b1c19161760048301555b60a0830151600583015560c08301518051939092906001600160401b038511610675578793615f7b600684015461576c565b601f8111616107575b50602090601f871160011461607d5791866000805160206164d4833981519152969761012093600995600092616072575b50508160011b916000199060031b1c19161760068501555b60e0810151600785015561010081015160088501550151910155615ff0836157d7565b33600052600360205261600783604060002061580e565b61602083604051602081855161050e8183858a01615584565b84600052600560205261603783604060002061580e565b8360005260066020528260406000205561606360405191600583526060602084015260608301906155a7565b9360408201528033940390a490565b015190503880615fb5565b95906006840160005260206000209660005b601f19841681106160ec5750826000805160206164d483398151915297986009959360019361012096601f198116106160d3575b505050811b016006850155615fcd565b015160001960f88460031b161c191690553880806160c3565b8282015189556001909801978b97506020928301920161608f565b909192939450600684016000526020600020601f870160051c810160208810616159575b908a9695949392915b601f830160051c8201811061614a575050615f84565b600081558b9750600101616134565b508061612b565b015190503880615f31565b9250600485016000526020600020906000935b601f19841685106161c2576001945083601f198116106161a9575b505050811b016004830155615f49565b015160001960f88460031b161c19169055388080616199565b8181015183556020948501946001909301929091019061617e565b909150600485016000526020600020601f840160051c810160208510616229575b90849392915b601f830160051c8201811061621a575050615f1a565b60008155859450600101616204565b50806161fe565b015190503880615eb6565b9250600285016000526020600020906000935b601f1984168510616292576001945083601f19811610616279575b505050811b016002830155615ece565b015160001960f88460031b161c19169055388080616269565b8181015183556020948501946001909301929091019061624e565b909150600285016000526020600020601f840160051c8101602085106162f9575b90849392915b601f830160051c820181106162ea575050615e9f565b600081558594506001016162d4565b50806162ce565b1561630757565b60405162461bcd60e51b815260206004820152601d60248201527f41756469744c6f673a2063616c6c6572206973206e6f742061646d696e0000006044820152606490fd5b80518210156157c15760209160051b010190565b6040519061636d8261540e565b8161012060009182815282602082015260606040820152826060820152606060808201528260a0820152606060c08201528260e0820152826101008201520152565b90604051918260008254926163c38461576c565b90818452600194858116908160001461643257506001146163ef575b50506163ed9250038361542a565b565b9093915060005260209081600020936000915b81831061641a5750506163ed935082010138806163df565b85548884018501529485019487945091830191616402565b9150506163ed94506020925060ff191682840152151560051b82010138806163df565b1561645c57565b60405162461bcd60e51b815260206004820152601e60248201527f41756469744c6f673a20656e74727920646f6573206e6f7420657869737400006044820152606490fd5b906164ab826154ed565b6164b8604051918261542a565b82815280926164c9601f19916154ed565b019060203691013756fe2b32f171df3023a9c6e3aaf128c89842c3ba1e1105096b07e85bd76fb2378df3a2646970667358221220a23e6ee0140e5bc023ae854e65581aaee0c73ffe83b109f6aebd6bba1c0997e164736f6c63430008130033","opcodes":"PUSH1 0xA0 CALLVALUE PUSH3 0x114 JUMPI PUSH1 0x1F PUSH3 0x6659 CODESIZE DUP2 SWAP1 SUB SWAP2 DUP3 ADD PUSH1 0x1F NOT AND DUP4 ADD SWAP2 PUSH1 0x1 PUSH1 0x1 PUSH1 0x40 SHL SUB DUP4 GT DUP5 DUP5 LT OR PUSH3 0x119 JUMPI DUP1 DUP5 SWAP3 PUSH1 0x20 SWAP5 PUSH1 0x40 MSTORE DUP4 CODECOPY DUP2 ADD SUB SLT PUSH3 0x114 JUMPI MLOAD PUSH1 0x1 PUSH1 0x1 PUSH1 0xA0 SHL SUB DUP2 AND SWAP1 DUP2 SWAP1 SUB PUSH3 0x114 JUMPI DUP1 ISZERO PUSH3 0xCF JUMPI PUSH1 0x80 MSTORE PUSH1 0x0 DUP1 SSTORE PUSH1 0x0 PUSH1 0x8 SSTORE PUSH1 0x40 MLOAD PUSH2 0x6529 SWAP1 DUP2 PUSH3 0x130 DUP3 CODECOPY PUSH1 0x80 MLOAD DUP2 DUP2 DUP2 PUSH2 0x15E ADD MSTORE DUP2 DUP2 PUSH2 0x1F1 ADD MSTORE DUP2 DUP2 PUSH2 0x10E3 ADD MSTORE DUP2 DUP2 PUSH2 0x11AE ADD MSTORE DUP2 DUP2 PUSH2 0x1D96 ADD MSTORE DUP2 DUP2 PUSH2 0x1F4E ADD MSTORE DUP2 DUP2 PUSH2 0x2337 ADD MSTORE DUP2 DUP2 PUSH2 0x251A ADD MSTORE DUP2 DUP2 PUSH2 0x309A ADD MSTORE DUP2 DUP2 PUSH2 0x3DD7 ADD MSTORE DUP2 DUP2 PUSH2 0x4541 ADD MSTORE PUSH2 0x4765 ADD MSTORE RETURN JUMPDEST PUSH1 0x40 MLOAD PUSH3 0x461BCD PUSH1 0xE5 SHL DUP2 MSTORE PUSH1 0x20 PUSH1 0x4 DUP3 ADD MSTORE PUSH1 0x1E PUSH1 0x24 DUP3 ADD MSTORE PUSH32 0x41756469744C6F673A20696E76616C696420636F726520616464726573730000 PUSH1 0x44 DUP3 ADD MSTORE PUSH1 0x64 SWAP1 REVERT JUMPDEST PUSH1 0x0 DUP1 REVERT JUMPDEST PUSH4 0x4E487B71 PUSH1 0xE0 SHL PUSH1 0x0 MSTORE PUSH1 0x41 PUSH1 0x4 MSTORE PUSH1 0x24 PUSH1 0x0 REVERT INVALID PUSH1 0x80 DUP1 PUSH1 0x40 MSTORE PUSH1 0x4 CALLDATASIZE LT ISZERO PUSH2 0x13 JUMPI PUSH1 0x0 DUP1 REVERT JUMPDEST PUSH1 0x0 CALLDATALOAD PUSH1 0xE0 SHR SWAP1 DUP2 PUSH4 0xCE3D863 EQ PUSH2 0x53A2 JUMPI POP DUP1 PUSH4 0x17F6FE5B EQ PUSH2 0x5363 JUMPI DUP1 PUSH4 0x1B5B0148 EQ PUSH2 0x52F9 JUMPI DUP1 PUSH4 0x1B9EFECD EQ PUSH2 0x5280 JUMPI DUP1 PUSH4 0x26871902 EQ PUSH2 0x4734 JUMPI DUP1 PUSH4 0x45B45471 EQ PUSH2 0x4615 JUMPI DUP1 PUSH4 0x52F00B05 EQ PUSH2 0x44F8 JUMPI DUP1 PUSH4 0x5E1FA7BF EQ PUSH2 0x3C16 JUMPI DUP1 PUSH4 0x6191043B EQ PUSH2 0x3BCA JUMPI DUP1 PUSH4 0x650834D6 EQ PUSH2 0x3069 JUMPI DUP1 PUSH4 0x7A360E65 EQ PUSH2 0x304B JUMPI DUP1 PUSH4 0x7BF2ABDC EQ PUSH2 0x24E9 JUMPI DUP1 PUSH4 0x7D7AED9E EQ PUSH2 0x2401 JUMPI DUP1 PUSH4 0x81328997 EQ PUSH2 0x2290 JUMPI DUP1 PUSH4 0x92860FF2 EQ PUSH2 0x21F5 JUMPI DUP1 PUSH4 0x93CB8108 EQ PUSH2 0x2168 JUMPI DUP1 PUSH4 0x9C32F6B4 EQ PUSH2 0x203D JUMPI DUP1 PUSH4 0xA252B87E EQ PUSH2 0x1ED8 JUMPI DUP1 PUSH4 0xA30A8E71 EQ PUSH2 0x1D4D JUMPI DUP1 PUSH4 0xAD723673 EQ PUSH2 0x1CC9 JUMPI DUP1 PUSH4 0xAF8C57E7 EQ PUSH2 0x117D JUMPI DUP1 PUSH4 0xB20D30A9 EQ PUSH2 0x10AC JUMPI DUP1 PUSH4 0xBAE78D7B EQ PUSH2 0xFBE JUMPI DUP1 PUSH4 0xC2B0AD4B EQ PUSH2 0xDD9 JUMPI DUP1 PUSH4 0xE271105F EQ PUSH2 0x1C0 JUMPI DUP1 PUSH4 0xEF020F4A EQ PUSH2 0x192 JUMPI PUSH4 0xF2F4EB26 EQ PUSH2 0x148 JUMPI PUSH1 0x0 DUP1 REVERT JUMPDEST CALLVALUE PUSH2 0x18D JUMPI PUSH1 0x0 CALLDATASIZE PUSH1 0x3 NOT ADD SLT PUSH2 0x18D JUMPI PUSH1 0x40 MLOAD PUSH32 0x0 PUSH1 0x1 PUSH1 0x1 PUSH1 0xA0 SHL SUB AND DUP2 MSTORE PUSH1 0x20 SWAP1 RETURN JUMPDEST PUSH1 0x0 DUP1 REVERT JUMPDEST CALLVALUE PUSH2 0x18D JUMPI PUSH1 0x20 CALLDATASIZE PUSH1 0x3 NOT ADD SLT PUSH2 0x18D JUMPI PUSH1 0x4 CALLDATALOAD PUSH1 0x0 MSTORE PUSH1 0x6 PUSH1 0x20 MSTORE PUSH1 0x20 PUSH1 0x40 PUSH1 0x0 KECCAK256 SLOAD ISZERO ISZERO PUSH1 0x40 MLOAD SWAP1 DUP2 MSTORE RETURN JUMPDEST CALLVALUE PUSH2 0x18D JUMPI PUSH2 0x1CE CALLDATASIZE PUSH2 0x54A3 JUMP JUMPDEST SWAP1 PUSH1 0x40 MLOAD PUSH4 0x95A8C58D PUSH1 0xE0 SHL DUP2 MSTORE PUSH1 0x20 DUP2 DUP1 PUSH2 0x1ED CALLER PUSH1 0x4 DUP4 ADD PUSH2 0x568A JUMP JUMPDEST SUB DUP2 PUSH32 0x0 PUSH1 0x1 PUSH1 0x1 PUSH1 0xA0 SHL SUB AND GAS STATICCALL SWAP1 DUP2 ISZERO PUSH2 0xDCD JUMPI PUSH1 0x0 SWAP2 PUSH2 0xD9E JUMPI JUMPDEST POP DUP1 ISZERO PUSH2 0xD85 JUMPI JUMPDEST PUSH2 0x23B SWAP1 PUSH2 0x56BE JUMP JUMPDEST PUSH1 0x8 SLOAD ISZERO PUSH2 0x837 JUMPI CALLER PUSH1 0x0 MSTORE PUSH1 0x9 PUSH1 0x20 MSTORE PUSH1 0x40 PUSH1 0x0 KECCAK256 PUSH3 0x15180 TIMESTAMP DIV PUSH1 0x0 MSTORE PUSH1 0x20 MSTORE PUSH2 0x26F PUSH1 0x40 PUSH1 0x0 KECCAK256 SLOAD PUSH1 0x8 SLOAD GT PUSH2 0x5705 JUMP JUMPDEST PUSH2 0x277 PUSH2 0x5DAC JUMP JUMPDEST SWAP2 PUSH2 0x283 PUSH1 0x0 SLOAD PUSH2 0x5751 JUMP JUMPDEST SWAP3 DUP4 PUSH1 0x0 SSTORE PUSH1 0x40 MLOAD PUSH1 0x20 DUP2 ADD SWAP1 DUP6 DUP3 MSTORE PUSH1 0x1 DUP1 PUSH1 0x60 SHL SUB NOT CALLER PUSH1 0x60 SHL AND PUSH1 0x40 DUP3 ADD MSTORE PUSH1 0x1 PUSH1 0xF9 SHL PUSH1 0x54 DUP3 ADD MSTORE PUSH2 0x2E5 PUSH1 0x95 DUP3 DUP10 MLOAD PUSH2 0x2C9 DUP2 DUP13 PUSH1 0x20 PUSH1 0x55 DUP7 ADD SWAP2 ADD PUSH2 0x5584 JUMP JUMPDEST DUP2 ADD DUP9 PUSH1 0x55 DUP3 ADD MSTORE TIMESTAMP PUSH1 0x75 DUP3 ADD MSTORE SUB PUSH1 0x75 DUP2 ADD DUP5 MSTORE ADD DUP3 PUSH2 0x542A JUMP JUMPDEST MLOAD SWAP1 KECCAK256 SWAP2 PUSH1 0x40 MLOAD SWAP2 PUSH2 0x2F6 DUP4 PUSH2 0x540E JUMP JUMPDEST DUP6 DUP4 MSTORE CALLER PUSH1 0x20 DUP5 ADD MSTORE PUSH1 0x40 DUP4 ADD MSTORE PUSH1 0x2 PUSH1 0x60 DUP4 ADD MSTORE DUP6 PUSH1 0x80 DUP4 ADD MSTORE DUP4 PUSH1 0xA0 DUP4 ADD MSTORE PUSH1 0xC0 DUP3 ADD MSTORE DUP2 PUSH1 0xE0 DUP3 ADD MSTORE TIMESTAMP PUSH2 0x100 DUP3 ADD MSTORE NUMBER PUSH2 0x120 DUP3 ADD MSTORE DUP4 PUSH1 0x0 MSTORE PUSH1 0x1 PUSH1 0x20 MSTORE PUSH1 0x40 PUSH1 0x0 KECCAK256 DUP2 MLOAD DUP2 SSTORE PUSH1 0x1 DUP2 ADD PUSH1 0x1 DUP1 PUSH1 0xA0 SHL SUB PUSH1 0x20 DUP5 ADD MLOAD AND PUSH1 0x1 DUP1 PUSH1 0xA0 SHL SUB NOT DUP3 SLOAD AND OR SWAP1 SSTORE PUSH1 0x40 DUP3 ADD MLOAD DUP1 MLOAD SWAP1 PUSH1 0x1 DUP1 PUSH1 0x40 SHL SUB DUP3 GT PUSH2 0x675 JUMPI DUP2 SWAP1 PUSH2 0x385 PUSH1 0x2 DUP6 ADD SLOAD PUSH2 0x576C JUMP JUMPDEST PUSH1 0x1F DUP2 GT PUSH2 0x7E4 JUMPI JUMPDEST POP PUSH1 0x20 SWAP1 PUSH1 0x1F DUP4 GT PUSH1 0x1 EQ PUSH2 0x777 JUMPI PUSH1 0x0 SWAP3 PUSH2 0x76C JUMPI JUMPDEST POP POP DUP2 PUSH1 0x1 SHL SWAP2 PUSH1 0x0 NOT SWAP1 PUSH1 0x3 SHL SHR NOT AND OR PUSH1 0x2 DUP3 ADD SSTORE JUMPDEST PUSH1 0x3 DUP2 ADD PUSH1 0x60 DUP4 ADD MLOAD PUSH1 0x6 DUP2 LT ISZERO PUSH2 0x756 JUMPI PUSH1 0xFF DUP1 NOT DUP4 SLOAD AND SWAP2 AND OR SWAP1 SSTORE PUSH1 0x80 DUP3 ADD MLOAD DUP1 MLOAD SWAP1 PUSH1 0x1 DUP1 PUSH1 0x40 SHL SUB DUP3 GT PUSH2 0x675 JUMPI DUP2 SWAP1 PUSH2 0x3FF PUSH1 0x4 DUP6 ADD SLOAD PUSH2 0x576C JUMP JUMPDEST PUSH1 0x1F DUP2 GT PUSH2 0x703 JUMPI JUMPDEST POP PUSH1 0x20 SWAP1 PUSH1 0x1F DUP4 GT PUSH1 0x1 EQ PUSH2 0x696 JUMPI PUSH1 0x0 SWAP3 PUSH2 0x68B JUMPI JUMPDEST POP POP DUP2 PUSH1 0x1 SHL SWAP2 PUSH1 0x0 NOT SWAP1 PUSH1 0x3 SHL SHR NOT AND OR PUSH1 0x4 DUP3 ADD SSTORE JUMPDEST PUSH1 0xA0 DUP3 ADD MLOAD PUSH1 0x5 DUP3 ADD SSTORE PUSH1 0xC0 DUP3 ADD MLOAD DUP1 MLOAD SWAP3 SWAP1 PUSH1 0x1 PUSH1 0x1 PUSH1 0x40 SHL SUB DUP5 GT PUSH2 0x675 JUMPI PUSH2 0x465 PUSH1 0x6 DUP5 ADD SLOAD PUSH2 0x576C JUMP JUMPDEST PUSH1 0x1F DUP2 GT PUSH2 0x62E JUMPI JUMPDEST POP SWAP2 PUSH1 0x20 SWAP8 SWAP2 DUP8 SWAP4 DUP10 SWAP1 PUSH1 0x1F DUP8 GT PUSH1 0x1 EQ PUSH2 0x5A6 JUMPI SWAP2 DUP7 PUSH1 0x0 DUP1 MLOAD PUSH1 0x20 PUSH2 0x64D4 DUP4 CODECOPY DUP2 MLOAD SWAP2 MSTORE SWAP7 SWAP8 PUSH2 0x120 SWAP4 PUSH1 0x9 SWAP6 PUSH1 0x0 SWAP3 PUSH2 0x59B JUMPI JUMPDEST POP POP DUP2 PUSH1 0x1 SHL SWAP2 PUSH1 0x0 NOT SWAP1 PUSH1 0x3 SHL SHR NOT AND OR PUSH1 0x6 DUP6 ADD SSTORE JUMPDEST PUSH1 0xE0 DUP2 ADD MLOAD PUSH1 0x7 DUP6 ADD SSTORE PUSH2 0x100 DUP2 ADD MLOAD PUSH1 0x8 DUP6 ADD SSTORE ADD MLOAD SWAP2 ADD SSTORE PUSH2 0x4E0 DUP4 PUSH2 0x57D7 JUMP JUMPDEST CALLER PUSH1 0x0 MSTORE PUSH1 0x3 DUP8 MSTORE PUSH2 0x4F6 DUP4 PUSH1 0x40 PUSH1 0x0 KECCAK256 PUSH2 0x580E JUMP JUMPDEST PUSH2 0x51D DUP4 PUSH1 0x40 MLOAD DUP10 DUP2 DUP6 MLOAD PUSH2 0x50E DUP2 DUP4 DUP6 DUP11 ADD PUSH2 0x5584 JUMP JUMPDEST DUP2 ADD PUSH1 0x4 DUP2 MSTORE SUB ADD SWAP1 KECCAK256 PUSH2 0x580E JUMP JUMPDEST DUP5 PUSH1 0x0 MSTORE PUSH1 0x5 DUP8 MSTORE PUSH2 0x533 DUP4 PUSH1 0x40 PUSH1 0x0 KECCAK256 PUSH2 0x580E JUMP JUMPDEST DUP4 PUSH1 0x0 MSTORE PUSH1 0x6 DUP8 MSTORE DUP3 PUSH1 0x40 PUSH1 0x0 KECCAK256 SSTORE PUSH2 0x55D PUSH1 0x40 MLOAD SWAP2 PUSH1 0x2 DUP4 MSTORE PUSH1 0x60 DUP10 DUP5 ADD MSTORE PUSH1 0x60 DUP4 ADD SWAP1 PUSH2 0x55A7 JUMP JUMPDEST SWAP4 PUSH1 0x40 DUP3 ADD MSTORE DUP1 CALLER SWAP5 SUB SWAP1 LOG4 CALLER PUSH1 0x0 MSTORE PUSH1 0x9 DUP3 MSTORE PUSH1 0x40 PUSH1 0x0 KECCAK256 PUSH3 0x15180 TIMESTAMP DIV PUSH1 0x0 MSTORE DUP3 MSTORE PUSH1 0x40 PUSH1 0x0 KECCAK256 PUSH2 0x590 DUP2 SLOAD PUSH2 0x5751 JUMP JUMPDEST SWAP1 SSTORE JUMPDEST PUSH1 0x40 MLOAD SWAP1 DUP2 MSTORE RETURN JUMPDEST ADD MLOAD SWAP1 POP DUP14 DUP1 PUSH2 0x4A5 JUMP JUMPDEST SWAP6 SWAP1 PUSH1 0x6 DUP5 ADD PUSH1 0x0 MSTORE DUP11 PUSH1 0x0 KECCAK256 SWAP7 PUSH1 0x0 JUMPDEST PUSH1 0x1F NOT DUP5 AND DUP2 LT PUSH2 0x614 JUMPI POP DUP3 PUSH1 0x0 DUP1 MLOAD PUSH1 0x20 PUSH2 0x64D4 DUP4 CODECOPY DUP2 MLOAD SWAP2 MSTORE SWAP8 SWAP9 PUSH1 0x9 SWAP6 SWAP4 PUSH1 0x1 SWAP4 PUSH2 0x120 SWAP7 PUSH1 0x1F NOT DUP2 AND LT PUSH2 0x5FB JUMPI JUMPDEST POP POP POP DUP2 SHL ADD PUSH1 0x6 DUP6 ADD SSTORE PUSH2 0x4BD JUMP JUMPDEST ADD MLOAD PUSH1 0x0 NOT PUSH1 0xF8 DUP5 PUSH1 0x3 SHL AND SHR NOT AND SWAP1 SSTORE DUP14 DUP1 DUP1 PUSH2 0x5EB JUMP JUMPDEST DUP3 DUP3 ADD MLOAD DUP10 SSTORE PUSH1 0x1 SWAP1 SWAP9 ADD SWAP8 DUP12 SWAP8 POP SWAP2 DUP13 ADD SWAP2 DUP13 ADD PUSH2 0x5B7 JUMP JUMPDEST PUSH1 0x6 DUP5 ADD PUSH1 0x0 MSTORE PUSH1 0x20 PUSH1 0x0 KECCAK256 PUSH1 0x1F DUP7 ADD PUSH1 0x5 SHR DUP2 ADD PUSH1 0x20 DUP8 LT PUSH2 0x66E JUMPI JUMPDEST PUSH1 0x1F DUP4 ADD PUSH1 0x5 SHR DUP3 ADD DUP2 LT PUSH2 0x662 JUMPI POP POP PUSH2 0x46E JUMP JUMPDEST PUSH1 0x0 DUP2 SSTORE PUSH1 0x1 ADD PUSH2 0x64C JUMP JUMPDEST POP DUP1 PUSH2 0x64C JUMP JUMPDEST PUSH4 0x4E487B71 PUSH1 0xE0 SHL PUSH1 0x0 MSTORE PUSH1 0x41 PUSH1 0x4 MSTORE PUSH1 0x24 PUSH1 0x0 REVERT JUMPDEST ADD MLOAD SWAP1 POP DUP9 DUP1 PUSH2 0x41F JUMP JUMPDEST PUSH1 0x4 DUP6 ADD PUSH1 0x0 SWAP1 DUP2 MSTORE PUSH1 0x20 DUP2 KECCAK256 SWAP4 POP PUSH1 0x1F NOT DUP6 AND SWAP1 JUMPDEST DUP2 DUP2 LT PUSH2 0x6EB JUMPI POP SWAP1 DUP5 PUSH1 0x1 SWAP6 SWAP5 SWAP4 SWAP3 LT PUSH2 0x6D2 JUMPI JUMPDEST POP POP POP DUP2 SHL ADD PUSH1 0x4 DUP3 ADD SSTORE PUSH2 0x437 JUMP JUMPDEST ADD MLOAD PUSH1 0x0 NOT PUSH1 0xF8 DUP5 PUSH1 0x3 SHL AND SHR NOT AND SWAP1 SSTORE DUP9 DUP1 DUP1 PUSH2 0x6C2 JUMP JUMPDEST SWAP3 SWAP4 PUSH1 0x20 PUSH1 0x1 DUP2 SWAP3 DUP8 DUP7 ADD MLOAD DUP2 SSTORE ADD SWAP6 ADD SWAP4 ADD PUSH2 0x6AC JUMP JUMPDEST SWAP1 SWAP2 POP PUSH1 0x4 DUP5 ADD PUSH1 0x0 MSTORE PUSH1 0x20 PUSH1 0x0 KECCAK256 PUSH1 0x1F DUP5 ADD PUSH1 0x5 SHR DUP2 ADD PUSH1 0x20 DUP6 LT PUSH2 0x74F JUMPI JUMPDEST SWAP1 DUP5 SWAP4 SWAP3 SWAP2 JUMPDEST PUSH1 0x1F DUP4 ADD PUSH1 0x5 SHR DUP3 ADD DUP2 LT PUSH2 0x740 JUMPI POP POP PUSH2 0x408 JUMP JUMPDEST PUSH1 0x0 DUP2 SSTORE DUP6 SWAP5 POP PUSH1 0x1 ADD PUSH2 0x72A JUMP JUMPDEST POP DUP1 PUSH2 0x724 JUMP JUMPDEST PUSH4 0x4E487B71 PUSH1 0xE0 SHL PUSH1 0x0 MSTORE PUSH1 0x21 PUSH1 0x4 MSTORE PUSH1 0x24 PUSH1 0x0 REVERT JUMPDEST ADD MLOAD SWAP1 POP DUP9 DUP1 PUSH2 0x3A5 JUMP JUMPDEST PUSH1 0x2 DUP6 ADD PUSH1 0x0 SWAP1 DUP2 MSTORE PUSH1 0x20 DUP2 KECCAK256 SWAP4 POP PUSH1 0x1F NOT DUP6 AND SWAP1 JUMPDEST DUP2 DUP2 LT PUSH2 0x7CC JUMPI POP SWAP1 DUP5 PUSH1 0x1 SWAP6 SWAP5 SWAP4 SWAP3 LT PUSH2 0x7B3 JUMPI JUMPDEST POP POP POP DUP2 SHL ADD PUSH1 0x2 DUP3 ADD SSTORE PUSH2 0x3BD JUMP JUMPDEST ADD MLOAD PUSH1 0x0 NOT PUSH1 0xF8 DUP5 PUSH1 0x3 SHL AND SHR NOT AND SWAP1 SSTORE DUP9 DUP1 DUP1 PUSH2 0x7A3 JUMP JUMPDEST SWAP3 SWAP4 PUSH1 0x20 PUSH1 0x1 DUP2 SWAP3 DUP8 DUP7 ADD MLOAD DUP2 SSTORE ADD SWAP6 ADD SWAP4 ADD PUSH2 0x78D JUMP JUMPDEST SWAP1 SWAP2 POP PUSH1 0x2 DUP5 ADD PUSH1 0x0 MSTORE PUSH1 0x20 PUSH1 0x0 KECCAK256 PUSH1 0x1F DUP5 ADD PUSH1 0x5 SHR DUP2 ADD PUSH1 0x20 DUP6 LT PUSH2 0x830 JUMPI JUMPDEST SWAP1 DUP5 SWAP4 SWAP3 SWAP2 JUMPDEST PUSH1 0x1F DUP4 ADD PUSH1 0x5 SHR DUP3 ADD DUP2 LT PUSH2 0x821 JUMPI POP POP PUSH2 0x38E JUMP JUMPDEST PUSH1 0x0 DUP2 SSTORE DUP6 SWAP5 POP PUSH1 0x1 ADD PUSH2 0x80B JUMP JUMPDEST POP DUP1 PUSH2 0x805 JUMP JUMPDEST PUSH2 0x83F PUSH2 0x5DAC JUMP JUMPDEST SWAP2 PUSH2 0x84B PUSH1 0x0 SLOAD PUSH2 0x5751 JUMP JUMPDEST SWAP3 DUP4 PUSH1 0x0 SSTORE PUSH1 0x40 MLOAD PUSH1 0x20 DUP2 ADD SWAP1 DUP6 DUP3 MSTORE PUSH1 0x1 DUP1 PUSH1 0x60 SHL SUB NOT CALLER PUSH1 0x60 SHL AND PUSH1 0x40 DUP3 ADD MSTORE PUSH1 0x1 PUSH1 0xF9 SHL PUSH1 0x54 DUP3 ADD MSTORE PUSH2 0x891 PUSH1 0x95 DUP3 DUP10 MLOAD PUSH2 0x2C9 DUP2 DUP13 PUSH1 0x20 PUSH1 0x55 DUP7 ADD SWAP2 ADD PUSH2 0x5584 JUMP JUMPDEST MLOAD SWAP1 KECCAK256 SWAP2 PUSH1 0x40 MLOAD SWAP2 PUSH2 0x8A2 DUP4 PUSH2 0x540E JUMP JUMPDEST DUP6 DUP4 MSTORE CALLER PUSH1 0x20 DUP5 ADD MSTORE PUSH1 0x40 DUP4 ADD MSTORE PUSH1 0x2 PUSH1 0x60 DUP4 ADD MSTORE DUP6 PUSH1 0x80 DUP4 ADD MSTORE DUP4 PUSH1 0xA0 DUP4 ADD MSTORE PUSH1 0xC0 DUP3 ADD MSTORE DUP2 PUSH1 0xE0 DUP3 ADD MSTORE TIMESTAMP PUSH2 0x100 DUP3 ADD MSTORE NUMBER PUSH2 0x120 DUP3 ADD MSTORE DUP4 PUSH1 0x0 MSTORE PUSH1 0x1 PUSH1 0x20 MSTORE PUSH1 0x40 PUSH1 0x0 KECCAK256 DUP2 MLOAD DUP2 SSTORE PUSH1 0x1 DUP2 ADD PUSH1 0x1 DUP1 PUSH1 0xA0 SHL SUB PUSH1 0x20 DUP5 ADD MLOAD AND PUSH1 0x1 DUP1 PUSH1 0xA0 SHL SUB NOT DUP3 SLOAD AND OR SWAP1 SSTORE PUSH1 0x40 DUP3 ADD MLOAD DUP1 MLOAD SWAP1 PUSH1 0x1 DUP1 PUSH1 0x40 SHL SUB DUP3 GT PUSH2 0x675 JUMPI DUP2 SWAP1 PUSH2 0x931 PUSH1 0x2 DUP6 ADD SLOAD PUSH2 0x576C JUMP JUMPDEST PUSH1 0x1F DUP2 GT PUSH2 0xD32 JUMPI JUMPDEST POP PUSH1 0x20 SWAP1 PUSH1 0x1F DUP4 GT PUSH1 0x1 EQ PUSH2 0xCC0 JUMPI PUSH1 0x0 SWAP3 PUSH2 0xCB5 JUMPI JUMPDEST POP POP DUP2 PUSH1 0x1 SHL SWAP2 PUSH1 0x0 NOT SWAP1 PUSH1 0x3 SHL SHR NOT AND OR PUSH1 0x2 DUP3 ADD SSTORE JUMPDEST PUSH1 0x3 DUP2 ADD PUSH1 0x60 DUP4 ADD MLOAD PUSH1 0x6 DUP2 LT ISZERO PUSH2 0x756 JUMPI PUSH1 0xFF DUP1 NOT DUP4 SLOAD AND SWAP2 AND OR SWAP1 SSTORE PUSH1 0x80 DUP3 ADD MLOAD DUP1 MLOAD SWAP1 PUSH1 0x1 DUP1 PUSH1 0x40 SHL SUB DUP3 GT PUSH2 0x675 JUMPI DUP2 SWAP1 PUSH2 0x9AB PUSH1 0x4 DUP6 ADD SLOAD PUSH2 0x576C JUMP JUMPDEST PUSH1 0x1F DUP2 GT PUSH2 0xC62 JUMPI JUMPDEST POP PUSH1 0x20 SWAP1 PUSH1 0x1F DUP4 GT PUSH1 0x1 EQ PUSH2 0xBF0 JUMPI PUSH1 0x0 SWAP3 PUSH2 0xBE5 JUMPI JUMPDEST POP POP DUP2 PUSH1 0x1 SHL SWAP2 PUSH1 0x0 NOT SWAP1 PUSH1 0x3 SHL SHR NOT AND OR PUSH1 0x4 DUP3 ADD SSTORE JUMPDEST PUSH1 0xA0 DUP3 ADD MLOAD PUSH1 0x5 DUP3 ADD SSTORE PUSH1 0xC0 DUP3 ADD MLOAD DUP1 MLOAD SWAP3 SWAP1 PUSH1 0x1 PUSH1 0x1 PUSH1 0x40 SHL SUB DUP5 GT PUSH2 0x675 JUMPI PUSH2 0xA11 PUSH1 0x6 DUP5 ADD SLOAD PUSH2 0x576C JUMP JUMPDEST PUSH1 0x1F DUP2 GT PUSH2 0xB9E JUMPI JUMPDEST POP SWAP2 PUSH1 0x20 SWAP8 SWAP2 DUP8 SWAP4 DUP10 SWAP1 PUSH1 0x1F DUP8 GT PUSH1 0x1 EQ PUSH2 0xB16 JUMPI SWAP2 DUP7 PUSH1 0x0 DUP1 MLOAD PUSH1 0x20 PUSH2 0x64D4 DUP4 CODECOPY DUP2 MLOAD SWAP2 MSTORE SWAP7 SWAP8 PUSH2 0x120 SWAP4 PUSH1 0x9 SWAP6 PUSH1 0x0 SWAP3 PUSH2 0xB0B JUMPI JUMPDEST POP POP DUP2 PUSH1 0x1 SHL SWAP2 PUSH1 0x0 NOT SWAP1 PUSH1 0x3 SHL SHR NOT AND OR PUSH1 0x6 DUP6 ADD SSTORE JUMPDEST PUSH1 0xE0 DUP2 ADD MLOAD PUSH1 0x7 DUP6 ADD SSTORE PUSH2 0x100 DUP2 ADD MLOAD PUSH1 0x8 DUP6 ADD SSTORE ADD MLOAD SWAP2 ADD SSTORE PUSH2 0xA8C DUP4 PUSH2 0x57D7 JUMP JUMPDEST CALLER PUSH1 0x0 MSTORE PUSH1 0x3 DUP8 MSTORE PUSH2 0xAA2 DUP4 PUSH1 0x40 PUSH1 0x0 KECCAK256 PUSH2 0x580E JUMP JUMPDEST PUSH2 0xABA DUP4 PUSH1 0x40 MLOAD DUP10 DUP2 DUP6 MLOAD PUSH2 0x50E DUP2 DUP4 DUP6 DUP11 ADD PUSH2 0x5584 JUMP JUMPDEST DUP5 PUSH1 0x0 MSTORE PUSH1 0x5 DUP8 MSTORE PUSH2 0xAD0 DUP4 PUSH1 0x40 PUSH1 0x0 KECCAK256 PUSH2 0x580E JUMP JUMPDEST DUP4 PUSH1 0x0 MSTORE PUSH1 0x6 DUP8 MSTORE DUP3 PUSH1 0x40 PUSH1 0x0 KECCAK256 SSTORE PUSH2 0xAFA PUSH1 0x40 MLOAD SWAP2 PUSH1 0x2 DUP4 MSTORE PUSH1 0x60 DUP10 DUP5 ADD MSTORE PUSH1 0x60 DUP4 ADD SWAP1 PUSH2 0x55A7 JUMP JUMPDEST SWAP4 PUSH1 0x40 DUP3 ADD MSTORE DUP1 CALLER SWAP5 SUB SWAP1 LOG4 PUSH2 0x593 JUMP JUMPDEST ADD MLOAD SWAP1 POP DUP14 DUP1 PUSH2 0xA51 JUMP JUMPDEST SWAP6 SWAP1 PUSH1 0x6 DUP5 ADD PUSH1 0x0 MSTORE DUP11 PUSH1 0x0 KECCAK256 SWAP7 PUSH1 0x0 JUMPDEST PUSH1 0x1F NOT DUP5 AND DUP2 LT PUSH2 0xB84 JUMPI POP DUP3 PUSH1 0x0 DUP1 MLOAD PUSH1 0x20 PUSH2 0x64D4 DUP4 CODECOPY DUP2 MLOAD SWAP2 MSTORE SWAP8 SWAP9 PUSH1 0x9 SWAP6 SWAP4 PUSH1 0x1 SWAP4 PUSH2 0x120 SWAP7 PUSH1 0x1F NOT DUP2 AND LT PUSH2 0xB6B JUMPI JUMPDEST POP POP POP DUP2 SHL ADD PUSH1 0x6 DUP6 ADD SSTORE PUSH2 0xA69 JUMP JUMPDEST ADD MLOAD PUSH1 0x0 NOT PUSH1 0xF8 DUP5 PUSH1 0x3 SHL AND SHR NOT AND SWAP1 SSTORE DUP14 DUP1 DUP1 PUSH2 0xB5B JUMP JUMPDEST DUP3 DUP3 ADD MLOAD DUP10 SSTORE PUSH1 0x1 SWAP1 SWAP9 ADD SWAP8 DUP12 SWAP8 POP SWAP2 DUP13 ADD SWAP2 DUP13 ADD PUSH2 0xB27 JUMP JUMPDEST PUSH1 0x6 DUP5 ADD PUSH1 0x0 MSTORE PUSH1 0x20 PUSH1 0x0 KECCAK256 PUSH1 0x1F DUP7 ADD PUSH1 0x5 SHR DUP2 ADD PUSH1 0x20 DUP8 LT PUSH2 0xBDE JUMPI JUMPDEST PUSH1 0x1F DUP4 ADD PUSH1 0x5 SHR DUP3 ADD DUP2 LT PUSH2 0xBD2 JUMPI POP POP PUSH2 0xA1A JUMP JUMPDEST PUSH1 0x0 DUP2 SSTORE PUSH1 0x1 ADD PUSH2 0xBBC JUMP JUMPDEST POP DUP1 PUSH2 0xBBC JUMP JUMPDEST ADD MLOAD SWAP1 POP DUP9 DUP1 PUSH2 0x9CB JUMP JUMPDEST SWAP3 POP PUSH1 0x4 DUP5 ADD PUSH1 0x0 MSTORE PUSH1 0x20 PUSH1 0x0 KECCAK256 SWAP1 PUSH1 0x0 SWAP4 JUMPDEST PUSH1 0x1F NOT DUP5 AND DUP6 LT PUSH2 0xC47 JUMPI PUSH1 0x1 SWAP5 POP DUP4 PUSH1 0x1F NOT DUP2 AND LT PUSH2 0xC2E JUMPI JUMPDEST POP POP POP DUP2 SHL ADD PUSH1 0x4 DUP3 ADD SSTORE PUSH2 0x9E3 JUMP JUMPDEST ADD MLOAD PUSH1 0x0 NOT PUSH1 0xF8 DUP5 PUSH1 0x3 SHL AND SHR NOT AND SWAP1 SSTORE DUP9 DUP1 DUP1 PUSH2 0xC1E JUMP JUMPDEST DUP2 DUP2 ADD MLOAD DUP4 SSTORE PUSH1 0x20 SWAP5 DUP6 ADD SWAP5 PUSH1 0x1 SWAP1 SWAP4 ADD SWAP3 SWAP1 SWAP2 ADD SWAP1 PUSH2 0xC03 JUMP JUMPDEST SWAP1 SWAP2 POP PUSH1 0x4 DUP5 ADD PUSH1 0x0 MSTORE PUSH1 0x20 PUSH1 0x0 KECCAK256 PUSH1 0x1F DUP5 ADD PUSH1 0x5 SHR DUP2 ADD PUSH1 0x20 DUP6 LT PUSH2 0xCAE JUMPI JUMPDEST SWAP1 DUP5 SWAP4 SWAP3 SWAP2 JUMPDEST PUSH1 0x1F DUP4 ADD PUSH1 0x5 SHR DUP3 ADD DUP2 LT PUSH2 0xC9F JUMPI POP POP PUSH2 0x9B4 JUMP JUMPDEST PUSH1 0x0 DUP2 SSTORE DUP6 SWAP5 POP PUSH1 0x1 ADD PUSH2 0xC89 JUMP JUMPDEST POP DUP1 PUSH2 0xC83 JUMP JUMPDEST ADD MLOAD SWAP1 POP DUP9 DUP1 PUSH2 0x951 JUMP JUMPDEST SWAP3 POP PUSH1 0x2 DUP5 ADD PUSH1 0x0 MSTORE PUSH1 0x20 PUSH1 0x0 KECCAK256 SWAP1 PUSH1 0x0 SWAP4 JUMPDEST PUSH1 0x1F NOT DUP5 AND DUP6 LT PUSH2 0xD17 JUMPI PUSH1 0x1 SWAP5 POP DUP4 PUSH1 0x1F NOT DUP2 AND LT PUSH2 0xCFE JUMPI JUMPDEST POP POP POP DUP2 SHL ADD PUSH1 0x2 DUP3 ADD SSTORE PUSH2 0x969 JUMP JUMPDEST ADD MLOAD PUSH1 0x0 NOT PUSH1 0xF8 DUP5 PUSH1 0x3 SHL AND SHR NOT AND SWAP1 SSTORE DUP9 DUP1 DUP1 PUSH2 0xCEE JUMP JUMPDEST DUP2 DUP2 ADD MLOAD DUP4 SSTORE PUSH1 0x20 SWAP5 DUP6 ADD SWAP5 PUSH1 0x1 SWAP1 SWAP4 ADD SWAP3 SWAP1 SWAP2 ADD SWAP1 PUSH2 0xCD3 JUMP JUMPDEST SWAP1 SWAP2 POP PUSH1 0x2 DUP5 ADD PUSH1 0x0 MSTORE PUSH1 0x20 PUSH1 0x0 KECCAK256 PUSH1 0x1F DUP5 ADD PUSH1 0x5 SHR DUP2 ADD PUSH1 0x20 DUP6 LT PUSH2 0xD7E JUMPI JUMPDEST SWAP1 DUP5 SWAP4 SWAP3 SWAP2 JUMPDEST PUSH1 0x1F DUP4 ADD PUSH1 0x5 SHR DUP3 ADD DUP2 LT PUSH2 0xD6F JUMPI POP POP PUSH2 0x93A JUMP JUMPDEST PUSH1 0x0 DUP2 SSTORE DUP6 SWAP5 POP PUSH1 0x1 ADD PUSH2 0xD59 JUMP JUMPDEST POP DUP1 PUSH2 0xD53 JUMP JUMPDEST POP CALLER PUSH1 0x0 SWAP1 DUP2 MSTORE PUSH1 0x7 PUSH1 0x20 MSTORE PUSH1 0x40 SWAP1 KECCAK256 SLOAD PUSH1 0xFF AND PUSH2 0x232 JUMP JUMPDEST PUSH2 0xDC0 SWAP2 POP PUSH1 0x20 RETURNDATASIZE PUSH1 0x20 GT PUSH2 0xDC6 JUMPI JUMPDEST PUSH2 0xDB8 DUP2 DUP4 PUSH2 0x542A JUMP JUMPDEST DUP2 ADD SWAP1 PUSH2 0x5672 JUMP JUMPDEST DUP5 PUSH2 0x22A JUMP JUMPDEST POP RETURNDATASIZE PUSH2 0xDAE JUMP JUMPDEST PUSH1 0x40 MLOAD RETURNDATASIZE PUSH1 0x0 DUP3 RETURNDATACOPY RETURNDATASIZE SWAP1 REVERT JUMPDEST CALLVALUE PUSH2 0x18D JUMPI PUSH1 0x20 DUP1 PUSH1 0x3 NOT CALLDATASIZE ADD SLT PUSH2 0x18D JUMPI PUSH1 0x2 DUP1 SLOAD SWAP1 PUSH1 0x4 CALLDATALOAD DUP3 DUP2 GT ISZERO PUSH2 0xFB8 JUMPI POP DUP2 JUMPDEST PUSH2 0xE07 DUP4 PUSH2 0x54ED JUMP JUMPDEST SWAP3 PUSH2 0xE15 PUSH1 0x40 MLOAD SWAP5 DUP6 PUSH2 0x542A JUMP JUMPDEST DUP1 DUP5 MSTORE PUSH1 0x1F NOT PUSH2 0xE24 DUP3 PUSH2 0x54ED JUMP JUMPDEST ADD DUP6 PUSH1 0x0 JUMPDEST DUP3 DUP2 LT PUSH2 0xFA2 JUMPI POP SWAP2 SWAP3 PUSH1 0x0 NOT DUP1 DUP3 ADD SWAP4 POP SWAP2 POP DUP1 DUP4 GT PUSH1 0x0 JUMPDEST DUP6 DUP2 LT PUSH2 0xEA8 JUMPI PUSH1 0x40 DUP1 MLOAD DUP11 DUP2 MSTORE DUP10 MLOAD DUP2 DUP13 ADD DUP2 SWAP1 MSTORE PUSH1 0x0 SWAP3 PUSH1 0x5 DUP3 SWAP1 SHL DUP4 ADD DUP2 ADD SWAP2 DUP13 DUP15 ADD SWAP2 DUP15 SWAP1 DUP6 ADD JUMPDEST DUP3 DUP8 LT PUSH2 0xE7C JUMPI DUP6 DUP6 SUB DUP7 RETURN JUMPDEST SWAP1 SWAP2 SWAP3 SWAP4 DUP3 DUP1 PUSH2 0xE98 PUSH1 0x1 SWAP4 PUSH1 0x3F NOT DUP11 DUP3 SUB ADD DUP7 MSTORE DUP9 MLOAD PUSH2 0x55D9 JUMP JUMPDEST SWAP7 ADD SWAP3 ADD SWAP7 ADD SWAP6 SWAP3 SWAP2 SWAP1 SWAP3 PUSH2 0xE6F JUMP JUMPDEST DUP2 PUSH2 0xF8C JUMPI DUP4 DUP2 DUP5 SUB ADD SWAP1 DUP6 DUP3 GT PUSH2 0xF8C JUMPI DUP8 PUSH1 0x9 DUP12 PUSH2 0xF23 PUSH1 0xFF PUSH2 0xECF PUSH2 0xF87 SWAP8 PUSH2 0x57A6 JUMP JUMPDEST SWAP1 SLOAD PUSH1 0x3 SWAP2 DUP3 SHL SHR PUSH1 0x0 MSTORE PUSH2 0xF11 PUSH1 0x1 SWAP7 DUP8 DUP7 MSTORE PUSH1 0x40 PUSH1 0x0 KECCAK256 SWAP6 PUSH1 0x40 MLOAD SWAP9 PUSH2 0xEF6 DUP11 PUSH2 0x540E JUMP JUMPDEST DUP8 SLOAD DUP11 MSTORE DUP8 ADD SLOAD PUSH1 0x1 PUSH1 0x1 PUSH1 0xA0 SHL SUB AND SWAP1 DUP10 ADD MSTORE DUP6 ADD PUSH2 0x63AF JUMP JUMPDEST PUSH1 0x40 DUP8 ADD MSTORE DUP4 ADD SLOAD AND PUSH1 0x60 DUP6 ADD PUSH2 0x5760 JUMP JUMPDEST PUSH2 0xF2F PUSH1 0x4 DUP3 ADD PUSH2 0x63AF JUMP JUMPDEST PUSH1 0x80 DUP5 ADD MSTORE PUSH1 0x5 DUP2 ADD SLOAD PUSH1 0xA0 DUP5 ADD MSTORE PUSH2 0xF4A PUSH1 0x6 DUP3 ADD PUSH2 0x63AF JUMP JUMPDEST PUSH1 0xC0 DUP5 ADD MSTORE PUSH1 0x7 DUP2 ADD SLOAD PUSH1 0xE0 DUP5 ADD MSTORE PUSH1 0x8 DUP2 ADD SLOAD PUSH2 0x100 DUP5 ADD MSTORE ADD SLOAD PUSH2 0x120 DUP3 ADD MSTORE PUSH2 0xF76 DUP3 DUP12 PUSH2 0x634C JUMP JUMPDEST MSTORE PUSH2 0xF81 DUP2 DUP11 PUSH2 0x634C JUMP JUMPDEST POP PUSH2 0x5751 JUMP JUMPDEST PUSH2 0xE43 JUMP JUMPDEST PUSH4 0x4E487B71 PUSH1 0xE0 SHL PUSH1 0x0 MSTORE PUSH1 0x11 PUSH1 0x4 MSTORE PUSH1 0x24 PUSH1 0x0 REVERT JUMPDEST PUSH2 0xFAA PUSH2 0x6360 JUMP JUMPDEST DUP3 DUP3 DUP10 ADD ADD MSTORE ADD DUP7 SWAP1 PUSH2 0xE29 JUMP JUMPDEST SWAP2 PUSH2 0xDFE JUMP JUMPDEST CALLVALUE PUSH2 0x18D JUMPI PUSH1 0x20 DUP1 PUSH1 0x3 NOT CALLDATASIZE ADD SLT PUSH2 0x18D JUMPI PUSH1 0x4 CALLDATALOAD PUSH2 0xFDB PUSH2 0x6360 JUMP JUMPDEST POP DUP1 PUSH1 0x0 MSTORE PUSH1 0x1 DUP3 MSTORE PUSH2 0xFF4 PUSH1 0x40 PUSH1 0x0 KECCAK256 SLOAD ISZERO ISZERO PUSH2 0x6455 JUMP JUMPDEST PUSH1 0x0 MSTORE PUSH1 0x1 DUP2 MSTORE PUSH1 0x40 PUSH1 0x0 KECCAK256 SWAP1 PUSH1 0x9 PUSH1 0x40 MLOAD SWAP3 PUSH2 0x1010 DUP5 PUSH2 0x540E JUMP JUMPDEST DUP1 SLOAD DUP5 MSTORE PUSH1 0x1 DUP2 ADD SLOAD PUSH1 0x1 PUSH1 0x1 PUSH1 0xA0 SHL SUB AND DUP4 DUP6 ADD MSTORE PUSH2 0x1032 PUSH1 0x2 DUP3 ADD PUSH2 0x63AF JUMP JUMPDEST PUSH1 0x40 DUP6 ADD MSTORE PUSH2 0x104B PUSH1 0xFF PUSH1 0x3 DUP4 ADD SLOAD AND PUSH1 0x60 DUP7 ADD PUSH2 0x5760 JUMP JUMPDEST PUSH2 0x1057 PUSH1 0x4 DUP3 ADD PUSH2 0x63AF JUMP JUMPDEST PUSH1 0x80 DUP6 ADD MSTORE PUSH1 0x5 DUP2 ADD SLOAD PUSH1 0xA0 DUP6 ADD MSTORE PUSH2 0x1072 PUSH1 0x6 DUP3 ADD PUSH2 0x63AF JUMP JUMPDEST PUSH1 0xC0 DUP6 ADD MSTORE PUSH1 0x7 DUP2 ADD SLOAD PUSH1 0xE0 DUP6 ADD MSTORE PUSH1 0x8 DUP2 ADD SLOAD PUSH2 0x100 DUP6 ADD MSTORE ADD SLOAD PUSH2 0x120 DUP4 ADD MSTORE PUSH2 0x10A8 PUSH1 0x40 MLOAD SWAP3 DUP3 DUP5 SWAP4 DUP5 MSTORE DUP4 ADD SWAP1 PUSH2 0x55D9 JUMP JUMPDEST SUB SWAP1 RETURN JUMPDEST CALLVALUE PUSH2 0x18D JUMPI PUSH1 0x20 CALLDATASIZE PUSH1 0x3 NOT ADD SLT PUSH2 0x18D JUMPI PUSH1 0x4 CALLDATALOAD PUSH1 0x40 MLOAD SWAP1 PUSH4 0x95A8C58D PUSH1 0xE0 SHL DUP3 MSTORE PUSH1 0x20 DUP3 DUP1 PUSH2 0x10DF CALLER PUSH1 0x4 DUP4 ADD PUSH2 0x56A4 JUMP JUMPDEST SUB DUP2 PUSH32 0x0 PUSH1 0x1 PUSH1 0x1 PUSH1 0xA0 SHL SUB AND GAS STATICCALL SWAP1 DUP2 ISZERO PUSH2 0xDCD JUMPI PUSH2 0x114A PUSH1 0x40 SWAP3 PUSH32 0x207C4CBDF55EC315A13F0D5E047732EC5D947DA056E706593AA509909941CEDF SWAP5 PUSH1 0x0 SWAP2 PUSH2 0x115F JUMPI JUMPDEST POP PUSH2 0x6300 JUMP JUMPDEST PUSH1 0x8 SLOAD SWAP1 DUP1 PUSH1 0x8 SSTORE DUP3 MLOAD SWAP2 DUP3 MSTORE PUSH1 0x20 DUP3 ADD MSTORE LOG1 STOP JUMPDEST PUSH2 0x1177 SWAP2 POP PUSH1 0x20 RETURNDATASIZE DUP2 GT PUSH2 0xDC6 JUMPI PUSH2 0xDB8 DUP2 DUP4 PUSH2 0x542A JUMP JUMPDEST DUP6 PUSH2 0x1144 JUMP JUMPDEST CALLVALUE PUSH2 0x18D JUMPI PUSH2 0x118B CALLDATASIZE PUSH2 0x54A3 JUMP JUMPDEST SWAP1 PUSH1 0x40 MLOAD PUSH4 0x95A8C58D PUSH1 0xE0 SHL DUP2 MSTORE PUSH1 0x20 DUP2 DUP1 PUSH2 0x11AA CALLER PUSH1 0x4 DUP4 ADD PUSH2 0x568A JUMP JUMPDEST SUB DUP2 PUSH32 0x0 PUSH1 0x1 PUSH1 0x1 PUSH1 0xA0 SHL SUB AND GAS STATICCALL SWAP1 DUP2 ISZERO PUSH2 0xDCD JUMPI PUSH1 0x0 SWAP2 PUSH2 0x1CAA JUMPI JUMPDEST POP DUP1 ISZERO PUSH2 0x1C91 JUMPI JUMPDEST PUSH2 0x11F8 SWAP1 PUSH2 0x56BE JUMP JUMPDEST PUSH1 0x8 SLOAD ISZERO PUSH2 0x175F JUMPI CALLER PUSH1 0x0 MSTORE PUSH1 0x9 PUSH1 0x20 MSTORE PUSH1 0x40 PUSH1 0x0 KECCAK256 PUSH3 0x15180 TIMESTAMP DIV PUSH1 0x0 MSTORE PUSH1 0x20 MSTORE PUSH2 0x122C PUSH1 0x40 PUSH1 0x0 KECCAK256 SLOAD PUSH1 0x8 SLOAD GT PUSH2 0x5705 JUMP JUMPDEST PUSH2 0x1234 PUSH2 0x5DAC JUMP JUMPDEST SWAP2 PUSH2 0x1240 PUSH1 0x0 SLOAD PUSH2 0x5751 JUMP JUMPDEST SWAP3 DUP4 PUSH1 0x0 SSTORE PUSH1 0x40 MLOAD PUSH1 0x20 DUP2 ADD SWAP1 DUP6 DUP3 MSTORE PUSH1 0x1 DUP1 PUSH1 0x60 SHL SUB NOT CALLER PUSH1 0x60 SHL AND PUSH1 0x40 DUP3 ADD MSTORE PUSH1 0x1 PUSH1 0xFA SHL PUSH1 0x54 DUP3 ADD MSTORE PUSH2 0x1286 PUSH1 0x95 DUP3 DUP10 MLOAD PUSH2 0x2C9 DUP2 DUP13 PUSH1 0x20 PUSH1 0x55 DUP7 ADD SWAP2 ADD PUSH2 0x5584 JUMP JUMPDEST MLOAD SWAP1 KECCAK256 SWAP2 PUSH1 0x40 MLOAD SWAP2 PUSH2 0x1297 DUP4 PUSH2 0x540E JUMP JUMPDEST DUP6 DUP4 MSTORE CALLER PUSH1 0x20 DUP5 ADD MSTORE PUSH1 0x40 DUP4 ADD MSTORE PUSH1 0x4 PUSH1 0x60 DUP4 ADD MSTORE DUP6 PUSH1 0x80 DUP4 ADD MSTORE DUP4 PUSH1 0xA0 DUP4 ADD MSTORE PUSH1 0xC0 DUP3 ADD MSTORE DUP2 PUSH1 0xE0 DUP3 ADD MSTORE TIMESTAMP PUSH2 0x100 DUP3 ADD MSTORE NUMBER PUSH2 0x120 DUP3 ADD MSTORE DUP4 PUSH1 0x0 MSTORE PUSH1 0x1 PUSH1 0x20 MSTORE PUSH1 0x40 PUSH1 0x0 KECCAK256 DUP2 MLOAD DUP2 SSTORE PUSH1 0x1 DUP2 ADD PUSH1 0x1 DUP1 PUSH1 0xA0 SHL SUB PUSH1 0x20 DUP5 ADD MLOAD AND PUSH1 0x1 DUP1 PUSH1 0xA0 SHL SUB NOT DUP3 SLOAD AND OR SWAP1 SSTORE PUSH1 0x40 DUP3 ADD MLOAD DUP1 MLOAD SWAP1 PUSH1 0x1 DUP1 PUSH1 0x40 SHL SUB DUP3 GT PUSH2 0x675 JUMPI DUP2 SWAP1 PUSH2 0x1326 PUSH1 0x2 DUP6 ADD SLOAD PUSH2 0x576C JUMP JUMPDEST PUSH1 0x1F DUP2 GT PUSH2 0x170C JUMPI JUMPDEST POP PUSH1 0x20 SWAP1 PUSH1 0x1F DUP4 GT PUSH1 0x1 EQ PUSH2 0x169F JUMPI PUSH1 0x0 SWAP3 PUSH2 0x1694 JUMPI JUMPDEST POP POP DUP2 PUSH1 0x1 SHL SWAP2 PUSH1 0x0 NOT SWAP1 PUSH1 0x3 SHL SHR NOT AND OR PUSH1 0x2 DUP3 ADD SSTORE JUMPDEST PUSH1 0x3 DUP2 ADD PUSH1 0x60 DUP4 ADD MLOAD PUSH1 0x6 DUP2 LT ISZERO PUSH2 0x756 JUMPI PUSH1 0xFF DUP1 NOT DUP4 SLOAD AND SWAP2 AND OR SWAP1 SSTORE PUSH1 0x80 DUP3 ADD MLOAD DUP1 MLOAD SWAP1 PUSH1 0x1 DUP1 PUSH1 0x40 SHL SUB DUP3 GT PUSH2 0x675 JUMPI DUP2 SWAP1 PUSH2 0x13A0 PUSH1 0x4 DUP6 ADD SLOAD PUSH2 0x576C JUMP JUMPDEST PUSH1 0x1F DUP2 GT PUSH2 0x1641 JUMPI JUMPDEST POP PUSH1 0x20 SWAP1 PUSH1 0x1F DUP4 GT PUSH1 0x1 EQ PUSH2 0x15D4 JUMPI PUSH1 0x0 SWAP3 PUSH2 0x15C9 JUMPI JUMPDEST POP POP DUP2 PUSH1 0x1 SHL SWAP2 PUSH1 0x0 NOT SWAP1 PUSH1 0x3 SHL SHR NOT AND OR PUSH1 0x4 DUP3 ADD SSTORE JUMPDEST PUSH1 0xA0 DUP3 ADD MLOAD PUSH1 0x5 DUP3 ADD SSTORE PUSH1 0xC0 DUP3 ADD MLOAD DUP1 MLOAD SWAP3 SWAP1 PUSH1 0x1 PUSH1 0x1 PUSH1 0x40 SHL SUB DUP5 GT PUSH2 0x675 JUMPI PUSH2 0x1406 PUSH1 0x6 DUP5 ADD SLOAD PUSH2 0x576C JUMP JUMPDEST PUSH1 0x1F DUP2 GT PUSH2 0x1582 JUMPI JUMPDEST POP SWAP2 PUSH1 0x20 SWAP8 SWAP2 DUP8 SWAP4 DUP10 SWAP1 PUSH1 0x1F DUP8 GT PUSH1 0x1 EQ PUSH2 0x14FA JUMPI SWAP2 DUP7 PUSH1 0x0 DUP1 MLOAD PUSH1 0x20 PUSH2 0x64D4 DUP4 CODECOPY DUP2 MLOAD SWAP2 MSTORE SWAP7 SWAP8 PUSH2 0x120 SWAP4 PUSH1 0x9 SWAP6 PUSH1 0x0 SWAP3 PUSH2 0x14EF JUMPI JUMPDEST POP POP DUP2 PUSH1 0x1 SHL SWAP2 PUSH1 0x0 NOT SWAP1 PUSH1 0x3 SHL SHR NOT AND OR PUSH1 0x6 DUP6 ADD SSTORE JUMPDEST PUSH1 0xE0 DUP2 ADD MLOAD PUSH1 0x7 DUP6 ADD SSTORE PUSH2 0x100 DUP2 ADD MLOAD PUSH1 0x8 DUP6 ADD SSTORE ADD MLOAD SWAP2 ADD SSTORE PUSH2 0x1481 DUP4 PUSH2 0x57D7 JUMP JUMPDEST CALLER PUSH1 0x0 MSTORE PUSH1 0x3 DUP8 MSTORE PUSH2 0x1497 DUP4 PUSH1 0x40 PUSH1 0x0 KECCAK256 PUSH2 0x580E JUMP JUMPDEST PUSH2 0x14AF DUP4 PUSH1 0x40 MLOAD DUP10 DUP2 DUP6 MLOAD PUSH2 0x50E DUP2 DUP4 DUP6 DUP11 ADD PUSH2 0x5584 JUMP JUMPDEST DUP5 PUSH1 0x0 MSTORE PUSH1 0x5 DUP8 MSTORE PUSH2 0x14C5 DUP4 PUSH1 0x40 PUSH1 0x0 KECCAK256 PUSH2 0x580E JUMP JUMPDEST DUP4 PUSH1 0x0 MSTORE PUSH1 0x6 DUP8 MSTORE DUP3 PUSH1 0x40 PUSH1 0x0 KECCAK256 SSTORE PUSH2 0x55D PUSH1 0x40 MLOAD SWAP2 PUSH1 0x4 DUP4 MSTORE PUSH1 0x60 DUP10 DUP5 ADD MSTORE PUSH1 0x60 DUP4 ADD SWAP1 PUSH2 0x55A7 JUMP JUMPDEST ADD MLOAD SWAP1 POP DUP14 DUP1 PUSH2 0x1446 JUMP JUMPDEST SWAP6 SWAP1 PUSH1 0x6 DUP5 ADD PUSH1 0x0 MSTORE DUP11 PUSH1 0x0 KECCAK256 SWAP7 PUSH1 0x0 JUMPDEST PUSH1 0x1F NOT DUP5 AND DUP2 LT PUSH2 0x1568 JUMPI POP DUP3 PUSH1 0x0 DUP1 MLOAD PUSH1 0x20 PUSH2 0x64D4 DUP4 CODECOPY DUP2 MLOAD SWAP2 MSTORE SWAP8 SWAP9 PUSH1 0x9 SWAP6 SWAP4 PUSH1 0x1 SWAP4 PUSH2 0x120 SWAP7 PUSH1 0x1F NOT DUP2 AND LT PUSH2 0x154F JUMPI JUMPDEST POP POP POP DUP2 SHL ADD PUSH1 0x6 DUP6 ADD SSTORE PUSH2 0x145E JUMP JUMPDEST ADD MLOAD PUSH1 0x0 NOT PUSH1 0xF8 DUP5 PUSH1 0x3 SHL AND SHR NOT AND SWAP1 SSTORE DUP14 DUP1 DUP1 PUSH2 0x153F JUMP JUMPDEST DUP3 DUP3 ADD MLOAD DUP10 SSTORE PUSH1 0x1 SWAP1 SWAP9 ADD SWAP8 DUP12 SWAP8 POP SWAP2 DUP13 ADD SWAP2 DUP13 ADD PUSH2 0x150B JUMP JUMPDEST PUSH1 0x6 DUP5 ADD PUSH1 0x0 MSTORE PUSH1 0x20 PUSH1 0x0 KECCAK256 PUSH1 0x1F DUP7 ADD PUSH1 0x5 SHR DUP2 ADD PUSH1 0x20 DUP8 LT PUSH2 0x15C2 JUMPI JUMPDEST PUSH1 0x1F DUP4 ADD PUSH1 0x5 SHR DUP3 ADD DUP2 LT PUSH2 0x15B6 JUMPI POP POP PUSH2 0x140F JUMP JUMPDEST PUSH1 0x0 DUP2 SSTORE PUSH1 0x1 ADD PUSH2 0x15A0 JUMP JUMPDEST POP DUP1 PUSH2 0x15A0 JUMP JUMPDEST ADD MLOAD SWAP1 POP DUP9 DUP1 PUSH2 0x13C0 JUMP JUMPDEST PUSH1 0x4 DUP6 ADD PUSH1 0x0 SWAP1 DUP2 MSTORE PUSH1 0x20 DUP2 KECCAK256 SWAP4 POP PUSH1 0x1F NOT DUP6 AND SWAP1 JUMPDEST DUP2 DUP2 LT PUSH2 0x1629 JUMPI POP SWAP1 DUP5 PUSH1 0x1 SWAP6 SWAP5 SWAP4 SWAP3 LT PUSH2 0x1610 JUMPI JUMPDEST POP POP POP DUP2 SHL ADD PUSH1 0x4 DUP3 ADD SSTORE PUSH2 0x13D8 JUMP JUMPDEST ADD MLOAD PUSH1 0x0 NOT PUSH1 0xF8 DUP5 PUSH1 0x3 SHL AND SHR NOT AND SWAP1 SSTORE DUP9 DUP1 DUP1 PUSH2 0x1600 JUMP JUMPDEST SWAP3 SWAP4 PUSH1 0x20 PUSH1 0x1 DUP2 SWAP3 DUP8 DUP7 ADD MLOAD DUP2 SSTORE ADD SWAP6 ADD SWAP4 ADD PUSH2 0x15EA JUMP JUMPDEST SWAP1 SWAP2 POP PUSH1 0x4 DUP5 ADD PUSH1 0x0 MSTORE PUSH1 0x20 PUSH1 0x0 KECCAK256 PUSH1 0x1F DUP5 ADD PUSH1 0x5 SHR DUP2 ADD PUSH1 0x20 DUP6 LT PUSH2 0x168D JUMPI JUMPDEST SWAP1 DUP5 SWAP4 SWAP3 SWAP2 JUMPDEST PUSH1 0x1F DUP4 ADD PUSH1 0x5 SHR DUP3 ADD DUP2 LT PUSH2 0x167E JUMPI POP POP PUSH2 0x13A9 JUMP JUMPDEST PUSH1 0x0 DUP2 SSTORE DUP6 SWAP5 POP PUSH1 0x1 ADD PUSH2 0x1668 JUMP JUMPDEST POP DUP1 PUSH2 0x1662 JUMP JUMPDEST ADD MLOAD SWAP1 POP DUP9 DUP1 PUSH2 0x1346 JUMP JUMPDEST PUSH1 0x2 DUP6 ADD PUSH1 0x0 SWAP1 DUP2 MSTORE PUSH1 0x20 DUP2 KECCAK256 SWAP4 POP PUSH1 0x1F NOT DUP6 AND SWAP1 JUMPDEST DUP2 DUP2 LT PUSH2 0x16F4 JUMPI POP SWAP1 DUP5 PUSH1 0x1 SWAP6 SWAP5 SWAP4 SWAP3 LT PUSH2 0x16DB JUMPI JUMPDEST POP POP POP DUP2 SHL ADD PUSH1 0x2 DUP3 ADD SSTORE PUSH2 0x135E JUMP JUMPDEST ADD MLOAD PUSH1 0x0 NOT PUSH1 0xF8 DUP5 PUSH1 0x3 SHL AND SHR NOT AND SWAP1 SSTORE DUP9 DUP1 DUP1 PUSH2 0x16CB JUMP JUMPDEST SWAP3 SWAP4 PUSH1 0x20 PUSH1 0x1 DUP2 SWAP3 DUP8 DUP7 ADD MLOAD DUP2 SSTORE ADD SWAP6 ADD SWAP4 ADD PUSH2 0x16B5 JUMP JUMPDEST SWAP1 SWAP2 POP PUSH1 0x2 DUP5 ADD PUSH1 0x0 MSTORE PUSH1 0x20 PUSH1 0x0 KECCAK256 PUSH1 0x1F DUP5 ADD PUSH1 0x5 SHR DUP2 ADD PUSH1 0x20 DUP6 LT PUSH2 0x1758 JUMPI JUMPDEST SWAP1 DUP5 SWAP4 SWAP3 SWAP2 JUMPDEST PUSH1 0x1F DUP4 ADD PUSH1 0x5 SHR DUP3 ADD DUP2 LT PUSH2 0x1749 JUMPI POP POP PUSH2 0x132F JUMP JUMPDEST PUSH1 0x0 DUP2 SSTORE DUP6 SWAP5 POP PUSH1 0x1 ADD PUSH2 0x1733 JUMP JUMPDEST POP DUP1 PUSH2 0x172D JUMP JUMPDEST PUSH2 0x1767 PUSH2 0x5DAC JUMP JUMPDEST SWAP2 PUSH2 0x1773 PUSH1 0x0 SLOAD PUSH2 0x5751 JUMP JUMPDEST SWAP3 DUP4 PUSH1 0x0 SSTORE PUSH1 0x40 MLOAD PUSH1 0x20 DUP2 ADD SWAP1 DUP6 DUP3 MSTORE PUSH1 0x1 DUP1 PUSH1 0x60 SHL SUB NOT CALLER PUSH1 0x60 SHL AND PUSH1 0x40 DUP3 ADD MSTORE PUSH1 0x1 PUSH1 0xFA SHL PUSH1 0x54 DUP3 ADD MSTORE PUSH2 0x17B9 PUSH1 0x95 DUP3 DUP10 MLOAD PUSH2 0x2C9 DUP2 DUP13 PUSH1 0x20 PUSH1 0x55 DUP7 ADD SWAP2 ADD PUSH2 0x5584 JUMP JUMPDEST MLOAD SWAP1 KECCAK256 SWAP2 PUSH1 0x40 MLOAD SWAP2 PUSH2 0x17CA DUP4 PUSH2 0x540E JUMP JUMPDEST DUP6 DUP4 MSTORE PUSH1 0x20 DUP4 ADD SWAP2 CALLER DUP4 MSTORE PUSH1 0x40 DUP5 ADD SWAP2 DUP3 MSTORE PUSH1 0x4 PUSH1 0x60 DUP6 ADD MSTORE DUP8 PUSH1 0x80 DUP6 ADD MSTORE DUP6 PUSH1 0xA0 DUP6 ADD MSTORE PUSH1 0xC0 DUP5 ADD MSTORE DUP4 PUSH1 0xE0 DUP5 ADD MSTORE TIMESTAMP PUSH2 0x100 DUP5 ADD MSTORE NUMBER PUSH2 0x120 DUP5 ADD MSTORE DUP6 PUSH1 0x0 MSTORE PUSH1 0x1 PUSH1 0x20 MSTORE PUSH1 0x40 PUSH1 0x0 KECCAK256 SWAP2 DUP4 MLOAD DUP4 SSTORE PUSH1 0x1 DUP4 ADD SWAP1 PUSH1 0x1 DUP1 PUSH1 0xA0 SHL SUB SWAP1 MLOAD AND PUSH1 0x1 DUP1 PUSH1 0xA0 SHL SUB NOT DUP3 SLOAD AND OR SWAP1 SSTORE MLOAD DUP1 MLOAD SWAP1 PUSH1 0x1 DUP1 PUSH1 0x40 SHL SUB DUP3 GT PUSH2 0x675 JUMPI DUP2 SWAP1 PUSH2 0x1858 PUSH1 0x2 DUP6 ADD SLOAD PUSH2 0x576C JUMP JUMPDEST PUSH1 0x1F DUP2 GT PUSH2 0x1C3E JUMPI JUMPDEST POP PUSH1 0x20 SWAP1 PUSH1 0x1F DUP4 GT PUSH1 0x1 EQ PUSH2 0x1BD1 JUMPI PUSH1 0x0 SWAP3 PUSH2 0x1BC6 JUMPI JUMPDEST POP POP DUP2 PUSH1 0x1 SHL SWAP2 PUSH1 0x0 NOT SWAP1 PUSH1 0x3 SHL SHR NOT AND OR PUSH1 0x2 DUP3 ADD SSTORE JUMPDEST PUSH1 0x3 DUP2 ADD PUSH1 0x60 DUP4 ADD MLOAD PUSH1 0x6 DUP2 LT ISZERO PUSH2 0x756 JUMPI PUSH1 0xFF DUP1 NOT DUP4 SLOAD AND SWAP2 AND OR SWAP1 SSTORE PUSH1 0x80 DUP3 ADD MLOAD DUP1 MLOAD SWAP1 PUSH1 0x1 DUP1 PUSH1 0x40 SHL SUB DUP3 GT PUSH2 0x675 JUMPI DUP2 SWAP1 PUSH2 0x18D2 PUSH1 0x4 DUP6 ADD SLOAD PUSH2 0x576C JUMP JUMPDEST PUSH1 0x1F DUP2 GT PUSH2 0x1B73 JUMPI JUMPDEST POP PUSH1 0x20 SWAP1 PUSH1 0x1F DUP4 GT PUSH1 0x1 EQ PUSH2 0x1B06 JUMPI PUSH1 0x0 SWAP3 PUSH2 0x1AFB JUMPI JUMPDEST POP POP DUP2 PUSH1 0x1 SHL SWAP2 PUSH1 0x0 NOT SWAP1 PUSH1 0x3 SHL SHR NOT AND OR PUSH1 0x4 DUP3 ADD SSTORE JUMPDEST PUSH1 0xA0 DUP3 ADD MLOAD PUSH1 0x5 DUP3 ADD SSTORE PUSH1 0xC0 DUP3 ADD MLOAD DUP1 MLOAD SWAP3 SWAP1 PUSH1 0x1 PUSH1 0x1 PUSH1 0x40 SHL SUB DUP5 GT PUSH2 0x675 JUMPI PUSH2 0x1938 PUSH1 0x6 DUP5 ADD SLOAD PUSH2 0x576C JUMP JUMPDEST PUSH1 0x1F DUP2 GT PUSH2 0x1AB4 JUMPI JUMPDEST POP SWAP2 PUSH1 0x20 SWAP8 SWAP2 DUP8 SWAP4 DUP10 SWAP1 PUSH1 0x1F DUP8 GT PUSH1 0x1 EQ PUSH2 0x1A2C JUMPI SWAP2 DUP7 PUSH1 0x0 DUP1 MLOAD PUSH1 0x20 PUSH2 0x64D4 DUP4 CODECOPY DUP2 MLOAD SWAP2 MSTORE SWAP7 SWAP8 PUSH2 0x120 SWAP4 PUSH1 0x9 SWAP6 PUSH1 0x0 SWAP3 PUSH2 0x1A21 JUMPI JUMPDEST POP POP DUP2 PUSH1 0x1 SHL SWAP2 PUSH1 0x0 NOT SWAP1 PUSH1 0x3 SHL SHR NOT AND OR PUSH1 0x6 DUP6 ADD SSTORE JUMPDEST PUSH1 0xE0 DUP2 ADD MLOAD PUSH1 0x7 DUP6 ADD SSTORE PUSH2 0x100 DUP2 ADD MLOAD PUSH1 0x8 DUP6 ADD SSTORE ADD MLOAD SWAP2 ADD SSTORE PUSH2 0x19B3 DUP4 PUSH2 0x57D7 JUMP JUMPDEST CALLER PUSH1 0x0 MSTORE PUSH1 0x3 DUP8 MSTORE PUSH2 0x19C9 DUP4 PUSH1 0x40 PUSH1 0x0 KECCAK256 PUSH2 0x580E JUMP JUMPDEST PUSH2 0x19E1 DUP4 PUSH1 0x40 MLOAD DUP10 DUP2 DUP6 MLOAD PUSH2 0x50E DUP2 DUP4 DUP6 DUP11 ADD PUSH2 0x5584 JUMP JUMPDEST DUP5 PUSH1 0x0 MSTORE PUSH1 0x5 DUP8 MSTORE PUSH2 0x19F7 DUP4 PUSH1 0x40 PUSH1 0x0 KECCAK256 PUSH2 0x580E JUMP JUMPDEST DUP4 PUSH1 0x0 MSTORE PUSH1 0x6 DUP8 MSTORE DUP3 PUSH1 0x40 PUSH1 0x0 KECCAK256 SSTORE PUSH2 0xAFA PUSH1 0x40 MLOAD SWAP2 PUSH1 0x4 DUP4 MSTORE PUSH1 0x60 DUP10 DUP5 ADD MSTORE PUSH1 0x60 DUP4 ADD SWAP1 PUSH2 0x55A7 JUMP JUMPDEST ADD MLOAD SWAP1 POP DUP14 DUP1 PUSH2 0x1978 JUMP JUMPDEST SWAP6 SWAP1 PUSH1 0x6 DUP5 ADD PUSH1 0x0 MSTORE DUP11 PUSH1 0x0 KECCAK256 SWAP7 PUSH1 0x0 JUMPDEST PUSH1 0x1F NOT DUP5 AND DUP2 LT PUSH2 0x1A9A JUMPI POP DUP3 PUSH1 0x0 DUP1 MLOAD PUSH1 0x20 PUSH2 0x64D4 DUP4 CODECOPY DUP2 MLOAD SWAP2 MSTORE SWAP8 SWAP9 PUSH1 0x9 SWAP6 SWAP4 PUSH1 0x1 SWAP4 PUSH2 0x120 SWAP7 PUSH1 0x1F NOT DUP2 AND LT PUSH2 0x1A81 JUMPI JUMPDEST POP POP POP DUP2 SHL ADD PUSH1 0x6 DUP6 ADD SSTORE PUSH2 0x1990 JUMP JUMPDEST ADD MLOAD PUSH1 0x0 NOT PUSH1 0xF8 DUP5 PUSH1 0x3 SHL AND SHR NOT AND SWAP1 SSTORE DUP14 DUP1 DUP1 PUSH2 0x1A71 JUMP JUMPDEST DUP3 DUP3 ADD MLOAD DUP10 SSTORE PUSH1 0x1 SWAP1 SWAP9 ADD SWAP8 DUP12 SWAP8 POP SWAP2 DUP13 ADD SWAP2 DUP13 ADD PUSH2 0x1A3D JUMP JUMPDEST PUSH1 0x6 DUP5 ADD PUSH1 0x0 MSTORE PUSH1 0x20 PUSH1 0x0 KECCAK256 PUSH1 0x1F DUP7 ADD PUSH1 0x5 SHR DUP2 ADD PUSH1 0x20 DUP8 LT PUSH2 0x1AF4 JUMPI JUMPDEST PUSH1 0x1F DUP4 ADD PUSH1 0x5 SHR DUP3 ADD DUP2 LT PUSH2 0x1AE8 JUMPI POP POP PUSH2 0x1941 JUMP JUMPDEST PUSH1 0x0 DUP2 SSTORE PUSH1 0x1 ADD PUSH2 0x1AD2 JUMP JUMPDEST POP DUP1 PUSH2 0x1AD2 JUMP JUMPDEST ADD MLOAD SWAP1 POP DUP9 DUP1 PUSH2 0x18F2 JUMP JUMPDEST PUSH1 0x4 DUP6 ADD PUSH1 0x0 SWAP1 DUP2 MSTORE PUSH1 0x20 DUP2 KECCAK256 SWAP4 POP PUSH1 0x1F NOT DUP6 AND SWAP1 JUMPDEST DUP2 DUP2 LT PUSH2 0x1B5B JUMPI POP SWAP1 DUP5 PUSH1 0x1 SWAP6 SWAP5 SWAP4 SWAP3 LT PUSH2 0x1B42 JUMPI JUMPDEST POP POP POP DUP2 SHL ADD PUSH1 0x4 DUP3 ADD SSTORE PUSH2 0x190A JUMP JUMPDEST ADD MLOAD PUSH1 0x0 NOT PUSH1 0xF8 DUP5 PUSH1 0x3 SHL AND SHR NOT AND SWAP1 SSTORE DUP9 DUP1 DUP1 PUSH2 0x1B32 JUMP JUMPDEST SWAP3 SWAP4 PUSH1 0x20 PUSH1 0x1 DUP2 SWAP3 DUP8 DUP7 ADD MLOAD DUP2 SSTORE ADD SWAP6 ADD SWAP4 ADD PUSH2 0x1B1C JUMP JUMPDEST SWAP1 SWAP2 POP PUSH1 0x4 DUP5 ADD PUSH1 0x0 MSTORE PUSH1 0x20 PUSH1 0x0 KECCAK256 PUSH1 0x1F DUP5 ADD PUSH1 0x5 SHR DUP2 ADD PUSH1 0x20 DUP6 LT PUSH2 0x1BBF JUMPI JUMPDEST SWAP1 DUP5 SWAP4 SWAP3 SWAP2 JUMPDEST PUSH1 0x1F DUP4 ADD PUSH1 0x5 SHR DUP3 ADD DUP2 LT PUSH2 0x1BB0 JUMPI POP POP PUSH2 0x18DB JUMP JUMPDEST PUSH1 0x0 DUP2 SSTORE DUP6 SWAP5 POP PUSH1 0x1 ADD PUSH2 0x1B9A JUMP JUMPDEST POP DUP1 PUSH2 0x1B94 JUMP JUMPDEST ADD MLOAD SWAP1 POP DUP9 DUP1 PUSH2 0x1878 JUMP JUMPDEST PUSH1 0x2 DUP6 ADD PUSH1 0x0 SWAP1 DUP2 MSTORE PUSH1 0x20 DUP2 KECCAK256 SWAP4 POP PUSH1 0x1F NOT DUP6 AND SWAP1 JUMPDEST DUP2 DUP2 LT PUSH2 0x1C26 JUMPI POP SWAP1 DUP5 PUSH1 0x1 SWAP6 SWAP5 SWAP4 SWAP3 LT PUSH2 0x1C0D JUMPI JUMPDEST POP POP POP DUP2 SHL ADD PUSH1 0x2 DUP3 ADD SSTORE PUSH2 0x1890 JUMP JUMPDEST ADD MLOAD PUSH1 0x0 NOT PUSH1 0xF8 DUP5 PUSH1 0x3 SHL AND SHR NOT AND SWAP1 SSTORE DUP9 DUP1 DUP1 PUSH2 0x1BFD JUMP JUMPDEST SWAP3 SWAP4 PUSH1 0x20 PUSH1 0x1 DUP2 SWAP3 DUP8 DUP7 ADD MLOAD DUP2 SSTORE ADD SWAP6 ADD SWAP4 ADD PUSH2 0x1BE7 JUMP JUMPDEST SWAP1 SWAP2 POP PUSH1 0x2 DUP5 ADD PUSH1 0x0 MSTORE PUSH1 0x20 PUSH1 0x0 KECCAK256 PUSH1 0x1F DUP5 ADD PUSH1 0x5 SHR DUP2 ADD PUSH1 0x20 DUP6 LT PUSH2 0x1C8A JUMPI JUMPDEST SWAP1 DUP5 SWAP4 SWAP3 SWAP2 JUMPDEST PUSH1 0x1F DUP4 ADD PUSH1 0x5 SHR DUP3 ADD DUP2 LT PUSH2 0x1C7B JUMPI POP POP PUSH2 0x1861 JUMP JUMPDEST PUSH1 0x0 DUP2 SSTORE DUP6 SWAP5 POP PUSH1 0x1 ADD PUSH2 0x1C65 JUMP JUMPDEST POP DUP1 PUSH2 0x1C5F JUMP JUMPDEST POP CALLER PUSH1 0x0 SWAP1 DUP2 MSTORE PUSH1 0x7 PUSH1 0x20 MSTORE PUSH1 0x40 SWAP1 KECCAK256 SLOAD PUSH1 0xFF AND PUSH2 0x11EF JUMP JUMPDEST PUSH2 0x1CC3 SWAP2 POP PUSH1 0x20 RETURNDATASIZE PUSH1 0x20 GT PUSH2 0xDC6 JUMPI PUSH2 0xDB8 DUP2 DUP4 PUSH2 0x542A JUMP JUMPDEST DUP5 PUSH2 0x11E7 JUMP JUMPDEST CALLVALUE PUSH2 0x18D JUMPI PUSH1 0x20 DUP1 PUSH1 0x3 NOT CALLDATASIZE ADD SLT PUSH2 0x18D JUMPI PUSH1 0x1 PUSH1 0x1 PUSH1 0xA0 SHL SUB PUSH2 0x1CEB PUSH2 0x53BD JUMP JUMPDEST AND PUSH1 0x0 MSTORE PUSH1 0x3 DUP2 MSTORE PUSH1 0x40 PUSH1 0x0 KECCAK256 SWAP1 PUSH1 0x40 MLOAD SWAP1 DUP2 DUP2 DUP5 SLOAD SWAP2 DUP3 DUP2 MSTORE ADD SWAP4 PUSH1 0x0 MSTORE DUP2 PUSH1 0x0 KECCAK256 SWAP2 PUSH1 0x0 SWAP1 JUMPDEST DUP3 DUP3 LT PUSH2 0x1D36 JUMPI PUSH2 0x10A8 DUP6 PUSH2 0x1D2A DUP2 DUP10 SUB DUP3 PUSH2 0x542A JUMP JUMPDEST PUSH1 0x40 MLOAD SWAP2 DUP3 SWAP2 DUP3 PUSH2 0x53D3 JUMP JUMPDEST DUP4 SLOAD DUP7 MSTORE SWAP5 DUP6 ADD SWAP5 PUSH1 0x1 SWAP4 DUP5 ADD SWAP4 SWAP1 SWAP2 ADD SWAP1 PUSH2 0x1D13 JUMP JUMPDEST CALLVALUE PUSH2 0x18D JUMPI PUSH1 0x20 DUP1 PUSH1 0x3 NOT CALLDATASIZE ADD SLT PUSH2 0x18D JUMPI PUSH2 0x1D67 PUSH2 0x53BD JUMP JUMPDEST PUSH1 0x40 MLOAD PUSH4 0x95A8C58D PUSH1 0xE0 SHL DUP2 MSTORE SWAP1 DUP2 PUSH2 0x1D83 CALLER PUSH1 0x4 DUP4 ADD PUSH2 0x56A4 JUMP JUMPDEST PUSH1 0x1 PUSH1 0x1 PUSH1 0xA0 SHL SUB SWAP4 SWAP2 DUP6 SWAP2 DUP4 SWAP2 SWAP1 SUB DUP2 PUSH32 0x0 DUP8 AND GAS STATICCALL DUP1 ISZERO PUSH2 0xDCD JUMPI PUSH2 0x1DD0 SWAP2 PUSH1 0x0 SWAP2 PUSH2 0x1EC1 JUMPI POP PUSH2 0x6300 JUMP JUMPDEST AND SWAP1 DUP2 ISZERO PUSH2 0x1E7E JUMPI DUP2 PUSH1 0x0 MSTORE PUSH1 0x7 DUP2 MSTORE PUSH1 0xFF PUSH1 0x40 PUSH1 0x0 KECCAK256 SLOAD AND PUSH2 0x1E2E JUMPI PUSH1 0x7 SWAP1 DUP3 PUSH1 0x0 MSTORE MSTORE PUSH1 0x40 PUSH1 0x0 KECCAK256 PUSH1 0x1 PUSH1 0xFF NOT DUP3 SLOAD AND OR SWAP1 SSTORE CALLER SWAP1 PUSH32 0xBC77D0D80282C2ECB43FBFEDCC07876EE409CC1D3444079D801DA714AFDA69F2 PUSH1 0x0 DUP1 LOG3 STOP JUMPDEST PUSH1 0x84 SWAP1 PUSH1 0x40 MLOAD SWAP1 PUSH3 0x461BCD PUSH1 0xE5 SHL DUP3 MSTORE PUSH1 0x4 DUP3 ADD MSTORE PUSH1 0x23 PUSH1 0x24 DUP3 ADD MSTORE PUSH32 0x41756469744C6F673A206D6F64756C6520616C726561647920617574686F7269 PUSH1 0x44 DUP3 ADD MSTORE PUSH3 0x1E9959 PUSH1 0xEA SHL PUSH1 0x64 DUP3 ADD MSTORE REVERT JUMPDEST PUSH1 0x64 SWAP1 PUSH1 0x40 MLOAD SWAP1 PUSH3 0x461BCD PUSH1 0xE5 SHL DUP3 MSTORE DUP1 PUSH1 0x4 DUP4 ADD MSTORE PUSH1 0x24 DUP3 ADD MSTORE PUSH32 0x41756469744C6F673A20696E76616C6964206D6F64756C652061646472657373 PUSH1 0x44 DUP3 ADD MSTORE REVERT JUMPDEST PUSH2 0x1177 SWAP2 POP DUP6 RETURNDATASIZE DUP8 GT PUSH2 0xDC6 JUMPI PUSH2 0xDB8 DUP2 DUP4 PUSH2 0x542A JUMP JUMPDEST CALLVALUE PUSH2 0x18D JUMPI PUSH1 0x80 CALLDATASIZE PUSH1 0x3 NOT ADD SLT PUSH2 0x18D JUMPI PUSH1 0x1 PUSH1 0x1 PUSH1 0x40 SHL SUB PUSH1 0x4 CALLDATALOAD DUP2 DUP2 GT PUSH2 0x18D JUMPI PUSH2 0x1F09 SWAP1 CALLDATASIZE SWAP1 PUSH1 0x4 ADD PUSH2 0x544D JUMP JUMPDEST PUSH1 0x24 CALLDATALOAD SWAP2 PUSH1 0x44 CALLDATALOAD SWAP1 DUP2 GT PUSH2 0x18D JUMPI PUSH2 0x1F25 SWAP1 CALLDATASIZE SWAP1 PUSH1 0x4 ADD PUSH2 0x544D JUMP JUMPDEST PUSH1 0x40 MLOAD PUSH4 0x95A8C58D PUSH1 0xE0 SHL DUP2 MSTORE PUSH1 0x20 SWAP4 PUSH1 0x64 CALLDATALOAD SWAP3 SWAP2 DUP6 DUP2 DUP1 PUSH2 0x1F4A CALLER PUSH1 0x4 DUP4 ADD PUSH2 0x568A JUMP JUMPDEST SUB DUP2 PUSH32 0x0 PUSH1 0x1 PUSH1 0x1 PUSH1 0xA0 SHL SUB AND GAS STATICCALL SWAP1 DUP2 ISZERO PUSH2 0xDCD JUMPI PUSH1 0x0 SWAP2 PUSH2 0x2020 JUMPI JUMPDEST POP DUP1 ISZERO PUSH2 0x2008 JUMPI JUMPDEST PUSH2 0x1F98 SWAP1 PUSH2 0x56BE JUMP JUMPDEST PUSH1 0x8 SLOAD ISZERO PUSH2 0x1FFA JUMPI SWAP1 PUSH2 0x1FD7 SWAP3 SWAP2 PUSH3 0x15180 TIMESTAMP DIV SWAP5 CALLER PUSH1 0x0 MSTORE PUSH1 0x9 DUP8 MSTORE PUSH1 0x40 PUSH1 0x0 KECCAK256 DUP7 PUSH1 0x0 MSTORE DUP8 MSTORE PUSH2 0x1FD2 PUSH1 0x40 PUSH1 0x0 KECCAK256 SLOAD PUSH1 0x8 SLOAD GT PUSH2 0x5705 JUMP JUMPDEST PUSH2 0x5DDE JUMP JUMPDEST SWAP1 CALLER PUSH1 0x0 MSTORE PUSH1 0x9 DUP4 MSTORE PUSH1 0x40 PUSH1 0x0 KECCAK256 SWAP1 PUSH1 0x0 MSTORE DUP3 MSTORE PUSH1 0x40 PUSH1 0x0 KECCAK256 PUSH2 0x590 DUP2 SLOAD PUSH2 0x5751 JUMP JUMPDEST PUSH2 0x2003 SWAP4 PUSH2 0x5DDE JUMP JUMPDEST PUSH2 0x593 JUMP JUMPDEST POP CALLER PUSH1 0x0 SWAP1 DUP2 MSTORE PUSH1 0x7 DUP7 MSTORE PUSH1 0x40 SWAP1 KECCAK256 SLOAD PUSH1 0xFF AND PUSH2 0x1F8F JUMP JUMPDEST PUSH2 0x2037 SWAP2 POP DUP7 RETURNDATASIZE DUP9 GT PUSH2 0xDC6 JUMPI PUSH2 0xDB8 DUP2 DUP4 PUSH2 0x542A JUMP JUMPDEST DUP7 PUSH2 0x1F87 JUMP JUMPDEST CALLVALUE PUSH2 0x18D JUMPI PUSH1 0x40 CALLDATASIZE PUSH1 0x3 NOT ADD SLT PUSH2 0x18D JUMPI PUSH1 0x2 SLOAD PUSH1 0x4 CALLDATALOAD SWAP1 PUSH1 0x24 CALLDATALOAD PUSH1 0x0 DUP1 JUMPDEST DUP4 DUP2 LT PUSH2 0x2106 JUMPI POP PUSH2 0x206D SWAP1 PUSH2 0x64A1 JUMP JUMPDEST SWAP3 PUSH1 0x0 SWAP1 PUSH1 0x0 JUMPDEST DUP5 DUP2 LT PUSH2 0x2089 JUMPI PUSH1 0x40 MLOAD DUP1 PUSH2 0x10A8 DUP9 DUP3 PUSH2 0x53D3 JUMP JUMPDEST PUSH2 0x2092 DUP2 PUSH2 0x57A6 JUMP JUMPDEST SWAP1 SLOAD PUSH1 0x3 SWAP2 DUP3 SHL SHR PUSH1 0x0 MSTORE PUSH1 0x1 PUSH1 0x20 MSTORE PUSH1 0x8 PUSH1 0x40 PUSH1 0x0 KECCAK256 ADD SLOAD DUP6 DUP5 DUP3 LT ISZERO SWAP2 DUP3 PUSH2 0x20FB JUMPI JUMPDEST POP POP PUSH2 0x20CD JUMPI JUMPDEST POP PUSH2 0x20C8 SWAP1 PUSH2 0x5751 JUMP JUMPDEST PUSH2 0x2074 JUMP JUMPDEST DUP2 SWAP4 PUSH2 0x20F4 SWAP2 PUSH2 0x20DF PUSH2 0x20C8 SWAP5 PUSH2 0x57A6 JUMP JUMPDEST SWAP1 SLOAD SWAP2 SHL SHR PUSH2 0x20EE DUP3 DUP11 PUSH2 0x634C JUMP JUMPDEST MSTORE PUSH2 0x5751 JUMP JUMPDEST SWAP3 SWAP1 PUSH2 0x20BE JUMP JUMPDEST GT ISZERO SWAP1 POP DUP6 DUP10 PUSH2 0x20B7 JUMP JUMPDEST PUSH2 0x210F DUP2 PUSH2 0x57A6 JUMP JUMPDEST SWAP1 SLOAD SWAP1 PUSH1 0x3 SHL SHR PUSH1 0x0 MSTORE PUSH1 0x1 PUSH1 0x20 MSTORE PUSH1 0x8 PUSH1 0x40 PUSH1 0x0 KECCAK256 ADD SLOAD DUP4 DUP7 DUP3 LT ISZERO SWAP2 DUP3 PUSH2 0x215D JUMPI JUMPDEST POP POP PUSH2 0x2148 JUMPI JUMPDEST PUSH2 0x2143 SWAP1 PUSH2 0x5751 JUMP JUMPDEST PUSH2 0x205C JUMP JUMPDEST SWAP1 PUSH2 0x2155 PUSH2 0x2143 SWAP2 PUSH2 0x5751 JUMP JUMPDEST SWAP2 SWAP1 POP PUSH2 0x213A JUMP JUMPDEST GT ISZERO SWAP1 POP DUP4 DUP8 PUSH2 0x2133 JUMP JUMPDEST CALLVALUE PUSH2 0x18D JUMPI PUSH1 0x20 DUP1 PUSH1 0x3 NOT CALLDATASIZE ADD SLT PUSH2 0x18D JUMPI PUSH2 0x2182 PUSH2 0x6360 JUMP JUMPDEST POP PUSH1 0x4 CALLDATALOAD PUSH1 0x0 MSTORE PUSH1 0x6 DUP2 MSTORE PUSH1 0x40 PUSH1 0x0 KECCAK256 SLOAD DUP1 ISZERO PUSH2 0x21B5 JUMPI PUSH1 0x0 MSTORE PUSH1 0x1 DUP2 MSTORE PUSH1 0x40 PUSH1 0x0 KECCAK256 SWAP1 PUSH1 0x9 PUSH1 0x40 MLOAD SWAP3 PUSH2 0x1010 DUP5 PUSH2 0x540E JUMP JUMPDEST PUSH1 0x40 MLOAD PUSH3 0x461BCD PUSH1 0xE5 SHL DUP2 MSTORE PUSH1 0x4 DUP2 ADD DUP4 SWAP1 MSTORE PUSH1 0x18 PUSH1 0x24 DUP3 ADD MSTORE PUSH24 0x105D591A5D131BD9CE881A185CDA081B9BDD08199BDD5B99 PUSH1 0x42 SHL PUSH1 0x44 DUP3 ADD MSTORE PUSH1 0x64 SWAP1 REVERT JUMPDEST CALLVALUE PUSH2 0x18D JUMPI PUSH1 0x20 DUP1 PUSH1 0x3 NOT CALLDATASIZE ADD SLT PUSH2 0x18D JUMPI PUSH1 0x4 CALLDATALOAD PUSH1 0x1 PUSH1 0x1 PUSH1 0x40 SHL SUB DUP2 GT PUSH2 0x18D JUMPI DUP2 PUSH2 0x222A PUSH2 0x223D SWAP3 CALLDATASIZE SWAP1 PUSH1 0x4 ADD PUSH2 0x544D JUMP JUMPDEST DUP2 PUSH1 0x40 MLOAD SWAP4 DUP3 DUP6 DUP1 SWAP5 MLOAD SWAP4 DUP5 SWAP3 ADD PUSH2 0x5584 JUMP JUMPDEST DUP2 ADD PUSH1 0x4 DUP2 MSTORE SUB ADD SWAP1 KECCAK256 SWAP1 PUSH1 0x40 MLOAD SWAP1 DUP2 DUP2 DUP5 SLOAD SWAP2 DUP3 DUP2 MSTORE ADD SWAP4 PUSH1 0x0 MSTORE DUP2 PUSH1 0x0 KECCAK256 SWAP2 PUSH1 0x0 SWAP1 JUMPDEST DUP3 DUP3 LT PUSH2 0x2279 JUMPI PUSH2 0x10A8 DUP6 PUSH2 0x1D2A DUP2 DUP10 SUB DUP3 PUSH2 0x542A JUMP JUMPDEST DUP4 SLOAD DUP7 MSTORE SWAP5 DUP6 ADD SWAP5 PUSH1 0x1 SWAP4 DUP5 ADD SWAP4 SWAP1 SWAP2 ADD SWAP1 PUSH2 0x2262 JUMP JUMPDEST CALLVALUE PUSH2 0x18D JUMPI PUSH1 0xE0 CALLDATASIZE PUSH1 0x3 NOT ADD SLT PUSH2 0x18D JUMPI PUSH2 0x22A9 PUSH2 0x53BD JUMP JUMPDEST PUSH1 0x1 PUSH1 0x1 PUSH1 0x40 SHL SUB SWAP1 PUSH1 0x24 CALLDATALOAD DUP3 DUP2 GT PUSH2 0x18D JUMPI PUSH2 0x22CA SWAP1 CALLDATASIZE SWAP1 PUSH1 0x4 ADD PUSH2 0x544D JUMP JUMPDEST SWAP2 PUSH1 0x44 CALLDATALOAD SWAP1 PUSH1 0x6 DUP3 LT ISZERO PUSH2 0x18D JUMPI PUSH1 0x64 CALLDATALOAD DUP2 DUP2 GT PUSH2 0x18D JUMPI PUSH2 0x22F0 SWAP1 CALLDATASIZE SWAP1 PUSH1 0x4 ADD PUSH2 0x544D JUMP JUMPDEST SWAP1 PUSH1 0x84 CALLDATALOAD SWAP1 PUSH1 0xA4 CALLDATALOAD SWAP1 DUP2 GT PUSH2 0x18D JUMPI PUSH2 0x230D SWAP1 CALLDATASIZE SWAP1 PUSH1 0x4 ADD PUSH2 0x544D JUMP JUMPDEST SWAP2 PUSH1 0xC4 CALLDATALOAD SWAP4 PUSH1 0x40 MLOAD SWAP7 PUSH4 0x95A8C58D PUSH1 0xE0 SHL DUP9 MSTORE PUSH1 0x20 SWAP8 DUP9 DUP2 DUP1 PUSH2 0x2333 CALLER PUSH1 0x4 DUP4 ADD PUSH2 0x568A JUMP JUMPDEST SUB DUP2 PUSH32 0x0 PUSH1 0x1 PUSH1 0x1 PUSH1 0xA0 SHL SUB AND GAS STATICCALL SWAP1 DUP2 ISZERO PUSH2 0xDCD JUMPI PUSH1 0x0 SWAP2 PUSH2 0x23E4 JUMPI JUMPDEST POP DUP1 ISZERO PUSH2 0x23CC JUMPI JUMPDEST PUSH2 0x2381 SWAP1 PUSH2 0x56BE JUMP JUMPDEST PUSH1 0x8 SLOAD ISZERO PUSH2 0x23C3 JUMPI SWAP1 PUSH2 0x1FD7 SWAP6 SWAP5 SWAP4 SWAP3 SWAP2 PUSH3 0x15180 TIMESTAMP DIV SWAP8 CALLER PUSH1 0x0 MSTORE PUSH1 0x9 DUP11 MSTORE PUSH1 0x40 PUSH1 0x0 KECCAK256 DUP10 PUSH1 0x0 MSTORE DUP11 MSTORE PUSH2 0x23BE PUSH1 0x40 PUSH1 0x0 KECCAK256 SLOAD PUSH1 0x8 SLOAD GT PUSH2 0x5705 JUMP JUMPDEST PUSH2 0x5860 JUMP JUMPDEST PUSH2 0x2003 SWAP7 PUSH2 0x5860 JUMP JUMPDEST POP CALLER PUSH1 0x0 SWAP1 DUP2 MSTORE PUSH1 0x7 DUP10 MSTORE PUSH1 0x40 SWAP1 KECCAK256 SLOAD PUSH1 0xFF AND PUSH2 0x2378 JUMP JUMPDEST PUSH2 0x23FB SWAP2 POP DUP10 RETURNDATASIZE DUP12 GT PUSH2 0xDC6 JUMPI PUSH2 0xDB8 DUP2 DUP4 PUSH2 0x542A JUMP JUMPDEST DUP10 PUSH2 0x2370 JUMP JUMPDEST CALLVALUE PUSH2 0x18D JUMPI PUSH1 0x0 CALLDATASIZE PUSH1 0x3 NOT ADD SLT PUSH2 0x18D JUMPI PUSH1 0x2 SLOAD PUSH3 0x15180 SWAP1 DUP2 TIMESTAMP DIV DUP3 DUP2 MUL SWAP3 DUP2 DUP5 DIV EQ SWAP1 ISZERO OR ISZERO PUSH2 0xF8C JUMPI PUSH1 0x0 SWAP2 PUSH1 0x0 SWAP1 PUSH1 0x0 JUMPDEST DUP4 DUP2 LT PUSH2 0x247F JUMPI POP POP PUSH1 0x80 SWAP3 PUSH1 0x64 DUP4 GT PUSH1 0x0 EQ PUSH2 0x246A JUMPI PUSH1 0xA DUP4 DIV SWAP1 JUMPDEST PUSH1 0x40 MLOAD SWAP4 DUP5 MSTORE PUSH1 0x20 DUP5 ADD MSTORE PUSH1 0x40 DUP4 ADD MSTORE PUSH1 0x60 DUP3 ADD MSTORE RETURN JUMPDEST DUP3 ISZERO PUSH2 0x2478 JUMPI DUP3 JUMPDEST SWAP1 PUSH2 0x2453 JUMP JUMPDEST PUSH1 0x1 PUSH2 0x2472 JUMP JUMPDEST PUSH2 0x2488 DUP2 PUSH2 0x57A6 JUMP JUMPDEST SWAP1 SLOAD SWAP1 PUSH1 0x3 SHL SHR PUSH1 0x0 MSTORE PUSH1 0x1 PUSH1 0x20 MSTORE PUSH1 0x40 PUSH1 0x0 KECCAK256 DUP3 PUSH1 0x8 DUP3 ADD SLOAD LT ISZERO PUSH2 0x24D5 JUMPI JUMPDEST PUSH1 0x7 ADD SLOAD PUSH2 0x24C0 JUMPI JUMPDEST PUSH2 0x24BB SWAP1 PUSH2 0x5751 JUMP JUMPDEST PUSH2 0x2436 JUMP JUMPDEST SWAP2 PUSH2 0x24CD PUSH2 0x24BB SWAP2 PUSH2 0x5751 JUMP JUMPDEST SWAP3 SWAP1 POP PUSH2 0x24B2 JUMP JUMPDEST SWAP5 PUSH2 0x24E1 PUSH1 0x7 SWAP2 PUSH2 0x5751 JUMP JUMPDEST SWAP6 SWAP1 POP PUSH2 0x24A9 JUMP JUMPDEST CALLVALUE PUSH2 0x18D JUMPI PUSH2 0x24F7 CALLDATASIZE PUSH2 0x54A3 JUMP JUMPDEST SWAP1 PUSH1 0x40 MLOAD PUSH4 0x95A8C58D PUSH1 0xE0 SHL DUP2 MSTORE PUSH1 0x20 DUP2 DUP1 PUSH2 0x2516 CALLER PUSH1 0x4 DUP4 ADD PUSH2 0x568A JUMP JUMPDEST SUB DUP2 PUSH32 0x0 PUSH1 0x1 PUSH1 0x1 PUSH1 0xA0 SHL SUB AND GAS STATICCALL SWAP1 DUP2 ISZERO PUSH2 0xDCD JUMPI PUSH1 0x0 SWAP2 PUSH2 0x302C JUMPI JUMPDEST POP DUP1 ISZERO PUSH2 0x3013 JUMPI JUMPDEST PUSH2 0x2564 SWAP1 PUSH2 0x56BE JUMP JUMPDEST PUSH1 0x8 SLOAD ISZERO PUSH2 0x2AD5 JUMPI CALLER PUSH1 0x0 MSTORE PUSH1 0x9 PUSH1 0x20 MSTORE PUSH1 0x40 PUSH1 0x0 KECCAK256 PUSH3 0x15180 TIMESTAMP DIV PUSH1 0x0 MSTORE PUSH1 0x20 MSTORE PUSH2 0x2598 PUSH1 0x40 PUSH1 0x0 KECCAK256 SLOAD PUSH1 0x8 SLOAD GT PUSH2 0x5705 JUMP JUMPDEST PUSH2 0x25A0 PUSH2 0x5DAC JUMP JUMPDEST SWAP2 PUSH2 0x25AC PUSH1 0x0 SLOAD PUSH2 0x5751 JUMP JUMPDEST SWAP3 DUP4 PUSH1 0x0 SSTORE PUSH1 0x40 MLOAD PUSH1 0x20 DUP2 ADD SWAP1 DUP6 DUP3 MSTORE PUSH1 0x1 DUP1 PUSH1 0x60 SHL SUB NOT CALLER PUSH1 0x60 SHL AND PUSH1 0x40 DUP3 ADD MSTORE PUSH1 0x3 PUSH1 0xF8 SHL PUSH1 0x54 DUP3 ADD MSTORE PUSH2 0x25F2 PUSH1 0x95 DUP3 DUP10 MLOAD PUSH2 0x2C9 DUP2 DUP13 PUSH1 0x20 PUSH1 0x55 DUP7 ADD SWAP2 ADD PUSH2 0x5584 JUMP JUMPDEST MLOAD SWAP1 KECCAK256 SWAP2 PUSH1 0x40 MLOAD SWAP2 PUSH2 0x2603 DUP4 PUSH2 0x540E JUMP JUMPDEST DUP6 DUP4 MSTORE CALLER PUSH1 0x20 DUP5 ADD MSTORE PUSH1 0x40 DUP4 ADD MSTORE PUSH1 0x3 PUSH1 0x60 DUP4 ADD MSTORE DUP6 PUSH1 0x80 DUP4 ADD MSTORE DUP4 PUSH1 0xA0 DUP4 ADD MSTORE PUSH1 0xC0 DUP3 ADD MSTORE DUP2 PUSH1 0xE0 DUP3 ADD MSTORE TIMESTAMP PUSH2 0x100 DUP3 ADD MSTORE NUMBER PUSH2 0x120 DUP3 ADD MSTORE DUP4 PUSH1 0x0 MSTORE PUSH1 0x1 PUSH1 0x20 MSTORE PUSH1 0x40 PUSH1 0x0 KECCAK256 DUP2 MLOAD DUP2 SSTORE PUSH1 0x1 DUP2 ADD PUSH1 0x1 DUP1 PUSH1 0xA0 SHL SUB PUSH1 0x20 DUP5 ADD MLOAD AND PUSH1 0x1 DUP1 PUSH1 0xA0 SHL SUB NOT DUP3 SLOAD AND OR SWAP1 SSTORE PUSH1 0x40 DUP3 ADD MLOAD DUP1 MLOAD SWAP1 PUSH1 0x1 DUP1 PUSH1 0x40 SHL SUB DUP3 GT PUSH2 0x675 JUMPI DUP2 SWAP1 PUSH2 0x2692 PUSH1 0x2 DUP6 ADD SLOAD PUSH2 0x576C JUMP JUMPDEST PUSH1 0x1F DUP2 GT PUSH2 0x2A82 JUMPI JUMPDEST POP PUSH1 0x20 SWAP1 PUSH1 0x1F DUP4 GT PUSH1 0x1 EQ PUSH2 0x2A10 JUMPI PUSH1 0x0 SWAP3 PUSH2 0x2A05 JUMPI JUMPDEST POP POP DUP2 PUSH1 0x1 SHL SWAP2 PUSH1 0x0 NOT SWAP1 PUSH1 0x3 SHL SHR NOT AND OR PUSH1 0x2 DUP3 ADD SSTORE JUMPDEST PUSH1 0x3 DUP2 ADD PUSH1 0x60 DUP4 ADD MLOAD PUSH1 0x6 DUP2 LT ISZERO PUSH2 0x756 JUMPI PUSH1 0xFF DUP1 NOT DUP4 SLOAD AND SWAP2 AND OR SWAP1 SSTORE PUSH1 0x80 DUP3 ADD MLOAD DUP1 MLOAD SWAP1 PUSH1 0x1 DUP1 PUSH1 0x40 SHL SUB DUP3 GT PUSH2 0x675 JUMPI DUP2 SWAP1 PUSH2 0x270C PUSH1 0x4 DUP6 ADD SLOAD PUSH2 0x576C JUMP JUMPDEST PUSH1 0x1F DUP2 GT PUSH2 0x29B2 JUMPI JUMPDEST POP PUSH1 0x20 SWAP1 PUSH1 0x1F DUP4 GT PUSH1 0x1 EQ PUSH2 0x2940 JUMPI PUSH1 0x0 SWAP3 PUSH2 0x2935 JUMPI JUMPDEST POP POP DUP2 PUSH1 0x1 SHL SWAP2 PUSH1 0x0 NOT SWAP1 PUSH1 0x3 SHL SHR NOT AND OR PUSH1 0x4 DUP3 ADD SSTORE JUMPDEST PUSH1 0xA0 DUP3 ADD MLOAD PUSH1 0x5 DUP3 ADD SSTORE PUSH1 0xC0 DUP3 ADD MLOAD DUP1 MLOAD SWAP3 SWAP1 PUSH1 0x1 PUSH1 0x1 PUSH1 0x40 SHL SUB DUP5 GT PUSH2 0x675 JUMPI PUSH2 0x2772 PUSH1 0x6 DUP5 ADD SLOAD PUSH2 0x576C JUMP JUMPDEST PUSH1 0x1F DUP2 GT PUSH2 0x28EE JUMPI JUMPDEST POP SWAP2 PUSH1 0x20 SWAP8 SWAP2 DUP8 SWAP4 DUP10 SWAP1 PUSH1 0x1F DUP8 GT PUSH1 0x1 EQ PUSH2 0x2866 JUMPI SWAP2 DUP7 PUSH1 0x0 DUP1 MLOAD PUSH1 0x20 PUSH2 0x64D4 DUP4 CODECOPY DUP2 MLOAD SWAP2 MSTORE SWAP7 SWAP8 PUSH2 0x120 SWAP4 PUSH1 0x9 SWAP6 PUSH1 0x0 SWAP3 PUSH2 0x285B JUMPI JUMPDEST POP POP DUP2 PUSH1 0x1 SHL SWAP2 PUSH1 0x0 NOT SWAP1 PUSH1 0x3 SHL SHR NOT AND OR PUSH1 0x6 DUP6 ADD SSTORE JUMPDEST PUSH1 0xE0 DUP2 ADD MLOAD PUSH1 0x7 DUP6 ADD SSTORE PUSH2 0x100 DUP2 ADD MLOAD PUSH1 0x8 DUP6 ADD SSTORE ADD MLOAD SWAP2 ADD SSTORE PUSH2 0x27ED DUP4 PUSH2 0x57D7 JUMP JUMPDEST CALLER PUSH1 0x0 MSTORE PUSH1 0x3 DUP8 MSTORE PUSH2 0x2803 DUP4 PUSH1 0x40 PUSH1 0x0 KECCAK256 PUSH2 0x580E JUMP JUMPDEST PUSH2 0x281B DUP4 PUSH1 0x40 MLOAD DUP10 DUP2 DUP6 MLOAD PUSH2 0x50E DUP2 DUP4 DUP6 DUP11 ADD PUSH2 0x5584 JUMP JUMPDEST DUP5 PUSH1 0x0 MSTORE PUSH1 0x5 DUP8 MSTORE PUSH2 0x2831 DUP4 PUSH1 0x40 PUSH1 0x0 KECCAK256 PUSH2 0x580E JUMP JUMPDEST DUP4 PUSH1 0x0 MSTORE PUSH1 0x6 DUP8 MSTORE DUP3 PUSH1 0x40 PUSH1 0x0 KECCAK256 SSTORE PUSH2 0x55D PUSH1 0x40 MLOAD SWAP2 PUSH1 0x3 DUP4 MSTORE PUSH1 0x60 DUP10 DUP5 ADD MSTORE PUSH1 0x60 DUP4 ADD SWAP1 PUSH2 0x55A7 JUMP JUMPDEST ADD MLOAD SWAP1 POP DUP14 DUP1 PUSH2 0x27B2 JUMP JUMPDEST SWAP6 SWAP1 PUSH1 0x6 DUP5 ADD PUSH1 0x0 MSTORE DUP11 PUSH1 0x0 KECCAK256 SWAP7 PUSH1 0x0 JUMPDEST PUSH1 0x1F NOT DUP5 AND DUP2 LT PUSH2 0x28D4 JUMPI POP DUP3 PUSH1 0x0 DUP1 MLOAD PUSH1 0x20 PUSH2 0x64D4 DUP4 CODECOPY DUP2 MLOAD SWAP2 MSTORE SWAP8 SWAP9 PUSH1 0x9 SWAP6 SWAP4 PUSH1 0x1 SWAP4 PUSH2 0x120 SWAP7 PUSH1 0x1F NOT DUP2 AND LT PUSH2 0x28BB JUMPI JUMPDEST POP POP POP DUP2 SHL ADD PUSH1 0x6 DUP6 ADD SSTORE PUSH2 0x27CA JUMP JUMPDEST ADD MLOAD PUSH1 0x0 NOT PUSH1 0xF8 DUP5 PUSH1 0x3 SHL AND SHR NOT AND SWAP1 SSTORE DUP14 DUP1 DUP1 PUSH2 0x28AB JUMP JUMPDEST DUP3 DUP3 ADD MLOAD DUP10 SSTORE PUSH1 0x1 SWAP1 SWAP9 ADD SWAP8 DUP12 SWAP8 POP SWAP2 DUP13 ADD SWAP2 DUP13 ADD PUSH2 0x2877 JUMP JUMPDEST PUSH1 0x6 DUP5 ADD PUSH1 0x0 MSTORE PUSH1 0x20 PUSH1 0x0 KECCAK256 PUSH1 0x1F DUP7 ADD PUSH1 0x5 SHR DUP2 ADD PUSH1 0x20 DUP8 LT PUSH2 0x292E JUMPI JUMPDEST PUSH1 0x1F DUP4 ADD PUSH1 0x5 SHR DUP3 ADD DUP2 LT PUSH2 0x2922 JUMPI POP POP PUSH2 0x277B JUMP JUMPDEST PUSH1 0x0 DUP2 SSTORE PUSH1 0x1 ADD PUSH2 0x290C JUMP JUMPDEST POP DUP1 PUSH2 0x290C JUMP JUMPDEST ADD MLOAD SWAP1 POP DUP9 DUP1 PUSH2 0x272C JUMP JUMPDEST SWAP3 POP PUSH1 0x4 DUP5 ADD PUSH1 0x0 MSTORE PUSH1 0x20 PUSH1 0x0 KECCAK256 SWAP1 PUSH1 0x0 SWAP4 JUMPDEST PUSH1 0x1F NOT DUP5 AND DUP6 LT PUSH2 0x2997 JUMPI PUSH1 0x1 SWAP5 POP DUP4 PUSH1 0x1F NOT DUP2 AND LT PUSH2 0x297E JUMPI JUMPDEST POP POP POP DUP2 SHL ADD PUSH1 0x4 DUP3 ADD SSTORE PUSH2 0x2744 JUMP JUMPDEST ADD MLOAD PUSH1 0x0 NOT PUSH1 0xF8 DUP5 PUSH1 0x3 SHL AND SHR NOT AND SWAP1 SSTORE DUP9 DUP1 DUP1 PUSH2 0x296E JUMP JUMPDEST DUP2 DUP2 ADD MLOAD DUP4 SSTORE PUSH1 0x20 SWAP5 DUP6 ADD SWAP5 PUSH1 0x1 SWAP1 SWAP4 ADD SWAP3 SWAP1 SWAP2 ADD SWAP1 PUSH2 0x2953 JUMP JUMPDEST SWAP1 SWAP2 POP PUSH1 0x4 DUP5 ADD PUSH1 0x0 MSTORE PUSH1 0x20 PUSH1 0x0 KECCAK256 PUSH1 0x1F DUP5 ADD PUSH1 0x5 SHR DUP2 ADD PUSH1 0x20 DUP6 LT PUSH2 0x29FE JUMPI JUMPDEST SWAP1 DUP5 SWAP4 SWAP3 SWAP2 JUMPDEST PUSH1 0x1F DUP4 ADD PUSH1 0x5 SHR DUP3 ADD DUP2 LT PUSH2 0x29EF JUMPI POP POP PUSH2 0x2715 JUMP JUMPDEST PUSH1 0x0 DUP2 SSTORE DUP6 SWAP5 POP PUSH1 0x1 ADD PUSH2 0x29D9 JUMP JUMPDEST POP DUP1 PUSH2 0x29D3 JUMP JUMPDEST ADD MLOAD SWAP1 POP DUP9 DUP1 PUSH2 0x26B2 JUMP JUMPDEST SWAP3 POP PUSH1 0x2 DUP5 ADD PUSH1 0x0 MSTORE PUSH1 0x20 PUSH1 0x0 KECCAK256 SWAP1 PUSH1 0x0 SWAP4 JUMPDEST PUSH1 0x1F NOT DUP5 AND DUP6 LT PUSH2 0x2A67 JUMPI PUSH1 0x1 SWAP5 POP DUP4 PUSH1 0x1F NOT DUP2 AND LT PUSH2 0x2A4E JUMPI JUMPDEST POP POP POP DUP2 SHL ADD PUSH1 0x2 DUP3 ADD SSTORE PUSH2 0x26CA JUMP JUMPDEST ADD MLOAD PUSH1 0x0 NOT PUSH1 0xF8 DUP5 PUSH1 0x3 SHL AND SHR NOT AND SWAP1 SSTORE DUP9 DUP1 DUP1 PUSH2 0x2A3E JUMP JUMPDEST DUP2 DUP2 ADD MLOAD DUP4 SSTORE PUSH1 0x20 SWAP5 DUP6 ADD SWAP5 PUSH1 0x1 SWAP1 SWAP4 ADD SWAP3 SWAP1 SWAP2 ADD SWAP1 PUSH2 0x2A23 JUMP JUMPDEST SWAP1 SWAP2 POP PUSH1 0x2 DUP5 ADD PUSH1 0x0 MSTORE PUSH1 0x20 PUSH1 0x0 KECCAK256 PUSH1 0x1F DUP5 ADD PUSH1 0x5 SHR DUP2 ADD PUSH1 0x20 DUP6 LT PUSH2 0x2ACE JUMPI JUMPDEST SWAP1 DUP5 SWAP4 SWAP3 SWAP2 JUMPDEST PUSH1 0x1F DUP4 ADD PUSH1 0x5 SHR DUP3 ADD DUP2 LT PUSH2 0x2ABF JUMPI POP POP PUSH2 0x269B JUMP JUMPDEST PUSH1 0x0 DUP2 SSTORE DUP6 SWAP5 POP PUSH1 0x1 ADD PUSH2 0x2AA9 JUMP JUMPDEST POP DUP1 PUSH2 0x2AA3 JUMP JUMPDEST PUSH2 0x2ADD PUSH2 0x5DAC JUMP JUMPDEST SWAP2 PUSH2 0x2AE9 PUSH1 0x0 SLOAD PUSH2 0x5751 JUMP JUMPDEST SWAP3 DUP4 PUSH1 0x0 SSTORE PUSH1 0x40 MLOAD PUSH1 0x20 DUP2 ADD SWAP1 DUP6 DUP3 MSTORE PUSH1 0x1 DUP1 PUSH1 0x60 SHL SUB NOT CALLER PUSH1 0x60 SHL AND PUSH1 0x40 DUP3 ADD MSTORE PUSH1 0x3 PUSH1 0xF8 SHL PUSH1 0x54 DUP3 ADD MSTORE PUSH2 0x2B2F PUSH1 0x95 DUP3 DUP10 MLOAD PUSH2 0x2C9 DUP2 DUP13 PUSH1 0x20 PUSH1 0x55 DUP7 ADD SWAP2 ADD PUSH2 0x5584 JUMP JUMPDEST MLOAD SWAP1 KECCAK256 SWAP2 PUSH1 0x40 MLOAD SWAP2 PUSH2 0x2B40 DUP4 PUSH2 0x540E JUMP JUMPDEST DUP6 DUP4 MSTORE CALLER PUSH1 0x20 DUP5 ADD MSTORE PUSH1 0x40 DUP4 ADD MSTORE PUSH1 0x3 PUSH1 0x60 DUP4 ADD MSTORE DUP6 PUSH1 0x80 DUP4 ADD MSTORE DUP4 PUSH1 0xA0 DUP4 ADD MSTORE PUSH1 0xC0 DUP3 ADD MSTORE DUP2 PUSH1 0xE0 DUP3 ADD MSTORE TIMESTAMP PUSH2 0x100 DUP3 ADD MSTORE NUMBER PUSH2 0x120 DUP3 ADD MSTORE DUP4 PUSH1 0x0 MSTORE PUSH1 0x1 PUSH1 0x20 MSTORE PUSH1 0x40 PUSH1 0x0 KECCAK256 DUP2 MLOAD DUP2 SSTORE PUSH1 0x1 DUP2 ADD PUSH1 0x1 DUP1 PUSH1 0xA0 SHL SUB PUSH1 0x20 DUP5 ADD MLOAD AND PUSH1 0x1 DUP1 PUSH1 0xA0 SHL SUB NOT DUP3 SLOAD AND OR SWAP1 SSTORE PUSH1 0x40 DUP3 ADD MLOAD DUP1 MLOAD SWAP1 PUSH1 0x1 DUP1 PUSH1 0x40 SHL SUB DUP3 GT PUSH2 0x675 JUMPI DUP2 SWAP1 PUSH2 0x2BCF PUSH1 0x2 DUP6 ADD SLOAD PUSH2 0x576C JUMP JUMPDEST PUSH1 0x1F DUP2 GT PUSH2 0x2FC0 JUMPI JUMPDEST POP PUSH1 0x20 SWAP1 PUSH1 0x1F DUP4 GT PUSH1 0x1 EQ PUSH2 0x2F4E JUMPI PUSH1 0x0 SWAP3 PUSH2 0x2F43 JUMPI JUMPDEST POP POP DUP2 PUSH1 0x1 SHL SWAP2 PUSH1 0x0 NOT SWAP1 PUSH1 0x3 SHL SHR NOT AND OR PUSH1 0x2 DUP3 ADD SSTORE JUMPDEST PUSH1 0x60 DUP3 ADD MLOAD PUSH1 0x6 DUP2 LT ISZERO PUSH2 0x756 JUMPI PUSH1 0x3 DUP3 ADD SWAP1 PUSH1 0xFF DUP1 NOT DUP4 SLOAD AND SWAP2 AND OR SWAP1 SSTORE PUSH1 0x80 DUP3 ADD MLOAD DUP1 MLOAD SWAP1 PUSH1 0x1 DUP1 PUSH1 0x40 SHL SUB DUP3 GT PUSH2 0x675 JUMPI DUP2 SWAP1 PUSH2 0x2C4A PUSH1 0x4 DUP6 ADD SLOAD PUSH2 0x576C JUMP JUMPDEST PUSH1 0x1F DUP2 GT PUSH2 0x2EF0 JUMPI JUMPDEST POP PUSH1 0x20 SWAP1 PUSH1 0x1F DUP4 GT PUSH1 0x1 EQ PUSH2 0x2E7E JUMPI PUSH1 0x0 SWAP3 PUSH2 0x2E73 JUMPI JUMPDEST POP POP DUP2 PUSH1 0x1 SHL SWAP2 PUSH1 0x0 NOT SWAP1 PUSH1 0x3 SHL SHR NOT AND OR PUSH1 0x4 DUP3 ADD SSTORE JUMPDEST PUSH1 0xA0 DUP3 ADD MLOAD PUSH1 0x5 DUP3 ADD SSTORE PUSH1 0xC0 DUP3 ADD MLOAD DUP1 MLOAD SWAP3 SWAP1 PUSH1 0x1 PUSH1 0x1 PUSH1 0x40 SHL SUB DUP5 GT PUSH2 0x675 JUMPI PUSH2 0x2CB0 PUSH1 0x6 DUP5 ADD SLOAD PUSH2 0x576C JUMP JUMPDEST PUSH1 0x1F DUP2 GT PUSH2 0x2E2C JUMPI JUMPDEST POP SWAP2 PUSH1 0x20 SWAP8 SWAP2 DUP8 SWAP4 DUP10 SWAP1 PUSH1 0x1F DUP8 GT PUSH1 0x1 EQ PUSH2 0x2DA4 JUMPI SWAP2 DUP7 PUSH1 0x0 DUP1 MLOAD PUSH1 0x20 PUSH2 0x64D4 DUP4 CODECOPY DUP2 MLOAD SWAP2 MSTORE SWAP7 SWAP8 PUSH2 0x120 SWAP4 PUSH1 0x9 SWAP6 PUSH1 0x0 SWAP3 PUSH2 0x2D99 JUMPI JUMPDEST POP POP DUP2 PUSH1 0x1 SHL SWAP2 PUSH1 0x0 NOT SWAP1 PUSH1 0x3 SHL SHR NOT AND OR PUSH1 0x6 DUP6 ADD SSTORE JUMPDEST PUSH1 0xE0 DUP2 ADD MLOAD PUSH1 0x7 DUP6 ADD SSTORE PUSH2 0x100 DUP2 ADD MLOAD PUSH1 0x8 DUP6 ADD SSTORE ADD MLOAD SWAP2 ADD SSTORE PUSH2 0x2D2B DUP4 PUSH2 0x57D7 JUMP JUMPDEST CALLER PUSH1 0x0 MSTORE PUSH1 0x3 DUP8 MSTORE PUSH2 0x2D41 DUP4 PUSH1 0x40 PUSH1 0x0 KECCAK256 PUSH2 0x580E JUMP JUMPDEST PUSH2 0x2D59 DUP4 PUSH1 0x40 MLOAD DUP10 DUP2 DUP6 MLOAD PUSH2 0x50E DUP2 DUP4 DUP6 DUP11 ADD PUSH2 0x5584 JUMP JUMPDEST DUP5 PUSH1 0x0 MSTORE PUSH1 0x5 DUP8 MSTORE PUSH2 0x2D6F DUP4 PUSH1 0x40 PUSH1 0x0 KECCAK256 PUSH2 0x580E JUMP JUMPDEST DUP4 PUSH1 0x0 MSTORE PUSH1 0x6 DUP8 MSTORE DUP3 PUSH1 0x40 PUSH1 0x0 KECCAK256 SSTORE PUSH2 0xAFA PUSH1 0x40 MLOAD SWAP2 PUSH1 0x3 DUP4 MSTORE PUSH1 0x60 DUP10 DUP5 ADD MSTORE PUSH1 0x60 DUP4 ADD SWAP1 PUSH2 0x55A7 JUMP JUMPDEST ADD MLOAD SWAP1 POP DUP14 DUP1 PUSH2 0x2CF0 JUMP JUMPDEST SWAP6 SWAP1 PUSH1 0x6 DUP5 ADD PUSH1 0x0 MSTORE DUP11 PUSH1 0x0 KECCAK256 SWAP7 PUSH1 0x0 JUMPDEST PUSH1 0x1F NOT DUP5 AND DUP2 LT PUSH2 0x2E12 JUMPI POP DUP3 PUSH1 0x0 DUP1 MLOAD PUSH1 0x20 PUSH2 0x64D4 DUP4 CODECOPY DUP2 MLOAD SWAP2 MSTORE SWAP8 SWAP9 PUSH1 0x9 SWAP6 SWAP4 PUSH1 0x1 SWAP4 PUSH2 0x120 SWAP7 PUSH1 0x1F NOT DUP2 AND LT PUSH2 0x2DF9 JUMPI JUMPDEST POP POP POP DUP2 SHL ADD PUSH1 0x6 DUP6 ADD SSTORE PUSH2 0x2D08 JUMP JUMPDEST ADD MLOAD PUSH1 0x0 NOT PUSH1 0xF8 DUP5 PUSH1 0x3 SHL AND SHR NOT AND SWAP1 SSTORE DUP14 DUP1 DUP1 PUSH2 0x2DE9 JUMP JUMPDEST DUP3 DUP3 ADD MLOAD DUP10 SSTORE PUSH1 0x1 SWAP1 SWAP9 ADD SWAP8 DUP12 SWAP8 POP SWAP2 DUP13 ADD SWAP2 DUP13 ADD PUSH2 0x2DB5 JUMP JUMPDEST PUSH1 0x6 DUP5 ADD PUSH1 0x0 MSTORE PUSH1 0x20 PUSH1 0x0 KECCAK256 PUSH1 0x1F DUP7 ADD PUSH1 0x5 SHR DUP2 ADD PUSH1 0x20 DUP8 LT PUSH2 0x2E6C JUMPI JUMPDEST PUSH1 0x1F DUP4 ADD PUSH1 0x5 SHR DUP3 ADD DUP2 LT PUSH2 0x2E60 JUMPI POP POP PUSH2 0x2CB9 JUMP JUMPDEST PUSH1 0x0 DUP2 SSTORE PUSH1 0x1 ADD PUSH2 0x2E4A JUMP JUMPDEST POP DUP1 PUSH2 0x2E4A JUMP JUMPDEST ADD MLOAD SWAP1 POP DUP9 DUP1 PUSH2 0x2C6A JUMP JUMPDEST SWAP3 POP PUSH1 0x4 DUP5 ADD PUSH1 0x0 MSTORE PUSH1 0x20 PUSH1 0x0 KECCAK256 SWAP1 PUSH1 0x0 SWAP4 JUMPDEST PUSH1 0x1F NOT DUP5 AND DUP6 LT PUSH2 0x2ED5 JUMPI PUSH1 0x1 SWAP5 POP DUP4 PUSH1 0x1F NOT DUP2 AND LT PUSH2 0x2EBC JUMPI JUMPDEST POP POP POP DUP2 SHL ADD PUSH1 0x4 DUP3 ADD SSTORE PUSH2 0x2C82 JUMP JUMPDEST ADD MLOAD PUSH1 0x0 NOT PUSH1 0xF8 DUP5 PUSH1 0x3 SHL AND SHR NOT AND SWAP1 SSTORE DUP9 DUP1 DUP1 PUSH2 0x2EAC JUMP JUMPDEST DUP2 DUP2 ADD MLOAD DUP4 SSTORE PUSH1 0x20 SWAP5 DUP6 ADD SWAP5 PUSH1 0x1 SWAP1 SWAP4 ADD SWAP3 SWAP1 SWAP2 ADD SWAP1 PUSH2 0x2E91 JUMP JUMPDEST SWAP1 SWAP2 POP PUSH1 0x4 DUP5 ADD PUSH1 0x0 MSTORE PUSH1 0x20 PUSH1 0x0 KECCAK256 PUSH1 0x1F DUP5 ADD PUSH1 0x5 SHR DUP2 ADD PUSH1 0x20 DUP6 LT PUSH2 0x2F3C JUMPI JUMPDEST SWAP1 DUP5 SWAP4 SWAP3 SWAP2 JUMPDEST PUSH1 0x1F DUP4 ADD PUSH1 0x5 SHR DUP3 ADD DUP2 LT PUSH2 0x2F2D JUMPI POP POP PUSH2 0x2C53 JUMP JUMPDEST PUSH1 0x0 DUP2 SSTORE DUP6 SWAP5 POP PUSH1 0x1 ADD PUSH2 0x2F17 JUMP JUMPDEST POP DUP1 PUSH2 0x2F11 JUMP JUMPDEST ADD MLOAD SWAP1 POP DUP9 DUP1 PUSH2 0x2BEF JUMP JUMPDEST SWAP3 POP PUSH1 0x2 DUP5 ADD PUSH1 0x0 MSTORE PUSH1 0x20 PUSH1 0x0 KECCAK256 SWAP1 PUSH1 0x0 SWAP4 JUMPDEST PUSH1 0x1F NOT DUP5 AND DUP6 LT PUSH2 0x2FA5 JUMPI PUSH1 0x1 SWAP5 POP DUP4 PUSH1 0x1F NOT DUP2 AND LT PUSH2 0x2F8C JUMPI JUMPDEST POP POP POP DUP2 SHL ADD PUSH1 0x2 DUP3 ADD SSTORE PUSH2 0x2C07 JUMP JUMPDEST ADD MLOAD PUSH1 0x0 NOT PUSH1 0xF8 DUP5 PUSH1 0x3 SHL AND SHR NOT AND SWAP1 SSTORE DUP9 DUP1 DUP1 PUSH2 0x2F7C JUMP JUMPDEST DUP2 DUP2 ADD MLOAD DUP4 SSTORE PUSH1 0x20 SWAP5 DUP6 ADD SWAP5 PUSH1 0x1 SWAP1 SWAP4 ADD SWAP3 SWAP1 SWAP2 ADD SWAP1 PUSH2 0x2F61 JUMP JUMPDEST SWAP1 SWAP2 POP PUSH1 0x2 DUP5 ADD PUSH1 0x0 MSTORE PUSH1 0x20 PUSH1 0x0 KECCAK256 PUSH1 0x1F DUP5 ADD PUSH1 0x5 SHR DUP2 ADD PUSH1 0x20 DUP6 LT PUSH2 0x300C JUMPI JUMPDEST SWAP1 DUP5 SWAP4 SWAP3 SWAP2 JUMPDEST PUSH1 0x1F DUP4 ADD PUSH1 0x5 SHR DUP3 ADD DUP2 LT PUSH2 0x2FFD JUMPI POP POP PUSH2 0x2BD8 JUMP JUMPDEST PUSH1 0x0 DUP2 SSTORE DUP6 SWAP5 POP PUSH1 0x1 ADD PUSH2 0x2FE7 JUMP JUMPDEST POP DUP1 PUSH2 0x2FE1 JUMP JUMPDEST POP CALLER PUSH1 0x0 SWAP1 DUP2 MSTORE PUSH1 0x7 PUSH1 0x20 MSTORE PUSH1 0x40 SWAP1 KECCAK256 SLOAD PUSH1 0xFF AND PUSH2 0x255B JUMP JUMPDEST PUSH2 0x3045 SWAP2 POP PUSH1 0x20 RETURNDATASIZE PUSH1 0x20 GT PUSH2 0xDC6 JUMPI PUSH2 0xDB8 DUP2 DUP4 PUSH2 0x542A JUMP JUMPDEST DUP5 PUSH2 0x2553 JUMP JUMPDEST CALLVALUE PUSH2 0x18D JUMPI PUSH1 0x0 CALLDATASIZE PUSH1 0x3 NOT ADD SLT PUSH2 0x18D JUMPI PUSH1 0x20 PUSH1 0x2 SLOAD PUSH1 0x40 MLOAD SWAP1 DUP2 MSTORE RETURN JUMPDEST CALLVALUE PUSH2 0x18D JUMPI PUSH2 0x3077 CALLDATASIZE PUSH2 0x54A3 JUMP JUMPDEST SWAP1 PUSH1 0x40 MLOAD PUSH4 0x95A8C58D PUSH1 0xE0 SHL DUP2 MSTORE PUSH1 0x20 DUP2 DUP1 PUSH2 0x3096 CALLER PUSH1 0x4 DUP4 ADD PUSH2 0x568A JUMP JUMPDEST SUB DUP2 PUSH32 0x0 PUSH1 0x1 PUSH1 0x1 PUSH1 0xA0 SHL SUB AND GAS STATICCALL SWAP1 DUP2 ISZERO PUSH2 0xDCD JUMPI PUSH1 0x0 SWAP2 PUSH2 0x3BAB JUMPI JUMPDEST POP DUP1 ISZERO PUSH2 0x3B92 JUMPI JUMPDEST PUSH2 0x30E4 SWAP1 PUSH2 0x56BE JUMP JUMPDEST PUSH1 0x8 SLOAD ISZERO PUSH2 0x3655 JUMPI CALLER PUSH1 0x0 MSTORE PUSH1 0x9 PUSH1 0x20 MSTORE PUSH1 0x40 PUSH1 0x0 KECCAK256 PUSH3 0x15180 TIMESTAMP DIV PUSH1 0x0 MSTORE PUSH1 0x20 MSTORE PUSH2 0x3118 PUSH1 0x40 PUSH1 0x0 KECCAK256 SLOAD PUSH1 0x8 SLOAD GT PUSH2 0x5705 JUMP JUMPDEST PUSH2 0x3120 PUSH2 0x5DAC JUMP JUMPDEST SWAP2 PUSH2 0x312C PUSH1 0x0 SLOAD PUSH2 0x5751 JUMP JUMPDEST SWAP3 DUP4 PUSH1 0x0 SSTORE PUSH1 0x40 MLOAD PUSH1 0x20 DUP2 ADD SWAP1 DUP6 DUP3 MSTORE PUSH1 0x1 DUP1 PUSH1 0x60 SHL SUB NOT CALLER PUSH1 0x60 SHL AND PUSH1 0x40 DUP3 ADD MSTORE PUSH1 0x1 PUSH1 0xF8 SHL PUSH1 0x54 DUP3 ADD MSTORE PUSH2 0x3172 PUSH1 0x95 DUP3 DUP10 MLOAD PUSH2 0x2C9 DUP2 DUP13 PUSH1 0x20 PUSH1 0x55 DUP7 ADD SWAP2 ADD PUSH2 0x5584 JUMP JUMPDEST MLOAD SWAP1 KECCAK256 SWAP2 PUSH1 0x40 MLOAD SWAP2 PUSH2 0x3183 DUP4 PUSH2 0x540E JUMP JUMPDEST DUP6 DUP4 MSTORE CALLER PUSH1 0x20 DUP5 ADD MSTORE PUSH1 0x40 DUP4 ADD MSTORE PUSH1 0x1 PUSH1 0x60 DUP4 ADD MSTORE DUP6 PUSH1 0x80 DUP4 ADD MSTORE DUP4 PUSH1 0xA0 DUP4 ADD MSTORE PUSH1 0xC0 DUP3 ADD MSTORE DUP2 PUSH1 0xE0 DUP3 ADD MSTORE TIMESTAMP PUSH2 0x100 DUP3 ADD MSTORE NUMBER PUSH2 0x120 DUP3 ADD MSTORE DUP4 PUSH1 0x0 MSTORE PUSH1 0x1 PUSH1 0x20 MSTORE PUSH1 0x40 PUSH1 0x0 KECCAK256 DUP2 MLOAD DUP2 SSTORE PUSH1 0x1 DUP2 ADD PUSH1 0x1 DUP1 PUSH1 0xA0 SHL SUB PUSH1 0x20 DUP5 ADD MLOAD AND PUSH1 0x1 DUP1 PUSH1 0xA0 SHL SUB NOT DUP3 SLOAD AND OR SWAP1 SSTORE PUSH1 0x40 DUP3 ADD MLOAD DUP1 MLOAD SWAP1 PUSH1 0x1 DUP1 PUSH1 0x40 SHL SUB DUP3 GT PUSH2 0x675 JUMPI DUP2 SWAP1 PUSH2 0x3212 PUSH1 0x2 DUP6 ADD SLOAD PUSH2 0x576C JUMP JUMPDEST PUSH1 0x1F DUP2 GT PUSH2 0x3602 JUMPI JUMPDEST POP PUSH1 0x20 SWAP1 PUSH1 0x1F DUP4 GT PUSH1 0x1 EQ PUSH2 0x3590 JUMPI PUSH1 0x0 SWAP3 PUSH2 0x3585 JUMPI JUMPDEST POP POP DUP2 PUSH1 0x1 SHL SWAP2 PUSH1 0x0 NOT SWAP1 PUSH1 0x3 SHL SHR NOT AND OR PUSH1 0x2 DUP3 ADD SSTORE JUMPDEST PUSH1 0x3 DUP2 ADD PUSH1 0x60 DUP4 ADD MLOAD PUSH1 0x6 DUP2 LT ISZERO PUSH2 0x756 JUMPI PUSH1 0xFF DUP1 NOT DUP4 SLOAD AND SWAP2 AND OR SWAP1 SSTORE PUSH1 0x80 DUP3 ADD MLOAD DUP1 MLOAD SWAP1 PUSH1 0x1 DUP1 PUSH1 0x40 SHL SUB DUP3 GT PUSH2 0x675 JUMPI DUP2 SWAP1 PUSH2 0x328C PUSH1 0x4 DUP6 ADD SLOAD PUSH2 0x576C JUMP JUMPDEST PUSH1 0x1F DUP2 GT PUSH2 0x3532 JUMPI JUMPDEST POP PUSH1 0x20 SWAP1 PUSH1 0x1F DUP4 GT PUSH1 0x1 EQ PUSH2 0x34C0 JUMPI PUSH1 0x0 SWAP3 PUSH2 0x34B5 JUMPI JUMPDEST POP POP DUP2 PUSH1 0x1 SHL SWAP2 PUSH1 0x0 NOT SWAP1 PUSH1 0x3 SHL SHR NOT AND OR PUSH1 0x4 DUP3 ADD SSTORE JUMPDEST PUSH1 0xA0 DUP3 ADD MLOAD PUSH1 0x5 DUP3 ADD SSTORE PUSH1 0xC0 DUP3 ADD MLOAD DUP1 MLOAD SWAP3 SWAP1 PUSH1 0x1 PUSH1 0x1 PUSH1 0x40 SHL SUB DUP5 GT PUSH2 0x675 JUMPI PUSH2 0x32F2 PUSH1 0x6 DUP5 ADD SLOAD PUSH2 0x576C JUMP JUMPDEST PUSH1 0x1F DUP2 GT PUSH2 0x346E JUMPI JUMPDEST POP SWAP2 PUSH1 0x20 SWAP8 SWAP2 DUP8 SWAP4 DUP10 SWAP1 PUSH1 0x1F DUP8 GT PUSH1 0x1 EQ PUSH2 0x33E6 JUMPI SWAP2 DUP7 PUSH1 0x0 DUP1 MLOAD PUSH1 0x20 PUSH2 0x64D4 DUP4 CODECOPY DUP2 MLOAD SWAP2 MSTORE SWAP7 SWAP8 PUSH2 0x120 SWAP4 PUSH1 0x9 SWAP6 PUSH1 0x0 SWAP3 PUSH2 0x33DB JUMPI JUMPDEST POP POP DUP2 PUSH1 0x1 SHL SWAP2 PUSH1 0x0 NOT SWAP1 PUSH1 0x3 SHL SHR NOT AND OR PUSH1 0x6 DUP6 ADD SSTORE JUMPDEST PUSH1 0xE0 DUP2 ADD MLOAD PUSH1 0x7 DUP6 ADD SSTORE PUSH2 0x100 DUP2 ADD MLOAD PUSH1 0x8 DUP6 ADD SSTORE ADD MLOAD SWAP2 ADD SSTORE PUSH2 0x336D DUP4 PUSH2 0x57D7 JUMP JUMPDEST CALLER PUSH1 0x0 MSTORE PUSH1 0x3 DUP8 MSTORE PUSH2 0x3383 DUP4 PUSH1 0x40 PUSH1 0x0 KECCAK256 PUSH2 0x580E JUMP JUMPDEST PUSH2 0x339B DUP4 PUSH1 0x40 MLOAD DUP10 DUP2 DUP6 MLOAD PUSH2 0x50E DUP2 DUP4 DUP6 DUP11 ADD PUSH2 0x5584 JUMP JUMPDEST DUP5 PUSH1 0x0 MSTORE PUSH1 0x5 DUP8 MSTORE PUSH2 0x33B1 DUP4 PUSH1 0x40 PUSH1 0x0 KECCAK256 PUSH2 0x580E JUMP JUMPDEST DUP4 PUSH1 0x0 MSTORE PUSH1 0x6 DUP8 MSTORE DUP3 PUSH1 0x40 PUSH1 0x0 KECCAK256 SSTORE PUSH2 0x55D PUSH1 0x40 MLOAD SWAP2 PUSH1 0x1 DUP4 MSTORE PUSH1 0x60 DUP10 DUP5 ADD MSTORE PUSH1 0x60 DUP4 ADD SWAP1 PUSH2 0x55A7 JUMP JUMPDEST ADD MLOAD SWAP1 POP DUP14 DUP1 PUSH2 0x3332 JUMP JUMPDEST SWAP6 SWAP1 PUSH1 0x6 DUP5 ADD PUSH1 0x0 MSTORE DUP11 PUSH1 0x0 KECCAK256 SWAP7 PUSH1 0x0 JUMPDEST PUSH1 0x1F NOT DUP5 AND DUP2 LT PUSH2 0x3454 JUMPI POP DUP3 PUSH1 0x0 DUP1 MLOAD PUSH1 0x20 PUSH2 0x64D4 DUP4 CODECOPY DUP2 MLOAD SWAP2 MSTORE SWAP8 SWAP9 PUSH1 0x9 SWAP6 SWAP4 PUSH1 0x1 SWAP4 PUSH2 0x120 SWAP7 PUSH1 0x1F NOT DUP2 AND LT PUSH2 0x343B JUMPI JUMPDEST POP POP POP DUP2 SHL ADD PUSH1 0x6 DUP6 ADD SSTORE PUSH2 0x334A JUMP JUMPDEST ADD MLOAD PUSH1 0x0 NOT PUSH1 0xF8 DUP5 PUSH1 0x3 SHL AND SHR NOT AND SWAP1 SSTORE DUP14 DUP1 DUP1 PUSH2 0x342B JUMP JUMPDEST DUP3 DUP3 ADD MLOAD DUP10 SSTORE PUSH1 0x1 SWAP1 SWAP9 ADD SWAP8 DUP12 SWAP8 POP SWAP2 DUP13 ADD SWAP2 DUP13 ADD PUSH2 0x33F7 JUMP JUMPDEST PUSH1 0x6 DUP5 ADD PUSH1 0x0 MSTORE PUSH1 0x20 PUSH1 0x0 KECCAK256 PUSH1 0x1F DUP7 ADD PUSH1 0x5 SHR DUP2 ADD PUSH1 0x20 DUP8 LT PUSH2 0x34AE JUMPI JUMPDEST PUSH1 0x1F DUP4 ADD PUSH1 0x5 SHR DUP3 ADD DUP2 LT PUSH2 0x34A2 JUMPI POP POP PUSH2 0x32FB JUMP JUMPDEST PUSH1 0x0 DUP2 SSTORE PUSH1 0x1 ADD PUSH2 0x348C JUMP JUMPDEST POP DUP1 PUSH2 0x348C JUMP JUMPDEST ADD MLOAD SWAP1 POP DUP9 DUP1 PUSH2 0x32AC JUMP JUMPDEST SWAP3 POP PUSH1 0x4 DUP5 ADD PUSH1 0x0 MSTORE PUSH1 0x20 PUSH1 0x0 KECCAK256 SWAP1 PUSH1 0x0 SWAP4 JUMPDEST PUSH1 0x1F NOT DUP5 AND DUP6 LT PUSH2 0x3517 JUMPI PUSH1 0x1 SWAP5 POP DUP4 PUSH1 0x1F NOT DUP2 AND LT PUSH2 0x34FE JUMPI JUMPDEST POP POP POP DUP2 SHL ADD PUSH1 0x4 DUP3 ADD SSTORE PUSH2 0x32C4 JUMP JUMPDEST ADD MLOAD PUSH1 0x0 NOT PUSH1 0xF8 DUP5 PUSH1 0x3 SHL AND SHR NOT AND SWAP1 SSTORE DUP9 DUP1 DUP1 PUSH2 0x34EE JUMP JUMPDEST DUP2 DUP2 ADD MLOAD DUP4 SSTORE PUSH1 0x20 SWAP5 DUP6 ADD SWAP5 PUSH1 0x1 SWAP1 SWAP4 ADD SWAP3 SWAP1 SWAP2 ADD SWAP1 PUSH2 0x34D3 JUMP JUMPDEST SWAP1 SWAP2 POP PUSH1 0x4 DUP5 ADD PUSH1 0x0 MSTORE PUSH1 0x20 PUSH1 0x0 KECCAK256 PUSH1 0x1F DUP5 ADD PUSH1 0x5 SHR DUP2 ADD PUSH1 0x20 DUP6 LT PUSH2 0x357E JUMPI JUMPDEST SWAP1 DUP5 SWAP4 SWAP3 SWAP2 JUMPDEST PUSH1 0x1F DUP4 ADD PUSH1 0x5 SHR DUP3 ADD DUP2 LT PUSH2 0x356F JUMPI POP POP PUSH2 0x3295 JUMP JUMPDEST PUSH1 0x0 DUP2 SSTORE DUP6 SWAP5 POP PUSH1 0x1 ADD PUSH2 0x3559 JUMP JUMPDEST POP DUP1 PUSH2 0x3553 JUMP JUMPDEST ADD MLOAD SWAP1 POP DUP9 DUP1 PUSH2 0x3232 JUMP JUMPDEST SWAP3 POP PUSH1 0x2 DUP5 ADD PUSH1 0x0 MSTORE PUSH1 0x20 PUSH1 0x0 KECCAK256 SWAP1 PUSH1 0x0 SWAP4 JUMPDEST PUSH1 0x1F NOT DUP5 AND DUP6 LT PUSH2 0x35E7 JUMPI PUSH1 0x1 SWAP5 POP DUP4 PUSH1 0x1F NOT DUP2 AND LT PUSH2 0x35CE JUMPI JUMPDEST POP POP POP DUP2 SHL ADD PUSH1 0x2 DUP3 ADD SSTORE PUSH2 0x324A JUMP JUMPDEST ADD MLOAD PUSH1 0x0 NOT PUSH1 0xF8 DUP5 PUSH1 0x3 SHL AND SHR NOT AND SWAP1 SSTORE DUP9 DUP1 DUP1 PUSH2 0x35BE JUMP JUMPDEST DUP2 DUP2 ADD MLOAD DUP4 SSTORE PUSH1 0x20 SWAP5 DUP6 ADD SWAP5 PUSH1 0x1 SWAP1 SWAP4 ADD SWAP3 SWAP1 SWAP2 ADD SWAP1 PUSH2 0x35A3 JUMP JUMPDEST SWAP1 SWAP2 POP PUSH1 0x2 DUP5 ADD PUSH1 0x0 MSTORE PUSH1 0x20 PUSH1 0x0 KECCAK256 PUSH1 0x1F DUP5 ADD PUSH1 0x5 SHR DUP2 ADD PUSH1 0x20 DUP6 LT PUSH2 0x364E JUMPI JUMPDEST SWAP1 DUP5 SWAP4 SWAP3 SWAP2 JUMPDEST PUSH1 0x1F DUP4 ADD PUSH1 0x5 SHR DUP3 ADD DUP2 LT PUSH2 0x363F JUMPI POP POP PUSH2 0x321B JUMP JUMPDEST PUSH1 0x0 DUP2 SSTORE DUP6 SWAP5 POP PUSH1 0x1 ADD PUSH2 0x3629 JUMP JUMPDEST POP DUP1 PUSH2 0x3623 JUMP JUMPDEST PUSH2 0x365D PUSH2 0x5DAC JUMP JUMPDEST SWAP2 PUSH2 0x3669 PUSH1 0x0 SLOAD PUSH2 0x5751 JUMP JUMPDEST SWAP3 DUP4 PUSH1 0x0 SSTORE PUSH1 0x40 MLOAD PUSH1 0x20 DUP2 ADD SWAP1 DUP6 DUP3 MSTORE PUSH1 0x1 DUP1 PUSH1 0x60 SHL SUB NOT CALLER PUSH1 0x60 SHL AND PUSH1 0x40 DUP3 ADD MSTORE PUSH1 0x1 PUSH1 0xF8 SHL PUSH1 0x54 DUP3 ADD MSTORE PUSH2 0x36AF PUSH1 0x95 DUP3 DUP10 MLOAD PUSH2 0x2C9 DUP2 DUP13 PUSH1 0x20 PUSH1 0x55 DUP7 ADD SWAP2 ADD PUSH2 0x5584 JUMP JUMPDEST MLOAD SWAP1 KECCAK256 SWAP2 PUSH1 0x40 MLOAD SWAP2 PUSH2 0x36C0 DUP4 PUSH2 0x540E JUMP JUMPDEST DUP6 DUP4 MSTORE CALLER PUSH1 0x20 DUP5 ADD MSTORE PUSH1 0x40 DUP4 ADD MSTORE PUSH1 0x1 PUSH1 0x60 DUP4 ADD MSTORE DUP6 PUSH1 0x80 DUP4 ADD MSTORE DUP4 PUSH1 0xA0 DUP4 ADD MSTORE PUSH1 0xC0 DUP3 ADD MSTORE DUP2 PUSH1 0xE0 DUP3 ADD MSTORE TIMESTAMP PUSH2 0x100 DUP3 ADD MSTORE NUMBER PUSH2 0x120 DUP3 ADD MSTORE DUP4 PUSH1 0x0 MSTORE PUSH1 0x1 PUSH1 0x20 MSTORE PUSH1 0x40 PUSH1 0x0 KECCAK256 DUP2 MLOAD DUP2 SSTORE PUSH1 0x1 DUP2 ADD PUSH1 0x1 DUP1 PUSH1 0xA0 SHL SUB PUSH1 0x20 DUP5 ADD MLOAD AND PUSH1 0x1 DUP1 PUSH1 0xA0 SHL SUB NOT DUP3 SLOAD AND OR SWAP1 SSTORE PUSH1 0x40 DUP3 ADD MLOAD DUP1 MLOAD SWAP1 PUSH1 0x1 DUP1 PUSH1 0x40 SHL SUB DUP3 GT PUSH2 0x675 JUMPI DUP2 SWAP1 PUSH2 0x374F PUSH1 0x2 DUP6 ADD SLOAD PUSH2 0x576C JUMP JUMPDEST PUSH1 0x1F DUP2 GT PUSH2 0x3B3F JUMPI JUMPDEST POP PUSH1 0x20 SWAP1 PUSH1 0x1F DUP4 GT PUSH1 0x1 EQ PUSH2 0x3ACD JUMPI PUSH1 0x0 SWAP3 PUSH2 0x3AC2 JUMPI JUMPDEST POP POP DUP2 PUSH1 0x1 SHL SWAP2 PUSH1 0x0 NOT SWAP1 PUSH1 0x3 SHL SHR NOT AND OR PUSH1 0x2 DUP3 ADD SSTORE JUMPDEST PUSH1 0x3 DUP2 ADD PUSH1 0x60 DUP4 ADD MLOAD PUSH1 0x6 DUP2 LT ISZERO PUSH2 0x756 JUMPI PUSH1 0xFF DUP1 NOT DUP4 SLOAD AND SWAP2 AND OR SWAP1 SSTORE PUSH1 0x80 DUP3 ADD MLOAD DUP1 MLOAD SWAP1 PUSH1 0x1 DUP1 PUSH1 0x40 SHL SUB DUP3 GT PUSH2 0x675 JUMPI DUP2 SWAP1 PUSH2 0x37C9 PUSH1 0x4 DUP6 ADD SLOAD PUSH2 0x576C JUMP JUMPDEST PUSH1 0x1F DUP2 GT PUSH2 0x3A6F JUMPI JUMPDEST POP PUSH1 0x20 SWAP1 PUSH1 0x1F DUP4 GT PUSH1 0x1 EQ PUSH2 0x39FD JUMPI PUSH1 0x0 SWAP3 PUSH2 0x39F2 JUMPI JUMPDEST POP POP DUP2 PUSH1 0x1 SHL SWAP2 PUSH1 0x0 NOT SWAP1 PUSH1 0x3 SHL SHR NOT AND OR PUSH1 0x4 DUP3 ADD SSTORE JUMPDEST PUSH1 0xA0 DUP3 ADD MLOAD PUSH1 0x5 DUP3 ADD SSTORE PUSH1 0xC0 DUP3 ADD MLOAD DUP1 MLOAD SWAP3 SWAP1 PUSH1 0x1 PUSH1 0x1 PUSH1 0x40 SHL SUB DUP5 GT PUSH2 0x675 JUMPI PUSH2 0x382F PUSH1 0x6 DUP5 ADD SLOAD PUSH2 0x576C JUMP JUMPDEST PUSH1 0x1F DUP2 GT PUSH2 0x39AB JUMPI JUMPDEST POP SWAP2 PUSH1 0x20 SWAP8 SWAP2 DUP8 SWAP4 DUP10 SWAP1 PUSH1 0x1F DUP8 GT PUSH1 0x1 EQ PUSH2 0x3923 JUMPI SWAP2 DUP7 PUSH1 0x0 DUP1 MLOAD PUSH1 0x20 PUSH2 0x64D4 DUP4 CODECOPY DUP2 MLOAD SWAP2 MSTORE SWAP7 SWAP8 PUSH2 0x120 SWAP4 PUSH1 0x9 SWAP6 PUSH1 0x0 SWAP3 PUSH2 0x3918 JUMPI JUMPDEST POP POP DUP2 PUSH1 0x1 SHL SWAP2 PUSH1 0x0 NOT SWAP1 PUSH1 0x3 SHL SHR NOT AND OR PUSH1 0x6 DUP6 ADD SSTORE JUMPDEST PUSH1 0xE0 DUP2 ADD MLOAD PUSH1 0x7 DUP6 ADD SSTORE PUSH2 0x100 DUP2 ADD MLOAD PUSH1 0x8 DUP6 ADD SSTORE ADD MLOAD SWAP2 ADD SSTORE PUSH2 0x38AA DUP4 PUSH2 0x57D7 JUMP JUMPDEST CALLER PUSH1 0x0 MSTORE PUSH1 0x3 DUP8 MSTORE PUSH2 0x38C0 DUP4 PUSH1 0x40 PUSH1 0x0 KECCAK256 PUSH2 0x580E JUMP JUMPDEST PUSH2 0x38D8 DUP4 PUSH1 0x40 MLOAD DUP10 DUP2 DUP6 MLOAD PUSH2 0x50E DUP2 DUP4 DUP6 DUP11 ADD PUSH2 0x5584 JUMP JUMPDEST DUP5 PUSH1 0x0 MSTORE PUSH1 0x5 DUP8 MSTORE PUSH2 0x38EE DUP4 PUSH1 0x40 PUSH1 0x0 KECCAK256 PUSH2 0x580E JUMP JUMPDEST DUP4 PUSH1 0x0 MSTORE PUSH1 0x6 DUP8 MSTORE DUP3 PUSH1 0x40 PUSH1 0x0 KECCAK256 SSTORE PUSH2 0xAFA PUSH1 0x40 MLOAD SWAP2 PUSH1 0x1 DUP4 MSTORE PUSH1 0x60 DUP10 DUP5 ADD MSTORE PUSH1 0x60 DUP4 ADD SWAP1 PUSH2 0x55A7 JUMP JUMPDEST ADD MLOAD SWAP1 POP DUP14 DUP1 PUSH2 0x386F JUMP JUMPDEST SWAP6 SWAP1 PUSH1 0x6 DUP5 ADD PUSH1 0x0 MSTORE DUP11 PUSH1 0x0 KECCAK256 SWAP7 PUSH1 0x0 JUMPDEST PUSH1 0x1F NOT DUP5 AND DUP2 LT PUSH2 0x3991 JUMPI POP DUP3 PUSH1 0x0 DUP1 MLOAD PUSH1 0x20 PUSH2 0x64D4 DUP4 CODECOPY DUP2 MLOAD SWAP2 MSTORE SWAP8 SWAP9 PUSH1 0x9 SWAP6 SWAP4 PUSH1 0x1 SWAP4 PUSH2 0x120 SWAP7 PUSH1 0x1F NOT DUP2 AND LT PUSH2 0x3978 JUMPI JUMPDEST POP POP POP DUP2 SHL ADD PUSH1 0x6 DUP6 ADD SSTORE PUSH2 0x3887 JUMP JUMPDEST ADD MLOAD PUSH1 0x0 NOT PUSH1 0xF8 DUP5 PUSH1 0x3 SHL AND SHR NOT AND SWAP1 SSTORE DUP14 DUP1 DUP1 PUSH2 0x3968 JUMP JUMPDEST DUP3 DUP3 ADD MLOAD DUP10 SSTORE PUSH1 0x1 SWAP1 SWAP9 ADD SWAP8 DUP12 SWAP8 POP SWAP2 DUP13 ADD SWAP2 DUP13 ADD PUSH2 0x3934 JUMP JUMPDEST PUSH1 0x6 DUP5 ADD PUSH1 0x0 MSTORE PUSH1 0x20 PUSH1 0x0 KECCAK256 PUSH1 0x1F DUP7 ADD PUSH1 0x5 SHR DUP2 ADD PUSH1 0x20 DUP8 LT PUSH2 0x39EB JUMPI JUMPDEST PUSH1 0x1F DUP4 ADD PUSH1 0x5 SHR DUP3 ADD DUP2 LT PUSH2 0x39DF JUMPI POP POP PUSH2 0x3838 JUMP JUMPDEST PUSH1 0x0 DUP2 SSTORE PUSH1 0x1 ADD PUSH2 0x39C9 JUMP JUMPDEST POP DUP1 PUSH2 0x39C9 JUMP JUMPDEST ADD MLOAD SWAP1 POP DUP9 DUP1 PUSH2 0x37E9 JUMP JUMPDEST SWAP3 POP PUSH1 0x4 DUP5 ADD PUSH1 0x0 MSTORE PUSH1 0x20 PUSH1 0x0 KECCAK256 SWAP1 PUSH1 0x0 SWAP4 JUMPDEST PUSH1 0x1F NOT DUP5 AND DUP6 LT PUSH2 0x3A54 JUMPI PUSH1 0x1 SWAP5 POP DUP4 PUSH1 0x1F NOT DUP2 AND LT PUSH2 0x3A3B JUMPI JUMPDEST POP POP POP DUP2 SHL ADD PUSH1 0x4 DUP3 ADD SSTORE PUSH2 0x3801 JUMP JUMPDEST ADD MLOAD PUSH1 0x0 NOT PUSH1 0xF8 DUP5 PUSH1 0x3 SHL AND SHR NOT AND SWAP1 SSTORE DUP9 DUP1 DUP1 PUSH2 0x3A2B JUMP JUMPDEST DUP2 DUP2 ADD MLOAD DUP4 SSTORE PUSH1 0x20 SWAP5 DUP6 ADD SWAP5 PUSH1 0x1 SWAP1 SWAP4 ADD SWAP3 SWAP1 SWAP2 ADD SWAP1 PUSH2 0x3A10 JUMP JUMPDEST SWAP1 SWAP2 POP PUSH1 0x4 DUP5 ADD PUSH1 0x0 MSTORE PUSH1 0x20 PUSH1 0x0 KECCAK256 PUSH1 0x1F DUP5 ADD PUSH1 0x5 SHR DUP2 ADD PUSH1 0x20 DUP6 LT PUSH2 0x3ABB JUMPI JUMPDEST SWAP1 DUP5 SWAP4 SWAP3 SWAP2 JUMPDEST PUSH1 0x1F DUP4 ADD PUSH1 0x5 SHR DUP3 ADD DUP2 LT PUSH2 0x3AAC JUMPI POP POP PUSH2 0x37D2 JUMP JUMPDEST PUSH1 0x0 DUP2 SSTORE DUP6 SWAP5 POP PUSH1 0x1 ADD PUSH2 0x3A96 JUMP JUMPDEST POP DUP1 PUSH2 0x3A90 JUMP JUMPDEST ADD MLOAD SWAP1 POP DUP9 DUP1 PUSH2 0x376F JUMP JUMPDEST SWAP3 POP PUSH1 0x2 DUP5 ADD PUSH1 0x0 MSTORE PUSH1 0x20 PUSH1 0x0 KECCAK256 SWAP1 PUSH1 0x0 SWAP4 JUMPDEST PUSH1 0x1F NOT DUP5 AND DUP6 LT PUSH2 0x3B24 JUMPI PUSH1 0x1 SWAP5 POP DUP4 PUSH1 0x1F NOT DUP2 AND LT PUSH2 0x3B0B JUMPI JUMPDEST POP POP POP DUP2 SHL ADD PUSH1 0x2 DUP3 ADD SSTORE PUSH2 0x3787 JUMP JUMPDEST ADD MLOAD PUSH1 0x0 NOT PUSH1 0xF8 DUP5 PUSH1 0x3 SHL AND SHR NOT AND SWAP1 SSTORE DUP9 DUP1 DUP1 PUSH2 0x3AFB JUMP JUMPDEST DUP2 DUP2 ADD MLOAD DUP4 SSTORE PUSH1 0x20 SWAP5 DUP6 ADD SWAP5 PUSH1 0x1 SWAP1 SWAP4 ADD SWAP3 SWAP1 SWAP2 ADD SWAP1 PUSH2 0x3AE0 JUMP JUMPDEST SWAP1 SWAP2 POP PUSH1 0x2 DUP5 ADD PUSH1 0x0 MSTORE PUSH1 0x20 PUSH1 0x0 KECCAK256 PUSH1 0x1F DUP5 ADD PUSH1 0x5 SHR DUP2 ADD PUSH1 0x20 DUP6 LT PUSH2 0x3B8B JUMPI JUMPDEST SWAP1 DUP5 SWAP4 SWAP3 SWAP2 JUMPDEST PUSH1 0x1F DUP4 ADD PUSH1 0x5 SHR DUP3 ADD DUP2 LT PUSH2 0x3B7C JUMPI POP POP PUSH2 0x3758 JUMP JUMPDEST PUSH1 0x0 DUP2 SSTORE DUP6 SWAP5 POP PUSH1 0x1 ADD PUSH2 0x3B66 JUMP JUMPDEST POP DUP1 PUSH2 0x3B60 JUMP JUMPDEST POP CALLER PUSH1 0x0 SWAP1 DUP2 MSTORE PUSH1 0x7 PUSH1 0x20 MSTORE PUSH1 0x40 SWAP1 KECCAK256 SLOAD PUSH1 0xFF AND PUSH2 0x30DB JUMP JUMPDEST PUSH2 0x3BC4 SWAP2 POP PUSH1 0x20 RETURNDATASIZE PUSH1 0x20 GT PUSH2 0xDC6 JUMPI PUSH2 0xDB8 DUP2 DUP4 PUSH2 0x542A JUMP JUMPDEST DUP5 PUSH2 0x30D3 JUMP JUMPDEST CALLVALUE PUSH2 0x18D JUMPI PUSH1 0x40 CALLDATASIZE PUSH1 0x3 NOT ADD SLT PUSH2 0x18D JUMPI PUSH1 0x4 CALLDATALOAD DUP1 PUSH1 0x0 MSTORE PUSH1 0x1 PUSH1 0x20 MSTORE PUSH2 0x3BF7 PUSH1 0x40 PUSH1 0x0 KECCAK256 SLOAD ISZERO ISZERO PUSH2 0x6455 JUMP JUMPDEST PUSH1 0x0 MSTORE PUSH1 0x1 PUSH1 0x20 MSTORE PUSH1 0x20 PUSH1 0x24 CALLDATALOAD PUSH1 0x7 PUSH1 0x40 PUSH1 0x0 KECCAK256 ADD SLOAD EQ PUSH1 0x40 MLOAD SWAP1 DUP2 MSTORE RETURN JUMPDEST CALLVALUE PUSH2 0x18D JUMPI PUSH1 0xC0 CALLDATASIZE PUSH1 0x3 NOT ADD SLT PUSH2 0x18D JUMPI PUSH1 0x4 CALLDATALOAD PUSH1 0x1 PUSH1 0x1 PUSH1 0x40 SHL SUB DUP2 GT PUSH2 0x18D JUMPI CALLDATASIZE PUSH1 0x23 DUP3 ADD SLT ISZERO PUSH2 0x18D JUMPI DUP1 PUSH1 0x4 ADD CALLDATALOAD PUSH2 0x3C51 DUP2 PUSH2 0x54ED JUMP JUMPDEST SWAP2 PUSH2 0x3C5F PUSH1 0x40 MLOAD SWAP4 DUP5 PUSH2 0x542A JUMP JUMPDEST DUP2 DUP4 MSTORE PUSH1 0x24 PUSH1 0x20 DUP5 ADD SWAP3 PUSH1 0x5 SHL DUP3 ADD ADD SWAP1 CALLDATASIZE DUP3 GT PUSH2 0x18D JUMPI PUSH1 0x24 ADD SWAP2 JUMPDEST DUP2 DUP4 LT PUSH2 0x44D8 JUMPI DUP4 PUSH1 0x24 CALLDATALOAD PUSH1 0x1 PUSH1 0x1 PUSH1 0x40 SHL SUB DUP2 GT PUSH2 0x18D JUMPI PUSH2 0x3CA3 SWAP1 CALLDATASIZE SWAP1 PUSH1 0x4 ADD PUSH2 0x5504 JUMP JUMPDEST PUSH1 0x44 CALLDATALOAD SWAP2 SWAP1 PUSH1 0x1 PUSH1 0x1 PUSH1 0x40 SHL SUB DUP4 GT PUSH2 0x18D JUMPI CALLDATASIZE PUSH1 0x23 DUP5 ADD SLT ISZERO PUSH2 0x18D JUMPI DUP3 PUSH1 0x4 ADD CALLDATALOAD PUSH2 0x3CCF DUP2 PUSH2 0x54ED JUMP JUMPDEST SWAP4 PUSH2 0x3CDD PUSH1 0x40 MLOAD SWAP6 DUP7 PUSH2 0x542A JUMP JUMPDEST DUP2 DUP6 MSTORE PUSH1 0x24 PUSH1 0x20 DUP7 ADD SWAP3 PUSH1 0x5 SHL DUP3 ADD ADD SWAP1 CALLDATASIZE DUP3 GT PUSH2 0x18D JUMPI PUSH1 0x24 ADD SWAP2 JUMPDEST DUP2 DUP4 LT PUSH2 0x44BF JUMPI POP POP PUSH1 0x64 CALLDATALOAD SWAP1 POP PUSH1 0x1 PUSH1 0x1 PUSH1 0x40 SHL SUB DUP2 GT PUSH2 0x18D JUMPI PUSH2 0x3D24 SWAP1 CALLDATASIZE SWAP1 PUSH1 0x4 ADD PUSH2 0x5504 JUMP JUMPDEST PUSH1 0x1 PUSH1 0x1 PUSH1 0x40 SHL SUB PUSH1 0x84 CALLDATALOAD GT PUSH2 0x18D JUMPI CALLDATASIZE PUSH1 0x23 PUSH1 0x84 CALLDATALOAD ADD SLT ISZERO PUSH2 0x18D JUMPI PUSH1 0x84 CALLDATALOAD PUSH1 0x4 ADD CALLDATALOAD SWAP4 PUSH2 0x3D52 DUP6 PUSH2 0x54ED JUMP JUMPDEST SWAP5 PUSH2 0x3D60 PUSH1 0x40 MLOAD SWAP7 DUP8 PUSH2 0x542A JUMP JUMPDEST DUP1 DUP7 MSTORE PUSH1 0x20 DUP7 ADD CALLDATASIZE PUSH1 0x24 DUP4 PUSH1 0x5 SHL PUSH1 0x84 CALLDATALOAD ADD ADD GT PUSH2 0x18D JUMPI PUSH1 0x24 PUSH1 0x84 CALLDATALOAD ADD SWAP1 JUMPDEST PUSH1 0x24 DUP4 PUSH1 0x5 SHL PUSH1 0x84 CALLDATALOAD ADD ADD DUP3 LT PUSH2 0x44AF JUMPI POP POP PUSH1 0xA4 CALLDATALOAD SWAP1 POP PUSH1 0x1 PUSH1 0x1 PUSH1 0x40 SHL SUB DUP2 GT PUSH2 0x18D JUMPI PUSH2 0x3DB4 SWAP1 CALLDATASIZE SWAP1 PUSH1 0x4 ADD PUSH2 0x5504 JUMP JUMPDEST SWAP3 PUSH1 0x40 MLOAD PUSH4 0x95A8C58D PUSH1 0xE0 SHL DUP2 MSTORE PUSH1 0x20 DUP2 DUP1 PUSH2 0x3DD3 CALLER PUSH1 0x4 DUP4 ADD PUSH2 0x56A4 JUMP JUMPDEST SUB DUP2 PUSH32 0x0 PUSH1 0x1 PUSH1 0x1 PUSH1 0xA0 SHL SUB AND GAS STATICCALL DUP1 ISZERO PUSH2 0xDCD JUMPI PUSH2 0x3E18 SWAP2 PUSH1 0x0 SWAP2 PUSH2 0x4490 JUMPI POP PUSH2 0x6300 JUMP JUMPDEST DUP5 MLOAD DUP2 MLOAD DUP2 EQ SWAP1 DUP2 PUSH2 0x4485 JUMPI JUMPDEST DUP2 PUSH2 0x447A JUMPI JUMPDEST DUP2 PUSH2 0x446F JUMPI JUMPDEST DUP2 PUSH2 0x4464 JUMPI JUMPDEST POP ISZERO PUSH2 0x441F JUMPI PUSH1 0x0 JUMPDEST DUP6 MLOAD DUP2 LT ISZERO PUSH2 0x441D JUMPI PUSH2 0x3E53 DUP2 DUP8 PUSH2 0x634C JUMP JUMPDEST MLOAD PUSH2 0x3E5E DUP3 DUP5 PUSH2 0x634C JUMP JUMPDEST MLOAD PUSH2 0x3E69 DUP4 DUP7 PUSH2 0x634C JUMP JUMPDEST MLOAD SWAP1 PUSH1 0x6 DUP3 LT ISZERO PUSH2 0x756 JUMPI PUSH2 0x3E7E DUP5 DUP9 PUSH2 0x634C JUMP JUMPDEST MLOAD PUSH2 0x3E89 DUP6 DUP13 PUSH2 0x634C JUMP JUMPDEST MLOAD SWAP4 PUSH2 0x3E95 DUP7 DUP12 PUSH2 0x634C JUMP JUMPDEST MLOAD PUSH2 0x3EA1 PUSH1 0x0 SLOAD PUSH2 0x5751 JUMP JUMPDEST SWAP4 DUP5 PUSH1 0x0 SSTORE PUSH1 0x40 MLOAD DUP6 PUSH1 0x20 DUP3 ADD MSTORE PUSH1 0x1 DUP1 PUSH1 0x60 SHL SUB NOT DUP5 PUSH1 0x60 SHL AND PUSH1 0x40 DUP3 ADD MSTORE DUP7 PUSH1 0xF8 SHL PUSH1 0x54 DUP3 ADD MSTORE PUSH2 0x3F00 PUSH1 0x95 DUP7 MLOAD PUSH2 0x3EE2 DUP2 PUSH1 0x55 DUP7 ADD PUSH1 0x20 DUP12 ADD PUSH2 0x5584 JUMP JUMPDEST DUP4 ADD DUP11 PUSH1 0x55 DUP3 ADD MSTORE DUP4 PUSH1 0x75 SWAP2 TIMESTAMP DUP4 DUP3 ADD MSTORE SUB SWAP1 DUP2 ADD DUP5 MSTORE ADD DUP3 PUSH2 0x542A JUMP JUMPDEST PUSH1 0x20 DUP2 MLOAD SWAP2 ADD KECCAK256 SWAP2 PUSH1 0x40 MLOAD SWAP2 PUSH2 0x3F15 DUP4 PUSH2 0x540E JUMP JUMPDEST DUP7 DUP4 MSTORE PUSH1 0x1 PUSH1 0x1 PUSH1 0xA0 SHL SUB DUP6 AND PUSH1 0x20 DUP5 ADD MSTORE PUSH1 0x40 DUP4 ADD MSTORE PUSH2 0x3F39 DUP8 PUSH1 0x60 DUP5 ADD PUSH2 0x5760 JUMP JUMPDEST DUP5 PUSH1 0x80 DUP4 ADD MSTORE DUP8 PUSH1 0xA0 DUP4 ADD MSTORE PUSH1 0xC0 DUP3 ADD MSTORE DUP2 PUSH1 0xE0 DUP3 ADD MSTORE TIMESTAMP PUSH2 0x100 DUP3 ADD MSTORE NUMBER PUSH2 0x120 DUP3 ADD MSTORE DUP5 PUSH1 0x0 MSTORE PUSH1 0x1 PUSH1 0x20 MSTORE PUSH1 0x40 PUSH1 0x0 KECCAK256 SWAP1 DUP1 MLOAD DUP3 SSTORE PUSH1 0x1 DUP3 ADD PUSH1 0x1 DUP1 PUSH1 0xA0 SHL SUB PUSH1 0x20 DUP4 ADD MLOAD AND PUSH1 0x1 DUP1 PUSH1 0xA0 SHL SUB NOT DUP3 SLOAD AND OR SWAP1 SSTORE PUSH1 0x40 DUP2 ADD MLOAD DUP1 MLOAD SWAP1 PUSH1 0x1 DUP1 PUSH1 0x40 SHL SUB DUP3 GT PUSH2 0x675 JUMPI DUP2 SWAP1 PUSH2 0x3FB4 PUSH1 0x2 DUP7 ADD SLOAD PUSH2 0x576C JUMP JUMPDEST PUSH1 0x1F DUP2 GT PUSH2 0x43CA JUMPI JUMPDEST POP PUSH1 0x20 SWAP1 PUSH1 0x1F DUP4 GT PUSH1 0x1 EQ PUSH2 0x4358 JUMPI PUSH1 0x0 SWAP3 PUSH2 0x434D JUMPI JUMPDEST POP POP DUP2 PUSH1 0x1 SHL SWAP2 PUSH1 0x0 NOT SWAP1 PUSH1 0x3 SHL SHR NOT AND OR PUSH1 0x2 DUP4 ADD SSTORE JUMPDEST PUSH1 0x60 DUP2 ADD MLOAD PUSH1 0x6 DUP2 LT ISZERO PUSH2 0x756 JUMPI PUSH1 0x3 DUP4 ADD SWAP1 PUSH1 0xFF DUP1 NOT DUP4 SLOAD AND SWAP2 AND OR SWAP1 SSTORE PUSH1 0x80 DUP2 ADD MLOAD DUP1 MLOAD SWAP1 PUSH1 0x1 DUP1 PUSH1 0x40 SHL SUB DUP3 GT PUSH2 0x675 JUMPI DUP2 SWAP1 PUSH2 0x402F PUSH1 0x4 DUP7 ADD SLOAD PUSH2 0x576C JUMP JUMPDEST PUSH1 0x1F DUP2 GT PUSH2 0x42FA JUMPI JUMPDEST POP PUSH1 0x20 SWAP1 PUSH1 0x1F DUP4 GT PUSH1 0x1 EQ PUSH2 0x4288 JUMPI PUSH1 0x0 SWAP3 PUSH2 0x427D JUMPI JUMPDEST POP POP DUP2 PUSH1 0x1 SHL SWAP2 PUSH1 0x0 NOT SWAP1 PUSH1 0x3 SHL SHR NOT AND OR PUSH1 0x4 DUP4 ADD SSTORE JUMPDEST PUSH1 0xA0 DUP2 ADD MLOAD PUSH1 0x5 DUP4 ADD SSTORE PUSH1 0xC0 DUP2 ADD MLOAD DUP1 MLOAD SWAP1 PUSH1 0x1 PUSH1 0x1 PUSH1 0x40 SHL SUB DUP3 GT PUSH2 0x675 JUMPI PUSH2 0x4094 PUSH1 0x6 DUP6 ADD SLOAD PUSH2 0x576C JUMP JUMPDEST PUSH1 0x1F DUP2 GT PUSH2 0x4236 JUMPI JUMPDEST POP PUSH1 0x20 SWAP1 PUSH1 0x1F DUP4 GT PUSH1 0x1 EQ PUSH2 0x41A2 JUMPI PUSH2 0x120 PUSH2 0x418A SWAP5 DUP5 PUSH2 0x4192 SWAP15 SWAP14 SWAP13 SWAP12 SWAP11 SWAP9 SWAP6 PUSH1 0x0 DUP1 MLOAD PUSH1 0x20 PUSH2 0x64D4 DUP4 CODECOPY DUP2 MLOAD SWAP2 MSTORE SWAP11 SWAP9 SWAP6 PUSH1 0x9 SWAP6 PUSH1 0x0 SWAP3 PUSH2 0x4197 JUMPI JUMPDEST POP POP DUP2 PUSH1 0x1 SHL SWAP2 PUSH1 0x0 NOT SWAP1 PUSH1 0x3 SHL SHR NOT AND OR PUSH1 0x6 DUP6 ADD SSTORE JUMPDEST PUSH1 0xE0 DUP2 ADD MLOAD PUSH1 0x7 DUP6 ADD SSTORE PUSH2 0x100 DUP2 ADD MLOAD PUSH1 0x8 DUP6 ADD SSTORE ADD MLOAD SWAP2 ADD SSTORE PUSH2 0x4116 DUP7 PUSH2 0x57D7 JUMP JUMPDEST PUSH1 0x1 DUP1 PUSH1 0xA0 SHL SUB DUP4 AND PUSH1 0x0 MSTORE PUSH1 0x3 PUSH1 0x20 MSTORE PUSH2 0x4135 DUP7 PUSH1 0x40 PUSH1 0x0 KECCAK256 PUSH2 0x580E JUMP JUMPDEST PUSH2 0x414E DUP7 PUSH1 0x40 MLOAD PUSH1 0x20 DUP2 DUP9 MLOAD PUSH2 0x50E DUP2 DUP4 DUP6 DUP14 ADD PUSH2 0x5584 JUMP JUMPDEST DUP8 PUSH1 0x0 MSTORE PUSH1 0x5 PUSH1 0x20 MSTORE PUSH2 0x4165 DUP7 PUSH1 0x40 PUSH1 0x0 KECCAK256 PUSH2 0x580E JUMP JUMPDEST DUP1 PUSH1 0x0 MSTORE PUSH1 0x6 PUSH1 0x20 MSTORE DUP6 PUSH1 0x40 PUSH1 0x0 KECCAK256 SSTORE PUSH1 0x40 MLOAD SWAP4 DUP5 SWAP4 PUSH1 0x1 DUP1 PUSH1 0xA0 SHL SUB AND SWAP8 DUP5 PUSH2 0x5837 JUMP JUMPDEST SUB SWAP1 LOG4 PUSH2 0x5751 JUMP JUMPDEST PUSH2 0x3E40 JUMP JUMPDEST ADD MLOAD SWAP1 POP CODESIZE DUP1 PUSH2 0x40DB JUMP JUMPDEST SWAP1 PUSH1 0x6 DUP6 ADD PUSH1 0x0 MSTORE PUSH1 0x20 PUSH1 0x0 KECCAK256 SWAP2 PUSH1 0x0 JUMPDEST PUSH1 0x1F NOT DUP6 AND DUP2 LT PUSH2 0x421E JUMPI POP PUSH2 0x418A SWAP5 PUSH1 0x1 DUP6 PUSH2 0x4192 SWAP16 SWAP15 SWAP14 SWAP13 SWAP12 SWAP10 SWAP7 SWAP6 PUSH1 0x9 SWAP6 PUSH2 0x120 SWAP6 PUSH1 0x0 DUP1 MLOAD PUSH1 0x20 PUSH2 0x64D4 DUP4 CODECOPY DUP2 MLOAD SWAP2 MSTORE SWAP14 SWAP12 SWAP9 PUSH1 0x1F NOT DUP2 AND LT PUSH2 0x4205 JUMPI JUMPDEST POP POP POP DUP2 SHL ADD PUSH1 0x6 DUP6 ADD SSTORE PUSH2 0x40F3 JUMP JUMPDEST ADD MLOAD PUSH1 0x0 NOT PUSH1 0xF8 DUP5 PUSH1 0x3 SHL AND SHR NOT AND SWAP1 SSTORE CODESIZE DUP1 DUP1 PUSH2 0x41F5 JUMP JUMPDEST SWAP2 SWAP3 PUSH1 0x20 PUSH1 0x1 DUP2 SWAP3 DUP7 DUP6 ADD MLOAD DUP2 SSTORE ADD SWAP5 ADD SWAP3 ADD PUSH2 0x41B3 JUMP JUMPDEST PUSH1 0x6 DUP6 ADD PUSH1 0x0 MSTORE PUSH1 0x20 PUSH1 0x0 KECCAK256 PUSH1 0x1F DUP5 ADD PUSH1 0x5 SHR DUP2 ADD PUSH1 0x20 DUP6 LT PUSH2 0x4276 JUMPI JUMPDEST PUSH1 0x1F DUP4 ADD PUSH1 0x5 SHR DUP3 ADD DUP2 LT PUSH2 0x426A JUMPI POP POP PUSH2 0x409D JUMP JUMPDEST PUSH1 0x0 DUP2 SSTORE PUSH1 0x1 ADD PUSH2 0x4254 JUMP JUMPDEST POP DUP1 PUSH2 0x4254 JUMP JUMPDEST ADD MLOAD SWAP1 POP CODESIZE DUP1 PUSH2 0x404F JUMP JUMPDEST SWAP3 POP PUSH1 0x4 DUP6 ADD PUSH1 0x0 MSTORE PUSH1 0x20 PUSH1 0x0 KECCAK256 SWAP1 PUSH1 0x0 SWAP4 JUMPDEST PUSH1 0x1F NOT DUP5 AND DUP6 LT PUSH2 0x42DF JUMPI PUSH1 0x1 SWAP5 POP DUP4 PUSH1 0x1F NOT DUP2 AND LT PUSH2 0x42C6 JUMPI JUMPDEST POP POP POP DUP2 SHL ADD PUSH1 0x4 DUP4 ADD SSTORE PUSH2 0x4067 JUMP JUMPDEST ADD MLOAD PUSH1 0x0 NOT PUSH1 0xF8 DUP5 PUSH1 0x3 SHL AND SHR NOT AND SWAP1 SSTORE CODESIZE DUP1 DUP1 PUSH2 0x42B6 JUMP JUMPDEST DUP2 DUP2 ADD MLOAD DUP4 SSTORE PUSH1 0x20 SWAP5 DUP6 ADD SWAP5 PUSH1 0x1 SWAP1 SWAP4 ADD SWAP3 SWAP1 SWAP2 ADD SWAP1 PUSH2 0x429B JUMP JUMPDEST SWAP1 SWAP2 POP PUSH1 0x4 DUP6 ADD PUSH1 0x0 MSTORE PUSH1 0x20 PUSH1 0x0 KECCAK256 PUSH1 0x1F DUP5 ADD PUSH1 0x5 SHR DUP2 ADD PUSH1 0x20 DUP6 LT PUSH2 0x4346 JUMPI JUMPDEST SWAP1 DUP5 SWAP4 SWAP3 SWAP2 JUMPDEST PUSH1 0x1F DUP4 ADD PUSH1 0x5 SHR DUP3 ADD DUP2 LT PUSH2 0x4337 JUMPI POP POP PUSH2 0x4038 JUMP JUMPDEST PUSH1 0x0 DUP2 SSTORE DUP6 SWAP5 POP PUSH1 0x1 ADD PUSH2 0x4321 JUMP JUMPDEST POP DUP1 PUSH2 0x431B JUMP JUMPDEST ADD MLOAD SWAP1 POP CODESIZE DUP1 PUSH2 0x3FD4 JUMP JUMPDEST SWAP3 POP PUSH1 0x2 DUP6 ADD PUSH1 0x0 MSTORE PUSH1 0x20 PUSH1 0x0 KECCAK256 SWAP1 PUSH1 0x0 SWAP4 JUMPDEST PUSH1 0x1F NOT DUP5 AND DUP6 LT PUSH2 0x43AF JUMPI PUSH1 0x1 SWAP5 POP DUP4 PUSH1 0x1F NOT DUP2 AND LT PUSH2 0x4396 JUMPI JUMPDEST POP POP POP DUP2 SHL ADD PUSH1 0x2 DUP4 ADD SSTORE PUSH2 0x3FEC JUMP JUMPDEST ADD MLOAD PUSH1 0x0 NOT PUSH1 0xF8 DUP5 PUSH1 0x3 SHL AND SHR NOT AND SWAP1 SSTORE CODESIZE DUP1 DUP1 PUSH2 0x4386 JUMP JUMPDEST DUP2 DUP2 ADD MLOAD DUP4 SSTORE PUSH1 0x20 SWAP5 DUP6 ADD SWAP5 PUSH1 0x1 SWAP1 SWAP4 ADD SWAP3 SWAP1 SWAP2 ADD SWAP1 PUSH2 0x436B JUMP JUMPDEST SWAP1 SWAP2 POP PUSH1 0x2 DUP6 ADD PUSH1 0x0 MSTORE PUSH1 0x20 PUSH1 0x0 KECCAK256 PUSH1 0x1F DUP5 ADD PUSH1 0x5 SHR DUP2 ADD PUSH1 0x20 DUP6 LT PUSH2 0x4416 JUMPI JUMPDEST SWAP1 DUP5 SWAP4 SWAP3 SWAP2 JUMPDEST PUSH1 0x1F DUP4 ADD PUSH1 0x5 SHR DUP3 ADD DUP2 LT PUSH2 0x4407 JUMPI POP POP PUSH2 0x3FBD JUMP JUMPDEST PUSH1 0x0 DUP2 SSTORE DUP6 SWAP5 POP PUSH1 0x1 ADD PUSH2 0x43F1 JUMP JUMPDEST POP DUP1 PUSH2 0x43EB JUMP JUMPDEST STOP JUMPDEST PUSH1 0x40 MLOAD PUSH3 0x461BCD PUSH1 0xE5 SHL DUP2 MSTORE PUSH1 0x20 PUSH1 0x4 DUP3 ADD MSTORE PUSH1 0x1F PUSH1 0x24 DUP3 ADD MSTORE PUSH32 0x41756469744C6F673A206172726179206C656E677468206D69736D6174636800 PUSH1 0x44 DUP3 ADD MSTORE PUSH1 0x64 SWAP1 REVERT JUMPDEST SWAP1 POP DUP5 MLOAD EQ DUP8 PUSH2 0x3E37 JUMP JUMPDEST DUP8 MLOAD DUP2 EQ SWAP2 POP PUSH2 0x3E31 JUMP JUMPDEST DUP5 MLOAD DUP2 EQ SWAP2 POP PUSH2 0x3E2B JUMP JUMPDEST DUP4 MLOAD DUP2 EQ SWAP2 POP PUSH2 0x3E25 JUMP JUMPDEST PUSH2 0x44A9 SWAP2 POP PUSH1 0x20 RETURNDATASIZE PUSH1 0x20 GT PUSH2 0xDC6 JUMPI PUSH2 0xDB8 DUP2 DUP4 PUSH2 0x542A JUMP JUMPDEST DUP9 PUSH2 0x1144 JUMP JUMPDEST DUP2 CALLDATALOAD DUP2 MSTORE PUSH1 0x20 SWAP2 DUP3 ADD SWAP2 ADD PUSH2 0x3D80 JUMP JUMPDEST DUP3 CALLDATALOAD PUSH1 0x6 DUP2 LT ISZERO PUSH2 0x18D JUMPI DUP2 MSTORE PUSH1 0x20 SWAP3 DUP4 ADD SWAP3 ADD PUSH2 0x3CFA JUMP JUMPDEST DUP3 CALLDATALOAD PUSH1 0x1 PUSH1 0x1 PUSH1 0xA0 SHL SUB DUP2 AND DUP2 SUB PUSH2 0x18D JUMPI DUP2 MSTORE PUSH1 0x20 SWAP3 DUP4 ADD SWAP3 ADD PUSH2 0x3C7C JUMP JUMPDEST CALLVALUE PUSH2 0x18D JUMPI PUSH1 0x20 DUP1 PUSH1 0x3 NOT CALLDATASIZE ADD SLT PUSH2 0x18D JUMPI PUSH2 0x4512 PUSH2 0x53BD JUMP JUMPDEST PUSH1 0x40 MLOAD PUSH4 0x95A8C58D PUSH1 0xE0 SHL DUP2 MSTORE SWAP1 DUP2 PUSH2 0x452E CALLER PUSH1 0x4 DUP4 ADD PUSH2 0x56A4 JUMP JUMPDEST PUSH1 0x1 PUSH1 0x1 PUSH1 0xA0 SHL SUB SWAP4 SWAP2 DUP6 SWAP2 DUP4 SWAP2 SWAP1 SUB DUP2 PUSH32 0x0 DUP8 AND GAS STATICCALL DUP1 ISZERO PUSH2 0xDCD JUMPI PUSH2 0x457B SWAP2 PUSH1 0x0 SWAP2 PUSH2 0x1EC1 JUMPI POP PUSH2 0x6300 JUMP JUMPDEST AND SWAP1 DUP2 PUSH1 0x0 MSTORE PUSH1 0x7 DUP2 MSTORE PUSH1 0xFF PUSH1 0x40 PUSH1 0x0 KECCAK256 SLOAD AND ISZERO PUSH2 0x45D1 JUMPI PUSH1 0x7 SWAP1 DUP3 PUSH1 0x0 MSTORE MSTORE PUSH1 0x40 PUSH1 0x0 KECCAK256 PUSH1 0xFF NOT DUP2 SLOAD AND SWAP1 SSTORE CALLER SWAP1 PUSH32 0xB542D86D237FE74C234C6E7863D124BDADE62E5DA92BA5692155922E6DAF65C3 PUSH1 0x0 DUP1 LOG3 STOP JUMPDEST PUSH1 0x64 SWAP1 PUSH1 0x40 MLOAD SWAP1 PUSH3 0x461BCD PUSH1 0xE5 SHL DUP3 MSTORE PUSH1 0x4 DUP3 ADD MSTORE PUSH1 0x1F PUSH1 0x24 DUP3 ADD MSTORE PUSH32 0x41756469744C6F673A206D6F64756C65206E6F7420617574686F72697A656400 PUSH1 0x44 DUP3 ADD MSTORE REVERT JUMPDEST CALLVALUE PUSH2 0x18D JUMPI PUSH1 0x20 DUP1 PUSH1 0x3 NOT CALLDATASIZE ADD SLT PUSH2 0x18D JUMPI PUSH1 0x4 CALLDATALOAD PUSH1 0x6 DUP1 DUP3 LT ISZERO SWAP3 DUP4 PUSH2 0x18D JUMPI PUSH1 0x2 SLOAD SWAP2 PUSH1 0x0 DUP1 JUMPDEST DUP5 DUP2 LT PUSH2 0x46DA JUMPI POP PUSH2 0x464F SWAP1 PUSH2 0x64A1 JUMP JUMPDEST SWAP4 PUSH1 0x0 SWAP2 PUSH1 0x0 JUMPDEST DUP6 DUP2 LT PUSH2 0x466B JUMPI PUSH1 0x40 MLOAD DUP1 PUSH2 0x10A8 DUP10 DUP3 PUSH2 0x53D3 JUMP JUMPDEST PUSH2 0x4674 DUP2 PUSH2 0x57A6 JUMP JUMPDEST SWAP1 SLOAD PUSH1 0x3 SWAP2 DUP3 SHL SHR PUSH1 0x0 MSTORE PUSH1 0x1 DUP7 MSTORE DUP9 PUSH1 0xFF DUP3 PUSH1 0x40 PUSH1 0x0 KECCAK256 ADD SLOAD AND SWAP1 PUSH2 0x756 JUMPI DUP4 DUP2 LT ISZERO PUSH2 0x756 JUMPI DUP5 EQ PUSH2 0x46B2 JUMPI JUMPDEST POP PUSH2 0x46AD SWAP1 PUSH2 0x5751 JUMP JUMPDEST PUSH2 0x4656 JUMP JUMPDEST DUP2 SWAP5 PUSH2 0x46D3 SWAP2 PUSH2 0x46C4 PUSH2 0x46AD SWAP5 PUSH2 0x57A6 JUMP JUMPDEST SWAP1 SLOAD SWAP2 SHL SHR PUSH2 0x20EE DUP3 DUP12 PUSH2 0x634C JUMP JUMPDEST SWAP4 SWAP1 PUSH2 0x46A3 JUMP JUMPDEST DUP7 PUSH1 0xFF PUSH2 0x46E6 DUP4 PUSH2 0x57A6 JUMP JUMPDEST SWAP1 SLOAD PUSH1 0x3 SWAP2 DUP3 SHL SHR PUSH1 0x0 MSTORE PUSH1 0x1 DUP8 MSTORE PUSH1 0x40 PUSH1 0x0 KECCAK256 ADD SLOAD AND SWAP1 PUSH2 0x756 JUMPI DUP4 DUP2 LT ISZERO PUSH2 0x756 JUMPI DUP7 EQ PUSH2 0x471F JUMPI JUMPDEST PUSH2 0x471A SWAP1 PUSH2 0x5751 JUMP JUMPDEST PUSH2 0x463E JUMP JUMPDEST SWAP1 PUSH2 0x472C PUSH2 0x471A SWAP2 PUSH2 0x5751 JUMP JUMPDEST SWAP2 SWAP1 POP PUSH2 0x4711 JUMP JUMPDEST CALLVALUE PUSH2 0x18D JUMPI PUSH2 0x4742 CALLDATASIZE PUSH2 0x54A3 JUMP JUMPDEST SWAP1 PUSH1 0x40 MLOAD PUSH4 0x95A8C58D PUSH1 0xE0 SHL DUP2 MSTORE PUSH1 0x20 DUP2 DUP1 PUSH2 0x4761 CALLER PUSH1 0x4 DUP4 ADD PUSH2 0x568A JUMP JUMPDEST SUB DUP2 PUSH32 0x0 PUSH1 0x1 PUSH1 0x1 PUSH1 0xA0 SHL SUB AND GAS STATICCALL SWAP1 DUP2 ISZERO PUSH2 0xDCD JUMPI PUSH1 0x0 SWAP2 PUSH2 0x5261 JUMPI JUMPDEST POP DUP1 ISZERO PUSH2 0x5248 JUMPI JUMPDEST PUSH2 0x47AF SWAP1 PUSH2 0x56BE JUMP JUMPDEST PUSH1 0x8 SLOAD ISZERO PUSH2 0x4D13 JUMPI CALLER PUSH1 0x0 MSTORE PUSH1 0x9 PUSH1 0x20 MSTORE PUSH1 0x40 PUSH1 0x0 KECCAK256 PUSH3 0x15180 TIMESTAMP DIV PUSH1 0x0 MSTORE PUSH1 0x20 MSTORE PUSH2 0x47E3 PUSH1 0x40 PUSH1 0x0 KECCAK256 SLOAD PUSH1 0x8 SLOAD GT PUSH2 0x5705 JUMP JUMPDEST PUSH2 0x47EB PUSH2 0x5DAC JUMP JUMPDEST SWAP2 PUSH2 0x47F7 PUSH1 0x0 SLOAD PUSH2 0x5751 JUMP JUMPDEST SWAP3 DUP4 PUSH1 0x0 SSTORE PUSH1 0x40 MLOAD PUSH1 0x20 DUP2 ADD SWAP1 DUP6 DUP3 MSTORE PUSH1 0x1 DUP1 PUSH1 0x60 SHL SUB NOT CALLER PUSH1 0x60 SHL AND PUSH1 0x40 DUP3 ADD MSTORE PUSH1 0x0 PUSH1 0x54 DUP3 ADD MSTORE PUSH2 0x483A PUSH1 0x95 DUP3 DUP10 MLOAD PUSH2 0x2C9 DUP2 DUP13 PUSH1 0x20 PUSH1 0x55 DUP7 ADD SWAP2 ADD PUSH2 0x5584 JUMP JUMPDEST MLOAD SWAP1 KECCAK256 SWAP2 PUSH1 0x40 MLOAD SWAP2 PUSH2 0x484B DUP4 PUSH2 0x540E JUMP JUMPDEST DUP6 DUP4 MSTORE CALLER PUSH1 0x20 DUP5 ADD MSTORE PUSH1 0x40 DUP4 ADD MSTORE PUSH1 0x0 PUSH1 0x60 DUP4 ADD MSTORE DUP6 PUSH1 0x80 DUP4 ADD MSTORE DUP4 PUSH1 0xA0 DUP4 ADD MSTORE PUSH1 0xC0 DUP3 ADD MSTORE DUP2 PUSH1 0xE0 DUP3 ADD MSTORE TIMESTAMP PUSH2 0x100 DUP3 ADD MSTORE NUMBER PUSH2 0x120 DUP3 ADD MSTORE DUP4 PUSH1 0x0 MSTORE PUSH1 0x1 PUSH1 0x20 MSTORE PUSH1 0x40 PUSH1 0x0 KECCAK256 DUP2 MLOAD DUP2 SSTORE PUSH1 0x1 DUP2 ADD PUSH1 0x1 DUP1 PUSH1 0xA0 SHL SUB PUSH1 0x20 DUP5 ADD MLOAD AND PUSH1 0x1 DUP1 PUSH1 0xA0 SHL SUB NOT DUP3 SLOAD AND OR SWAP1 SSTORE PUSH1 0x40 DUP3 ADD MLOAD DUP1 MLOAD SWAP1 PUSH1 0x1 DUP1 PUSH1 0x40 SHL SUB DUP3 GT PUSH2 0x675 JUMPI DUP2 SWAP1 PUSH2 0x48DA PUSH1 0x2 DUP6 ADD SLOAD PUSH2 0x576C JUMP JUMPDEST PUSH1 0x1F DUP2 GT PUSH2 0x4CC0 JUMPI JUMPDEST POP PUSH1 0x20 SWAP1 PUSH1 0x1F DUP4 GT PUSH1 0x1 EQ PUSH2 0x4C53 JUMPI PUSH1 0x0 SWAP3 PUSH2 0x4C48 JUMPI JUMPDEST POP POP DUP2 PUSH1 0x1 SHL SWAP2 PUSH1 0x0 NOT SWAP1 PUSH1 0x3 SHL SHR NOT AND OR PUSH1 0x2 DUP3 ADD SSTORE JUMPDEST PUSH1 0x3 DUP2 ADD PUSH1 0x60 DUP4 ADD MLOAD PUSH1 0x6 DUP2 LT ISZERO PUSH2 0x756 JUMPI PUSH1 0xFF DUP1 NOT DUP4 SLOAD AND SWAP2 AND OR SWAP1 SSTORE PUSH1 0x80 DUP3 ADD MLOAD DUP1 MLOAD SWAP1 PUSH1 0x1 DUP1 PUSH1 0x40 SHL SUB DUP3 GT PUSH2 0x675 JUMPI DUP2 SWAP1 PUSH2 0x4954 PUSH1 0x4 DUP6 ADD SLOAD PUSH2 0x576C JUMP JUMPDEST PUSH1 0x1F DUP2 GT PUSH2 0x4BF5 JUMPI JUMPDEST POP PUSH1 0x20 SWAP1 PUSH1 0x1F DUP4 GT PUSH1 0x1 EQ PUSH2 0x4B88 JUMPI PUSH1 0x0 SWAP3 PUSH2 0x4B7D JUMPI JUMPDEST POP POP DUP2 PUSH1 0x1 SHL SWAP2 PUSH1 0x0 NOT SWAP1 PUSH1 0x3 SHL SHR NOT AND OR PUSH1 0x4 DUP3 ADD SSTORE JUMPDEST PUSH1 0xA0 DUP3 ADD MLOAD PUSH1 0x5 DUP3 ADD SSTORE PUSH1 0xC0 DUP3 ADD MLOAD DUP1 MLOAD SWAP3 SWAP1 PUSH1 0x1 PUSH1 0x1 PUSH1 0x40 SHL SUB DUP5 GT PUSH2 0x675 JUMPI PUSH2 0x49BA PUSH1 0x6 DUP5 ADD SLOAD PUSH2 0x576C JUMP JUMPDEST PUSH1 0x1F DUP2 GT PUSH2 0x4B36 JUMPI JUMPDEST POP SWAP2 PUSH1 0x20 SWAP8 SWAP2 DUP8 SWAP4 DUP10 SWAP1 PUSH1 0x1F DUP8 GT PUSH1 0x1 EQ PUSH2 0x4AAE JUMPI SWAP2 DUP7 PUSH1 0x0 DUP1 MLOAD PUSH1 0x20 PUSH2 0x64D4 DUP4 CODECOPY DUP2 MLOAD SWAP2 MSTORE SWAP7 SWAP8 PUSH2 0x120 SWAP4 PUSH1 0x9 SWAP6 PUSH1 0x0 SWAP3 PUSH2 0x4AA3 JUMPI JUMPDEST POP POP DUP2 PUSH1 0x1 SHL SWAP2 PUSH1 0x0 NOT SWAP1 PUSH1 0x3 SHL SHR NOT AND OR PUSH1 0x6 DUP6 ADD SSTORE JUMPDEST PUSH1 0xE0 DUP2 ADD MLOAD PUSH1 0x7 DUP6 ADD SSTORE PUSH2 0x100 DUP2 ADD MLOAD PUSH1 0x8 DUP6 ADD SSTORE ADD MLOAD SWAP2 ADD SSTORE PUSH2 0x4A35 DUP4 PUSH2 0x57D7 JUMP JUMPDEST CALLER PUSH1 0x0 MSTORE PUSH1 0x3 DUP8 MSTORE PUSH2 0x4A4B DUP4 PUSH1 0x40 PUSH1 0x0 KECCAK256 PUSH2 0x580E JUMP JUMPDEST PUSH2 0x4A63 DUP4 PUSH1 0x40 MLOAD DUP10 DUP2 DUP6 MLOAD PUSH2 0x50E DUP2 DUP4 DUP6 DUP11 ADD PUSH2 0x5584 JUMP JUMPDEST DUP5 PUSH1 0x0 MSTORE PUSH1 0x5 DUP8 MSTORE PUSH2 0x4A79 DUP4 PUSH1 0x40 PUSH1 0x0 KECCAK256 PUSH2 0x580E JUMP JUMPDEST DUP4 PUSH1 0x0 MSTORE PUSH1 0x6 DUP8 MSTORE DUP3 PUSH1 0x40 PUSH1 0x0 KECCAK256 SSTORE PUSH2 0x55D PUSH1 0x40 MLOAD SWAP2 PUSH1 0x0 DUP4 MSTORE PUSH1 0x60 DUP10 DUP5 ADD MSTORE PUSH1 0x60 DUP4 ADD SWAP1 PUSH2 0x55A7 JUMP JUMPDEST ADD MLOAD SWAP1 POP DUP14 DUP1 PUSH2 0x49FA JUMP JUMPDEST SWAP6 SWAP1 PUSH1 0x6 DUP5 ADD PUSH1 0x0 MSTORE DUP11 PUSH1 0x0 KECCAK256 SWAP7 PUSH1 0x0 JUMPDEST PUSH1 0x1F NOT DUP5 AND DUP2 LT PUSH2 0x4B1C JUMPI POP DUP3 PUSH1 0x0 DUP1 MLOAD PUSH1 0x20 PUSH2 0x64D4 DUP4 CODECOPY DUP2 MLOAD SWAP2 MSTORE SWAP8 SWAP9 PUSH1 0x9 SWAP6 SWAP4 PUSH1 0x1 SWAP4 PUSH2 0x120 SWAP7 PUSH1 0x1F NOT DUP2 AND LT PUSH2 0x4B03 JUMPI JUMPDEST POP POP POP DUP2 SHL ADD PUSH1 0x6 DUP6 ADD SSTORE PUSH2 0x4A12 JUMP JUMPDEST ADD MLOAD PUSH1 0x0 NOT PUSH1 0xF8 DUP5 PUSH1 0x3 SHL AND SHR NOT AND SWAP1 SSTORE DUP14 DUP1 DUP1 PUSH2 0x4AF3 JUMP JUMPDEST DUP3 DUP3 ADD MLOAD DUP10 SSTORE PUSH1 0x1 SWAP1 SWAP9 ADD SWAP8 DUP12 SWAP8 POP SWAP2 DUP13 ADD SWAP2 DUP13 ADD PUSH2 0x4ABF JUMP JUMPDEST PUSH1 0x6 DUP5 ADD PUSH1 0x0 MSTORE PUSH1 0x20 PUSH1 0x0 KECCAK256 PUSH1 0x1F DUP7 ADD PUSH1 0x5 SHR DUP2 ADD PUSH1 0x20 DUP8 LT PUSH2 0x4B76 JUMPI JUMPDEST PUSH1 0x1F DUP4 ADD PUSH1 0x5 SHR DUP3 ADD DUP2 LT PUSH2 0x4B6A JUMPI POP POP PUSH2 0x49C3 JUMP JUMPDEST PUSH1 0x0 DUP2 SSTORE PUSH1 0x1 ADD PUSH2 0x4B54 JUMP JUMPDEST POP DUP1 PUSH2 0x4B54 JUMP JUMPDEST ADD MLOAD SWAP1 POP DUP9 DUP1 PUSH2 0x4974 JUMP JUMPDEST PUSH1 0x4 DUP6 ADD PUSH1 0x0 SWAP1 DUP2 MSTORE PUSH1 0x20 DUP2 KECCAK256 SWAP4 POP PUSH1 0x1F NOT DUP6 AND SWAP1 JUMPDEST DUP2 DUP2 LT PUSH2 0x4BDD JUMPI POP SWAP1 DUP5 PUSH1 0x1 SWAP6 SWAP5 SWAP4 SWAP3 LT PUSH2 0x4BC4 JUMPI JUMPDEST POP POP POP DUP2 SHL ADD PUSH1 0x4 DUP3 ADD SSTORE PUSH2 0x498C JUMP JUMPDEST ADD MLOAD PUSH1 0x0 NOT PUSH1 0xF8 DUP5 PUSH1 0x3 SHL AND SHR NOT AND SWAP1 SSTORE DUP9 DUP1 DUP1 PUSH2 0x4BB4 JUMP JUMPDEST SWAP3 SWAP4 PUSH1 0x20 PUSH1 0x1 DUP2 SWAP3 DUP8 DUP7 ADD MLOAD DUP2 SSTORE ADD SWAP6 ADD SWAP4 ADD PUSH2 0x4B9E JUMP JUMPDEST SWAP1 SWAP2 POP PUSH1 0x4 DUP5 ADD PUSH1 0x0 MSTORE PUSH1 0x20 PUSH1 0x0 KECCAK256 PUSH1 0x1F DUP5 ADD PUSH1 0x5 SHR DUP2 ADD PUSH1 0x20 DUP6 LT PUSH2 0x4C41 JUMPI JUMPDEST SWAP1 DUP5 SWAP4 SWAP3 SWAP2 JUMPDEST PUSH1 0x1F DUP4 ADD PUSH1 0x5 SHR DUP3 ADD DUP2 LT PUSH2 0x4C32 JUMPI POP POP PUSH2 0x495D JUMP JUMPDEST PUSH1 0x0 DUP2 SSTORE DUP6 SWAP5 POP PUSH1 0x1 ADD PUSH2 0x4C1C JUMP JUMPDEST POP DUP1 PUSH2 0x4C16 JUMP JUMPDEST ADD MLOAD SWAP1 POP DUP9 DUP1 PUSH2 0x48FA JUMP JUMPDEST PUSH1 0x2 DUP6 ADD PUSH1 0x0 SWAP1 DUP2 MSTORE PUSH1 0x20 DUP2 KECCAK256 SWAP4 POP PUSH1 0x1F NOT DUP6 AND SWAP1 JUMPDEST DUP2 DUP2 LT PUSH2 0x4CA8 JUMPI POP SWAP1 DUP5 PUSH1 0x1 SWAP6 SWAP5 SWAP4 SWAP3 LT PUSH2 0x4C8F JUMPI JUMPDEST POP POP POP DUP2 SHL ADD PUSH1 0x2 DUP3 ADD SSTORE PUSH2 0x4912 JUMP JUMPDEST ADD MLOAD PUSH1 0x0 NOT PUSH1 0xF8 DUP5 PUSH1 0x3 SHL AND SHR NOT AND SWAP1 SSTORE DUP9 DUP1 DUP1 PUSH2 0x4C7F JUMP JUMPDEST SWAP3 SWAP4 PUSH1 0x20 PUSH1 0x1 DUP2 SWAP3 DUP8 DUP7 ADD MLOAD DUP2 SSTORE ADD SWAP6 ADD SWAP4 ADD PUSH2 0x4C69 JUMP JUMPDEST SWAP1 SWAP2 POP PUSH1 0x2 DUP5 ADD PUSH1 0x0 MSTORE PUSH1 0x20 PUSH1 0x0 KECCAK256 PUSH1 0x1F DUP5 ADD PUSH1 0x5 SHR DUP2 ADD PUSH1 0x20 DUP6 LT PUSH2 0x4D0C JUMPI JUMPDEST SWAP1 DUP5 SWAP4 SWAP3 SWAP2 JUMPDEST PUSH1 0x1F DUP4 ADD PUSH1 0x5 SHR DUP3 ADD DUP2 LT PUSH2 0x4CFD JUMPI POP POP PUSH2 0x48E3 JUMP JUMPDEST PUSH1 0x0 DUP2 SSTORE DUP6 SWAP5 POP PUSH1 0x1 ADD PUSH2 0x4CE7 JUMP JUMPDEST POP DUP1 PUSH2 0x4CE1 JUMP JUMPDEST PUSH2 0x4D1B PUSH2 0x5DAC JUMP JUMPDEST SWAP2 PUSH2 0x4D27 PUSH1 0x0 SLOAD PUSH2 0x5751 JUMP JUMPDEST SWAP3 DUP4 PUSH1 0x0 SSTORE PUSH1 0x40 MLOAD PUSH1 0x20 DUP2 ADD SWAP1 DUP6 DUP3 MSTORE PUSH1 0x1 DUP1 PUSH1 0x60 SHL SUB NOT CALLER PUSH1 0x60 SHL AND PUSH1 0x40 DUP3 ADD MSTORE PUSH1 0x0 PUSH1 0x54 DUP3 ADD MSTORE PUSH2 0x4D6A PUSH1 0x95 DUP3 DUP10 MLOAD PUSH2 0x2C9 DUP2 DUP13 PUSH1 0x20 PUSH1 0x55 DUP7 ADD SWAP2 ADD PUSH2 0x5584 JUMP JUMPDEST MLOAD SWAP1 KECCAK256 SWAP2 PUSH1 0x40 MLOAD SWAP2 PUSH2 0x4D7B DUP4 PUSH2 0x540E JUMP JUMPDEST DUP6 DUP4 MSTORE CALLER PUSH1 0x20 DUP5 ADD MSTORE PUSH1 0x40 DUP4 ADD MSTORE PUSH1 0x0 PUSH1 0x60 DUP4 ADD MSTORE DUP6 PUSH1 0x80 DUP4 ADD MSTORE DUP4 PUSH1 0xA0 DUP4 ADD MSTORE PUSH1 0xC0 DUP3 ADD MSTORE DUP2 PUSH1 0xE0 DUP3 ADD MSTORE TIMESTAMP PUSH2 0x100 DUP3 ADD MSTORE NUMBER PUSH2 0x120 DUP3 ADD MSTORE DUP4 PUSH1 0x0 MSTORE PUSH1 0x1 PUSH1 0x20 MSTORE PUSH1 0x40 PUSH1 0x0 KECCAK256 DUP2 MLOAD DUP2 SSTORE PUSH1 0x1 DUP2 ADD PUSH1 0x1 DUP1 PUSH1 0xA0 SHL SUB PUSH1 0x20 DUP5 ADD MLOAD AND PUSH1 0x1 DUP1 PUSH1 0xA0 SHL SUB NOT DUP3 SLOAD AND OR SWAP1 SSTORE PUSH1 0x40 DUP3 ADD MLOAD DUP1 MLOAD SWAP1 PUSH1 0x1 DUP1 PUSH1 0x40 SHL SUB DUP3 GT PUSH2 0x675 JUMPI DUP2 SWAP1 PUSH2 0x4E0A PUSH1 0x2 DUP6 ADD SLOAD PUSH2 0x576C JUMP JUMPDEST PUSH1 0x1F DUP2 GT PUSH2 0x51F5 JUMPI JUMPDEST POP PUSH1 0x20 SWAP1 PUSH1 0x1F DUP4 GT PUSH1 0x1 EQ PUSH2 0x5188 JUMPI PUSH1 0x0 SWAP3 PUSH2 0x517D JUMPI JUMPDEST POP POP DUP2 PUSH1 0x1 SHL SWAP2 PUSH1 0x0 NOT SWAP1 PUSH1 0x3 SHL SHR NOT AND OR PUSH1 0x2 DUP3 ADD SSTORE JUMPDEST PUSH1 0x3 DUP2 ADD PUSH1 0x60 DUP4 ADD MLOAD PUSH1 0x6 DUP2 LT ISZERO PUSH2 0x756 JUMPI PUSH1 0xFF DUP1 NOT DUP4 SLOAD AND SWAP2 AND OR SWAP1 SSTORE PUSH1 0x80 DUP3 ADD MLOAD DUP1 MLOAD SWAP1 PUSH1 0x1 DUP1 PUSH1 0x40 SHL SUB DUP3 GT PUSH2 0x675 JUMPI DUP2 SWAP1 PUSH2 0x4E84 PUSH1 0x4 DUP6 ADD SLOAD PUSH2 0x576C JUMP JUMPDEST PUSH1 0x1F DUP2 GT PUSH2 0x512A JUMPI JUMPDEST POP PUSH1 0x20 SWAP1 PUSH1 0x1F DUP4 GT PUSH1 0x1 EQ PUSH2 0x50B8 JUMPI PUSH1 0x0 SWAP3 PUSH2 0x50AD JUMPI JUMPDEST POP POP DUP2 PUSH1 0x1 SHL SWAP2 PUSH1 0x0 NOT SWAP1 PUSH1 0x3 SHL SHR NOT AND OR PUSH1 0x4 DUP3 ADD SSTORE JUMPDEST PUSH1 0xA0 DUP3 ADD MLOAD PUSH1 0x5 DUP3 ADD SSTORE PUSH1 0xC0 DUP3 ADD MLOAD DUP1 MLOAD SWAP3 SWAP1 PUSH1 0x1 PUSH1 0x1 PUSH1 0x40 SHL SUB DUP5 GT PUSH2 0x675 JUMPI PUSH2 0x4EEA PUSH1 0x6 DUP5 ADD SLOAD PUSH2 0x576C JUMP JUMPDEST PUSH1 0x1F DUP2 GT PUSH2 0x5066 JUMPI JUMPDEST POP SWAP2 PUSH1 0x20 SWAP8 SWAP2 DUP8 SWAP4 DUP10 SWAP1 PUSH1 0x1F DUP8 GT PUSH1 0x1 EQ PUSH2 0x4FDE JUMPI SWAP2 DUP7 PUSH1 0x0 DUP1 MLOAD PUSH1 0x20 PUSH2 0x64D4 DUP4 CODECOPY DUP2 MLOAD SWAP2 MSTORE SWAP7 SWAP8 PUSH2 0x120 SWAP4 PUSH1 0x9 SWAP6 PUSH1 0x0 SWAP3 PUSH2 0x4FD3 JUMPI JUMPDEST POP POP DUP2 PUSH1 0x1 SHL SWAP2 PUSH1 0x0 NOT SWAP1 PUSH1 0x3 SHL SHR NOT AND OR PUSH1 0x6 DUP6 ADD SSTORE JUMPDEST PUSH1 0xE0 DUP2 ADD MLOAD PUSH1 0x7 DUP6 ADD SSTORE PUSH2 0x100 DUP2 ADD MLOAD PUSH1 0x8 DUP6 ADD SSTORE ADD MLOAD SWAP2 ADD SSTORE PUSH2 0x4F65 DUP4 PUSH2 0x57D7 JUMP JUMPDEST CALLER PUSH1 0x0 MSTORE PUSH1 0x3 DUP8 MSTORE PUSH2 0x4F7B DUP4 PUSH1 0x40 PUSH1 0x0 KECCAK256 PUSH2 0x580E JUMP JUMPDEST PUSH2 0x4F93 DUP4 PUSH1 0x40 MLOAD DUP10 DUP2 DUP6 MLOAD PUSH2 0x50E DUP2 DUP4 DUP6 DUP11 ADD PUSH2 0x5584 JUMP JUMPDEST DUP5 PUSH1 0x0 MSTORE PUSH1 0x5 DUP8 MSTORE PUSH2 0x4FA9 DUP4 PUSH1 0x40 PUSH1 0x0 KECCAK256 PUSH2 0x580E JUMP JUMPDEST DUP4 PUSH1 0x0 MSTORE PUSH1 0x6 DUP8 MSTORE DUP3 PUSH1 0x40 PUSH1 0x0 KECCAK256 SSTORE PUSH2 0xAFA PUSH1 0x40 MLOAD SWAP2 PUSH1 0x0 DUP4 MSTORE PUSH1 0x60 DUP10 DUP5 ADD MSTORE PUSH1 0x60 DUP4 ADD SWAP1 PUSH2 0x55A7 JUMP JUMPDEST ADD MLOAD SWAP1 POP DUP14 DUP1 PUSH2 0x4F2A JUMP JUMPDEST SWAP6 SWAP1 PUSH1 0x6 DUP5 ADD PUSH1 0x0 MSTORE DUP11 PUSH1 0x0 KECCAK256 SWAP7 PUSH1 0x0 JUMPDEST PUSH1 0x1F NOT DUP5 AND DUP2 LT PUSH2 0x504C JUMPI POP DUP3 PUSH1 0x0 DUP1 MLOAD PUSH1 0x20 PUSH2 0x64D4 DUP4 CODECOPY DUP2 MLOAD SWAP2 MSTORE SWAP8 SWAP9 PUSH1 0x9 SWAP6 SWAP4 PUSH1 0x1 SWAP4 PUSH2 0x120 SWAP7 PUSH1 0x1F NOT DUP2 AND LT PUSH2 0x5033 JUMPI JUMPDEST POP POP POP DUP2 SHL ADD PUSH1 0x6 DUP6 ADD SSTORE PUSH2 0x4F42 JUMP JUMPDEST ADD MLOAD PUSH1 0x0 NOT PUSH1 0xF8 DUP5 PUSH1 0x3 SHL AND SHR NOT AND SWAP1 SSTORE DUP14 DUP1 DUP1 PUSH2 0x5023 JUMP JUMPDEST DUP3 DUP3 ADD MLOAD DUP10 SSTORE PUSH1 0x1 SWAP1 SWAP9 ADD SWAP8 DUP12 SWAP8 POP SWAP2 DUP13 ADD SWAP2 DUP13 ADD PUSH2 0x4FEF JUMP JUMPDEST PUSH1 0x6 DUP5 ADD PUSH1 0x0 MSTORE PUSH1 0x20 PUSH1 0x0 KECCAK256 PUSH1 0x1F DUP7 ADD PUSH1 0x5 SHR DUP2 ADD PUSH1 0x20 DUP8 LT PUSH2 0x50A6 JUMPI JUMPDEST PUSH1 0x1F DUP4 ADD PUSH1 0x5 SHR DUP3 ADD DUP2 LT PUSH2 0x509A JUMPI POP POP PUSH2 0x4EF3 JUMP JUMPDEST PUSH1 0x0 DUP2 SSTORE PUSH1 0x1 ADD PUSH2 0x5084 JUMP JUMPDEST POP DUP1 PUSH2 0x5084 JUMP JUMPDEST ADD MLOAD SWAP1 POP DUP9 DUP1 PUSH2 0x4EA4 JUMP JUMPDEST SWAP3 POP PUSH1 0x4 DUP5 ADD PUSH1 0x0 MSTORE PUSH1 0x20 PUSH1 0x0 KECCAK256 SWAP1 PUSH1 0x0 SWAP4 JUMPDEST PUSH1 0x1F NOT DUP5 AND DUP6 LT PUSH2 0x510F JUMPI PUSH1 0x1 SWAP5 POP DUP4 PUSH1 0x1F NOT DUP2 AND LT PUSH2 0x50F6 JUMPI JUMPDEST POP POP POP DUP2 SHL ADD PUSH1 0x4 DUP3 ADD SSTORE PUSH2 0x4EBC JUMP JUMPDEST ADD MLOAD PUSH1 0x0 NOT PUSH1 0xF8 DUP5 PUSH1 0x3 SHL AND SHR NOT AND SWAP1 SSTORE DUP9 DUP1 DUP1 PUSH2 0x50E6 JUMP JUMPDEST DUP2 DUP2 ADD MLOAD DUP4 SSTORE PUSH1 0x20 SWAP5 DUP6 ADD SWAP5 PUSH1 0x1 SWAP1 SWAP4 ADD SWAP3 SWAP1 SWAP2 ADD SWAP1 PUSH2 0x50CB JUMP JUMPDEST SWAP1 SWAP2 POP PUSH1 0x4 DUP5 ADD PUSH1 0x0 MSTORE PUSH1 0x20 PUSH1 0x0 KECCAK256 PUSH1 0x1F DUP5 ADD PUSH1 0x5 SHR DUP2 ADD PUSH1 0x20 DUP6 LT PUSH2 0x5176 JUMPI JUMPDEST SWAP1 DUP5 SWAP4 SWAP3 SWAP2 JUMPDEST PUSH1 0x1F DUP4 ADD PUSH1 0x5 SHR DUP3 ADD DUP2 LT PUSH2 0x5167 JUMPI POP POP PUSH2 0x4E8D JUMP JUMPDEST PUSH1 0x0 DUP2 SSTORE DUP6 SWAP5 POP PUSH1 0x1 ADD PUSH2 0x5151 JUMP JUMPDEST POP DUP1 PUSH2 0x514B JUMP JUMPDEST ADD MLOAD SWAP1 POP DUP9 DUP1 PUSH2 0x4E2A JUMP JUMPDEST PUSH1 0x2 DUP6 ADD PUSH1 0x0 SWAP1 DUP2 MSTORE PUSH1 0x20 DUP2 KECCAK256 SWAP4 POP PUSH1 0x1F NOT DUP6 AND SWAP1 JUMPDEST DUP2 DUP2 LT PUSH2 0x51DD JUMPI POP SWAP1 DUP5 PUSH1 0x1 SWAP6 SWAP5 SWAP4 SWAP3 LT PUSH2 0x51C4 JUMPI JUMPDEST POP POP POP DUP2 SHL ADD PUSH1 0x2 DUP3 ADD SSTORE PUSH2 0x4E42 JUMP JUMPDEST ADD MLOAD PUSH1 0x0 NOT PUSH1 0xF8 DUP5 PUSH1 0x3 SHL AND SHR NOT AND SWAP1 SSTORE DUP9 DUP1 DUP1 PUSH2 0x51B4 JUMP JUMPDEST SWAP3 SWAP4 PUSH1 0x20 PUSH1 0x1 DUP2 SWAP3 DUP8 DUP7 ADD MLOAD DUP2 SSTORE ADD SWAP6 ADD SWAP4 ADD PUSH2 0x519E JUMP JUMPDEST SWAP1 SWAP2 POP PUSH1 0x2 DUP5 ADD PUSH1 0x0 MSTORE PUSH1 0x20 PUSH1 0x0 KECCAK256 PUSH1 0x1F DUP5 ADD PUSH1 0x5 SHR DUP2 ADD PUSH1 0x20 DUP6 LT PUSH2 0x5241 JUMPI JUMPDEST SWAP1 DUP5 SWAP4 SWAP3 SWAP2 JUMPDEST PUSH1 0x1F DUP4 ADD PUSH1 0x5 SHR DUP3 ADD DUP2 LT PUSH2 0x5232 JUMPI POP POP PUSH2 0x4E13 JUMP JUMPDEST PUSH1 0x0 DUP2 SSTORE DUP6 SWAP5 POP PUSH1 0x1 ADD PUSH2 0x521C JUMP JUMPDEST POP DUP1 PUSH2 0x5216 JUMP JUMPDEST POP CALLER PUSH1 0x0 SWAP1 DUP2 MSTORE PUSH1 0x7 PUSH1 0x20 MSTORE PUSH1 0x40 SWAP1 KECCAK256 SLOAD PUSH1 0xFF AND PUSH2 0x47A6 JUMP JUMPDEST PUSH2 0x527A SWAP2 POP PUSH1 0x20 RETURNDATASIZE PUSH1 0x20 GT PUSH2 0xDC6 JUMPI PUSH2 0xDB8 DUP2 DUP4 PUSH2 0x542A JUMP JUMPDEST DUP5 PUSH2 0x479E JUMP JUMPDEST CALLVALUE PUSH2 0x18D JUMPI PUSH1 0x0 CALLDATASIZE PUSH1 0x3 NOT ADD SLT PUSH2 0x18D JUMPI PUSH1 0x40 MLOAD PUSH1 0x2 DUP1 SLOAD DUP1 DUP4 MSTORE PUSH1 0x0 SWAP2 DUP3 MSTORE PUSH1 0x20 DUP1 DUP5 ADD SWAP4 SWAP3 PUSH32 0x405787FA12A823E0F2B7631CC41B3BA8828B3321CA811111FA75CD3AA3BB5ACE SWAP3 SWAP2 JUMPDEST DUP3 DUP3 LT PUSH2 0x52E2 JUMPI PUSH2 0x10A8 DUP6 PUSH2 0x1D2A DUP2 DUP10 SUB DUP3 PUSH2 0x542A JUMP JUMPDEST DUP4 SLOAD DUP7 MSTORE SWAP5 DUP6 ADD SWAP5 PUSH1 0x1 SWAP4 DUP5 ADD SWAP4 SWAP1 SWAP2 ADD SWAP1 PUSH2 0x52CB JUMP JUMPDEST CALLVALUE PUSH2 0x18D JUMPI PUSH1 0x20 DUP1 PUSH1 0x3 NOT CALLDATASIZE ADD SLT PUSH2 0x18D JUMPI PUSH1 0x4 CALLDATALOAD PUSH1 0x0 MSTORE PUSH1 0x5 DUP2 MSTORE PUSH1 0x40 PUSH1 0x0 KECCAK256 SWAP1 PUSH1 0x40 MLOAD SWAP1 DUP2 DUP2 DUP5 SLOAD SWAP2 DUP3 DUP2 MSTORE ADD SWAP4 PUSH1 0x0 MSTORE DUP2 PUSH1 0x0 KECCAK256 SWAP2 PUSH1 0x0 SWAP1 JUMPDEST DUP3 DUP3 LT PUSH2 0x534C JUMPI PUSH2 0x10A8 DUP6 PUSH2 0x1D2A DUP2 DUP10 SUB DUP3 PUSH2 0x542A JUMP JUMPDEST DUP4 SLOAD DUP7 MSTORE SWAP5 DUP6 ADD SWAP5 PUSH1 0x1 SWAP4 DUP5 ADD SWAP4 SWAP1 SWAP2 ADD SWAP1 PUSH2 0x5335 JUMP JUMPDEST CALLVALUE PUSH2 0x18D JUMPI PUSH1 0x20 CALLDATASIZE PUSH1 0x3 NOT ADD SLT PUSH2 0x18D JUMPI PUSH1 0x1 PUSH1 0x1 PUSH1 0xA0 SHL SUB PUSH2 0x5384 PUSH2 0x53BD JUMP JUMPDEST AND PUSH1 0x0 MSTORE PUSH1 0x7 PUSH1 0x20 MSTORE PUSH1 0x20 PUSH1 0xFF PUSH1 0x40 PUSH1 0x0 KECCAK256 SLOAD AND PUSH1 0x40 MLOAD SWAP1 ISZERO ISZERO DUP2 MSTORE RETURN JUMPDEST CALLVALUE PUSH2 0x18D JUMPI PUSH1 0x0 CALLDATASIZE PUSH1 0x3 NOT ADD SLT PUSH2 0x18D JUMPI PUSH1 0x20 SWAP1 PUSH1 0x8 SLOAD DUP2 MSTORE RETURN JUMPDEST PUSH1 0x4 CALLDATALOAD SWAP1 PUSH1 0x1 PUSH1 0x1 PUSH1 0xA0 SHL SUB DUP3 AND DUP3 SUB PUSH2 0x18D JUMPI JUMP JUMPDEST PUSH1 0x20 SWAP1 DUP2 PUSH1 0x40 DUP2 DUP4 ADD SWAP3 DUP3 DUP2 MSTORE DUP6 MLOAD DUP1 SWAP5 MSTORE ADD SWAP4 ADD SWAP2 PUSH1 0x0 JUMPDEST DUP3 DUP2 LT PUSH2 0x53FA JUMPI POP POP POP POP SWAP1 JUMP JUMPDEST DUP4 MLOAD DUP6 MSTORE SWAP4 DUP2 ADD SWAP4 SWAP3 DUP2 ADD SWAP3 PUSH1 0x1 ADD PUSH2 0x53EC JUMP JUMPDEST PUSH2 0x140 DUP2 ADD SWAP1 DUP2 LT PUSH1 0x1 PUSH1 0x1 PUSH1 0x40 SHL SUB DUP3 GT OR PUSH2 0x675 JUMPI PUSH1 0x40 MSTORE JUMP JUMPDEST PUSH1 0x1F SWAP1 SWAP2 ADD PUSH1 0x1F NOT AND DUP2 ADD SWAP1 PUSH1 0x1 PUSH1 0x1 PUSH1 0x40 SHL SUB DUP3 GT SWAP1 DUP3 LT OR PUSH2 0x675 JUMPI PUSH1 0x40 MSTORE JUMP JUMPDEST DUP2 PUSH1 0x1F DUP3 ADD SLT ISZERO PUSH2 0x18D JUMPI DUP1 CALLDATALOAD SWAP1 PUSH1 0x1 PUSH1 0x1 PUSH1 0x40 SHL SUB DUP3 GT PUSH2 0x675 JUMPI PUSH1 0x40 MLOAD SWAP3 PUSH2 0x5481 PUSH1 0x1F DUP5 ADD PUSH1 0x1F NOT AND PUSH1 0x20 ADD DUP6 PUSH2 0x542A JUMP JUMPDEST DUP3 DUP5 MSTORE PUSH1 0x20 DUP4 DUP4 ADD ADD GT PUSH2 0x18D JUMPI DUP2 PUSH1 0x0 SWAP3 PUSH1 0x20 DUP1 SWAP4 ADD DUP4 DUP7 ADD CALLDATACOPY DUP4 ADD ADD MSTORE SWAP1 JUMP JUMPDEST PUSH1 0x60 PUSH1 0x3 NOT DUP3 ADD SLT PUSH2 0x18D JUMPI PUSH1 0x1 PUSH1 0x1 PUSH1 0x40 SHL SUB SWAP2 PUSH1 0x4 CALLDATALOAD DUP4 DUP2 GT PUSH2 0x18D JUMPI DUP3 PUSH2 0x54CF SWAP2 PUSH1 0x4 ADD PUSH2 0x544D JUMP JUMPDEST SWAP3 PUSH1 0x24 CALLDATALOAD SWAP3 PUSH1 0x44 CALLDATALOAD SWAP2 DUP3 GT PUSH2 0x18D JUMPI PUSH2 0x54EA SWAP2 PUSH1 0x4 ADD PUSH2 0x544D JUMP JUMPDEST SWAP1 JUMP JUMPDEST PUSH1 0x1 PUSH1 0x1 PUSH1 0x40 SHL SUB DUP2 GT PUSH2 0x675 JUMPI PUSH1 0x5 SHL PUSH1 0x20 ADD SWAP1 JUMP JUMPDEST SWAP1 DUP1 PUSH1 0x1F DUP4 ADD SLT ISZERO PUSH2 0x18D JUMPI DUP2 CALLDATALOAD SWAP1 PUSH2 0x551C DUP3 PUSH2 0x54ED JUMP JUMPDEST SWAP3 PUSH2 0x552A PUSH1 0x40 MLOAD SWAP5 DUP6 PUSH2 0x542A JUMP JUMPDEST DUP3 DUP5 MSTORE PUSH1 0x20 SWAP3 DUP4 DUP1 DUP7 ADD SWAP2 PUSH1 0x5 SHL DUP4 ADD ADD SWAP3 DUP1 DUP5 GT PUSH2 0x18D JUMPI DUP5 DUP4 ADD SWAP2 JUMPDEST DUP5 DUP4 LT PUSH2 0x5558 JUMPI POP POP POP POP POP POP SWAP1 JUMP JUMPDEST DUP3 CALLDATALOAD PUSH1 0x1 PUSH1 0x1 PUSH1 0x40 SHL SUB DUP2 GT PUSH2 0x18D JUMPI DUP7 SWAP2 PUSH2 0x5579 DUP5 DUP5 DUP1 SWAP5 DUP10 ADD ADD PUSH2 0x544D JUMP JUMPDEST DUP2 MSTORE ADD SWAP3 ADD SWAP2 PUSH2 0x5548 JUMP JUMPDEST PUSH1 0x0 JUMPDEST DUP4 DUP2 LT PUSH2 0x5597 JUMPI POP POP PUSH1 0x0 SWAP2 ADD MSTORE JUMP JUMPDEST DUP2 DUP2 ADD MLOAD DUP4 DUP3 ADD MSTORE PUSH1 0x20 ADD PUSH2 0x5587 JUMP JUMPDEST SWAP1 PUSH1 0x20 SWAP2 PUSH2 0x55C0 DUP2 MLOAD DUP1 SWAP3 DUP2 DUP6 MSTORE DUP6 DUP1 DUP7 ADD SWAP2 ADD PUSH2 0x5584 JUMP JUMPDEST PUSH1 0x1F ADD PUSH1 0x1F NOT AND ADD ADD SWAP1 JUMP JUMPDEST SWAP1 PUSH1 0x6 DUP3 LT ISZERO PUSH2 0x756 JUMPI MSTORE JUMP JUMPDEST SWAP1 DUP2 MLOAD DUP2 MSTORE PUSH1 0x1 DUP1 PUSH1 0xA0 SHL SUB PUSH1 0x20 DUP4 ADD MLOAD AND PUSH1 0x20 DUP3 ADD MSTORE PUSH2 0x564F PUSH2 0x5633 PUSH2 0x560F PUSH1 0x40 DUP6 ADD MLOAD PUSH2 0x140 DUP1 PUSH1 0x40 DUP8 ADD MSTORE DUP6 ADD SWAP1 PUSH2 0x55A7 JUMP JUMPDEST PUSH2 0x5621 PUSH1 0x60 DUP7 ADD MLOAD PUSH1 0x60 DUP7 ADD SWAP1 PUSH2 0x55CC JUMP JUMPDEST PUSH1 0x80 DUP6 ADD MLOAD DUP5 DUP3 SUB PUSH1 0x80 DUP7 ADD MSTORE PUSH2 0x55A7 JUMP JUMPDEST PUSH1 0xA0 DUP5 ADD MLOAD PUSH1 0xA0 DUP5 ADD MSTORE PUSH1 0xC0 DUP5 ADD MLOAD DUP4 DUP3 SUB PUSH1 0xC0 DUP6 ADD MSTORE PUSH2 0x55A7 JUMP JUMPDEST SWAP2 PUSH1 0xE0 DUP2 ADD MLOAD PUSH1 0xE0 DUP4 ADD MSTORE PUSH2 0x100 DUP1 DUP3 ADD MLOAD SWAP1 DUP4 ADD MSTORE PUSH2 0x120 DUP1 SWAP2 ADD MLOAD SWAP2 ADD MSTORE SWAP1 JUMP JUMPDEST SWAP1 DUP2 PUSH1 0x20 SWAP2 SUB SLT PUSH2 0x18D JUMPI MLOAD DUP1 ISZERO ISZERO DUP2 SUB PUSH2 0x18D JUMPI SWAP1 JUMP JUMPDEST PUSH1 0x1 PUSH1 0x1 PUSH1 0xA0 SHL SUB SWAP1 SWAP2 AND DUP2 MSTORE PUSH1 0x2 PUSH1 0x20 DUP3 ADD MSTORE PUSH1 0x40 ADD SWAP1 JUMP JUMPDEST PUSH1 0x1 PUSH1 0x1 PUSH1 0xA0 SHL SUB SWAP1 SWAP2 AND DUP2 MSTORE PUSH1 0x3 PUSH1 0x20 DUP3 ADD MSTORE PUSH1 0x40 ADD SWAP1 JUMP JUMPDEST ISZERO PUSH2 0x56C5 JUMPI JUMP JUMPDEST PUSH1 0x40 MLOAD PUSH3 0x461BCD PUSH1 0xE5 SHL DUP2 MSTORE PUSH1 0x20 PUSH1 0x4 DUP3 ADD MSTORE PUSH1 0x18 PUSH1 0x24 DUP3 ADD MSTORE PUSH24 0x105D591A5D131BD9CE881B9BDD08185D5D1A1BDC9A5E9959 PUSH1 0x42 SHL PUSH1 0x44 DUP3 ADD MSTORE PUSH1 0x64 SWAP1 REVERT JUMPDEST ISZERO PUSH2 0x570C JUMPI JUMP JUMPDEST PUSH1 0x40 MLOAD PUSH3 0x461BCD PUSH1 0xE5 SHL DUP2 MSTORE PUSH1 0x20 PUSH1 0x4 DUP3 ADD MSTORE PUSH1 0x1E PUSH1 0x24 DUP3 ADD MSTORE PUSH32 0x41756469744C6F673A206461696C79206C696D69742065786365656465640000 PUSH1 0x44 DUP3 ADD MSTORE PUSH1 0x64 SWAP1 REVERT JUMPDEST PUSH1 0x0 NOT DUP2 EQ PUSH2 0xF8C JUMPI PUSH1 0x1 ADD SWAP1 JUMP JUMPDEST PUSH1 0x6 DUP3 LT ISZERO PUSH2 0x756 JUMPI MSTORE JUMP JUMPDEST SWAP1 PUSH1 0x1 DUP3 DUP2 SHR SWAP3 AND DUP1 ISZERO PUSH2 0x579C JUMPI JUMPDEST PUSH1 0x20 DUP4 LT EQ PUSH2 0x5786 JUMPI JUMP JUMPDEST PUSH4 0x4E487B71 PUSH1 0xE0 SHL PUSH1 0x0 MSTORE PUSH1 0x22 PUSH1 0x4 MSTORE PUSH1 0x24 PUSH1 0x0 REVERT JUMPDEST SWAP2 PUSH1 0x7F AND SWAP2 PUSH2 0x577B JUMP JUMPDEST PUSH1 0x2 SLOAD DUP2 LT ISZERO PUSH2 0x57C1 JUMPI PUSH1 0x2 PUSH1 0x0 MSTORE PUSH1 0x20 PUSH1 0x0 KECCAK256 ADD SWAP1 PUSH1 0x0 SWAP1 JUMP JUMPDEST PUSH4 0x4E487B71 PUSH1 0xE0 SHL PUSH1 0x0 MSTORE PUSH1 0x32 PUSH1 0x4 MSTORE PUSH1 0x24 PUSH1 0x0 REVERT JUMPDEST PUSH1 0x2 SLOAD PUSH1 0x1 PUSH1 0x40 SHL DUP2 LT ISZERO PUSH2 0x675 JUMPI DUP1 PUSH1 0x1 PUSH2 0x57F6 SWAP3 ADD PUSH1 0x2 SSTORE PUSH2 0x57A6 JUMP JUMPDEST DUP2 SWAP3 SWAP2 SLOAD SWAP1 PUSH1 0x3 SHL SWAP2 DUP3 SHL SWAP2 PUSH1 0x0 NOT SWAP1 SHL NOT AND OR SWAP1 SSTORE JUMP JUMPDEST DUP1 SLOAD SWAP1 PUSH1 0x1 PUSH1 0x40 SHL DUP3 LT ISZERO PUSH2 0x675 JUMPI PUSH1 0x1 DUP3 ADD DUP1 DUP3 SSTORE DUP3 LT ISZERO PUSH2 0x57C1 JUMPI PUSH1 0x0 MSTORE PUSH1 0x20 PUSH1 0x0 KECCAK256 ADD SSTORE JUMP JUMPDEST SWAP4 SWAP3 SWAP2 PUSH2 0x585B SWAP1 PUSH2 0x584A DUP7 PUSH1 0x40 SWAP5 PUSH2 0x55CC JUMP JUMPDEST PUSH1 0x60 PUSH1 0x20 DUP8 ADD MSTORE PUSH1 0x60 DUP7 ADD SWAP1 PUSH2 0x55A7 JUMP JUMPDEST SWAP4 ADD MSTORE JUMP JUMPDEST SWAP5 SWAP3 SWAP1 SWAP2 SWAP4 SWAP5 PUSH2 0x5871 PUSH1 0x0 SLOAD PUSH2 0x5751 JUMP JUMPDEST SWAP7 DUP8 PUSH1 0x0 SSTORE PUSH1 0x40 MLOAD SWAP4 PUSH2 0x5883 DUP6 PUSH2 0x540E JUMP JUMPDEST DUP9 DUP6 MSTORE PUSH1 0x1 PUSH1 0x1 PUSH1 0xA0 SHL SUB DUP4 AND PUSH1 0x20 DUP7 ADD SWAP1 DUP2 MSTORE PUSH1 0x40 DUP7 ADD SWAP2 DUP3 MSTORE SWAP6 PUSH2 0x58AC DUP9 PUSH1 0x60 DUP9 ADD PUSH2 0x5760 JUMP JUMPDEST PUSH1 0x80 DUP7 ADD DUP6 SWAP1 MSTORE PUSH1 0xA0 DUP7 ADD DUP10 SWAP1 MSTORE PUSH1 0xC0 DUP7 ADD MSTORE PUSH1 0xE0 DUP6 ADD DUP3 SWAP1 MSTORE TIMESTAMP PUSH2 0x100 DUP7 ADD MSTORE NUMBER PUSH2 0x120 DUP7 ADD MSTORE PUSH1 0x0 DUP10 DUP2 MSTORE PUSH1 0x1 PUSH1 0x20 DUP2 SWAP1 MSTORE PUSH1 0x40 SWAP1 SWAP2 KECCAK256 DUP7 MLOAD DUP2 SSTORE SWAP7 MLOAD SWAP1 DUP8 ADD DUP1 SLOAD PUSH1 0x1 PUSH1 0x1 PUSH1 0xA0 SHL SUB NOT AND PUSH1 0x1 PUSH1 0x1 PUSH1 0xA0 SHL SUB SWAP3 SWAP1 SWAP3 AND SWAP2 SWAP1 SWAP2 OR SWAP1 SSTORE MLOAD DUP1 MLOAD SWAP1 PUSH1 0x1 PUSH1 0x1 PUSH1 0x40 SHL SUB DUP3 GT PUSH2 0x675 JUMPI DUP2 SWAP1 PUSH2 0x592D PUSH1 0x2 DUP10 ADD SLOAD PUSH2 0x576C JUMP JUMPDEST PUSH1 0x1F DUP2 GT PUSH2 0x5D59 JUMPI JUMPDEST POP PUSH1 0x20 SWAP1 PUSH1 0x1F DUP4 GT PUSH1 0x1 EQ PUSH2 0x5CE7 JUMPI PUSH1 0x0 SWAP3 PUSH2 0x5CDC JUMPI JUMPDEST POP POP DUP2 PUSH1 0x1 SHL SWAP2 PUSH1 0x0 NOT SWAP1 PUSH1 0x3 SHL SHR NOT AND OR PUSH1 0x2 DUP7 ADD SSTORE JUMPDEST PUSH1 0x3 DUP6 ADD PUSH1 0x60 DUP6 ADD MLOAD PUSH1 0x6 DUP2 LT ISZERO PUSH2 0x756 JUMPI PUSH1 0xFF DUP1 NOT DUP4 SLOAD AND SWAP2 AND OR SWAP1 SSTORE PUSH1 0x80 DUP5 ADD MLOAD DUP1 MLOAD SWAP1 PUSH1 0x1 DUP1 PUSH1 0x40 SHL SUB DUP3 GT PUSH2 0x675 JUMPI DUP2 SWAP1 PUSH2 0x59A7 PUSH1 0x4 DUP10 ADD SLOAD PUSH2 0x576C JUMP JUMPDEST PUSH1 0x1F DUP2 GT PUSH2 0x5C89 JUMPI JUMPDEST POP PUSH1 0x20 SWAP1 PUSH1 0x1F DUP4 GT PUSH1 0x1 EQ PUSH2 0x5C17 JUMPI PUSH1 0x0 SWAP3 PUSH2 0x5C0C JUMPI JUMPDEST POP POP DUP2 PUSH1 0x1 SHL SWAP2 PUSH1 0x0 NOT SWAP1 PUSH1 0x3 SHL SHR NOT AND OR PUSH1 0x4 DUP7 ADD SSTORE JUMPDEST PUSH1 0xA0 DUP5 ADD MLOAD PUSH1 0x5 DUP7 ADD SSTORE PUSH1 0xC0 DUP5 ADD MLOAD DUP1 MLOAD SWAP1 SWAP5 SWAP1 PUSH1 0x1 PUSH1 0x1 PUSH1 0x40 SHL SUB DUP2 GT PUSH2 0x675 JUMPI DUP10 SWAP6 PUSH2 0x5A10 PUSH1 0x6 DUP10 ADD SLOAD PUSH2 0x576C JUMP JUMPDEST PUSH1 0x1F DUP2 GT PUSH2 0x5BAF JUMPI JUMPDEST POP PUSH1 0x20 SWAP1 PUSH1 0x1F DUP4 GT PUSH1 0x1 EQ PUSH2 0x5B1E JUMPI PUSH2 0x5AF8 SWAP5 SWAP4 DUP4 PUSH1 0x0 DUP1 MLOAD PUSH1 0x20 PUSH2 0x64D4 DUP4 CODECOPY DUP2 MLOAD SWAP2 MSTORE SWAP10 SWAP11 SWAP5 PUSH1 0x9 SWAP5 PUSH2 0x120 SWAP5 PUSH1 0x0 SWAP3 PUSH2 0x5B13 JUMPI JUMPDEST POP POP DUP2 PUSH1 0x1 SHL SWAP2 PUSH1 0x0 NOT SWAP1 PUSH1 0x3 SHL SHR NOT AND OR PUSH1 0x6 DUP6 ADD SSTORE JUMPDEST PUSH1 0xE0 DUP2 ADD MLOAD PUSH1 0x7 DUP6 ADD SSTORE PUSH2 0x100 DUP2 ADD MLOAD PUSH1 0x8 DUP6 ADD SSTORE ADD MLOAD SWAP2 ADD SSTORE PUSH2 0x5A8A DUP7 PUSH2 0x57D7 JUMP JUMPDEST PUSH1 0x1 DUP1 PUSH1 0xA0 SHL SUB DUP4 AND PUSH1 0x0 MSTORE PUSH1 0x3 PUSH1 0x20 MSTORE PUSH2 0x5AA9 DUP7 PUSH1 0x40 PUSH1 0x0 KECCAK256 PUSH2 0x580E JUMP JUMPDEST PUSH2 0x5AC2 DUP7 PUSH1 0x40 MLOAD PUSH1 0x20 DUP2 DUP9 MLOAD PUSH2 0x50E DUP2 DUP4 DUP6 DUP14 ADD PUSH2 0x5584 JUMP JUMPDEST DUP8 PUSH1 0x0 MSTORE PUSH1 0x5 PUSH1 0x20 MSTORE PUSH2 0x5AD9 DUP7 PUSH1 0x40 PUSH1 0x0 KECCAK256 PUSH2 0x580E JUMP JUMPDEST DUP1 PUSH2 0x5AFE JUMPI JUMPDEST PUSH1 0x40 MLOAD PUSH1 0x1 PUSH1 0x1 PUSH1 0xA0 SHL SUB SWAP1 SWAP4 AND SWAP7 SWAP3 SWAP4 DUP5 SWAP4 DUP5 PUSH2 0x5837 JUMP JUMPDEST SUB SWAP1 LOG4 SWAP1 JUMP JUMPDEST DUP1 PUSH1 0x0 MSTORE PUSH1 0x6 PUSH1 0x20 MSTORE DUP6 PUSH1 0x40 PUSH1 0x0 KECCAK256 SSTORE PUSH2 0x5ADF JUMP JUMPDEST ADD MLOAD SWAP1 POP CODESIZE DUP1 PUSH2 0x5A4F JUMP JUMPDEST SWAP8 SWAP3 SWAP2 SWAP1 PUSH1 0x6 DUP5 ADD PUSH1 0x0 MSTORE PUSH1 0x20 PUSH1 0x0 KECCAK256 SWAP9 PUSH1 0x0 JUMPDEST PUSH1 0x1F NOT DUP5 AND DUP2 LT PUSH2 0x5B94 JUMPI POP SWAP3 PUSH1 0x1 DUP4 PUSH1 0x0 DUP1 MLOAD PUSH1 0x20 PUSH2 0x64D4 DUP4 CODECOPY DUP2 MLOAD SWAP2 MSTORE SWAP11 SWAP12 PUSH2 0x120 SWAP5 PUSH2 0x5AF8 SWAP10 SWAP9 SWAP8 PUSH1 0x9 SWAP8 PUSH1 0x1F NOT DUP2 AND LT PUSH2 0x5B7B JUMPI JUMPDEST POP POP POP DUP2 SHL ADD PUSH1 0x6 DUP6 ADD SSTORE PUSH2 0x5A67 JUMP JUMPDEST ADD MLOAD PUSH1 0x0 NOT PUSH1 0xF8 DUP5 PUSH1 0x3 SHL AND SHR NOT AND SWAP1 SSTORE CODESIZE DUP1 DUP1 PUSH2 0x5B6B JUMP JUMPDEST DUP3 DUP3 ADD MLOAD DUP12 SSTORE PUSH1 0x1 SWAP1 SWAP11 ADD SWAP10 DUP14 SWAP10 POP PUSH1 0x20 SWAP3 DUP4 ADD SWAP3 ADD PUSH2 0x5B32 JUMP JUMPDEST SWAP1 SWAP2 SWAP3 SWAP4 SWAP5 SWAP6 SWAP7 POP PUSH1 0x6 DUP9 ADD PUSH1 0x0 MSTORE PUSH1 0x20 PUSH1 0x0 KECCAK256 PUSH1 0x1F DUP5 ADD PUSH1 0x5 SHR DUP2 ADD PUSH1 0x20 DUP6 LT PUSH2 0x5C05 JUMPI JUMPDEST SWAP1 DUP13 SWAP9 SWAP8 SWAP7 SWAP6 SWAP5 SWAP4 SWAP3 SWAP2 JUMPDEST PUSH1 0x1F DUP4 ADD PUSH1 0x5 SHR DUP3 ADD DUP2 LT PUSH2 0x5BF6 JUMPI POP POP PUSH2 0x5A19 JUMP JUMPDEST PUSH1 0x0 DUP2 SSTORE DUP14 SWAP10 POP PUSH1 0x1 ADD PUSH2 0x5BE0 JUMP JUMPDEST POP DUP1 PUSH2 0x5BD5 JUMP JUMPDEST ADD MLOAD SWAP1 POP CODESIZE DUP1 PUSH2 0x59C7 JUMP JUMPDEST SWAP3 POP PUSH1 0x4 DUP9 ADD PUSH1 0x0 MSTORE PUSH1 0x20 PUSH1 0x0 KECCAK256 SWAP1 PUSH1 0x0 SWAP4 JUMPDEST PUSH1 0x1F NOT DUP5 AND DUP6 LT PUSH2 0x5C6E JUMPI PUSH1 0x1 SWAP5 POP DUP4 PUSH1 0x1F NOT DUP2 AND LT PUSH2 0x5C55 JUMPI JUMPDEST POP POP POP DUP2 SHL ADD PUSH1 0x4 DUP7 ADD SSTORE PUSH2 0x59DF JUMP JUMPDEST ADD MLOAD PUSH1 0x0 NOT PUSH1 0xF8 DUP5 PUSH1 0x3 SHL AND SHR NOT AND SWAP1 SSTORE CODESIZE DUP1 DUP1 PUSH2 0x5C45 JUMP JUMPDEST DUP2 DUP2 ADD MLOAD DUP4 SSTORE PUSH1 0x20 SWAP5 DUP6 ADD SWAP5 PUSH1 0x1 SWAP1 SWAP4 ADD SWAP3 SWAP1 SWAP2 ADD SWAP1 PUSH2 0x5C2A JUMP JUMPDEST SWAP1 SWAP2 POP PUSH1 0x4 DUP9 ADD PUSH1 0x0 MSTORE PUSH1 0x20 PUSH1 0x0 KECCAK256 PUSH1 0x1F DUP5 ADD PUSH1 0x5 SHR DUP2 ADD PUSH1 0x20 DUP6 LT PUSH2 0x5CD5 JUMPI JUMPDEST SWAP1 DUP5 SWAP4 SWAP3 SWAP2 JUMPDEST PUSH1 0x1F DUP4 ADD PUSH1 0x5 SHR DUP3 ADD DUP2 LT PUSH2 0x5CC6 JUMPI POP POP PUSH2 0x59B0 JUMP JUMPDEST PUSH1 0x0 DUP2 SSTORE DUP6 SWAP5 POP PUSH1 0x1 ADD PUSH2 0x5CB0 JUMP JUMPDEST POP DUP1 PUSH2 0x5CAA JUMP JUMPDEST ADD MLOAD SWAP1 POP CODESIZE DUP1 PUSH2 0x594D JUMP JUMPDEST SWAP3 POP PUSH1 0x2 DUP9 ADD PUSH1 0x0 MSTORE PUSH1 0x20 PUSH1 0x0 KECCAK256 SWAP1 PUSH1 0x0 SWAP4 JUMPDEST PUSH1 0x1F NOT DUP5 AND DUP6 LT PUSH2 0x5D3E JUMPI PUSH1 0x1 SWAP5 POP DUP4 PUSH1 0x1F NOT DUP2 AND LT PUSH2 0x5D25 JUMPI JUMPDEST POP POP POP DUP2 SHL ADD PUSH1 0x2 DUP7 ADD SSTORE PUSH2 0x5965 JUMP JUMPDEST ADD MLOAD PUSH1 0x0 NOT PUSH1 0xF8 DUP5 PUSH1 0x3 SHL AND SHR NOT AND SWAP1 SSTORE CODESIZE DUP1 DUP1 PUSH2 0x5D15 JUMP JUMPDEST DUP2 DUP2 ADD MLOAD DUP4 SSTORE PUSH1 0x20 SWAP5 DUP6 ADD SWAP5 PUSH1 0x1 SWAP1 SWAP4 ADD SWAP3 SWAP1 SWAP2 ADD SWAP1 PUSH2 0x5CFA JUMP JUMPDEST SWAP1 SWAP2 POP PUSH1 0x2 DUP9 ADD PUSH1 0x0 MSTORE PUSH1 0x20 PUSH1 0x0 KECCAK256 PUSH1 0x1F DUP5 ADD PUSH1 0x5 SHR DUP2 ADD PUSH1 0x20 DUP6 LT PUSH2 0x5DA5 JUMPI JUMPDEST SWAP1 DUP5 SWAP4 SWAP3 SWAP2 JUMPDEST PUSH1 0x1F DUP4 ADD PUSH1 0x5 SHR DUP3 ADD DUP2 LT PUSH2 0x5D96 JUMPI POP POP PUSH2 0x5936 JUMP JUMPDEST PUSH1 0x0 DUP2 SSTORE DUP6 SWAP5 POP PUSH1 0x1 ADD PUSH2 0x5D80 JUMP JUMPDEST POP DUP1 PUSH2 0x5D7A JUMP JUMPDEST PUSH1 0x40 DUP1 MLOAD SWAP2 SWAP1 DUP3 ADD PUSH1 0x1 PUSH1 0x1 PUSH1 0x40 SHL SUB DUP2 GT DUP4 DUP3 LT OR PUSH2 0x675 JUMPI PUSH1 0x40 MSTORE PUSH1 0x6 DUP3 MSTORE PUSH6 0x53797374656D PUSH1 0xD0 SHL PUSH1 0x20 DUP4 ADD MSTORE JUMP JUMPDEST SWAP3 SWAP1 SWAP2 PUSH2 0x5DEC PUSH1 0x0 SLOAD PUSH2 0x5751 JUMP JUMPDEST SWAP4 DUP5 PUSH1 0x0 SSTORE PUSH1 0x40 MLOAD SWAP2 PUSH2 0x5DFE DUP4 PUSH2 0x540E JUMP JUMPDEST DUP6 DUP4 MSTORE CALLER PUSH1 0x20 DUP5 ADD MSTORE PUSH2 0x5E0F PUSH2 0x5DAC JUMP JUMPDEST PUSH1 0x40 DUP5 ADD MSTORE PUSH1 0x5 PUSH1 0x60 DUP5 ADD MSTORE DUP2 PUSH1 0x80 DUP5 ADD MSTORE DUP5 PUSH1 0xA0 DUP5 ADD MSTORE PUSH1 0xC0 DUP4 ADD MSTORE DUP3 PUSH1 0xE0 DUP4 ADD MSTORE TIMESTAMP PUSH2 0x100 DUP4 ADD MSTORE NUMBER PUSH2 0x120 DUP4 ADD MSTORE DUP5 PUSH1 0x0 MSTORE PUSH1 0x1 PUSH1 0x20 MSTORE PUSH1 0x40 PUSH1 0x0 KECCAK256 SWAP1 DUP3 MLOAD DUP3 SSTORE PUSH1 0x1 DUP3 ADD PUSH1 0x1 DUP1 PUSH1 0xA0 SHL SUB PUSH1 0x20 DUP6 ADD MLOAD AND PUSH1 0x1 DUP1 PUSH1 0xA0 SHL SUB NOT DUP3 SLOAD AND OR SWAP1 SSTORE PUSH1 0x40 DUP4 ADD MLOAD DUP1 MLOAD SWAP1 PUSH1 0x1 DUP1 PUSH1 0x40 SHL SUB DUP3 GT PUSH2 0x675 JUMPI DUP2 SWAP1 PUSH2 0x5E96 PUSH1 0x2 DUP7 ADD SLOAD PUSH2 0x576C JUMP JUMPDEST PUSH1 0x1F DUP2 GT PUSH2 0x62AD JUMPI JUMPDEST POP PUSH1 0x20 SWAP1 PUSH1 0x1F DUP4 GT PUSH1 0x1 EQ PUSH2 0x623B JUMPI PUSH1 0x0 SWAP3 PUSH2 0x6230 JUMPI JUMPDEST POP POP DUP2 PUSH1 0x1 SHL SWAP2 PUSH1 0x0 NOT SWAP1 PUSH1 0x3 SHL SHR NOT AND OR PUSH1 0x2 DUP4 ADD SSTORE JUMPDEST PUSH1 0x60 DUP4 ADD MLOAD PUSH1 0x6 DUP2 LT ISZERO PUSH2 0x756 JUMPI PUSH1 0x3 DUP4 ADD SWAP1 PUSH1 0xFF DUP1 NOT DUP4 SLOAD AND SWAP2 AND OR SWAP1 SSTORE PUSH1 0x80 DUP4 ADD MLOAD DUP1 MLOAD SWAP1 PUSH1 0x1 DUP1 PUSH1 0x40 SHL SUB DUP3 GT PUSH2 0x675 JUMPI DUP2 SWAP1 PUSH2 0x5F11 PUSH1 0x4 DUP7 ADD SLOAD PUSH2 0x576C JUMP JUMPDEST PUSH1 0x1F DUP2 GT PUSH2 0x61DD JUMPI JUMPDEST POP PUSH1 0x20 SWAP1 PUSH1 0x1F DUP4 GT PUSH1 0x1 EQ PUSH2 0x616B JUMPI PUSH1 0x0 SWAP3 PUSH2 0x6160 JUMPI JUMPDEST POP POP DUP2 PUSH1 0x1 SHL SWAP2 PUSH1 0x0 NOT SWAP1 PUSH1 0x3 SHL SHR NOT AND OR PUSH1 0x4 DUP4 ADD SSTORE JUMPDEST PUSH1 0xA0 DUP4 ADD MLOAD PUSH1 0x5 DUP4 ADD SSTORE PUSH1 0xC0 DUP4 ADD MLOAD DUP1 MLOAD SWAP4 SWAP1 SWAP3 SWAP1 PUSH1 0x1 PUSH1 0x1 PUSH1 0x40 SHL SUB DUP6 GT PUSH2 0x675 JUMPI DUP8 SWAP4 PUSH2 0x5F7B PUSH1 0x6 DUP5 ADD SLOAD PUSH2 0x576C JUMP JUMPDEST PUSH1 0x1F DUP2 GT PUSH2 0x6107 JUMPI JUMPDEST POP PUSH1 0x20 SWAP1 PUSH1 0x1F DUP8 GT PUSH1 0x1 EQ PUSH2 0x607D JUMPI SWAP2 DUP7 PUSH1 0x0 DUP1 MLOAD PUSH1 0x20 PUSH2 0x64D4 DUP4 CODECOPY DUP2 MLOAD SWAP2 MSTORE SWAP7 SWAP8 PUSH2 0x120 SWAP4 PUSH1 0x9 SWAP6 PUSH1 0x0 SWAP3 PUSH2 0x6072 JUMPI JUMPDEST POP POP DUP2 PUSH1 0x1 SHL SWAP2 PUSH1 0x0 NOT SWAP1 PUSH1 0x3 SHL SHR NOT AND OR PUSH1 0x6 DUP6 ADD SSTORE JUMPDEST PUSH1 0xE0 DUP2 ADD MLOAD PUSH1 0x7 DUP6 ADD SSTORE PUSH2 0x100 DUP2 ADD MLOAD PUSH1 0x8 DUP6 ADD SSTORE ADD MLOAD SWAP2 ADD SSTORE PUSH2 0x5FF0 DUP4 PUSH2 0x57D7 JUMP JUMPDEST CALLER PUSH1 0x0 MSTORE PUSH1 0x3 PUSH1 0x20 MSTORE PUSH2 0x6007 DUP4 PUSH1 0x40 PUSH1 0x0 KECCAK256 PUSH2 0x580E JUMP JUMPDEST PUSH2 0x6020 DUP4 PUSH1 0x40 MLOAD PUSH1 0x20 DUP2 DUP6 MLOAD PUSH2 0x50E DUP2 DUP4 DUP6 DUP11 ADD PUSH2 0x5584 JUMP JUMPDEST DUP5 PUSH1 0x0 MSTORE PUSH1 0x5 PUSH1 0x20 MSTORE PUSH2 0x6037 DUP4 PUSH1 0x40 PUSH1 0x0 KECCAK256 PUSH2 0x580E JUMP JUMPDEST DUP4 PUSH1 0x0 MSTORE PUSH1 0x6 PUSH1 0x20 MSTORE DUP3 PUSH1 0x40 PUSH1 0x0 KECCAK256 SSTORE PUSH2 0x6063 PUSH1 0x40 MLOAD SWAP2 PUSH1 0x5 DUP4 MSTORE PUSH1 0x60 PUSH1 0x20 DUP5 ADD MSTORE PUSH1 0x60 DUP4 ADD SWAP1 PUSH2 0x55A7 JUMP JUMPDEST SWAP4 PUSH1 0x40 DUP3 ADD MSTORE DUP1 CALLER SWAP5 SUB SWAP1 LOG4 SWAP1 JUMP JUMPDEST ADD MLOAD SWAP1 POP CODESIZE DUP1 PUSH2 0x5FB5 JUMP JUMPDEST SWAP6 SWAP1 PUSH1 0x6 DUP5 ADD PUSH1 0x0 MSTORE PUSH1 0x20 PUSH1 0x0 KECCAK256 SWAP7 PUSH1 0x0 JUMPDEST PUSH1 0x1F NOT DUP5 AND DUP2 LT PUSH2 0x60EC JUMPI POP DUP3 PUSH1 0x0 DUP1 MLOAD PUSH1 0x20 PUSH2 0x64D4 DUP4 CODECOPY DUP2 MLOAD SWAP2 MSTORE SWAP8 SWAP9 PUSH1 0x9 SWAP6 SWAP4 PUSH1 0x1 SWAP4 PUSH2 0x120 SWAP7 PUSH1 0x1F NOT DUP2 AND LT PUSH2 0x60D3 JUMPI JUMPDEST POP POP POP DUP2 SHL ADD PUSH1 0x6 DUP6 ADD SSTORE PUSH2 0x5FCD JUMP JUMPDEST ADD MLOAD PUSH1 0x0 NOT PUSH1 0xF8 DUP5 PUSH1 0x3 SHL AND SHR NOT AND SWAP1 SSTORE CODESIZE DUP1 DUP1 PUSH2 0x60C3 JUMP JUMPDEST DUP3 DUP3 ADD MLOAD DUP10 SSTORE PUSH1 0x1 SWAP1 SWAP9 ADD SWAP8 DUP12 SWAP8 POP PUSH1 0x20 SWAP3 DUP4 ADD SWAP3 ADD PUSH2 0x608F JUMP JUMPDEST SWAP1 SWAP2 SWAP3 SWAP4 SWAP5 POP PUSH1 0x6 DUP5 ADD PUSH1 0x0 MSTORE PUSH1 0x20 PUSH1 0x0 KECCAK256 PUSH1 0x1F DUP8 ADD PUSH1 0x5 SHR DUP2 ADD PUSH1 0x20 DUP9 LT PUSH2 0x6159 JUMPI JUMPDEST SWAP1 DUP11 SWAP7 SWAP6 SWAP5 SWAP4 SWAP3 SWAP2 JUMPDEST PUSH1 0x1F DUP4 ADD PUSH1 0x5 SHR DUP3 ADD DUP2 LT PUSH2 0x614A JUMPI POP POP PUSH2 0x5F84 JUMP JUMPDEST PUSH1 0x0 DUP2 SSTORE DUP12 SWAP8 POP PUSH1 0x1 ADD PUSH2 0x6134 JUMP JUMPDEST POP DUP1 PUSH2 0x612B JUMP JUMPDEST ADD MLOAD SWAP1 POP CODESIZE DUP1 PUSH2 0x5F31 JUMP JUMPDEST SWAP3 POP PUSH1 0x4 DUP6 ADD PUSH1 0x0 MSTORE PUSH1 0x20 PUSH1 0x0 KECCAK256 SWAP1 PUSH1 0x0 SWAP4 JUMPDEST PUSH1 0x1F NOT DUP5 AND DUP6 LT PUSH2 0x61C2 JUMPI PUSH1 0x1 SWAP5 POP DUP4 PUSH1 0x1F NOT DUP2 AND LT PUSH2 0x61A9 JUMPI JUMPDEST POP POP POP DUP2 SHL ADD PUSH1 0x4 DUP4 ADD SSTORE PUSH2 0x5F49 JUMP JUMPDEST ADD MLOAD PUSH1 0x0 NOT PUSH1 0xF8 DUP5 PUSH1 0x3 SHL AND SHR NOT AND SWAP1 SSTORE CODESIZE DUP1 DUP1 PUSH2 0x6199 JUMP JUMPDEST DUP2 DUP2 ADD MLOAD DUP4 SSTORE PUSH1 0x20 SWAP5 DUP6 ADD SWAP5 PUSH1 0x1 SWAP1 SWAP4 ADD SWAP3 SWAP1 SWAP2 ADD SWAP1 PUSH2 0x617E JUMP JUMPDEST SWAP1 SWAP2 POP PUSH1 0x4 DUP6 ADD PUSH1 0x0 MSTORE PUSH1 0x20 PUSH1 0x0 KECCAK256 PUSH1 0x1F DUP5 ADD PUSH1 0x5 SHR DUP2 ADD PUSH1 0x20 DUP6 LT PUSH2 0x6229 JUMPI JUMPDEST SWAP1 DUP5 SWAP4 SWAP3 SWAP2 JUMPDEST PUSH1 0x1F DUP4 ADD PUSH1 0x5 SHR DUP3 ADD DUP2 LT PUSH2 0x621A JUMPI POP POP PUSH2 0x5F1A JUMP JUMPDEST PUSH1 0x0 DUP2 SSTORE DUP6 SWAP5 POP PUSH1 0x1 ADD PUSH2 0x6204 JUMP JUMPDEST POP DUP1 PUSH2 0x61FE JUMP JUMPDEST ADD MLOAD SWAP1 POP CODESIZE DUP1 PUSH2 0x5EB6 JUMP JUMPDEST SWAP3 POP PUSH1 0x2 DUP6 ADD PUSH1 0x0 MSTORE PUSH1 0x20 PUSH1 0x0 KECCAK256 SWAP1 PUSH1 0x0 SWAP4 JUMPDEST PUSH1 0x1F NOT DUP5 AND DUP6 LT PUSH2 0x6292 JUMPI PUSH1 0x1 SWAP5 POP DUP4 PUSH1 0x1F NOT DUP2 AND LT PUSH2 0x6279 JUMPI JUMPDEST POP POP POP DUP2 SHL ADD PUSH1 0x2 DUP4 ADD SSTORE PUSH2 0x5ECE JUMP JUMPDEST ADD MLOAD PUSH1 0x0 NOT PUSH1 0xF8 DUP5 PUSH1 0x3 SHL AND SHR NOT AND SWAP1 SSTORE CODESIZE DUP1 DUP1 PUSH2 0x6269 JUMP JUMPDEST DUP2 DUP2 ADD MLOAD DUP4 SSTORE PUSH1 0x20 SWAP5 DUP6 ADD SWAP5 PUSH1 0x1 SWAP1 SWAP4 ADD SWAP3 SWAP1 SWAP2 ADD SWAP1 PUSH2 0x624E JUMP JUMPDEST SWAP1 SWAP2 POP PUSH1 0x2 DUP6 ADD PUSH1 0x0 MSTORE PUSH1 0x20 PUSH1 0x0 KECCAK256 PUSH1 0x1F DUP5 ADD PUSH1 0x5 SHR DUP2 ADD PUSH1 0x20 DUP6 LT PUSH2 0x62F9 JUMPI JUMPDEST SWAP1 DUP5 SWAP4 SWAP3 SWAP2 JUMPDEST PUSH1 0x1F DUP4 ADD PUSH1 0x5 SHR DUP3 ADD DUP2 LT PUSH2 0x62EA JUMPI POP POP PUSH2 0x5E9F JUMP JUMPDEST PUSH1 0x0 DUP2 SSTORE DUP6 SWAP5 POP PUSH1 0x1 ADD PUSH2 0x62D4 JUMP JUMPDEST POP DUP1 PUSH2 0x62CE JUMP JUMPDEST ISZERO PUSH2 0x6307 JUMPI JUMP JUMPDEST PUSH1 0x40 MLOAD PUSH3 0x461BCD PUSH1 0xE5 SHL DUP2 MSTORE PUSH1 0x20 PUSH1 0x4 DUP3 ADD MSTORE PUSH1 0x1D PUSH1 0x24 DUP3 ADD MSTORE PUSH32 0x41756469744C6F673A2063616C6C6572206973206E6F742061646D696E000000 PUSH1 0x44 DUP3 ADD MSTORE PUSH1 0x64 SWAP1 REVERT JUMPDEST DUP1 MLOAD DUP3 LT ISZERO PUSH2 0x57C1 JUMPI PUSH1 0x20 SWAP2 PUSH1 0x5 SHL ADD ADD SWAP1 JUMP JUMPDEST PUSH1 0x40 MLOAD SWAP1 PUSH2 0x636D DUP3 PUSH2 0x540E JUMP JUMPDEST DUP2 PUSH2 0x120 PUSH1 0x0 SWAP2 DUP3 DUP2 MSTORE DUP3 PUSH1 0x20 DUP3 ADD MSTORE PUSH1 0x60 PUSH1 0x40 DUP3 ADD MSTORE DUP3 PUSH1 0x60 DUP3 ADD MSTORE PUSH1 0x60 PUSH1 0x80 DUP3 ADD MSTORE DUP3 PUSH1 0xA0 DUP3 ADD MSTORE PUSH1 0x60 PUSH1 0xC0 DUP3 ADD MSTORE DUP3 PUSH1 0xE0 DUP3 ADD MSTORE DUP3 PUSH2 0x100 DUP3 ADD MSTORE ADD MSTORE JUMP JUMPDEST SWAP1 PUSH1 0x40 MLOAD SWAP2 DUP3 PUSH1 0x0 DUP3 SLOAD SWAP3 PUSH2 0x63C3 DUP5 PUSH2 0x576C JUMP JUMPDEST SWAP1 DUP2 DUP5 MSTORE PUSH1 0x1 SWAP5 DUP6 DUP2 AND SWAP1 DUP2 PUSH1 0x0 EQ PUSH2 0x6432 JUMPI POP PUSH1 0x1 EQ PUSH2 0x63EF JUMPI JUMPDEST POP POP PUSH2 0x63ED SWAP3 POP SUB DUP4 PUSH2 0x542A JUMP JUMPDEST JUMP JUMPDEST SWAP1 SWAP4 SWAP2 POP PUSH1 0x0 MSTORE PUSH1 0x20 SWAP1 DUP2 PUSH1 0x0 KECCAK256 SWAP4 PUSH1 0x0 SWAP2 JUMPDEST DUP2 DUP4 LT PUSH2 0x641A JUMPI POP POP PUSH2 0x63ED SWAP4 POP DUP3 ADD ADD CODESIZE DUP1 PUSH2 0x63DF JUMP JUMPDEST DUP6 SLOAD DUP9 DUP5 ADD DUP6 ADD MSTORE SWAP5 DUP6 ADD SWAP5 DUP8 SWAP5 POP SWAP2 DUP4 ADD SWAP2 PUSH2 0x6402 JUMP JUMPDEST SWAP2 POP POP PUSH2 0x63ED SWAP5 POP PUSH1 0x20 SWAP3 POP PUSH1 0xFF NOT AND DUP3 DUP5 ADD MSTORE ISZERO ISZERO PUSH1 0x5 SHL DUP3 ADD ADD CODESIZE DUP1 PUSH2 0x63DF JUMP JUMPDEST ISZERO PUSH2 0x645C JUMPI JUMP JUMPDEST PUSH1 0x40 MLOAD PUSH3 0x461BCD PUSH1 0xE5 SHL DUP2 MSTORE PUSH1 0x20 PUSH1 0x4 DUP3 ADD MSTORE PUSH1 0x1E PUSH1 0x24 DUP3 ADD MSTORE PUSH32 0x41756469744C6F673A20656E74727920646F6573206E6F742065786973740000 PUSH1 0x44 DUP3 ADD MSTORE PUSH1 0x64 SWAP1 REVERT JUMPDEST SWAP1 PUSH2 0x64AB DUP3 PUSH2 0x54ED JUMP JUMPDEST PUSH2 0x64B8 PUSH1 0x40 MLOAD SWAP2 DUP3 PUSH2 0x542A JUMP JUMPDEST DUP3 DUP2 MSTORE DUP1 SWAP3 PUSH2 0x64C9 PUSH1 0x1F NOT SWAP2 PUSH2 0x54ED JUMP JUMPDEST ADD SWAP1 PUSH1 0x20 CALLDATASIZE SWAP2 ADD CALLDATACOPY JUMP INVALID 0x2B ORIGIN CALL PUSH18 0xDF3023A9C6E3AAF128C89842C3BA1E110509 PUSH12 0x7E85BD76FB2378DF3A26469 PUSH17 0x667358221220A23E6EE0140E5BC023AE85 0x4E PUSH6 0x581AAEE0C73F INVALID DUP4 0xB1 MULMOD 0xF6 0xAE 0xBD PUSH12 0xBA1C0997E164736F6C634300 ADDMOD SGT STOP CALLER "},"methodIdentifiers":{"authorizeModule(address)":"a30a8e71","authorizedModules(address)":"17f6fe5b","batchLogEntries(address[],string[],uint8[],string[],uint256[],string[])":"5e1fa7bf","core()":"f2f4eb26","dailyLimitPerUser()":"0ce3d863","deauthorizeModule(address)":"52f00b05","getAllEntryIds()":"1b9efecd","getAuditStats()":"7d7aed9e","getEntriesByAction(uint8)":"45b45471","getEntriesByEntityId(uint256)":"1b5b0148","getEntriesByEntityType(string)":"92860ff2","getEntriesByUser(address)":"ad723673","getEntriesInRange(uint256,uint256)":"9c32f6b4","getEntry(uint256)":"bae78d7b","getEntryByHash(bytes32)":"93cb8108","getEntryCount()":"7a360e65","getRecentEntries(uint256)":"c2b0ad4b","logCreate(string,uint256,string)":"26871902","logDelete(string,uint256,string)":"e271105f","logEntry(address,string,uint8,string,uint256,string,bytes32)":"81328997","logStatusChange(string,uint256,string)":"7bf2abdc","logTransfer(string,uint256,string)":"af8c57e7","logUpdate(string,uint256,string)":"650834d6","logVerification(string,uint256,string,bytes32)":"a252b87e","setDailyLimit(uint256)":"b20d30a9","verifyEntryIntegrity(uint256,bytes32)":"6191043b","verifyHash(bytes32)":"ef020f4a"}}}}}