{"contracts/BlockERPCore.sol":{"BlockERPCore":{"abi":[{"inputs":[{"internalType":"string","name":"_companyName","type":"string"},{"internalType":"string","name":"_registrationNumber","type":"string"},{"internalType":"string","name":"_country","type":"string"}],"stateMutability":"nonpayable","type":"constructor"},{"anonymous":false,"inputs":[{"indexed":false,"internalType":"string","name":"name","type":"string"},{"indexed":true,"internalType":"address","name":"updatedBy","type":"address"}],"name":"CompanyInfoUpdated","type":"event"},{"anonymous":false,"inputs":[{"indexed":true,"internalType":"string","name":"moduleName","type":"string"},{"indexed":false,"internalType":"address","name":"moduleAddress","type":"address"}],"name":"ModuleRegistered","type":"event"},{"anonymous":false,"inputs":[{"indexed":true,"internalType":"string","name":"moduleName","type":"string"},{"indexed":false,"internalType":"address","name":"oldAddress","type":"address"},{"indexed":false,"internalType":"address","name":"newAddress","type":"address"}],"name":"ModuleUpdated","type":"event"},{"anonymous":false,"inputs":[{"indexed":true,"internalType":"address","name":"previousOwner","type":"address"},{"indexed":true,"internalType":"address","name":"newOwner","type":"address"}],"name":"OwnershipTransferred","type":"event"},{"anonymous":false,"inputs":[{"indexed":true,"internalType":"address","name":"account","type":"address"},{"indexed":false,"internalType":"enum IAccessControl.Role","name":"role","type":"uint8"},{"indexed":true,"internalType":"address","name":"grantor","type":"address"}],"name":"RoleGranted","type":"event"},{"anonymous":false,"inputs":[{"indexed":true,"internalType":"address","name":"account","type":"address"},{"indexed":false,"internalType":"enum IAccessControl.Role","name":"role","type":"uint8"},{"indexed":true,"internalType":"address","name":"revoker","type":"address"}],"name":"RoleRevoked","type":"event"},{"anonymous":false,"inputs":[{"indexed":true,"internalType":"address","name":"by","type":"address"}],"name":"SystemPaused","type":"event"},{"anonymous":false,"inputs":[{"indexed":true,"internalType":"address","name":"by","type":"address"}],"name":"SystemUnpaused","type":"event"},{"inputs":[{"internalType":"enum IAccessControl.Role","name":"minRole","type":"uint8"}],"name":"checkAccess","outputs":[{"internalType":"bool","name":"","type":"bool"}],"stateMutability":"view","type":"function"},{"inputs":[],"name":"company","outputs":[{"internalType":"string","name":"name","type":"string"},{"internalType":"string","name":"registrationNumber","type":"string"},{"internalType":"string","name":"country","type":"string"},{"internalType":"string","name":"website","type":"string"},{"internalType":"bool","name":"isVerified","type":"bool"}],"stateMutability":"view","type":"function"},{"inputs":[],"name":"deployedAt","outputs":[{"internalType":"uint256","name":"","type":"uint256"}],"stateMutability":"view","type":"function"},{"inputs":[],"name":"getAllUsers","outputs":[{"internalType":"address[]","name":"","type":"address[]"}],"stateMutability":"view","type":"function"},{"inputs":[],"name":"getCompanyInfo","outputs":[{"components":[{"internalType":"string","name":"name","type":"string"},{"internalType":"string","name":"registrationNumber","type":"string"},{"internalType":"string","name":"country","type":"string"},{"internalType":"string","name":"website","type":"string"},{"internalType":"bool","name":"isVerified","type":"bool"}],"internalType":"struct BlockERPCore.CompanyInfo","name":"","type":"tuple"}],"stateMutability":"view","type":"function"},{"inputs":[{"internalType":"string","name":"moduleName","type":"string"}],"name":"getModule","outputs":[{"internalType":"address","name":"","type":"address"}],"stateMutability":"view","type":"function"},{"inputs":[{"internalType":"address","name":"account","type":"address"}],"name":"getRole","outputs":[{"internalType":"enum IAccessControl.Role","name":"","type":"uint8"}],"stateMutability":"view","type":"function"},{"inputs":[],"name":"getSystemStatus","outputs":[{"internalType":"bool","name":"isPaused","type":"bool"},{"internalType":"uint256","name":"_deployedAt","type":"uint256"},{"internalType":"uint256","name":"userCount","type":"uint256"},{"internalType":"address","name":"_owner","type":"address"}],"stateMutability":"view","type":"function"},{"inputs":[],"name":"getUserCount","outputs":[{"internalType":"uint256","name":"","type":"uint256"}],"stateMutability":"view","type":"function"},{"inputs":[{"internalType":"address","name":"account","type":"address"},{"internalType":"enum IAccessControl.Role","name":"role","type":"uint8"}],"name":"grantRole","outputs":[],"stateMutability":"nonpayable","type":"function"},{"inputs":[{"internalType":"address","name":"account","type":"address"},{"internalType":"enum IAccessControl.Role","name":"role","type":"uint8"}],"name":"hasRole","outputs":[{"internalType":"bool","name":"","type":"bool"}],"stateMutability":"view","type":"function"},{"inputs":[{"internalType":"address","name":"","type":"address"}],"name":"isRegistered","outputs":[{"internalType":"bool","name":"","type":"bool"}],"stateMutability":"view","type":"function"},{"inputs":[{"internalType":"string","name":"","type":"string"}],"name":"modules","outputs":[{"internalType":"address","name":"","type":"address"}],"stateMutability":"view","type":"function"},{"inputs":[],"name":"owner","outputs":[{"internalType":"address","name":"","type":"address"}],"stateMutability":"view","type":"function"},{"inputs":[],"name":"pause","outputs":[],"stateMutability":"nonpayable","type":"function"},{"inputs":[],"name":"paused","outputs":[{"internalType":"bool","name":"","type":"bool"}],"stateMutability":"view","type":"function"},{"inputs":[{"internalType":"string","name":"moduleName","type":"string"},{"internalType":"address","name":"moduleAddress","type":"address"}],"name":"registerModule","outputs":[],"stateMutability":"nonpayable","type":"function"},{"inputs":[{"internalType":"address","name":"account","type":"address"}],"name":"revokeRole","outputs":[],"stateMutability":"nonpayable","type":"function"},{"inputs":[{"internalType":"address","name":"newOwner","type":"address"}],"name":"transferOwnership","outputs":[],"stateMutability":"nonpayable","type":"function"},{"inputs":[],"name":"unpause","outputs":[],"stateMutability":"nonpayable","type":"function"},{"inputs":[{"internalType":"string","name":"_name","type":"string"},{"internalType":"string","name":"_website","type":"string"}],"name":"updateCompanyInfo","outputs":[],"stateMutability":"nonpayable","type":"function"},{"inputs":[{"internalType":"string","name":"moduleName","type":"string"},{"internalType":"address","name":"newAddress","type":"address"}],"name":"updateModule","outputs":[],"stateMutability":"nonpayable","type":"function"},{"inputs":[{"internalType":"uint256","name":"","type":"uint256"}],"name":"users","outputs":[{"internalType":"address","name":"","type":"address"}],"stateMutability":"view","type":"function"},{"inputs":[],"name":"verifyCompany","outputs":[],"stateMutability":"nonpayable","type":"function"}],"evm":{"bytecode":{"linkReferences":{},"object":"608060405234620007ac57620020a5803803806200001d81620007b1565b9283398101606082820312620007ac5781516001600160401b038111620007ac57816200004c918401620007d7565b60208301519092906001600160401b038111620007ac578262000071918301620007d7565b60408201519092906001600160401b038111620007ac57620000949201620007d7565b9060018060a01b031933816000541617600055426001553360005260036020526040600020600360ff19825416179055600554680100000000000000008110156200049557600181018060055581101562000796577f036b6384b5eca791c62761152d0c79bb0604c104a5fb6f4eb0703f3154bb3db00180543392168217905560009081526006602052604090819020805460ff19166001179055519260a084018481106001600160401b0382111762000495576040528352602083015260408201526040516020810181811060018060401b03821117620004955760405260008082526060830191909152608082015280518051906001600160401b038211620004955760075490600182811c921680156200078b575b6020831014620004745781601f84931162000727575b50602090601f8311600114620006a9576000926200069d575b50508160011b916000199060031b1c1916176007555b60208101518051906001600160401b038211620004955760085490600182811c9216801562000692575b6020831014620004745781601f8493116200062e575b50602090601f8311600114620005b057600092620005a4575b50508160011b916000199060031b1c1916176008555b60408101518051906001600160401b038211620004955760095490600182811c9216801562000599575b6020831014620004745781601f84931162000535575b50602090601f8311600114620004b757600092620004ab575b50508160011b916000199060031b1c1916176009555b6060810151805191906001600160401b0383116200049557600a54600181811c911680156200048a575b60208210146200047457601f81116200041b575b50602090601f84116001146200039e57608093916000918362000392575b50508160011b916000199060031b1c191617600a555b0151151560ff8019600b5416911617600b556040516003815233907f454d3be37ac6a7b902340e5413df5663e10f86d1a576286058188216404a88ef60203392a36040516117db90816200084a8239f35b0151905038806200032b565b600a600090815260008051602062002025833981519152929190601f198616905b8181106200040257509160019391866080979410620003e8575b505050811b01600a5562000341565b015160001960f88460031b161c19169055388080620003d9565b92936020600181928786015181550195019301620003bf565b600a60005260008051602062002025833981519152601f850160051c8101916020861062000469575b601f0160051c01905b8181106200045c57506200030d565b600081556001016200044d565b909150819062000444565b634e487b7160e01b600052602260045260246000fd5b90607f1690620002f9565b634e487b7160e01b600052604160045260246000fd5b015190503880620002b9565b6009600090815293506000805160206200208583398151915291905b601f198416851062000519576001945083601f19811610620004ff575b505050811b01600955620002cf565b015160001960f88460031b161c19169055388080620004f0565b81810151835560209485019460019093019290910190620004d3565b600960005290915060008051602062002085833981519152601f840160051c810191602085106200058e575b90601f859493920160051c01905b8181106200057e5750620002a0565b600081558493506001016200056f565b909150819062000561565b91607f16916200028a565b0151905038806200024a565b6008600090815293506000805160206200206583398151915291905b601f198416851062000612576001945083601f19811610620005f8575b505050811b0160085562000260565b015160001960f88460031b161c19169055388080620005e9565b81810151835560209485019460019093019290910190620005cc565b600860005290915060008051602062002065833981519152601f840160051c8101916020851062000687575b90601f859493920160051c01905b81811062000677575062000231565b6000815584935060010162000668565b90915081906200065a565b91607f16916200021b565b015190503880620001db565b6007600090815293506000805160206200204583398151915291905b601f19841685106200070b576001945083601f19811610620006f1575b505050811b01600755620001f1565b015160001960f88460031b161c19169055388080620006e2565b81810151835560209485019460019093019290910190620006c5565b600760005290915060008051602062002045833981519152601f840160051c8101916020851062000780575b90601f859493920160051c01905b818110620007705750620001c2565b6000815584935060010162000761565b909150819062000753565b91607f1691620001ac565b634e487b7160e01b600052603260045260246000fd5b600080fd5b6040519190601f01601f191682016001600160401b038111838210176200049557604052565b919080601f84011215620007ac5782516001600160401b03811162000495576020906200080d601f8201601f19168301620007b1565b92818452828287010111620007ac5760005b8181106200083557508260009394955001015290565b85810183015184820184015282016200081f56fe6040608081526004908136101561001557600080fd5b600091823560e01c806308f523d8146106075780631a0a6c6814610d9c578063365b98b214610d535780633e84023614610bb15780633f4ba83a14610b305780634427673314610afa57806350c1d19d14610ab45780635c975abb14610a905780635d4ca7d514610a67578063639cc67d146109705780636904c94d146108de57806380e52e3f146107505780638456cb59146106b95780638da5cb5b1461069157806395a8c58d1461066c57806399b0d6d014610607578063a5b1b097146104d1578063b5cb15f7146104b2578063c3c5a54714610474578063ccef66f31461043f578063d7710d6214610348578063e2842d7914610292578063eae4c19f1461026f5763f2fde38b1461012957600080fd5b3461026b5760208060031936011261026757610143611138565b84546001600160a01b038082169592919061015f338814611688565b82169461016d861515611547565b86861461021357506001600160a01b031916841786558386526003808452828720805460ff19908116909217905560068452828720546000805160206117668339815191529493929060ff16156101f0575b50505183857f8be0079c531659141344cd1fd0a4f28419497f9722a3daafe3b4186f6b6457e08880a360038152a380f35b6101f990611593565b8487526006835260018288209182541617905538806101bf565b835162461bcd60e51b8152908101859052602860248201527f426c6f636b455250436f72653a206e6577206f776e6572206973206375727265604482015267373a1037bbb732b960c11b6064820152608490fd5b8380fd5b8280fd5b50503461028e578160031936011261028e576020906001549051908152f35b5080fd5b82843461034557806003193601126103455781516005805480835290835260209392848301929091839060008051602061174683398151915290845b81811061032857505050816102e49103826110ba565b83519485948186019282875251809352850193925b82811061030857505050500390f35b83516001600160a01b0316855286955093810193928101926001016102f9565b82546001600160a01b0316845292880192600192830192016102ce565b80fd5b50503461028e578160031936011261028e5790816103fc92519161036b83611089565b608060609384815284602082015284848201528480820152015261043281519261039484611089565b61039c611221565b84526103a66112de565b92602085019384526104216103b9611377565b8287019081526103c7611410565b9380880194855261041060ff600b54169760808a01981515895285519a8b9a60208c525160a060208d015260c08c01906114cc565b9051601f1996878c840301908c01526114cc565b9151908489840301908901526114cc565b9151908583030160808601526114cc565b9051151560a08301520390f35b833461034557806003193601126103455761046460018060a01b038254163314611688565b600160ff19600b541617600b5580f35b50503461028e57602036600319011261028e5760209160ff9082906001600160a01b0361049f611138565b1681526006855220541690519015158152f35b50503461028e578160031936011261028e576020906005549051908152f35b5091903461028e576104e2366111a6565b91909360018060a01b0380936104fc828754163314611688565b16610508811515611547565b825193865190806020968781818c01956105238183896114a9565b8101888152030190205416156105b8579661058d866105ab937fe5340bb646fa554a3082f7baa2b415eb1874ff7d4c3f118686180386e71f738e98999a8851838187516105718183886114a9565b81018b81520301902054169688518094819387519283916114a9565b82019081520301902080546001600160a01b031916841790556116e2565b948351928352820152a280f35b845162461bcd60e51b8152808501879052602360248201527f426c6f636b455250436f72653a206d6f64756c65206e6f7420726567697374656044820152621c995960ea1b6064820152608490fd5b503461026b57602036600319011261026b578035926001600160401b038411610345575061063a602093369083016110dd565b8361064d845192838151938492016114a9565b810191825290819003830190205490516001600160a01b039091168152f35b50503461028e576020906106886106823661114e565b906115fb565b90519015158152f35b50503461028e578160031936011261028e57905490516001600160a01b039091168152602090f35b5091903461028e578160031936011261028e57338252600360205281205460ff168281101561073d57600314801561072a575b6106f5906114f1565b600160ff196002541617600255337f0e453e53649b13b8c30ef82dd7bce6c745cfcc7a1dc95170b4750764194f19b28280a280f35b5080546001600160a01b031633146106ec565b506021602492634e487b7160e01b835252fd5b503461026b576020806003193601126102675761076b611138565b913385526003825260ff8486205416818110156108685760031480156108cb575b610795906114f1565b6001600160a01b03928316926107ac841515611547565b855416831461087b578285526003825260ff848620541681811015610868571561081d5750600390828552527fdc8ee88592cee6126ab42f95859fdf2bbf7b0a614a14d4fb307b601e2b5b0b058284209283549360ff1985169055518061081760ff3396168261117d565b0390a380f35b60849184519162461bcd60e51b8352820152602160248201527f426c6f636b455250436f72653a206163636f756e7420686173206e6f20726f6c6044820152606560f81b6064820152fd5b634e487b7160e01b865260218252602486fd5b60849184519162461bcd60e51b8352820152602660248201527f426c6f636b455250436f72653a2063616e6e6f74207265766f6b65206f776e656044820152657220726f6c6560d01b6064820152fd5b5084546001600160a01b0316331461078c565b50503461028e578160031936011261028e5761093b906108fc611221565b906109646109086112de565b91610956610914611377565b9161091d611410565b9261094960ff600b5416968351998a9960a08b5260a08b01906114cc565b9089820360208b01526114cc565b91878303908801526114cc565b9084820360608601526114cc565b90151560808301520390f35b503461026b5761097f366111a6565b84546001600160a01b039182916109999083163314611688565b16926109a6841515611547565b845191835192602081818701956109be8183896114a9565b8101858152030190205416610a145760209261058d847f34f835834b4752e7ed14d07e75a41134c2755912fe2f7d64b21a84828be793159694610a0b9489518094819387519283916114a9565b9351908152a280f35b608490602086519162461bcd60e51b8352820152602760248201527f426c6f636b455250436f72653a206d6f64756c6520616c7265616479207265676044820152661a5cdd195c995960ca1b6064820152fd5b509134610345576020366003190112610345578235928310156103455750610688602092611702565b50503461028e578160031936011261028e5760209060ff6002541690519015158152f35b50503461028e578160031936011261028e579060809160ff6002541691600154916005549160018060a01b03905416928151941515855260208501528301526060820152f35b50503461028e57602036600319011261028e57610b2c90610b21610b1c611138565b611658565b90519182918261117d565b0390f35b5091903461028e578160031936011261028e57338252600360205281205460ff168281101561073d576003148015610b9e575b610b6c906114f1565b60ff1960025416600255337f92414512bd79c80103975d8bef2f4e78aa5930c2869b4bd6139d98836ba8d9188280a280f35b5080546001600160a01b03163314610b63565b503461026b57610bc03661114e565b92903385526020906003825260ff838720541684811015610d40576003148015610d2d575b610bee906114f1565b6001600160a01b03811693610c04851515611547565b60ff60025416610cea5780861015610cd7578515610c88575060008051602061176683398151915292916003918588526006825260ff848920541615610c64575b505280852060ff1981541660ff8616179055518061081733958261117d565b610c6d90611593565b84875260068152828720805460ff1916600117905538610c45565b835162461bcd60e51b81529081018390526024808201527f426c6f636b455250436f72653a2063616e6e6f74206772616e74204e4f4e4520604482015263726f6c6560e01b6064820152608490fd5b634e487b7160e01b875260219052602486fd5b835162461bcd60e51b8152908101839052601e60248201527f426c6f636b455250436f72653a2073797374656d2069732070617573656400006044820152606490fd5b5085546001600160a01b03163314610be5565b634e487b7160e01b875260218552602487fd5b503461026b57602036600319011261026b573560055481101561026b5760059092526000805160206117468339815191529091015490516001600160a01b039091168152602090f35b50903461026b578060031936011261026b576001600160401b0390823582811161108557610dcd90369085016110dd565b9160243581811161108157610de590369086016110dd565b9333865260039060209582875260ff85892054168281101561106e578314801561105b575b610e13906114f1565b855191848311610f9957610e286007546111e7565b92601f9384811161101a575b508089858211600114610fb7578b91610fac575b508160011b9160001990871b1c1916176007555b8151948511610f995750610e71600a546111e7565b828111610f58575b5086918411600114610edb5792610eca9492819260008051602061178683398151915297958a93610ed0575b50508260011b92600019911b1c191617600a555b5191829185835233958301906114cc565b0390a280f35b015191503880610ea5565b600a8852868820929190601f198516895b89828210610f42575050928592610eca979592600080516020611786833981519152999760019610610f28575b50505050811b01600a55610eb9565b01519060f884600019921b161c1916905538808080610f19565b6001859782939686015181550196019301610eec565b600a89528789208380870160051c8201928a8810610f90575b0160051c01905b818110610f855750610e79565b898155600101610f78565b92508192610f71565b634e487b7160e01b895260419052602488fd5b905088015138610e48565b60078c528a8c209150601f1983168c5b8c8c838310611005575050509083600194939210610fed575b5050811b01600755610e5c565b8a015160001983891b60f8161c191690553880610fe0565b84015185556001909401939283019201610fc7565b60078b52898b208580840160051c8201928c8510611052575b0160051c01905b8181106110475750610e34565b8b815560010161103a565b92508192611033565b5087546001600160a01b03163314610e0a565b634e487b7160e01b895260218352602489fd5b8580fd5b8480fd5b60a081019081106001600160401b038211176110a457604052565b634e487b7160e01b600052604160045260246000fd5b601f909101601f19168101906001600160401b038211908210176110a457604052565b81601f82011215611133578035906001600160401b0382116110a45760405192611111601f8401601f1916602001856110ba565b8284526020838301011161113357816000926020809301838601378301015290565b600080fd5b600435906001600160a01b038216820361113357565b6040906003190112611133576004356001600160a01b0381168103611133579060243560048110156111335790565b9190602083019260048210156111905752565b634e487b7160e01b600052602160045260246000fd5b604060031982011261113357600435906001600160401b038211611133576111d0916004016110dd565b906024356001600160a01b03811681036111335790565b90600182811c92168015611217575b602083101461120157565b634e487b7160e01b600052602260045260246000fd5b91607f16916111f6565b6040519060008260075491611235836111e7565b8083526001938085169081156112bd575060011461125d575b5061125b925003836110ba565b565b600760009081527fa66cc928b5edb82af9bd49922954155ab7b0942694bea4ce44661d9a8736c68894602093509091905b8183106112a557505061125b93508201013861124e565b8554888401850152948501948794509183019161128e565b905061125b94506020925060ff191682840152151560051b8201013861124e565b60405190600082600854916112f2836111e7565b8083526001938085169081156112bd5750600114611317575061125b925003836110ba565b600860009081527ff3f7a9fe364faab93b216da50a3214154f22a0a2b415b23a84c8169e8b636ee394602093509091905b81831061135f57505061125b93508201013861124e565b85548884018501529485019487945091830191611348565b604051906000826009549161138b836111e7565b8083526001938085169081156112bd57506001146113b0575061125b925003836110ba565b600960009081527f6e1540171b6c0c960b71a7020d9f60077f6af931a8bbf590da0223dacf75c7af94602093509091905b8183106113f857505061125b93508201013861124e565b855488840185015294850194879450918301916113e1565b60405190600082600a5491611424836111e7565b8083526001938085169081156112bd5750600114611449575061125b925003836110ba565b600a60009081527fc65a7bb8d6351c1cf70c95a316cc6a92839c986682d98bc35f958f4883f9d2a894602093509091905b81831061149157505061125b93508201013861124e565b8554888401850152948501948794509183019161147a565b60005b8381106114bc5750506000910152565b81810151838201526020016114ac565b906020916114e5815180928185528580860191016114a9565b601f01601f1916010190565b156114f857565b60405162461bcd60e51b815260206004820152602160248201527f426c6f636b455250436f72653a2063616c6c6572206973206e6f742061646d696044820152603760f91b6064820152608490fd5b1561154e57565b60405162461bcd60e51b815260206004820152601d60248201527f426c6f636b455250436f72653a20696e76616c696420616464726573730000006044820152606490fd5b600554600160401b8110156110a45760018101806005558110156115e55760056000526000805160206117468339815191520180546001600160a01b0319166001600160a01b03909216919091179055565b634e487b7160e01b600052603260045260246000fd5b6000805490916001600160a01b0390811691168114611650578152600360205260ff60408220541690600483101561163c57600482101561163c5750101590565b634e487b7160e01b81526021600452602490fd5b505050600190565b6000546001600160a01b039182169116811461168257600052600360205260ff6040600020541690565b50600390565b1561168f57565b60405162461bcd60e51b815260206004820152602560248201527f426c6f636b455250436f72653a2063616c6c6572206973206e6f74207468652060448201526437bbb732b960d91b6064820152608490fd5b6116fa906020604051928284809451938492016114a9565b810103902090565b600080546001600160a01b0316331461173e57338152600360205260ff60408220541690600483101561163c57600482101561163c5750101590565b505060019056fe036b6384b5eca791c62761152d0c79bb0604c104a5fb6f4eb0703f3154bb3db0454d3be37ac6a7b902340e5413df5663e10f86d1a576286058188216404a88ef15d9807ddbf27af3fbab302a6b39dcccb77286631c2de9283dd0c66d15776528a2646970667358221220a22024bf7fca2904142af4cbae607de968126b1ce9833bdba6e1b9180a9c405e64736f6c63430008130033c65a7bb8d6351c1cf70c95a316cc6a92839c986682d98bc35f958f4883f9d2a8a66cc928b5edb82af9bd49922954155ab7b0942694bea4ce44661d9a8736c688f3f7a9fe364faab93b216da50a3214154f22a0a2b415b23a84c8169e8b636ee36e1540171b6c0c960b71a7020d9f60077f6af931a8bbf590da0223dacf75c7af","opcodes":"PUSH1 0x80 PUSH1 0x40 MSTORE CALLVALUE PUSH3 0x7AC JUMPI PUSH3 0x20A5 DUP1 CODESIZE SUB DUP1 PUSH3 0x1D DUP2 PUSH3 0x7B1 JUMP JUMPDEST SWAP3 DUP4 CODECOPY DUP2 ADD PUSH1 0x60 DUP3 DUP3 SUB SLT PUSH3 0x7AC JUMPI DUP2 MLOAD PUSH1 0x1 PUSH1 0x1 PUSH1 0x40 SHL SUB DUP2 GT PUSH3 0x7AC JUMPI DUP2 PUSH3 0x4C SWAP2 DUP5 ADD PUSH3 0x7D7 JUMP JUMPDEST PUSH1 0x20 DUP4 ADD MLOAD SWAP1 SWAP3 SWAP1 PUSH1 0x1 PUSH1 0x1 PUSH1 0x40 SHL SUB DUP2 GT PUSH3 0x7AC JUMPI DUP3 PUSH3 0x71 SWAP2 DUP4 ADD PUSH3 0x7D7 JUMP JUMPDEST PUSH1 0x40 DUP3 ADD MLOAD SWAP1 SWAP3 SWAP1 PUSH1 0x1 PUSH1 0x1 PUSH1 0x40 SHL SUB DUP2 GT PUSH3 0x7AC JUMPI PUSH3 0x94 SWAP3 ADD PUSH3 0x7D7 JUMP JUMPDEST SWAP1 PUSH1 0x1 DUP1 PUSH1 0xA0 SHL SUB NOT CALLER DUP2 PUSH1 0x0 SLOAD AND OR PUSH1 0x0 SSTORE TIMESTAMP PUSH1 0x1 SSTORE CALLER PUSH1 0x0 MSTORE PUSH1 0x3 PUSH1 0x20 MSTORE PUSH1 0x40 PUSH1 0x0 KECCAK256 PUSH1 0x3 PUSH1 0xFF NOT DUP3 SLOAD AND OR SWAP1 SSTORE PUSH1 0x5 SLOAD PUSH9 0x10000000000000000 DUP2 LT ISZERO PUSH3 0x495 JUMPI PUSH1 0x1 DUP2 ADD DUP1 PUSH1 0x5 SSTORE DUP2 LT ISZERO PUSH3 0x796 JUMPI PUSH32 0x36B6384B5ECA791C62761152D0C79BB0604C104A5FB6F4EB0703F3154BB3DB0 ADD DUP1 SLOAD CALLER SWAP3 AND DUP3 OR SWAP1 SSTORE PUSH1 0x0 SWAP1 DUP2 MSTORE PUSH1 0x6 PUSH1 0x20 MSTORE PUSH1 0x40 SWAP1 DUP2 SWAP1 KECCAK256 DUP1 SLOAD PUSH1 0xFF NOT AND PUSH1 0x1 OR SWAP1 SSTORE MLOAD SWAP3 PUSH1 0xA0 DUP5 ADD DUP5 DUP2 LT PUSH1 0x1 PUSH1 0x1 PUSH1 0x40 SHL SUB DUP3 GT OR PUSH3 0x495 JUMPI PUSH1 0x40 MSTORE DUP4 MSTORE PUSH1 0x20 DUP4 ADD MSTORE PUSH1 0x40 DUP3 ADD MSTORE PUSH1 0x40 MLOAD PUSH1 0x20 DUP2 ADD DUP2 DUP2 LT PUSH1 0x1 DUP1 PUSH1 0x40 SHL SUB DUP3 GT OR PUSH3 0x495 JUMPI PUSH1 0x40 MSTORE PUSH1 0x0 DUP1 DUP3 MSTORE PUSH1 0x60 DUP4 ADD SWAP2 SWAP1 SWAP2 MSTORE PUSH1 0x80 DUP3 ADD MSTORE DUP1 MLOAD DUP1 MLOAD SWAP1 PUSH1 0x1 PUSH1 0x1 PUSH1 0x40 SHL SUB DUP3 GT PUSH3 0x495 JUMPI PUSH1 0x7 SLOAD SWAP1 PUSH1 0x1 DUP3 DUP2 SHR SWAP3 AND DUP1 ISZERO PUSH3 0x78B JUMPI JUMPDEST PUSH1 0x20 DUP4 LT EQ PUSH3 0x474 JUMPI DUP2 PUSH1 0x1F DUP5 SWAP4 GT PUSH3 0x727 JUMPI JUMPDEST POP PUSH1 0x20 SWAP1 PUSH1 0x1F DUP4 GT PUSH1 0x1 EQ PUSH3 0x6A9 JUMPI PUSH1 0x0 SWAP3 PUSH3 0x69D JUMPI JUMPDEST POP POP DUP2 PUSH1 0x1 SHL SWAP2 PUSH1 0x0 NOT SWAP1 PUSH1 0x3 SHL SHR NOT AND OR PUSH1 0x7 SSTORE JUMPDEST PUSH1 0x20 DUP2 ADD MLOAD DUP1 MLOAD SWAP1 PUSH1 0x1 PUSH1 0x1 PUSH1 0x40 SHL SUB DUP3 GT PUSH3 0x495 JUMPI PUSH1 0x8 SLOAD SWAP1 PUSH1 0x1 DUP3 DUP2 SHR SWAP3 AND DUP1 ISZERO PUSH3 0x692 JUMPI JUMPDEST PUSH1 0x20 DUP4 LT EQ PUSH3 0x474 JUMPI DUP2 PUSH1 0x1F DUP5 SWAP4 GT PUSH3 0x62E JUMPI JUMPDEST POP PUSH1 0x20 SWAP1 PUSH1 0x1F DUP4 GT PUSH1 0x1 EQ PUSH3 0x5B0 JUMPI PUSH1 0x0 SWAP3 PUSH3 0x5A4 JUMPI JUMPDEST POP POP DUP2 PUSH1 0x1 SHL SWAP2 PUSH1 0x0 NOT SWAP1 PUSH1 0x3 SHL SHR NOT AND OR PUSH1 0x8 SSTORE JUMPDEST PUSH1 0x40 DUP2 ADD MLOAD DUP1 MLOAD SWAP1 PUSH1 0x1 PUSH1 0x1 PUSH1 0x40 SHL SUB DUP3 GT PUSH3 0x495 JUMPI PUSH1 0x9 SLOAD SWAP1 PUSH1 0x1 DUP3 DUP2 SHR SWAP3 AND DUP1 ISZERO PUSH3 0x599 JUMPI JUMPDEST PUSH1 0x20 DUP4 LT EQ PUSH3 0x474 JUMPI DUP2 PUSH1 0x1F DUP5 SWAP4 GT PUSH3 0x535 JUMPI JUMPDEST POP PUSH1 0x20 SWAP1 PUSH1 0x1F DUP4 GT PUSH1 0x1 EQ PUSH3 0x4B7 JUMPI PUSH1 0x0 SWAP3 PUSH3 0x4AB JUMPI JUMPDEST POP POP DUP2 PUSH1 0x1 SHL SWAP2 PUSH1 0x0 NOT SWAP1 PUSH1 0x3 SHL SHR NOT AND OR PUSH1 0x9 SSTORE JUMPDEST PUSH1 0x60 DUP2 ADD MLOAD DUP1 MLOAD SWAP2 SWAP1 PUSH1 0x1 PUSH1 0x1 PUSH1 0x40 SHL SUB DUP4 GT PUSH3 0x495 JUMPI PUSH1 0xA SLOAD PUSH1 0x1 DUP2 DUP2 SHR SWAP2 AND DUP1 ISZERO PUSH3 0x48A JUMPI JUMPDEST PUSH1 0x20 DUP3 LT EQ PUSH3 0x474 JUMPI PUSH1 0x1F DUP2 GT PUSH3 0x41B JUMPI JUMPDEST POP PUSH1 0x20 SWAP1 PUSH1 0x1F DUP5 GT PUSH1 0x1 EQ PUSH3 0x39E JUMPI PUSH1 0x80 SWAP4 SWAP2 PUSH1 0x0 SWAP2 DUP4 PUSH3 0x392 JUMPI JUMPDEST POP POP DUP2 PUSH1 0x1 SHL SWAP2 PUSH1 0x0 NOT SWAP1 PUSH1 0x3 SHL SHR NOT AND OR PUSH1 0xA SSTORE JUMPDEST ADD MLOAD ISZERO ISZERO PUSH1 0xFF DUP1 NOT PUSH1 0xB SLOAD AND SWAP2 AND OR PUSH1 0xB SSTORE PUSH1 0x40 MLOAD PUSH1 0x3 DUP2 MSTORE CALLER SWAP1 PUSH32 0x454D3BE37AC6A7B902340E5413DF5663E10F86D1A576286058188216404A88EF PUSH1 0x20 CALLER SWAP3 LOG3 PUSH1 0x40 MLOAD PUSH2 0x17DB SWAP1 DUP2 PUSH3 0x84A DUP3 CODECOPY RETURN JUMPDEST ADD MLOAD SWAP1 POP CODESIZE DUP1 PUSH3 0x32B JUMP JUMPDEST PUSH1 0xA PUSH1 0x0 SWAP1 DUP2 MSTORE PUSH1 0x0 DUP1 MLOAD PUSH1 0x20 PUSH3 0x2025 DUP4 CODECOPY DUP2 MLOAD SWAP2 MSTORE SWAP3 SWAP2 SWAP1 PUSH1 0x1F NOT DUP7 AND SWAP1 JUMPDEST DUP2 DUP2 LT PUSH3 0x402 JUMPI POP SWAP2 PUSH1 0x1 SWAP4 SWAP2 DUP7 PUSH1 0x80 SWAP8 SWAP5 LT PUSH3 0x3E8 JUMPI JUMPDEST POP POP POP DUP2 SHL ADD PUSH1 0xA SSTORE PUSH3 0x341 JUMP JUMPDEST ADD MLOAD PUSH1 0x0 NOT PUSH1 0xF8 DUP5 PUSH1 0x3 SHL AND SHR NOT AND SWAP1 SSTORE CODESIZE DUP1 DUP1 PUSH3 0x3D9 JUMP JUMPDEST SWAP3 SWAP4 PUSH1 0x20 PUSH1 0x1 DUP2 SWAP3 DUP8 DUP7 ADD MLOAD DUP2 SSTORE ADD SWAP6 ADD SWAP4 ADD PUSH3 0x3BF JUMP JUMPDEST PUSH1 0xA PUSH1 0x0 MSTORE PUSH1 0x0 DUP1 MLOAD PUSH1 0x20 PUSH3 0x2025 DUP4 CODECOPY DUP2 MLOAD SWAP2 MSTORE PUSH1 0x1F DUP6 ADD PUSH1 0x5 SHR DUP2 ADD SWAP2 PUSH1 0x20 DUP7 LT PUSH3 0x469 JUMPI JUMPDEST PUSH1 0x1F ADD PUSH1 0x5 SHR ADD SWAP1 JUMPDEST DUP2 DUP2 LT PUSH3 0x45C JUMPI POP PUSH3 0x30D JUMP JUMPDEST PUSH1 0x0 DUP2 SSTORE PUSH1 0x1 ADD PUSH3 0x44D JUMP JUMPDEST SWAP1 SWAP2 POP DUP2 SWAP1 PUSH3 0x444 JUMP JUMPDEST PUSH4 0x4E487B71 PUSH1 0xE0 SHL PUSH1 0x0 MSTORE PUSH1 0x22 PUSH1 0x4 MSTORE PUSH1 0x24 PUSH1 0x0 REVERT JUMPDEST SWAP1 PUSH1 0x7F AND SWAP1 PUSH3 0x2F9 JUMP JUMPDEST PUSH4 0x4E487B71 PUSH1 0xE0 SHL PUSH1 0x0 MSTORE PUSH1 0x41 PUSH1 0x4 MSTORE PUSH1 0x24 PUSH1 0x0 REVERT JUMPDEST ADD MLOAD SWAP1 POP CODESIZE DUP1 PUSH3 0x2B9 JUMP JUMPDEST PUSH1 0x9 PUSH1 0x0 SWAP1 DUP2 MSTORE SWAP4 POP PUSH1 0x0 DUP1 MLOAD PUSH1 0x20 PUSH3 0x2085 DUP4 CODECOPY DUP2 MLOAD SWAP2 MSTORE SWAP2 SWAP1 JUMPDEST PUSH1 0x1F NOT DUP5 AND DUP6 LT PUSH3 0x519 JUMPI PUSH1 0x1 SWAP5 POP DUP4 PUSH1 0x1F NOT DUP2 AND LT PUSH3 0x4FF JUMPI JUMPDEST POP POP POP DUP2 SHL ADD PUSH1 0x9 SSTORE PUSH3 0x2CF JUMP JUMPDEST ADD MLOAD PUSH1 0x0 NOT PUSH1 0xF8 DUP5 PUSH1 0x3 SHL AND SHR NOT AND SWAP1 SSTORE CODESIZE DUP1 DUP1 PUSH3 0x4F0 JUMP JUMPDEST DUP2 DUP2 ADD MLOAD DUP4 SSTORE PUSH1 0x20 SWAP5 DUP6 ADD SWAP5 PUSH1 0x1 SWAP1 SWAP4 ADD SWAP3 SWAP1 SWAP2 ADD SWAP1 PUSH3 0x4D3 JUMP JUMPDEST PUSH1 0x9 PUSH1 0x0 MSTORE SWAP1 SWAP2 POP PUSH1 0x0 DUP1 MLOAD PUSH1 0x20 PUSH3 0x2085 DUP4 CODECOPY DUP2 MLOAD SWAP2 MSTORE PUSH1 0x1F DUP5 ADD PUSH1 0x5 SHR DUP2 ADD SWAP2 PUSH1 0x20 DUP6 LT PUSH3 0x58E JUMPI JUMPDEST SWAP1 PUSH1 0x1F DUP6 SWAP5 SWAP4 SWAP3 ADD PUSH1 0x5 SHR ADD SWAP1 JUMPDEST DUP2 DUP2 LT PUSH3 0x57E JUMPI POP PUSH3 0x2A0 JUMP JUMPDEST PUSH1 0x0 DUP2 SSTORE DUP5 SWAP4 POP PUSH1 0x1 ADD PUSH3 0x56F JUMP JUMPDEST SWAP1 SWAP2 POP DUP2 SWAP1 PUSH3 0x561 JUMP JUMPDEST SWAP2 PUSH1 0x7F AND SWAP2 PUSH3 0x28A JUMP JUMPDEST ADD MLOAD SWAP1 POP CODESIZE DUP1 PUSH3 0x24A JUMP JUMPDEST PUSH1 0x8 PUSH1 0x0 SWAP1 DUP2 MSTORE SWAP4 POP PUSH1 0x0 DUP1 MLOAD PUSH1 0x20 PUSH3 0x2065 DUP4 CODECOPY DUP2 MLOAD SWAP2 MSTORE SWAP2 SWAP1 JUMPDEST PUSH1 0x1F NOT DUP5 AND DUP6 LT PUSH3 0x612 JUMPI PUSH1 0x1 SWAP5 POP DUP4 PUSH1 0x1F NOT DUP2 AND LT PUSH3 0x5F8 JUMPI JUMPDEST POP POP POP DUP2 SHL ADD PUSH1 0x8 SSTORE PUSH3 0x260 JUMP JUMPDEST ADD MLOAD PUSH1 0x0 NOT PUSH1 0xF8 DUP5 PUSH1 0x3 SHL AND SHR NOT AND SWAP1 SSTORE CODESIZE DUP1 DUP1 PUSH3 0x5E9 JUMP JUMPDEST DUP2 DUP2 ADD MLOAD DUP4 SSTORE PUSH1 0x20 SWAP5 DUP6 ADD SWAP5 PUSH1 0x1 SWAP1 SWAP4 ADD SWAP3 SWAP1 SWAP2 ADD SWAP1 PUSH3 0x5CC JUMP JUMPDEST PUSH1 0x8 PUSH1 0x0 MSTORE SWAP1 SWAP2 POP PUSH1 0x0 DUP1 MLOAD PUSH1 0x20 PUSH3 0x2065 DUP4 CODECOPY DUP2 MLOAD SWAP2 MSTORE PUSH1 0x1F DUP5 ADD PUSH1 0x5 SHR DUP2 ADD SWAP2 PUSH1 0x20 DUP6 LT PUSH3 0x687 JUMPI JUMPDEST SWAP1 PUSH1 0x1F DUP6 SWAP5 SWAP4 SWAP3 ADD PUSH1 0x5 SHR ADD SWAP1 JUMPDEST DUP2 DUP2 LT PUSH3 0x677 JUMPI POP PUSH3 0x231 JUMP JUMPDEST PUSH1 0x0 DUP2 SSTORE DUP5 SWAP4 POP PUSH1 0x1 ADD PUSH3 0x668 JUMP JUMPDEST SWAP1 SWAP2 POP DUP2 SWAP1 PUSH3 0x65A JUMP JUMPDEST SWAP2 PUSH1 0x7F AND SWAP2 PUSH3 0x21B JUMP JUMPDEST ADD MLOAD SWAP1 POP CODESIZE DUP1 PUSH3 0x1DB JUMP JUMPDEST PUSH1 0x7 PUSH1 0x0 SWAP1 DUP2 MSTORE SWAP4 POP PUSH1 0x0 DUP1 MLOAD PUSH1 0x20 PUSH3 0x2045 DUP4 CODECOPY DUP2 MLOAD SWAP2 MSTORE SWAP2 SWAP1 JUMPDEST PUSH1 0x1F NOT DUP5 AND DUP6 LT PUSH3 0x70B JUMPI PUSH1 0x1 SWAP5 POP DUP4 PUSH1 0x1F NOT DUP2 AND LT PUSH3 0x6F1 JUMPI JUMPDEST POP POP POP DUP2 SHL ADD PUSH1 0x7 SSTORE PUSH3 0x1F1 JUMP JUMPDEST ADD MLOAD PUSH1 0x0 NOT PUSH1 0xF8 DUP5 PUSH1 0x3 SHL AND SHR NOT AND SWAP1 SSTORE CODESIZE DUP1 DUP1 PUSH3 0x6E2 JUMP JUMPDEST DUP2 DUP2 ADD MLOAD DUP4 SSTORE PUSH1 0x20 SWAP5 DUP6 ADD SWAP5 PUSH1 0x1 SWAP1 SWAP4 ADD SWAP3 SWAP1 SWAP2 ADD SWAP1 PUSH3 0x6C5 JUMP JUMPDEST PUSH1 0x7 PUSH1 0x0 MSTORE SWAP1 SWAP2 POP PUSH1 0x0 DUP1 MLOAD PUSH1 0x20 PUSH3 0x2045 DUP4 CODECOPY DUP2 MLOAD SWAP2 MSTORE PUSH1 0x1F DUP5 ADD PUSH1 0x5 SHR DUP2 ADD SWAP2 PUSH1 0x20 DUP6 LT PUSH3 0x780 JUMPI JUMPDEST SWAP1 PUSH1 0x1F DUP6 SWAP5 SWAP4 SWAP3 ADD PUSH1 0x5 SHR ADD SWAP1 JUMPDEST DUP2 DUP2 LT PUSH3 0x770 JUMPI POP PUSH3 0x1C2 JUMP JUMPDEST PUSH1 0x0 DUP2 SSTORE DUP5 SWAP4 POP PUSH1 0x1 ADD PUSH3 0x761 JUMP JUMPDEST SWAP1 SWAP2 POP DUP2 SWAP1 PUSH3 0x753 JUMP JUMPDEST SWAP2 PUSH1 0x7F AND SWAP2 PUSH3 0x1AC JUMP JUMPDEST PUSH4 0x4E487B71 PUSH1 0xE0 SHL PUSH1 0x0 MSTORE PUSH1 0x32 PUSH1 0x4 MSTORE PUSH1 0x24 PUSH1 0x0 REVERT JUMPDEST PUSH1 0x0 DUP1 REVERT JUMPDEST PUSH1 0x40 MLOAD SWAP2 SWAP1 PUSH1 0x1F ADD PUSH1 0x1F NOT AND DUP3 ADD PUSH1 0x1 PUSH1 0x1 PUSH1 0x40 SHL SUB DUP2 GT DUP4 DUP3 LT OR PUSH3 0x495 JUMPI PUSH1 0x40 MSTORE JUMP JUMPDEST SWAP2 SWAP1 DUP1 PUSH1 0x1F DUP5 ADD SLT ISZERO PUSH3 0x7AC JUMPI DUP3 MLOAD PUSH1 0x1 PUSH1 0x1 PUSH1 0x40 SHL SUB DUP2 GT PUSH3 0x495 JUMPI PUSH1 0x20 SWAP1 PUSH3 0x80D PUSH1 0x1F DUP3 ADD PUSH1 0x1F NOT AND DUP4 ADD PUSH3 0x7B1 JUMP JUMPDEST SWAP3 DUP2 DUP5 MSTORE DUP3 DUP3 DUP8 ADD ADD GT PUSH3 0x7AC JUMPI PUSH1 0x0 JUMPDEST DUP2 DUP2 LT PUSH3 0x835 JUMPI POP DUP3 PUSH1 0x0 SWAP4 SWAP5 SWAP6 POP ADD ADD MSTORE SWAP1 JUMP JUMPDEST DUP6 DUP2 ADD DUP4 ADD MLOAD DUP5 DUP3 ADD DUP5 ADD MSTORE DUP3 ADD PUSH3 0x81F JUMP INVALID PUSH1 0x40 PUSH1 0x80 DUP2 MSTORE PUSH1 0x4 SWAP1 DUP2 CALLDATASIZE LT ISZERO PUSH2 0x15 JUMPI PUSH1 0x0 DUP1 REVERT JUMPDEST PUSH1 0x0 SWAP2 DUP3 CALLDATALOAD PUSH1 0xE0 SHR DUP1 PUSH4 0x8F523D8 EQ PUSH2 0x607 JUMPI DUP1 PUSH4 0x1A0A6C68 EQ PUSH2 0xD9C JUMPI DUP1 PUSH4 0x365B98B2 EQ PUSH2 0xD53 JUMPI DUP1 PUSH4 0x3E840236 EQ PUSH2 0xBB1 JUMPI DUP1 PUSH4 0x3F4BA83A EQ PUSH2 0xB30 JUMPI DUP1 PUSH4 0x44276733 EQ PUSH2 0xAFA JUMPI DUP1 PUSH4 0x50C1D19D EQ PUSH2 0xAB4 JUMPI DUP1 PUSH4 0x5C975ABB EQ PUSH2 0xA90 JUMPI DUP1 PUSH4 0x5D4CA7D5 EQ PUSH2 0xA67 JUMPI DUP1 PUSH4 0x639CC67D EQ PUSH2 0x970 JUMPI DUP1 PUSH4 0x6904C94D EQ PUSH2 0x8DE JUMPI DUP1 PUSH4 0x80E52E3F EQ PUSH2 0x750 JUMPI DUP1 PUSH4 0x8456CB59 EQ PUSH2 0x6B9 JUMPI DUP1 PUSH4 0x8DA5CB5B EQ PUSH2 0x691 JUMPI DUP1 PUSH4 0x95A8C58D EQ PUSH2 0x66C JUMPI DUP1 PUSH4 0x99B0D6D0 EQ PUSH2 0x607 JUMPI DUP1 PUSH4 0xA5B1B097 EQ PUSH2 0x4D1 JUMPI DUP1 PUSH4 0xB5CB15F7 EQ PUSH2 0x4B2 JUMPI DUP1 PUSH4 0xC3C5A547 EQ PUSH2 0x474 JUMPI DUP1 PUSH4 0xCCEF66F3 EQ PUSH2 0x43F JUMPI DUP1 PUSH4 0xD7710D62 EQ PUSH2 0x348 JUMPI DUP1 PUSH4 0xE2842D79 EQ PUSH2 0x292 JUMPI DUP1 PUSH4 0xEAE4C19F EQ PUSH2 0x26F JUMPI PUSH4 0xF2FDE38B EQ PUSH2 0x129 JUMPI PUSH1 0x0 DUP1 REVERT JUMPDEST CALLVALUE PUSH2 0x26B JUMPI PUSH1 0x20 DUP1 PUSH1 0x3 NOT CALLDATASIZE ADD SLT PUSH2 0x267 JUMPI PUSH2 0x143 PUSH2 0x1138 JUMP JUMPDEST DUP5 SLOAD PUSH1 0x1 PUSH1 0x1 PUSH1 0xA0 SHL SUB DUP1 DUP3 AND SWAP6 SWAP3 SWAP2 SWAP1 PUSH2 0x15F CALLER DUP9 EQ PUSH2 0x1688 JUMP JUMPDEST DUP3 AND SWAP5 PUSH2 0x16D DUP7 ISZERO ISZERO PUSH2 0x1547 JUMP JUMPDEST DUP7 DUP7 EQ PUSH2 0x213 JUMPI POP PUSH1 0x1 PUSH1 0x1 PUSH1 0xA0 SHL SUB NOT AND DUP5 OR DUP7 SSTORE DUP4 DUP7 MSTORE PUSH1 0x3 DUP1 DUP5 MSTORE DUP3 DUP8 KECCAK256 DUP1 SLOAD PUSH1 0xFF NOT SWAP1 DUP2 AND SWAP1 SWAP3 OR SWAP1 SSTORE PUSH1 0x6 DUP5 MSTORE DUP3 DUP8 KECCAK256 SLOAD PUSH1 0x0 DUP1 MLOAD PUSH1 0x20 PUSH2 0x1766 DUP4 CODECOPY DUP2 MLOAD SWAP2 MSTORE SWAP5 SWAP4 SWAP3 SWAP1 PUSH1 0xFF AND ISZERO PUSH2 0x1F0 JUMPI JUMPDEST POP POP MLOAD DUP4 DUP6 PUSH32 0x8BE0079C531659141344CD1FD0A4F28419497F9722A3DAAFE3B4186F6B6457E0 DUP9 DUP1 LOG3 PUSH1 0x3 DUP2 MSTORE LOG3 DUP1 RETURN JUMPDEST PUSH2 0x1F9 SWAP1 PUSH2 0x1593 JUMP JUMPDEST DUP5 DUP8 MSTORE PUSH1 0x6 DUP4 MSTORE PUSH1 0x1 DUP3 DUP9 KECCAK256 SWAP2 DUP3 SLOAD AND OR SWAP1 SSTORE CODESIZE DUP1 PUSH2 0x1BF JUMP JUMPDEST DUP4 MLOAD PUSH3 0x461BCD PUSH1 0xE5 SHL DUP2 MSTORE SWAP1 DUP2 ADD DUP6 SWAP1 MSTORE PUSH1 0x28 PUSH1 0x24 DUP3 ADD MSTORE PUSH32 0x426C6F636B455250436F72653A206E6577206F776E6572206973206375727265 PUSH1 0x44 DUP3 ADD MSTORE PUSH8 0x373A1037BBB732B9 PUSH1 0xC1 SHL PUSH1 0x64 DUP3 ADD MSTORE PUSH1 0x84 SWAP1 REVERT JUMPDEST DUP4 DUP1 REVERT JUMPDEST DUP3 DUP1 REVERT JUMPDEST POP POP CALLVALUE PUSH2 0x28E JUMPI DUP2 PUSH1 0x3 NOT CALLDATASIZE ADD SLT PUSH2 0x28E JUMPI PUSH1 0x20 SWAP1 PUSH1 0x1 SLOAD SWAP1 MLOAD SWAP1 DUP2 MSTORE RETURN JUMPDEST POP DUP1 REVERT JUMPDEST DUP3 DUP5 CALLVALUE PUSH2 0x345 JUMPI DUP1 PUSH1 0x3 NOT CALLDATASIZE ADD SLT PUSH2 0x345 JUMPI DUP2 MLOAD PUSH1 0x5 DUP1 SLOAD DUP1 DUP4 MSTORE SWAP1 DUP4 MSTORE PUSH1 0x20 SWAP4 SWAP3 DUP5 DUP4 ADD SWAP3 SWAP1 SWAP2 DUP4 SWAP1 PUSH1 0x0 DUP1 MLOAD PUSH1 0x20 PUSH2 0x1746 DUP4 CODECOPY DUP2 MLOAD SWAP2 MSTORE SWAP1 DUP5 JUMPDEST DUP2 DUP2 LT PUSH2 0x328 JUMPI POP POP POP DUP2 PUSH2 0x2E4 SWAP2 SUB DUP3 PUSH2 0x10BA JUMP JUMPDEST DUP4 MLOAD SWAP5 DUP6 SWAP5 DUP2 DUP7 ADD SWAP3 DUP3 DUP8 MSTORE MLOAD DUP1 SWAP4 MSTORE DUP6 ADD SWAP4 SWAP3 JUMPDEST DUP3 DUP2 LT PUSH2 0x308 JUMPI POP POP POP POP SUB SWAP1 RETURN JUMPDEST DUP4 MLOAD PUSH1 0x1 PUSH1 0x1 PUSH1 0xA0 SHL SUB AND DUP6 MSTORE DUP7 SWAP6 POP SWAP4 DUP2 ADD SWAP4 SWAP3 DUP2 ADD SWAP3 PUSH1 0x1 ADD PUSH2 0x2F9 JUMP JUMPDEST DUP3 SLOAD PUSH1 0x1 PUSH1 0x1 PUSH1 0xA0 SHL SUB AND DUP5 MSTORE SWAP3 DUP9 ADD SWAP3 PUSH1 0x1 SWAP3 DUP4 ADD SWAP3 ADD PUSH2 0x2CE JUMP JUMPDEST DUP1 REVERT JUMPDEST POP POP CALLVALUE PUSH2 0x28E JUMPI DUP2 PUSH1 0x3 NOT CALLDATASIZE ADD SLT PUSH2 0x28E JUMPI SWAP1 DUP2 PUSH2 0x3FC SWAP3 MLOAD SWAP2 PUSH2 0x36B DUP4 PUSH2 0x1089 JUMP JUMPDEST PUSH1 0x80 PUSH1 0x60 SWAP4 DUP5 DUP2 MSTORE DUP5 PUSH1 0x20 DUP3 ADD MSTORE DUP5 DUP5 DUP3 ADD MSTORE DUP5 DUP1 DUP3 ADD MSTORE ADD MSTORE PUSH2 0x432 DUP2 MLOAD SWAP3 PUSH2 0x394 DUP5 PUSH2 0x1089 JUMP JUMPDEST PUSH2 0x39C PUSH2 0x1221 JUMP JUMPDEST DUP5 MSTORE PUSH2 0x3A6 PUSH2 0x12DE JUMP JUMPDEST SWAP3 PUSH1 0x20 DUP6 ADD SWAP4 DUP5 MSTORE PUSH2 0x421 PUSH2 0x3B9 PUSH2 0x1377 JUMP JUMPDEST DUP3 DUP8 ADD SWAP1 DUP2 MSTORE PUSH2 0x3C7 PUSH2 0x1410 JUMP JUMPDEST SWAP4 DUP1 DUP9 ADD SWAP5 DUP6 MSTORE PUSH2 0x410 PUSH1 0xFF PUSH1 0xB SLOAD AND SWAP8 PUSH1 0x80 DUP11 ADD SWAP9 ISZERO ISZERO DUP10 MSTORE DUP6 MLOAD SWAP11 DUP12 SWAP11 PUSH1 0x20 DUP13 MSTORE MLOAD PUSH1 0xA0 PUSH1 0x20 DUP14 ADD MSTORE PUSH1 0xC0 DUP13 ADD SWAP1 PUSH2 0x14CC JUMP JUMPDEST SWAP1 MLOAD PUSH1 0x1F NOT SWAP7 DUP8 DUP13 DUP5 SUB ADD SWAP1 DUP13 ADD MSTORE PUSH2 0x14CC JUMP JUMPDEST SWAP2 MLOAD SWAP1 DUP5 DUP10 DUP5 SUB ADD SWAP1 DUP10 ADD MSTORE PUSH2 0x14CC JUMP JUMPDEST SWAP2 MLOAD SWAP1 DUP6 DUP4 SUB ADD PUSH1 0x80 DUP7 ADD MSTORE PUSH2 0x14CC JUMP JUMPDEST SWAP1 MLOAD ISZERO ISZERO PUSH1 0xA0 DUP4 ADD MSTORE SUB SWAP1 RETURN JUMPDEST DUP4 CALLVALUE PUSH2 0x345 JUMPI DUP1 PUSH1 0x3 NOT CALLDATASIZE ADD SLT PUSH2 0x345 JUMPI PUSH2 0x464 PUSH1 0x1 DUP1 PUSH1 0xA0 SHL SUB DUP3 SLOAD AND CALLER EQ PUSH2 0x1688 JUMP JUMPDEST PUSH1 0x1 PUSH1 0xFF NOT PUSH1 0xB SLOAD AND OR PUSH1 0xB SSTORE DUP1 RETURN JUMPDEST POP POP CALLVALUE PUSH2 0x28E JUMPI PUSH1 0x20 CALLDATASIZE PUSH1 0x3 NOT ADD SLT PUSH2 0x28E JUMPI PUSH1 0x20 SWAP2 PUSH1 0xFF SWAP1 DUP3 SWAP1 PUSH1 0x1 PUSH1 0x1 PUSH1 0xA0 SHL SUB PUSH2 0x49F PUSH2 0x1138 JUMP JUMPDEST AND DUP2 MSTORE PUSH1 0x6 DUP6 MSTORE KECCAK256 SLOAD AND SWAP1 MLOAD SWAP1 ISZERO ISZERO DUP2 MSTORE RETURN JUMPDEST POP POP CALLVALUE PUSH2 0x28E JUMPI DUP2 PUSH1 0x3 NOT CALLDATASIZE ADD SLT PUSH2 0x28E JUMPI PUSH1 0x20 SWAP1 PUSH1 0x5 SLOAD SWAP1 MLOAD SWAP1 DUP2 MSTORE RETURN JUMPDEST POP SWAP2 SWAP1 CALLVALUE PUSH2 0x28E JUMPI PUSH2 0x4E2 CALLDATASIZE PUSH2 0x11A6 JUMP JUMPDEST SWAP2 SWAP1 SWAP4 PUSH1 0x1 DUP1 PUSH1 0xA0 SHL SUB DUP1 SWAP4 PUSH2 0x4FC DUP3 DUP8 SLOAD AND CALLER EQ PUSH2 0x1688 JUMP JUMPDEST AND PUSH2 0x508 DUP2 ISZERO ISZERO PUSH2 0x1547 JUMP JUMPDEST DUP3 MLOAD SWAP4 DUP7 MLOAD SWAP1 DUP1 PUSH1 0x20 SWAP7 DUP8 DUP2 DUP2 DUP13 ADD SWAP6 PUSH2 0x523 DUP2 DUP4 DUP10 PUSH2 0x14A9 JUMP JUMPDEST DUP2 ADD DUP9 DUP2 MSTORE SUB ADD SWAP1 KECCAK256 SLOAD AND ISZERO PUSH2 0x5B8 JUMPI SWAP7 PUSH2 0x58D DUP7 PUSH2 0x5AB SWAP4 PUSH32 0xE5340BB646FA554A3082F7BAA2B415EB1874FF7D4C3F118686180386E71F738E SWAP9 SWAP10 SWAP11 DUP9 MLOAD DUP4 DUP2 DUP8 MLOAD PUSH2 0x571 DUP2 DUP4 DUP9 PUSH2 0x14A9 JUMP JUMPDEST DUP2 ADD DUP12 DUP2 MSTORE SUB ADD SWAP1 KECCAK256 SLOAD AND SWAP7 DUP9 MLOAD DUP1 SWAP5 DUP2 SWAP4 DUP8 MLOAD SWAP3 DUP4 SWAP2 PUSH2 0x14A9 JUMP JUMPDEST DUP3 ADD SWAP1 DUP2 MSTORE SUB ADD SWAP1 KECCAK256 DUP1 SLOAD PUSH1 0x1 PUSH1 0x1 PUSH1 0xA0 SHL SUB NOT AND DUP5 OR SWAP1 SSTORE PUSH2 0x16E2 JUMP JUMPDEST SWAP5 DUP4 MLOAD SWAP3 DUP4 MSTORE DUP3 ADD MSTORE LOG2 DUP1 RETURN JUMPDEST DUP5 MLOAD PUSH3 0x461BCD PUSH1 0xE5 SHL DUP2 MSTORE DUP1 DUP6 ADD DUP8 SWAP1 MSTORE PUSH1 0x23 PUSH1 0x24 DUP3 ADD MSTORE PUSH32 0x426C6F636B455250436F72653A206D6F64756C65206E6F742072656769737465 PUSH1 0x44 DUP3 ADD MSTORE PUSH3 0x1C9959 PUSH1 0xEA SHL PUSH1 0x64 DUP3 ADD MSTORE PUSH1 0x84 SWAP1 REVERT JUMPDEST POP CALLVALUE PUSH2 0x26B JUMPI PUSH1 0x20 CALLDATASIZE PUSH1 0x3 NOT ADD SLT PUSH2 0x26B JUMPI DUP1 CALLDATALOAD SWAP3 PUSH1 0x1 PUSH1 0x1 PUSH1 0x40 SHL SUB DUP5 GT PUSH2 0x345 JUMPI POP PUSH2 0x63A PUSH1 0x20 SWAP4 CALLDATASIZE SWAP1 DUP4 ADD PUSH2 0x10DD JUMP JUMPDEST DUP4 PUSH2 0x64D DUP5 MLOAD SWAP3 DUP4 DUP2 MLOAD SWAP4 DUP5 SWAP3 ADD PUSH2 0x14A9 JUMP JUMPDEST DUP2 ADD SWAP2 DUP3 MSTORE SWAP1 DUP2 SWAP1 SUB DUP4 ADD SWAP1 KECCAK256 SLOAD SWAP1 MLOAD PUSH1 0x1 PUSH1 0x1 PUSH1 0xA0 SHL SUB SWAP1 SWAP2 AND DUP2 MSTORE RETURN JUMPDEST POP POP CALLVALUE PUSH2 0x28E JUMPI PUSH1 0x20 SWAP1 PUSH2 0x688 PUSH2 0x682 CALLDATASIZE PUSH2 0x114E JUMP JUMPDEST SWAP1 PUSH2 0x15FB JUMP JUMPDEST SWAP1 MLOAD SWAP1 ISZERO ISZERO DUP2 MSTORE RETURN JUMPDEST POP POP CALLVALUE PUSH2 0x28E JUMPI DUP2 PUSH1 0x3 NOT CALLDATASIZE ADD SLT PUSH2 0x28E JUMPI SWAP1 SLOAD SWAP1 MLOAD PUSH1 0x1 PUSH1 0x1 PUSH1 0xA0 SHL SUB SWAP1 SWAP2 AND DUP2 MSTORE PUSH1 0x20 SWAP1 RETURN JUMPDEST POP SWAP2 SWAP1 CALLVALUE PUSH2 0x28E JUMPI DUP2 PUSH1 0x3 NOT CALLDATASIZE ADD SLT PUSH2 0x28E JUMPI CALLER DUP3 MSTORE PUSH1 0x3 PUSH1 0x20 MSTORE DUP2 KECCAK256 SLOAD PUSH1 0xFF AND DUP3 DUP2 LT ISZERO PUSH2 0x73D JUMPI PUSH1 0x3 EQ DUP1 ISZERO PUSH2 0x72A JUMPI JUMPDEST PUSH2 0x6F5 SWAP1 PUSH2 0x14F1 JUMP JUMPDEST PUSH1 0x1 PUSH1 0xFF NOT PUSH1 0x2 SLOAD AND OR PUSH1 0x2 SSTORE CALLER PUSH32 0xE453E53649B13B8C30EF82DD7BCE6C745CFCC7A1DC95170B4750764194F19B2 DUP3 DUP1 LOG2 DUP1 RETURN JUMPDEST POP DUP1 SLOAD PUSH1 0x1 PUSH1 0x1 PUSH1 0xA0 SHL SUB AND CALLER EQ PUSH2 0x6EC JUMP JUMPDEST POP PUSH1 0x21 PUSH1 0x24 SWAP3 PUSH4 0x4E487B71 PUSH1 0xE0 SHL DUP4 MSTORE MSTORE REVERT JUMPDEST POP CALLVALUE PUSH2 0x26B JUMPI PUSH1 0x20 DUP1 PUSH1 0x3 NOT CALLDATASIZE ADD SLT PUSH2 0x267 JUMPI PUSH2 0x76B PUSH2 0x1138 JUMP JUMPDEST SWAP2 CALLER DUP6 MSTORE PUSH1 0x3 DUP3 MSTORE PUSH1 0xFF DUP5 DUP7 KECCAK256 SLOAD AND DUP2 DUP2 LT ISZERO PUSH2 0x868 JUMPI PUSH1 0x3 EQ DUP1 ISZERO PUSH2 0x8CB JUMPI JUMPDEST PUSH2 0x795 SWAP1 PUSH2 0x14F1 JUMP JUMPDEST PUSH1 0x1 PUSH1 0x1 PUSH1 0xA0 SHL SUB SWAP3 DUP4 AND SWAP3 PUSH2 0x7AC DUP5 ISZERO ISZERO PUSH2 0x1547 JUMP JUMPDEST DUP6 SLOAD AND DUP4 EQ PUSH2 0x87B JUMPI DUP3 DUP6 MSTORE PUSH1 0x3 DUP3 MSTORE PUSH1 0xFF DUP5 DUP7 KECCAK256 SLOAD AND DUP2 DUP2 LT ISZERO PUSH2 0x868 JUMPI ISZERO PUSH2 0x81D JUMPI POP PUSH1 0x3 SWAP1 DUP3 DUP6 MSTORE MSTORE PUSH32 0xDC8EE88592CEE6126AB42F95859FDF2BBF7B0A614A14D4FB307B601E2B5B0B05 DUP3 DUP5 KECCAK256 SWAP3 DUP4 SLOAD SWAP4 PUSH1 0xFF NOT DUP6 AND SWAP1 SSTORE MLOAD DUP1 PUSH2 0x817 PUSH1 0xFF CALLER SWAP7 AND DUP3 PUSH2 0x117D JUMP JUMPDEST SUB SWAP1 LOG3 DUP1 RETURN JUMPDEST PUSH1 0x84 SWAP2 DUP5 MLOAD SWAP2 PUSH3 0x461BCD PUSH1 0xE5 SHL DUP4 MSTORE DUP3 ADD MSTORE PUSH1 0x21 PUSH1 0x24 DUP3 ADD MSTORE PUSH32 0x426C6F636B455250436F72653A206163636F756E7420686173206E6F20726F6C PUSH1 0x44 DUP3 ADD MSTORE PUSH1 0x65 PUSH1 0xF8 SHL PUSH1 0x64 DUP3 ADD MSTORE REVERT JUMPDEST PUSH4 0x4E487B71 PUSH1 0xE0 SHL DUP7 MSTORE PUSH1 0x21 DUP3 MSTORE PUSH1 0x24 DUP7 REVERT JUMPDEST PUSH1 0x84 SWAP2 DUP5 MLOAD SWAP2 PUSH3 0x461BCD PUSH1 0xE5 SHL DUP4 MSTORE DUP3 ADD MSTORE PUSH1 0x26 PUSH1 0x24 DUP3 ADD MSTORE PUSH32 0x426C6F636B455250436F72653A2063616E6E6F74207265766F6B65206F776E65 PUSH1 0x44 DUP3 ADD MSTORE PUSH6 0x7220726F6C65 PUSH1 0xD0 SHL PUSH1 0x64 DUP3 ADD MSTORE REVERT JUMPDEST POP DUP5 SLOAD PUSH1 0x1 PUSH1 0x1 PUSH1 0xA0 SHL SUB AND CALLER EQ PUSH2 0x78C JUMP JUMPDEST POP POP CALLVALUE PUSH2 0x28E JUMPI DUP2 PUSH1 0x3 NOT CALLDATASIZE ADD SLT PUSH2 0x28E JUMPI PUSH2 0x93B SWAP1 PUSH2 0x8FC PUSH2 0x1221 JUMP JUMPDEST SWAP1 PUSH2 0x964 PUSH2 0x908 PUSH2 0x12DE JUMP JUMPDEST SWAP2 PUSH2 0x956 PUSH2 0x914 PUSH2 0x1377 JUMP JUMPDEST SWAP2 PUSH2 0x91D PUSH2 0x1410 JUMP JUMPDEST SWAP3 PUSH2 0x949 PUSH1 0xFF PUSH1 0xB SLOAD AND SWAP7 DUP4 MLOAD SWAP10 DUP11 SWAP10 PUSH1 0xA0 DUP12 MSTORE PUSH1 0xA0 DUP12 ADD SWAP1 PUSH2 0x14CC JUMP JUMPDEST SWAP1 DUP10 DUP3 SUB PUSH1 0x20 DUP12 ADD MSTORE PUSH2 0x14CC JUMP JUMPDEST SWAP2 DUP8 DUP4 SUB SWAP1 DUP9 ADD MSTORE PUSH2 0x14CC JUMP JUMPDEST SWAP1 DUP5 DUP3 SUB PUSH1 0x60 DUP7 ADD MSTORE PUSH2 0x14CC JUMP JUMPDEST SWAP1 ISZERO ISZERO PUSH1 0x80 DUP4 ADD MSTORE SUB SWAP1 RETURN JUMPDEST POP CALLVALUE PUSH2 0x26B JUMPI PUSH2 0x97F CALLDATASIZE PUSH2 0x11A6 JUMP JUMPDEST DUP5 SLOAD PUSH1 0x1 PUSH1 0x1 PUSH1 0xA0 SHL SUB SWAP2 DUP3 SWAP2 PUSH2 0x999 SWAP1 DUP4 AND CALLER EQ PUSH2 0x1688 JUMP JUMPDEST AND SWAP3 PUSH2 0x9A6 DUP5 ISZERO ISZERO PUSH2 0x1547 JUMP JUMPDEST DUP5 MLOAD SWAP2 DUP4 MLOAD SWAP3 PUSH1 0x20 DUP2 DUP2 DUP8 ADD SWAP6 PUSH2 0x9BE DUP2 DUP4 DUP10 PUSH2 0x14A9 JUMP JUMPDEST DUP2 ADD DUP6 DUP2 MSTORE SUB ADD SWAP1 KECCAK256 SLOAD AND PUSH2 0xA14 JUMPI PUSH1 0x20 SWAP3 PUSH2 0x58D DUP5 PUSH32 0x34F835834B4752E7ED14D07E75A41134C2755912FE2F7D64B21A84828BE79315 SWAP7 SWAP5 PUSH2 0xA0B SWAP5 DUP10 MLOAD DUP1 SWAP5 DUP2 SWAP4 DUP8 MLOAD SWAP3 DUP4 SWAP2 PUSH2 0x14A9 JUMP JUMPDEST SWAP4 MLOAD SWAP1 DUP2 MSTORE LOG2 DUP1 RETURN JUMPDEST PUSH1 0x84 SWAP1 PUSH1 0x20 DUP7 MLOAD SWAP2 PUSH3 0x461BCD PUSH1 0xE5 SHL DUP4 MSTORE DUP3 ADD MSTORE PUSH1 0x27 PUSH1 0x24 DUP3 ADD MSTORE PUSH32 0x426C6F636B455250436F72653A206D6F64756C6520616C726561647920726567 PUSH1 0x44 DUP3 ADD MSTORE PUSH7 0x1A5CDD195C9959 PUSH1 0xCA SHL PUSH1 0x64 DUP3 ADD MSTORE REVERT JUMPDEST POP SWAP2 CALLVALUE PUSH2 0x345 JUMPI PUSH1 0x20 CALLDATASIZE PUSH1 0x3 NOT ADD SLT PUSH2 0x345 JUMPI DUP3 CALLDATALOAD SWAP3 DUP4 LT ISZERO PUSH2 0x345 JUMPI POP PUSH2 0x688 PUSH1 0x20 SWAP3 PUSH2 0x1702 JUMP JUMPDEST POP POP CALLVALUE PUSH2 0x28E JUMPI DUP2 PUSH1 0x3 NOT CALLDATASIZE ADD SLT PUSH2 0x28E JUMPI PUSH1 0x20 SWAP1 PUSH1 0xFF PUSH1 0x2 SLOAD AND SWAP1 MLOAD SWAP1 ISZERO ISZERO DUP2 MSTORE RETURN JUMPDEST POP POP CALLVALUE PUSH2 0x28E JUMPI DUP2 PUSH1 0x3 NOT CALLDATASIZE ADD SLT PUSH2 0x28E JUMPI SWAP1 PUSH1 0x80 SWAP2 PUSH1 0xFF PUSH1 0x2 SLOAD AND SWAP2 PUSH1 0x1 SLOAD SWAP2 PUSH1 0x5 SLOAD SWAP2 PUSH1 0x1 DUP1 PUSH1 0xA0 SHL SUB SWAP1 SLOAD AND SWAP3 DUP2 MLOAD SWAP5 ISZERO ISZERO DUP6 MSTORE PUSH1 0x20 DUP6 ADD MSTORE DUP4 ADD MSTORE PUSH1 0x60 DUP3 ADD MSTORE RETURN JUMPDEST POP POP CALLVALUE PUSH2 0x28E JUMPI PUSH1 0x20 CALLDATASIZE PUSH1 0x3 NOT ADD SLT PUSH2 0x28E JUMPI PUSH2 0xB2C SWAP1 PUSH2 0xB21 PUSH2 0xB1C PUSH2 0x1138 JUMP JUMPDEST PUSH2 0x1658 JUMP JUMPDEST SWAP1 MLOAD SWAP2 DUP3 SWAP2 DUP3 PUSH2 0x117D JUMP JUMPDEST SUB SWAP1 RETURN JUMPDEST POP SWAP2 SWAP1 CALLVALUE PUSH2 0x28E JUMPI DUP2 PUSH1 0x3 NOT CALLDATASIZE ADD SLT PUSH2 0x28E JUMPI CALLER DUP3 MSTORE PUSH1 0x3 PUSH1 0x20 MSTORE DUP2 KECCAK256 SLOAD PUSH1 0xFF AND DUP3 DUP2 LT ISZERO PUSH2 0x73D JUMPI PUSH1 0x3 EQ DUP1 ISZERO PUSH2 0xB9E JUMPI JUMPDEST PUSH2 0xB6C SWAP1 PUSH2 0x14F1 JUMP JUMPDEST PUSH1 0xFF NOT PUSH1 0x2 SLOAD AND PUSH1 0x2 SSTORE CALLER PUSH32 0x92414512BD79C80103975D8BEF2F4E78AA5930C2869B4BD6139D98836BA8D918 DUP3 DUP1 LOG2 DUP1 RETURN JUMPDEST POP DUP1 SLOAD PUSH1 0x1 PUSH1 0x1 PUSH1 0xA0 SHL SUB AND CALLER EQ PUSH2 0xB63 JUMP JUMPDEST POP CALLVALUE PUSH2 0x26B JUMPI PUSH2 0xBC0 CALLDATASIZE PUSH2 0x114E JUMP JUMPDEST SWAP3 SWAP1 CALLER DUP6 MSTORE PUSH1 0x20 SWAP1 PUSH1 0x3 DUP3 MSTORE PUSH1 0xFF DUP4 DUP8 KECCAK256 SLOAD AND DUP5 DUP2 LT ISZERO PUSH2 0xD40 JUMPI PUSH1 0x3 EQ DUP1 ISZERO PUSH2 0xD2D JUMPI JUMPDEST PUSH2 0xBEE SWAP1 PUSH2 0x14F1 JUMP JUMPDEST PUSH1 0x1 PUSH1 0x1 PUSH1 0xA0 SHL SUB DUP2 AND SWAP4 PUSH2 0xC04 DUP6 ISZERO ISZERO PUSH2 0x1547 JUMP JUMPDEST PUSH1 0xFF PUSH1 0x2 SLOAD AND PUSH2 0xCEA JUMPI DUP1 DUP7 LT ISZERO PUSH2 0xCD7 JUMPI DUP6 ISZERO PUSH2 0xC88 JUMPI POP PUSH1 0x0 DUP1 MLOAD PUSH1 0x20 PUSH2 0x1766 DUP4 CODECOPY DUP2 MLOAD SWAP2 MSTORE SWAP3 SWAP2 PUSH1 0x3 SWAP2 DUP6 DUP9 MSTORE PUSH1 0x6 DUP3 MSTORE PUSH1 0xFF DUP5 DUP10 KECCAK256 SLOAD AND ISZERO PUSH2 0xC64 JUMPI JUMPDEST POP MSTORE DUP1 DUP6 KECCAK256 PUSH1 0xFF NOT DUP2 SLOAD AND PUSH1 0xFF DUP7 AND OR SWAP1 SSTORE MLOAD DUP1 PUSH2 0x817 CALLER SWAP6 DUP3 PUSH2 0x117D JUMP JUMPDEST PUSH2 0xC6D SWAP1 PUSH2 0x1593 JUMP JUMPDEST DUP5 DUP8 MSTORE PUSH1 0x6 DUP2 MSTORE DUP3 DUP8 KECCAK256 DUP1 SLOAD PUSH1 0xFF NOT AND PUSH1 0x1 OR SWAP1 SSTORE CODESIZE PUSH2 0xC45 JUMP JUMPDEST DUP4 MLOAD PUSH3 0x461BCD PUSH1 0xE5 SHL DUP2 MSTORE SWAP1 DUP2 ADD DUP4 SWAP1 MSTORE PUSH1 0x24 DUP1 DUP3 ADD MSTORE PUSH32 0x426C6F636B455250436F72653A2063616E6E6F74206772616E74204E4F4E4520 PUSH1 0x44 DUP3 ADD MSTORE PUSH4 0x726F6C65 PUSH1 0xE0 SHL PUSH1 0x64 DUP3 ADD MSTORE PUSH1 0x84 SWAP1 REVERT JUMPDEST PUSH4 0x4E487B71 PUSH1 0xE0 SHL DUP8 MSTORE PUSH1 0x21 SWAP1 MSTORE PUSH1 0x24 DUP7 REVERT JUMPDEST DUP4 MLOAD PUSH3 0x461BCD PUSH1 0xE5 SHL DUP2 MSTORE SWAP1 DUP2 ADD DUP4 SWAP1 MSTORE PUSH1 0x1E PUSH1 0x24 DUP3 ADD MSTORE PUSH32 0x426C6F636B455250436F72653A2073797374656D206973207061757365640000 PUSH1 0x44 DUP3 ADD MSTORE PUSH1 0x64 SWAP1 REVERT JUMPDEST POP DUP6 SLOAD PUSH1 0x1 PUSH1 0x1 PUSH1 0xA0 SHL SUB AND CALLER EQ PUSH2 0xBE5 JUMP JUMPDEST PUSH4 0x4E487B71 PUSH1 0xE0 SHL DUP8 MSTORE PUSH1 0x21 DUP6 MSTORE PUSH1 0x24 DUP8 REVERT JUMPDEST POP CALLVALUE PUSH2 0x26B JUMPI PUSH1 0x20 CALLDATASIZE PUSH1 0x3 NOT ADD SLT PUSH2 0x26B JUMPI CALLDATALOAD PUSH1 0x5 SLOAD DUP2 LT ISZERO PUSH2 0x26B JUMPI PUSH1 0x5 SWAP1 SWAP3 MSTORE PUSH1 0x0 DUP1 MLOAD PUSH1 0x20 PUSH2 0x1746 DUP4 CODECOPY DUP2 MLOAD SWAP2 MSTORE SWAP1 SWAP2 ADD SLOAD SWAP1 MLOAD PUSH1 0x1 PUSH1 0x1 PUSH1 0xA0 SHL SUB SWAP1 SWAP2 AND DUP2 MSTORE PUSH1 0x20 SWAP1 RETURN JUMPDEST POP SWAP1 CALLVALUE PUSH2 0x26B JUMPI DUP1 PUSH1 0x3 NOT CALLDATASIZE ADD SLT PUSH2 0x26B JUMPI PUSH1 0x1 PUSH1 0x1 PUSH1 0x40 SHL SUB SWAP1 DUP3 CALLDATALOAD DUP3 DUP2 GT PUSH2 0x1085 JUMPI PUSH2 0xDCD SWAP1 CALLDATASIZE SWAP1 DUP6 ADD PUSH2 0x10DD JUMP JUMPDEST SWAP2 PUSH1 0x24 CALLDATALOAD DUP2 DUP2 GT PUSH2 0x1081 JUMPI PUSH2 0xDE5 SWAP1 CALLDATASIZE SWAP1 DUP7 ADD PUSH2 0x10DD JUMP JUMPDEST SWAP4 CALLER DUP7 MSTORE PUSH1 0x3 SWAP1 PUSH1 0x20 SWAP6 DUP3 DUP8 MSTORE PUSH1 0xFF DUP6 DUP10 KECCAK256 SLOAD AND DUP3 DUP2 LT ISZERO PUSH2 0x106E JUMPI DUP4 EQ DUP1 ISZERO PUSH2 0x105B JUMPI JUMPDEST PUSH2 0xE13 SWAP1 PUSH2 0x14F1 JUMP JUMPDEST DUP6 MLOAD SWAP2 DUP5 DUP4 GT PUSH2 0xF99 JUMPI PUSH2 0xE28 PUSH1 0x7 SLOAD PUSH2 0x11E7 JUMP JUMPDEST SWAP3 PUSH1 0x1F SWAP4 DUP5 DUP2 GT PUSH2 0x101A JUMPI JUMPDEST POP DUP1 DUP10 DUP6 DUP3 GT PUSH1 0x1 EQ PUSH2 0xFB7 JUMPI DUP12 SWAP2 PUSH2 0xFAC JUMPI JUMPDEST POP DUP2 PUSH1 0x1 SHL SWAP2 PUSH1 0x0 NOT SWAP1 DUP8 SHL SHR NOT AND OR PUSH1 0x7 SSTORE JUMPDEST DUP2 MLOAD SWAP5 DUP6 GT PUSH2 0xF99 JUMPI POP PUSH2 0xE71 PUSH1 0xA SLOAD PUSH2 0x11E7 JUMP JUMPDEST DUP3 DUP2 GT PUSH2 0xF58 JUMPI JUMPDEST POP DUP7 SWAP2 DUP5 GT PUSH1 0x1 EQ PUSH2 0xEDB JUMPI SWAP3 PUSH2 0xECA SWAP5 SWAP3 DUP2 SWAP3 PUSH1 0x0 DUP1 MLOAD PUSH1 0x20 PUSH2 0x1786 DUP4 CODECOPY DUP2 MLOAD SWAP2 MSTORE SWAP8 SWAP6 DUP11 SWAP4 PUSH2 0xED0 JUMPI JUMPDEST POP POP DUP3 PUSH1 0x1 SHL SWAP3 PUSH1 0x0 NOT SWAP2 SHL SHR NOT AND OR PUSH1 0xA SSTORE JUMPDEST MLOAD SWAP2 DUP3 SWAP2 DUP6 DUP4 MSTORE CALLER SWAP6 DUP4 ADD SWAP1 PUSH2 0x14CC JUMP JUMPDEST SUB SWAP1 LOG2 DUP1 RETURN JUMPDEST ADD MLOAD SWAP2 POP CODESIZE DUP1 PUSH2 0xEA5 JUMP JUMPDEST PUSH1 0xA DUP9 MSTORE DUP7 DUP9 KECCAK256 SWAP3 SWAP2 SWAP1 PUSH1 0x1F NOT DUP6 AND DUP10 JUMPDEST DUP10 DUP3 DUP3 LT PUSH2 0xF42 JUMPI POP POP SWAP3 DUP6 SWAP3 PUSH2 0xECA SWAP8 SWAP6 SWAP3 PUSH1 0x0 DUP1 MLOAD PUSH1 0x20 PUSH2 0x1786 DUP4 CODECOPY DUP2 MLOAD SWAP2 MSTORE SWAP10 SWAP8 PUSH1 0x1 SWAP7 LT PUSH2 0xF28 JUMPI JUMPDEST POP POP POP POP DUP2 SHL ADD PUSH1 0xA SSTORE PUSH2 0xEB9 JUMP JUMPDEST ADD MLOAD SWAP1 PUSH1 0xF8 DUP5 PUSH1 0x0 NOT SWAP3 SHL AND SHR NOT AND SWAP1 SSTORE CODESIZE DUP1 DUP1 DUP1 PUSH2 0xF19 JUMP JUMPDEST PUSH1 0x1 DUP6 SWAP8 DUP3 SWAP4 SWAP7 DUP7 ADD MLOAD DUP2 SSTORE ADD SWAP7 ADD SWAP4 ADD PUSH2 0xEEC JUMP JUMPDEST PUSH1 0xA DUP10 MSTORE DUP8 DUP10 KECCAK256 DUP4 DUP1 DUP8 ADD PUSH1 0x5 SHR DUP3 ADD SWAP3 DUP11 DUP9 LT PUSH2 0xF90 JUMPI JUMPDEST ADD PUSH1 0x5 SHR ADD SWAP1 JUMPDEST DUP2 DUP2 LT PUSH2 0xF85 JUMPI POP PUSH2 0xE79 JUMP JUMPDEST DUP10 DUP2 SSTORE PUSH1 0x1 ADD PUSH2 0xF78 JUMP JUMPDEST SWAP3 POP DUP2 SWAP3 PUSH2 0xF71 JUMP JUMPDEST PUSH4 0x4E487B71 PUSH1 0xE0 SHL DUP10 MSTORE PUSH1 0x41 SWAP1 MSTORE PUSH1 0x24 DUP9 REVERT JUMPDEST SWAP1 POP DUP9 ADD MLOAD CODESIZE PUSH2 0xE48 JUMP JUMPDEST PUSH1 0x7 DUP13 MSTORE DUP11 DUP13 KECCAK256 SWAP2 POP PUSH1 0x1F NOT DUP4 AND DUP13 JUMPDEST DUP13 DUP13 DUP4 DUP4 LT PUSH2 0x1005 JUMPI POP POP POP SWAP1 DUP4 PUSH1 0x1 SWAP5 SWAP4 SWAP3 LT PUSH2 0xFED JUMPI JUMPDEST POP POP DUP2 SHL ADD PUSH1 0x7 SSTORE PUSH2 0xE5C JUMP JUMPDEST DUP11 ADD MLOAD PUSH1 0x0 NOT DUP4 DUP10 SHL PUSH1 0xF8 AND SHR NOT AND SWAP1 SSTORE CODESIZE DUP1 PUSH2 0xFE0 JUMP JUMPDEST DUP5 ADD MLOAD DUP6 SSTORE PUSH1 0x1 SWAP1 SWAP5 ADD SWAP4 SWAP3 DUP4 ADD SWAP3 ADD PUSH2 0xFC7 JUMP JUMPDEST PUSH1 0x7 DUP12 MSTORE DUP10 DUP12 KECCAK256 DUP6 DUP1 DUP5 ADD PUSH1 0x5 SHR DUP3 ADD SWAP3 DUP13 DUP6 LT PUSH2 0x1052 JUMPI JUMPDEST ADD PUSH1 0x5 SHR ADD SWAP1 JUMPDEST DUP2 DUP2 LT PUSH2 0x1047 JUMPI POP PUSH2 0xE34 JUMP JUMPDEST DUP12 DUP2 SSTORE PUSH1 0x1 ADD PUSH2 0x103A JUMP JUMPDEST SWAP3 POP DUP2 SWAP3 PUSH2 0x1033 JUMP JUMPDEST POP DUP8 SLOAD PUSH1 0x1 PUSH1 0x1 PUSH1 0xA0 SHL SUB AND CALLER EQ PUSH2 0xE0A JUMP JUMPDEST PUSH4 0x4E487B71 PUSH1 0xE0 SHL DUP10 MSTORE PUSH1 0x21 DUP4 MSTORE PUSH1 0x24 DUP10 REVERT JUMPDEST DUP6 DUP1 REVERT JUMPDEST DUP5 DUP1 REVERT JUMPDEST PUSH1 0xA0 DUP2 ADD SWAP1 DUP2 LT PUSH1 0x1 PUSH1 0x1 PUSH1 0x40 SHL SUB DUP3 GT OR PUSH2 0x10A4 JUMPI PUSH1 0x40 MSTORE JUMP JUMPDEST PUSH4 0x4E487B71 PUSH1 0xE0 SHL PUSH1 0x0 MSTORE PUSH1 0x41 PUSH1 0x4 MSTORE PUSH1 0x24 PUSH1 0x0 REVERT JUMPDEST PUSH1 0x1F SWAP1 SWAP2 ADD PUSH1 0x1F NOT AND DUP2 ADD SWAP1 PUSH1 0x1 PUSH1 0x1 PUSH1 0x40 SHL SUB DUP3 GT SWAP1 DUP3 LT OR PUSH2 0x10A4 JUMPI PUSH1 0x40 MSTORE JUMP JUMPDEST DUP2 PUSH1 0x1F DUP3 ADD SLT ISZERO PUSH2 0x1133 JUMPI DUP1 CALLDATALOAD SWAP1 PUSH1 0x1 PUSH1 0x1 PUSH1 0x40 SHL SUB DUP3 GT PUSH2 0x10A4 JUMPI PUSH1 0x40 MLOAD SWAP3 PUSH2 0x1111 PUSH1 0x1F DUP5 ADD PUSH1 0x1F NOT AND PUSH1 0x20 ADD DUP6 PUSH2 0x10BA JUMP JUMPDEST DUP3 DUP5 MSTORE PUSH1 0x20 DUP4 DUP4 ADD ADD GT PUSH2 0x1133 JUMPI DUP2 PUSH1 0x0 SWAP3 PUSH1 0x20 DUP1 SWAP4 ADD DUP4 DUP7 ADD CALLDATACOPY DUP4 ADD ADD MSTORE SWAP1 JUMP JUMPDEST PUSH1 0x0 DUP1 REVERT JUMPDEST PUSH1 0x4 CALLDATALOAD SWAP1 PUSH1 0x1 PUSH1 0x1 PUSH1 0xA0 SHL SUB DUP3 AND DUP3 SUB PUSH2 0x1133 JUMPI JUMP JUMPDEST PUSH1 0x40 SWAP1 PUSH1 0x3 NOT ADD SLT PUSH2 0x1133 JUMPI PUSH1 0x4 CALLDATALOAD PUSH1 0x1 PUSH1 0x1 PUSH1 0xA0 SHL SUB DUP2 AND DUP2 SUB PUSH2 0x1133 JUMPI SWAP1 PUSH1 0x24 CALLDATALOAD PUSH1 0x4 DUP2 LT ISZERO PUSH2 0x1133 JUMPI SWAP1 JUMP JUMPDEST SWAP2 SWAP1 PUSH1 0x20 DUP4 ADD SWAP3 PUSH1 0x4 DUP3 LT ISZERO PUSH2 0x1190 JUMPI MSTORE JUMP JUMPDEST PUSH4 0x4E487B71 PUSH1 0xE0 SHL PUSH1 0x0 MSTORE PUSH1 0x21 PUSH1 0x4 MSTORE PUSH1 0x24 PUSH1 0x0 REVERT JUMPDEST PUSH1 0x40 PUSH1 0x3 NOT DUP3 ADD SLT PUSH2 0x1133 JUMPI PUSH1 0x4 CALLDATALOAD SWAP1 PUSH1 0x1 PUSH1 0x1 PUSH1 0x40 SHL SUB DUP3 GT PUSH2 0x1133 JUMPI PUSH2 0x11D0 SWAP2 PUSH1 0x4 ADD PUSH2 0x10DD JUMP JUMPDEST SWAP1 PUSH1 0x24 CALLDATALOAD PUSH1 0x1 PUSH1 0x1 PUSH1 0xA0 SHL SUB DUP2 AND DUP2 SUB PUSH2 0x1133 JUMPI SWAP1 JUMP JUMPDEST SWAP1 PUSH1 0x1 DUP3 DUP2 SHR SWAP3 AND DUP1 ISZERO PUSH2 0x1217 JUMPI JUMPDEST PUSH1 0x20 DUP4 LT EQ PUSH2 0x1201 JUMPI JUMP JUMPDEST PUSH4 0x4E487B71 PUSH1 0xE0 SHL PUSH1 0x0 MSTORE PUSH1 0x22 PUSH1 0x4 MSTORE PUSH1 0x24 PUSH1 0x0 REVERT JUMPDEST SWAP2 PUSH1 0x7F AND SWAP2 PUSH2 0x11F6 JUMP JUMPDEST PUSH1 0x40 MLOAD SWAP1 PUSH1 0x0 DUP3 PUSH1 0x7 SLOAD SWAP2 PUSH2 0x1235 DUP4 PUSH2 0x11E7 JUMP JUMPDEST DUP1 DUP4 MSTORE PUSH1 0x1 SWAP4 DUP1 DUP6 AND SWAP1 DUP2 ISZERO PUSH2 0x12BD JUMPI POP PUSH1 0x1 EQ PUSH2 0x125D JUMPI JUMPDEST POP PUSH2 0x125B SWAP3 POP SUB DUP4 PUSH2 0x10BA JUMP JUMPDEST JUMP JUMPDEST PUSH1 0x7 PUSH1 0x0 SWAP1 DUP2 MSTORE PUSH32 0xA66CC928B5EDB82AF9BD49922954155AB7B0942694BEA4CE44661D9A8736C688 SWAP5 PUSH1 0x20 SWAP4 POP SWAP1 SWAP2 SWAP1 JUMPDEST DUP2 DUP4 LT PUSH2 0x12A5 JUMPI POP POP PUSH2 0x125B SWAP4 POP DUP3 ADD ADD CODESIZE PUSH2 0x124E JUMP JUMPDEST DUP6 SLOAD DUP9 DUP5 ADD DUP6 ADD MSTORE SWAP5 DUP6 ADD SWAP5 DUP8 SWAP5 POP SWAP2 DUP4 ADD SWAP2 PUSH2 0x128E JUMP JUMPDEST SWAP1 POP PUSH2 0x125B SWAP5 POP PUSH1 0x20 SWAP3 POP PUSH1 0xFF NOT AND DUP3 DUP5 ADD MSTORE ISZERO ISZERO PUSH1 0x5 SHL DUP3 ADD ADD CODESIZE PUSH2 0x124E JUMP JUMPDEST PUSH1 0x40 MLOAD SWAP1 PUSH1 0x0 DUP3 PUSH1 0x8 SLOAD SWAP2 PUSH2 0x12F2 DUP4 PUSH2 0x11E7 JUMP JUMPDEST DUP1 DUP4 MSTORE PUSH1 0x1 SWAP4 DUP1 DUP6 AND SWAP1 DUP2 ISZERO PUSH2 0x12BD JUMPI POP PUSH1 0x1 EQ PUSH2 0x1317 JUMPI POP PUSH2 0x125B SWAP3 POP SUB DUP4 PUSH2 0x10BA JUMP JUMPDEST PUSH1 0x8 PUSH1 0x0 SWAP1 DUP2 MSTORE PUSH32 0xF3F7A9FE364FAAB93B216DA50A3214154F22A0A2B415B23A84C8169E8B636EE3 SWAP5 PUSH1 0x20 SWAP4 POP SWAP1 SWAP2 SWAP1 JUMPDEST DUP2 DUP4 LT PUSH2 0x135F JUMPI POP POP PUSH2 0x125B SWAP4 POP DUP3 ADD ADD CODESIZE PUSH2 0x124E JUMP JUMPDEST DUP6 SLOAD DUP9 DUP5 ADD DUP6 ADD MSTORE SWAP5 DUP6 ADD SWAP5 DUP8 SWAP5 POP SWAP2 DUP4 ADD SWAP2 PUSH2 0x1348 JUMP JUMPDEST PUSH1 0x40 MLOAD SWAP1 PUSH1 0x0 DUP3 PUSH1 0x9 SLOAD SWAP2 PUSH2 0x138B DUP4 PUSH2 0x11E7 JUMP JUMPDEST DUP1 DUP4 MSTORE PUSH1 0x1 SWAP4 DUP1 DUP6 AND SWAP1 DUP2 ISZERO PUSH2 0x12BD JUMPI POP PUSH1 0x1 EQ PUSH2 0x13B0 JUMPI POP PUSH2 0x125B SWAP3 POP SUB DUP4 PUSH2 0x10BA JUMP JUMPDEST PUSH1 0x9 PUSH1 0x0 SWAP1 DUP2 MSTORE PUSH32 0x6E1540171B6C0C960B71A7020D9F60077F6AF931A8BBF590DA0223DACF75C7AF SWAP5 PUSH1 0x20 SWAP4 POP SWAP1 SWAP2 SWAP1 JUMPDEST DUP2 DUP4 LT PUSH2 0x13F8 JUMPI POP POP PUSH2 0x125B SWAP4 POP DUP3 ADD ADD CODESIZE PUSH2 0x124E JUMP JUMPDEST DUP6 SLOAD DUP9 DUP5 ADD DUP6 ADD MSTORE SWAP5 DUP6 ADD SWAP5 DUP8 SWAP5 POP SWAP2 DUP4 ADD SWAP2 PUSH2 0x13E1 JUMP JUMPDEST PUSH1 0x40 MLOAD SWAP1 PUSH1 0x0 DUP3 PUSH1 0xA SLOAD SWAP2 PUSH2 0x1424 DUP4 PUSH2 0x11E7 JUMP JUMPDEST DUP1 DUP4 MSTORE PUSH1 0x1 SWAP4 DUP1 DUP6 AND SWAP1 DUP2 ISZERO PUSH2 0x12BD JUMPI POP PUSH1 0x1 EQ PUSH2 0x1449 JUMPI POP PUSH2 0x125B SWAP3 POP SUB DUP4 PUSH2 0x10BA JUMP JUMPDEST PUSH1 0xA PUSH1 0x0 SWAP1 DUP2 MSTORE PUSH32 0xC65A7BB8D6351C1CF70C95A316CC6A92839C986682D98BC35F958F4883F9D2A8 SWAP5 PUSH1 0x20 SWAP4 POP SWAP1 SWAP2 SWAP1 JUMPDEST DUP2 DUP4 LT PUSH2 0x1491 JUMPI POP POP PUSH2 0x125B SWAP4 POP DUP3 ADD ADD CODESIZE PUSH2 0x124E JUMP JUMPDEST DUP6 SLOAD DUP9 DUP5 ADD DUP6 ADD MSTORE SWAP5 DUP6 ADD SWAP5 DUP8 SWAP5 POP SWAP2 DUP4 ADD SWAP2 PUSH2 0x147A JUMP JUMPDEST PUSH1 0x0 JUMPDEST DUP4 DUP2 LT PUSH2 0x14BC JUMPI POP POP PUSH1 0x0 SWAP2 ADD MSTORE JUMP JUMPDEST DUP2 DUP2 ADD MLOAD DUP4 DUP3 ADD MSTORE PUSH1 0x20 ADD PUSH2 0x14AC JUMP JUMPDEST SWAP1 PUSH1 0x20 SWAP2 PUSH2 0x14E5 DUP2 MLOAD DUP1 SWAP3 DUP2 DUP6 MSTORE DUP6 DUP1 DUP7 ADD SWAP2 ADD PUSH2 0x14A9 JUMP JUMPDEST PUSH1 0x1F ADD PUSH1 0x1F NOT AND ADD ADD SWAP1 JUMP JUMPDEST ISZERO PUSH2 0x14F8 JUMPI JUMP JUMPDEST PUSH1 0x40 MLOAD PUSH3 0x461BCD PUSH1 0xE5 SHL DUP2 MSTORE PUSH1 0x20 PUSH1 0x4 DUP3 ADD MSTORE PUSH1 0x21 PUSH1 0x24 DUP3 ADD MSTORE PUSH32 0x426C6F636B455250436F72653A2063616C6C6572206973206E6F742061646D69 PUSH1 0x44 DUP3 ADD MSTORE PUSH1 0x37 PUSH1 0xF9 SHL PUSH1 0x64 DUP3 ADD MSTORE PUSH1 0x84 SWAP1 REVERT JUMPDEST ISZERO PUSH2 0x154E JUMPI JUMP JUMPDEST PUSH1 0x40 MLOAD PUSH3 0x461BCD PUSH1 0xE5 SHL DUP2 MSTORE PUSH1 0x20 PUSH1 0x4 DUP3 ADD MSTORE PUSH1 0x1D PUSH1 0x24 DUP3 ADD MSTORE PUSH32 0x426C6F636B455250436F72653A20696E76616C69642061646472657373000000 PUSH1 0x44 DUP3 ADD MSTORE PUSH1 0x64 SWAP1 REVERT JUMPDEST PUSH1 0x5 SLOAD PUSH1 0x1 PUSH1 0x40 SHL DUP2 LT ISZERO PUSH2 0x10A4 JUMPI PUSH1 0x1 DUP2 ADD DUP1 PUSH1 0x5 SSTORE DUP2 LT ISZERO PUSH2 0x15E5 JUMPI PUSH1 0x5 PUSH1 0x0 MSTORE PUSH1 0x0 DUP1 MLOAD PUSH1 0x20 PUSH2 0x1746 DUP4 CODECOPY DUP2 MLOAD SWAP2 MSTORE ADD DUP1 SLOAD PUSH1 0x1 PUSH1 0x1 PUSH1 0xA0 SHL SUB NOT AND PUSH1 0x1 PUSH1 0x1 PUSH1 0xA0 SHL SUB SWAP1 SWAP3 AND SWAP2 SWAP1 SWAP2 OR SWAP1 SSTORE JUMP JUMPDEST PUSH4 0x4E487B71 PUSH1 0xE0 SHL PUSH1 0x0 MSTORE PUSH1 0x32 PUSH1 0x4 MSTORE PUSH1 0x24 PUSH1 0x0 REVERT JUMPDEST PUSH1 0x0 DUP1 SLOAD SWAP1 SWAP2 PUSH1 0x1 PUSH1 0x1 PUSH1 0xA0 SHL SUB SWAP1 DUP2 AND SWAP2 AND DUP2 EQ PUSH2 0x1650 JUMPI DUP2 MSTORE PUSH1 0x3 PUSH1 0x20 MSTORE PUSH1 0xFF PUSH1 0x40 DUP3 KECCAK256 SLOAD AND SWAP1 PUSH1 0x4 DUP4 LT ISZERO PUSH2 0x163C JUMPI PUSH1 0x4 DUP3 LT ISZERO PUSH2 0x163C JUMPI POP LT ISZERO SWAP1 JUMP JUMPDEST PUSH4 0x4E487B71 PUSH1 0xE0 SHL DUP2 MSTORE PUSH1 0x21 PUSH1 0x4 MSTORE PUSH1 0x24 SWAP1 REVERT JUMPDEST POP POP POP PUSH1 0x1 SWAP1 JUMP JUMPDEST PUSH1 0x0 SLOAD PUSH1 0x1 PUSH1 0x1 PUSH1 0xA0 SHL SUB SWAP2 DUP3 AND SWAP2 AND DUP2 EQ PUSH2 0x1682 JUMPI PUSH1 0x0 MSTORE PUSH1 0x3 PUSH1 0x20 MSTORE PUSH1 0xFF PUSH1 0x40 PUSH1 0x0 KECCAK256 SLOAD AND SWAP1 JUMP JUMPDEST POP PUSH1 0x3 SWAP1 JUMP JUMPDEST ISZERO PUSH2 0x168F JUMPI JUMP JUMPDEST PUSH1 0x40 MLOAD PUSH3 0x461BCD PUSH1 0xE5 SHL DUP2 MSTORE PUSH1 0x20 PUSH1 0x4 DUP3 ADD MSTORE PUSH1 0x25 PUSH1 0x24 DUP3 ADD MSTORE PUSH32 0x426C6F636B455250436F72653A2063616C6C6572206973206E6F742074686520 PUSH1 0x44 DUP3 ADD MSTORE PUSH5 0x37BBB732B9 PUSH1 0xD9 SHL PUSH1 0x64 DUP3 ADD MSTORE PUSH1 0x84 SWAP1 REVERT JUMPDEST PUSH2 0x16FA SWAP1 PUSH1 0x20 PUSH1 0x40 MLOAD SWAP3 DUP3 DUP5 DUP1 SWAP5 MLOAD SWAP4 DUP5 SWAP3 ADD PUSH2 0x14A9 JUMP JUMPDEST DUP2 ADD SUB SWAP1 KECCAK256 SWAP1 JUMP JUMPDEST PUSH1 0x0 DUP1 SLOAD PUSH1 0x1 PUSH1 0x1 PUSH1 0xA0 SHL SUB AND CALLER EQ PUSH2 0x173E JUMPI CALLER DUP2 MSTORE PUSH1 0x3 PUSH1 0x20 MSTORE PUSH1 0xFF PUSH1 0x40 DUP3 KECCAK256 SLOAD AND SWAP1 PUSH1 0x4 DUP4 LT ISZERO PUSH2 0x163C JUMPI PUSH1 0x4 DUP3 LT ISZERO PUSH2 0x163C JUMPI POP LT ISZERO SWAP1 JUMP JUMPDEST POP POP PUSH1 0x1 SWAP1 JUMP INVALID SUB PUSH12 0x6384B5ECA791C62761152D0C PUSH26 0xBB0604C104A5FB6F4EB0703F3154BB3DB0454D3BE37AC6A7B902 CALLVALUE 0xE SLOAD SGT 0xDF JUMP PUSH4 0xE10F86D1 0xA5 PUSH23 0x286058188216404A88EF15D9807DDBF27AF3FBAB302A6B CODECOPY 0xDC 0xCC 0xB7 PUSH19 0x86631C2DE9283DD0C66D15776528A264697066 PUSH20 0x58221220A22024BF7FCA2904142AF4CBAE607DE9 PUSH9 0x126B1CE9833BDBA6E1 0xB9 XOR EXP SWAP13 BLOCKHASH 0x5E PUSH5 0x736F6C6343 STOP ADDMOD SGT STOP CALLER 0xC6 GAS PUSH28 0xB8D6351C1CF70C95A316CC6A92839C986682D98BC35F958F4883F9D2 0xA8 0xA6 PUSH13 0xC928B5EDB82AF9BD4992295415 GAS 0xB7 0xB0 SWAP5 0x26 SWAP5 0xBE LOG4 0xCE PREVRANDAO PUSH7 0x1D9A8736C688F3 0xF7 0xA9 INVALID CALLDATASIZE 0x4F 0xAA 0xB9 EXTCODESIZE 0x21 PUSH14 0xA50A3214154F22A0A2B415B23A84 0xC8 AND SWAP15 DUP12 PUSH4 0x6EE36E15 BLOCKHASH OR SHL PUSH13 0xC960B71A7020D9F60077F6AF9 BALANCE 0xA8 0xBB CREATE2 SWAP1 0xDA MUL 0x23 0xDA 0xCF PUSH22 0xC7AF0000000000000000000000000000000000000000 "},"methodIdentifiers":{"checkAccess(uint8)":"5d4ca7d5","company()":"6904c94d","deployedAt()":"eae4c19f","getAllUsers()":"e2842d79","getCompanyInfo()":"d7710d62","getModule(string)":"08f523d8","getRole(address)":"44276733","getSystemStatus()":"50c1d19d","getUserCount()":"b5cb15f7","grantRole(address,uint8)":"3e840236","hasRole(address,uint8)":"95a8c58d","isRegistered(address)":"c3c5a547","modules(string)":"99b0d6d0","owner()":"8da5cb5b","pause()":"8456cb59","paused()":"5c975abb","registerModule(string,address)":"639cc67d","revokeRole(address)":"80e52e3f","transferOwnership(address)":"f2fde38b","unpause()":"3f4ba83a","updateCompanyInfo(string,string)":"1a0a6c68","updateModule(string,address)":"a5b1b097","users(uint256)":"365b98b2","verifyCompany()":"ccef66f3"}}}}}