{"contracts/SupplyChain.sol":{"SupplyChain":{"abi":[{"inputs":[{"internalType":"address","name":"_coreAddress","type":"address"}],"stateMutability":"nonpayable","type":"constructor"},{"anonymous":false,"inputs":[{"indexed":true,"internalType":"address","name":"handlerAddress","type":"address"},{"indexed":true,"internalType":"address","name":"deactivatedBy","type":"address"}],"name":"HandlerDeactivated","type":"event"},{"anonymous":false,"inputs":[{"indexed":true,"internalType":"address","name":"handlerAddress","type":"address"},{"indexed":false,"internalType":"string","name":"name","type":"string"},{"indexed":false,"internalType":"string","name":"handlerType","type":"string"}],"name":"HandlerRegistered","type":"event"},{"anonymous":false,"inputs":[{"indexed":true,"internalType":"uint256","name":"productId","type":"uint256"},{"indexed":false,"internalType":"bool","name":"isValid","type":"bool"},{"indexed":false,"internalType":"address","name":"verifiedBy","type":"address"}],"name":"ProvenanceVerified","type":"event"},{"anonymous":false,"inputs":[{"indexed":true,"internalType":"uint256","name":"productId","type":"uint256"},{"indexed":false,"internalType":"uint256","name":"totalEvents","type":"uint256"},{"indexed":false,"internalType":"bytes32","name":"finalHash","type":"bytes32"}],"name":"TrackingCompleted","type":"event"},{"anonymous":false,"inputs":[{"indexed":true,"internalType":"uint256","name":"productId","type":"uint256"},{"indexed":false,"internalType":"enum ISupplyChainTypes.TrackingStatus","name":"status","type":"uint8"},{"indexed":false,"internalType":"string","name":"location","type":"string"},{"indexed":false,"internalType":"string","name":"handler","type":"string"},{"indexed":false,"internalType":"bytes32","name":"eventHash","type":"bytes32"}],"name":"TrackingEventRecorded","type":"event"},{"anonymous":false,"inputs":[{"indexed":true,"internalType":"uint256","name":"productId","type":"uint256"},{"indexed":false,"internalType":"string","name":"origin","type":"string"},{"indexed":false,"internalType":"string","name":"destination","type":"string"},{"indexed":false,"internalType":"bytes32","name":"initialHash","type":"bytes32"}],"name":"TrackingStarted","type":"event"},{"inputs":[{"internalType":"address","name":"handlerAddress","type":"address"}],"name":"approveHandler","outputs":[],"stateMutability":"nonpayable","type":"function"},{"inputs":[{"internalType":"uint256","name":"productId","type":"uint256"}],"name":"completeTracking","outputs":[],"stateMutability":"nonpayable","type":"function"},{"inputs":[],"name":"core","outputs":[{"internalType":"contract BlockERPCore","name":"","type":"address"}],"stateMutability":"view","type":"function"},{"inputs":[{"internalType":"address","name":"handlerAddress","type":"address"}],"name":"deactivateHandler","outputs":[],"stateMutability":"nonpayable","type":"function"},{"inputs":[],"name":"getActiveShipments","outputs":[{"internalType":"uint256[]","name":"","type":"uint256[]"}],"stateMutability":"view","type":"function"},{"inputs":[],"name":"getAllHandlers","outputs":[{"internalType":"address[]","name":"","type":"address[]"}],"stateMutability":"view","type":"function"},{"inputs":[],"name":"getAllTrackedProducts","outputs":[{"internalType":"uint256[]","name":"","type":"uint256[]"}],"stateMutability":"view","type":"function"},{"inputs":[{"internalType":"uint256","name":"productId","type":"uint256"}],"name":"getCurrentStatus","outputs":[{"internalType":"enum ISupplyChainTypes.TrackingStatus","name":"","type":"uint8"}],"stateMutability":"view","type":"function"},{"inputs":[{"internalType":"address","name":"handlerAddress","type":"address"}],"name":"getHandlerInfo","outputs":[{"components":[{"internalType":"string","name":"name","type":"string"},{"internalType":"string","name":"handlerType","type":"string"},{"internalType":"string","name":"location","type":"string"},{"internalType":"bool","name":"isActive","type":"bool"},{"internalType":"uint256","name":"registeredAt","type":"uint256"}],"internalType":"struct SupplyChain.HandlerInfo","name":"","type":"tuple"}],"stateMutability":"view","type":"function"},{"inputs":[{"internalType":"uint256","name":"productId","type":"uint256"}],"name":"getLatestEvent","outputs":[{"components":[{"internalType":"uint256","name":"productId","type":"uint256"},{"internalType":"enum ISupplyChainTypes.TrackingStatus","name":"status","type":"uint8"},{"internalType":"string","name":"location","type":"string"},{"internalType":"string","name":"handler","type":"string"},{"internalType":"string","name":"notes","type":"string"},{"internalType":"uint256","name":"timestamp","type":"uint256"},{"internalType":"bytes32","name":"previousHash","type":"bytes32"},{"internalType":"bytes32","name":"currentHash","type":"bytes32"}],"internalType":"struct ISupplyChainTypes.TrackingEvent","name":"","type":"tuple"}],"stateMutability":"view","type":"function"},{"inputs":[{"internalType":"bytes32","name":"hash","type":"bytes32"}],"name":"getProductByHash","outputs":[{"internalType":"uint256","name":"","type":"uint256"}],"stateMutability":"view","type":"function"},{"inputs":[],"name":"getSupplyChainStats","outputs":[{"components":[{"internalType":"uint256","name":"totalTrackedProducts","type":"uint256"},{"internalType":"uint256","name":"activeShipments","type":"uint256"},{"internalType":"uint256","name":"completedShipments","type":"uint256"},{"internalType":"uint256","name":"totalEvents","type":"uint256"},{"internalType":"uint256","name":"registeredHandlers","type":"uint256"}],"internalType":"struct SupplyChain.SupplyChainStats","name":"","type":"tuple"}],"stateMutability":"view","type":"function"},{"inputs":[{"internalType":"uint256","name":"productId","type":"uint256"}],"name":"getTrackingEvents","outputs":[{"components":[{"internalType":"uint256","name":"productId","type":"uint256"},{"internalType":"enum ISupplyChainTypes.TrackingStatus","name":"status","type":"uint8"},{"internalType":"string","name":"location","type":"string"},{"internalType":"string","name":"handler","type":"string"},{"internalType":"string","name":"notes","type":"string"},{"internalType":"uint256","name":"timestamp","type":"uint256"},{"internalType":"bytes32","name":"previousHash","type":"bytes32"},{"internalType":"bytes32","name":"currentHash","type":"bytes32"}],"internalType":"struct ISupplyChainTypes.TrackingEvent[]","name":"","type":"tuple[]"}],"stateMutability":"view","type":"function"},{"inputs":[{"internalType":"uint256","name":"productId","type":"uint256"}],"name":"getTrackingRecord","outputs":[{"internalType":"string","name":"origin","type":"string"},{"internalType":"string","name":"destination","type":"string"},{"internalType":"uint256","name":"createdAt","type":"uint256"},{"internalType":"bool","name":"isComplete","type":"bool"},{"internalType":"uint256","name":"eventCount","type":"uint256"}],"stateMutability":"view","type":"function"},{"inputs":[{"internalType":"address","name":"","type":"address"}],"name":"handlers","outputs":[{"internalType":"string","name":"name","type":"string"},{"internalType":"string","name":"handlerType","type":"string"},{"internalType":"string","name":"location","type":"string"},{"internalType":"bool","name":"isActive","type":"bool"},{"internalType":"uint256","name":"registeredAt","type":"uint256"}],"stateMutability":"view","type":"function"},{"inputs":[{"internalType":"uint256","name":"productId","type":"uint256"}],"name":"isTracked","outputs":[{"internalType":"bool","name":"","type":"bool"}],"stateMutability":"view","type":"function"},{"inputs":[{"internalType":"uint256","name":"productId","type":"uint256"},{"internalType":"enum ISupplyChainTypes.TrackingStatus","name":"status","type":"uint8"},{"internalType":"string","name":"location","type":"string"},{"internalType":"string","name":"notes","type":"string"}],"name":"recordEvent","outputs":[],"stateMutability":"nonpayable","type":"function"},{"inputs":[{"internalType":"uint256","name":"productId","type":"uint256"},{"internalType":"string","name":"location","type":"string"},{"internalType":"bool","name":"passed","type":"bool"},{"internalType":"string","name":"details","type":"string"}],"name":"recordQualityCheck","outputs":[],"stateMutability":"nonpayable","type":"function"},{"inputs":[{"internalType":"uint256","name":"productId","type":"uint256"},{"internalType":"string","name":"fromLocation","type":"string"},{"internalType":"string","name":"toLocation","type":"string"},{"internalType":"string","name":"notes","type":"string"}],"name":"recordTransit","outputs":[],"stateMutability":"nonpayable","type":"function"},{"inputs":[{"internalType":"address","name":"handlerAddress","type":"address"},{"internalType":"string","name":"name","type":"string"},{"internalType":"string","name":"handlerType","type":"string"},{"internalType":"string","name":"location","type":"string"}],"name":"registerHandler","outputs":[],"stateMutability":"nonpayable","type":"function"},{"inputs":[{"internalType":"string","name":"name","type":"string"},{"internalType":"string","name":"handlerType","type":"string"},{"internalType":"string","name":"location","type":"string"}],"name":"selfRegisterHandler","outputs":[],"stateMutability":"nonpayable","type":"function"},{"inputs":[{"internalType":"uint256","name":"productId","type":"uint256"},{"internalType":"string","name":"origin","type":"string"},{"internalType":"string","name":"destination","type":"string"}],"name":"startTracking","outputs":[{"internalType":"bool","name":"","type":"bool"}],"stateMutability":"nonpayable","type":"function"},{"inputs":[],"name":"stats","outputs":[{"internalType":"uint256","name":"totalTrackedProducts","type":"uint256"},{"internalType":"uint256","name":"activeShipments","type":"uint256"},{"internalType":"uint256","name":"completedShipments","type":"uint256"},{"internalType":"uint256","name":"totalEvents","type":"uint256"},{"internalType":"uint256","name":"registeredHandlers","type":"uint256"}],"stateMutability":"view","type":"function"},{"inputs":[{"internalType":"uint256","name":"productId","type":"uint256"},{"internalType":"uint256","name":"eventIndex","type":"uint256"},{"internalType":"bytes32","name":"providedHash","type":"bytes32"}],"name":"verifyEventHash","outputs":[{"internalType":"bool","name":"","type":"bool"}],"stateMutability":"view","type":"function"},{"inputs":[{"internalType":"uint256","name":"productId","type":"uint256"}],"name":"verifyProvenance","outputs":[{"internalType":"bool","name":"isValid","type":"bool"},{"internalType":"uint256","name":"eventCount","type":"uint256"}],"stateMutability":"view","type":"function"}],"evm":{"bytecode":{"linkReferences":{},"object":"60a0346200010457601f6200388838819003918201601f19168301916001600160401b0383118484101762000109578084926020946040528339810103126200010457516001600160a01b0381169081900362000104578015620000b5576080526000805560405161376890816200012082396080518181816101e3015281816104c70152818161078f01528181610f8e015281816110ea0152818161171601528181611940015281816124f001526127b70152f35b60405162461bcd60e51b815260206004820152602160248201527f537570706c79436861696e3a20696e76616c696420636f7265206164647265736044820152607360f81b6064820152608490fd5b600080fd5b634e487b7160e01b600052604160045260246000fdfe6080604052600436101561001257600080fd5b60003560e01c806309afa64e146129ba5780631194f9e91461298c5780631a21c0bc146128e35780631dd26b3a1461289f57806327f829081461276e578063635885311461243e5780637c1250731461203d5780639419a41d14611f4f57806397fbe35314611e3f5780639a8c20c6146118995780639cc4a0cc146116cd5780639ec57ee8146116375780639f11d9401461160b578063a0aa13c6146115bc578063a3007b33146114c3578063a60e9b9b14611418578063b38fe15b14611393578063b60d55071461102b578063ba3df94014610f57578063ce4a301a1461071e578063d4c22ece146105df578063d80528ae1461059f578063e49339e5146104f6578063f2f4eb26146104b15763f4906cb11461012f57600080fd5b346104ac5760803660031901126104ac576004356001600160401b036024358181116104ac57610163903690600401612c1f565b60443591821515908184036104ac576064359081116104ac5761018a903690600401612c1f565b84600052602093600185526101a5604060002054151561340a565b85600052600185526101c260ff6005604060002001541615613455565b6040516395a8c58d60e01b81528581806101df3360048301612d7f565b03817f00000000000000000000000000000000000000000000000000000000000000006001600160a01b03165afa80156104a05761022591600091610473575b50612f86565b15610433576102746036604051809375028bab0b634ba3c9031b432b1b5902820a9a9a2a217160551b88830152610264815180928a8686019101612bd7565b8101036016810184520182612b0e565b925b846000526002815260406000209182548015156000146104145760001981019081116103fe576000805160206136d3833981519152958460076102be610364946040986133ab565b500154935b8651868101918b8352600360f81b8983015260f81b6041820152426042820152856062820152606281526102f681612ad8565b51902093336000526006865260ff6003886000200154166000146103d857336000526006865261032887600020612b31565b925b87519361033685612abc565b8b85526003888601528989860152606085015260808401524260a084015260c08301528360e08301526133c7565b856000526003825282600020600360ff198254161790558060005260048252858360002055610394600b54612ed4565b600b556824b739b832b1ba37b960b91b6103be845195600387526080858801526080870190612bfa565b9285840393848688015260098152015260608401520190a2005b86516103e381612af3565b600981526824b739b832b1ba37b960b91b878201529261032a565b634e487b7160e01b600052601160045260246000fd5b506103646000805160206136d3833981519152956040946000936102c3565b61046d6036604051809375028bab0b634ba3c9031b432b1b5902320a4a622a217160551b88830152610264815180928a8686019101612bd7565b92610276565b6104939150873d8911610499575b61048b8183612b0e565b810190612d4d565b3861021f565b503d610481565b6040513d6000823e3d90fd5b600080fd5b346104ac5760003660031901126104ac576040517f00000000000000000000000000000000000000000000000000000000000000006001600160a01b03168152602090f35b346104ac5760203660031901126104ac57600435806000526001602052610523604060002054151561340a565b600052600160205261057b6040600020600481015460ff600583015416600260205260406000205490610589610567600261056060018801612b31565b9601612b31565b60405196879660a0885260a0880190612bfa565b908682036020880152612bfa565b9260408501521515606084015260808301520390f35b346104ac5760003660031901126104ac5760a0600854600954600a54600b5490600c54926040519485526020850152604084015260608301526080820152f35b346104ac5760003660031901126104ac5760008060058054915b8281106106d2575061060a83612fe0565b926106186040519485612b0e565b808452610627601f1991612fe0565b01602090368286013760009060005b84811061064f576040518061064b8882612d12565b0390f35b61065881612e55565b9054600391821b1c6000526001835260ff85604060002001541615610687575b5061068290612ed4565b610636565b610692829492612e55565b9054911b1c86518210156106bc57816106b5918461068294881b8a010152612ed4565b9290610678565b634e487b7160e01b600052603260045260246000fd5b6106db81612e55565b90549060031b1c600052600160205260ff82604060002001541615610709575b61070490612ed4565b6105f9565b9261071661070491612ed4565b9390506106fb565b346104ac5760603660031901126104ac576024356001600160401b0381116104ac5761074e903690600401612c1f565b6044356001600160401b0381116104ac5761076d903690600401612c1f565b6040516395a8c58d60e01b81526020818061078b3360048301612d7f565b03817f00000000000000000000000000000000000000000000000000000000000000006001600160a01b03165afa80156104a0576107d091600091610f385750612f86565b60043515610ef3576004356000526001602052604060002054610eaf57815115610e6b57805115610e1c57604051602081019060043582526108556074828651610821816040840160208b01612bd7565b8101865190610837826040830160208b01612bd7565b014260408201523360601b6060820152036054810184520182612b0e565b519020604051909290602081016001600160401b03811182821017610bdf576040908152600082525160c081016001600160401b03811182821017610bdf57604052600435815260208101918383528460408301526060820152426080820152600060a08201526004356000526001602052604060002091815183555180519060018060401b038211610bdf5781906108f16001860154612a82565b601f8111610de7575b50602090601f8311600114610d7557600092610d6a575b50508160011b916000199060031b1c19161760018301555b60408101518051906001600160401b038211610bdf57819061094e6002860154612a82565b601f8111610d2a575b50602090601f8311600114610cb857600092610cad575b50508160011b916000199060031b1c19161760028301555b6060810151805190600160401b8211610bdf576003840154826003860155808310610c21575b506020016003840160005260206000206000915b838310610c03575050505090600560a08360806109e99501516004850155015115159101612e44565b6004356000526002602052610a9c604060002033600052600660205260ff60036040600020015416600014610bf557336000526006602052610a2e6040600020612b31565b905b60405191610a3d83612abc565b6004358352600060208401528460408401526060830152604051610a6081612af3565b6012815271151c9858dada5b99c81a5b9a5d1a585d195960721b602082015260808301524260a0830152600060c08301528560e08301526133c7565b6004356000908152600360205260409020805460ff1916905560055491600160401b831015610bdf57610ae48360016000805160206136d38339815191529501600555612e55565b81549060031b90600435821b91600019901b1916179055836000526004602052600435604060002055610b18600854612ed4565b600855610b26600954612ed4565b600955610b34600b54612ed4565b600b557f1c04cc19959544f72f2427f86d72cde97024df1d0ed1200d5f6cee4f098e866f610b7e6040519260608452610b706060850186612bfa565b908482036020860152612bfa565b9185604082015280600435930390a2610ba96040519160008352608060208401526080830190612bfa565b926553797374656d60d01b60208386039586604086015260068152015260608201526040600435930190a2602060405160018152f35b634e487b7160e01b600052604160045260246000fd5b610bfd61337d565b90610a30565b6008602082610c156001945186613058565b019201920191906109c0565b6001600160fd1b0381811682036103fe57831683036103fe576003850160005260206000208360031b81015b8260031b82018110610c605750506109ac565b8060006008925560006001820155610c7a60028201612ff7565b610c8660038201612ff7565b610c9260048201612ff7565b60006005820155600060068201556000600782015501610c4d565b01519050878061096e565b9250600285016000526020600020906000935b601f1984168510610d0f576001945083601f19811610610cf6575b505050811b016002830155610986565b015160001960f88460031b161c19169055878080610ce6565b81810151835560209485019460019093019290910190610ccb565b610d5a90600287016000526020600020601f850160051c81019160208610610d60575b601f0160051c0190612e2d565b88610957565b9091508190610d4d565b015190508780610911565b9250600185016000526020600020906000935b601f1984168510610dcc576001945083601f19811610610db3575b505050811b016001830155610929565b015160001960f88460031b161c19169055878080610da3565b81810151835560209485019460019093019290910190610d88565b610e1690600187016000526020600020601f850160051c81019160208610610d6057601f0160051c0190612e2d565b886108fa565b60405162461bcd60e51b815260206004820152602160248201527f537570706c79436861696e3a2064657374696e6174696f6e20726571756972656044820152601960fa1b6064820152608490fd5b60405162461bcd60e51b815260206004820152601c60248201527b14dd5c1c1b1e50da185a5b8e881bdc9a59da5b881c995c5d5a5c995960221b6044820152606490fd5b60405162461bcd60e51b815260206004820152601c60248201527b14dd5c1c1b1e50da185a5b8e88185b1c9958591e481d1c9858dad95960221b6044820152606490fd5b60405162461bcd60e51b815260206004820152601f60248201527f537570706c79436861696e3a20696e76616c69642070726f64756374204944006044820152606490fd5b610f51915060203d6020116104995761048b8183612b0e565b8461021f565b346104ac576020806003193601126104ac57600435604051916395a8c58d60e01b8352808380610f8a3360048301612d7f565b03817f00000000000000000000000000000000000000000000000000000000000000006001600160a01b03165afa9081156104a057610fd660019261100c9560009161100e5750612f86565b82600052818152610fed604060002054151561340a565b826000525261100760ff6005604060002001541615613455565b613617565b005b6110259150833d85116104995761048b8183612b0e565b8661021f565b346104ac5760803660031901126104ac576004356001600160401b036024358181116104ac5761105f903690600401612c1f565b906044358181116104ac57611078903690600401612c1f565b906064359081116104ac57611091903690600401612c1f565b83600052602090600182526110ac604060002054151561340a565b84600052600182526110c960ff6005604060002001541615613455565b6040516395a8c58d60e01b81528281806110e63360048301612d7f565b03817f00000000000000000000000000000000000000000000000000000000000000006001600160a01b03165afa9081156104a057600091611376575b50801561135b575b611134906134b1565b6111b7603360405180966c02a3930b739b4ba10333937b69609d1b868301526111668151809288602d86019101612bd7565b810193630103a37960e51b602d86015286518688019561118a826031830189612bd7565b0161017160f51b60318201526111a882518093898785019101612bd7565b01036013810187520185612b0e565b600085815260028352604090208054909181156113345760001982019182116103fe5761130d6080956112c16000805160206136d3833981519152988a600761120361131b988a6133ab565b500154955b61124f608160405180938d8201958652600160f81b6040830152611233895180926041850190612bd7565b81014260418201528a6061820152036061810184520182612b0e565b51902096336000526006895260ff600360406000200154166000146113265733600052600689526112836040600020612b31565b955b6040519261129284612abc565b8d845260018b8501528560408501528760608501528b8401524260a084015260c08301528760e08301526133c7565b88600052600386526040600020600160ff198254161790558460005260048652886040600020556112f3600b54612ed4565b600b55604051968796600188528701526080860190612bfa565b908482036040860152612bfa565b9060608301520390a2005b61132e61337d565b95611285565b61131b915061130d6080956112c16000805160206136d3833981519152988a600095611208565b5033600090815260068352604090206003015460ff1661112b565b61138d9150833d85116104995761048b8183612b0e565b86611123565b346104ac5760003660031901126104ac57604051600580548083526000918252602080840193927f036b6384b5eca791c62761152d0c79bb0604c104a5fb6f4eb0703f3154bb3db092915b8282106114015761064b856113f581890382612b0e565b60405191829182612d12565b8354865294850194600193840193909101906113de565b346104ac5760003660031901126104ac5760405180600754808352602080930180916007600052846000209060005b868282106114a657868661145d82880383612b0e565b604051928392818401908285525180915260408401929160005b82811061148657505050500390f35b83516001600160a01b031685528695509381019392810192600101611477565b83546001600160a01b031685529093019260019283019201611447565b346104ac576020806003193601126104ac5760043590816000526001918282526114f3604060002054151561340a565b6000526002815260406000209182549161150c83612fe0565b9261151a6040519485612b0e565b8084528184018095600052826000206000915b8383106115955750505050604051928184019082855251809152604084019160408260051b86010195926000905b8382106115685786880387f35b90919293948380611584839a603f198b82030186528951612c98565b99970195949391909101910161155b565b946008858299976115a8859a989a61359e565b81520192019201919096949695939561152d565b346104ac5760203660031901126104ac576004358060005260016020526115e9604060002054151561340a565b6000526003602052602060ff604060002054166116096040518092612c75565bf35b346104ac5760203660031901126104ac5760043560005260046020526020604060002054604051908152f35b346104ac5760003660031901126104ac576000608060405161165881612ad8565b828152826020820152826040820152826060820152015260a060405161167d81612ad8565b6008549081815260095460208201908152600a5460408301908152600b5491606084019283526080600c549401938452604051948552516020850152516040840152516060830152516080820152f35b346104ac576020806003193601126104ac576116e7612a6c565b6040516395a8c58d60e01b815290816117033360048301612d65565b6001600160a01b039391859183919003817f000000000000000000000000000000000000000000000000000000000000000087165afa80156104a0576117519160009161187c575b50612d99565b169081600052600681526004604060002001541561183857816000526006815260ff600360406000200154166117f65760016000805160206136f383398151915291836000526006815260036040600020018260ff198254161790556117b8600c54612ed4565b600c5583600052600681526117f1604060002091604051938493604085526117e36040860182612ef0565b928584039086015201612ef0565b0390a2005b6064906040519062461bcd60e51b82526004820152601b60248201527a537570706c79436861696e3a20616c72656164792061637469766560281b6044820152fd5b6064906040519062461bcd60e51b82526004820152601e60248201527f537570706c79436861696e3a2068616e646c6572206e6f7420666f756e6400006044820152fd5b6118939150853d87116104995761048b8183612b0e565b8561174b565b346104ac5760803660031901126104ac576118b2612a6c565b6024356001600160401b0381116104ac576118d1903690600401612c1f565b6044356001600160401b0381116104ac576118f0903690600401612c1f565b916064356001600160401b0381116104ac57611910903690600401612c1f565b6040516395a8c58d60e01b8152908161192c3360048301612d65565b6001600160a01b03939160209183919003817f000000000000000000000000000000000000000000000000000000000000000087165afa80156104a05761197a91600091611e205750612d99565b81831615611ddc57818316600052600660205260ff60036040600020015416611d8b576119a984511515612de4565b604051906119b682612ad8565b8482528560208301526040820152600160608201524260808201528183166000526006602052604060002090805180519060018060401b038211610bdf578190611a008554612a82565b601f8111611d59575b50602090601f8311600114611ced57600092611ce2575b50508160011b916000199060031b1c19161782555b60208101518051906001600160401b038211610bdf578190611a5a6001860154612a82565b601f8111611cad575b50602090601f8311600114611c3b57600092611c30575b50508160011b916000199060031b1c19161760018301555b60408101518051906001600160401b038211610bdf57611ab56002850154612a82565b601f8111611bfb575b50602090601f8311600114611b6d576080611b529794846000805160206136f38339815191529a98956117f19895600495600092611b62575b50508160011b916000199060031b1c19161760028501555b611b226060820151151560038601612e44565b0151910155611b3082612e70565b611b3b600c54612ed4565b600c55604051948594604086526040860190612bfa565b9184830360208601521695612bfa565b015190508d80611af7565b906002850160005260206000209160005b601f1985168110611be35750611b5297946001856117f198956004956080956000805160206136f38339815191529e9c99601f19811610611bca575b505050811b016002850155611b0f565b015160001960f88460031b161c191690558d8080611bba565b91926020600181928685015181550194019201611b7e565b611c2a90600286016000526020600020601f850160051c81019160208610610d6057601f0160051c0190612e2d565b88611abe565b015190508880611a7a565b9250600185016000526020600020906000935b601f1984168510611c92576001945083601f19811610611c79575b505050811b016001830155611a92565b015160001960f88460031b161c19169055888080611c69565b81810151835560209485019460019093019290910190611c4e565b611cdc90600187016000526020600020601f850160051c81019160208610610d6057601f0160051c0190612e2d565b89611a63565b015190508880611a20565b9250846000526020600020906000935b601f1984168510611d3e576001945083601f19811610611d25575b505050811b018255611a35565b015160001960f88460031b161c19169055888080611d18565b81810151835560209485019460019093019290910190611cfd565b611d8590866000526020600020601f850160051c81019160208610610d6057601f0160051c0190612e2d565b89611a09565b60405162461bcd60e51b815260206004820152602360248201527f537570706c79436861696e3a2068616e646c657220616c72656164792065786960448201526273747360e81b6064820152608490fd5b60405162461bcd60e51b815260206004820152601c60248201527b537570706c79436861696e3a20696e76616c6964206164647265737360201b6044820152606490fd5b611e39915060203d6020116104995761048b8183612b0e565b8761174b565b346104ac576020806003193601126104ac5760a090611e5c612a6c565b9060405191611e6a83612ad8565b60006080606094858152858582015285604082015282868201520152600180851b031660005260068152604060002090611f3c60405193611eaa85612ad8565b611eb384612b31565b8552611ec160018501612b31565b838601908152611ed360028601612b31565b9160408701928352611f2c611f16600460ff60038a01541698848b019915158a5201549660808a019788526040519a8b9a828c5251918b015260c08a0190612bfa565b925192601f1993848a83030160408b0152612bfa565b9251918784030190870152612bfa565b9151151560808401525160a08301520390f35b346104ac576020806003193601126104ac57600435600060e0604051611f7481612abc565b828152828582015260606040820152606080820152606060808201528260a08201528260c082015201528060005260018252611fb6604060002054151561340a565b6000526002815260406000208054908115611fff5760001982019182116103fe57611fea91611fe4916133ab565b5061359e565b9061064b604051928284938452830190612c98565b60405162461bcd60e51b8152600481018490526016602482015275537570706c79436861696e3a206e6f206576656e747360501b6044820152606490fd5b346104ac5760603660031901126104ac576001600160401b036004358181116104ac5761206e903690600401612c1f565b906024358181116104ac57612087903690600401612c1f565b906044358181116104ac576120a0903690600401612c1f565b91336000526020926006845260039260ff8460406000200154166123f9576120ca86511515612de4565b604051956120d787612ad8565b8652848601928352604086019182526060860192600084526080870195428752336000526006815260406000209751908151848111610bdf578061211b8b54612a82565b93601f948581116123cb575b5083908583116001146123675760009261235c575b50508160011b91600019908a1b1c19161789555b600192838a019051805190868211610bdf57819061216e8454612a82565b86811161232e575b5084908683116001146122cc576000926122c1575b5050600019828b1b1c191690851b1790555b600289019451908151948511610bdf576121b78654612a82565b838111612289575b50809285116001146122175750928060049897959381936121ff989660009461220c575b50501b9160001990861b1c19161790555b511515908501612e44565b5191015561100c33612e70565b015192508b806121e3565b9190601f9493941984168660005283600020936000905b828210612272575050916121ff979593918560049b9a9896941061225a575b505050811b0190556121f4565b015160001983881b60f8161c1916905589808061224d565b80888697829497870151815501960194019061222e565b6122b29087600052826000208580890160051c820192858a106122b8575b0160051c0190612e2d565b8a6121bf565b925081926122a7565b015190508c8061218b565b90879350601f1983169185600052866000209260005b888282106123185750508411612300575b505050811b01905561219d565b0151600019838d1b60f8161c191690558c80806122f3565b8385015186558b979095019493840193016122e2565b6123569085600052866000208880860160051c8201928987106122b8570160051c0190612e2d565b8d612176565b015190508b8061213c565b60008d81528581209350601f198516905b868282106123b557505090846001959493921061239d575b505050811b018955612150565b0151600019838c1b60f8161c191690558b8080612390565b6001859682939686015181550195019301612378565b6123f3908d600052856000208780860160051c8201928887106122b8570160051c0190612e2d565b8c612127565b60405162461bcd60e51b815260048101869052601f60248201527f537570706c79436861696e3a20616c72656164792072656769737465726564006044820152606490fd5b346104ac5760803660031901126104ac57600960243510156104ac576001600160401b036044358181116104ac5761247a903690600401612c1f565b906064359081116104ac57612493903690600401612c1f565b60043560005260016020526124ae604060002054151561340a565b60043560005260016020526124ce60ff6005604060002001541615613455565b6040516395a8c58d60e01b8152602081806124ec3360048301612d7f565b03817f00000000000000000000000000000000000000000000000000000000000000006001600160a01b03165afa9081156104a05760009161274f575b508015612733575b61253a906134b1565b600435600052600260205260406000209182548015156000146127145760001981019081116103fe576000805160206136d38339815191529261266160076125856126ce94886133ab565b500154915b6040516020810190600435825260243560f81b60408201526125e160958289516125bc818c6020604186019101612bd7565b81014260418201528860618201523360601b6081820152036075810184520182612b0e565b5190209633600052600660205260ff60036040600020015416600014612706573360005260066020526126176040600020612b31565b935b6040519261262684612abc565b600435845261263a6024356020860161339f565b87604085015285606085015260808401524260a084015260c08301528760e08301526133c7565b600435600052600360205261267c6024356040600020613040565b846000526004602052600435604060002055612699600b54612ed4565b600b556126c0604051936126af85602435612c75565b608060208601526080850190612bfa565b908382036040850152612bfa565b92606082015280600435930390a260076024351480156126fa575b6126ef57005b61100c600435613617565b506008602435146126e9565b61270e61337d565b93612619565b506126ce6000805160206136d38339815191529261266160009161258a565b503360009081526006602052604090206003015460ff16612531565b612768915060203d6020116104995761048b8183612b0e565b83612529565b346104ac576020806003193601126104ac57612788612a6c565b6040516395a8c58d60e01b815290816127a43360048301612d65565b6001600160a01b039391859183919003817f000000000000000000000000000000000000000000000000000000000000000087165afa80156104a0576127f19160009161187c5750612d99565b1690816000526006815260ff600360406000200154161561285b576006908260005252600360406000200160ff19815416905561282f600c54612ee3565b600c5533907fd372aaddcce66c5ca0222952f4c0e6115f475aace5ac1a642e18a2855ff5fab7600080a3005b6064906040519062461bcd60e51b82526004820152601f60248201527f537570706c79436861696e3a2068616e646c6572206e6f7420616374697665006044820152fd5b346104ac5760203660031901126104ac5760406128d56004358060005260016020526128d08360002054151561340a565b6134fb565b825191151582526020820152f35b346104ac5760203660031901126104ac576001600160a01b03612904612a6c565b16600052600660205261295f604060002061291e81612b31565b9061292b60018201612b31565b61297b61293a60028401612b31565b61296d600460ff6003870154169501549360405197889760a0895260a0890190612bfa565b908782036020890152612bfa565b908582036040870152612bfa565b911515606084015260808301520390f35b346104ac5760203660031901126104ac57600435600052600160205260206040600020541515604051908152f35b346104ac5760603660031901126104ac5760043560243581600052602091600183526129ec604060002054151561340a565b8060005260028352604060002054821015612a295790612a17916000526002835260406000206133ab565b50600760443591015414604051908152f35b6064836040519062461bcd60e51b825280600483015260248201527f537570706c79436861696e3a20696e76616c6964206576656e7420696e6465786044820152fd5b600435906001600160a01b03821682036104ac57565b90600182811c92168015612ab2575b6020831014612a9c57565b634e487b7160e01b600052602260045260246000fd5b91607f1691612a91565b61010081019081106001600160401b03821117610bdf57604052565b60a081019081106001600160401b03821117610bdf57604052565b604081019081106001600160401b03821117610bdf57604052565b601f909101601f19168101906001600160401b03821190821017610bdf57604052565b9060405191826000825492612b4584612a82565b908184526001948581169081600014612bb45750600114612b71575b5050612b6f92500383612b0e565b565b9093915060005260209081600020936000915b818310612b9c575050612b6f93508201013880612b61565b85548884018501529485019487945091830191612b84565b915050612b6f94506020925060ff191682840152151560051b8201013880612b61565b60005b838110612bea5750506000910152565b8181015183820152602001612bda565b90602091612c1381518092818552858086019101612bd7565b601f01601f1916010190565b81601f820112156104ac578035906001600160401b038211610bdf5760405192612c53601f8401601f191660200185612b0e565b828452602083830101116104ac57816000926020809301838601378301015290565b906009821015612c825752565b634e487b7160e01b600052602160045260246000fd5b9081518152612caf60208301516020830190612c75565b60e080612cf5612ce3612cd16040870151610100806040890152870190612bfa565b60608701518682036060880152612bfa565b60808601518582036080870152612bfa565b9360a081015160a085015260c081015160c0850152015191015290565b6020908160408183019282815285518094520193019160005b828110612d39575050505090565b835185529381019392810192600101612d2b565b908160209103126104ac575180151581036104ac5790565b6001600160a01b0390911681526003602082015260400190565b6001600160a01b0390911681526002602082015260400190565b15612da057565b606460405162461bcd60e51b815260206004820152602060248201527f537570706c79436861696e3a2063616c6c6572206973206e6f742061646d696e6044820152fd5b15612deb57565b60405162461bcd60e51b815260206004820152601a60248201527914dd5c1c1b1e50da185a5b8e881b985b59481c995c5d5a5c995960321b6044820152606490fd5b818110612e38575050565b60008155600101612e2d565b9060ff801983541691151516179055565b6005548110156106bc57600560005260206000200190600090565b600754600160401b811015610bdf5760018101806007558110156106bc5760076000527fa66cc928b5edb82af9bd49922954155ab7b0942694bea4ce44661d9a8736c6880180546001600160a01b0319166001600160a01b03909216919091179055565b60001981146103fe5760010190565b80156103fe576000190190565b9060009291805491612f0183612a82565b918282526001938481169081600014612f635750600114612f23575b50505050565b90919394506000526020928360002092846000945b838610612f4f575050505001019038808080612f1d565b805485870183015294019385908201612f38565b9294505050602093945060ff191683830152151560051b01019038808080612f1d565b15612f8d57565b60405162461bcd60e51b815260206004820152602560248201527f537570706c79436861696e3a20696e73756666696369656e74207065726d697360448201526473696f6e7360d81b6064820152608490fd5b6001600160401b038111610bdf5760051b60200190565b6130018154612a82565b908161300b575050565b81601f6000931160011461301d575055565b90808391825261303c601f60208420940160051c840160018501612e2d565b5555565b906009811015612c825760ff80198354169116179055565b9080518255602090818101516009811015612c825761307b600191828601613040565b6040820151805190916001600160401b03916002870190838111610bdf57806130a48354612a82565b95601f9687811161334f575b5088908783116001146132ec576000926132e1575b5050600019600383901b1c191690831b1790555b600386016060850151805190848211610bdf5781906130f88454612a82565b8781116132b3575b50889087831160011461325057600092613245575b5050600019600383901b1c191690831b1790555b60048601926080850151958651938411610bdf576131478554612a82565b828111613217575b50809184116001146131a857509180809260e096959460079860009461319d575b50501b916000199060031b1c19161790555b60a0810151600585015560c081015160068501550151910155565b015192503880613170565b91939495601f1984168660005283600020936000905b828210613200575050916007979593918560e0989694106131e7575b505050811b019055613182565b015160001960f88460031b161c191690553880806131da565b8088869782949787015181550196019401906131be565b61323f9086600052826000208480880160051c8201928589106122b8570160051c0190612e2d565b3861314f565b015190503880613115565b90859350601f19831691856000528a6000209260005b8c82821061329d5750508411613284575b505050811b019055613129565b015160001960f88460031b161c19169055388080613277565b8385015186558997909501949384019301613266565b6132db90856000528a6000208980860160051c8201928d87106122b8570160051c0190612e2d565b38613100565b0151905038806130c5565b90859350601f19831691856000528a6000209260005b8c8282106133395750508411613320575b505050811b0190556130d9565b015160001960f88460031b161c19169055388080613313565b8385015186558997909501949384019301613302565b61337790856000528a6000208980860160051c8201928d87106122b8570160051c0190612e2d565b386130b0565b6040519061338a82612af3565b600682526553797374656d60d01b6020830152565b6009821015612c825752565b80548210156106bc5760005260206000209060031b0190600090565b8054600160401b811015610bdf576133e4916001820181556133ab565b9190916133f457612b6f91613058565b634e487b7160e01b600052600060045260246000fd5b1561341157565b606460405162461bcd60e51b815260206004820152602060248201527f537570706c79436861696e3a2070726f64756374206e6f7420747261636b65646044820152fd5b1561345c57565b60405162461bcd60e51b815260206004820152602760248201527f537570706c79436861696e3a20747261636b696e6720616c726561647920636f6044820152661b5c1b195d195960ca1b6064820152608490fd5b156134b857565b60405162461bcd60e51b815260206004820152601b60248201527a14dd5c1c1b1e50da185a5b8e881b9bdd08185d5d1a1bdc9a5e9959602a1b6044820152606490fd5b90600091825260026020526040822090815492831561359757828152600692836020832001546135915760015b858110613539575060019493505050565b8461354482846133ab565b500154600019820182811161357d5761355f600791856133ab565b500154036135755761357090612ed4565b613528565b509093925050565b634e487b7160e01b85526011600452602485fd5b50929150565b9250829150565b906040516135ab81612abc565b60e060078294805484526135c960ff6001830154166020860161339f565b6135d560028201612b31565b60408501526135e660038201612b31565b60608501526135f760048201612b31565b6080850152600581015460a0850152600681015460c08501520154910152565b6000818152600160205260056040822001600160ff19825416179055600260205260408120908154908115156000146136b95760001982019182116136a55750816007613675604093600080516020613713833981519152956133ab565b500154905b613685600954612ee3565b600955613693600a54612ed4565b600a55549082519182526020820152a2565b634e487b7160e01b81526011600452602490fd5b600080516020613713833981519152926040925061367a56fe1c620caf7272ea68d185312da9e80a0f9a18725fc4202f9ad295ab5da3b050c5b392e043fcc88cd6c798b4615e3e1fd977dd2c89a079f6f3a3991b1a81f3d1decb6754496a2d043a4e60ac5490b5499ff538def1f25babeebebce56d09572136a2646970667358221220764dba808ccb53313e0101f02f5f9a8ed7f11b9b3b0676f6d4960185142d6b3c64736f6c63430008130033","opcodes":"PUSH1 0xA0 CALLVALUE PUSH3 0x104 JUMPI PUSH1 0x1F PUSH3 0x3888 CODESIZE DUP2 SWAP1 SUB SWAP2 DUP3 ADD PUSH1 0x1F NOT AND DUP4 ADD SWAP2 PUSH1 0x1 PUSH1 0x1 PUSH1 0x40 SHL SUB DUP4 GT DUP5 DUP5 LT OR PUSH3 0x109 JUMPI DUP1 DUP5 SWAP3 PUSH1 0x20 SWAP5 PUSH1 0x40 MSTORE DUP4 CODECOPY DUP2 ADD SUB SLT PUSH3 0x104 JUMPI MLOAD PUSH1 0x1 PUSH1 0x1 PUSH1 0xA0 SHL SUB DUP2 AND SWAP1 DUP2 SWAP1 SUB PUSH3 0x104 JUMPI DUP1 ISZERO PUSH3 0xB5 JUMPI PUSH1 0x80 MSTORE PUSH1 0x0 DUP1 SSTORE PUSH1 0x40 MLOAD PUSH2 0x3768 SWAP1 DUP2 PUSH3 0x120 DUP3 CODECOPY PUSH1 0x80 MLOAD DUP2 DUP2 DUP2 PUSH2 0x1E3 ADD MSTORE DUP2 DUP2 PUSH2 0x4C7 ADD MSTORE DUP2 DUP2 PUSH2 0x78F ADD MSTORE DUP2 DUP2 PUSH2 0xF8E ADD MSTORE DUP2 DUP2 PUSH2 0x10EA ADD MSTORE DUP2 DUP2 PUSH2 0x1716 ADD MSTORE DUP2 DUP2 PUSH2 0x1940 ADD MSTORE DUP2 DUP2 PUSH2 0x24F0 ADD MSTORE PUSH2 0x27B7 ADD MSTORE RETURN JUMPDEST PUSH1 0x40 MLOAD PUSH3 0x461BCD PUSH1 0xE5 SHL DUP2 MSTORE PUSH1 0x20 PUSH1 0x4 DUP3 ADD MSTORE PUSH1 0x21 PUSH1 0x24 DUP3 ADD MSTORE PUSH32 0x537570706C79436861696E3A20696E76616C696420636F726520616464726573 PUSH1 0x44 DUP3 ADD MSTORE PUSH1 0x73 PUSH1 0xF8 SHL PUSH1 0x64 DUP3 ADD MSTORE PUSH1 0x84 SWAP1 REVERT JUMPDEST PUSH1 0x0 DUP1 REVERT JUMPDEST PUSH4 0x4E487B71 PUSH1 0xE0 SHL PUSH1 0x0 MSTORE PUSH1 0x41 PUSH1 0x4 MSTORE PUSH1 0x24 PUSH1 0x0 REVERT INVALID PUSH1 0x80 PUSH1 0x40 MSTORE PUSH1 0x4 CALLDATASIZE LT ISZERO PUSH2 0x12 JUMPI PUSH1 0x0 DUP1 REVERT JUMPDEST PUSH1 0x0 CALLDATALOAD PUSH1 0xE0 SHR DUP1 PUSH4 0x9AFA64E EQ PUSH2 0x29BA JUMPI DUP1 PUSH4 0x1194F9E9 EQ PUSH2 0x298C JUMPI DUP1 PUSH4 0x1A21C0BC EQ PUSH2 0x28E3 JUMPI DUP1 PUSH4 0x1DD26B3A EQ PUSH2 0x289F JUMPI DUP1 PUSH4 0x27F82908 EQ PUSH2 0x276E JUMPI DUP1 PUSH4 0x63588531 EQ PUSH2 0x243E JUMPI DUP1 PUSH4 0x7C125073 EQ PUSH2 0x203D JUMPI DUP1 PUSH4 0x9419A41D EQ PUSH2 0x1F4F JUMPI DUP1 PUSH4 0x97FBE353 EQ PUSH2 0x1E3F JUMPI DUP1 PUSH4 0x9A8C20C6 EQ PUSH2 0x1899 JUMPI DUP1 PUSH4 0x9CC4A0CC EQ PUSH2 0x16CD JUMPI DUP1 PUSH4 0x9EC57EE8 EQ PUSH2 0x1637 JUMPI DUP1 PUSH4 0x9F11D940 EQ PUSH2 0x160B JUMPI DUP1 PUSH4 0xA0AA13C6 EQ PUSH2 0x15BC JUMPI DUP1 PUSH4 0xA3007B33 EQ PUSH2 0x14C3 JUMPI DUP1 PUSH4 0xA60E9B9B EQ PUSH2 0x1418 JUMPI DUP1 PUSH4 0xB38FE15B EQ PUSH2 0x1393 JUMPI DUP1 PUSH4 0xB60D5507 EQ PUSH2 0x102B JUMPI DUP1 PUSH4 0xBA3DF940 EQ PUSH2 0xF57 JUMPI DUP1 PUSH4 0xCE4A301A EQ PUSH2 0x71E JUMPI DUP1 PUSH4 0xD4C22ECE EQ PUSH2 0x5DF JUMPI DUP1 PUSH4 0xD80528AE EQ PUSH2 0x59F JUMPI DUP1 PUSH4 0xE49339E5 EQ PUSH2 0x4F6 JUMPI DUP1 PUSH4 0xF2F4EB26 EQ PUSH2 0x4B1 JUMPI PUSH4 0xF4906CB1 EQ PUSH2 0x12F JUMPI PUSH1 0x0 DUP1 REVERT JUMPDEST CALLVALUE PUSH2 0x4AC JUMPI PUSH1 0x80 CALLDATASIZE PUSH1 0x3 NOT ADD SLT PUSH2 0x4AC JUMPI PUSH1 0x4 CALLDATALOAD PUSH1 0x1 PUSH1 0x1 PUSH1 0x40 SHL SUB PUSH1 0x24 CALLDATALOAD DUP2 DUP2 GT PUSH2 0x4AC JUMPI PUSH2 0x163 SWAP1 CALLDATASIZE SWAP1 PUSH1 0x4 ADD PUSH2 0x2C1F JUMP JUMPDEST PUSH1 0x44 CALLDATALOAD SWAP2 DUP3 ISZERO ISZERO SWAP1 DUP2 DUP5 SUB PUSH2 0x4AC JUMPI PUSH1 0x64 CALLDATALOAD SWAP1 DUP2 GT PUSH2 0x4AC JUMPI PUSH2 0x18A SWAP1 CALLDATASIZE SWAP1 PUSH1 0x4 ADD PUSH2 0x2C1F JUMP JUMPDEST DUP5 PUSH1 0x0 MSTORE PUSH1 0x20 SWAP4 PUSH1 0x1 DUP6 MSTORE PUSH2 0x1A5 PUSH1 0x40 PUSH1 0x0 KECCAK256 SLOAD ISZERO ISZERO PUSH2 0x340A JUMP JUMPDEST DUP6 PUSH1 0x0 MSTORE PUSH1 0x1 DUP6 MSTORE PUSH2 0x1C2 PUSH1 0xFF PUSH1 0x5 PUSH1 0x40 PUSH1 0x0 KECCAK256 ADD SLOAD AND ISZERO PUSH2 0x3455 JUMP JUMPDEST PUSH1 0x40 MLOAD PUSH4 0x95A8C58D PUSH1 0xE0 SHL DUP2 MSTORE DUP6 DUP2 DUP1 PUSH2 0x1DF CALLER PUSH1 0x4 DUP4 ADD PUSH2 0x2D7F JUMP JUMPDEST SUB DUP2 PUSH32 0x0 PUSH1 0x1 PUSH1 0x1 PUSH1 0xA0 SHL SUB AND GAS STATICCALL DUP1 ISZERO PUSH2 0x4A0 JUMPI PUSH2 0x225 SWAP2 PUSH1 0x0 SWAP2 PUSH2 0x473 JUMPI JUMPDEST POP PUSH2 0x2F86 JUMP JUMPDEST ISZERO PUSH2 0x433 JUMPI PUSH2 0x274 PUSH1 0x36 PUSH1 0x40 MLOAD DUP1 SWAP4 PUSH22 0x28BAB0B634BA3C9031B432B1B5902820A9A9A2A2171 PUSH1 0x55 SHL DUP9 DUP4 ADD MSTORE PUSH2 0x264 DUP2 MLOAD DUP1 SWAP3 DUP11 DUP7 DUP7 ADD SWAP2 ADD PUSH2 0x2BD7 JUMP JUMPDEST DUP2 ADD SUB PUSH1 0x16 DUP2 ADD DUP5 MSTORE ADD DUP3 PUSH2 0x2B0E JUMP JUMPDEST SWAP3 JUMPDEST DUP5 PUSH1 0x0 MSTORE PUSH1 0x2 DUP2 MSTORE PUSH1 0x40 PUSH1 0x0 KECCAK256 SWAP2 DUP3 SLOAD DUP1 ISZERO ISZERO PUSH1 0x0 EQ PUSH2 0x414 JUMPI PUSH1 0x0 NOT DUP2 ADD SWAP1 DUP2 GT PUSH2 0x3FE JUMPI PUSH1 0x0 DUP1 MLOAD PUSH1 0x20 PUSH2 0x36D3 DUP4 CODECOPY DUP2 MLOAD SWAP2 MSTORE SWAP6 DUP5 PUSH1 0x7 PUSH2 0x2BE PUSH2 0x364 SWAP5 PUSH1 0x40 SWAP9 PUSH2 0x33AB JUMP JUMPDEST POP ADD SLOAD SWAP4 JUMPDEST DUP7 MLOAD DUP7 DUP2 ADD SWAP2 DUP12 DUP4 MSTORE PUSH1 0x3 PUSH1 0xF8 SHL DUP10 DUP4 ADD MSTORE PUSH1 0xF8 SHL PUSH1 0x41 DUP3 ADD MSTORE TIMESTAMP PUSH1 0x42 DUP3 ADD MSTORE DUP6 PUSH1 0x62 DUP3 ADD MSTORE PUSH1 0x62 DUP2 MSTORE PUSH2 0x2F6 DUP2 PUSH2 0x2AD8 JUMP JUMPDEST MLOAD SWAP1 KECCAK256 SWAP4 CALLER PUSH1 0x0 MSTORE PUSH1 0x6 DUP7 MSTORE PUSH1 0xFF PUSH1 0x3 DUP9 PUSH1 0x0 KECCAK256 ADD SLOAD AND PUSH1 0x0 EQ PUSH2 0x3D8 JUMPI CALLER PUSH1 0x0 MSTORE PUSH1 0x6 DUP7 MSTORE PUSH2 0x328 DUP8 PUSH1 0x0 KECCAK256 PUSH2 0x2B31 JUMP JUMPDEST SWAP3 JUMPDEST DUP8 MLOAD SWAP4 PUSH2 0x336 DUP6 PUSH2 0x2ABC JUMP JUMPDEST DUP12 DUP6 MSTORE PUSH1 0x3 DUP9 DUP7 ADD MSTORE DUP10 DUP10 DUP7 ADD MSTORE PUSH1 0x60 DUP6 ADD MSTORE PUSH1 0x80 DUP5 ADD MSTORE TIMESTAMP PUSH1 0xA0 DUP5 ADD MSTORE PUSH1 0xC0 DUP4 ADD MSTORE DUP4 PUSH1 0xE0 DUP4 ADD MSTORE PUSH2 0x33C7 JUMP JUMPDEST DUP6 PUSH1 0x0 MSTORE PUSH1 0x3 DUP3 MSTORE DUP3 PUSH1 0x0 KECCAK256 PUSH1 0x3 PUSH1 0xFF NOT DUP3 SLOAD AND OR SWAP1 SSTORE DUP1 PUSH1 0x0 MSTORE PUSH1 0x4 DUP3 MSTORE DUP6 DUP4 PUSH1 0x0 KECCAK256 SSTORE PUSH2 0x394 PUSH1 0xB SLOAD PUSH2 0x2ED4 JUMP JUMPDEST PUSH1 0xB SSTORE PUSH9 0x24B739B832B1BA37B9 PUSH1 0xB9 SHL PUSH2 0x3BE DUP5 MLOAD SWAP6 PUSH1 0x3 DUP8 MSTORE PUSH1 0x80 DUP6 DUP9 ADD MSTORE PUSH1 0x80 DUP8 ADD SWAP1 PUSH2 0x2BFA JUMP JUMPDEST SWAP3 DUP6 DUP5 SUB SWAP4 DUP5 DUP7 DUP9 ADD MSTORE PUSH1 0x9 DUP2 MSTORE ADD MSTORE PUSH1 0x60 DUP5 ADD MSTORE ADD SWAP1 LOG2 STOP JUMPDEST DUP7 MLOAD PUSH2 0x3E3 DUP2 PUSH2 0x2AF3 JUMP JUMPDEST PUSH1 0x9 DUP2 MSTORE PUSH9 0x24B739B832B1BA37B9 PUSH1 0xB9 SHL DUP8 DUP3 ADD MSTORE SWAP3 PUSH2 0x32A JUMP JUMPDEST PUSH4 0x4E487B71 PUSH1 0xE0 SHL PUSH1 0x0 MSTORE PUSH1 0x11 PUSH1 0x4 MSTORE PUSH1 0x24 PUSH1 0x0 REVERT JUMPDEST POP PUSH2 0x364 PUSH1 0x0 DUP1 MLOAD PUSH1 0x20 PUSH2 0x36D3 DUP4 CODECOPY DUP2 MLOAD SWAP2 MSTORE SWAP6 PUSH1 0x40 SWAP5 PUSH1 0x0 SWAP4 PUSH2 0x2C3 JUMP JUMPDEST PUSH2 0x46D PUSH1 0x36 PUSH1 0x40 MLOAD DUP1 SWAP4 PUSH22 0x28BAB0B634BA3C9031B432B1B5902320A4A622A2171 PUSH1 0x55 SHL DUP9 DUP4 ADD MSTORE PUSH2 0x264 DUP2 MLOAD DUP1 SWAP3 DUP11 DUP7 DUP7 ADD SWAP2 ADD PUSH2 0x2BD7 JUMP JUMPDEST SWAP3 PUSH2 0x276 JUMP JUMPDEST PUSH2 0x493 SWAP2 POP DUP8 RETURNDATASIZE DUP10 GT PUSH2 0x499 JUMPI JUMPDEST PUSH2 0x48B DUP2 DUP4 PUSH2 0x2B0E JUMP JUMPDEST DUP2 ADD SWAP1 PUSH2 0x2D4D JUMP JUMPDEST CODESIZE PUSH2 0x21F JUMP JUMPDEST POP RETURNDATASIZE PUSH2 0x481 JUMP JUMPDEST PUSH1 0x40 MLOAD RETURNDATASIZE PUSH1 0x0 DUP3 RETURNDATACOPY RETURNDATASIZE SWAP1 REVERT JUMPDEST PUSH1 0x0 DUP1 REVERT JUMPDEST CALLVALUE PUSH2 0x4AC JUMPI PUSH1 0x0 CALLDATASIZE PUSH1 0x3 NOT ADD SLT PUSH2 0x4AC JUMPI PUSH1 0x40 MLOAD PUSH32 0x0 PUSH1 0x1 PUSH1 0x1 PUSH1 0xA0 SHL SUB AND DUP2 MSTORE PUSH1 0x20 SWAP1 RETURN JUMPDEST CALLVALUE PUSH2 0x4AC JUMPI PUSH1 0x20 CALLDATASIZE PUSH1 0x3 NOT ADD SLT PUSH2 0x4AC JUMPI PUSH1 0x4 CALLDATALOAD DUP1 PUSH1 0x0 MSTORE PUSH1 0x1 PUSH1 0x20 MSTORE PUSH2 0x523 PUSH1 0x40 PUSH1 0x0 KECCAK256 SLOAD ISZERO ISZERO PUSH2 0x340A JUMP JUMPDEST PUSH1 0x0 MSTORE PUSH1 0x1 PUSH1 0x20 MSTORE PUSH2 0x57B PUSH1 0x40 PUSH1 0x0 KECCAK256 PUSH1 0x4 DUP2 ADD SLOAD PUSH1 0xFF PUSH1 0x5 DUP4 ADD SLOAD AND PUSH1 0x2 PUSH1 0x20 MSTORE PUSH1 0x40 PUSH1 0x0 KECCAK256 SLOAD SWAP1 PUSH2 0x589 PUSH2 0x567 PUSH1 0x2 PUSH2 0x560 PUSH1 0x1 DUP9 ADD PUSH2 0x2B31 JUMP JUMPDEST SWAP7 ADD PUSH2 0x2B31 JUMP JUMPDEST PUSH1 0x40 MLOAD SWAP7 DUP8 SWAP7 PUSH1 0xA0 DUP9 MSTORE PUSH1 0xA0 DUP9 ADD SWAP1 PUSH2 0x2BFA JUMP JUMPDEST SWAP1 DUP7 DUP3 SUB PUSH1 0x20 DUP9 ADD MSTORE PUSH2 0x2BFA JUMP JUMPDEST SWAP3 PUSH1 0x40 DUP6 ADD MSTORE ISZERO ISZERO PUSH1 0x60 DUP5 ADD MSTORE PUSH1 0x80 DUP4 ADD MSTORE SUB SWAP1 RETURN JUMPDEST CALLVALUE PUSH2 0x4AC JUMPI PUSH1 0x0 CALLDATASIZE PUSH1 0x3 NOT ADD SLT PUSH2 0x4AC JUMPI PUSH1 0xA0 PUSH1 0x8 SLOAD PUSH1 0x9 SLOAD PUSH1 0xA SLOAD PUSH1 0xB SLOAD SWAP1 PUSH1 0xC SLOAD SWAP3 PUSH1 0x40 MLOAD SWAP5 DUP6 MSTORE PUSH1 0x20 DUP6 ADD MSTORE PUSH1 0x40 DUP5 ADD MSTORE PUSH1 0x60 DUP4 ADD MSTORE PUSH1 0x80 DUP3 ADD MSTORE RETURN JUMPDEST CALLVALUE PUSH2 0x4AC JUMPI PUSH1 0x0 CALLDATASIZE PUSH1 0x3 NOT ADD SLT PUSH2 0x4AC JUMPI PUSH1 0x0 DUP1 PUSH1 0x5 DUP1 SLOAD SWAP2 JUMPDEST DUP3 DUP2 LT PUSH2 0x6D2 JUMPI POP PUSH2 0x60A DUP4 PUSH2 0x2FE0 JUMP JUMPDEST SWAP3 PUSH2 0x618 PUSH1 0x40 MLOAD SWAP5 DUP6 PUSH2 0x2B0E JUMP JUMPDEST DUP1 DUP5 MSTORE PUSH2 0x627 PUSH1 0x1F NOT SWAP2 PUSH2 0x2FE0 JUMP JUMPDEST ADD PUSH1 0x20 SWAP1 CALLDATASIZE DUP3 DUP7 ADD CALLDATACOPY PUSH1 0x0 SWAP1 PUSH1 0x0 JUMPDEST DUP5 DUP2 LT PUSH2 0x64F JUMPI PUSH1 0x40 MLOAD DUP1 PUSH2 0x64B DUP9 DUP3 PUSH2 0x2D12 JUMP JUMPDEST SUB SWAP1 RETURN JUMPDEST PUSH2 0x658 DUP2 PUSH2 0x2E55 JUMP JUMPDEST SWAP1 SLOAD PUSH1 0x3 SWAP2 DUP3 SHL SHR PUSH1 0x0 MSTORE PUSH1 0x1 DUP4 MSTORE PUSH1 0xFF DUP6 PUSH1 0x40 PUSH1 0x0 KECCAK256 ADD SLOAD AND ISZERO PUSH2 0x687 JUMPI JUMPDEST POP PUSH2 0x682 SWAP1 PUSH2 0x2ED4 JUMP JUMPDEST PUSH2 0x636 JUMP JUMPDEST PUSH2 0x692 DUP3 SWAP5 SWAP3 PUSH2 0x2E55 JUMP JUMPDEST SWAP1 SLOAD SWAP2 SHL SHR DUP7 MLOAD DUP3 LT ISZERO PUSH2 0x6BC JUMPI DUP2 PUSH2 0x6B5 SWAP2 DUP5 PUSH2 0x682 SWAP5 DUP9 SHL DUP11 ADD ADD MSTORE PUSH2 0x2ED4 JUMP JUMPDEST SWAP3 SWAP1 PUSH2 0x678 JUMP JUMPDEST PUSH4 0x4E487B71 PUSH1 0xE0 SHL PUSH1 0x0 MSTORE PUSH1 0x32 PUSH1 0x4 MSTORE PUSH1 0x24 PUSH1 0x0 REVERT JUMPDEST PUSH2 0x6DB DUP2 PUSH2 0x2E55 JUMP JUMPDEST SWAP1 SLOAD SWAP1 PUSH1 0x3 SHL SHR PUSH1 0x0 MSTORE PUSH1 0x1 PUSH1 0x20 MSTORE PUSH1 0xFF DUP3 PUSH1 0x40 PUSH1 0x0 KECCAK256 ADD SLOAD AND ISZERO PUSH2 0x709 JUMPI JUMPDEST PUSH2 0x704 SWAP1 PUSH2 0x2ED4 JUMP JUMPDEST PUSH2 0x5F9 JUMP JUMPDEST SWAP3 PUSH2 0x716 PUSH2 0x704 SWAP2 PUSH2 0x2ED4 JUMP JUMPDEST SWAP4 SWAP1 POP PUSH2 0x6FB JUMP JUMPDEST CALLVALUE PUSH2 0x4AC JUMPI PUSH1 0x60 CALLDATASIZE PUSH1 0x3 NOT ADD SLT PUSH2 0x4AC JUMPI PUSH1 0x24 CALLDATALOAD PUSH1 0x1 PUSH1 0x1 PUSH1 0x40 SHL SUB DUP2 GT PUSH2 0x4AC JUMPI PUSH2 0x74E SWAP1 CALLDATASIZE SWAP1 PUSH1 0x4 ADD PUSH2 0x2C1F JUMP JUMPDEST PUSH1 0x44 CALLDATALOAD PUSH1 0x1 PUSH1 0x1 PUSH1 0x40 SHL SUB DUP2 GT PUSH2 0x4AC JUMPI PUSH2 0x76D SWAP1 CALLDATASIZE SWAP1 PUSH1 0x4 ADD PUSH2 0x2C1F JUMP JUMPDEST PUSH1 0x40 MLOAD PUSH4 0x95A8C58D PUSH1 0xE0 SHL DUP2 MSTORE PUSH1 0x20 DUP2 DUP1 PUSH2 0x78B CALLER PUSH1 0x4 DUP4 ADD PUSH2 0x2D7F JUMP JUMPDEST SUB DUP2 PUSH32 0x0 PUSH1 0x1 PUSH1 0x1 PUSH1 0xA0 SHL SUB AND GAS STATICCALL DUP1 ISZERO PUSH2 0x4A0 JUMPI PUSH2 0x7D0 SWAP2 PUSH1 0x0 SWAP2 PUSH2 0xF38 JUMPI POP PUSH2 0x2F86 JUMP JUMPDEST PUSH1 0x4 CALLDATALOAD ISZERO PUSH2 0xEF3 JUMPI PUSH1 0x4 CALLDATALOAD PUSH1 0x0 MSTORE PUSH1 0x1 PUSH1 0x20 MSTORE PUSH1 0x40 PUSH1 0x0 KECCAK256 SLOAD PUSH2 0xEAF JUMPI DUP2 MLOAD ISZERO PUSH2 0xE6B JUMPI DUP1 MLOAD ISZERO PUSH2 0xE1C JUMPI PUSH1 0x40 MLOAD PUSH1 0x20 DUP2 ADD SWAP1 PUSH1 0x4 CALLDATALOAD DUP3 MSTORE PUSH2 0x855 PUSH1 0x74 DUP3 DUP7 MLOAD PUSH2 0x821 DUP2 PUSH1 0x40 DUP5 ADD PUSH1 0x20 DUP12 ADD PUSH2 0x2BD7 JUMP JUMPDEST DUP2 ADD DUP7 MLOAD SWAP1 PUSH2 0x837 DUP3 PUSH1 0x40 DUP4 ADD PUSH1 0x20 DUP12 ADD PUSH2 0x2BD7 JUMP JUMPDEST ADD TIMESTAMP PUSH1 0x40 DUP3 ADD MSTORE CALLER PUSH1 0x60 SHL PUSH1 0x60 DUP3 ADD MSTORE SUB PUSH1 0x54 DUP2 ADD DUP5 MSTORE ADD DUP3 PUSH2 0x2B0E JUMP JUMPDEST MLOAD SWAP1 KECCAK256 PUSH1 0x40 MLOAD SWAP1 SWAP3 SWAP1 PUSH1 0x20 DUP2 ADD PUSH1 0x1 PUSH1 0x1 PUSH1 0x40 SHL SUB DUP2 GT DUP3 DUP3 LT OR PUSH2 0xBDF JUMPI PUSH1 0x40 SWAP1 DUP2 MSTORE PUSH1 0x0 DUP3 MSTORE MLOAD PUSH1 0xC0 DUP2 ADD PUSH1 0x1 PUSH1 0x1 PUSH1 0x40 SHL SUB DUP2 GT DUP3 DUP3 LT OR PUSH2 0xBDF JUMPI PUSH1 0x40 MSTORE PUSH1 0x4 CALLDATALOAD DUP2 MSTORE PUSH1 0x20 DUP2 ADD SWAP2 DUP4 DUP4 MSTORE DUP5 PUSH1 0x40 DUP4 ADD MSTORE PUSH1 0x60 DUP3 ADD MSTORE TIMESTAMP PUSH1 0x80 DUP3 ADD MSTORE PUSH1 0x0 PUSH1 0xA0 DUP3 ADD MSTORE PUSH1 0x4 CALLDATALOAD PUSH1 0x0 MSTORE PUSH1 0x1 PUSH1 0x20 MSTORE PUSH1 0x40 PUSH1 0x0 KECCAK256 SWAP2 DUP2 MLOAD DUP4 SSTORE MLOAD DUP1 MLOAD SWAP1 PUSH1 0x1 DUP1 PUSH1 0x40 SHL SUB DUP3 GT PUSH2 0xBDF JUMPI DUP2 SWAP1 PUSH2 0x8F1 PUSH1 0x1 DUP7 ADD SLOAD PUSH2 0x2A82 JUMP JUMPDEST PUSH1 0x1F DUP2 GT PUSH2 0xDE7 JUMPI JUMPDEST POP PUSH1 0x20 SWAP1 PUSH1 0x1F DUP4 GT PUSH1 0x1 EQ PUSH2 0xD75 JUMPI PUSH1 0x0 SWAP3 PUSH2 0xD6A JUMPI JUMPDEST POP POP DUP2 PUSH1 0x1 SHL SWAP2 PUSH1 0x0 NOT SWAP1 PUSH1 0x3 SHL SHR NOT AND OR PUSH1 0x1 DUP4 ADD SSTORE JUMPDEST PUSH1 0x40 DUP2 ADD MLOAD DUP1 MLOAD SWAP1 PUSH1 0x1 PUSH1 0x1 PUSH1 0x40 SHL SUB DUP3 GT PUSH2 0xBDF JUMPI DUP2 SWAP1 PUSH2 0x94E PUSH1 0x2 DUP7 ADD SLOAD PUSH2 0x2A82 JUMP JUMPDEST PUSH1 0x1F DUP2 GT PUSH2 0xD2A JUMPI JUMPDEST POP PUSH1 0x20 SWAP1 PUSH1 0x1F DUP4 GT PUSH1 0x1 EQ PUSH2 0xCB8 JUMPI PUSH1 0x0 SWAP3 PUSH2 0xCAD JUMPI JUMPDEST POP POP DUP2 PUSH1 0x1 SHL SWAP2 PUSH1 0x0 NOT SWAP1 PUSH1 0x3 SHL SHR NOT AND OR PUSH1 0x2 DUP4 ADD SSTORE JUMPDEST PUSH1 0x60 DUP2 ADD MLOAD DUP1 MLOAD SWAP1 PUSH1 0x1 PUSH1 0x40 SHL DUP3 GT PUSH2 0xBDF JUMPI PUSH1 0x3 DUP5 ADD SLOAD DUP3 PUSH1 0x3 DUP7 ADD SSTORE DUP1 DUP4 LT PUSH2 0xC21 JUMPI JUMPDEST POP PUSH1 0x20 ADD PUSH1 0x3 DUP5 ADD PUSH1 0x0 MSTORE PUSH1 0x20 PUSH1 0x0 KECCAK256 PUSH1 0x0 SWAP2 JUMPDEST DUP4 DUP4 LT PUSH2 0xC03 JUMPI POP POP POP POP SWAP1 PUSH1 0x5 PUSH1 0xA0 DUP4 PUSH1 0x80 PUSH2 0x9E9 SWAP6 ADD MLOAD PUSH1 0x4 DUP6 ADD SSTORE ADD MLOAD ISZERO ISZERO SWAP2 ADD PUSH2 0x2E44 JUMP JUMPDEST PUSH1 0x4 CALLDATALOAD PUSH1 0x0 MSTORE PUSH1 0x2 PUSH1 0x20 MSTORE PUSH2 0xA9C PUSH1 0x40 PUSH1 0x0 KECCAK256 CALLER PUSH1 0x0 MSTORE PUSH1 0x6 PUSH1 0x20 MSTORE PUSH1 0xFF PUSH1 0x3 PUSH1 0x40 PUSH1 0x0 KECCAK256 ADD SLOAD AND PUSH1 0x0 EQ PUSH2 0xBF5 JUMPI CALLER PUSH1 0x0 MSTORE PUSH1 0x6 PUSH1 0x20 MSTORE PUSH2 0xA2E PUSH1 0x40 PUSH1 0x0 KECCAK256 PUSH2 0x2B31 JUMP JUMPDEST SWAP1 JUMPDEST PUSH1 0x40 MLOAD SWAP2 PUSH2 0xA3D DUP4 PUSH2 0x2ABC JUMP JUMPDEST PUSH1 0x4 CALLDATALOAD DUP4 MSTORE PUSH1 0x0 PUSH1 0x20 DUP5 ADD MSTORE DUP5 PUSH1 0x40 DUP5 ADD MSTORE PUSH1 0x60 DUP4 ADD MSTORE PUSH1 0x40 MLOAD PUSH2 0xA60 DUP2 PUSH2 0x2AF3 JUMP JUMPDEST PUSH1 0x12 DUP2 MSTORE PUSH18 0x151C9858DADA5B99C81A5B9A5D1A585D1959 PUSH1 0x72 SHL PUSH1 0x20 DUP3 ADD MSTORE PUSH1 0x80 DUP4 ADD MSTORE TIMESTAMP PUSH1 0xA0 DUP4 ADD MSTORE PUSH1 0x0 PUSH1 0xC0 DUP4 ADD MSTORE DUP6 PUSH1 0xE0 DUP4 ADD MSTORE PUSH2 0x33C7 JUMP JUMPDEST PUSH1 0x4 CALLDATALOAD PUSH1 0x0 SWAP1 DUP2 MSTORE PUSH1 0x3 PUSH1 0x20 MSTORE PUSH1 0x40 SWAP1 KECCAK256 DUP1 SLOAD PUSH1 0xFF NOT AND SWAP1 SSTORE PUSH1 0x5 SLOAD SWAP2 PUSH1 0x1 PUSH1 0x40 SHL DUP4 LT ISZERO PUSH2 0xBDF JUMPI PUSH2 0xAE4 DUP4 PUSH1 0x1 PUSH1 0x0 DUP1 MLOAD PUSH1 0x20 PUSH2 0x36D3 DUP4 CODECOPY DUP2 MLOAD SWAP2 MSTORE SWAP6 ADD PUSH1 0x5 SSTORE PUSH2 0x2E55 JUMP JUMPDEST DUP2 SLOAD SWAP1 PUSH1 0x3 SHL SWAP1 PUSH1 0x4 CALLDATALOAD DUP3 SHL SWAP2 PUSH1 0x0 NOT SWAP1 SHL NOT AND OR SWAP1 SSTORE DUP4 PUSH1 0x0 MSTORE PUSH1 0x4 PUSH1 0x20 MSTORE PUSH1 0x4 CALLDATALOAD PUSH1 0x40 PUSH1 0x0 KECCAK256 SSTORE PUSH2 0xB18 PUSH1 0x8 SLOAD PUSH2 0x2ED4 JUMP JUMPDEST PUSH1 0x8 SSTORE PUSH2 0xB26 PUSH1 0x9 SLOAD PUSH2 0x2ED4 JUMP JUMPDEST PUSH1 0x9 SSTORE PUSH2 0xB34 PUSH1 0xB SLOAD PUSH2 0x2ED4 JUMP JUMPDEST PUSH1 0xB SSTORE PUSH32 0x1C04CC19959544F72F2427F86D72CDE97024DF1D0ED1200D5F6CEE4F098E866F PUSH2 0xB7E PUSH1 0x40 MLOAD SWAP3 PUSH1 0x60 DUP5 MSTORE PUSH2 0xB70 PUSH1 0x60 DUP6 ADD DUP7 PUSH2 0x2BFA JUMP JUMPDEST SWAP1 DUP5 DUP3 SUB PUSH1 0x20 DUP7 ADD MSTORE PUSH2 0x2BFA JUMP JUMPDEST SWAP2 DUP6 PUSH1 0x40 DUP3 ADD MSTORE DUP1 PUSH1 0x4 CALLDATALOAD SWAP4 SUB SWAP1 LOG2 PUSH2 0xBA9 PUSH1 0x40 MLOAD SWAP2 PUSH1 0x0 DUP4 MSTORE PUSH1 0x80 PUSH1 0x20 DUP5 ADD MSTORE PUSH1 0x80 DUP4 ADD SWAP1 PUSH2 0x2BFA JUMP JUMPDEST SWAP3 PUSH6 0x53797374656D PUSH1 0xD0 SHL PUSH1 0x20 DUP4 DUP7 SUB SWAP6 DUP7 PUSH1 0x40 DUP7 ADD MSTORE PUSH1 0x6 DUP2 MSTORE ADD MSTORE PUSH1 0x60 DUP3 ADD MSTORE PUSH1 0x40 PUSH1 0x4 CALLDATALOAD SWAP4 ADD SWAP1 LOG2 PUSH1 0x20 PUSH1 0x40 MLOAD PUSH1 0x1 DUP2 MSTORE RETURN JUMPDEST PUSH4 0x4E487B71 PUSH1 0xE0 SHL PUSH1 0x0 MSTORE PUSH1 0x41 PUSH1 0x4 MSTORE PUSH1 0x24 PUSH1 0x0 REVERT JUMPDEST PUSH2 0xBFD PUSH2 0x337D JUMP JUMPDEST SWAP1 PUSH2 0xA30 JUMP JUMPDEST PUSH1 0x8 PUSH1 0x20 DUP3 PUSH2 0xC15 PUSH1 0x1 SWAP5 MLOAD DUP7 PUSH2 0x3058 JUMP JUMPDEST ADD SWAP3 ADD SWAP3 ADD SWAP2 SWAP1 PUSH2 0x9C0 JUMP JUMPDEST PUSH1 0x1 PUSH1 0x1 PUSH1 0xFD SHL SUB DUP2 DUP2 AND DUP3 SUB PUSH2 0x3FE JUMPI DUP4 AND DUP4 SUB PUSH2 0x3FE JUMPI PUSH1 0x3 DUP6 ADD PUSH1 0x0 MSTORE PUSH1 0x20 PUSH1 0x0 KECCAK256 DUP4 PUSH1 0x3 SHL DUP2 ADD JUMPDEST DUP3 PUSH1 0x3 SHL DUP3 ADD DUP2 LT PUSH2 0xC60 JUMPI POP POP PUSH2 0x9AC JUMP JUMPDEST DUP1 PUSH1 0x0 PUSH1 0x8 SWAP3 SSTORE PUSH1 0x0 PUSH1 0x1 DUP3 ADD SSTORE PUSH2 0xC7A PUSH1 0x2 DUP3 ADD PUSH2 0x2FF7 JUMP JUMPDEST PUSH2 0xC86 PUSH1 0x3 DUP3 ADD PUSH2 0x2FF7 JUMP JUMPDEST PUSH2 0xC92 PUSH1 0x4 DUP3 ADD PUSH2 0x2FF7 JUMP JUMPDEST PUSH1 0x0 PUSH1 0x5 DUP3 ADD SSTORE PUSH1 0x0 PUSH1 0x6 DUP3 ADD SSTORE PUSH1 0x0 PUSH1 0x7 DUP3 ADD SSTORE ADD PUSH2 0xC4D JUMP JUMPDEST ADD MLOAD SWAP1 POP DUP8 DUP1 PUSH2 0x96E JUMP JUMPDEST SWAP3 POP PUSH1 0x2 DUP6 ADD PUSH1 0x0 MSTORE PUSH1 0x20 PUSH1 0x0 KECCAK256 SWAP1 PUSH1 0x0 SWAP4 JUMPDEST PUSH1 0x1F NOT DUP5 AND DUP6 LT PUSH2 0xD0F JUMPI PUSH1 0x1 SWAP5 POP DUP4 PUSH1 0x1F NOT DUP2 AND LT PUSH2 0xCF6 JUMPI JUMPDEST POP POP POP DUP2 SHL ADD PUSH1 0x2 DUP4 ADD SSTORE PUSH2 0x986 JUMP JUMPDEST ADD MLOAD PUSH1 0x0 NOT PUSH1 0xF8 DUP5 PUSH1 0x3 SHL AND SHR NOT AND SWAP1 SSTORE DUP8 DUP1 DUP1 PUSH2 0xCE6 JUMP JUMPDEST DUP2 DUP2 ADD MLOAD DUP4 SSTORE PUSH1 0x20 SWAP5 DUP6 ADD SWAP5 PUSH1 0x1 SWAP1 SWAP4 ADD SWAP3 SWAP1 SWAP2 ADD SWAP1 PUSH2 0xCCB JUMP JUMPDEST PUSH2 0xD5A SWAP1 PUSH1 0x2 DUP8 ADD PUSH1 0x0 MSTORE PUSH1 0x20 PUSH1 0x0 KECCAK256 PUSH1 0x1F DUP6 ADD PUSH1 0x5 SHR DUP2 ADD SWAP2 PUSH1 0x20 DUP7 LT PUSH2 0xD60 JUMPI JUMPDEST PUSH1 0x1F ADD PUSH1 0x5 SHR ADD SWAP1 PUSH2 0x2E2D JUMP JUMPDEST DUP9 PUSH2 0x957 JUMP JUMPDEST SWAP1 SWAP2 POP DUP2 SWAP1 PUSH2 0xD4D JUMP JUMPDEST ADD MLOAD SWAP1 POP DUP8 DUP1 PUSH2 0x911 JUMP JUMPDEST SWAP3 POP PUSH1 0x1 DUP6 ADD PUSH1 0x0 MSTORE PUSH1 0x20 PUSH1 0x0 KECCAK256 SWAP1 PUSH1 0x0 SWAP4 JUMPDEST PUSH1 0x1F NOT DUP5 AND DUP6 LT PUSH2 0xDCC JUMPI PUSH1 0x1 SWAP5 POP DUP4 PUSH1 0x1F NOT DUP2 AND LT PUSH2 0xDB3 JUMPI JUMPDEST POP POP POP DUP2 SHL ADD PUSH1 0x1 DUP4 ADD SSTORE PUSH2 0x929 JUMP JUMPDEST ADD MLOAD PUSH1 0x0 NOT PUSH1 0xF8 DUP5 PUSH1 0x3 SHL AND SHR NOT AND SWAP1 SSTORE DUP8 DUP1 DUP1 PUSH2 0xDA3 JUMP JUMPDEST DUP2 DUP2 ADD MLOAD DUP4 SSTORE PUSH1 0x20 SWAP5 DUP6 ADD SWAP5 PUSH1 0x1 SWAP1 SWAP4 ADD SWAP3 SWAP1 SWAP2 ADD SWAP1 PUSH2 0xD88 JUMP JUMPDEST PUSH2 0xE16 SWAP1 PUSH1 0x1 DUP8 ADD PUSH1 0x0 MSTORE PUSH1 0x20 PUSH1 0x0 KECCAK256 PUSH1 0x1F DUP6 ADD PUSH1 0x5 SHR DUP2 ADD SWAP2 PUSH1 0x20 DUP7 LT PUSH2 0xD60 JUMPI PUSH1 0x1F ADD PUSH1 0x5 SHR ADD SWAP1 PUSH2 0x2E2D JUMP JUMPDEST DUP9 PUSH2 0x8FA JUMP JUMPDEST PUSH1 0x40 MLOAD PUSH3 0x461BCD PUSH1 0xE5 SHL DUP2 MSTORE PUSH1 0x20 PUSH1 0x4 DUP3 ADD MSTORE PUSH1 0x21 PUSH1 0x24 DUP3 ADD MSTORE PUSH32 0x537570706C79436861696E3A2064657374696E6174696F6E2072657175697265 PUSH1 0x44 DUP3 ADD MSTORE PUSH1 0x19 PUSH1 0xFA SHL PUSH1 0x64 DUP3 ADD MSTORE PUSH1 0x84 SWAP1 REVERT JUMPDEST PUSH1 0x40 MLOAD PUSH3 0x461BCD PUSH1 0xE5 SHL DUP2 MSTORE PUSH1 0x20 PUSH1 0x4 DUP3 ADD MSTORE PUSH1 0x1C PUSH1 0x24 DUP3 ADD MSTORE PUSH28 0x14DD5C1C1B1E50DA185A5B8E881BDC9A59DA5B881C995C5D5A5C9959 PUSH1 0x22 SHL PUSH1 0x44 DUP3 ADD MSTORE PUSH1 0x64 SWAP1 REVERT JUMPDEST PUSH1 0x40 MLOAD PUSH3 0x461BCD PUSH1 0xE5 SHL DUP2 MSTORE PUSH1 0x20 PUSH1 0x4 DUP3 ADD MSTORE PUSH1 0x1C PUSH1 0x24 DUP3 ADD MSTORE PUSH28 0x14DD5C1C1B1E50DA185A5B8E88185B1C9958591E481D1C9858DAD959 PUSH1 0x22 SHL PUSH1 0x44 DUP3 ADD MSTORE PUSH1 0x64 SWAP1 REVERT JUMPDEST PUSH1 0x40 MLOAD PUSH3 0x461BCD PUSH1 0xE5 SHL DUP2 MSTORE PUSH1 0x20 PUSH1 0x4 DUP3 ADD MSTORE PUSH1 0x1F PUSH1 0x24 DUP3 ADD MSTORE PUSH32 0x537570706C79436861696E3A20696E76616C69642070726F6475637420494400 PUSH1 0x44 DUP3 ADD MSTORE PUSH1 0x64 SWAP1 REVERT JUMPDEST PUSH2 0xF51 SWAP2 POP PUSH1 0x20 RETURNDATASIZE PUSH1 0x20 GT PUSH2 0x499 JUMPI PUSH2 0x48B DUP2 DUP4 PUSH2 0x2B0E JUMP JUMPDEST DUP5 PUSH2 0x21F JUMP JUMPDEST CALLVALUE PUSH2 0x4AC JUMPI PUSH1 0x20 DUP1 PUSH1 0x3 NOT CALLDATASIZE ADD SLT PUSH2 0x4AC JUMPI PUSH1 0x4 CALLDATALOAD PUSH1 0x40 MLOAD SWAP2 PUSH4 0x95A8C58D PUSH1 0xE0 SHL DUP4 MSTORE DUP1 DUP4 DUP1 PUSH2 0xF8A CALLER PUSH1 0x4 DUP4 ADD PUSH2 0x2D7F JUMP JUMPDEST SUB DUP2 PUSH32 0x0 PUSH1 0x1 PUSH1 0x1 PUSH1 0xA0 SHL SUB AND GAS STATICCALL SWAP1 DUP2 ISZERO PUSH2 0x4A0 JUMPI PUSH2 0xFD6 PUSH1 0x1 SWAP3 PUSH2 0x100C SWAP6 PUSH1 0x0 SWAP2 PUSH2 0x100E JUMPI POP PUSH2 0x2F86 JUMP JUMPDEST DUP3 PUSH1 0x0 MSTORE DUP2 DUP2 MSTORE PUSH2 0xFED PUSH1 0x40 PUSH1 0x0 KECCAK256 SLOAD ISZERO ISZERO PUSH2 0x340A JUMP JUMPDEST DUP3 PUSH1 0x0 MSTORE MSTORE PUSH2 0x1007 PUSH1 0xFF PUSH1 0x5 PUSH1 0x40 PUSH1 0x0 KECCAK256 ADD SLOAD AND ISZERO PUSH2 0x3455 JUMP JUMPDEST PUSH2 0x3617 JUMP JUMPDEST STOP JUMPDEST PUSH2 0x1025 SWAP2 POP DUP4 RETURNDATASIZE DUP6 GT PUSH2 0x499 JUMPI PUSH2 0x48B DUP2 DUP4 PUSH2 0x2B0E JUMP JUMPDEST DUP7 PUSH2 0x21F JUMP JUMPDEST CALLVALUE PUSH2 0x4AC JUMPI PUSH1 0x80 CALLDATASIZE PUSH1 0x3 NOT ADD SLT PUSH2 0x4AC JUMPI PUSH1 0x4 CALLDATALOAD PUSH1 0x1 PUSH1 0x1 PUSH1 0x40 SHL SUB PUSH1 0x24 CALLDATALOAD DUP2 DUP2 GT PUSH2 0x4AC JUMPI PUSH2 0x105F SWAP1 CALLDATASIZE SWAP1 PUSH1 0x4 ADD PUSH2 0x2C1F JUMP JUMPDEST SWAP1 PUSH1 0x44 CALLDATALOAD DUP2 DUP2 GT PUSH2 0x4AC JUMPI PUSH2 0x1078 SWAP1 CALLDATASIZE SWAP1 PUSH1 0x4 ADD PUSH2 0x2C1F JUMP JUMPDEST SWAP1 PUSH1 0x64 CALLDATALOAD SWAP1 DUP2 GT PUSH2 0x4AC JUMPI PUSH2 0x1091 SWAP1 CALLDATASIZE SWAP1 PUSH1 0x4 ADD PUSH2 0x2C1F JUMP JUMPDEST DUP4 PUSH1 0x0 MSTORE PUSH1 0x20 SWAP1 PUSH1 0x1 DUP3 MSTORE PUSH2 0x10AC PUSH1 0x40 PUSH1 0x0 KECCAK256 SLOAD ISZERO ISZERO PUSH2 0x340A JUMP JUMPDEST DUP5 PUSH1 0x0 MSTORE PUSH1 0x1 DUP3 MSTORE PUSH2 0x10C9 PUSH1 0xFF PUSH1 0x5 PUSH1 0x40 PUSH1 0x0 KECCAK256 ADD SLOAD AND ISZERO PUSH2 0x3455 JUMP JUMPDEST PUSH1 0x40 MLOAD PUSH4 0x95A8C58D PUSH1 0xE0 SHL DUP2 MSTORE DUP3 DUP2 DUP1 PUSH2 0x10E6 CALLER PUSH1 0x4 DUP4 ADD PUSH2 0x2D7F JUMP JUMPDEST SUB DUP2 PUSH32 0x0 PUSH1 0x1 PUSH1 0x1 PUSH1 0xA0 SHL SUB AND GAS STATICCALL SWAP1 DUP2 ISZERO PUSH2 0x4A0 JUMPI PUSH1 0x0 SWAP2 PUSH2 0x1376 JUMPI JUMPDEST POP DUP1 ISZERO PUSH2 0x135B JUMPI JUMPDEST PUSH2 0x1134 SWAP1 PUSH2 0x34B1 JUMP JUMPDEST PUSH2 0x11B7 PUSH1 0x33 PUSH1 0x40 MLOAD DUP1 SWAP7 PUSH13 0x2A3930B739B4BA10333937B69 PUSH1 0x9D SHL DUP7 DUP4 ADD MSTORE PUSH2 0x1166 DUP2 MLOAD DUP1 SWAP3 DUP9 PUSH1 0x2D DUP7 ADD SWAP2 ADD PUSH2 0x2BD7 JUMP JUMPDEST DUP2 ADD SWAP4 PUSH4 0x103A379 PUSH1 0xE5 SHL PUSH1 0x2D DUP7 ADD MSTORE DUP7 MLOAD DUP7 DUP9 ADD SWAP6 PUSH2 0x118A DUP3 PUSH1 0x31 DUP4 ADD DUP10 PUSH2 0x2BD7 JUMP JUMPDEST ADD PUSH2 0x171 PUSH1 0xF5 SHL PUSH1 0x31 DUP3 ADD MSTORE PUSH2 0x11A8 DUP3 MLOAD DUP1 SWAP4 DUP10 DUP8 DUP6 ADD SWAP2 ADD PUSH2 0x2BD7 JUMP JUMPDEST ADD SUB PUSH1 0x13 DUP2 ADD DUP8 MSTORE ADD DUP6 PUSH2 0x2B0E JUMP JUMPDEST PUSH1 0x0 DUP6 DUP2 MSTORE PUSH1 0x2 DUP4 MSTORE PUSH1 0x40 SWAP1 KECCAK256 DUP1 SLOAD SWAP1 SWAP2 DUP2 ISZERO PUSH2 0x1334 JUMPI PUSH1 0x0 NOT DUP3 ADD SWAP2 DUP3 GT PUSH2 0x3FE JUMPI PUSH2 0x130D PUSH1 0x80 SWAP6 PUSH2 0x12C1 PUSH1 0x0 DUP1 MLOAD PUSH1 0x20 PUSH2 0x36D3 DUP4 CODECOPY DUP2 MLOAD SWAP2 MSTORE SWAP9 DUP11 PUSH1 0x7 PUSH2 0x1203 PUSH2 0x131B SWAP9 DUP11 PUSH2 0x33AB JUMP JUMPDEST POP ADD SLOAD SWAP6 JUMPDEST PUSH2 0x124F PUSH1 0x81 PUSH1 0x40 MLOAD DUP1 SWAP4 DUP14 DUP3 ADD SWAP6 DUP7 MSTORE PUSH1 0x1 PUSH1 0xF8 SHL PUSH1 0x40 DUP4 ADD MSTORE PUSH2 0x1233 DUP10 MLOAD DUP1 SWAP3 PUSH1 0x41 DUP6 ADD SWAP1 PUSH2 0x2BD7 JUMP JUMPDEST DUP2 ADD TIMESTAMP PUSH1 0x41 DUP3 ADD MSTORE DUP11 PUSH1 0x61 DUP3 ADD MSTORE SUB PUSH1 0x61 DUP2 ADD DUP5 MSTORE ADD DUP3 PUSH2 0x2B0E JUMP JUMPDEST MLOAD SWAP1 KECCAK256 SWAP7 CALLER PUSH1 0x0 MSTORE PUSH1 0x6 DUP10 MSTORE PUSH1 0xFF PUSH1 0x3 PUSH1 0x40 PUSH1 0x0 KECCAK256 ADD SLOAD AND PUSH1 0x0 EQ PUSH2 0x1326 JUMPI CALLER PUSH1 0x0 MSTORE PUSH1 0x6 DUP10 MSTORE PUSH2 0x1283 PUSH1 0x40 PUSH1 0x0 KECCAK256 PUSH2 0x2B31 JUMP JUMPDEST SWAP6 JUMPDEST PUSH1 0x40 MLOAD SWAP3 PUSH2 0x1292 DUP5 PUSH2 0x2ABC JUMP JUMPDEST DUP14 DUP5 MSTORE PUSH1 0x1 DUP12 DUP6 ADD MSTORE DUP6 PUSH1 0x40 DUP6 ADD MSTORE DUP8 PUSH1 0x60 DUP6 ADD MSTORE DUP12 DUP5 ADD MSTORE TIMESTAMP PUSH1 0xA0 DUP5 ADD MSTORE PUSH1 0xC0 DUP4 ADD MSTORE DUP8 PUSH1 0xE0 DUP4 ADD MSTORE PUSH2 0x33C7 JUMP JUMPDEST DUP9 PUSH1 0x0 MSTORE PUSH1 0x3 DUP7 MSTORE PUSH1 0x40 PUSH1 0x0 KECCAK256 PUSH1 0x1 PUSH1 0xFF NOT DUP3 SLOAD AND OR SWAP1 SSTORE DUP5 PUSH1 0x0 MSTORE PUSH1 0x4 DUP7 MSTORE DUP9 PUSH1 0x40 PUSH1 0x0 KECCAK256 SSTORE PUSH2 0x12F3 PUSH1 0xB SLOAD PUSH2 0x2ED4 JUMP JUMPDEST PUSH1 0xB SSTORE PUSH1 0x40 MLOAD SWAP7 DUP8 SWAP7 PUSH1 0x1 DUP9 MSTORE DUP8 ADD MSTORE PUSH1 0x80 DUP7 ADD SWAP1 PUSH2 0x2BFA JUMP JUMPDEST SWAP1 DUP5 DUP3 SUB PUSH1 0x40 DUP7 ADD MSTORE PUSH2 0x2BFA JUMP JUMPDEST SWAP1 PUSH1 0x60 DUP4 ADD MSTORE SUB SWAP1 LOG2 STOP JUMPDEST PUSH2 0x132E PUSH2 0x337D JUMP JUMPDEST SWAP6 PUSH2 0x1285 JUMP JUMPDEST PUSH2 0x131B SWAP2 POP PUSH2 0x130D PUSH1 0x80 SWAP6 PUSH2 0x12C1 PUSH1 0x0 DUP1 MLOAD PUSH1 0x20 PUSH2 0x36D3 DUP4 CODECOPY DUP2 MLOAD SWAP2 MSTORE SWAP9 DUP11 PUSH1 0x0 SWAP6 PUSH2 0x1208 JUMP JUMPDEST POP CALLER PUSH1 0x0 SWAP1 DUP2 MSTORE PUSH1 0x6 DUP4 MSTORE PUSH1 0x40 SWAP1 KECCAK256 PUSH1 0x3 ADD SLOAD PUSH1 0xFF AND PUSH2 0x112B JUMP JUMPDEST PUSH2 0x138D SWAP2 POP DUP4 RETURNDATASIZE DUP6 GT PUSH2 0x499 JUMPI PUSH2 0x48B DUP2 DUP4 PUSH2 0x2B0E JUMP JUMPDEST DUP7 PUSH2 0x1123 JUMP JUMPDEST CALLVALUE PUSH2 0x4AC JUMPI PUSH1 0x0 CALLDATASIZE PUSH1 0x3 NOT ADD SLT PUSH2 0x4AC JUMPI PUSH1 0x40 MLOAD PUSH1 0x5 DUP1 SLOAD DUP1 DUP4 MSTORE PUSH1 0x0 SWAP2 DUP3 MSTORE PUSH1 0x20 DUP1 DUP5 ADD SWAP4 SWAP3 PUSH32 0x36B6384B5ECA791C62761152D0C79BB0604C104A5FB6F4EB0703F3154BB3DB0 SWAP3 SWAP2 JUMPDEST DUP3 DUP3 LT PUSH2 0x1401 JUMPI PUSH2 0x64B DUP6 PUSH2 0x13F5 DUP2 DUP10 SUB DUP3 PUSH2 0x2B0E JUMP JUMPDEST PUSH1 0x40 MLOAD SWAP2 DUP3 SWAP2 DUP3 PUSH2 0x2D12 JUMP JUMPDEST DUP4 SLOAD DUP7 MSTORE SWAP5 DUP6 ADD SWAP5 PUSH1 0x1 SWAP4 DUP5 ADD SWAP4 SWAP1 SWAP2 ADD SWAP1 PUSH2 0x13DE JUMP JUMPDEST CALLVALUE PUSH2 0x4AC JUMPI PUSH1 0x0 CALLDATASIZE PUSH1 0x3 NOT ADD SLT PUSH2 0x4AC JUMPI PUSH1 0x40 MLOAD DUP1 PUSH1 0x7 SLOAD DUP1 DUP4 MSTORE PUSH1 0x20 DUP1 SWAP4 ADD DUP1 SWAP2 PUSH1 0x7 PUSH1 0x0 MSTORE DUP5 PUSH1 0x0 KECCAK256 SWAP1 PUSH1 0x0 JUMPDEST DUP7 DUP3 DUP3 LT PUSH2 0x14A6 JUMPI DUP7 DUP7 PUSH2 0x145D DUP3 DUP9 SUB DUP4 PUSH2 0x2B0E JUMP JUMPDEST PUSH1 0x40 MLOAD SWAP3 DUP4 SWAP3 DUP2 DUP5 ADD SWAP1 DUP3 DUP6 MSTORE MLOAD DUP1 SWAP2 MSTORE PUSH1 0x40 DUP5 ADD SWAP3 SWAP2 PUSH1 0x0 JUMPDEST DUP3 DUP2 LT PUSH2 0x1486 JUMPI POP POP POP POP SUB SWAP1 RETURN JUMPDEST DUP4 MLOAD PUSH1 0x1 PUSH1 0x1 PUSH1 0xA0 SHL SUB AND DUP6 MSTORE DUP7 SWAP6 POP SWAP4 DUP2 ADD SWAP4 SWAP3 DUP2 ADD SWAP3 PUSH1 0x1 ADD PUSH2 0x1477 JUMP JUMPDEST DUP4 SLOAD PUSH1 0x1 PUSH1 0x1 PUSH1 0xA0 SHL SUB AND DUP6 MSTORE SWAP1 SWAP4 ADD SWAP3 PUSH1 0x1 SWAP3 DUP4 ADD SWAP3 ADD PUSH2 0x1447 JUMP JUMPDEST CALLVALUE PUSH2 0x4AC JUMPI PUSH1 0x20 DUP1 PUSH1 0x3 NOT CALLDATASIZE ADD SLT PUSH2 0x4AC JUMPI PUSH1 0x4 CALLDATALOAD SWAP1 DUP2 PUSH1 0x0 MSTORE PUSH1 0x1 SWAP2 DUP3 DUP3 MSTORE PUSH2 0x14F3 PUSH1 0x40 PUSH1 0x0 KECCAK256 SLOAD ISZERO ISZERO PUSH2 0x340A JUMP JUMPDEST PUSH1 0x0 MSTORE PUSH1 0x2 DUP2 MSTORE PUSH1 0x40 PUSH1 0x0 KECCAK256 SWAP2 DUP3 SLOAD SWAP2 PUSH2 0x150C DUP4 PUSH2 0x2FE0 JUMP JUMPDEST SWAP3 PUSH2 0x151A PUSH1 0x40 MLOAD SWAP5 DUP6 PUSH2 0x2B0E JUMP JUMPDEST DUP1 DUP5 MSTORE DUP2 DUP5 ADD DUP1 SWAP6 PUSH1 0x0 MSTORE DUP3 PUSH1 0x0 KECCAK256 PUSH1 0x0 SWAP2 JUMPDEST DUP4 DUP4 LT PUSH2 0x1595 JUMPI POP POP POP POP PUSH1 0x40 MLOAD SWAP3 DUP2 DUP5 ADD SWAP1 DUP3 DUP6 MSTORE MLOAD DUP1 SWAP2 MSTORE PUSH1 0x40 DUP5 ADD SWAP2 PUSH1 0x40 DUP3 PUSH1 0x5 SHL DUP7 ADD ADD SWAP6 SWAP3 PUSH1 0x0 SWAP1 JUMPDEST DUP4 DUP3 LT PUSH2 0x1568 JUMPI DUP7 DUP9 SUB DUP8 RETURN JUMPDEST SWAP1 SWAP2 SWAP3 SWAP4 SWAP5 DUP4 DUP1 PUSH2 0x1584 DUP4 SWAP11 PUSH1 0x3F NOT DUP12 DUP3 SUB ADD DUP7 MSTORE DUP10 MLOAD PUSH2 0x2C98 JUMP JUMPDEST SWAP10 SWAP8 ADD SWAP6 SWAP5 SWAP4 SWAP2 SWAP1 SWAP2 ADD SWAP2 ADD PUSH2 0x155B JUMP JUMPDEST SWAP5 PUSH1 0x8 DUP6 DUP3 SWAP10 SWAP8 PUSH2 0x15A8 DUP6 SWAP11 SWAP9 SWAP11 PUSH2 0x359E JUMP JUMPDEST DUP2 MSTORE ADD SWAP3 ADD SWAP3 ADD SWAP2 SWAP1 SWAP7 SWAP5 SWAP7 SWAP6 SWAP4 SWAP6 PUSH2 0x152D JUMP JUMPDEST CALLVALUE PUSH2 0x4AC JUMPI PUSH1 0x20 CALLDATASIZE PUSH1 0x3 NOT ADD SLT PUSH2 0x4AC JUMPI PUSH1 0x4 CALLDATALOAD DUP1 PUSH1 0x0 MSTORE PUSH1 0x1 PUSH1 0x20 MSTORE PUSH2 0x15E9 PUSH1 0x40 PUSH1 0x0 KECCAK256 SLOAD ISZERO ISZERO PUSH2 0x340A JUMP JUMPDEST PUSH1 0x0 MSTORE PUSH1 0x3 PUSH1 0x20 MSTORE PUSH1 0x20 PUSH1 0xFF PUSH1 0x40 PUSH1 0x0 KECCAK256 SLOAD AND PUSH2 0x1609 PUSH1 0x40 MLOAD DUP1 SWAP3 PUSH2 0x2C75 JUMP JUMPDEST RETURN JUMPDEST CALLVALUE PUSH2 0x4AC JUMPI PUSH1 0x20 CALLDATASIZE PUSH1 0x3 NOT ADD SLT PUSH2 0x4AC JUMPI PUSH1 0x4 CALLDATALOAD PUSH1 0x0 MSTORE PUSH1 0x4 PUSH1 0x20 MSTORE PUSH1 0x20 PUSH1 0x40 PUSH1 0x0 KECCAK256 SLOAD PUSH1 0x40 MLOAD SWAP1 DUP2 MSTORE RETURN JUMPDEST CALLVALUE PUSH2 0x4AC JUMPI PUSH1 0x0 CALLDATASIZE PUSH1 0x3 NOT ADD SLT PUSH2 0x4AC JUMPI PUSH1 0x0 PUSH1 0x80 PUSH1 0x40 MLOAD PUSH2 0x1658 DUP2 PUSH2 0x2AD8 JUMP JUMPDEST DUP3 DUP2 MSTORE DUP3 PUSH1 0x20 DUP3 ADD MSTORE DUP3 PUSH1 0x40 DUP3 ADD MSTORE DUP3 PUSH1 0x60 DUP3 ADD MSTORE ADD MSTORE PUSH1 0xA0 PUSH1 0x40 MLOAD PUSH2 0x167D DUP2 PUSH2 0x2AD8 JUMP JUMPDEST PUSH1 0x8 SLOAD SWAP1 DUP2 DUP2 MSTORE PUSH1 0x9 SLOAD PUSH1 0x20 DUP3 ADD SWAP1 DUP2 MSTORE PUSH1 0xA SLOAD PUSH1 0x40 DUP4 ADD SWAP1 DUP2 MSTORE PUSH1 0xB SLOAD SWAP2 PUSH1 0x60 DUP5 ADD SWAP3 DUP4 MSTORE PUSH1 0x80 PUSH1 0xC SLOAD SWAP5 ADD SWAP4 DUP5 MSTORE PUSH1 0x40 MLOAD SWAP5 DUP6 MSTORE MLOAD PUSH1 0x20 DUP6 ADD MSTORE MLOAD PUSH1 0x40 DUP5 ADD MSTORE MLOAD PUSH1 0x60 DUP4 ADD MSTORE MLOAD PUSH1 0x80 DUP3 ADD MSTORE RETURN JUMPDEST CALLVALUE PUSH2 0x4AC JUMPI PUSH1 0x20 DUP1 PUSH1 0x3 NOT CALLDATASIZE ADD SLT PUSH2 0x4AC JUMPI PUSH2 0x16E7 PUSH2 0x2A6C JUMP JUMPDEST PUSH1 0x40 MLOAD PUSH4 0x95A8C58D PUSH1 0xE0 SHL DUP2 MSTORE SWAP1 DUP2 PUSH2 0x1703 CALLER PUSH1 0x4 DUP4 ADD PUSH2 0x2D65 JUMP JUMPDEST PUSH1 0x1 PUSH1 0x1 PUSH1 0xA0 SHL SUB SWAP4 SWAP2 DUP6 SWAP2 DUP4 SWAP2 SWAP1 SUB DUP2 PUSH32 0x0 DUP8 AND GAS STATICCALL DUP1 ISZERO PUSH2 0x4A0 JUMPI PUSH2 0x1751 SWAP2 PUSH1 0x0 SWAP2 PUSH2 0x187C JUMPI JUMPDEST POP PUSH2 0x2D99 JUMP JUMPDEST AND SWAP1 DUP2 PUSH1 0x0 MSTORE PUSH1 0x6 DUP2 MSTORE PUSH1 0x4 PUSH1 0x40 PUSH1 0x0 KECCAK256 ADD SLOAD ISZERO PUSH2 0x1838 JUMPI DUP2 PUSH1 0x0 MSTORE PUSH1 0x6 DUP2 MSTORE PUSH1 0xFF PUSH1 0x3 PUSH1 0x40 PUSH1 0x0 KECCAK256 ADD SLOAD AND PUSH2 0x17F6 JUMPI PUSH1 0x1 PUSH1 0x0 DUP1 MLOAD PUSH1 0x20 PUSH2 0x36F3 DUP4 CODECOPY DUP2 MLOAD SWAP2 MSTORE SWAP2 DUP4 PUSH1 0x0 MSTORE PUSH1 0x6 DUP2 MSTORE PUSH1 0x3 PUSH1 0x40 PUSH1 0x0 KECCAK256 ADD DUP3 PUSH1 0xFF NOT DUP3 SLOAD AND OR SWAP1 SSTORE PUSH2 0x17B8 PUSH1 0xC SLOAD PUSH2 0x2ED4 JUMP JUMPDEST PUSH1 0xC SSTORE DUP4 PUSH1 0x0 MSTORE PUSH1 0x6 DUP2 MSTORE PUSH2 0x17F1 PUSH1 0x40 PUSH1 0x0 KECCAK256 SWAP2 PUSH1 0x40 MLOAD SWAP4 DUP5 SWAP4 PUSH1 0x40 DUP6 MSTORE PUSH2 0x17E3 PUSH1 0x40 DUP7 ADD DUP3 PUSH2 0x2EF0 JUMP JUMPDEST SWAP3 DUP6 DUP5 SUB SWAP1 DUP7 ADD MSTORE ADD PUSH2 0x2EF0 JUMP JUMPDEST SUB SWAP1 LOG2 STOP JUMPDEST PUSH1 0x64 SWAP1 PUSH1 0x40 MLOAD SWAP1 PUSH3 0x461BCD PUSH1 0xE5 SHL DUP3 MSTORE PUSH1 0x4 DUP3 ADD MSTORE PUSH1 0x1B PUSH1 0x24 DUP3 ADD MSTORE PUSH27 0x537570706C79436861696E3A20616C726561647920616374697665 PUSH1 0x28 SHL PUSH1 0x44 DUP3 ADD MSTORE REVERT JUMPDEST PUSH1 0x64 SWAP1 PUSH1 0x40 MLOAD SWAP1 PUSH3 0x461BCD PUSH1 0xE5 SHL DUP3 MSTORE PUSH1 0x4 DUP3 ADD MSTORE PUSH1 0x1E PUSH1 0x24 DUP3 ADD MSTORE PUSH32 0x537570706C79436861696E3A2068616E646C6572206E6F7420666F756E640000 PUSH1 0x44 DUP3 ADD MSTORE REVERT JUMPDEST PUSH2 0x1893 SWAP2 POP DUP6 RETURNDATASIZE DUP8 GT PUSH2 0x499 JUMPI PUSH2 0x48B DUP2 DUP4 PUSH2 0x2B0E JUMP JUMPDEST DUP6 PUSH2 0x174B JUMP JUMPDEST CALLVALUE PUSH2 0x4AC JUMPI PUSH1 0x80 CALLDATASIZE PUSH1 0x3 NOT ADD SLT PUSH2 0x4AC JUMPI PUSH2 0x18B2 PUSH2 0x2A6C JUMP JUMPDEST PUSH1 0x24 CALLDATALOAD PUSH1 0x1 PUSH1 0x1 PUSH1 0x40 SHL SUB DUP2 GT PUSH2 0x4AC JUMPI PUSH2 0x18D1 SWAP1 CALLDATASIZE SWAP1 PUSH1 0x4 ADD PUSH2 0x2C1F JUMP JUMPDEST PUSH1 0x44 CALLDATALOAD PUSH1 0x1 PUSH1 0x1 PUSH1 0x40 SHL SUB DUP2 GT PUSH2 0x4AC JUMPI PUSH2 0x18F0 SWAP1 CALLDATASIZE SWAP1 PUSH1 0x4 ADD PUSH2 0x2C1F JUMP JUMPDEST SWAP2 PUSH1 0x64 CALLDATALOAD PUSH1 0x1 PUSH1 0x1 PUSH1 0x40 SHL SUB DUP2 GT PUSH2 0x4AC JUMPI PUSH2 0x1910 SWAP1 CALLDATASIZE SWAP1 PUSH1 0x4 ADD PUSH2 0x2C1F JUMP JUMPDEST PUSH1 0x40 MLOAD PUSH4 0x95A8C58D PUSH1 0xE0 SHL DUP2 MSTORE SWAP1 DUP2 PUSH2 0x192C CALLER PUSH1 0x4 DUP4 ADD PUSH2 0x2D65 JUMP JUMPDEST PUSH1 0x1 PUSH1 0x1 PUSH1 0xA0 SHL SUB SWAP4 SWAP2 PUSH1 0x20 SWAP2 DUP4 SWAP2 SWAP1 SUB DUP2 PUSH32 0x0 DUP8 AND GAS STATICCALL DUP1 ISZERO PUSH2 0x4A0 JUMPI PUSH2 0x197A SWAP2 PUSH1 0x0 SWAP2 PUSH2 0x1E20 JUMPI POP PUSH2 0x2D99 JUMP JUMPDEST DUP2 DUP4 AND ISZERO PUSH2 0x1DDC JUMPI DUP2 DUP4 AND PUSH1 0x0 MSTORE PUSH1 0x6 PUSH1 0x20 MSTORE PUSH1 0xFF PUSH1 0x3 PUSH1 0x40 PUSH1 0x0 KECCAK256 ADD SLOAD AND PUSH2 0x1D8B JUMPI PUSH2 0x19A9 DUP5 MLOAD ISZERO ISZERO PUSH2 0x2DE4 JUMP JUMPDEST PUSH1 0x40 MLOAD SWAP1 PUSH2 0x19B6 DUP3 PUSH2 0x2AD8 JUMP JUMPDEST DUP5 DUP3 MSTORE DUP6 PUSH1 0x20 DUP4 ADD MSTORE PUSH1 0x40 DUP3 ADD MSTORE PUSH1 0x1 PUSH1 0x60 DUP3 ADD MSTORE TIMESTAMP PUSH1 0x80 DUP3 ADD MSTORE DUP2 DUP4 AND PUSH1 0x0 MSTORE PUSH1 0x6 PUSH1 0x20 MSTORE PUSH1 0x40 PUSH1 0x0 KECCAK256 SWAP1 DUP1 MLOAD DUP1 MLOAD SWAP1 PUSH1 0x1 DUP1 PUSH1 0x40 SHL SUB DUP3 GT PUSH2 0xBDF JUMPI DUP2 SWAP1 PUSH2 0x1A00 DUP6 SLOAD PUSH2 0x2A82 JUMP JUMPDEST PUSH1 0x1F DUP2 GT PUSH2 0x1D59 JUMPI JUMPDEST POP PUSH1 0x20 SWAP1 PUSH1 0x1F DUP4 GT PUSH1 0x1 EQ PUSH2 0x1CED JUMPI PUSH1 0x0 SWAP3 PUSH2 0x1CE2 JUMPI JUMPDEST POP POP DUP2 PUSH1 0x1 SHL SWAP2 PUSH1 0x0 NOT SWAP1 PUSH1 0x3 SHL SHR NOT AND OR DUP3 SSTORE JUMPDEST PUSH1 0x20 DUP2 ADD MLOAD DUP1 MLOAD SWAP1 PUSH1 0x1 PUSH1 0x1 PUSH1 0x40 SHL SUB DUP3 GT PUSH2 0xBDF JUMPI DUP2 SWAP1 PUSH2 0x1A5A PUSH1 0x1 DUP7 ADD SLOAD PUSH2 0x2A82 JUMP JUMPDEST PUSH1 0x1F DUP2 GT PUSH2 0x1CAD JUMPI JUMPDEST POP PUSH1 0x20 SWAP1 PUSH1 0x1F DUP4 GT PUSH1 0x1 EQ PUSH2 0x1C3B JUMPI PUSH1 0x0 SWAP3 PUSH2 0x1C30 JUMPI JUMPDEST POP POP DUP2 PUSH1 0x1 SHL SWAP2 PUSH1 0x0 NOT SWAP1 PUSH1 0x3 SHL SHR NOT AND OR PUSH1 0x1 DUP4 ADD SSTORE JUMPDEST PUSH1 0x40 DUP2 ADD MLOAD DUP1 MLOAD SWAP1 PUSH1 0x1 PUSH1 0x1 PUSH1 0x40 SHL SUB DUP3 GT PUSH2 0xBDF JUMPI PUSH2 0x1AB5 PUSH1 0x2 DUP6 ADD SLOAD PUSH2 0x2A82 JUMP JUMPDEST PUSH1 0x1F DUP2 GT PUSH2 0x1BFB JUMPI JUMPDEST POP PUSH1 0x20 SWAP1 PUSH1 0x1F DUP4 GT PUSH1 0x1 EQ PUSH2 0x1B6D JUMPI PUSH1 0x80 PUSH2 0x1B52 SWAP8 SWAP5 DUP5 PUSH1 0x0 DUP1 MLOAD PUSH1 0x20 PUSH2 0x36F3 DUP4 CODECOPY DUP2 MLOAD SWAP2 MSTORE SWAP11 SWAP9 SWAP6 PUSH2 0x17F1 SWAP9 SWAP6 PUSH1 0x4 SWAP6 PUSH1 0x0 SWAP3 PUSH2 0x1B62 JUMPI JUMPDEST POP POP DUP2 PUSH1 0x1 SHL SWAP2 PUSH1 0x0 NOT SWAP1 PUSH1 0x3 SHL SHR NOT AND OR PUSH1 0x2 DUP6 ADD SSTORE JUMPDEST PUSH2 0x1B22 PUSH1 0x60 DUP3 ADD MLOAD ISZERO ISZERO PUSH1 0x3 DUP7 ADD PUSH2 0x2E44 JUMP JUMPDEST ADD MLOAD SWAP2 ADD SSTORE PUSH2 0x1B30 DUP3 PUSH2 0x2E70 JUMP JUMPDEST PUSH2 0x1B3B PUSH1 0xC SLOAD PUSH2 0x2ED4 JUMP JUMPDEST PUSH1 0xC SSTORE PUSH1 0x40 MLOAD SWAP5 DUP6 SWAP5 PUSH1 0x40 DUP7 MSTORE PUSH1 0x40 DUP7 ADD SWAP1 PUSH2 0x2BFA JUMP JUMPDEST SWAP2 DUP5 DUP4 SUB PUSH1 0x20 DUP7 ADD MSTORE AND SWAP6 PUSH2 0x2BFA JUMP JUMPDEST ADD MLOAD SWAP1 POP DUP14 DUP1 PUSH2 0x1AF7 JUMP JUMPDEST SWAP1 PUSH1 0x2 DUP6 ADD PUSH1 0x0 MSTORE PUSH1 0x20 PUSH1 0x0 KECCAK256 SWAP2 PUSH1 0x0 JUMPDEST PUSH1 0x1F NOT DUP6 AND DUP2 LT PUSH2 0x1BE3 JUMPI POP PUSH2 0x1B52 SWAP8 SWAP5 PUSH1 0x1 DUP6 PUSH2 0x17F1 SWAP9 SWAP6 PUSH1 0x4 SWAP6 PUSH1 0x80 SWAP6 PUSH1 0x0 DUP1 MLOAD PUSH1 0x20 PUSH2 0x36F3 DUP4 CODECOPY DUP2 MLOAD SWAP2 MSTORE SWAP15 SWAP13 SWAP10 PUSH1 0x1F NOT DUP2 AND LT PUSH2 0x1BCA JUMPI JUMPDEST POP POP POP DUP2 SHL ADD PUSH1 0x2 DUP6 ADD SSTORE PUSH2 0x1B0F JUMP JUMPDEST ADD MLOAD PUSH1 0x0 NOT PUSH1 0xF8 DUP5 PUSH1 0x3 SHL AND SHR NOT AND SWAP1 SSTORE DUP14 DUP1 DUP1 PUSH2 0x1BBA JUMP JUMPDEST SWAP2 SWAP3 PUSH1 0x20 PUSH1 0x1 DUP2 SWAP3 DUP7 DUP6 ADD MLOAD DUP2 SSTORE ADD SWAP5 ADD SWAP3 ADD PUSH2 0x1B7E JUMP JUMPDEST PUSH2 0x1C2A SWAP1 PUSH1 0x2 DUP7 ADD PUSH1 0x0 MSTORE PUSH1 0x20 PUSH1 0x0 KECCAK256 PUSH1 0x1F DUP6 ADD PUSH1 0x5 SHR DUP2 ADD SWAP2 PUSH1 0x20 DUP7 LT PUSH2 0xD60 JUMPI PUSH1 0x1F ADD PUSH1 0x5 SHR ADD SWAP1 PUSH2 0x2E2D JUMP JUMPDEST DUP9 PUSH2 0x1ABE JUMP JUMPDEST ADD MLOAD SWAP1 POP DUP9 DUP1 PUSH2 0x1A7A JUMP JUMPDEST SWAP3 POP PUSH1 0x1 DUP6 ADD PUSH1 0x0 MSTORE PUSH1 0x20 PUSH1 0x0 KECCAK256 SWAP1 PUSH1 0x0 SWAP4 JUMPDEST PUSH1 0x1F NOT DUP5 AND DUP6 LT PUSH2 0x1C92 JUMPI PUSH1 0x1 SWAP5 POP DUP4 PUSH1 0x1F NOT DUP2 AND LT PUSH2 0x1C79 JUMPI JUMPDEST POP POP POP DUP2 SHL ADD PUSH1 0x1 DUP4 ADD SSTORE PUSH2 0x1A92 JUMP JUMPDEST ADD MLOAD PUSH1 0x0 NOT PUSH1 0xF8 DUP5 PUSH1 0x3 SHL AND SHR NOT AND SWAP1 SSTORE DUP9 DUP1 DUP1 PUSH2 0x1C69 JUMP JUMPDEST DUP2 DUP2 ADD MLOAD DUP4 SSTORE PUSH1 0x20 SWAP5 DUP6 ADD SWAP5 PUSH1 0x1 SWAP1 SWAP4 ADD SWAP3 SWAP1 SWAP2 ADD SWAP1 PUSH2 0x1C4E JUMP JUMPDEST PUSH2 0x1CDC SWAP1 PUSH1 0x1 DUP8 ADD PUSH1 0x0 MSTORE PUSH1 0x20 PUSH1 0x0 KECCAK256 PUSH1 0x1F DUP6 ADD PUSH1 0x5 SHR DUP2 ADD SWAP2 PUSH1 0x20 DUP7 LT PUSH2 0xD60 JUMPI PUSH1 0x1F ADD PUSH1 0x5 SHR ADD SWAP1 PUSH2 0x2E2D JUMP JUMPDEST DUP10 PUSH2 0x1A63 JUMP JUMPDEST ADD MLOAD SWAP1 POP DUP9 DUP1 PUSH2 0x1A20 JUMP JUMPDEST SWAP3 POP DUP5 PUSH1 0x0 MSTORE PUSH1 0x20 PUSH1 0x0 KECCAK256 SWAP1 PUSH1 0x0 SWAP4 JUMPDEST PUSH1 0x1F NOT DUP5 AND DUP6 LT PUSH2 0x1D3E JUMPI PUSH1 0x1 SWAP5 POP DUP4 PUSH1 0x1F NOT DUP2 AND LT PUSH2 0x1D25 JUMPI JUMPDEST POP POP POP DUP2 SHL ADD DUP3 SSTORE PUSH2 0x1A35 JUMP JUMPDEST ADD MLOAD PUSH1 0x0 NOT PUSH1 0xF8 DUP5 PUSH1 0x3 SHL AND SHR NOT AND SWAP1 SSTORE DUP9 DUP1 DUP1 PUSH2 0x1D18 JUMP JUMPDEST DUP2 DUP2 ADD MLOAD DUP4 SSTORE PUSH1 0x20 SWAP5 DUP6 ADD SWAP5 PUSH1 0x1 SWAP1 SWAP4 ADD SWAP3 SWAP1 SWAP2 ADD SWAP1 PUSH2 0x1CFD JUMP JUMPDEST PUSH2 0x1D85 SWAP1 DUP7 PUSH1 0x0 MSTORE PUSH1 0x20 PUSH1 0x0 KECCAK256 PUSH1 0x1F DUP6 ADD PUSH1 0x5 SHR DUP2 ADD SWAP2 PUSH1 0x20 DUP7 LT PUSH2 0xD60 JUMPI PUSH1 0x1F ADD PUSH1 0x5 SHR ADD SWAP1 PUSH2 0x2E2D JUMP JUMPDEST DUP10 PUSH2 0x1A09 JUMP JUMPDEST PUSH1 0x40 MLOAD PUSH3 0x461BCD PUSH1 0xE5 SHL DUP2 MSTORE PUSH1 0x20 PUSH1 0x4 DUP3 ADD MSTORE PUSH1 0x23 PUSH1 0x24 DUP3 ADD MSTORE PUSH32 0x537570706C79436861696E3A2068616E646C657220616C726561647920657869 PUSH1 0x44 DUP3 ADD MSTORE PUSH3 0x737473 PUSH1 0xE8 SHL PUSH1 0x64 DUP3 ADD MSTORE PUSH1 0x84 SWAP1 REVERT JUMPDEST PUSH1 0x40 MLOAD PUSH3 0x461BCD PUSH1 0xE5 SHL DUP2 MSTORE PUSH1 0x20 PUSH1 0x4 DUP3 ADD MSTORE PUSH1 0x1C PUSH1 0x24 DUP3 ADD MSTORE PUSH28 0x537570706C79436861696E3A20696E76616C69642061646472657373 PUSH1 0x20 SHL PUSH1 0x44 DUP3 ADD MSTORE PUSH1 0x64 SWAP1 REVERT JUMPDEST PUSH2 0x1E39 SWAP2 POP PUSH1 0x20 RETURNDATASIZE PUSH1 0x20 GT PUSH2 0x499 JUMPI PUSH2 0x48B DUP2 DUP4 PUSH2 0x2B0E JUMP JUMPDEST DUP8 PUSH2 0x174B JUMP JUMPDEST CALLVALUE PUSH2 0x4AC JUMPI PUSH1 0x20 DUP1 PUSH1 0x3 NOT CALLDATASIZE ADD SLT PUSH2 0x4AC JUMPI PUSH1 0xA0 SWAP1 PUSH2 0x1E5C PUSH2 0x2A6C JUMP JUMPDEST SWAP1 PUSH1 0x40 MLOAD SWAP2 PUSH2 0x1E6A DUP4 PUSH2 0x2AD8 JUMP JUMPDEST PUSH1 0x0 PUSH1 0x80 PUSH1 0x60 SWAP5 DUP6 DUP2 MSTORE DUP6 DUP6 DUP3 ADD MSTORE DUP6 PUSH1 0x40 DUP3 ADD MSTORE DUP3 DUP7 DUP3 ADD MSTORE ADD MSTORE PUSH1 0x1 DUP1 DUP6 SHL SUB AND PUSH1 0x0 MSTORE PUSH1 0x6 DUP2 MSTORE PUSH1 0x40 PUSH1 0x0 KECCAK256 SWAP1 PUSH2 0x1F3C PUSH1 0x40 MLOAD SWAP4 PUSH2 0x1EAA DUP6 PUSH2 0x2AD8 JUMP JUMPDEST PUSH2 0x1EB3 DUP5 PUSH2 0x2B31 JUMP JUMPDEST DUP6 MSTORE PUSH2 0x1EC1 PUSH1 0x1 DUP6 ADD PUSH2 0x2B31 JUMP JUMPDEST DUP4 DUP7 ADD SWAP1 DUP2 MSTORE PUSH2 0x1ED3 PUSH1 0x2 DUP7 ADD PUSH2 0x2B31 JUMP JUMPDEST SWAP2 PUSH1 0x40 DUP8 ADD SWAP3 DUP4 MSTORE PUSH2 0x1F2C PUSH2 0x1F16 PUSH1 0x4 PUSH1 0xFF PUSH1 0x3 DUP11 ADD SLOAD AND SWAP9 DUP5 DUP12 ADD SWAP10 ISZERO ISZERO DUP11 MSTORE ADD SLOAD SWAP7 PUSH1 0x80 DUP11 ADD SWAP8 DUP9 MSTORE PUSH1 0x40 MLOAD SWAP11 DUP12 SWAP11 DUP3 DUP13 MSTORE MLOAD SWAP2 DUP12 ADD MSTORE PUSH1 0xC0 DUP11 ADD SWAP1 PUSH2 0x2BFA JUMP JUMPDEST SWAP3 MLOAD SWAP3 PUSH1 0x1F NOT SWAP4 DUP5 DUP11 DUP4 SUB ADD PUSH1 0x40 DUP12 ADD MSTORE PUSH2 0x2BFA JUMP JUMPDEST SWAP3 MLOAD SWAP2 DUP8 DUP5 SUB ADD SWAP1 DUP8 ADD MSTORE PUSH2 0x2BFA JUMP JUMPDEST SWAP2 MLOAD ISZERO ISZERO PUSH1 0x80 DUP5 ADD MSTORE MLOAD PUSH1 0xA0 DUP4 ADD MSTORE SUB SWAP1 RETURN JUMPDEST CALLVALUE PUSH2 0x4AC JUMPI PUSH1 0x20 DUP1 PUSH1 0x3 NOT CALLDATASIZE ADD SLT PUSH2 0x4AC JUMPI PUSH1 0x4 CALLDATALOAD PUSH1 0x0 PUSH1 0xE0 PUSH1 0x40 MLOAD PUSH2 0x1F74 DUP2 PUSH2 0x2ABC JUMP JUMPDEST DUP3 DUP2 MSTORE DUP3 DUP6 DUP3 ADD MSTORE PUSH1 0x60 PUSH1 0x40 DUP3 ADD MSTORE PUSH1 0x60 DUP1 DUP3 ADD MSTORE PUSH1 0x60 PUSH1 0x80 DUP3 ADD MSTORE DUP3 PUSH1 0xA0 DUP3 ADD MSTORE DUP3 PUSH1 0xC0 DUP3 ADD MSTORE ADD MSTORE DUP1 PUSH1 0x0 MSTORE PUSH1 0x1 DUP3 MSTORE PUSH2 0x1FB6 PUSH1 0x40 PUSH1 0x0 KECCAK256 SLOAD ISZERO ISZERO PUSH2 0x340A JUMP JUMPDEST PUSH1 0x0 MSTORE PUSH1 0x2 DUP2 MSTORE PUSH1 0x40 PUSH1 0x0 KECCAK256 DUP1 SLOAD SWAP1 DUP2 ISZERO PUSH2 0x1FFF JUMPI PUSH1 0x0 NOT DUP3 ADD SWAP2 DUP3 GT PUSH2 0x3FE JUMPI PUSH2 0x1FEA SWAP2 PUSH2 0x1FE4 SWAP2 PUSH2 0x33AB JUMP JUMPDEST POP PUSH2 0x359E JUMP JUMPDEST SWAP1 PUSH2 0x64B PUSH1 0x40 MLOAD SWAP3 DUP3 DUP5 SWAP4 DUP5 MSTORE DUP4 ADD SWAP1 PUSH2 0x2C98 JUMP JUMPDEST PUSH1 0x40 MLOAD PUSH3 0x461BCD PUSH1 0xE5 SHL DUP2 MSTORE PUSH1 0x4 DUP2 ADD DUP5 SWAP1 MSTORE PUSH1 0x16 PUSH1 0x24 DUP3 ADD MSTORE PUSH22 0x537570706C79436861696E3A206E6F206576656E7473 PUSH1 0x50 SHL PUSH1 0x44 DUP3 ADD MSTORE PUSH1 0x64 SWAP1 REVERT JUMPDEST CALLVALUE PUSH2 0x4AC JUMPI PUSH1 0x60 CALLDATASIZE PUSH1 0x3 NOT ADD SLT PUSH2 0x4AC JUMPI PUSH1 0x1 PUSH1 0x1 PUSH1 0x40 SHL SUB PUSH1 0x4 CALLDATALOAD DUP2 DUP2 GT PUSH2 0x4AC JUMPI PUSH2 0x206E SWAP1 CALLDATASIZE SWAP1 PUSH1 0x4 ADD PUSH2 0x2C1F JUMP JUMPDEST SWAP1 PUSH1 0x24 CALLDATALOAD DUP2 DUP2 GT PUSH2 0x4AC JUMPI PUSH2 0x2087 SWAP1 CALLDATASIZE SWAP1 PUSH1 0x4 ADD PUSH2 0x2C1F JUMP JUMPDEST SWAP1 PUSH1 0x44 CALLDATALOAD DUP2 DUP2 GT PUSH2 0x4AC JUMPI PUSH2 0x20A0 SWAP1 CALLDATASIZE SWAP1 PUSH1 0x4 ADD PUSH2 0x2C1F JUMP JUMPDEST SWAP2 CALLER PUSH1 0x0 MSTORE PUSH1 0x20 SWAP3 PUSH1 0x6 DUP5 MSTORE PUSH1 0x3 SWAP3 PUSH1 0xFF DUP5 PUSH1 0x40 PUSH1 0x0 KECCAK256 ADD SLOAD AND PUSH2 0x23F9 JUMPI PUSH2 0x20CA DUP7 MLOAD ISZERO ISZERO PUSH2 0x2DE4 JUMP JUMPDEST PUSH1 0x40 MLOAD SWAP6 PUSH2 0x20D7 DUP8 PUSH2 0x2AD8 JUMP JUMPDEST DUP7 MSTORE DUP5 DUP7 ADD SWAP3 DUP4 MSTORE PUSH1 0x40 DUP7 ADD SWAP2 DUP3 MSTORE PUSH1 0x60 DUP7 ADD SWAP3 PUSH1 0x0 DUP5 MSTORE PUSH1 0x80 DUP8 ADD SWAP6 TIMESTAMP DUP8 MSTORE CALLER PUSH1 0x0 MSTORE PUSH1 0x6 DUP2 MSTORE PUSH1 0x40 PUSH1 0x0 KECCAK256 SWAP8 MLOAD SWAP1 DUP2 MLOAD DUP5 DUP2 GT PUSH2 0xBDF JUMPI DUP1 PUSH2 0x211B DUP12 SLOAD PUSH2 0x2A82 JUMP JUMPDEST SWAP4 PUSH1 0x1F SWAP5 DUP6 DUP2 GT PUSH2 0x23CB JUMPI JUMPDEST POP DUP4 SWAP1 DUP6 DUP4 GT PUSH1 0x1 EQ PUSH2 0x2367 JUMPI PUSH1 0x0 SWAP3 PUSH2 0x235C JUMPI JUMPDEST POP POP DUP2 PUSH1 0x1 SHL SWAP2 PUSH1 0x0 NOT SWAP1 DUP11 SHL SHR NOT AND OR DUP10 SSTORE JUMPDEST PUSH1 0x1 SWAP3 DUP4 DUP11 ADD SWAP1 MLOAD DUP1 MLOAD SWAP1 DUP7 DUP3 GT PUSH2 0xBDF JUMPI DUP2 SWAP1 PUSH2 0x216E DUP5 SLOAD PUSH2 0x2A82 JUMP JUMPDEST DUP7 DUP2 GT PUSH2 0x232E JUMPI JUMPDEST POP DUP5 SWAP1 DUP7 DUP4 GT PUSH1 0x1 EQ PUSH2 0x22CC JUMPI PUSH1 0x0 SWAP3 PUSH2 0x22C1 JUMPI JUMPDEST POP POP PUSH1 0x0 NOT DUP3 DUP12 SHL SHR NOT AND SWAP1 DUP6 SHL OR SWAP1 SSTORE JUMPDEST PUSH1 0x2 DUP10 ADD SWAP5 MLOAD SWAP1 DUP2 MLOAD SWAP5 DUP6 GT PUSH2 0xBDF JUMPI PUSH2 0x21B7 DUP7 SLOAD PUSH2 0x2A82 JUMP JUMPDEST DUP4 DUP2 GT PUSH2 0x2289 JUMPI JUMPDEST POP DUP1 SWAP3 DUP6 GT PUSH1 0x1 EQ PUSH2 0x2217 JUMPI POP SWAP3 DUP1 PUSH1 0x4 SWAP9 SWAP8 SWAP6 SWAP4 DUP2 SWAP4 PUSH2 0x21FF SWAP9 SWAP7 PUSH1 0x0 SWAP5 PUSH2 0x220C JUMPI JUMPDEST POP POP SHL SWAP2 PUSH1 0x0 NOT SWAP1 DUP7 SHL SHR NOT AND OR SWAP1 SSTORE JUMPDEST MLOAD ISZERO ISZERO SWAP1 DUP6 ADD PUSH2 0x2E44 JUMP JUMPDEST MLOAD SWAP2 ADD SSTORE PUSH2 0x100C CALLER PUSH2 0x2E70 JUMP JUMPDEST ADD MLOAD SWAP3 POP DUP12 DUP1 PUSH2 0x21E3 JUMP JUMPDEST SWAP2 SWAP1 PUSH1 0x1F SWAP5 SWAP4 SWAP5 NOT DUP5 AND DUP7 PUSH1 0x0 MSTORE DUP4 PUSH1 0x0 KECCAK256 SWAP4 PUSH1 0x0 SWAP1 JUMPDEST DUP3 DUP3 LT PUSH2 0x2272 JUMPI POP POP SWAP2 PUSH2 0x21FF SWAP8 SWAP6 SWAP4 SWAP2 DUP6 PUSH1 0x4 SWAP12 SWAP11 SWAP9 SWAP7 SWAP5 LT PUSH2 0x225A JUMPI JUMPDEST POP POP POP DUP2 SHL ADD SWAP1 SSTORE PUSH2 0x21F4 JUMP JUMPDEST ADD MLOAD PUSH1 0x0 NOT DUP4 DUP9 SHL PUSH1 0xF8 AND SHR NOT AND SWAP1 SSTORE DUP10 DUP1 DUP1 PUSH2 0x224D JUMP JUMPDEST DUP1 DUP9 DUP7 SWAP8 DUP3 SWAP5 SWAP8 DUP8 ADD MLOAD DUP2 SSTORE ADD SWAP7 ADD SWAP5 ADD SWAP1 PUSH2 0x222E JUMP JUMPDEST PUSH2 0x22B2 SWAP1 DUP8 PUSH1 0x0 MSTORE DUP3 PUSH1 0x0 KECCAK256 DUP6 DUP1 DUP10 ADD PUSH1 0x5 SHR DUP3 ADD SWAP3 DUP6 DUP11 LT PUSH2 0x22B8 JUMPI JUMPDEST ADD PUSH1 0x5 SHR ADD SWAP1 PUSH2 0x2E2D JUMP JUMPDEST DUP11 PUSH2 0x21BF JUMP JUMPDEST SWAP3 POP DUP2 SWAP3 PUSH2 0x22A7 JUMP JUMPDEST ADD MLOAD SWAP1 POP DUP13 DUP1 PUSH2 0x218B JUMP JUMPDEST SWAP1 DUP8 SWAP4 POP PUSH1 0x1F NOT DUP4 AND SWAP2 DUP6 PUSH1 0x0 MSTORE DUP7 PUSH1 0x0 KECCAK256 SWAP3 PUSH1 0x0 JUMPDEST DUP9 DUP3 DUP3 LT PUSH2 0x2318 JUMPI POP POP DUP5 GT PUSH2 0x2300 JUMPI JUMPDEST POP POP POP DUP2 SHL ADD SWAP1 SSTORE PUSH2 0x219D JUMP JUMPDEST ADD MLOAD PUSH1 0x0 NOT DUP4 DUP14 SHL PUSH1 0xF8 AND SHR NOT AND SWAP1 SSTORE DUP13 DUP1 DUP1 PUSH2 0x22F3 JUMP JUMPDEST DUP4 DUP6 ADD MLOAD DUP7 SSTORE DUP12 SWAP8 SWAP1 SWAP6 ADD SWAP5 SWAP4 DUP5 ADD SWAP4 ADD PUSH2 0x22E2 JUMP JUMPDEST PUSH2 0x2356 SWAP1 DUP6 PUSH1 0x0 MSTORE DUP7 PUSH1 0x0 KECCAK256 DUP9 DUP1 DUP7 ADD PUSH1 0x5 SHR DUP3 ADD SWAP3 DUP10 DUP8 LT PUSH2 0x22B8 JUMPI ADD PUSH1 0x5 SHR ADD SWAP1 PUSH2 0x2E2D JUMP JUMPDEST DUP14 PUSH2 0x2176 JUMP JUMPDEST ADD MLOAD SWAP1 POP DUP12 DUP1 PUSH2 0x213C JUMP JUMPDEST PUSH1 0x0 DUP14 DUP2 MSTORE DUP6 DUP2 KECCAK256 SWAP4 POP PUSH1 0x1F NOT DUP6 AND SWAP1 JUMPDEST DUP7 DUP3 DUP3 LT PUSH2 0x23B5 JUMPI POP POP SWAP1 DUP5 PUSH1 0x1 SWAP6 SWAP5 SWAP4 SWAP3 LT PUSH2 0x239D JUMPI JUMPDEST POP POP POP DUP2 SHL ADD DUP10 SSTORE PUSH2 0x2150 JUMP JUMPDEST ADD MLOAD PUSH1 0x0 NOT DUP4 DUP13 SHL PUSH1 0xF8 AND SHR NOT AND SWAP1 SSTORE DUP12 DUP1 DUP1 PUSH2 0x2390 JUMP JUMPDEST PUSH1 0x1 DUP6 SWAP7 DUP3 SWAP4 SWAP7 DUP7 ADD MLOAD DUP2 SSTORE ADD SWAP6 ADD SWAP4 ADD PUSH2 0x2378 JUMP JUMPDEST PUSH2 0x23F3 SWAP1 DUP14 PUSH1 0x0 MSTORE DUP6 PUSH1 0x0 KECCAK256 DUP8 DUP1 DUP7 ADD PUSH1 0x5 SHR DUP3 ADD SWAP3 DUP9 DUP8 LT PUSH2 0x22B8 JUMPI ADD PUSH1 0x5 SHR ADD SWAP1 PUSH2 0x2E2D JUMP JUMPDEST DUP13 PUSH2 0x2127 JUMP JUMPDEST PUSH1 0x40 MLOAD PUSH3 0x461BCD PUSH1 0xE5 SHL DUP2 MSTORE PUSH1 0x4 DUP2 ADD DUP7 SWAP1 MSTORE PUSH1 0x1F PUSH1 0x24 DUP3 ADD MSTORE PUSH32 0x537570706C79436861696E3A20616C7265616479207265676973746572656400 PUSH1 0x44 DUP3 ADD MSTORE PUSH1 0x64 SWAP1 REVERT JUMPDEST CALLVALUE PUSH2 0x4AC JUMPI PUSH1 0x80 CALLDATASIZE PUSH1 0x3 NOT ADD SLT PUSH2 0x4AC JUMPI PUSH1 0x9 PUSH1 0x24 CALLDATALOAD LT ISZERO PUSH2 0x4AC JUMPI PUSH1 0x1 PUSH1 0x1 PUSH1 0x40 SHL SUB PUSH1 0x44 CALLDATALOAD DUP2 DUP2 GT PUSH2 0x4AC JUMPI PUSH2 0x247A SWAP1 CALLDATASIZE SWAP1 PUSH1 0x4 ADD PUSH2 0x2C1F JUMP JUMPDEST SWAP1 PUSH1 0x64 CALLDATALOAD SWAP1 DUP2 GT PUSH2 0x4AC JUMPI PUSH2 0x2493 SWAP1 CALLDATASIZE SWAP1 PUSH1 0x4 ADD PUSH2 0x2C1F JUMP JUMPDEST PUSH1 0x4 CALLDATALOAD PUSH1 0x0 MSTORE PUSH1 0x1 PUSH1 0x20 MSTORE PUSH2 0x24AE PUSH1 0x40 PUSH1 0x0 KECCAK256 SLOAD ISZERO ISZERO PUSH2 0x340A JUMP JUMPDEST PUSH1 0x4 CALLDATALOAD PUSH1 0x0 MSTORE PUSH1 0x1 PUSH1 0x20 MSTORE PUSH2 0x24CE PUSH1 0xFF PUSH1 0x5 PUSH1 0x40 PUSH1 0x0 KECCAK256 ADD SLOAD AND ISZERO PUSH2 0x3455 JUMP JUMPDEST PUSH1 0x40 MLOAD PUSH4 0x95A8C58D PUSH1 0xE0 SHL DUP2 MSTORE PUSH1 0x20 DUP2 DUP1 PUSH2 0x24EC CALLER PUSH1 0x4 DUP4 ADD PUSH2 0x2D7F JUMP JUMPDEST SUB DUP2 PUSH32 0x0 PUSH1 0x1 PUSH1 0x1 PUSH1 0xA0 SHL SUB AND GAS STATICCALL SWAP1 DUP2 ISZERO PUSH2 0x4A0 JUMPI PUSH1 0x0 SWAP2 PUSH2 0x274F JUMPI JUMPDEST POP DUP1 ISZERO PUSH2 0x2733 JUMPI JUMPDEST PUSH2 0x253A SWAP1 PUSH2 0x34B1 JUMP JUMPDEST PUSH1 0x4 CALLDATALOAD PUSH1 0x0 MSTORE PUSH1 0x2 PUSH1 0x20 MSTORE PUSH1 0x40 PUSH1 0x0 KECCAK256 SWAP2 DUP3 SLOAD DUP1 ISZERO ISZERO PUSH1 0x0 EQ PUSH2 0x2714 JUMPI PUSH1 0x0 NOT DUP2 ADD SWAP1 DUP2 GT PUSH2 0x3FE JUMPI PUSH1 0x0 DUP1 MLOAD PUSH1 0x20 PUSH2 0x36D3 DUP4 CODECOPY DUP2 MLOAD SWAP2 MSTORE SWAP3 PUSH2 0x2661 PUSH1 0x7 PUSH2 0x2585 PUSH2 0x26CE SWAP5 DUP9 PUSH2 0x33AB JUMP JUMPDEST POP ADD SLOAD SWAP2 JUMPDEST PUSH1 0x40 MLOAD PUSH1 0x20 DUP2 ADD SWAP1 PUSH1 0x4 CALLDATALOAD DUP3 MSTORE PUSH1 0x24 CALLDATALOAD PUSH1 0xF8 SHL PUSH1 0x40 DUP3 ADD MSTORE PUSH2 0x25E1 PUSH1 0x95 DUP3 DUP10 MLOAD PUSH2 0x25BC DUP2 DUP13 PUSH1 0x20 PUSH1 0x41 DUP7 ADD SWAP2 ADD PUSH2 0x2BD7 JUMP JUMPDEST DUP2 ADD TIMESTAMP PUSH1 0x41 DUP3 ADD MSTORE DUP9 PUSH1 0x61 DUP3 ADD MSTORE CALLER PUSH1 0x60 SHL PUSH1 0x81 DUP3 ADD MSTORE SUB PUSH1 0x75 DUP2 ADD DUP5 MSTORE ADD DUP3 PUSH2 0x2B0E JUMP JUMPDEST MLOAD SWAP1 KECCAK256 SWAP7 CALLER PUSH1 0x0 MSTORE PUSH1 0x6 PUSH1 0x20 MSTORE PUSH1 0xFF PUSH1 0x3 PUSH1 0x40 PUSH1 0x0 KECCAK256 ADD SLOAD AND PUSH1 0x0 EQ PUSH2 0x2706 JUMPI CALLER PUSH1 0x0 MSTORE PUSH1 0x6 PUSH1 0x20 MSTORE PUSH2 0x2617 PUSH1 0x40 PUSH1 0x0 KECCAK256 PUSH2 0x2B31 JUMP JUMPDEST SWAP4 JUMPDEST PUSH1 0x40 MLOAD SWAP3 PUSH2 0x2626 DUP5 PUSH2 0x2ABC JUMP JUMPDEST PUSH1 0x4 CALLDATALOAD DUP5 MSTORE PUSH2 0x263A PUSH1 0x24 CALLDATALOAD PUSH1 0x20 DUP7 ADD PUSH2 0x339F JUMP JUMPDEST DUP8 PUSH1 0x40 DUP6 ADD MSTORE DUP6 PUSH1 0x60 DUP6 ADD MSTORE PUSH1 0x80 DUP5 ADD MSTORE TIMESTAMP PUSH1 0xA0 DUP5 ADD MSTORE PUSH1 0xC0 DUP4 ADD MSTORE DUP8 PUSH1 0xE0 DUP4 ADD MSTORE PUSH2 0x33C7 JUMP JUMPDEST PUSH1 0x4 CALLDATALOAD PUSH1 0x0 MSTORE PUSH1 0x3 PUSH1 0x20 MSTORE PUSH2 0x267C PUSH1 0x24 CALLDATALOAD PUSH1 0x40 PUSH1 0x0 KECCAK256 PUSH2 0x3040 JUMP JUMPDEST DUP5 PUSH1 0x0 MSTORE PUSH1 0x4 PUSH1 0x20 MSTORE PUSH1 0x4 CALLDATALOAD PUSH1 0x40 PUSH1 0x0 KECCAK256 SSTORE PUSH2 0x2699 PUSH1 0xB SLOAD PUSH2 0x2ED4 JUMP JUMPDEST PUSH1 0xB SSTORE PUSH2 0x26C0 PUSH1 0x40 MLOAD SWAP4 PUSH2 0x26AF DUP6 PUSH1 0x24 CALLDATALOAD PUSH2 0x2C75 JUMP JUMPDEST PUSH1 0x80 PUSH1 0x20 DUP7 ADD MSTORE PUSH1 0x80 DUP6 ADD SWAP1 PUSH2 0x2BFA JUMP JUMPDEST SWAP1 DUP4 DUP3 SUB PUSH1 0x40 DUP6 ADD MSTORE PUSH2 0x2BFA JUMP JUMPDEST SWAP3 PUSH1 0x60 DUP3 ADD MSTORE DUP1 PUSH1 0x4 CALLDATALOAD SWAP4 SUB SWAP1 LOG2 PUSH1 0x7 PUSH1 0x24 CALLDATALOAD EQ DUP1 ISZERO PUSH2 0x26FA JUMPI JUMPDEST PUSH2 0x26EF JUMPI STOP JUMPDEST PUSH2 0x100C PUSH1 0x4 CALLDATALOAD PUSH2 0x3617 JUMP JUMPDEST POP PUSH1 0x8 PUSH1 0x24 CALLDATALOAD EQ PUSH2 0x26E9 JUMP JUMPDEST PUSH2 0x270E PUSH2 0x337D JUMP JUMPDEST SWAP4 PUSH2 0x2619 JUMP JUMPDEST POP PUSH2 0x26CE PUSH1 0x0 DUP1 MLOAD PUSH1 0x20 PUSH2 0x36D3 DUP4 CODECOPY DUP2 MLOAD SWAP2 MSTORE SWAP3 PUSH2 0x2661 PUSH1 0x0 SWAP2 PUSH2 0x258A JUMP JUMPDEST POP CALLER PUSH1 0x0 SWAP1 DUP2 MSTORE PUSH1 0x6 PUSH1 0x20 MSTORE PUSH1 0x40 SWAP1 KECCAK256 PUSH1 0x3 ADD SLOAD PUSH1 0xFF AND PUSH2 0x2531 JUMP JUMPDEST PUSH2 0x2768 SWAP2 POP PUSH1 0x20 RETURNDATASIZE PUSH1 0x20 GT PUSH2 0x499 JUMPI PUSH2 0x48B DUP2 DUP4 PUSH2 0x2B0E JUMP JUMPDEST DUP4 PUSH2 0x2529 JUMP JUMPDEST CALLVALUE PUSH2 0x4AC JUMPI PUSH1 0x20 DUP1 PUSH1 0x3 NOT CALLDATASIZE ADD SLT PUSH2 0x4AC JUMPI PUSH2 0x2788 PUSH2 0x2A6C JUMP JUMPDEST PUSH1 0x40 MLOAD PUSH4 0x95A8C58D PUSH1 0xE0 SHL DUP2 MSTORE SWAP1 DUP2 PUSH2 0x27A4 CALLER PUSH1 0x4 DUP4 ADD PUSH2 0x2D65 JUMP JUMPDEST PUSH1 0x1 PUSH1 0x1 PUSH1 0xA0 SHL SUB SWAP4 SWAP2 DUP6 SWAP2 DUP4 SWAP2 SWAP1 SUB DUP2 PUSH32 0x0 DUP8 AND GAS STATICCALL DUP1 ISZERO PUSH2 0x4A0 JUMPI PUSH2 0x27F1 SWAP2 PUSH1 0x0 SWAP2 PUSH2 0x187C JUMPI POP PUSH2 0x2D99 JUMP JUMPDEST AND SWAP1 DUP2 PUSH1 0x0 MSTORE PUSH1 0x6 DUP2 MSTORE PUSH1 0xFF PUSH1 0x3 PUSH1 0x40 PUSH1 0x0 KECCAK256 ADD SLOAD AND ISZERO PUSH2 0x285B JUMPI PUSH1 0x6 SWAP1 DUP3 PUSH1 0x0 MSTORE MSTORE PUSH1 0x3 PUSH1 0x40 PUSH1 0x0 KECCAK256 ADD PUSH1 0xFF NOT DUP2 SLOAD AND SWAP1 SSTORE PUSH2 0x282F PUSH1 0xC SLOAD PUSH2 0x2EE3 JUMP JUMPDEST PUSH1 0xC SSTORE CALLER SWAP1 PUSH32 0xD372AADDCCE66C5CA0222952F4C0E6115F475AACE5AC1A642E18A2855FF5FAB7 PUSH1 0x0 DUP1 LOG3 STOP JUMPDEST PUSH1 0x64 SWAP1 PUSH1 0x40 MLOAD SWAP1 PUSH3 0x461BCD PUSH1 0xE5 SHL DUP3 MSTORE PUSH1 0x4 DUP3 ADD MSTORE PUSH1 0x1F PUSH1 0x24 DUP3 ADD MSTORE PUSH32 0x537570706C79436861696E3A2068616E646C6572206E6F742061637469766500 PUSH1 0x44 DUP3 ADD MSTORE REVERT JUMPDEST CALLVALUE PUSH2 0x4AC JUMPI PUSH1 0x20 CALLDATASIZE PUSH1 0x3 NOT ADD SLT PUSH2 0x4AC JUMPI PUSH1 0x40 PUSH2 0x28D5 PUSH1 0x4 CALLDATALOAD DUP1 PUSH1 0x0 MSTORE PUSH1 0x1 PUSH1 0x20 MSTORE PUSH2 0x28D0 DUP4 PUSH1 0x0 KECCAK256 SLOAD ISZERO ISZERO PUSH2 0x340A JUMP JUMPDEST PUSH2 0x34FB JUMP JUMPDEST DUP3 MLOAD SWAP2 ISZERO ISZERO DUP3 MSTORE PUSH1 0x20 DUP3 ADD MSTORE RETURN JUMPDEST CALLVALUE PUSH2 0x4AC JUMPI PUSH1 0x20 CALLDATASIZE PUSH1 0x3 NOT ADD SLT PUSH2 0x4AC JUMPI PUSH1 0x1 PUSH1 0x1 PUSH1 0xA0 SHL SUB PUSH2 0x2904 PUSH2 0x2A6C JUMP JUMPDEST AND PUSH1 0x0 MSTORE PUSH1 0x6 PUSH1 0x20 MSTORE PUSH2 0x295F PUSH1 0x40 PUSH1 0x0 KECCAK256 PUSH2 0x291E DUP2 PUSH2 0x2B31 JUMP JUMPDEST SWAP1 PUSH2 0x292B PUSH1 0x1 DUP3 ADD PUSH2 0x2B31 JUMP JUMPDEST PUSH2 0x297B PUSH2 0x293A PUSH1 0x2 DUP5 ADD PUSH2 0x2B31 JUMP JUMPDEST PUSH2 0x296D PUSH1 0x4 PUSH1 0xFF PUSH1 0x3 DUP8 ADD SLOAD AND SWAP6 ADD SLOAD SWAP4 PUSH1 0x40 MLOAD SWAP8 DUP9 SWAP8 PUSH1 0xA0 DUP10 MSTORE PUSH1 0xA0 DUP10 ADD SWAP1 PUSH2 0x2BFA JUMP JUMPDEST SWAP1 DUP8 DUP3 SUB PUSH1 0x20 DUP10 ADD MSTORE PUSH2 0x2BFA JUMP JUMPDEST SWAP1 DUP6 DUP3 SUB PUSH1 0x40 DUP8 ADD MSTORE PUSH2 0x2BFA JUMP JUMPDEST SWAP2 ISZERO ISZERO PUSH1 0x60 DUP5 ADD MSTORE PUSH1 0x80 DUP4 ADD MSTORE SUB SWAP1 RETURN JUMPDEST CALLVALUE PUSH2 0x4AC JUMPI PUSH1 0x20 CALLDATASIZE PUSH1 0x3 NOT ADD SLT PUSH2 0x4AC JUMPI PUSH1 0x4 CALLDATALOAD PUSH1 0x0 MSTORE PUSH1 0x1 PUSH1 0x20 MSTORE PUSH1 0x20 PUSH1 0x40 PUSH1 0x0 KECCAK256 SLOAD ISZERO ISZERO PUSH1 0x40 MLOAD SWAP1 DUP2 MSTORE RETURN JUMPDEST CALLVALUE PUSH2 0x4AC JUMPI PUSH1 0x60 CALLDATASIZE PUSH1 0x3 NOT ADD SLT PUSH2 0x4AC JUMPI PUSH1 0x4 CALLDATALOAD PUSH1 0x24 CALLDATALOAD DUP2 PUSH1 0x0 MSTORE PUSH1 0x20 SWAP2 PUSH1 0x1 DUP4 MSTORE PUSH2 0x29EC PUSH1 0x40 PUSH1 0x0 KECCAK256 SLOAD ISZERO ISZERO PUSH2 0x340A JUMP JUMPDEST DUP1 PUSH1 0x0 MSTORE PUSH1 0x2 DUP4 MSTORE PUSH1 0x40 PUSH1 0x0 KECCAK256 SLOAD DUP3 LT ISZERO PUSH2 0x2A29 JUMPI SWAP1 PUSH2 0x2A17 SWAP2 PUSH1 0x0 MSTORE PUSH1 0x2 DUP4 MSTORE PUSH1 0x40 PUSH1 0x0 KECCAK256 PUSH2 0x33AB JUMP JUMPDEST POP PUSH1 0x7 PUSH1 0x44 CALLDATALOAD SWAP2 ADD SLOAD EQ PUSH1 0x40 MLOAD SWAP1 DUP2 MSTORE RETURN JUMPDEST PUSH1 0x64 DUP4 PUSH1 0x40 MLOAD SWAP1 PUSH3 0x461BCD PUSH1 0xE5 SHL DUP3 MSTORE DUP1 PUSH1 0x4 DUP4 ADD MSTORE PUSH1 0x24 DUP3 ADD MSTORE PUSH32 0x537570706C79436861696E3A20696E76616C6964206576656E7420696E646578 PUSH1 0x44 DUP3 ADD MSTORE REVERT JUMPDEST PUSH1 0x4 CALLDATALOAD SWAP1 PUSH1 0x1 PUSH1 0x1 PUSH1 0xA0 SHL SUB DUP3 AND DUP3 SUB PUSH2 0x4AC JUMPI JUMP JUMPDEST SWAP1 PUSH1 0x1 DUP3 DUP2 SHR SWAP3 AND DUP1 ISZERO PUSH2 0x2AB2 JUMPI JUMPDEST PUSH1 0x20 DUP4 LT EQ PUSH2 0x2A9C JUMPI JUMP JUMPDEST PUSH4 0x4E487B71 PUSH1 0xE0 SHL PUSH1 0x0 MSTORE PUSH1 0x22 PUSH1 0x4 MSTORE PUSH1 0x24 PUSH1 0x0 REVERT JUMPDEST SWAP2 PUSH1 0x7F AND SWAP2 PUSH2 0x2A91 JUMP JUMPDEST PUSH2 0x100 DUP2 ADD SWAP1 DUP2 LT PUSH1 0x1 PUSH1 0x1 PUSH1 0x40 SHL SUB DUP3 GT OR PUSH2 0xBDF JUMPI PUSH1 0x40 MSTORE JUMP JUMPDEST PUSH1 0xA0 DUP2 ADD SWAP1 DUP2 LT PUSH1 0x1 PUSH1 0x1 PUSH1 0x40 SHL SUB DUP3 GT OR PUSH2 0xBDF JUMPI PUSH1 0x40 MSTORE JUMP JUMPDEST PUSH1 0x40 DUP2 ADD SWAP1 DUP2 LT PUSH1 0x1 PUSH1 0x1 PUSH1 0x40 SHL SUB DUP3 GT OR PUSH2 0xBDF JUMPI PUSH1 0x40 MSTORE JUMP JUMPDEST PUSH1 0x1F SWAP1 SWAP2 ADD PUSH1 0x1F NOT AND DUP2 ADD SWAP1 PUSH1 0x1 PUSH1 0x1 PUSH1 0x40 SHL SUB DUP3 GT SWAP1 DUP3 LT OR PUSH2 0xBDF JUMPI PUSH1 0x40 MSTORE JUMP JUMPDEST SWAP1 PUSH1 0x40 MLOAD SWAP2 DUP3 PUSH1 0x0 DUP3 SLOAD SWAP3 PUSH2 0x2B45 DUP5 PUSH2 0x2A82 JUMP JUMPDEST SWAP1 DUP2 DUP5 MSTORE PUSH1 0x1 SWAP5 DUP6 DUP2 AND SWAP1 DUP2 PUSH1 0x0 EQ PUSH2 0x2BB4 JUMPI POP PUSH1 0x1 EQ PUSH2 0x2B71 JUMPI JUMPDEST POP POP PUSH2 0x2B6F SWAP3 POP SUB DUP4 PUSH2 0x2B0E JUMP JUMPDEST JUMP JUMPDEST SWAP1 SWAP4 SWAP2 POP PUSH1 0x0 MSTORE PUSH1 0x20 SWAP1 DUP2 PUSH1 0x0 KECCAK256 SWAP4 PUSH1 0x0 SWAP2 JUMPDEST DUP2 DUP4 LT PUSH2 0x2B9C JUMPI POP POP PUSH2 0x2B6F SWAP4 POP DUP3 ADD ADD CODESIZE DUP1 PUSH2 0x2B61 JUMP JUMPDEST DUP6 SLOAD DUP9 DUP5 ADD DUP6 ADD MSTORE SWAP5 DUP6 ADD SWAP5 DUP8 SWAP5 POP SWAP2 DUP4 ADD SWAP2 PUSH2 0x2B84 JUMP JUMPDEST SWAP2 POP POP PUSH2 0x2B6F SWAP5 POP PUSH1 0x20 SWAP3 POP PUSH1 0xFF NOT AND DUP3 DUP5 ADD MSTORE ISZERO ISZERO PUSH1 0x5 SHL DUP3 ADD ADD CODESIZE DUP1 PUSH2 0x2B61 JUMP JUMPDEST PUSH1 0x0 JUMPDEST DUP4 DUP2 LT PUSH2 0x2BEA JUMPI POP POP PUSH1 0x0 SWAP2 ADD MSTORE JUMP JUMPDEST DUP2 DUP2 ADD MLOAD DUP4 DUP3 ADD MSTORE PUSH1 0x20 ADD PUSH2 0x2BDA JUMP JUMPDEST SWAP1 PUSH1 0x20 SWAP2 PUSH2 0x2C13 DUP2 MLOAD DUP1 SWAP3 DUP2 DUP6 MSTORE DUP6 DUP1 DUP7 ADD SWAP2 ADD PUSH2 0x2BD7 JUMP JUMPDEST PUSH1 0x1F ADD PUSH1 0x1F NOT AND ADD ADD SWAP1 JUMP JUMPDEST DUP2 PUSH1 0x1F DUP3 ADD SLT ISZERO PUSH2 0x4AC JUMPI DUP1 CALLDATALOAD SWAP1 PUSH1 0x1 PUSH1 0x1 PUSH1 0x40 SHL SUB DUP3 GT PUSH2 0xBDF JUMPI PUSH1 0x40 MLOAD SWAP3 PUSH2 0x2C53 PUSH1 0x1F DUP5 ADD PUSH1 0x1F NOT AND PUSH1 0x20 ADD DUP6 PUSH2 0x2B0E JUMP JUMPDEST DUP3 DUP5 MSTORE PUSH1 0x20 DUP4 DUP4 ADD ADD GT PUSH2 0x4AC JUMPI DUP2 PUSH1 0x0 SWAP3 PUSH1 0x20 DUP1 SWAP4 ADD DUP4 DUP7 ADD CALLDATACOPY DUP4 ADD ADD MSTORE SWAP1 JUMP JUMPDEST SWAP1 PUSH1 0x9 DUP3 LT ISZERO PUSH2 0x2C82 JUMPI MSTORE JUMP JUMPDEST PUSH4 0x4E487B71 PUSH1 0xE0 SHL PUSH1 0x0 MSTORE PUSH1 0x21 PUSH1 0x4 MSTORE PUSH1 0x24 PUSH1 0x0 REVERT JUMPDEST SWAP1 DUP2 MLOAD DUP2 MSTORE PUSH2 0x2CAF PUSH1 0x20 DUP4 ADD MLOAD PUSH1 0x20 DUP4 ADD SWAP1 PUSH2 0x2C75 JUMP JUMPDEST PUSH1 0xE0 DUP1 PUSH2 0x2CF5 PUSH2 0x2CE3 PUSH2 0x2CD1 PUSH1 0x40 DUP8 ADD MLOAD PUSH2 0x100 DUP1 PUSH1 0x40 DUP10 ADD MSTORE DUP8 ADD SWAP1 PUSH2 0x2BFA JUMP JUMPDEST PUSH1 0x60 DUP8 ADD MLOAD DUP7 DUP3 SUB PUSH1 0x60 DUP9 ADD MSTORE PUSH2 0x2BFA JUMP JUMPDEST PUSH1 0x80 DUP7 ADD MLOAD DUP6 DUP3 SUB PUSH1 0x80 DUP8 ADD MSTORE PUSH2 0x2BFA JUMP JUMPDEST SWAP4 PUSH1 0xA0 DUP2 ADD MLOAD PUSH1 0xA0 DUP6 ADD MSTORE PUSH1 0xC0 DUP2 ADD MLOAD PUSH1 0xC0 DUP6 ADD MSTORE ADD MLOAD SWAP2 ADD MSTORE SWAP1 JUMP JUMPDEST PUSH1 0x20 SWAP1 DUP2 PUSH1 0x40 DUP2 DUP4 ADD SWAP3 DUP3 DUP2 MSTORE DUP6 MLOAD DUP1 SWAP5 MSTORE ADD SWAP4 ADD SWAP2 PUSH1 0x0 JUMPDEST DUP3 DUP2 LT PUSH2 0x2D39 JUMPI POP POP POP POP SWAP1 JUMP JUMPDEST DUP4 MLOAD DUP6 MSTORE SWAP4 DUP2 ADD SWAP4 SWAP3 DUP2 ADD SWAP3 PUSH1 0x1 ADD PUSH2 0x2D2B JUMP JUMPDEST SWAP1 DUP2 PUSH1 0x20 SWAP2 SUB SLT PUSH2 0x4AC JUMPI MLOAD DUP1 ISZERO ISZERO DUP2 SUB PUSH2 0x4AC JUMPI SWAP1 JUMP JUMPDEST PUSH1 0x1 PUSH1 0x1 PUSH1 0xA0 SHL SUB SWAP1 SWAP2 AND DUP2 MSTORE PUSH1 0x3 PUSH1 0x20 DUP3 ADD MSTORE PUSH1 0x40 ADD SWAP1 JUMP JUMPDEST PUSH1 0x1 PUSH1 0x1 PUSH1 0xA0 SHL SUB SWAP1 SWAP2 AND DUP2 MSTORE PUSH1 0x2 PUSH1 0x20 DUP3 ADD MSTORE PUSH1 0x40 ADD SWAP1 JUMP JUMPDEST ISZERO PUSH2 0x2DA0 JUMPI JUMP JUMPDEST PUSH1 0x64 PUSH1 0x40 MLOAD PUSH3 0x461BCD PUSH1 0xE5 SHL DUP2 MSTORE PUSH1 0x20 PUSH1 0x4 DUP3 ADD MSTORE PUSH1 0x20 PUSH1 0x24 DUP3 ADD MSTORE PUSH32 0x537570706C79436861696E3A2063616C6C6572206973206E6F742061646D696E PUSH1 0x44 DUP3 ADD MSTORE REVERT JUMPDEST ISZERO PUSH2 0x2DEB JUMPI JUMP JUMPDEST PUSH1 0x40 MLOAD PUSH3 0x461BCD PUSH1 0xE5 SHL DUP2 MSTORE PUSH1 0x20 PUSH1 0x4 DUP3 ADD MSTORE PUSH1 0x1A PUSH1 0x24 DUP3 ADD MSTORE PUSH26 0x14DD5C1C1B1E50DA185A5B8E881B985B59481C995C5D5A5C9959 PUSH1 0x32 SHL PUSH1 0x44 DUP3 ADD MSTORE PUSH1 0x64 SWAP1 REVERT JUMPDEST DUP2 DUP2 LT PUSH2 0x2E38 JUMPI POP POP JUMP JUMPDEST PUSH1 0x0 DUP2 SSTORE PUSH1 0x1 ADD PUSH2 0x2E2D JUMP JUMPDEST SWAP1 PUSH1 0xFF DUP1 NOT DUP4 SLOAD AND SWAP2 ISZERO ISZERO AND OR SWAP1 SSTORE JUMP JUMPDEST PUSH1 0x5 SLOAD DUP2 LT ISZERO PUSH2 0x6BC JUMPI PUSH1 0x5 PUSH1 0x0 MSTORE PUSH1 0x20 PUSH1 0x0 KECCAK256 ADD SWAP1 PUSH1 0x0 SWAP1 JUMP JUMPDEST PUSH1 0x7 SLOAD PUSH1 0x1 PUSH1 0x40 SHL DUP2 LT ISZERO PUSH2 0xBDF JUMPI PUSH1 0x1 DUP2 ADD DUP1 PUSH1 0x7 SSTORE DUP2 LT ISZERO PUSH2 0x6BC JUMPI PUSH1 0x7 PUSH1 0x0 MSTORE PUSH32 0xA66CC928B5EDB82AF9BD49922954155AB7B0942694BEA4CE44661D9A8736C688 ADD DUP1 SLOAD PUSH1 0x1 PUSH1 0x1 PUSH1 0xA0 SHL SUB NOT AND PUSH1 0x1 PUSH1 0x1 PUSH1 0xA0 SHL SUB SWAP1 SWAP3 AND SWAP2 SWAP1 SWAP2 OR SWAP1 SSTORE JUMP JUMPDEST PUSH1 0x0 NOT DUP2 EQ PUSH2 0x3FE JUMPI PUSH1 0x1 ADD SWAP1 JUMP JUMPDEST DUP1 ISZERO PUSH2 0x3FE JUMPI PUSH1 0x0 NOT ADD SWAP1 JUMP JUMPDEST SWAP1 PUSH1 0x0 SWAP3 SWAP2 DUP1 SLOAD SWAP2 PUSH2 0x2F01 DUP4 PUSH2 0x2A82 JUMP JUMPDEST SWAP2 DUP3 DUP3 MSTORE PUSH1 0x1 SWAP4 DUP5 DUP2 AND SWAP1 DUP2 PUSH1 0x0 EQ PUSH2 0x2F63 JUMPI POP PUSH1 0x1 EQ PUSH2 0x2F23 JUMPI JUMPDEST POP POP POP POP JUMP JUMPDEST SWAP1 SWAP2 SWAP4 SWAP5 POP PUSH1 0x0 MSTORE PUSH1 0x20 SWAP3 DUP4 PUSH1 0x0 KECCAK256 SWAP3 DUP5 PUSH1 0x0 SWAP5 JUMPDEST DUP4 DUP7 LT PUSH2 0x2F4F JUMPI POP POP POP POP ADD ADD SWAP1 CODESIZE DUP1 DUP1 DUP1 PUSH2 0x2F1D JUMP JUMPDEST DUP1 SLOAD DUP6 DUP8 ADD DUP4 ADD MSTORE SWAP5 ADD SWAP4 DUP6 SWAP1 DUP3 ADD PUSH2 0x2F38 JUMP JUMPDEST SWAP3 SWAP5 POP POP POP PUSH1 0x20 SWAP4 SWAP5 POP PUSH1 0xFF NOT AND DUP4 DUP4 ADD MSTORE ISZERO ISZERO PUSH1 0x5 SHL ADD ADD SWAP1 CODESIZE DUP1 DUP1 DUP1 PUSH2 0x2F1D JUMP JUMPDEST ISZERO PUSH2 0x2F8D JUMPI JUMP JUMPDEST PUSH1 0x40 MLOAD PUSH3 0x461BCD PUSH1 0xE5 SHL DUP2 MSTORE PUSH1 0x20 PUSH1 0x4 DUP3 ADD MSTORE PUSH1 0x25 PUSH1 0x24 DUP3 ADD MSTORE PUSH32 0x537570706C79436861696E3A20696E73756666696369656E74207065726D6973 PUSH1 0x44 DUP3 ADD MSTORE PUSH5 0x73696F6E73 PUSH1 0xD8 SHL PUSH1 0x64 DUP3 ADD MSTORE PUSH1 0x84 SWAP1 REVERT JUMPDEST PUSH1 0x1 PUSH1 0x1 PUSH1 0x40 SHL SUB DUP2 GT PUSH2 0xBDF JUMPI PUSH1 0x5 SHL PUSH1 0x20 ADD SWAP1 JUMP JUMPDEST PUSH2 0x3001 DUP2 SLOAD PUSH2 0x2A82 JUMP JUMPDEST SWAP1 DUP2 PUSH2 0x300B JUMPI POP POP JUMP JUMPDEST DUP2 PUSH1 0x1F PUSH1 0x0 SWAP4 GT PUSH1 0x1 EQ PUSH2 0x301D JUMPI POP SSTORE JUMP JUMPDEST SWAP1 DUP1 DUP4 SWAP2 DUP3 MSTORE PUSH2 0x303C PUSH1 0x1F PUSH1 0x20 DUP5 KECCAK256 SWAP5 ADD PUSH1 0x5 SHR DUP5 ADD PUSH1 0x1 DUP6 ADD PUSH2 0x2E2D JUMP JUMPDEST SSTORE SSTORE JUMP JUMPDEST SWAP1 PUSH1 0x9 DUP2 LT ISZERO PUSH2 0x2C82 JUMPI PUSH1 0xFF DUP1 NOT DUP4 SLOAD AND SWAP2 AND OR SWAP1 SSTORE JUMP JUMPDEST SWAP1 DUP1 MLOAD DUP3 SSTORE PUSH1 0x20 SWAP1 DUP2 DUP2 ADD MLOAD PUSH1 0x9 DUP2 LT ISZERO PUSH2 0x2C82 JUMPI PUSH2 0x307B PUSH1 0x1 SWAP2 DUP3 DUP7 ADD PUSH2 0x3040 JUMP JUMPDEST PUSH1 0x40 DUP3 ADD MLOAD DUP1 MLOAD SWAP1 SWAP2 PUSH1 0x1 PUSH1 0x1 PUSH1 0x40 SHL SUB SWAP2 PUSH1 0x2 DUP8 ADD SWAP1 DUP4 DUP2 GT PUSH2 0xBDF JUMPI DUP1 PUSH2 0x30A4 DUP4 SLOAD PUSH2 0x2A82 JUMP JUMPDEST SWAP6 PUSH1 0x1F SWAP7 DUP8 DUP2 GT PUSH2 0x334F JUMPI JUMPDEST POP DUP9 SWAP1 DUP8 DUP4 GT PUSH1 0x1 EQ PUSH2 0x32EC JUMPI PUSH1 0x0 SWAP3 PUSH2 0x32E1 JUMPI JUMPDEST POP POP PUSH1 0x0 NOT PUSH1 0x3 DUP4 SWAP1 SHL SHR NOT AND SWAP1 DUP4 SHL OR SWAP1 SSTORE JUMPDEST PUSH1 0x3 DUP7 ADD PUSH1 0x60 DUP6 ADD MLOAD DUP1 MLOAD SWAP1 DUP5 DUP3 GT PUSH2 0xBDF JUMPI DUP2 SWAP1 PUSH2 0x30F8 DUP5 SLOAD PUSH2 0x2A82 JUMP JUMPDEST DUP8 DUP2 GT PUSH2 0x32B3 JUMPI JUMPDEST POP DUP9 SWAP1 DUP8 DUP4 GT PUSH1 0x1 EQ PUSH2 0x3250 JUMPI PUSH1 0x0 SWAP3 PUSH2 0x3245 JUMPI JUMPDEST POP POP PUSH1 0x0 NOT PUSH1 0x3 DUP4 SWAP1 SHL SHR NOT AND SWAP1 DUP4 SHL OR SWAP1 SSTORE JUMPDEST PUSH1 0x4 DUP7 ADD SWAP3 PUSH1 0x80 DUP6 ADD MLOAD SWAP6 DUP7 MLOAD SWAP4 DUP5 GT PUSH2 0xBDF JUMPI PUSH2 0x3147 DUP6 SLOAD PUSH2 0x2A82 JUMP JUMPDEST DUP3 DUP2 GT PUSH2 0x3217 JUMPI JUMPDEST POP DUP1 SWAP2 DUP5 GT PUSH1 0x1 EQ PUSH2 0x31A8 JUMPI POP SWAP2 DUP1 DUP1 SWAP3 PUSH1 0xE0 SWAP7 SWAP6 SWAP5 PUSH1 0x7 SWAP9 PUSH1 0x0 SWAP5 PUSH2 0x319D JUMPI JUMPDEST POP POP SHL SWAP2 PUSH1 0x0 NOT SWAP1 PUSH1 0x3 SHL SHR NOT AND OR SWAP1 SSTORE JUMPDEST PUSH1 0xA0 DUP2 ADD MLOAD PUSH1 0x5 DUP6 ADD SSTORE PUSH1 0xC0 DUP2 ADD MLOAD PUSH1 0x6 DUP6 ADD SSTORE ADD MLOAD SWAP2 ADD SSTORE JUMP JUMPDEST ADD MLOAD SWAP3 POP CODESIZE DUP1 PUSH2 0x3170 JUMP JUMPDEST SWAP2 SWAP4 SWAP5 SWAP6 PUSH1 0x1F NOT DUP5 AND DUP7 PUSH1 0x0 MSTORE DUP4 PUSH1 0x0 KECCAK256 SWAP4 PUSH1 0x0 SWAP1 JUMPDEST DUP3 DUP3 LT PUSH2 0x3200 JUMPI POP POP SWAP2 PUSH1 0x7 SWAP8 SWAP6 SWAP4 SWAP2 DUP6 PUSH1 0xE0 SWAP9 SWAP7 SWAP5 LT PUSH2 0x31E7 JUMPI JUMPDEST POP POP POP DUP2 SHL ADD SWAP1 SSTORE PUSH2 0x3182 JUMP JUMPDEST ADD MLOAD PUSH1 0x0 NOT PUSH1 0xF8 DUP5 PUSH1 0x3 SHL AND SHR NOT AND SWAP1 SSTORE CODESIZE DUP1 DUP1 PUSH2 0x31DA JUMP JUMPDEST DUP1 DUP9 DUP7 SWAP8 DUP3 SWAP5 SWAP8 DUP8 ADD MLOAD DUP2 SSTORE ADD SWAP7 ADD SWAP5 ADD SWAP1 PUSH2 0x31BE JUMP JUMPDEST PUSH2 0x323F SWAP1 DUP7 PUSH1 0x0 MSTORE DUP3 PUSH1 0x0 KECCAK256 DUP5 DUP1 DUP9 ADD PUSH1 0x5 SHR DUP3 ADD SWAP3 DUP6 DUP10 LT PUSH2 0x22B8 JUMPI ADD PUSH1 0x5 SHR ADD SWAP1 PUSH2 0x2E2D JUMP JUMPDEST CODESIZE PUSH2 0x314F JUMP JUMPDEST ADD MLOAD SWAP1 POP CODESIZE DUP1 PUSH2 0x3115 JUMP JUMPDEST SWAP1 DUP6 SWAP4 POP PUSH1 0x1F NOT DUP4 AND SWAP2 DUP6 PUSH1 0x0 MSTORE DUP11 PUSH1 0x0 KECCAK256 SWAP3 PUSH1 0x0 JUMPDEST DUP13 DUP3 DUP3 LT PUSH2 0x329D JUMPI POP POP DUP5 GT PUSH2 0x3284 JUMPI JUMPDEST POP POP POP DUP2 SHL ADD SWAP1 SSTORE PUSH2 0x3129 JUMP JUMPDEST ADD MLOAD PUSH1 0x0 NOT PUSH1 0xF8 DUP5 PUSH1 0x3 SHL AND SHR NOT AND SWAP1 SSTORE CODESIZE DUP1 DUP1 PUSH2 0x3277 JUMP JUMPDEST DUP4 DUP6 ADD MLOAD DUP7 SSTORE DUP10 SWAP8 SWAP1 SWAP6 ADD SWAP5 SWAP4 DUP5 ADD SWAP4 ADD PUSH2 0x3266 JUMP JUMPDEST PUSH2 0x32DB SWAP1 DUP6 PUSH1 0x0 MSTORE DUP11 PUSH1 0x0 KECCAK256 DUP10 DUP1 DUP7 ADD PUSH1 0x5 SHR DUP3 ADD SWAP3 DUP14 DUP8 LT PUSH2 0x22B8 JUMPI ADD PUSH1 0x5 SHR ADD SWAP1 PUSH2 0x2E2D JUMP JUMPDEST CODESIZE PUSH2 0x3100 JUMP JUMPDEST ADD MLOAD SWAP1 POP CODESIZE DUP1 PUSH2 0x30C5 JUMP JUMPDEST SWAP1 DUP6 SWAP4 POP PUSH1 0x1F NOT DUP4 AND SWAP2 DUP6 PUSH1 0x0 MSTORE DUP11 PUSH1 0x0 KECCAK256 SWAP3 PUSH1 0x0 JUMPDEST DUP13 DUP3 DUP3 LT PUSH2 0x3339 JUMPI POP POP DUP5 GT PUSH2 0x3320 JUMPI JUMPDEST POP POP POP DUP2 SHL ADD SWAP1 SSTORE PUSH2 0x30D9 JUMP JUMPDEST ADD MLOAD PUSH1 0x0 NOT PUSH1 0xF8 DUP5 PUSH1 0x3 SHL AND SHR NOT AND SWAP1 SSTORE CODESIZE DUP1 DUP1 PUSH2 0x3313 JUMP JUMPDEST DUP4 DUP6 ADD MLOAD DUP7 SSTORE DUP10 SWAP8 SWAP1 SWAP6 ADD SWAP5 SWAP4 DUP5 ADD SWAP4 ADD PUSH2 0x3302 JUMP JUMPDEST PUSH2 0x3377 SWAP1 DUP6 PUSH1 0x0 MSTORE DUP11 PUSH1 0x0 KECCAK256 DUP10 DUP1 DUP7 ADD PUSH1 0x5 SHR DUP3 ADD SWAP3 DUP14 DUP8 LT PUSH2 0x22B8 JUMPI ADD PUSH1 0x5 SHR ADD SWAP1 PUSH2 0x2E2D JUMP JUMPDEST CODESIZE PUSH2 0x30B0 JUMP JUMPDEST PUSH1 0x40 MLOAD SWAP1 PUSH2 0x338A DUP3 PUSH2 0x2AF3 JUMP JUMPDEST PUSH1 0x6 DUP3 MSTORE PUSH6 0x53797374656D PUSH1 0xD0 SHL PUSH1 0x20 DUP4 ADD MSTORE JUMP JUMPDEST PUSH1 0x9 DUP3 LT ISZERO PUSH2 0x2C82 JUMPI MSTORE JUMP JUMPDEST DUP1 SLOAD DUP3 LT ISZERO PUSH2 0x6BC JUMPI PUSH1 0x0 MSTORE PUSH1 0x20 PUSH1 0x0 KECCAK256 SWAP1 PUSH1 0x3 SHL ADD SWAP1 PUSH1 0x0 SWAP1 JUMP JUMPDEST DUP1 SLOAD PUSH1 0x1 PUSH1 0x40 SHL DUP2 LT ISZERO PUSH2 0xBDF JUMPI PUSH2 0x33E4 SWAP2 PUSH1 0x1 DUP3 ADD DUP2 SSTORE PUSH2 0x33AB JUMP JUMPDEST SWAP2 SWAP1 SWAP2 PUSH2 0x33F4 JUMPI PUSH2 0x2B6F SWAP2 PUSH2 0x3058 JUMP JUMPDEST PUSH4 0x4E487B71 PUSH1 0xE0 SHL PUSH1 0x0 MSTORE PUSH1 0x0 PUSH1 0x4 MSTORE PUSH1 0x24 PUSH1 0x0 REVERT JUMPDEST ISZERO PUSH2 0x3411 JUMPI JUMP JUMPDEST PUSH1 0x64 PUSH1 0x40 MLOAD PUSH3 0x461BCD PUSH1 0xE5 SHL DUP2 MSTORE PUSH1 0x20 PUSH1 0x4 DUP3 ADD MSTORE PUSH1 0x20 PUSH1 0x24 DUP3 ADD MSTORE PUSH32 0x537570706C79436861696E3A2070726F64756374206E6F7420747261636B6564 PUSH1 0x44 DUP3 ADD MSTORE REVERT JUMPDEST ISZERO PUSH2 0x345C JUMPI JUMP JUMPDEST PUSH1 0x40 MLOAD PUSH3 0x461BCD PUSH1 0xE5 SHL DUP2 MSTORE PUSH1 0x20 PUSH1 0x4 DUP3 ADD MSTORE PUSH1 0x27 PUSH1 0x24 DUP3 ADD MSTORE PUSH32 0x537570706C79436861696E3A20747261636B696E6720616C726561647920636F PUSH1 0x44 DUP3 ADD MSTORE PUSH7 0x1B5C1B195D1959 PUSH1 0xCA SHL PUSH1 0x64 DUP3 ADD MSTORE PUSH1 0x84 SWAP1 REVERT JUMPDEST ISZERO PUSH2 0x34B8 JUMPI JUMP JUMPDEST PUSH1 0x40 MLOAD PUSH3 0x461BCD PUSH1 0xE5 SHL DUP2 MSTORE PUSH1 0x20 PUSH1 0x4 DUP3 ADD MSTORE PUSH1 0x1B PUSH1 0x24 DUP3 ADD MSTORE PUSH27 0x14DD5C1C1B1E50DA185A5B8E881B9BDD08185D5D1A1BDC9A5E9959 PUSH1 0x2A SHL PUSH1 0x44 DUP3 ADD MSTORE PUSH1 0x64 SWAP1 REVERT JUMPDEST SWAP1 PUSH1 0x0 SWAP2 DUP3 MSTORE PUSH1 0x2 PUSH1 0x20 MSTORE PUSH1 0x40 DUP3 KECCAK256 SWAP1 DUP2 SLOAD SWAP3 DUP4 ISZERO PUSH2 0x3597 JUMPI DUP3 DUP2 MSTORE PUSH1 0x6 SWAP3 DUP4 PUSH1 0x20 DUP4 KECCAK256 ADD SLOAD PUSH2 0x3591 JUMPI PUSH1 0x1 JUMPDEST DUP6 DUP2 LT PUSH2 0x3539 JUMPI POP PUSH1 0x1 SWAP5 SWAP4 POP POP POP JUMP JUMPDEST DUP5 PUSH2 0x3544 DUP3 DUP5 PUSH2 0x33AB JUMP JUMPDEST POP ADD SLOAD PUSH1 0x0 NOT DUP3 ADD DUP3 DUP2 GT PUSH2 0x357D JUMPI PUSH2 0x355F PUSH1 0x7 SWAP2 DUP6 PUSH2 0x33AB JUMP JUMPDEST POP ADD SLOAD SUB PUSH2 0x3575 JUMPI PUSH2 0x3570 SWAP1 PUSH2 0x2ED4 JUMP JUMPDEST PUSH2 0x3528 JUMP JUMPDEST POP SWAP1 SWAP4 SWAP3 POP POP JUMP JUMPDEST PUSH4 0x4E487B71 PUSH1 0xE0 SHL DUP6 MSTORE PUSH1 0x11 PUSH1 0x4 MSTORE PUSH1 0x24 DUP6 REVERT JUMPDEST POP SWAP3 SWAP2 POP JUMP JUMPDEST SWAP3 POP DUP3 SWAP2 POP JUMP JUMPDEST SWAP1 PUSH1 0x40 MLOAD PUSH2 0x35AB DUP2 PUSH2 0x2ABC JUMP JUMPDEST PUSH1 0xE0 PUSH1 0x7 DUP3 SWAP5 DUP1 SLOAD DUP5 MSTORE PUSH2 0x35C9 PUSH1 0xFF PUSH1 0x1 DUP4 ADD SLOAD AND PUSH1 0x20 DUP7 ADD PUSH2 0x339F JUMP JUMPDEST PUSH2 0x35D5 PUSH1 0x2 DUP3 ADD PUSH2 0x2B31 JUMP JUMPDEST PUSH1 0x40 DUP6 ADD MSTORE PUSH2 0x35E6 PUSH1 0x3 DUP3 ADD PUSH2 0x2B31 JUMP JUMPDEST PUSH1 0x60 DUP6 ADD MSTORE PUSH2 0x35F7 PUSH1 0x4 DUP3 ADD PUSH2 0x2B31 JUMP JUMPDEST PUSH1 0x80 DUP6 ADD MSTORE PUSH1 0x5 DUP2 ADD SLOAD PUSH1 0xA0 DUP6 ADD MSTORE PUSH1 0x6 DUP2 ADD SLOAD PUSH1 0xC0 DUP6 ADD MSTORE ADD SLOAD SWAP2 ADD MSTORE JUMP JUMPDEST PUSH1 0x0 DUP2 DUP2 MSTORE PUSH1 0x1 PUSH1 0x20 MSTORE PUSH1 0x5 PUSH1 0x40 DUP3 KECCAK256 ADD PUSH1 0x1 PUSH1 0xFF NOT DUP3 SLOAD AND OR SWAP1 SSTORE PUSH1 0x2 PUSH1 0x20 MSTORE PUSH1 0x40 DUP2 KECCAK256 SWAP1 DUP2 SLOAD SWAP1 DUP2 ISZERO ISZERO PUSH1 0x0 EQ PUSH2 0x36B9 JUMPI PUSH1 0x0 NOT DUP3 ADD SWAP2 DUP3 GT PUSH2 0x36A5 JUMPI POP DUP2 PUSH1 0x7 PUSH2 0x3675 PUSH1 0x40 SWAP4 PUSH1 0x0 DUP1 MLOAD PUSH1 0x20 PUSH2 0x3713 DUP4 CODECOPY DUP2 MLOAD SWAP2 MSTORE SWAP6 PUSH2 0x33AB JUMP JUMPDEST POP ADD SLOAD SWAP1 JUMPDEST PUSH2 0x3685 PUSH1 0x9 SLOAD PUSH2 0x2EE3 JUMP JUMPDEST PUSH1 0x9 SSTORE PUSH2 0x3693 PUSH1 0xA SLOAD PUSH2 0x2ED4 JUMP JUMPDEST PUSH1 0xA SSTORE SLOAD SWAP1 DUP3 MLOAD SWAP2 DUP3 MSTORE PUSH1 0x20 DUP3 ADD MSTORE LOG2 JUMP JUMPDEST PUSH4 0x4E487B71 PUSH1 0xE0 SHL DUP2 MSTORE PUSH1 0x11 PUSH1 0x4 MSTORE PUSH1 0x24 SWAP1 REVERT JUMPDEST PUSH1 0x0 DUP1 MLOAD PUSH1 0x20 PUSH2 0x3713 DUP4 CODECOPY DUP2 MLOAD SWAP2 MSTORE SWAP3 PUSH1 0x40 SWAP3 POP PUSH2 0x367A JUMP INVALID SHR PUSH3 0xCAF72 PUSH19 0xEA68D185312DA9E80A0F9A18725FC4202F9AD2 SWAP6 0xAB 0x5D LOG3 0xB0 POP 0xC5 0xB3 SWAP3 0xE0 NUMBER 0xFC 0xC8 DUP13 0xD6 0xC7 SWAP9 0xB4 PUSH2 0x5E3E 0x1F 0xD9 PUSH24 0xDD2C89A079F6F3A3991B1A81F3D1DECB6754496A2D043A4E PUSH1 0xAC SLOAD SWAP1 0xB5 0x49 SWAP16 CREATE2 CODESIZE 0xDE CALL CALLCODE JUMPDEST 0xAB 0xEE 0xBE 0xBC 0xE5 PUSH14 0x9572136A2646970667358221220 PUSH23 0x4DBA808CCB53313E0101F02F5F9A8ED7F11B9B3B0676F6 0xD4 SWAP7 ADD DUP6 EQ 0x2D PUSH12 0x3C64736F6C63430008130033 "},"methodIdentifiers":{"approveHandler(address)":"9cc4a0cc","completeTracking(uint256)":"ba3df940","core()":"f2f4eb26","deactivateHandler(address)":"27f82908","getActiveShipments()":"d4c22ece","getAllHandlers()":"a60e9b9b","getAllTrackedProducts()":"b38fe15b","getCurrentStatus(uint256)":"a0aa13c6","getHandlerInfo(address)":"97fbe353","getLatestEvent(uint256)":"9419a41d","getProductByHash(bytes32)":"9f11d940","getSupplyChainStats()":"9ec57ee8","getTrackingEvents(uint256)":"a3007b33","getTrackingRecord(uint256)":"e49339e5","handlers(address)":"1a21c0bc","isTracked(uint256)":"1194f9e9","recordEvent(uint256,uint8,string,string)":"63588531","recordQualityCheck(uint256,string,bool,string)":"f4906cb1","recordTransit(uint256,string,string,string)":"b60d5507","registerHandler(address,string,string,string)":"9a8c20c6","selfRegisterHandler(string,string,string)":"7c125073","startTracking(uint256,string,string)":"ce4a301a","stats()":"d80528ae","verifyEventHash(uint256,uint256,bytes32)":"09afa64e","verifyProvenance(uint256)":"1dd26b3a"}}}}}