{"contracts/OrderManager.sol":{"OrderManager":{"abi":[{"inputs":[{"internalType":"address","name":"_coreAddress","type":"address"}],"stateMutability":"nonpayable","type":"constructor"},{"anonymous":false,"inputs":[{"indexed":true,"internalType":"uint256","name":"orderId","type":"uint256"},{"indexed":false,"internalType":"string","name":"reason","type":"string"},{"indexed":true,"internalType":"address","name":"cancelledBy","type":"address"}],"name":"OrderCancelled","type":"event"},{"anonymous":false,"inputs":[{"indexed":true,"internalType":"uint256","name":"orderId","type":"uint256"},{"indexed":true,"internalType":"uint256","name":"customerId","type":"uint256"},{"indexed":false,"internalType":"uint256","name":"totalAmount","type":"uint256"},{"indexed":false,"internalType":"string","name":"blockchainHash","type":"string"}],"name":"OrderCreated","type":"event"},{"anonymous":false,"inputs":[{"indexed":true,"internalType":"uint256","name":"orderId","type":"uint256"},{"indexed":true,"internalType":"uint256","name":"productId","type":"uint256"},{"indexed":false,"internalType":"uint256","name":"quantity","type":"uint256"}],"name":"OrderItemAdded","type":"event"},{"anonymous":false,"inputs":[{"indexed":true,"internalType":"uint256","name":"orderId","type":"uint256"},{"indexed":false,"internalType":"enum IOrderTypes.OrderStatus","name":"previousStatus","type":"uint8"},{"indexed":false,"internalType":"enum IOrderTypes.OrderStatus","name":"newStatus","type":"uint8"},{"indexed":true,"internalType":"address","name":"updatedBy","type":"address"}],"name":"OrderStatusUpdated","type":"event"},{"anonymous":false,"inputs":[{"indexed":true,"internalType":"uint256","name":"orderId","type":"uint256"},{"indexed":false,"internalType":"bytes32","name":"verificationHash","type":"bytes32"},{"indexed":true,"internalType":"address","name":"verifiedBy","type":"address"}],"name":"OrderVerified","type":"event"},{"inputs":[{"internalType":"uint256[]","name":"orderIds","type":"uint256[]"}],"name":"batchVerifyOrders","outputs":[],"stateMutability":"nonpayable","type":"function"},{"inputs":[{"internalType":"uint256","name":"orderId","type":"uint256"},{"internalType":"string","name":"reason","type":"string"}],"name":"cancelOrder","outputs":[],"stateMutability":"nonpayable","type":"function"},{"inputs":[],"name":"core","outputs":[{"internalType":"contract BlockERPCore","name":"","type":"address"}],"stateMutability":"view","type":"function"},{"inputs":[{"internalType":"uint256","name":"customerId","type":"uint256"},{"internalType":"string","name":"customerName","type":"string"},{"components":[{"internalType":"uint256","name":"productId","type":"uint256"},{"internalType":"string","name":"productName","type":"string"},{"internalType":"string","name":"sku","type":"string"},{"internalType":"uint256","name":"quantity","type":"uint256"},{"internalType":"uint256","name":"unitPrice","type":"uint256"},{"internalType":"uint256","name":"totalPrice","type":"uint256"}],"internalType":"struct IOrderTypes.OrderItem[]","name":"items","type":"tuple[]"}],"name":"createOrder","outputs":[{"internalType":"uint256","name":"","type":"uint256"}],"stateMutability":"nonpayable","type":"function"},{"inputs":[],"name":"getAllOrderIds","outputs":[{"internalType":"uint256[]","name":"","type":"uint256[]"}],"stateMutability":"view","type":"function"},{"inputs":[{"internalType":"uint256","name":"customerId","type":"uint256"}],"name":"getCustomerOrders","outputs":[{"internalType":"uint256[]","name":"","type":"uint256[]"}],"stateMutability":"view","type":"function"},{"inputs":[{"internalType":"uint256","name":"orderId","type":"uint256"}],"name":"getOrder","outputs":[{"internalType":"uint256","name":"id","type":"uint256"},{"internalType":"uint256","name":"customerId","type":"uint256"},{"internalType":"string","name":"customerName","type":"string"},{"internalType":"uint256","name":"totalAmount","type":"uint256"},{"internalType":"enum IOrderTypes.OrderStatus","name":"status","type":"uint8"},{"internalType":"uint256","name":"createdAt","type":"uint256"},{"internalType":"uint256","name":"updatedAt","type":"uint256"},{"internalType":"string","name":"blockchainHash","type":"string"},{"internalType":"bool","name":"verified","type":"bool"}],"stateMutability":"view","type":"function"},{"inputs":[],"name":"getOrderCount","outputs":[{"internalType":"uint256","name":"","type":"uint256"}],"stateMutability":"view","type":"function"},{"inputs":[{"internalType":"uint256","name":"orderId","type":"uint256"}],"name":"getOrderItems","outputs":[{"components":[{"internalType":"uint256","name":"productId","type":"uint256"},{"internalType":"string","name":"productName","type":"string"},{"internalType":"string","name":"sku","type":"string"},{"internalType":"uint256","name":"quantity","type":"uint256"},{"internalType":"uint256","name":"unitPrice","type":"uint256"},{"internalType":"uint256","name":"totalPrice","type":"uint256"}],"internalType":"struct IOrderTypes.OrderItem[]","name":"","type":"tuple[]"}],"stateMutability":"view","type":"function"},{"inputs":[],"name":"getOrderStats","outputs":[{"components":[{"internalType":"uint256","name":"totalOrders","type":"uint256"},{"internalType":"uint256","name":"pendingOrders","type":"uint256"},{"internalType":"uint256","name":"processingOrders","type":"uint256"},{"internalType":"uint256","name":"shippedOrders","type":"uint256"},{"internalType":"uint256","name":"deliveredOrders","type":"uint256"},{"internalType":"uint256","name":"cancelledOrders","type":"uint256"},{"internalType":"uint256","name":"totalRevenue","type":"uint256"}],"internalType":"struct OrderManager.OrderStats","name":"","type":"tuple"}],"stateMutability":"view","type":"function"},{"inputs":[{"internalType":"enum IOrderTypes.OrderStatus","name":"status","type":"uint8"}],"name":"getOrdersByStatus","outputs":[{"internalType":"uint256[]","name":"","type":"uint256[]"}],"stateMutability":"view","type":"function"},{"inputs":[{"internalType":"uint256","name":"count","type":"uint256"}],"name":"getRecentOrders","outputs":[{"internalType":"uint256[]","name":"","type":"uint256[]"}],"stateMutability":"view","type":"function"},{"inputs":[],"name":"stats","outputs":[{"internalType":"uint256","name":"totalOrders","type":"uint256"},{"internalType":"uint256","name":"pendingOrders","type":"uint256"},{"internalType":"uint256","name":"processingOrders","type":"uint256"},{"internalType":"uint256","name":"shippedOrders","type":"uint256"},{"internalType":"uint256","name":"deliveredOrders","type":"uint256"},{"internalType":"uint256","name":"cancelledOrders","type":"uint256"},{"internalType":"uint256","name":"totalRevenue","type":"uint256"}],"stateMutability":"view","type":"function"},{"inputs":[{"internalType":"uint256","name":"orderId","type":"uint256"},{"internalType":"enum IOrderTypes.OrderStatus","name":"newStatus","type":"uint8"}],"name":"updateOrderStatus","outputs":[],"stateMutability":"nonpayable","type":"function"},{"inputs":[{"internalType":"uint256","name":"orderId","type":"uint256"}],"name":"verifyOrder","outputs":[],"stateMutability":"nonpayable","type":"function"},{"inputs":[{"internalType":"uint256","name":"orderId","type":"uint256"},{"internalType":"bytes32","name":"providedHash","type":"bytes32"}],"name":"verifyOrderHash","outputs":[{"internalType":"bool","name":"","type":"bool"}],"stateMutability":"view","type":"function"}],"evm":{"bytecode":{"linkReferences":{},"object":"60a0346100ed57601f620027ee38819003918201601f19168301916001600160401b038311848410176100f2578084926020946040528339810103126100ed57516001600160a01b038116908190036100ed57801561009d576080526103e86000556040516126e5908162000109823960805181818161026e015281816104690152818161076201528181610a0c01528181610fc00152611c620152f35b60405162461bcd60e51b815260206004820152602260248201527f4f726465724d616e616765723a20696e76616c696420636f7265206164647265604482015261737360f01b6064820152608490fd5b600080fd5b634e487b7160e01b600052604160045260246000fdfe6080604052600436101561001257600080fd5b6000803560e01c806307989df614611d9c578063347dd4f014611c2b5780634811bc4b14611b795780634b2b612a14611b035780638ce2ec79146119ba5780638d0a5fbb1461199c578063a27e595614610f10578063aab3196d146109d6578063ad7e218114610719578063d09ef24114610645578063d80528ae146105f4578063d94a2168146103d3578063da0df7ff1461035e578063ec35356e1461029d578063f2f4eb26146102585763fb13e2eb146100cd57600080fd5b3461025557602080600319360112610251576004358083526001908183526100fa6040852054151561246c565b83526002928383526040812091825461011281611fac565b956101206040519788611f2e565b81875285870190819585528685209085925b8484106101e457505050505060405194848695860191818752518092526040860160408360051b8801019594905b83821061016d5787870388f35b918496819592949698508190603f198b8203018552895190815181526101b46101a28484015160c08087860152840190611fc3565b60408401518382036040850152611fc3565b91606080820151908301526080808201519083015260a08091015191015298019201920187969593919492610160565b9460068982999a9760409c999c516101fb81611ec7565b8654815261020a858801612519565b83820152610219868801612519565b60408201526003870154606082015260048701546080820152600587015460a082015281520193019301929198959897969497610132565b5080fd5b80fd5b50346102555780600319360112610255576040517f00000000000000000000000000000000000000000000000000000000000000006001600160a01b03168152602090f35b503461025557806003193601126102555760c06040516102bc81611ef8565b8281528260208201528260408201528260608201528260808201528260a0820152015260e06040516102ed81611ef8565b60065490818152600754602082019081526008546040830190815260095460608401908152600a549160808501928352600b549360a0860194855260c0600c5496019586526040519687525160208701525160408601525160608501525160808401525160a08301525160c0820152f35b5034610255576020806003193601126102515760043582526003815260408220916040518092808554928381520194835280832092905b8282106103bc576103b8856103ac81890382611f2e565b60405191829182611e8c565b0390f35b835486529485019460019384019390910190610395565b503461025557602080600319360112610251576004356001600160401b0381116105f057366023820112156105f05780600401359061041182611fac565b9161041f6040519384611f2e565b80835260248484019160051b830101913683116105ec576024859101915b8383106105dc57505050506040516395a8c58d60e01b8152828180610465336004830161203e565b03817f00000000000000000000000000000000000000000000000000000000000000006001600160a01b03165afa80156105d1576104aa9185916105a4575b506124c3565b825b81518110156105a057806104c36104e3928461213e565b5185526001808552604086205415158061057e575b6104e8575b50612119565b6104ac565b6104f2828561213e565b51865280855260408620600901805460ff191682179055610513828561213e565b518652845242600760408720015561052b818461213e565b51604051858101918252426040820152606033811b908201526054815261055181611f13565b51902061055e828561213e565b51604051918252600080516020612690833981519152863393a3386104dd565b50610589828561213e565b51865280855260ff600960408820015416156104d8565b8380f35b6105c49150843d86116105ca575b6105bc8183611f2e565b810190612026565b386104a4565b503d6105b2565b6040513d86823e3d90fd5b823581529181019185910161043d565b8580fd5b8280fd5b503461025557806003193601126102555760e0600654600754600854600954600a5490600b5492600c5494604051968752602087015260408601526060850152608084015260a083015260c0820152f35b503461025557602036600319011261025557604090600435808252600160205261067383832054151561246c565b8152600160205220805460018201549161070c600482015460ff6005840154169260068101546007820154906106f560ff600985015416966106e56106c660086106bf60028901612519565b9701612519565b956040519b8c9b8c5260208c01526101208060408d01528b0190611fc3565b9560608a01526080890190612003565b60a087015260c086015284820360e0860152611fc3565b9015156101008301520390f35b503461025557604036600319011261025557600435906024356001600160401b0381116102515761074e903690600401611f51565b6040516395a8c58d60e01b815290926020917f00000000000000000000000000000000000000000000000000000000000000006001600160a01b03169083818061079b3360048301612058565b0381855afa9081156109cb57916107bd859260049488916109ae575b50612072565b604051635c975abb60e01b815292839182905afa9081156105d157906107eb918591610991575b50156120cd565b808352600182526108016040842054151561246c565b808352600182526040832091600583019460ff86541693600685101561097d57841596878015610973575b1561091e576004949596976000146108cc576108496007546125ef565b6007555b610858600b54612119565b600b558460ff19825416179055600742910155837f85926d36c97ddd4ac50016e818b0a400a1940c03bac8da5ae1f8ef1e15ec4394604051848152806108a2339587830190611fc3565b0390a36108b26040518095612003565b83015260008051602061267083398151915260403393a380f35b600187036108e8576108df6008546125ef565b6008555b61084d565b60028703610903576108fb6009546125ef565b60095561084d565b600387036108e357610916600a546125ef565b600a5561084d565b60405162461bcd60e51b815260048101859052602760248201527f4f726465724d616e616765723a206f726465722063616e6e6f742062652063616044820152661b98d95b1b195960ca1b6064820152608490fd5b506001861461082c565b634e487b7160e01b86526021600452602486fd5b6109a89150843d86116105ca576105bc8183611f2e565b386107e4565b6109c59150843d86116105ca576105bc8183611f2e565b386107b7565b6040513d87823e3d90fd5b503461025557604036600319011261025557602490813560043560068210156105f0576040516395a8c58d60e01b8152602092907f00000000000000000000000000000000000000000000000000000000000000006001600160a01b031690848180610a453360048301612058565b0381855afa908115610f055791610a66869260049489916109ae5750612072565b604051635c975abb60e01b815292839182905afa9081156109cb5790610a93918691610eee5750156120cd565b818452600192838152610aab6040862054151561246c565b828552838152604085206005810160ff815416956006871015610e2957848714610eaa5787600488141580610e9d575b15610e3c57610e29578615888115610c9757610c84578186148015610c7a575b15610c2b57610b599697989950918591610b3e935b15610bda57610b206007546125ef565b6007555b82610b705750610b35600754612119565b6007555b612439565b600742910155610b516040518096612003565b840190612003565b60008051602061267083398151915260403393a380f35b8203610b8957610b81600854612119565b600855612439565b60028203610ba457610b9c600954612119565b600955612439565b60038203610bbf57610bb7600a54612119565b600a55612439565b60048203610b3957610bd2600b54612119565b600b55612439565b898103610bf557610bec6008546125ef565b6008555b610b24565b60028a03610c1057610c086009546125ef565b600955610b24565b60038a03610bf057610c23600a546125ef565b600a55610b24565b60405162461bcd60e51b8152600481018690526034818c01526000805160206126508339815191526044820152736e736974696f6e2066726f6d2050454e44494e4760601b6064820152608490fd5b5060048614610afb565b634e487b7160e01b895260216004528989fd5b50878203610d245788610c8457600286148015610d1a575b15610cc857610b599697989950918591610b3e93610b10565b60405162461bcd60e51b8152600481018690526037818c01526000805160206126508339815191526044820152766e736974696f6e2066726f6d2050524f43455353494e4760481b6064820152608490fd5b5060048614610caf565b9760028803610dab5797600386148015610da1575b15610d5257610b599697989950918591610b3e93610b10565b60405162461bcd60e51b8152600481018690526034818c01526000805160206126508339815191526044820152731b9cda5d1a5bdb88199c9bdb4814d2125414115160621b6064820152608490fd5b5060058614610d39565b979860038814610dc9575b50610b3e918591610b599798999a610b10565b9860058603610dd85798610db6565b60405162461bcd60e51b8152600481018690526036818c01526000805160206126508339815191526044820152751b9cda5d1a5bdb88199c9bdb4811115312559154915160521b6064820152608490fd5b634e487b7160e01b885260216004528888fd5b60405162461bcd60e51b8152600481018690526034818c01527f4f726465724d616e616765723a2063616e6e6f74207570646174652063616e6360448201527332b63632b217b932b33ab73232b21037b93232b960611b6064820152608490fd5b5050876005881415610adb565b60405162461bcd60e51b815260048101859052601e818b01527f4f726465724d616e616765723a2073746174757320756e6368616e67656400006044820152606490fd5b6109a89150853d87116105ca576105bc8183611f2e565b6040513d88823e3d90fd5b5034610255576060366003190112610255576024356001600160401b03811161025157610f41903690600401611f51565b6001600160401b0360443511610251573660236044350112156102515760443560040135610f6e81611fac565b90610f7c6040519283611f2e565b808252602082013660248360051b60443501011161199857602460443501905b60248360051b604435010182106118be5750506040516395a8c58d60e01b815290507f00000000000000000000000000000000000000000000000000000000000000006001600160a01b031660208280610ff93360048301612058565b0381845afa9081156109cb5761101a60209260049488916109ae5750612072565b604051635c975abb60e01b815292839182905afa80156105d1576110459185916118a55750156120cd565b805115611854578151156118035761105d8354612119565b80845583805b83518210156111a6576060611078838661213e565b5101511561116157828652600260205260408620611096838661213e565b5181549091600160401b82101561114d5760018201808255821015611139576110e79261113394926110d2928b52600660208c209102016121b9565b60a06110de858861213e565b510151906123e2565b916110f2818661213e565b5151847f8a1280fca4a230513637a971f1744d0fac074bb2cf3742f1fa0b07251651e0ad60206060611124868b61213e565b510151604051908152a3612119565b90611063565b634e487b7160e01b89526032600452602489fd5b634e487b7160e01b89526041600452602489fd5b60405162461bcd60e51b815260206004820152601e60248201527f4f726465724d616e616765723a20696e76616c6964207175616e7469747900006044820152606490fd5b82858792604051602081019084825260043560408201528260608201524260808201523360601b60a0820152609481526111df81611ec7565b519020604051926111ef84611f13565b6042845260208401606036823784511561150757603090538351600110156117ef5760786021850153855b602081106117595750604051602081016001600160401b0381118282101761174557604090815287825251916001600160401b03610140840190811190841117611745576101408301604052868352602083019160043583526040840191825260608401528460808401528760a08401524260c08401524260e0840152856101008401528761012084015286885260016020526040882091835183555160018301555180519060018060401b03821161114d5781906112dc6002850154612168565b601f8111611712575b50602090601f83116001146116a3578a92611698575b50508160011b916000199060031b1c19161760028201555b6060820151805190600160401b821161114d576003830154826003850155808310611612575b506020016003830189526020892089915b8383106115f457505050506080820151600482015560a082015160068110156115e05761137a9060058301612439565b60c0820151600682015560e0820151600782015561010082015180516001600160401b03811161114d5760088301916113b38354612168565b601f81116115a5575b50602090601f831160011461153a5791806009949261012096948d9261152f575b50508160011b916000199060031b1c19161790555b01910151151560ff801983541691161790556004358552600360205260408520805490600160401b82101561151b57600182018082558210156115075786526020862001849055600454600160401b8110156114f357918460406020977ffba86b63f29512c0954255c52c425a587c4e5346933cf1c260091c732d7e819f94611482876001869901600455612451565b81549060031b9086821b91600019901b191617905581526005895220556114aa600654612119565b6006556114b8600754612119565b6007556114c781600c546123e2565b600c55604051908152604086820152806114e8600435956040830190611fc3565b0390a3604051908152f35b634e487b7160e01b86526041600452602486fd5b634e487b7160e01b87526032600452602487fd5b634e487b7160e01b87526041600452602487fd5b015190508c806113dd565b838b5260208b209190601f1984168c5b81811061158d575092600192859261012098966009989610611574575b505050811b0190556113f2565b015160001960f88460031b161c191690558c8080611567565b9293602060018192878601518155019501930161154a565b6115d090848c5260208c20601f850160051c810191602086106115d6575b601f0160051c01906121a2565b8a6113bc565b90915081906115c3565b634e487b7160e01b88526021600452602488fd5b600660208261160660019451866121b9565b0192019201919061134a565b600681810204810361168457600683810204830361168457600384018a5260208a208360060281015b826006028201811061164e575050611339565b808c60069255611660600182016123ef565b61166c600282016123ef565b8c60038201558c60048201558c60058201550161163b565b634e487b7160e01b8a52601160045260248afd5b0151905089806112fb565b9250600284018a5260208a20908a935b601f19841685106116f7576001945083601f198116106116de575b505050811b016002820155611313565b015160001960f88460031b161c191690558980806116ce565b818101518355602094850194600190930192909101906116b3565b61173f90600286018c5260208c20601f850160051c810191602086106115d657601f0160051c01906121a2565b8a6112e5565b634e487b7160e01b88526041600452602488fd5b61176a600f84831a60041c1661260d565b600290828060011b048214831517156117db578260011b820182116117db5761179b90891a918360011b01876125fc565b536117aa600f84831a1661260d565b6003908260011b820182116117db57906117d06117d693928a1a918360011b01886125fc565b53612119565b61121a565b634e487b7160e01b89526011600452602489fd5b634e487b7160e01b86526032600452602486fd5b60405162461bcd60e51b8152602060048201526024808201527f4f726465724d616e616765723a20637573746f6d6572206e616d6520726571756044820152631a5c995960e21b6064820152608490fd5b60405162461bcd60e51b815260206004820152602360248201527f4f726465724d616e616765723a206f72646572206d7573742068617665206974604482015262656d7360e81b6064820152608490fd5b6109a8915060203d6020116105ca576105bc8183611f2e565b81356001600160401b0381116119945760c060443582013603602319011261199457604051906118ed82611ec7565b604480358201602481013584526001600160401b039101351161199057611921366044803584019081013501602401611f51565b60208301526001600160401b036044358201606401351161199057602492602092839260c49061195d3660443583016064810135018901611f51565b6040840152604435016084810135606084015260a48101356080840152013560a082015281529190930192019050610f9c565b8780fd5b8680fd5b8480fd5b50346102555780600319360112610255576020600454604051908152f35b50346102555760208060031936011261025157600435600691828210159283611998576004549285805b858110611a9657506119f5906125bd565b948692875b868110611a0f57604051806103b88a82611e8c565b611a1881612451565b9054600391821b1c8a526001875260408a206005015460ff1684611a825783811015611a82578514611a54575b50611a4f90612119565b6119fa565b8195611a7b91611a66611a4f94612451565b9054911b1c611a75828c61213e565b52612119565b9490611a45565b634e487b7160e01b8b52602160045260248bfd5b611a9f81612451565b90549060031b1c8852600185528660ff600560408b2001541690611aef5784811015611aef578314611ada575b611ad590612119565b6119e4565b90611ae7611ad591612119565b919050611acc565b634e487b7160e01b89526021600452602489fd5b5034610255578060031936011261025557604051600480548083529083526020808301937f8a35acfbc15ff81a39ae7d344fd709f28e8600b4aa8c65c6b64bfe7fe36bd19b92915b828210611b62576103b8856103ac81890382611f2e565b835486529485019460019384019390910190611b4b565b5034610255576020366003190112610255576004805491903582811115611c265750815b611ba6816125bd565b60001980850194919391808611835b858110611bca57604051806103b88982611e8c565b81611c12578381840301888111611bfe5790611be8611bf992612451565b90549060031b1c611a75828a61213e565b611bb5565b634e487b7160e01b86526011600452602486fd5b634e487b7160e01b85526011600452602485fd5b611b9d565b503461025557602080600319360112610251576004356040516395a8c58d60e01b8152828180611c5e336004830161203e565b03817f00000000000000000000000000000000000000000000000000000000000000006001600160a01b03165afa80156105d157611ca29185916105a457506124c3565b80835260018252611cb86040842054151561246c565b808352600182526040832091600983019283549360ff8516611d4b5790600080516020612690833981519152929160018254818401546004850154600686015490604051928884019485526040840152606083015260808201524260a08201523360601b60c082015260b48152611d2e81611ef8565b5190209660ff19161790556007429101556040519384523393a380f35b60405162461bcd60e51b8152600481018490526024808201527f4f726465724d616e616765723a206f7264657220616c72656164792076657269604482015263199a595960e21b6064820152608490fd5b50346102555760403660031901126102555760043590818152600190602092828452611dcd6040832054151561246c565b81528183528260086040832001604051938491838301948092825492611df284612168565b93828116908115611e6a5750600114611e2d575b50505050611e1d925003601f198101845283611f2e565b6024359151902014604051908152f35b909180939450528482205b838310611e545750505091611e1d928201018592388080611e06565b8054888401870152879450918501918101611e38565b9350505050611e1d94925060ff19168552801515028201018592388080611e06565b6020908160408183019282815285518094520193019160005b828110611eb3575050505090565b835185529381019392810192600101611ea5565b60c081019081106001600160401b03821117611ee257604052565b634e487b7160e01b600052604160045260246000fd5b60e081019081106001600160401b03821117611ee257604052565b608081019081106001600160401b03821117611ee257604052565b601f909101601f19168101906001600160401b03821190821017611ee257604052565b81601f82011215611fa7578035906001600160401b038211611ee25760405192611f85601f8401601f191660200185611f2e565b82845260208383010111611fa757816000926020809301838601378301015290565b600080fd5b6001600160401b038111611ee25760051b60200190565b919082519283825260005b848110611fef575050826000602080949584010152601f8019910116010190565b602081830181015184830182015201611fce565b9060068210156120105752565b634e487b7160e01b600052602160045260246000fd5b90816020910312611fa757518015158103611fa75790565b6001600160a01b0390911681526003602082015260400190565b6001600160a01b0390911681526002602082015260400190565b1561207957565b60405162461bcd60e51b815260206004820152602660248201527f4f726465724d616e616765723a20696e73756666696369656e74207065726d696044820152657373696f6e7360d01b6064820152608490fd5b156120d457565b60405162461bcd60e51b815260206004820152601e60248201527f4f726465724d616e616765723a2073797374656d2069732070617573656400006044820152606490fd5b60001981146121285760010190565b634e487b7160e01b600052601160045260246000fd5b80518210156121525760209160051b010190565b634e487b7160e01b600052603260045260246000fd5b90600182811c92168015612198575b602083101461218257565b634e487b7160e01b600052602260045260246000fd5b91607f1691612177565b8181106121ad575050565b600081556001016121a2565b815181556020808301518051929391926001600160401b039060019081870190838111611ee257806121eb8354612168565b95601f968781116123b4575b50889087831160011461235157600092612346575b5050600019600383901b1c191690831b1790555b60028601926040850151958651938411611ee25761223e8554612168565b82811161230e575b508091841160011461229f57509180809260a0969594600598600094612294575b50501b916000199060031b1c19161790555b60608101516003850155608081015160048501550151910155565b015192503880612267565b91939495601f1984168660005283600020936000905b8282106122f7575050916005979593918560a0989694106122de575b505050811b019055612279565b015160001960f88460031b161c191690553880806122d1565b8088869782949787015181550196019401906122b5565b6123379086600052826000208480880160051c82019285891061233d575b0160051c01906121a2565b38612246565b9250819261232c565b01519050388061220c565b90859350601f19831691856000528a6000209260005b8c82821061239e5750508411612385575b505050811b019055612220565b015160001960f88460031b161c19169055388080612378565b8385015186558997909501949384019301612367565b6123dc90856000528a6000208980860160051c8201928d871061233d570160051c01906121a2565b386121f7565b9190820180921161212857565b6123f98154612168565b9081612403575050565b81601f600093116001146124165750555b565b908083918252612435601f60208420940160051c8401600185016121a2565b5555565b9060068110156120105760ff80198354169116179055565b60045481101561215257600460005260206000200190600090565b1561247357565b60405162461bcd60e51b815260206004820152602260248201527f4f726465724d616e616765723a206f7264657220646f6573206e6f74206578696044820152611cdd60f21b6064820152608490fd5b156124ca57565b60405162461bcd60e51b815260206004820152602160248201527f4f726465724d616e616765723a2063616c6c6572206973206e6f742061646d696044820152603760f91b6064820152608490fd5b906040519182600082549261252d84612168565b90818452600194858116908160001461259a5750600114612557575b505061241492500383611f2e565b9093915060005260209081600020936000915b81831061258257505061241493508201013880612549565b8554888401850152948501948794509183019161256a565b91505061241494506020925060ff191682840152151560051b8201013880612549565b906125c782611fac565b6125d46040519182611f2e565b82815280926125e5601f1991611fac565b0190602036910137565b8015612128576000190190565b908151811015612152570160200190565b60ff16600a8110156126345760300160ff81116121285760f81b6001600160f81b03191690565b60570160ff81116121285760f81b6001600160f81b0319169056fe4f726465724d616e616765723a20696e76616c696420737461747573207472612b230c88a2dfbd05827496c85a5481f5b5fd85a1306a77da91f82d920e23169468182752f7c36c047099c6828b2fec7d51058945f7c6196a02681fe819d7ee80a2646970667358221220443e23d3c24afd348087fccd1d8d69d83fac409bcce29b5a66f766db6b3734fe64736f6c63430008130033","opcodes":"PUSH1 0xA0 CALLVALUE PUSH2 0xED JUMPI PUSH1 0x1F PUSH3 0x27EE CODESIZE DUP2 SWAP1 SUB SWAP2 DUP3 ADD PUSH1 0x1F NOT AND DUP4 ADD SWAP2 PUSH1 0x1 PUSH1 0x1 PUSH1 0x40 SHL SUB DUP4 GT DUP5 DUP5 LT OR PUSH2 0xF2 JUMPI DUP1 DUP5 SWAP3 PUSH1 0x20 SWAP5 PUSH1 0x40 MSTORE DUP4 CODECOPY DUP2 ADD SUB SLT PUSH2 0xED JUMPI MLOAD PUSH1 0x1 PUSH1 0x1 PUSH1 0xA0 SHL SUB DUP2 AND SWAP1 DUP2 SWAP1 SUB PUSH2 0xED JUMPI DUP1 ISZERO PUSH2 0x9D JUMPI PUSH1 0x80 MSTORE PUSH2 0x3E8 PUSH1 0x0 SSTORE PUSH1 0x40 MLOAD PUSH2 0x26E5 SWAP1 DUP2 PUSH3 0x109 DUP3 CODECOPY PUSH1 0x80 MLOAD DUP2 DUP2 DUP2 PUSH2 0x26E ADD MSTORE DUP2 DUP2 PUSH2 0x469 ADD MSTORE DUP2 DUP2 PUSH2 0x762 ADD MSTORE DUP2 DUP2 PUSH2 0xA0C ADD MSTORE DUP2 DUP2 PUSH2 0xFC0 ADD MSTORE PUSH2 0x1C62 ADD MSTORE RETURN JUMPDEST PUSH1 0x40 MLOAD PUSH3 0x461BCD PUSH1 0xE5 SHL DUP2 MSTORE PUSH1 0x20 PUSH1 0x4 DUP3 ADD MSTORE PUSH1 0x22 PUSH1 0x24 DUP3 ADD MSTORE PUSH32 0x4F726465724D616E616765723A20696E76616C696420636F7265206164647265 PUSH1 0x44 DUP3 ADD MSTORE PUSH2 0x7373 PUSH1 0xF0 SHL PUSH1 0x64 DUP3 ADD MSTORE PUSH1 0x84 SWAP1 REVERT JUMPDEST PUSH1 0x0 DUP1 REVERT JUMPDEST PUSH4 0x4E487B71 PUSH1 0xE0 SHL PUSH1 0x0 MSTORE PUSH1 0x41 PUSH1 0x4 MSTORE PUSH1 0x24 PUSH1 0x0 REVERT INVALID PUSH1 0x80 PUSH1 0x40 MSTORE PUSH1 0x4 CALLDATASIZE LT ISZERO PUSH2 0x12 JUMPI PUSH1 0x0 DUP1 REVERT JUMPDEST PUSH1 0x0 DUP1 CALLDATALOAD PUSH1 0xE0 SHR DUP1 PUSH4 0x7989DF6 EQ PUSH2 0x1D9C JUMPI DUP1 PUSH4 0x347DD4F0 EQ PUSH2 0x1C2B JUMPI DUP1 PUSH4 0x4811BC4B EQ PUSH2 0x1B79 JUMPI DUP1 PUSH4 0x4B2B612A EQ PUSH2 0x1B03 JUMPI DUP1 PUSH4 0x8CE2EC79 EQ PUSH2 0x19BA JUMPI DUP1 PUSH4 0x8D0A5FBB EQ PUSH2 0x199C JUMPI DUP1 PUSH4 0xA27E5956 EQ PUSH2 0xF10 JUMPI DUP1 PUSH4 0xAAB3196D EQ PUSH2 0x9D6 JUMPI DUP1 PUSH4 0xAD7E2181 EQ PUSH2 0x719 JUMPI DUP1 PUSH4 0xD09EF241 EQ PUSH2 0x645 JUMPI DUP1 PUSH4 0xD80528AE EQ PUSH2 0x5F4 JUMPI DUP1 PUSH4 0xD94A2168 EQ PUSH2 0x3D3 JUMPI DUP1 PUSH4 0xDA0DF7FF EQ PUSH2 0x35E JUMPI DUP1 PUSH4 0xEC35356E EQ PUSH2 0x29D JUMPI DUP1 PUSH4 0xF2F4EB26 EQ PUSH2 0x258 JUMPI PUSH4 0xFB13E2EB EQ PUSH2 0xCD JUMPI PUSH1 0x0 DUP1 REVERT JUMPDEST CALLVALUE PUSH2 0x255 JUMPI PUSH1 0x20 DUP1 PUSH1 0x3 NOT CALLDATASIZE ADD SLT PUSH2 0x251 JUMPI PUSH1 0x4 CALLDATALOAD DUP1 DUP4 MSTORE PUSH1 0x1 SWAP1 DUP2 DUP4 MSTORE PUSH2 0xFA PUSH1 0x40 DUP6 KECCAK256 SLOAD ISZERO ISZERO PUSH2 0x246C JUMP JUMPDEST DUP4 MSTORE PUSH1 0x2 SWAP3 DUP4 DUP4 MSTORE PUSH1 0x40 DUP2 KECCAK256 SWAP2 DUP3 SLOAD PUSH2 0x112 DUP2 PUSH2 0x1FAC JUMP JUMPDEST SWAP6 PUSH2 0x120 PUSH1 0x40 MLOAD SWAP8 DUP9 PUSH2 0x1F2E JUMP JUMPDEST DUP2 DUP8 MSTORE DUP6 DUP8 ADD SWAP1 DUP2 SWAP6 DUP6 MSTORE DUP7 DUP6 KECCAK256 SWAP1 DUP6 SWAP3 JUMPDEST DUP5 DUP5 LT PUSH2 0x1E4 JUMPI POP POP POP POP POP PUSH1 0x40 MLOAD SWAP5 DUP5 DUP7 SWAP6 DUP7 ADD SWAP2 DUP2 DUP8 MSTORE MLOAD DUP1 SWAP3 MSTORE PUSH1 0x40 DUP7 ADD PUSH1 0x40 DUP4 PUSH1 0x5 SHL DUP9 ADD ADD SWAP6 SWAP5 SWAP1 JUMPDEST DUP4 DUP3 LT PUSH2 0x16D JUMPI DUP8 DUP8 SUB DUP9 RETURN JUMPDEST SWAP2 DUP5 SWAP7 DUP2 SWAP6 SWAP3 SWAP5 SWAP7 SWAP9 POP DUP2 SWAP1 PUSH1 0x3F NOT DUP12 DUP3 SUB ADD DUP6 MSTORE DUP10 MLOAD SWAP1 DUP2 MLOAD DUP2 MSTORE PUSH2 0x1B4 PUSH2 0x1A2 DUP5 DUP5 ADD MLOAD PUSH1 0xC0 DUP1 DUP8 DUP7 ADD MSTORE DUP5 ADD SWAP1 PUSH2 0x1FC3 JUMP JUMPDEST PUSH1 0x40 DUP5 ADD MLOAD DUP4 DUP3 SUB PUSH1 0x40 DUP6 ADD MSTORE PUSH2 0x1FC3 JUMP JUMPDEST SWAP2 PUSH1 0x60 DUP1 DUP3 ADD MLOAD SWAP1 DUP4 ADD MSTORE PUSH1 0x80 DUP1 DUP3 ADD MLOAD SWAP1 DUP4 ADD MSTORE PUSH1 0xA0 DUP1 SWAP2 ADD MLOAD SWAP2 ADD MSTORE SWAP9 ADD SWAP3 ADD SWAP3 ADD DUP8 SWAP7 SWAP6 SWAP4 SWAP2 SWAP5 SWAP3 PUSH2 0x160 JUMP JUMPDEST SWAP5 PUSH1 0x6 DUP10 DUP3 SWAP10 SWAP11 SWAP8 PUSH1 0x40 SWAP13 SWAP10 SWAP13 MLOAD PUSH2 0x1FB DUP2 PUSH2 0x1EC7 JUMP JUMPDEST DUP7 SLOAD DUP2 MSTORE PUSH2 0x20A DUP6 DUP9 ADD PUSH2 0x2519 JUMP JUMPDEST DUP4 DUP3 ADD MSTORE PUSH2 0x219 DUP7 DUP9 ADD PUSH2 0x2519 JUMP JUMPDEST PUSH1 0x40 DUP3 ADD MSTORE PUSH1 0x3 DUP8 ADD SLOAD PUSH1 0x60 DUP3 ADD MSTORE PUSH1 0x4 DUP8 ADD SLOAD PUSH1 0x80 DUP3 ADD MSTORE PUSH1 0x5 DUP8 ADD SLOAD PUSH1 0xA0 DUP3 ADD MSTORE DUP2 MSTORE ADD SWAP4 ADD SWAP4 ADD SWAP3 SWAP2 SWAP9 SWAP6 SWAP9 SWAP8 SWAP7 SWAP5 SWAP8 PUSH2 0x132 JUMP JUMPDEST POP DUP1 REVERT JUMPDEST DUP1 REVERT JUMPDEST POP CALLVALUE PUSH2 0x255 JUMPI DUP1 PUSH1 0x3 NOT CALLDATASIZE ADD SLT PUSH2 0x255 JUMPI PUSH1 0x40 MLOAD PUSH32 0x0 PUSH1 0x1 PUSH1 0x1 PUSH1 0xA0 SHL SUB AND DUP2 MSTORE PUSH1 0x20 SWAP1 RETURN JUMPDEST POP CALLVALUE PUSH2 0x255 JUMPI DUP1 PUSH1 0x3 NOT CALLDATASIZE ADD SLT PUSH2 0x255 JUMPI PUSH1 0xC0 PUSH1 0x40 MLOAD PUSH2 0x2BC DUP2 PUSH2 0x1EF8 JUMP JUMPDEST DUP3 DUP2 MSTORE DUP3 PUSH1 0x20 DUP3 ADD MSTORE DUP3 PUSH1 0x40 DUP3 ADD MSTORE DUP3 PUSH1 0x60 DUP3 ADD MSTORE DUP3 PUSH1 0x80 DUP3 ADD MSTORE DUP3 PUSH1 0xA0 DUP3 ADD MSTORE ADD MSTORE PUSH1 0xE0 PUSH1 0x40 MLOAD PUSH2 0x2ED DUP2 PUSH2 0x1EF8 JUMP JUMPDEST PUSH1 0x6 SLOAD SWAP1 DUP2 DUP2 MSTORE PUSH1 0x7 SLOAD PUSH1 0x20 DUP3 ADD SWAP1 DUP2 MSTORE PUSH1 0x8 SLOAD PUSH1 0x40 DUP4 ADD SWAP1 DUP2 MSTORE PUSH1 0x9 SLOAD PUSH1 0x60 DUP5 ADD SWAP1 DUP2 MSTORE PUSH1 0xA SLOAD SWAP2 PUSH1 0x80 DUP6 ADD SWAP3 DUP4 MSTORE PUSH1 0xB SLOAD SWAP4 PUSH1 0xA0 DUP7 ADD SWAP5 DUP6 MSTORE PUSH1 0xC0 PUSH1 0xC SLOAD SWAP7 ADD SWAP6 DUP7 MSTORE PUSH1 0x40 MLOAD SWAP7 DUP8 MSTORE MLOAD PUSH1 0x20 DUP8 ADD MSTORE MLOAD PUSH1 0x40 DUP7 ADD MSTORE MLOAD PUSH1 0x60 DUP6 ADD MSTORE MLOAD PUSH1 0x80 DUP5 ADD MSTORE MLOAD PUSH1 0xA0 DUP4 ADD MSTORE MLOAD PUSH1 0xC0 DUP3 ADD MSTORE RETURN JUMPDEST POP CALLVALUE PUSH2 0x255 JUMPI PUSH1 0x20 DUP1 PUSH1 0x3 NOT CALLDATASIZE ADD SLT PUSH2 0x251 JUMPI PUSH1 0x4 CALLDATALOAD DUP3 MSTORE PUSH1 0x3 DUP2 MSTORE PUSH1 0x40 DUP3 KECCAK256 SWAP2 PUSH1 0x40 MLOAD DUP1 SWAP3 DUP1 DUP6 SLOAD SWAP3 DUP4 DUP2 MSTORE ADD SWAP5 DUP4 MSTORE DUP1 DUP4 KECCAK256 SWAP3 SWAP1 JUMPDEST DUP3 DUP3 LT PUSH2 0x3BC JUMPI PUSH2 0x3B8 DUP6 PUSH2 0x3AC DUP2 DUP10 SUB DUP3 PUSH2 0x1F2E JUMP JUMPDEST PUSH1 0x40 MLOAD SWAP2 DUP3 SWAP2 DUP3 PUSH2 0x1E8C JUMP JUMPDEST SUB SWAP1 RETURN JUMPDEST DUP4 SLOAD DUP7 MSTORE SWAP5 DUP6 ADD SWAP5 PUSH1 0x1 SWAP4 DUP5 ADD SWAP4 SWAP1 SWAP2 ADD SWAP1 PUSH2 0x395 JUMP JUMPDEST POP CALLVALUE PUSH2 0x255 JUMPI PUSH1 0x20 DUP1 PUSH1 0x3 NOT CALLDATASIZE ADD SLT PUSH2 0x251 JUMPI PUSH1 0x4 CALLDATALOAD PUSH1 0x1 PUSH1 0x1 PUSH1 0x40 SHL SUB DUP2 GT PUSH2 0x5F0 JUMPI CALLDATASIZE PUSH1 0x23 DUP3 ADD SLT ISZERO PUSH2 0x5F0 JUMPI DUP1 PUSH1 0x4 ADD CALLDATALOAD SWAP1 PUSH2 0x411 DUP3 PUSH2 0x1FAC JUMP JUMPDEST SWAP2 PUSH2 0x41F PUSH1 0x40 MLOAD SWAP4 DUP5 PUSH2 0x1F2E JUMP JUMPDEST DUP1 DUP4 MSTORE PUSH1 0x24 DUP5 DUP5 ADD SWAP2 PUSH1 0x5 SHL DUP4 ADD ADD SWAP2 CALLDATASIZE DUP4 GT PUSH2 0x5EC JUMPI PUSH1 0x24 DUP6 SWAP2 ADD SWAP2 JUMPDEST DUP4 DUP4 LT PUSH2 0x5DC JUMPI POP POP POP POP PUSH1 0x40 MLOAD PUSH4 0x95A8C58D PUSH1 0xE0 SHL DUP2 MSTORE DUP3 DUP2 DUP1 PUSH2 0x465 CALLER PUSH1 0x4 DUP4 ADD PUSH2 0x203E JUMP JUMPDEST SUB DUP2 PUSH32 0x0 PUSH1 0x1 PUSH1 0x1 PUSH1 0xA0 SHL SUB AND GAS STATICCALL DUP1 ISZERO PUSH2 0x5D1 JUMPI PUSH2 0x4AA SWAP2 DUP6 SWAP2 PUSH2 0x5A4 JUMPI JUMPDEST POP PUSH2 0x24C3 JUMP JUMPDEST DUP3 JUMPDEST DUP2 MLOAD DUP2 LT ISZERO PUSH2 0x5A0 JUMPI DUP1 PUSH2 0x4C3 PUSH2 0x4E3 SWAP3 DUP5 PUSH2 0x213E JUMP JUMPDEST MLOAD DUP6 MSTORE PUSH1 0x1 DUP1 DUP6 MSTORE PUSH1 0x40 DUP7 KECCAK256 SLOAD ISZERO ISZERO DUP1 PUSH2 0x57E JUMPI JUMPDEST PUSH2 0x4E8 JUMPI JUMPDEST POP PUSH2 0x2119 JUMP JUMPDEST PUSH2 0x4AC JUMP JUMPDEST PUSH2 0x4F2 DUP3 DUP6 PUSH2 0x213E JUMP JUMPDEST MLOAD DUP7 MSTORE DUP1 DUP6 MSTORE PUSH1 0x40 DUP7 KECCAK256 PUSH1 0x9 ADD DUP1 SLOAD PUSH1 0xFF NOT AND DUP3 OR SWAP1 SSTORE PUSH2 0x513 DUP3 DUP6 PUSH2 0x213E JUMP JUMPDEST MLOAD DUP7 MSTORE DUP5 MSTORE TIMESTAMP PUSH1 0x7 PUSH1 0x40 DUP8 KECCAK256 ADD SSTORE PUSH2 0x52B DUP2 DUP5 PUSH2 0x213E JUMP JUMPDEST MLOAD PUSH1 0x40 MLOAD DUP6 DUP2 ADD SWAP2 DUP3 MSTORE TIMESTAMP PUSH1 0x40 DUP3 ADD MSTORE PUSH1 0x60 CALLER DUP2 SHL SWAP1 DUP3 ADD MSTORE PUSH1 0x54 DUP2 MSTORE PUSH2 0x551 DUP2 PUSH2 0x1F13 JUMP JUMPDEST MLOAD SWAP1 KECCAK256 PUSH2 0x55E DUP3 DUP6 PUSH2 0x213E JUMP JUMPDEST MLOAD PUSH1 0x40 MLOAD SWAP2 DUP3 MSTORE PUSH1 0x0 DUP1 MLOAD PUSH1 0x20 PUSH2 0x2690 DUP4 CODECOPY DUP2 MLOAD SWAP2 MSTORE DUP7 CALLER SWAP4 LOG3 CODESIZE PUSH2 0x4DD JUMP JUMPDEST POP PUSH2 0x589 DUP3 DUP6 PUSH2 0x213E JUMP JUMPDEST MLOAD DUP7 MSTORE DUP1 DUP6 MSTORE PUSH1 0xFF PUSH1 0x9 PUSH1 0x40 DUP9 KECCAK256 ADD SLOAD AND ISZERO PUSH2 0x4D8 JUMP JUMPDEST DUP4 DUP1 RETURN JUMPDEST PUSH2 0x5C4 SWAP2 POP DUP5 RETURNDATASIZE DUP7 GT PUSH2 0x5CA JUMPI JUMPDEST PUSH2 0x5BC DUP2 DUP4 PUSH2 0x1F2E JUMP JUMPDEST DUP2 ADD SWAP1 PUSH2 0x2026 JUMP JUMPDEST CODESIZE PUSH2 0x4A4 JUMP JUMPDEST POP RETURNDATASIZE PUSH2 0x5B2 JUMP JUMPDEST PUSH1 0x40 MLOAD RETURNDATASIZE DUP7 DUP3 RETURNDATACOPY RETURNDATASIZE SWAP1 REVERT JUMPDEST DUP3 CALLDATALOAD DUP2 MSTORE SWAP2 DUP2 ADD SWAP2 DUP6 SWAP2 ADD PUSH2 0x43D JUMP JUMPDEST DUP6 DUP1 REVERT JUMPDEST DUP3 DUP1 REVERT JUMPDEST POP CALLVALUE PUSH2 0x255 JUMPI DUP1 PUSH1 0x3 NOT CALLDATASIZE ADD SLT PUSH2 0x255 JUMPI PUSH1 0xE0 PUSH1 0x6 SLOAD PUSH1 0x7 SLOAD PUSH1 0x8 SLOAD PUSH1 0x9 SLOAD PUSH1 0xA SLOAD SWAP1 PUSH1 0xB SLOAD SWAP3 PUSH1 0xC SLOAD SWAP5 PUSH1 0x40 MLOAD SWAP7 DUP8 MSTORE PUSH1 0x20 DUP8 ADD MSTORE PUSH1 0x40 DUP7 ADD MSTORE PUSH1 0x60 DUP6 ADD MSTORE PUSH1 0x80 DUP5 ADD MSTORE PUSH1 0xA0 DUP4 ADD MSTORE PUSH1 0xC0 DUP3 ADD MSTORE RETURN JUMPDEST POP CALLVALUE PUSH2 0x255 JUMPI PUSH1 0x20 CALLDATASIZE PUSH1 0x3 NOT ADD SLT PUSH2 0x255 JUMPI PUSH1 0x40 SWAP1 PUSH1 0x4 CALLDATALOAD DUP1 DUP3 MSTORE PUSH1 0x1 PUSH1 0x20 MSTORE PUSH2 0x673 DUP4 DUP4 KECCAK256 SLOAD ISZERO ISZERO PUSH2 0x246C JUMP JUMPDEST DUP2 MSTORE PUSH1 0x1 PUSH1 0x20 MSTORE KECCAK256 DUP1 SLOAD PUSH1 0x1 DUP3 ADD SLOAD SWAP2 PUSH2 0x70C PUSH1 0x4 DUP3 ADD SLOAD PUSH1 0xFF PUSH1 0x5 DUP5 ADD SLOAD AND SWAP3 PUSH1 0x6 DUP2 ADD SLOAD PUSH1 0x7 DUP3 ADD SLOAD SWAP1 PUSH2 0x6F5 PUSH1 0xFF PUSH1 0x9 DUP6 ADD SLOAD AND SWAP7 PUSH2 0x6E5 PUSH2 0x6C6 PUSH1 0x8 PUSH2 0x6BF PUSH1 0x2 DUP10 ADD PUSH2 0x2519 JUMP JUMPDEST SWAP8 ADD PUSH2 0x2519 JUMP JUMPDEST SWAP6 PUSH1 0x40 MLOAD SWAP12 DUP13 SWAP12 DUP13 MSTORE PUSH1 0x20 DUP13 ADD MSTORE PUSH2 0x120 DUP1 PUSH1 0x40 DUP14 ADD MSTORE DUP12 ADD SWAP1 PUSH2 0x1FC3 JUMP JUMPDEST SWAP6 PUSH1 0x60 DUP11 ADD MSTORE PUSH1 0x80 DUP10 ADD SWAP1 PUSH2 0x2003 JUMP JUMPDEST PUSH1 0xA0 DUP8 ADD MSTORE PUSH1 0xC0 DUP7 ADD MSTORE DUP5 DUP3 SUB PUSH1 0xE0 DUP7 ADD MSTORE PUSH2 0x1FC3 JUMP JUMPDEST SWAP1 ISZERO ISZERO PUSH2 0x100 DUP4 ADD MSTORE SUB SWAP1 RETURN JUMPDEST POP CALLVALUE PUSH2 0x255 JUMPI PUSH1 0x40 CALLDATASIZE PUSH1 0x3 NOT ADD SLT PUSH2 0x255 JUMPI PUSH1 0x4 CALLDATALOAD SWAP1 PUSH1 0x24 CALLDATALOAD PUSH1 0x1 PUSH1 0x1 PUSH1 0x40 SHL SUB DUP2 GT PUSH2 0x251 JUMPI PUSH2 0x74E SWAP1 CALLDATASIZE SWAP1 PUSH1 0x4 ADD PUSH2 0x1F51 JUMP JUMPDEST PUSH1 0x40 MLOAD PUSH4 0x95A8C58D PUSH1 0xE0 SHL DUP2 MSTORE SWAP1 SWAP3 PUSH1 0x20 SWAP2 PUSH32 0x0 PUSH1 0x1 PUSH1 0x1 PUSH1 0xA0 SHL SUB AND SWAP1 DUP4 DUP2 DUP1 PUSH2 0x79B CALLER PUSH1 0x4 DUP4 ADD PUSH2 0x2058 JUMP JUMPDEST SUB DUP2 DUP6 GAS STATICCALL SWAP1 DUP2 ISZERO PUSH2 0x9CB JUMPI SWAP2 PUSH2 0x7BD DUP6 SWAP3 PUSH1 0x4 SWAP5 DUP9 SWAP2 PUSH2 0x9AE JUMPI JUMPDEST POP PUSH2 0x2072 JUMP JUMPDEST PUSH1 0x40 MLOAD PUSH4 0x5C975ABB PUSH1 0xE0 SHL DUP2 MSTORE SWAP3 DUP4 SWAP2 DUP3 SWAP1 GAS STATICCALL SWAP1 DUP2 ISZERO PUSH2 0x5D1 JUMPI SWAP1 PUSH2 0x7EB SWAP2 DUP6 SWAP2 PUSH2 0x991 JUMPI JUMPDEST POP ISZERO PUSH2 0x20CD JUMP JUMPDEST DUP1 DUP4 MSTORE PUSH1 0x1 DUP3 MSTORE PUSH2 0x801 PUSH1 0x40 DUP5 KECCAK256 SLOAD ISZERO ISZERO PUSH2 0x246C JUMP JUMPDEST DUP1 DUP4 MSTORE PUSH1 0x1 DUP3 MSTORE PUSH1 0x40 DUP4 KECCAK256 SWAP2 PUSH1 0x5 DUP4 ADD SWAP5 PUSH1 0xFF DUP7 SLOAD AND SWAP4 PUSH1 0x6 DUP6 LT ISZERO PUSH2 0x97D JUMPI DUP5 ISZERO SWAP7 DUP8 DUP1 ISZERO PUSH2 0x973 JUMPI JUMPDEST ISZERO PUSH2 0x91E JUMPI PUSH1 0x4 SWAP5 SWAP6 SWAP7 SWAP8 PUSH1 0x0 EQ PUSH2 0x8CC JUMPI PUSH2 0x849 PUSH1 0x7 SLOAD PUSH2 0x25EF JUMP JUMPDEST PUSH1 0x7 SSTORE JUMPDEST PUSH2 0x858 PUSH1 0xB SLOAD PUSH2 0x2119 JUMP JUMPDEST PUSH1 0xB SSTORE DUP5 PUSH1 0xFF NOT DUP3 SLOAD AND OR SWAP1 SSTORE PUSH1 0x7 TIMESTAMP SWAP2 ADD SSTORE DUP4 PUSH32 0x85926D36C97DDD4AC50016E818B0A400A1940C03BAC8DA5AE1F8EF1E15EC4394 PUSH1 0x40 MLOAD DUP5 DUP2 MSTORE DUP1 PUSH2 0x8A2 CALLER SWAP6 DUP8 DUP4 ADD SWAP1 PUSH2 0x1FC3 JUMP JUMPDEST SUB SWAP1 LOG3 PUSH2 0x8B2 PUSH1 0x40 MLOAD DUP1 SWAP6 PUSH2 0x2003 JUMP JUMPDEST DUP4 ADD MSTORE PUSH1 0x0 DUP1 MLOAD PUSH1 0x20 PUSH2 0x2670 DUP4 CODECOPY DUP2 MLOAD SWAP2 MSTORE PUSH1 0x40 CALLER SWAP4 LOG3 DUP1 RETURN JUMPDEST PUSH1 0x1 DUP8 SUB PUSH2 0x8E8 JUMPI PUSH2 0x8DF PUSH1 0x8 SLOAD PUSH2 0x25EF JUMP JUMPDEST PUSH1 0x8 SSTORE JUMPDEST PUSH2 0x84D JUMP JUMPDEST PUSH1 0x2 DUP8 SUB PUSH2 0x903 JUMPI PUSH2 0x8FB PUSH1 0x9 SLOAD PUSH2 0x25EF JUMP JUMPDEST PUSH1 0x9 SSTORE PUSH2 0x84D JUMP JUMPDEST PUSH1 0x3 DUP8 SUB PUSH2 0x8E3 JUMPI PUSH2 0x916 PUSH1 0xA SLOAD PUSH2 0x25EF JUMP JUMPDEST PUSH1 0xA SSTORE PUSH2 0x84D JUMP JUMPDEST PUSH1 0x40 MLOAD PUSH3 0x461BCD PUSH1 0xE5 SHL DUP2 MSTORE PUSH1 0x4 DUP2 ADD DUP6 SWAP1 MSTORE PUSH1 0x27 PUSH1 0x24 DUP3 ADD MSTORE PUSH32 0x4F726465724D616E616765723A206F726465722063616E6E6F74206265206361 PUSH1 0x44 DUP3 ADD MSTORE PUSH7 0x1B98D95B1B1959 PUSH1 0xCA SHL PUSH1 0x64 DUP3 ADD MSTORE PUSH1 0x84 SWAP1 REVERT JUMPDEST POP PUSH1 0x1 DUP7 EQ PUSH2 0x82C JUMP JUMPDEST PUSH4 0x4E487B71 PUSH1 0xE0 SHL DUP7 MSTORE PUSH1 0x21 PUSH1 0x4 MSTORE PUSH1 0x24 DUP7 REVERT JUMPDEST PUSH2 0x9A8 SWAP2 POP DUP5 RETURNDATASIZE DUP7 GT PUSH2 0x5CA JUMPI PUSH2 0x5BC DUP2 DUP4 PUSH2 0x1F2E JUMP JUMPDEST CODESIZE PUSH2 0x7E4 JUMP JUMPDEST PUSH2 0x9C5 SWAP2 POP DUP5 RETURNDATASIZE DUP7 GT PUSH2 0x5CA JUMPI PUSH2 0x5BC DUP2 DUP4 PUSH2 0x1F2E JUMP JUMPDEST CODESIZE PUSH2 0x7B7 JUMP JUMPDEST PUSH1 0x40 MLOAD RETURNDATASIZE DUP8 DUP3 RETURNDATACOPY RETURNDATASIZE SWAP1 REVERT JUMPDEST POP CALLVALUE PUSH2 0x255 JUMPI PUSH1 0x40 CALLDATASIZE PUSH1 0x3 NOT ADD SLT PUSH2 0x255 JUMPI PUSH1 0x24 SWAP1 DUP2 CALLDATALOAD PUSH1 0x4 CALLDATALOAD PUSH1 0x6 DUP3 LT ISZERO PUSH2 0x5F0 JUMPI PUSH1 0x40 MLOAD PUSH4 0x95A8C58D PUSH1 0xE0 SHL DUP2 MSTORE PUSH1 0x20 SWAP3 SWAP1 PUSH32 0x0 PUSH1 0x1 PUSH1 0x1 PUSH1 0xA0 SHL SUB AND SWAP1 DUP5 DUP2 DUP1 PUSH2 0xA45 CALLER PUSH1 0x4 DUP4 ADD PUSH2 0x2058 JUMP JUMPDEST SUB DUP2 DUP6 GAS STATICCALL SWAP1 DUP2 ISZERO PUSH2 0xF05 JUMPI SWAP2 PUSH2 0xA66 DUP7 SWAP3 PUSH1 0x4 SWAP5 DUP10 SWAP2 PUSH2 0x9AE JUMPI POP PUSH2 0x2072 JUMP JUMPDEST PUSH1 0x40 MLOAD PUSH4 0x5C975ABB PUSH1 0xE0 SHL DUP2 MSTORE SWAP3 DUP4 SWAP2 DUP3 SWAP1 GAS STATICCALL SWAP1 DUP2 ISZERO PUSH2 0x9CB JUMPI SWAP1 PUSH2 0xA93 SWAP2 DUP7 SWAP2 PUSH2 0xEEE JUMPI POP ISZERO PUSH2 0x20CD JUMP JUMPDEST DUP2 DUP5 MSTORE PUSH1 0x1 SWAP3 DUP4 DUP2 MSTORE PUSH2 0xAAB PUSH1 0x40 DUP7 KECCAK256 SLOAD ISZERO ISZERO PUSH2 0x246C JUMP JUMPDEST DUP3 DUP6 MSTORE DUP4 DUP2 MSTORE PUSH1 0x40 DUP6 KECCAK256 PUSH1 0x5 DUP2 ADD PUSH1 0xFF DUP2 SLOAD AND SWAP6 PUSH1 0x6 DUP8 LT ISZERO PUSH2 0xE29 JUMPI DUP5 DUP8 EQ PUSH2 0xEAA JUMPI DUP8 PUSH1 0x4 DUP9 EQ ISZERO DUP1 PUSH2 0xE9D JUMPI JUMPDEST ISZERO PUSH2 0xE3C JUMPI PUSH2 0xE29 JUMPI DUP7 ISZERO DUP9 DUP2 ISZERO PUSH2 0xC97 JUMPI PUSH2 0xC84 JUMPI DUP2 DUP7 EQ DUP1 ISZERO PUSH2 0xC7A JUMPI JUMPDEST ISZERO PUSH2 0xC2B JUMPI PUSH2 0xB59 SWAP7 SWAP8 SWAP9 SWAP10 POP SWAP2 DUP6 SWAP2 PUSH2 0xB3E SWAP4 JUMPDEST ISZERO PUSH2 0xBDA JUMPI PUSH2 0xB20 PUSH1 0x7 SLOAD PUSH2 0x25EF JUMP JUMPDEST PUSH1 0x7 SSTORE JUMPDEST DUP3 PUSH2 0xB70 JUMPI POP PUSH2 0xB35 PUSH1 0x7 SLOAD PUSH2 0x2119 JUMP JUMPDEST PUSH1 0x7 SSTORE JUMPDEST PUSH2 0x2439 JUMP JUMPDEST PUSH1 0x7 TIMESTAMP SWAP2 ADD SSTORE PUSH2 0xB51 PUSH1 0x40 MLOAD DUP1 SWAP7 PUSH2 0x2003 JUMP JUMPDEST DUP5 ADD SWAP1 PUSH2 0x2003 JUMP JUMPDEST PUSH1 0x0 DUP1 MLOAD PUSH1 0x20 PUSH2 0x2670 DUP4 CODECOPY DUP2 MLOAD SWAP2 MSTORE PUSH1 0x40 CALLER SWAP4 LOG3 DUP1 RETURN JUMPDEST DUP3 SUB PUSH2 0xB89 JUMPI PUSH2 0xB81 PUSH1 0x8 SLOAD PUSH2 0x2119 JUMP JUMPDEST PUSH1 0x8 SSTORE PUSH2 0x2439 JUMP JUMPDEST PUSH1 0x2 DUP3 SUB PUSH2 0xBA4 JUMPI PUSH2 0xB9C PUSH1 0x9 SLOAD PUSH2 0x2119 JUMP JUMPDEST PUSH1 0x9 SSTORE PUSH2 0x2439 JUMP JUMPDEST PUSH1 0x3 DUP3 SUB PUSH2 0xBBF JUMPI PUSH2 0xBB7 PUSH1 0xA SLOAD PUSH2 0x2119 JUMP JUMPDEST PUSH1 0xA SSTORE PUSH2 0x2439 JUMP JUMPDEST PUSH1 0x4 DUP3 SUB PUSH2 0xB39 JUMPI PUSH2 0xBD2 PUSH1 0xB SLOAD PUSH2 0x2119 JUMP JUMPDEST PUSH1 0xB SSTORE PUSH2 0x2439 JUMP JUMPDEST DUP10 DUP2 SUB PUSH2 0xBF5 JUMPI PUSH2 0xBEC PUSH1 0x8 SLOAD PUSH2 0x25EF JUMP JUMPDEST PUSH1 0x8 SSTORE JUMPDEST PUSH2 0xB24 JUMP JUMPDEST PUSH1 0x2 DUP11 SUB PUSH2 0xC10 JUMPI PUSH2 0xC08 PUSH1 0x9 SLOAD PUSH2 0x25EF JUMP JUMPDEST PUSH1 0x9 SSTORE PUSH2 0xB24 JUMP JUMPDEST PUSH1 0x3 DUP11 SUB PUSH2 0xBF0 JUMPI PUSH2 0xC23 PUSH1 0xA SLOAD PUSH2 0x25EF JUMP JUMPDEST PUSH1 0xA SSTORE PUSH2 0xB24 JUMP JUMPDEST PUSH1 0x40 MLOAD PUSH3 0x461BCD PUSH1 0xE5 SHL DUP2 MSTORE PUSH1 0x4 DUP2 ADD DUP7 SWAP1 MSTORE PUSH1 0x34 DUP2 DUP13 ADD MSTORE PUSH1 0x0 DUP1 MLOAD PUSH1 0x20 PUSH2 0x2650 DUP4 CODECOPY DUP2 MLOAD SWAP2 MSTORE PUSH1 0x44 DUP3 ADD MSTORE PUSH20 0x6E736974696F6E2066726F6D2050454E44494E47 PUSH1 0x60 SHL PUSH1 0x64 DUP3 ADD MSTORE PUSH1 0x84 SWAP1 REVERT JUMPDEST POP PUSH1 0x4 DUP7 EQ PUSH2 0xAFB JUMP JUMPDEST PUSH4 0x4E487B71 PUSH1 0xE0 SHL DUP10 MSTORE PUSH1 0x21 PUSH1 0x4 MSTORE DUP10 DUP10 REVERT JUMPDEST POP DUP8 DUP3 SUB PUSH2 0xD24 JUMPI DUP9 PUSH2 0xC84 JUMPI PUSH1 0x2 DUP7 EQ DUP1 ISZERO PUSH2 0xD1A JUMPI JUMPDEST ISZERO PUSH2 0xCC8 JUMPI PUSH2 0xB59 SWAP7 SWAP8 SWAP9 SWAP10 POP SWAP2 DUP6 SWAP2 PUSH2 0xB3E SWAP4 PUSH2 0xB10 JUMP JUMPDEST PUSH1 0x40 MLOAD PUSH3 0x461BCD PUSH1 0xE5 SHL DUP2 MSTORE PUSH1 0x4 DUP2 ADD DUP7 SWAP1 MSTORE PUSH1 0x37 DUP2 DUP13 ADD MSTORE PUSH1 0x0 DUP1 MLOAD PUSH1 0x20 PUSH2 0x2650 DUP4 CODECOPY DUP2 MLOAD SWAP2 MSTORE PUSH1 0x44 DUP3 ADD MSTORE PUSH23 0x6E736974696F6E2066726F6D2050524F43455353494E47 PUSH1 0x48 SHL PUSH1 0x64 DUP3 ADD MSTORE PUSH1 0x84 SWAP1 REVERT JUMPDEST POP PUSH1 0x4 DUP7 EQ PUSH2 0xCAF JUMP JUMPDEST SWAP8 PUSH1 0x2 DUP9 SUB PUSH2 0xDAB JUMPI SWAP8 PUSH1 0x3 DUP7 EQ DUP1 ISZERO PUSH2 0xDA1 JUMPI JUMPDEST ISZERO PUSH2 0xD52 JUMPI PUSH2 0xB59 SWAP7 SWAP8 SWAP9 SWAP10 POP SWAP2 DUP6 SWAP2 PUSH2 0xB3E SWAP4 PUSH2 0xB10 JUMP JUMPDEST PUSH1 0x40 MLOAD PUSH3 0x461BCD PUSH1 0xE5 SHL DUP2 MSTORE PUSH1 0x4 DUP2 ADD DUP7 SWAP1 MSTORE PUSH1 0x34 DUP2 DUP13 ADD MSTORE PUSH1 0x0 DUP1 MLOAD PUSH1 0x20 PUSH2 0x2650 DUP4 CODECOPY DUP2 MLOAD SWAP2 MSTORE PUSH1 0x44 DUP3 ADD MSTORE PUSH20 0x1B9CDA5D1A5BDB88199C9BDB4814D21254141151 PUSH1 0x62 SHL PUSH1 0x64 DUP3 ADD MSTORE PUSH1 0x84 SWAP1 REVERT JUMPDEST POP PUSH1 0x5 DUP7 EQ PUSH2 0xD39 JUMP JUMPDEST SWAP8 SWAP9 PUSH1 0x3 DUP9 EQ PUSH2 0xDC9 JUMPI JUMPDEST POP PUSH2 0xB3E SWAP2 DUP6 SWAP2 PUSH2 0xB59 SWAP8 SWAP9 SWAP10 SWAP11 PUSH2 0xB10 JUMP JUMPDEST SWAP9 PUSH1 0x5 DUP7 SUB PUSH2 0xDD8 JUMPI SWAP9 PUSH2 0xDB6 JUMP JUMPDEST PUSH1 0x40 MLOAD PUSH3 0x461BCD PUSH1 0xE5 SHL DUP2 MSTORE PUSH1 0x4 DUP2 ADD DUP7 SWAP1 MSTORE PUSH1 0x36 DUP2 DUP13 ADD MSTORE PUSH1 0x0 DUP1 MLOAD PUSH1 0x20 PUSH2 0x2650 DUP4 CODECOPY DUP2 MLOAD SWAP2 MSTORE PUSH1 0x44 DUP3 ADD MSTORE PUSH22 0x1B9CDA5D1A5BDB88199C9BDB48111153125591549151 PUSH1 0x52 SHL PUSH1 0x64 DUP3 ADD MSTORE PUSH1 0x84 SWAP1 REVERT JUMPDEST PUSH4 0x4E487B71 PUSH1 0xE0 SHL DUP9 MSTORE PUSH1 0x21 PUSH1 0x4 MSTORE DUP9 DUP9 REVERT JUMPDEST PUSH1 0x40 MLOAD PUSH3 0x461BCD PUSH1 0xE5 SHL DUP2 MSTORE PUSH1 0x4 DUP2 ADD DUP7 SWAP1 MSTORE PUSH1 0x34 DUP2 DUP13 ADD MSTORE PUSH32 0x4F726465724D616E616765723A2063616E6E6F74207570646174652063616E63 PUSH1 0x44 DUP3 ADD MSTORE PUSH20 0x32B63632B217B932B33AB73232B21037B93232B9 PUSH1 0x61 SHL PUSH1 0x64 DUP3 ADD MSTORE PUSH1 0x84 SWAP1 REVERT JUMPDEST POP POP DUP8 PUSH1 0x5 DUP9 EQ ISZERO PUSH2 0xADB JUMP JUMPDEST PUSH1 0x40 MLOAD PUSH3 0x461BCD PUSH1 0xE5 SHL DUP2 MSTORE PUSH1 0x4 DUP2 ADD DUP6 SWAP1 MSTORE PUSH1 0x1E DUP2 DUP12 ADD MSTORE PUSH32 0x4F726465724D616E616765723A2073746174757320756E6368616E6765640000 PUSH1 0x44 DUP3 ADD MSTORE PUSH1 0x64 SWAP1 REVERT JUMPDEST PUSH2 0x9A8 SWAP2 POP DUP6 RETURNDATASIZE DUP8 GT PUSH2 0x5CA JUMPI PUSH2 0x5BC DUP2 DUP4 PUSH2 0x1F2E JUMP JUMPDEST PUSH1 0x40 MLOAD RETURNDATASIZE DUP9 DUP3 RETURNDATACOPY RETURNDATASIZE SWAP1 REVERT JUMPDEST POP CALLVALUE PUSH2 0x255 JUMPI PUSH1 0x60 CALLDATASIZE PUSH1 0x3 NOT ADD SLT PUSH2 0x255 JUMPI PUSH1 0x24 CALLDATALOAD PUSH1 0x1 PUSH1 0x1 PUSH1 0x40 SHL SUB DUP2 GT PUSH2 0x251 JUMPI PUSH2 0xF41 SWAP1 CALLDATASIZE SWAP1 PUSH1 0x4 ADD PUSH2 0x1F51 JUMP JUMPDEST PUSH1 0x1 PUSH1 0x1 PUSH1 0x40 SHL SUB PUSH1 0x44 CALLDATALOAD GT PUSH2 0x251 JUMPI CALLDATASIZE PUSH1 0x23 PUSH1 0x44 CALLDATALOAD ADD SLT ISZERO PUSH2 0x251 JUMPI PUSH1 0x44 CALLDATALOAD PUSH1 0x4 ADD CALLDATALOAD PUSH2 0xF6E DUP2 PUSH2 0x1FAC JUMP JUMPDEST SWAP1 PUSH2 0xF7C PUSH1 0x40 MLOAD SWAP3 DUP4 PUSH2 0x1F2E JUMP JUMPDEST DUP1 DUP3 MSTORE PUSH1 0x20 DUP3 ADD CALLDATASIZE PUSH1 0x24 DUP4 PUSH1 0x5 SHL PUSH1 0x44 CALLDATALOAD ADD ADD GT PUSH2 0x1998 JUMPI PUSH1 0x24 PUSH1 0x44 CALLDATALOAD ADD SWAP1 JUMPDEST PUSH1 0x24 DUP4 PUSH1 0x5 SHL PUSH1 0x44 CALLDATALOAD ADD ADD DUP3 LT PUSH2 0x18BE JUMPI POP POP PUSH1 0x40 MLOAD PUSH4 0x95A8C58D PUSH1 0xE0 SHL DUP2 MSTORE SWAP1 POP PUSH32 0x0 PUSH1 0x1 PUSH1 0x1 PUSH1 0xA0 SHL SUB AND PUSH1 0x20 DUP3 DUP1 PUSH2 0xFF9 CALLER PUSH1 0x4 DUP4 ADD PUSH2 0x2058 JUMP JUMPDEST SUB DUP2 DUP5 GAS STATICCALL SWAP1 DUP2 ISZERO PUSH2 0x9CB JUMPI PUSH2 0x101A PUSH1 0x20 SWAP3 PUSH1 0x4 SWAP5 DUP9 SWAP2 PUSH2 0x9AE JUMPI POP PUSH2 0x2072 JUMP JUMPDEST PUSH1 0x40 MLOAD PUSH4 0x5C975ABB PUSH1 0xE0 SHL DUP2 MSTORE SWAP3 DUP4 SWAP2 DUP3 SWAP1 GAS STATICCALL DUP1 ISZERO PUSH2 0x5D1 JUMPI PUSH2 0x1045 SWAP2 DUP6 SWAP2 PUSH2 0x18A5 JUMPI POP ISZERO PUSH2 0x20CD JUMP JUMPDEST DUP1 MLOAD ISZERO PUSH2 0x1854 JUMPI DUP2 MLOAD ISZERO PUSH2 0x1803 JUMPI PUSH2 0x105D DUP4 SLOAD PUSH2 0x2119 JUMP JUMPDEST DUP1 DUP5 SSTORE DUP4 DUP1 JUMPDEST DUP4 MLOAD DUP3 LT ISZERO PUSH2 0x11A6 JUMPI PUSH1 0x60 PUSH2 0x1078 DUP4 DUP7 PUSH2 0x213E JUMP JUMPDEST MLOAD ADD MLOAD ISZERO PUSH2 0x1161 JUMPI DUP3 DUP7 MSTORE PUSH1 0x2 PUSH1 0x20 MSTORE PUSH1 0x40 DUP7 KECCAK256 PUSH2 0x1096 DUP4 DUP7 PUSH2 0x213E JUMP JUMPDEST MLOAD DUP2 SLOAD SWAP1 SWAP2 PUSH1 0x1 PUSH1 0x40 SHL DUP3 LT ISZERO PUSH2 0x114D JUMPI PUSH1 0x1 DUP3 ADD DUP1 DUP3 SSTORE DUP3 LT ISZERO PUSH2 0x1139 JUMPI PUSH2 0x10E7 SWAP3 PUSH2 0x1133 SWAP5 SWAP3 PUSH2 0x10D2 SWAP3 DUP12 MSTORE PUSH1 0x6 PUSH1 0x20 DUP13 KECCAK256 SWAP2 MUL ADD PUSH2 0x21B9 JUMP JUMPDEST PUSH1 0xA0 PUSH2 0x10DE DUP6 DUP9 PUSH2 0x213E JUMP JUMPDEST MLOAD ADD MLOAD SWAP1 PUSH2 0x23E2 JUMP JUMPDEST SWAP2 PUSH2 0x10F2 DUP2 DUP7 PUSH2 0x213E JUMP JUMPDEST MLOAD MLOAD DUP5 PUSH32 0x8A1280FCA4A230513637A971F1744D0FAC074BB2CF3742F1FA0B07251651E0AD PUSH1 0x20 PUSH1 0x60 PUSH2 0x1124 DUP7 DUP12 PUSH2 0x213E JUMP JUMPDEST MLOAD ADD MLOAD PUSH1 0x40 MLOAD SWAP1 DUP2 MSTORE LOG3 PUSH2 0x2119 JUMP JUMPDEST SWAP1 PUSH2 0x1063 JUMP JUMPDEST PUSH4 0x4E487B71 PUSH1 0xE0 SHL DUP10 MSTORE PUSH1 0x32 PUSH1 0x4 MSTORE PUSH1 0x24 DUP10 REVERT JUMPDEST PUSH4 0x4E487B71 PUSH1 0xE0 SHL DUP10 MSTORE PUSH1 0x41 PUSH1 0x4 MSTORE PUSH1 0x24 DUP10 REVERT JUMPDEST PUSH1 0x40 MLOAD PUSH3 0x461BCD PUSH1 0xE5 SHL DUP2 MSTORE PUSH1 0x20 PUSH1 0x4 DUP3 ADD MSTORE PUSH1 0x1E PUSH1 0x24 DUP3 ADD MSTORE PUSH32 0x4F726465724D616E616765723A20696E76616C6964207175616E746974790000 PUSH1 0x44 DUP3 ADD MSTORE PUSH1 0x64 SWAP1 REVERT JUMPDEST DUP3 DUP6 DUP8 SWAP3 PUSH1 0x40 MLOAD PUSH1 0x20 DUP2 ADD SWAP1 DUP5 DUP3 MSTORE PUSH1 0x4 CALLDATALOAD PUSH1 0x40 DUP3 ADD MSTORE DUP3 PUSH1 0x60 DUP3 ADD MSTORE TIMESTAMP PUSH1 0x80 DUP3 ADD MSTORE CALLER PUSH1 0x60 SHL PUSH1 0xA0 DUP3 ADD MSTORE PUSH1 0x94 DUP2 MSTORE PUSH2 0x11DF DUP2 PUSH2 0x1EC7 JUMP JUMPDEST MLOAD SWAP1 KECCAK256 PUSH1 0x40 MLOAD SWAP3 PUSH2 0x11EF DUP5 PUSH2 0x1F13 JUMP JUMPDEST PUSH1 0x42 DUP5 MSTORE PUSH1 0x20 DUP5 ADD PUSH1 0x60 CALLDATASIZE DUP3 CALLDATACOPY DUP5 MLOAD ISZERO PUSH2 0x1507 JUMPI PUSH1 0x30 SWAP1 MSTORE8 DUP4 MLOAD PUSH1 0x1 LT ISZERO PUSH2 0x17EF JUMPI PUSH1 0x78 PUSH1 0x21 DUP6 ADD MSTORE8 DUP6 JUMPDEST PUSH1 0x20 DUP2 LT PUSH2 0x1759 JUMPI POP PUSH1 0x40 MLOAD PUSH1 0x20 DUP2 ADD PUSH1 0x1 PUSH1 0x1 PUSH1 0x40 SHL SUB DUP2 GT DUP3 DUP3 LT OR PUSH2 0x1745 JUMPI PUSH1 0x40 SWAP1 DUP2 MSTORE DUP8 DUP3 MSTORE MLOAD SWAP2 PUSH1 0x1 PUSH1 0x1 PUSH1 0x40 SHL SUB PUSH2 0x140 DUP5 ADD SWAP1 DUP2 GT SWAP1 DUP5 GT OR PUSH2 0x1745 JUMPI PUSH2 0x140 DUP4 ADD PUSH1 0x40 MSTORE DUP7 DUP4 MSTORE PUSH1 0x20 DUP4 ADD SWAP2 PUSH1 0x4 CALLDATALOAD DUP4 MSTORE PUSH1 0x40 DUP5 ADD SWAP2 DUP3 MSTORE PUSH1 0x60 DUP5 ADD MSTORE DUP5 PUSH1 0x80 DUP5 ADD MSTORE DUP8 PUSH1 0xA0 DUP5 ADD MSTORE TIMESTAMP PUSH1 0xC0 DUP5 ADD MSTORE TIMESTAMP PUSH1 0xE0 DUP5 ADD MSTORE DUP6 PUSH2 0x100 DUP5 ADD MSTORE DUP8 PUSH2 0x120 DUP5 ADD MSTORE DUP7 DUP9 MSTORE PUSH1 0x1 PUSH1 0x20 MSTORE PUSH1 0x40 DUP9 KECCAK256 SWAP2 DUP4 MLOAD DUP4 SSTORE MLOAD PUSH1 0x1 DUP4 ADD SSTORE MLOAD DUP1 MLOAD SWAP1 PUSH1 0x1 DUP1 PUSH1 0x40 SHL SUB DUP3 GT PUSH2 0x114D JUMPI DUP2 SWAP1 PUSH2 0x12DC PUSH1 0x2 DUP6 ADD SLOAD PUSH2 0x2168 JUMP JUMPDEST PUSH1 0x1F DUP2 GT PUSH2 0x1712 JUMPI JUMPDEST POP PUSH1 0x20 SWAP1 PUSH1 0x1F DUP4 GT PUSH1 0x1 EQ PUSH2 0x16A3 JUMPI DUP11 SWAP3 PUSH2 0x1698 JUMPI JUMPDEST POP POP DUP2 PUSH1 0x1 SHL SWAP2 PUSH1 0x0 NOT SWAP1 PUSH1 0x3 SHL SHR NOT AND OR PUSH1 0x2 DUP3 ADD SSTORE JUMPDEST PUSH1 0x60 DUP3 ADD MLOAD DUP1 MLOAD SWAP1 PUSH1 0x1 PUSH1 0x40 SHL DUP3 GT PUSH2 0x114D JUMPI PUSH1 0x3 DUP4 ADD SLOAD DUP3 PUSH1 0x3 DUP6 ADD SSTORE DUP1 DUP4 LT PUSH2 0x1612 JUMPI JUMPDEST POP PUSH1 0x20 ADD PUSH1 0x3 DUP4 ADD DUP10 MSTORE PUSH1 0x20 DUP10 KECCAK256 DUP10 SWAP2 JUMPDEST DUP4 DUP4 LT PUSH2 0x15F4 JUMPI POP POP POP POP PUSH1 0x80 DUP3 ADD MLOAD PUSH1 0x4 DUP3 ADD SSTORE PUSH1 0xA0 DUP3 ADD MLOAD PUSH1 0x6 DUP2 LT ISZERO PUSH2 0x15E0 JUMPI PUSH2 0x137A SWAP1 PUSH1 0x5 DUP4 ADD PUSH2 0x2439 JUMP JUMPDEST PUSH1 0xC0 DUP3 ADD MLOAD PUSH1 0x6 DUP3 ADD SSTORE PUSH1 0xE0 DUP3 ADD MLOAD PUSH1 0x7 DUP3 ADD SSTORE PUSH2 0x100 DUP3 ADD MLOAD DUP1 MLOAD PUSH1 0x1 PUSH1 0x1 PUSH1 0x40 SHL SUB DUP2 GT PUSH2 0x114D JUMPI PUSH1 0x8 DUP4 ADD SWAP2 PUSH2 0x13B3 DUP4 SLOAD PUSH2 0x2168 JUMP JUMPDEST PUSH1 0x1F DUP2 GT PUSH2 0x15A5 JUMPI JUMPDEST POP PUSH1 0x20 SWAP1 PUSH1 0x1F DUP4 GT PUSH1 0x1 EQ PUSH2 0x153A JUMPI SWAP2 DUP1 PUSH1 0x9 SWAP5 SWAP3 PUSH2 0x120 SWAP7 SWAP5 DUP14 SWAP3 PUSH2 0x152F JUMPI JUMPDEST POP POP DUP2 PUSH1 0x1 SHL SWAP2 PUSH1 0x0 NOT SWAP1 PUSH1 0x3 SHL SHR NOT AND OR SWAP1 SSTORE JUMPDEST ADD SWAP2 ADD MLOAD ISZERO ISZERO PUSH1 0xFF DUP1 NOT DUP4 SLOAD AND SWAP2 AND OR SWAP1 SSTORE PUSH1 0x4 CALLDATALOAD DUP6 MSTORE PUSH1 0x3 PUSH1 0x20 MSTORE PUSH1 0x40 DUP6 KECCAK256 DUP1 SLOAD SWAP1 PUSH1 0x1 PUSH1 0x40 SHL DUP3 LT ISZERO PUSH2 0x151B JUMPI PUSH1 0x1 DUP3 ADD DUP1 DUP3 SSTORE DUP3 LT ISZERO PUSH2 0x1507 JUMPI DUP7 MSTORE PUSH1 0x20 DUP7 KECCAK256 ADD DUP5 SWAP1 SSTORE PUSH1 0x4 SLOAD PUSH1 0x1 PUSH1 0x40 SHL DUP2 LT ISZERO PUSH2 0x14F3 JUMPI SWAP2 DUP5 PUSH1 0x40 PUSH1 0x20 SWAP8 PUSH32 0xFBA86B63F29512C0954255C52C425A587C4E5346933CF1C260091C732D7E819F SWAP5 PUSH2 0x1482 DUP8 PUSH1 0x1 DUP7 SWAP10 ADD PUSH1 0x4 SSTORE PUSH2 0x2451 JUMP JUMPDEST DUP2 SLOAD SWAP1 PUSH1 0x3 SHL SWAP1 DUP7 DUP3 SHL SWAP2 PUSH1 0x0 NOT SWAP1 SHL NOT AND OR SWAP1 SSTORE DUP2 MSTORE PUSH1 0x5 DUP10 MSTORE KECCAK256 SSTORE PUSH2 0x14AA PUSH1 0x6 SLOAD PUSH2 0x2119 JUMP JUMPDEST PUSH1 0x6 SSTORE PUSH2 0x14B8 PUSH1 0x7 SLOAD PUSH2 0x2119 JUMP JUMPDEST PUSH1 0x7 SSTORE PUSH2 0x14C7 DUP2 PUSH1 0xC SLOAD PUSH2 0x23E2 JUMP JUMPDEST PUSH1 0xC SSTORE PUSH1 0x40 MLOAD SWAP1 DUP2 MSTORE PUSH1 0x40 DUP7 DUP3 ADD MSTORE DUP1 PUSH2 0x14E8 PUSH1 0x4 CALLDATALOAD SWAP6 PUSH1 0x40 DUP4 ADD SWAP1 PUSH2 0x1FC3 JUMP JUMPDEST SUB SWAP1 LOG3 PUSH1 0x40 MLOAD SWAP1 DUP2 MSTORE RETURN JUMPDEST PUSH4 0x4E487B71 PUSH1 0xE0 SHL DUP7 MSTORE PUSH1 0x41 PUSH1 0x4 MSTORE PUSH1 0x24 DUP7 REVERT JUMPDEST PUSH4 0x4E487B71 PUSH1 0xE0 SHL DUP8 MSTORE PUSH1 0x32 PUSH1 0x4 MSTORE PUSH1 0x24 DUP8 REVERT JUMPDEST PUSH4 0x4E487B71 PUSH1 0xE0 SHL DUP8 MSTORE PUSH1 0x41 PUSH1 0x4 MSTORE PUSH1 0x24 DUP8 REVERT JUMPDEST ADD MLOAD SWAP1 POP DUP13 DUP1 PUSH2 0x13DD JUMP JUMPDEST DUP4 DUP12 MSTORE PUSH1 0x20 DUP12 KECCAK256 SWAP2 SWAP1 PUSH1 0x1F NOT DUP5 AND DUP13 JUMPDEST DUP2 DUP2 LT PUSH2 0x158D JUMPI POP SWAP3 PUSH1 0x1 SWAP3 DUP6 SWAP3 PUSH2 0x120 SWAP9 SWAP7 PUSH1 0x9 SWAP9 SWAP7 LT PUSH2 0x1574 JUMPI JUMPDEST POP POP POP DUP2 SHL ADD SWAP1 SSTORE PUSH2 0x13F2 JUMP JUMPDEST ADD MLOAD PUSH1 0x0 NOT PUSH1 0xF8 DUP5 PUSH1 0x3 SHL AND SHR NOT AND SWAP1 SSTORE DUP13 DUP1 DUP1 PUSH2 0x1567 JUMP JUMPDEST SWAP3 SWAP4 PUSH1 0x20 PUSH1 0x1 DUP2 SWAP3 DUP8 DUP7 ADD MLOAD DUP2 SSTORE ADD SWAP6 ADD SWAP4 ADD PUSH2 0x154A JUMP JUMPDEST PUSH2 0x15D0 SWAP1 DUP5 DUP13 MSTORE PUSH1 0x20 DUP13 KECCAK256 PUSH1 0x1F DUP6 ADD PUSH1 0x5 SHR DUP2 ADD SWAP2 PUSH1 0x20 DUP7 LT PUSH2 0x15D6 JUMPI JUMPDEST PUSH1 0x1F ADD PUSH1 0x5 SHR ADD SWAP1 PUSH2 0x21A2 JUMP JUMPDEST DUP11 PUSH2 0x13BC JUMP JUMPDEST SWAP1 SWAP2 POP DUP2 SWAP1 PUSH2 0x15C3 JUMP JUMPDEST PUSH4 0x4E487B71 PUSH1 0xE0 SHL DUP9 MSTORE PUSH1 0x21 PUSH1 0x4 MSTORE PUSH1 0x24 DUP9 REVERT JUMPDEST PUSH1 0x6 PUSH1 0x20 DUP3 PUSH2 0x1606 PUSH1 0x1 SWAP5 MLOAD DUP7 PUSH2 0x21B9 JUMP JUMPDEST ADD SWAP3 ADD SWAP3 ADD SWAP2 SWAP1 PUSH2 0x134A JUMP JUMPDEST PUSH1 0x6 DUP2 DUP2 MUL DIV DUP2 SUB PUSH2 0x1684 JUMPI PUSH1 0x6 DUP4 DUP2 MUL DIV DUP4 SUB PUSH2 0x1684 JUMPI PUSH1 0x3 DUP5 ADD DUP11 MSTORE PUSH1 0x20 DUP11 KECCAK256 DUP4 PUSH1 0x6 MUL DUP2 ADD JUMPDEST DUP3 PUSH1 0x6 MUL DUP3 ADD DUP2 LT PUSH2 0x164E JUMPI POP POP PUSH2 0x1339 JUMP JUMPDEST DUP1 DUP13 PUSH1 0x6 SWAP3 SSTORE PUSH2 0x1660 PUSH1 0x1 DUP3 ADD PUSH2 0x23EF JUMP JUMPDEST PUSH2 0x166C PUSH1 0x2 DUP3 ADD PUSH2 0x23EF JUMP JUMPDEST DUP13 PUSH1 0x3 DUP3 ADD SSTORE DUP13 PUSH1 0x4 DUP3 ADD SSTORE DUP13 PUSH1 0x5 DUP3 ADD SSTORE ADD PUSH2 0x163B JUMP JUMPDEST PUSH4 0x4E487B71 PUSH1 0xE0 SHL DUP11 MSTORE PUSH1 0x11 PUSH1 0x4 MSTORE PUSH1 0x24 DUP11 REVERT JUMPDEST ADD MLOAD SWAP1 POP DUP10 DUP1 PUSH2 0x12FB JUMP JUMPDEST SWAP3 POP PUSH1 0x2 DUP5 ADD DUP11 MSTORE PUSH1 0x20 DUP11 KECCAK256 SWAP1 DUP11 SWAP4 JUMPDEST PUSH1 0x1F NOT DUP5 AND DUP6 LT PUSH2 0x16F7 JUMPI PUSH1 0x1 SWAP5 POP DUP4 PUSH1 0x1F NOT DUP2 AND LT PUSH2 0x16DE JUMPI JUMPDEST POP POP POP DUP2 SHL ADD PUSH1 0x2 DUP3 ADD SSTORE PUSH2 0x1313 JUMP JUMPDEST ADD MLOAD PUSH1 0x0 NOT PUSH1 0xF8 DUP5 PUSH1 0x3 SHL AND SHR NOT AND SWAP1 SSTORE DUP10 DUP1 DUP1 PUSH2 0x16CE JUMP JUMPDEST DUP2 DUP2 ADD MLOAD DUP4 SSTORE PUSH1 0x20 SWAP5 DUP6 ADD SWAP5 PUSH1 0x1 SWAP1 SWAP4 ADD SWAP3 SWAP1 SWAP2 ADD SWAP1 PUSH2 0x16B3 JUMP JUMPDEST PUSH2 0x173F SWAP1 PUSH1 0x2 DUP7 ADD DUP13 MSTORE PUSH1 0x20 DUP13 KECCAK256 PUSH1 0x1F DUP6 ADD PUSH1 0x5 SHR DUP2 ADD SWAP2 PUSH1 0x20 DUP7 LT PUSH2 0x15D6 JUMPI PUSH1 0x1F ADD PUSH1 0x5 SHR ADD SWAP1 PUSH2 0x21A2 JUMP JUMPDEST DUP11 PUSH2 0x12E5 JUMP JUMPDEST PUSH4 0x4E487B71 PUSH1 0xE0 SHL DUP9 MSTORE PUSH1 0x41 PUSH1 0x4 MSTORE PUSH1 0x24 DUP9 REVERT JUMPDEST PUSH2 0x176A PUSH1 0xF DUP5 DUP4 BYTE PUSH1 0x4 SHR AND PUSH2 0x260D JUMP JUMPDEST PUSH1 0x2 SWAP1 DUP3 DUP1 PUSH1 0x1 SHL DIV DUP3 EQ DUP4 ISZERO OR ISZERO PUSH2 0x17DB JUMPI DUP3 PUSH1 0x1 SHL DUP3 ADD DUP3 GT PUSH2 0x17DB JUMPI PUSH2 0x179B SWAP1 DUP10 BYTE SWAP2 DUP4 PUSH1 0x1 SHL ADD DUP8 PUSH2 0x25FC JUMP JUMPDEST MSTORE8 PUSH2 0x17AA PUSH1 0xF DUP5 DUP4 BYTE AND PUSH2 0x260D JUMP JUMPDEST PUSH1 0x3 SWAP1 DUP3 PUSH1 0x1 SHL DUP3 ADD DUP3 GT PUSH2 0x17DB JUMPI SWAP1 PUSH2 0x17D0 PUSH2 0x17D6 SWAP4 SWAP3 DUP11 BYTE SWAP2 DUP4 PUSH1 0x1 SHL ADD DUP9 PUSH2 0x25FC JUMP JUMPDEST MSTORE8 PUSH2 0x2119 JUMP JUMPDEST PUSH2 0x121A JUMP JUMPDEST PUSH4 0x4E487B71 PUSH1 0xE0 SHL DUP10 MSTORE PUSH1 0x11 PUSH1 0x4 MSTORE PUSH1 0x24 DUP10 REVERT JUMPDEST PUSH4 0x4E487B71 PUSH1 0xE0 SHL DUP7 MSTORE PUSH1 0x32 PUSH1 0x4 MSTORE PUSH1 0x24 DUP7 REVERT JUMPDEST PUSH1 0x40 MLOAD PUSH3 0x461BCD PUSH1 0xE5 SHL DUP2 MSTORE PUSH1 0x20 PUSH1 0x4 DUP3 ADD MSTORE PUSH1 0x24 DUP1 DUP3 ADD MSTORE PUSH32 0x4F726465724D616E616765723A20637573746F6D6572206E616D652072657175 PUSH1 0x44 DUP3 ADD MSTORE PUSH4 0x1A5C9959 PUSH1 0xE2 SHL PUSH1 0x64 DUP3 ADD MSTORE PUSH1 0x84 SWAP1 REVERT JUMPDEST PUSH1 0x40 MLOAD PUSH3 0x461BCD PUSH1 0xE5 SHL DUP2 MSTORE PUSH1 0x20 PUSH1 0x4 DUP3 ADD MSTORE PUSH1 0x23 PUSH1 0x24 DUP3 ADD MSTORE PUSH32 0x4F726465724D616E616765723A206F72646572206D7573742068617665206974 PUSH1 0x44 DUP3 ADD MSTORE PUSH3 0x656D73 PUSH1 0xE8 SHL PUSH1 0x64 DUP3 ADD MSTORE PUSH1 0x84 SWAP1 REVERT JUMPDEST PUSH2 0x9A8 SWAP2 POP PUSH1 0x20 RETURNDATASIZE PUSH1 0x20 GT PUSH2 0x5CA JUMPI PUSH2 0x5BC DUP2 DUP4 PUSH2 0x1F2E JUMP JUMPDEST DUP2 CALLDATALOAD PUSH1 0x1 PUSH1 0x1 PUSH1 0x40 SHL SUB DUP2 GT PUSH2 0x1994 JUMPI PUSH1 0xC0 PUSH1 0x44 CALLDATALOAD DUP3 ADD CALLDATASIZE SUB PUSH1 0x23 NOT ADD SLT PUSH2 0x1994 JUMPI PUSH1 0x40 MLOAD SWAP1 PUSH2 0x18ED DUP3 PUSH2 0x1EC7 JUMP JUMPDEST PUSH1 0x44 DUP1 CALLDATALOAD DUP3 ADD PUSH1 0x24 DUP2 ADD CALLDATALOAD DUP5 MSTORE PUSH1 0x1 PUSH1 0x1 PUSH1 0x40 SHL SUB SWAP2 ADD CALLDATALOAD GT PUSH2 0x1990 JUMPI PUSH2 0x1921 CALLDATASIZE PUSH1 0x44 DUP1 CALLDATALOAD DUP5 ADD SWAP1 DUP2 ADD CALLDATALOAD ADD PUSH1 0x24 ADD PUSH2 0x1F51 JUMP JUMPDEST PUSH1 0x20 DUP4 ADD MSTORE PUSH1 0x1 PUSH1 0x1 PUSH1 0x40 SHL SUB PUSH1 0x44 CALLDATALOAD DUP3 ADD PUSH1 0x64 ADD CALLDATALOAD GT PUSH2 0x1990 JUMPI PUSH1 0x24 SWAP3 PUSH1 0x20 SWAP3 DUP4 SWAP3 PUSH1 0xC4 SWAP1 PUSH2 0x195D CALLDATASIZE PUSH1 0x44 CALLDATALOAD DUP4 ADD PUSH1 0x64 DUP2 ADD CALLDATALOAD ADD DUP10 ADD PUSH2 0x1F51 JUMP JUMPDEST PUSH1 0x40 DUP5 ADD MSTORE PUSH1 0x44 CALLDATALOAD ADD PUSH1 0x84 DUP2 ADD CALLDATALOAD PUSH1 0x60 DUP5 ADD MSTORE PUSH1 0xA4 DUP2 ADD CALLDATALOAD PUSH1 0x80 DUP5 ADD MSTORE ADD CALLDATALOAD PUSH1 0xA0 DUP3 ADD MSTORE DUP2 MSTORE SWAP2 SWAP1 SWAP4 ADD SWAP3 ADD SWAP1 POP PUSH2 0xF9C JUMP JUMPDEST DUP8 DUP1 REVERT JUMPDEST DUP7 DUP1 REVERT JUMPDEST DUP5 DUP1 REVERT JUMPDEST POP CALLVALUE PUSH2 0x255 JUMPI DUP1 PUSH1 0x3 NOT CALLDATASIZE ADD SLT PUSH2 0x255 JUMPI PUSH1 0x20 PUSH1 0x4 SLOAD PUSH1 0x40 MLOAD SWAP1 DUP2 MSTORE RETURN JUMPDEST POP CALLVALUE PUSH2 0x255 JUMPI PUSH1 0x20 DUP1 PUSH1 0x3 NOT CALLDATASIZE ADD SLT PUSH2 0x251 JUMPI PUSH1 0x4 CALLDATALOAD PUSH1 0x6 SWAP2 DUP3 DUP3 LT ISZERO SWAP3 DUP4 PUSH2 0x1998 JUMPI PUSH1 0x4 SLOAD SWAP3 DUP6 DUP1 JUMPDEST DUP6 DUP2 LT PUSH2 0x1A96 JUMPI POP PUSH2 0x19F5 SWAP1 PUSH2 0x25BD JUMP JUMPDEST SWAP5 DUP7 SWAP3 DUP8 JUMPDEST DUP7 DUP2 LT PUSH2 0x1A0F JUMPI PUSH1 0x40 MLOAD DUP1 PUSH2 0x3B8 DUP11 DUP3 PUSH2 0x1E8C JUMP JUMPDEST PUSH2 0x1A18 DUP2 PUSH2 0x2451 JUMP JUMPDEST SWAP1 SLOAD PUSH1 0x3 SWAP2 DUP3 SHL SHR DUP11 MSTORE PUSH1 0x1 DUP8 MSTORE PUSH1 0x40 DUP11 KECCAK256 PUSH1 0x5 ADD SLOAD PUSH1 0xFF AND DUP5 PUSH2 0x1A82 JUMPI DUP4 DUP2 LT ISZERO PUSH2 0x1A82 JUMPI DUP6 EQ PUSH2 0x1A54 JUMPI JUMPDEST POP PUSH2 0x1A4F SWAP1 PUSH2 0x2119 JUMP JUMPDEST PUSH2 0x19FA JUMP JUMPDEST DUP2 SWAP6 PUSH2 0x1A7B SWAP2 PUSH2 0x1A66 PUSH2 0x1A4F SWAP5 PUSH2 0x2451 JUMP JUMPDEST SWAP1 SLOAD SWAP2 SHL SHR PUSH2 0x1A75 DUP3 DUP13 PUSH2 0x213E JUMP JUMPDEST MSTORE PUSH2 0x2119 JUMP JUMPDEST SWAP5 SWAP1 PUSH2 0x1A45 JUMP JUMPDEST PUSH4 0x4E487B71 PUSH1 0xE0 SHL DUP12 MSTORE PUSH1 0x21 PUSH1 0x4 MSTORE PUSH1 0x24 DUP12 REVERT JUMPDEST PUSH2 0x1A9F DUP2 PUSH2 0x2451 JUMP JUMPDEST SWAP1 SLOAD SWAP1 PUSH1 0x3 SHL SHR DUP9 MSTORE PUSH1 0x1 DUP6 MSTORE DUP7 PUSH1 0xFF PUSH1 0x5 PUSH1 0x40 DUP12 KECCAK256 ADD SLOAD AND SWAP1 PUSH2 0x1AEF JUMPI DUP5 DUP2 LT ISZERO PUSH2 0x1AEF JUMPI DUP4 EQ PUSH2 0x1ADA JUMPI JUMPDEST PUSH2 0x1AD5 SWAP1 PUSH2 0x2119 JUMP JUMPDEST PUSH2 0x19E4 JUMP JUMPDEST SWAP1 PUSH2 0x1AE7 PUSH2 0x1AD5 SWAP2 PUSH2 0x2119 JUMP JUMPDEST SWAP2 SWAP1 POP PUSH2 0x1ACC JUMP JUMPDEST PUSH4 0x4E487B71 PUSH1 0xE0 SHL DUP10 MSTORE PUSH1 0x21 PUSH1 0x4 MSTORE PUSH1 0x24 DUP10 REVERT JUMPDEST POP CALLVALUE PUSH2 0x255 JUMPI DUP1 PUSH1 0x3 NOT CALLDATASIZE ADD SLT PUSH2 0x255 JUMPI PUSH1 0x40 MLOAD PUSH1 0x4 DUP1 SLOAD DUP1 DUP4 MSTORE SWAP1 DUP4 MSTORE PUSH1 0x20 DUP1 DUP4 ADD SWAP4 PUSH32 0x8A35ACFBC15FF81A39AE7D344FD709F28E8600B4AA8C65C6B64BFE7FE36BD19B SWAP3 SWAP2 JUMPDEST DUP3 DUP3 LT PUSH2 0x1B62 JUMPI PUSH2 0x3B8 DUP6 PUSH2 0x3AC DUP2 DUP10 SUB DUP3 PUSH2 0x1F2E JUMP JUMPDEST DUP4 SLOAD DUP7 MSTORE SWAP5 DUP6 ADD SWAP5 PUSH1 0x1 SWAP4 DUP5 ADD SWAP4 SWAP1 SWAP2 ADD SWAP1 PUSH2 0x1B4B JUMP JUMPDEST POP CALLVALUE PUSH2 0x255 JUMPI PUSH1 0x20 CALLDATASIZE PUSH1 0x3 NOT ADD SLT PUSH2 0x255 JUMPI PUSH1 0x4 DUP1 SLOAD SWAP2 SWAP1 CALLDATALOAD DUP3 DUP2 GT ISZERO PUSH2 0x1C26 JUMPI POP DUP2 JUMPDEST PUSH2 0x1BA6 DUP2 PUSH2 0x25BD JUMP JUMPDEST PUSH1 0x0 NOT DUP1 DUP6 ADD SWAP5 SWAP2 SWAP4 SWAP2 DUP1 DUP7 GT DUP4 JUMPDEST DUP6 DUP2 LT PUSH2 0x1BCA JUMPI PUSH1 0x40 MLOAD DUP1 PUSH2 0x3B8 DUP10 DUP3 PUSH2 0x1E8C JUMP JUMPDEST DUP2 PUSH2 0x1C12 JUMPI DUP4 DUP2 DUP5 SUB ADD DUP9 DUP2 GT PUSH2 0x1BFE JUMPI SWAP1 PUSH2 0x1BE8 PUSH2 0x1BF9 SWAP3 PUSH2 0x2451 JUMP JUMPDEST SWAP1 SLOAD SWAP1 PUSH1 0x3 SHL SHR PUSH2 0x1A75 DUP3 DUP11 PUSH2 0x213E JUMP JUMPDEST PUSH2 0x1BB5 JUMP JUMPDEST PUSH4 0x4E487B71 PUSH1 0xE0 SHL DUP7 MSTORE PUSH1 0x11 PUSH1 0x4 MSTORE PUSH1 0x24 DUP7 REVERT JUMPDEST PUSH4 0x4E487B71 PUSH1 0xE0 SHL DUP6 MSTORE PUSH1 0x11 PUSH1 0x4 MSTORE PUSH1 0x24 DUP6 REVERT JUMPDEST PUSH2 0x1B9D JUMP JUMPDEST POP CALLVALUE PUSH2 0x255 JUMPI PUSH1 0x20 DUP1 PUSH1 0x3 NOT CALLDATASIZE ADD SLT PUSH2 0x251 JUMPI PUSH1 0x4 CALLDATALOAD PUSH1 0x40 MLOAD PUSH4 0x95A8C58D PUSH1 0xE0 SHL DUP2 MSTORE DUP3 DUP2 DUP1 PUSH2 0x1C5E CALLER PUSH1 0x4 DUP4 ADD PUSH2 0x203E JUMP JUMPDEST SUB DUP2 PUSH32 0x0 PUSH1 0x1 PUSH1 0x1 PUSH1 0xA0 SHL SUB AND GAS STATICCALL DUP1 ISZERO PUSH2 0x5D1 JUMPI PUSH2 0x1CA2 SWAP2 DUP6 SWAP2 PUSH2 0x5A4 JUMPI POP PUSH2 0x24C3 JUMP JUMPDEST DUP1 DUP4 MSTORE PUSH1 0x1 DUP3 MSTORE PUSH2 0x1CB8 PUSH1 0x40 DUP5 KECCAK256 SLOAD ISZERO ISZERO PUSH2 0x246C JUMP JUMPDEST DUP1 DUP4 MSTORE PUSH1 0x1 DUP3 MSTORE PUSH1 0x40 DUP4 KECCAK256 SWAP2 PUSH1 0x9 DUP4 ADD SWAP3 DUP4 SLOAD SWAP4 PUSH1 0xFF DUP6 AND PUSH2 0x1D4B JUMPI SWAP1 PUSH1 0x0 DUP1 MLOAD PUSH1 0x20 PUSH2 0x2690 DUP4 CODECOPY DUP2 MLOAD SWAP2 MSTORE SWAP3 SWAP2 PUSH1 0x1 DUP3 SLOAD DUP2 DUP5 ADD SLOAD PUSH1 0x4 DUP6 ADD SLOAD PUSH1 0x6 DUP7 ADD SLOAD SWAP1 PUSH1 0x40 MLOAD SWAP3 DUP9 DUP5 ADD SWAP5 DUP6 MSTORE PUSH1 0x40 DUP5 ADD MSTORE PUSH1 0x60 DUP4 ADD MSTORE PUSH1 0x80 DUP3 ADD MSTORE TIMESTAMP PUSH1 0xA0 DUP3 ADD MSTORE CALLER PUSH1 0x60 SHL PUSH1 0xC0 DUP3 ADD MSTORE PUSH1 0xB4 DUP2 MSTORE PUSH2 0x1D2E DUP2 PUSH2 0x1EF8 JUMP JUMPDEST MLOAD SWAP1 KECCAK256 SWAP7 PUSH1 0xFF NOT AND OR SWAP1 SSTORE PUSH1 0x7 TIMESTAMP SWAP2 ADD SSTORE PUSH1 0x40 MLOAD SWAP4 DUP5 MSTORE CALLER SWAP4 LOG3 DUP1 RETURN JUMPDEST PUSH1 0x40 MLOAD PUSH3 0x461BCD PUSH1 0xE5 SHL DUP2 MSTORE PUSH1 0x4 DUP2 ADD DUP5 SWAP1 MSTORE PUSH1 0x24 DUP1 DUP3 ADD MSTORE PUSH32 0x4F726465724D616E616765723A206F7264657220616C72656164792076657269 PUSH1 0x44 DUP3 ADD MSTORE PUSH4 0x199A5959 PUSH1 0xE2 SHL PUSH1 0x64 DUP3 ADD MSTORE PUSH1 0x84 SWAP1 REVERT JUMPDEST POP CALLVALUE PUSH2 0x255 JUMPI PUSH1 0x40 CALLDATASIZE PUSH1 0x3 NOT ADD SLT PUSH2 0x255 JUMPI PUSH1 0x4 CALLDATALOAD SWAP1 DUP2 DUP2 MSTORE PUSH1 0x1 SWAP1 PUSH1 0x20 SWAP3 DUP3 DUP5 MSTORE PUSH2 0x1DCD PUSH1 0x40 DUP4 KECCAK256 SLOAD ISZERO ISZERO PUSH2 0x246C JUMP JUMPDEST DUP2 MSTORE DUP2 DUP4 MSTORE DUP3 PUSH1 0x8 PUSH1 0x40 DUP4 KECCAK256 ADD PUSH1 0x40 MLOAD SWAP4 DUP5 SWAP2 DUP4 DUP4 ADD SWAP5 DUP1 SWAP3 DUP3 SLOAD SWAP3 PUSH2 0x1DF2 DUP5 PUSH2 0x2168 JUMP JUMPDEST SWAP4 DUP3 DUP2 AND SWAP1 DUP2 ISZERO PUSH2 0x1E6A JUMPI POP PUSH1 0x1 EQ PUSH2 0x1E2D JUMPI JUMPDEST POP POP POP POP PUSH2 0x1E1D SWAP3 POP SUB PUSH1 0x1F NOT DUP2 ADD DUP5 MSTORE DUP4 PUSH2 0x1F2E JUMP JUMPDEST PUSH1 0x24 CALLDATALOAD SWAP2 MLOAD SWAP1 KECCAK256 EQ PUSH1 0x40 MLOAD SWAP1 DUP2 MSTORE RETURN JUMPDEST SWAP1 SWAP2 DUP1 SWAP4 SWAP5 POP MSTORE DUP5 DUP3 KECCAK256 JUMPDEST DUP4 DUP4 LT PUSH2 0x1E54 JUMPI POP POP POP SWAP2 PUSH2 0x1E1D SWAP3 DUP3 ADD ADD DUP6 SWAP3 CODESIZE DUP1 DUP1 PUSH2 0x1E06 JUMP JUMPDEST DUP1 SLOAD DUP9 DUP5 ADD DUP8 ADD MSTORE DUP8 SWAP5 POP SWAP2 DUP6 ADD SWAP2 DUP2 ADD PUSH2 0x1E38 JUMP JUMPDEST SWAP4 POP POP POP POP PUSH2 0x1E1D SWAP5 SWAP3 POP PUSH1 0xFF NOT AND DUP6 MSTORE DUP1 ISZERO ISZERO MUL DUP3 ADD ADD DUP6 SWAP3 CODESIZE DUP1 DUP1 PUSH2 0x1E06 JUMP JUMPDEST PUSH1 0x20 SWAP1 DUP2 PUSH1 0x40 DUP2 DUP4 ADD SWAP3 DUP3 DUP2 MSTORE DUP6 MLOAD DUP1 SWAP5 MSTORE ADD SWAP4 ADD SWAP2 PUSH1 0x0 JUMPDEST DUP3 DUP2 LT PUSH2 0x1EB3 JUMPI POP POP POP POP SWAP1 JUMP JUMPDEST DUP4 MLOAD DUP6 MSTORE SWAP4 DUP2 ADD SWAP4 SWAP3 DUP2 ADD SWAP3 PUSH1 0x1 ADD PUSH2 0x1EA5 JUMP JUMPDEST PUSH1 0xC0 DUP2 ADD SWAP1 DUP2 LT PUSH1 0x1 PUSH1 0x1 PUSH1 0x40 SHL SUB DUP3 GT OR PUSH2 0x1EE2 JUMPI PUSH1 0x40 MSTORE JUMP JUMPDEST PUSH4 0x4E487B71 PUSH1 0xE0 SHL PUSH1 0x0 MSTORE PUSH1 0x41 PUSH1 0x4 MSTORE PUSH1 0x24 PUSH1 0x0 REVERT JUMPDEST PUSH1 0xE0 DUP2 ADD SWAP1 DUP2 LT PUSH1 0x1 PUSH1 0x1 PUSH1 0x40 SHL SUB DUP3 GT OR PUSH2 0x1EE2 JUMPI PUSH1 0x40 MSTORE JUMP JUMPDEST PUSH1 0x80 DUP2 ADD SWAP1 DUP2 LT PUSH1 0x1 PUSH1 0x1 PUSH1 0x40 SHL SUB DUP3 GT OR PUSH2 0x1EE2 JUMPI PUSH1 0x40 MSTORE JUMP JUMPDEST PUSH1 0x1F SWAP1 SWAP2 ADD PUSH1 0x1F NOT AND DUP2 ADD SWAP1 PUSH1 0x1 PUSH1 0x1 PUSH1 0x40 SHL SUB DUP3 GT SWAP1 DUP3 LT OR PUSH2 0x1EE2 JUMPI PUSH1 0x40 MSTORE JUMP JUMPDEST DUP2 PUSH1 0x1F DUP3 ADD SLT ISZERO PUSH2 0x1FA7 JUMPI DUP1 CALLDATALOAD SWAP1 PUSH1 0x1 PUSH1 0x1 PUSH1 0x40 SHL SUB DUP3 GT PUSH2 0x1EE2 JUMPI PUSH1 0x40 MLOAD SWAP3 PUSH2 0x1F85 PUSH1 0x1F DUP5 ADD PUSH1 0x1F NOT AND PUSH1 0x20 ADD DUP6 PUSH2 0x1F2E JUMP JUMPDEST DUP3 DUP5 MSTORE PUSH1 0x20 DUP4 DUP4 ADD ADD GT PUSH2 0x1FA7 JUMPI DUP2 PUSH1 0x0 SWAP3 PUSH1 0x20 DUP1 SWAP4 ADD DUP4 DUP7 ADD CALLDATACOPY DUP4 ADD ADD MSTORE SWAP1 JUMP JUMPDEST PUSH1 0x0 DUP1 REVERT JUMPDEST PUSH1 0x1 PUSH1 0x1 PUSH1 0x40 SHL SUB DUP2 GT PUSH2 0x1EE2 JUMPI PUSH1 0x5 SHL PUSH1 0x20 ADD SWAP1 JUMP JUMPDEST SWAP2 SWAP1 DUP3 MLOAD SWAP3 DUP4 DUP3 MSTORE PUSH1 0x0 JUMPDEST DUP5 DUP2 LT PUSH2 0x1FEF JUMPI POP POP DUP3 PUSH1 0x0 PUSH1 0x20 DUP1 SWAP5 SWAP6 DUP5 ADD ADD MSTORE PUSH1 0x1F DUP1 NOT SWAP2 ADD AND ADD ADD SWAP1 JUMP JUMPDEST PUSH1 0x20 DUP2 DUP4 ADD DUP2 ADD MLOAD DUP5 DUP4 ADD DUP3 ADD MSTORE ADD PUSH2 0x1FCE JUMP JUMPDEST SWAP1 PUSH1 0x6 DUP3 LT ISZERO PUSH2 0x2010 JUMPI MSTORE JUMP JUMPDEST PUSH4 0x4E487B71 PUSH1 0xE0 SHL PUSH1 0x0 MSTORE PUSH1 0x21 PUSH1 0x4 MSTORE PUSH1 0x24 PUSH1 0x0 REVERT JUMPDEST SWAP1 DUP2 PUSH1 0x20 SWAP2 SUB SLT PUSH2 0x1FA7 JUMPI MLOAD DUP1 ISZERO ISZERO DUP2 SUB PUSH2 0x1FA7 JUMPI SWAP1 JUMP JUMPDEST PUSH1 0x1 PUSH1 0x1 PUSH1 0xA0 SHL SUB SWAP1 SWAP2 AND DUP2 MSTORE PUSH1 0x3 PUSH1 0x20 DUP3 ADD MSTORE PUSH1 0x40 ADD SWAP1 JUMP JUMPDEST PUSH1 0x1 PUSH1 0x1 PUSH1 0xA0 SHL SUB SWAP1 SWAP2 AND DUP2 MSTORE PUSH1 0x2 PUSH1 0x20 DUP3 ADD MSTORE PUSH1 0x40 ADD SWAP1 JUMP JUMPDEST ISZERO PUSH2 0x2079 JUMPI JUMP JUMPDEST PUSH1 0x40 MLOAD PUSH3 0x461BCD PUSH1 0xE5 SHL DUP2 MSTORE PUSH1 0x20 PUSH1 0x4 DUP3 ADD MSTORE PUSH1 0x26 PUSH1 0x24 DUP3 ADD MSTORE PUSH32 0x4F726465724D616E616765723A20696E73756666696369656E74207065726D69 PUSH1 0x44 DUP3 ADD MSTORE PUSH6 0x7373696F6E73 PUSH1 0xD0 SHL PUSH1 0x64 DUP3 ADD MSTORE PUSH1 0x84 SWAP1 REVERT JUMPDEST ISZERO PUSH2 0x20D4 JUMPI JUMP JUMPDEST PUSH1 0x40 MLOAD PUSH3 0x461BCD PUSH1 0xE5 SHL DUP2 MSTORE PUSH1 0x20 PUSH1 0x4 DUP3 ADD MSTORE PUSH1 0x1E PUSH1 0x24 DUP3 ADD MSTORE PUSH32 0x4F726465724D616E616765723A2073797374656D206973207061757365640000 PUSH1 0x44 DUP3 ADD MSTORE PUSH1 0x64 SWAP1 REVERT JUMPDEST PUSH1 0x0 NOT DUP2 EQ PUSH2 0x2128 JUMPI PUSH1 0x1 ADD SWAP1 JUMP JUMPDEST PUSH4 0x4E487B71 PUSH1 0xE0 SHL PUSH1 0x0 MSTORE PUSH1 0x11 PUSH1 0x4 MSTORE PUSH1 0x24 PUSH1 0x0 REVERT JUMPDEST DUP1 MLOAD DUP3 LT ISZERO PUSH2 0x2152 JUMPI PUSH1 0x20 SWAP2 PUSH1 0x5 SHL ADD ADD SWAP1 JUMP JUMPDEST PUSH4 0x4E487B71 PUSH1 0xE0 SHL PUSH1 0x0 MSTORE PUSH1 0x32 PUSH1 0x4 MSTORE PUSH1 0x24 PUSH1 0x0 REVERT JUMPDEST SWAP1 PUSH1 0x1 DUP3 DUP2 SHR SWAP3 AND DUP1 ISZERO PUSH2 0x2198 JUMPI JUMPDEST PUSH1 0x20 DUP4 LT EQ PUSH2 0x2182 JUMPI JUMP JUMPDEST PUSH4 0x4E487B71 PUSH1 0xE0 SHL PUSH1 0x0 MSTORE PUSH1 0x22 PUSH1 0x4 MSTORE PUSH1 0x24 PUSH1 0x0 REVERT JUMPDEST SWAP2 PUSH1 0x7F AND SWAP2 PUSH2 0x2177 JUMP JUMPDEST DUP2 DUP2 LT PUSH2 0x21AD JUMPI POP POP JUMP JUMPDEST PUSH1 0x0 DUP2 SSTORE PUSH1 0x1 ADD PUSH2 0x21A2 JUMP JUMPDEST DUP2 MLOAD DUP2 SSTORE PUSH1 0x20 DUP1 DUP4 ADD MLOAD DUP1 MLOAD SWAP3 SWAP4 SWAP2 SWAP3 PUSH1 0x1 PUSH1 0x1 PUSH1 0x40 SHL SUB SWAP1 PUSH1 0x1 SWAP1 DUP2 DUP8 ADD SWAP1 DUP4 DUP2 GT PUSH2 0x1EE2 JUMPI DUP1 PUSH2 0x21EB DUP4 SLOAD PUSH2 0x2168 JUMP JUMPDEST SWAP6 PUSH1 0x1F SWAP7 DUP8 DUP2 GT PUSH2 0x23B4 JUMPI JUMPDEST POP DUP9 SWAP1 DUP8 DUP4 GT PUSH1 0x1 EQ PUSH2 0x2351 JUMPI PUSH1 0x0 SWAP3 PUSH2 0x2346 JUMPI JUMPDEST POP POP PUSH1 0x0 NOT PUSH1 0x3 DUP4 SWAP1 SHL SHR NOT AND SWAP1 DUP4 SHL OR SWAP1 SSTORE JUMPDEST PUSH1 0x2 DUP7 ADD SWAP3 PUSH1 0x40 DUP6 ADD MLOAD SWAP6 DUP7 MLOAD SWAP4 DUP5 GT PUSH2 0x1EE2 JUMPI PUSH2 0x223E DUP6 SLOAD PUSH2 0x2168 JUMP JUMPDEST DUP3 DUP2 GT PUSH2 0x230E JUMPI JUMPDEST POP DUP1 SWAP2 DUP5 GT PUSH1 0x1 EQ PUSH2 0x229F JUMPI POP SWAP2 DUP1 DUP1 SWAP3 PUSH1 0xA0 SWAP7 SWAP6 SWAP5 PUSH1 0x5 SWAP9 PUSH1 0x0 SWAP5 PUSH2 0x2294 JUMPI JUMPDEST POP POP SHL SWAP2 PUSH1 0x0 NOT SWAP1 PUSH1 0x3 SHL SHR NOT AND OR SWAP1 SSTORE JUMPDEST PUSH1 0x60 DUP2 ADD MLOAD PUSH1 0x3 DUP6 ADD SSTORE PUSH1 0x80 DUP2 ADD MLOAD PUSH1 0x4 DUP6 ADD SSTORE ADD MLOAD SWAP2 ADD SSTORE JUMP JUMPDEST ADD MLOAD SWAP3 POP CODESIZE DUP1 PUSH2 0x2267 JUMP JUMPDEST SWAP2 SWAP4 SWAP5 SWAP6 PUSH1 0x1F NOT DUP5 AND DUP7 PUSH1 0x0 MSTORE DUP4 PUSH1 0x0 KECCAK256 SWAP4 PUSH1 0x0 SWAP1 JUMPDEST DUP3 DUP3 LT PUSH2 0x22F7 JUMPI POP POP SWAP2 PUSH1 0x5 SWAP8 SWAP6 SWAP4 SWAP2 DUP6 PUSH1 0xA0 SWAP9 SWAP7 SWAP5 LT PUSH2 0x22DE JUMPI JUMPDEST POP POP POP DUP2 SHL ADD SWAP1 SSTORE PUSH2 0x2279 JUMP JUMPDEST ADD MLOAD PUSH1 0x0 NOT PUSH1 0xF8 DUP5 PUSH1 0x3 SHL AND SHR NOT AND SWAP1 SSTORE CODESIZE DUP1 DUP1 PUSH2 0x22D1 JUMP JUMPDEST DUP1 DUP9 DUP7 SWAP8 DUP3 SWAP5 SWAP8 DUP8 ADD MLOAD DUP2 SSTORE ADD SWAP7 ADD SWAP5 ADD SWAP1 PUSH2 0x22B5 JUMP JUMPDEST PUSH2 0x2337 SWAP1 DUP7 PUSH1 0x0 MSTORE DUP3 PUSH1 0x0 KECCAK256 DUP5 DUP1 DUP9 ADD PUSH1 0x5 SHR DUP3 ADD SWAP3 DUP6 DUP10 LT PUSH2 0x233D JUMPI JUMPDEST ADD PUSH1 0x5 SHR ADD SWAP1 PUSH2 0x21A2 JUMP JUMPDEST CODESIZE PUSH2 0x2246 JUMP JUMPDEST SWAP3 POP DUP2 SWAP3 PUSH2 0x232C JUMP JUMPDEST ADD MLOAD SWAP1 POP CODESIZE DUP1 PUSH2 0x220C JUMP JUMPDEST SWAP1 DUP6 SWAP4 POP PUSH1 0x1F NOT DUP4 AND SWAP2 DUP6 PUSH1 0x0 MSTORE DUP11 PUSH1 0x0 KECCAK256 SWAP3 PUSH1 0x0 JUMPDEST DUP13 DUP3 DUP3 LT PUSH2 0x239E JUMPI POP POP DUP5 GT PUSH2 0x2385 JUMPI JUMPDEST POP POP POP DUP2 SHL ADD SWAP1 SSTORE PUSH2 0x2220 JUMP JUMPDEST ADD MLOAD PUSH1 0x0 NOT PUSH1 0xF8 DUP5 PUSH1 0x3 SHL AND SHR NOT AND SWAP1 SSTORE CODESIZE DUP1 DUP1 PUSH2 0x2378 JUMP JUMPDEST DUP4 DUP6 ADD MLOAD DUP7 SSTORE DUP10 SWAP8 SWAP1 SWAP6 ADD SWAP5 SWAP4 DUP5 ADD SWAP4 ADD PUSH2 0x2367 JUMP JUMPDEST PUSH2 0x23DC SWAP1 DUP6 PUSH1 0x0 MSTORE DUP11 PUSH1 0x0 KECCAK256 DUP10 DUP1 DUP7 ADD PUSH1 0x5 SHR DUP3 ADD SWAP3 DUP14 DUP8 LT PUSH2 0x233D JUMPI ADD PUSH1 0x5 SHR ADD SWAP1 PUSH2 0x21A2 JUMP JUMPDEST CODESIZE PUSH2 0x21F7 JUMP JUMPDEST SWAP2 SWAP1 DUP3 ADD DUP1 SWAP3 GT PUSH2 0x2128 JUMPI JUMP JUMPDEST PUSH2 0x23F9 DUP2 SLOAD PUSH2 0x2168 JUMP JUMPDEST SWAP1 DUP2 PUSH2 0x2403 JUMPI POP POP JUMP JUMPDEST DUP2 PUSH1 0x1F PUSH1 0x0 SWAP4 GT PUSH1 0x1 EQ PUSH2 0x2416 JUMPI POP SSTORE JUMPDEST JUMP JUMPDEST SWAP1 DUP1 DUP4 SWAP2 DUP3 MSTORE PUSH2 0x2435 PUSH1 0x1F PUSH1 0x20 DUP5 KECCAK256 SWAP5 ADD PUSH1 0x5 SHR DUP5 ADD PUSH1 0x1 DUP6 ADD PUSH2 0x21A2 JUMP JUMPDEST SSTORE SSTORE JUMP JUMPDEST SWAP1 PUSH1 0x6 DUP2 LT ISZERO PUSH2 0x2010 JUMPI PUSH1 0xFF DUP1 NOT DUP4 SLOAD AND SWAP2 AND OR SWAP1 SSTORE JUMP JUMPDEST PUSH1 0x4 SLOAD DUP2 LT ISZERO PUSH2 0x2152 JUMPI PUSH1 0x4 PUSH1 0x0 MSTORE PUSH1 0x20 PUSH1 0x0 KECCAK256 ADD SWAP1 PUSH1 0x0 SWAP1 JUMP JUMPDEST ISZERO PUSH2 0x2473 JUMPI JUMP JUMPDEST PUSH1 0x40 MLOAD PUSH3 0x461BCD PUSH1 0xE5 SHL DUP2 MSTORE PUSH1 0x20 PUSH1 0x4 DUP3 ADD MSTORE PUSH1 0x22 PUSH1 0x24 DUP3 ADD MSTORE PUSH32 0x4F726465724D616E616765723A206F7264657220646F6573206E6F7420657869 PUSH1 0x44 DUP3 ADD MSTORE PUSH2 0x1CDD PUSH1 0xF2 SHL PUSH1 0x64 DUP3 ADD MSTORE PUSH1 0x84 SWAP1 REVERT JUMPDEST ISZERO PUSH2 0x24CA JUMPI JUMP JUMPDEST PUSH1 0x40 MLOAD PUSH3 0x461BCD PUSH1 0xE5 SHL DUP2 MSTORE PUSH1 0x20 PUSH1 0x4 DUP3 ADD MSTORE PUSH1 0x21 PUSH1 0x24 DUP3 ADD MSTORE PUSH32 0x4F726465724D616E616765723A2063616C6C6572206973206E6F742061646D69 PUSH1 0x44 DUP3 ADD MSTORE PUSH1 0x37 PUSH1 0xF9 SHL PUSH1 0x64 DUP3 ADD MSTORE PUSH1 0x84 SWAP1 REVERT JUMPDEST SWAP1 PUSH1 0x40 MLOAD SWAP2 DUP3 PUSH1 0x0 DUP3 SLOAD SWAP3 PUSH2 0x252D DUP5 PUSH2 0x2168 JUMP JUMPDEST SWAP1 DUP2 DUP5 MSTORE PUSH1 0x1 SWAP5 DUP6 DUP2 AND SWAP1 DUP2 PUSH1 0x0 EQ PUSH2 0x259A JUMPI POP PUSH1 0x1 EQ PUSH2 0x2557 JUMPI JUMPDEST POP POP PUSH2 0x2414 SWAP3 POP SUB DUP4 PUSH2 0x1F2E JUMP JUMPDEST SWAP1 SWAP4 SWAP2 POP PUSH1 0x0 MSTORE PUSH1 0x20 SWAP1 DUP2 PUSH1 0x0 KECCAK256 SWAP4 PUSH1 0x0 SWAP2 JUMPDEST DUP2 DUP4 LT PUSH2 0x2582 JUMPI POP POP PUSH2 0x2414 SWAP4 POP DUP3 ADD ADD CODESIZE DUP1 PUSH2 0x2549 JUMP JUMPDEST DUP6 SLOAD DUP9 DUP5 ADD DUP6 ADD MSTORE SWAP5 DUP6 ADD SWAP5 DUP8 SWAP5 POP SWAP2 DUP4 ADD SWAP2 PUSH2 0x256A JUMP JUMPDEST SWAP2 POP POP PUSH2 0x2414 SWAP5 POP PUSH1 0x20 SWAP3 POP PUSH1 0xFF NOT AND DUP3 DUP5 ADD MSTORE ISZERO ISZERO PUSH1 0x5 SHL DUP3 ADD ADD CODESIZE DUP1 PUSH2 0x2549 JUMP JUMPDEST SWAP1 PUSH2 0x25C7 DUP3 PUSH2 0x1FAC JUMP JUMPDEST PUSH2 0x25D4 PUSH1 0x40 MLOAD SWAP2 DUP3 PUSH2 0x1F2E JUMP JUMPDEST DUP3 DUP2 MSTORE DUP1 SWAP3 PUSH2 0x25E5 PUSH1 0x1F NOT SWAP2 PUSH2 0x1FAC JUMP JUMPDEST ADD SWAP1 PUSH1 0x20 CALLDATASIZE SWAP2 ADD CALLDATACOPY JUMP JUMPDEST DUP1 ISZERO PUSH2 0x2128 JUMPI PUSH1 0x0 NOT ADD SWAP1 JUMP JUMPDEST SWAP1 DUP2 MLOAD DUP2 LT ISZERO PUSH2 0x2152 JUMPI ADD PUSH1 0x20 ADD SWAP1 JUMP JUMPDEST PUSH1 0xFF AND PUSH1 0xA DUP2 LT ISZERO PUSH2 0x2634 JUMPI PUSH1 0x30 ADD PUSH1 0xFF DUP2 GT PUSH2 0x2128 JUMPI PUSH1 0xF8 SHL PUSH1 0x1 PUSH1 0x1 PUSH1 0xF8 SHL SUB NOT AND SWAP1 JUMP JUMPDEST PUSH1 0x57 ADD PUSH1 0xFF DUP2 GT PUSH2 0x2128 JUMPI PUSH1 0xF8 SHL PUSH1 0x1 PUSH1 0x1 PUSH1 0xF8 SHL SUB NOT AND SWAP1 JUMP INVALID 0x4F PUSH19 0x6465724D616E616765723A20696E76616C6964 KECCAK256 PUSH20 0x7461747573207472612B230C88A2DFBD05827496 0xC8 GAS SLOAD DUP2 CREATE2 0xB5 REVERT DUP6 LOG1 ADDRESS PUSH11 0x77DA91F82D920E23169468 XOR 0x27 MSTORE 0xF7 0xC3 PUSH13 0x47099C6828B2FEC7D51058945 0xF7 0xC6 NOT PUSH11 0x2681FE819D7EE80A26469 PUSH17 0x667358221220443E23D3C24AFD348087FC 0xCD SAR DUP14 PUSH10 0xD83FAC409BCCE29B5A66 0xF7 PUSH7 0xDB6B3734FE6473 PUSH16 0x6C634300081300330000000000000000 "},"methodIdentifiers":{"batchVerifyOrders(uint256[])":"d94a2168","cancelOrder(uint256,string)":"ad7e2181","core()":"f2f4eb26","createOrder(uint256,string,(uint256,string,string,uint256,uint256,uint256)[])":"a27e5956","getAllOrderIds()":"4b2b612a","getCustomerOrders(uint256)":"da0df7ff","getOrder(uint256)":"d09ef241","getOrderCount()":"8d0a5fbb","getOrderItems(uint256)":"fb13e2eb","getOrderStats()":"ec35356e","getOrdersByStatus(uint8)":"8ce2ec79","getRecentOrders(uint256)":"4811bc4b","stats()":"d80528ae","updateOrderStatus(uint256,uint8)":"aab3196d","verifyOrder(uint256)":"347dd4f0","verifyOrderHash(uint256,bytes32)":"07989df6"}}}}}