{
  "_format": "hh-sol-artifact-1",
  "contractName": "InvoiceManager",
  "sourceName": "contracts/InvoiceManager.sol",
  "abi": [
    {
      "inputs": [
        {
          "internalType": "address",
          "name": "_coreAddress",
          "type": "address"
        }
      ],
      "stateMutability": "nonpayable",
      "type": "constructor"
    },
    {
      "anonymous": false,
      "inputs": [
        {
          "indexed": true,
          "internalType": "uint256",
          "name": "invoiceId",
          "type": "uint256"
        },
        {
          "indexed": true,
          "internalType": "uint256",
          "name": "customerId",
          "type": "uint256"
        },
        {
          "indexed": true,
          "internalType": "uint256",
          "name": "orderId",
          "type": "uint256"
        },
        {
          "indexed": false,
          "internalType": "uint256",
          "name": "totalAmount",
          "type": "uint256"
        },
        {
          "indexed": false,
          "internalType": "string",
          "name": "blockchainHash",
          "type": "string"
        }
      ],
      "name": "InvoiceCreated",
      "type": "event"
    },
    {
      "anonymous": false,
      "inputs": [
        {
          "indexed": true,
          "internalType": "uint256",
          "name": "invoiceId",
          "type": "uint256"
        },
        {
          "indexed": false,
          "internalType": "uint256",
          "name": "daysOverdue",
          "type": "uint256"
        }
      ],
      "name": "InvoiceOverdue",
      "type": "event"
    },
    {
      "anonymous": false,
      "inputs": [
        {
          "indexed": true,
          "internalType": "uint256",
          "name": "invoiceId",
          "type": "uint256"
        },
        {
          "indexed": false,
          "internalType": "uint256",
          "name": "amount",
          "type": "uint256"
        },
        {
          "indexed": false,
          "internalType": "string",
          "name": "paymentMethod",
          "type": "string"
        },
        {
          "indexed": true,
          "internalType": "address",
          "name": "recordedBy",
          "type": "address"
        }
      ],
      "name": "InvoicePaid",
      "type": "event"
    },
    {
      "anonymous": false,
      "inputs": [
        {
          "indexed": true,
          "internalType": "uint256",
          "name": "invoiceId",
          "type": "uint256"
        },
        {
          "indexed": true,
          "internalType": "address",
          "name": "sentBy",
          "type": "address"
        },
        {
          "indexed": false,
          "internalType": "uint256",
          "name": "timestamp",
          "type": "uint256"
        }
      ],
      "name": "InvoiceSent",
      "type": "event"
    },
    {
      "anonymous": false,
      "inputs": [
        {
          "indexed": true,
          "internalType": "uint256",
          "name": "invoiceId",
          "type": "uint256"
        },
        {
          "indexed": false,
          "internalType": "enum IInvoiceTypes.InvoiceStatus",
          "name": "previousStatus",
          "type": "uint8"
        },
        {
          "indexed": false,
          "internalType": "enum IInvoiceTypes.InvoiceStatus",
          "name": "newStatus",
          "type": "uint8"
        },
        {
          "indexed": true,
          "internalType": "address",
          "name": "updatedBy",
          "type": "address"
        }
      ],
      "name": "InvoiceStatusUpdated",
      "type": "event"
    },
    {
      "anonymous": false,
      "inputs": [
        {
          "indexed": true,
          "internalType": "uint256",
          "name": "invoiceId",
          "type": "uint256"
        },
        {
          "indexed": false,
          "internalType": "uint256",
          "name": "amount",
          "type": "uint256"
        },
        {
          "indexed": false,
          "internalType": "string",
          "name": "transactionRef",
          "type": "string"
        }
      ],
      "name": "PaymentRecorded",
      "type": "event"
    },
    {
      "inputs": [
        {
          "internalType": "uint256",
          "name": "invoiceId",
          "type": "uint256"
        }
      ],
      "name": "cancelInvoice",
      "outputs": [],
      "stateMutability": "nonpayable",
      "type": "function"
    },
    {
      "inputs": [],
      "name": "checkOverdueInvoices",
      "outputs": [],
      "stateMutability": "nonpayable",
      "type": "function"
    },
    {
      "inputs": [],
      "name": "core",
      "outputs": [
        {
          "internalType": "contract BlockERPCore",
          "name": "",
          "type": "address"
        }
      ],
      "stateMutability": "view",
      "type": "function"
    },
    {
      "inputs": [
        {
          "internalType": "uint256",
          "name": "orderId",
          "type": "uint256"
        },
        {
          "internalType": "uint256",
          "name": "customerId",
          "type": "uint256"
        },
        {
          "internalType": "string",
          "name": "customerName",
          "type": "string"
        },
        {
          "components": [
            {
              "internalType": "uint256",
              "name": "productId",
              "type": "uint256"
            },
            {
              "internalType": "string",
              "name": "description",
              "type": "string"
            },
            {
              "internalType": "uint256",
              "name": "quantity",
              "type": "uint256"
            },
            {
              "internalType": "uint256",
              "name": "unitPrice",
              "type": "uint256"
            },
            {
              "internalType": "uint256",
              "name": "totalPrice",
              "type": "uint256"
            }
          ],
          "internalType": "struct IInvoiceTypes.InvoiceItem[]",
          "name": "items",
          "type": "tuple[]"
        },
        {
          "internalType": "uint256",
          "name": "taxRate",
          "type": "uint256"
        },
        {
          "internalType": "uint256",
          "name": "discountRate",
          "type": "uint256"
        },
        {
          "internalType": "uint256",
          "name": "dueDate",
          "type": "uint256"
        }
      ],
      "name": "createInvoice",
      "outputs": [
        {
          "internalType": "uint256",
          "name": "",
          "type": "uint256"
        }
      ],
      "stateMutability": "nonpayable",
      "type": "function"
    },
    {
      "inputs": [],
      "name": "getAllInvoiceIds",
      "outputs": [
        {
          "internalType": "uint256[]",
          "name": "",
          "type": "uint256[]"
        }
      ],
      "stateMutability": "view",
      "type": "function"
    },
    {
      "inputs": [
        {
          "internalType": "uint256",
          "name": "customerId",
          "type": "uint256"
        }
      ],
      "name": "getCustomerInvoices",
      "outputs": [
        {
          "internalType": "uint256[]",
          "name": "",
          "type": "uint256[]"
        }
      ],
      "stateMutability": "view",
      "type": "function"
    },
    {
      "inputs": [
        {
          "internalType": "uint256",
          "name": "invoiceId",
          "type": "uint256"
        }
      ],
      "name": "getInvoice",
      "outputs": [
        {
          "internalType": "uint256",
          "name": "id",
          "type": "uint256"
        },
        {
          "internalType": "uint256",
          "name": "orderId",
          "type": "uint256"
        },
        {
          "internalType": "uint256",
          "name": "customerId",
          "type": "uint256"
        },
        {
          "internalType": "string",
          "name": "customerName",
          "type": "string"
        },
        {
          "internalType": "uint256",
          "name": "subtotal",
          "type": "uint256"
        },
        {
          "internalType": "uint256",
          "name": "taxAmount",
          "type": "uint256"
        },
        {
          "internalType": "uint256",
          "name": "discountAmount",
          "type": "uint256"
        },
        {
          "internalType": "uint256",
          "name": "totalAmount",
          "type": "uint256"
        },
        {
          "internalType": "enum IInvoiceTypes.InvoiceStatus",
          "name": "status",
          "type": "uint8"
        },
        {
          "internalType": "uint256",
          "name": "issueDate",
          "type": "uint256"
        },
        {
          "internalType": "uint256",
          "name": "dueDate",
          "type": "uint256"
        },
        {
          "internalType": "uint256",
          "name": "paidDate",
          "type": "uint256"
        },
        {
          "internalType": "string",
          "name": "blockchainHash",
          "type": "string"
        }
      ],
      "stateMutability": "view",
      "type": "function"
    },
    {
      "inputs": [
        {
          "internalType": "uint256",
          "name": "orderId",
          "type": "uint256"
        }
      ],
      "name": "getInvoiceByOrder",
      "outputs": [
        {
          "internalType": "uint256",
          "name": "",
          "type": "uint256"
        }
      ],
      "stateMutability": "view",
      "type": "function"
    },
    {
      "inputs": [],
      "name": "getInvoiceCount",
      "outputs": [
        {
          "internalType": "uint256",
          "name": "",
          "type": "uint256"
        }
      ],
      "stateMutability": "view",
      "type": "function"
    },
    {
      "inputs": [
        {
          "internalType": "uint256",
          "name": "invoiceId",
          "type": "uint256"
        }
      ],
      "name": "getInvoiceItems",
      "outputs": [
        {
          "components": [
            {
              "internalType": "uint256",
              "name": "productId",
              "type": "uint256"
            },
            {
              "internalType": "string",
              "name": "description",
              "type": "string"
            },
            {
              "internalType": "uint256",
              "name": "quantity",
              "type": "uint256"
            },
            {
              "internalType": "uint256",
              "name": "unitPrice",
              "type": "uint256"
            },
            {
              "internalType": "uint256",
              "name": "totalPrice",
              "type": "uint256"
            }
          ],
          "internalType": "struct IInvoiceTypes.InvoiceItem[]",
          "name": "",
          "type": "tuple[]"
        }
      ],
      "stateMutability": "view",
      "type": "function"
    },
    {
      "inputs": [],
      "name": "getInvoiceStats",
      "outputs": [
        {
          "components": [
            {
              "internalType": "uint256",
              "name": "totalInvoices",
              "type": "uint256"
            },
            {
              "internalType": "uint256",
              "name": "draftInvoices",
              "type": "uint256"
            },
            {
              "internalType": "uint256",
              "name": "sentInvoices",
              "type": "uint256"
            },
            {
              "internalType": "uint256",
              "name": "paidInvoices",
              "type": "uint256"
            },
            {
              "internalType": "uint256",
              "name": "overdueInvoices",
              "type": "uint256"
            },
            {
              "internalType": "uint256",
              "name": "cancelledInvoices",
              "type": "uint256"
            },
            {
              "internalType": "uint256",
              "name": "totalValue",
              "type": "uint256"
            },
            {
              "internalType": "uint256",
              "name": "paidValue",
              "type": "uint256"
            },
            {
              "internalType": "uint256",
              "name": "overdueValue",
              "type": "uint256"
            },
            {
              "internalType": "uint256",
              "name": "pendingValue",
              "type": "uint256"
            }
          ],
          "internalType": "struct InvoiceManager.InvoiceStats",
          "name": "",
          "type": "tuple"
        }
      ],
      "stateMutability": "view",
      "type": "function"
    },
    {
      "inputs": [
        {
          "internalType": "enum IInvoiceTypes.InvoiceStatus",
          "name": "status",
          "type": "uint8"
        }
      ],
      "name": "getInvoicesByStatus",
      "outputs": [
        {
          "internalType": "uint256[]",
          "name": "",
          "type": "uint256[]"
        }
      ],
      "stateMutability": "view",
      "type": "function"
    },
    {
      "inputs": [],
      "name": "getOverdueInvoices",
      "outputs": [
        {
          "internalType": "uint256[]",
          "name": "",
          "type": "uint256[]"
        }
      ],
      "stateMutability": "view",
      "type": "function"
    },
    {
      "inputs": [
        {
          "internalType": "uint256",
          "name": "invoiceId",
          "type": "uint256"
        }
      ],
      "name": "getPaymentHistory",
      "outputs": [
        {
          "components": [
            {
              "internalType": "uint256",
              "name": "invoiceId",
              "type": "uint256"
            },
            {
              "internalType": "uint256",
              "name": "amount",
              "type": "uint256"
            },
            {
              "internalType": "string",
              "name": "paymentMethod",
              "type": "string"
            },
            {
              "internalType": "string",
              "name": "transactionRef",
              "type": "string"
            },
            {
              "internalType": "uint256",
              "name": "timestamp",
              "type": "uint256"
            },
            {
              "internalType": "address",
              "name": "recordedBy",
              "type": "address"
            }
          ],
          "internalType": "struct InvoiceManager.PaymentRecord[]",
          "name": "",
          "type": "tuple[]"
        }
      ],
      "stateMutability": "view",
      "type": "function"
    },
    {
      "inputs": [
        {
          "internalType": "uint256",
          "name": "invoiceId",
          "type": "uint256"
        }
      ],
      "name": "markOverdue",
      "outputs": [],
      "stateMutability": "nonpayable",
      "type": "function"
    },
    {
      "inputs": [
        {
          "internalType": "uint256",
          "name": "invoiceId",
          "type": "uint256"
        },
        {
          "internalType": "uint256",
          "name": "amount",
          "type": "uint256"
        },
        {
          "internalType": "string",
          "name": "paymentMethod",
          "type": "string"
        },
        {
          "internalType": "string",
          "name": "transactionRef",
          "type": "string"
        }
      ],
      "name": "recordPayment",
      "outputs": [],
      "stateMutability": "nonpayable",
      "type": "function"
    },
    {
      "inputs": [
        {
          "internalType": "uint256",
          "name": "invoiceId",
          "type": "uint256"
        }
      ],
      "name": "sendInvoice",
      "outputs": [],
      "stateMutability": "nonpayable",
      "type": "function"
    },
    {
      "inputs": [],
      "name": "stats",
      "outputs": [
        {
          "internalType": "uint256",
          "name": "totalInvoices",
          "type": "uint256"
        },
        {
          "internalType": "uint256",
          "name": "draftInvoices",
          "type": "uint256"
        },
        {
          "internalType": "uint256",
          "name": "sentInvoices",
          "type": "uint256"
        },
        {
          "internalType": "uint256",
          "name": "paidInvoices",
          "type": "uint256"
        },
        {
          "internalType": "uint256",
          "name": "overdueInvoices",
          "type": "uint256"
        },
        {
          "internalType": "uint256",
          "name": "cancelledInvoices",
          "type": "uint256"
        },
        {
          "internalType": "uint256",
          "name": "totalValue",
          "type": "uint256"
        },
        {
          "internalType": "uint256",
          "name": "paidValue",
          "type": "uint256"
        },
        {
          "internalType": "uint256",
          "name": "overdueValue",
          "type": "uint256"
        },
        {
          "internalType": "uint256",
          "name": "pendingValue",
          "type": "uint256"
        }
      ],
      "stateMutability": "view",
      "type": "function"
    }
  ],
  "bytecode": "0x60a0346100f457601f62002c1038819003918201601f19168301916001600160401b038311848410176100f9578084926020946040528339810103126100f457516001600160a01b038116908190036100f45780156100a357608052611388600055604051612b00908162000110823960805181818160fb0152818161016501528181610391015281816105850152818161095f01528181610b4e01526117fc0152f35b60405162461bcd60e51b8152602060048201526024808201527f496e766f6963654d616e616765723a20696e76616c696420636f7265206164646044820152637265737360e01b6064820152608490fd5b600080fd5b634e487b7160e01b600052604160045260246000fdfe608080604052600436101561001357600080fd5b60003560e01c90816304333861146124475750806319baae28146122e2578063261d08071461226c5780633a23cc0a1461214a57806344cd1ab1146120375780634e02503a14611e89578063550d75fd1461179e57806373114f3c146116735780637d6a59ed14611655578063b2c9f26c14611629578063ba0c1dd614610aa1578063bb0d796a1461092a578063cc2b07d3146107b9578063d80528ae1461074c578063da9c273d14610567578063e041bc4a14610373578063ec660a801461012f5763f2f4eb26146100e557600080fd5b3461012a57600036600319011261012a576040517f00000000000000000000000000000000000000000000000000000000000000006001600160a01b03168152602090f35b600080fd5b3461012a5760208060031936011261012a576004356040516395a8c58d60e01b8152828180610161336004830161263f565b03817f00000000000000000000000000000000000000000000000000000000000000006001600160a01b03165afa8015610367576101a79160009161033a575b50612659565b80600052600182526101bf6040600020541515612981565b80600052600182526040600020600b81019081549160ff83166006811015610324576001036102cc57600d820192835442111561027b576102508594610246600a600080516020612a8b833981519152968a966003620151809760ff191617905561022b6009546129dc565b600955610239600b54612701565b600b550154600f546128a3565b600f5554426128c3565b04604051908152a260036040519260018452830152600080516020612aab83398151915260403393a3005b60405162461bcd60e51b815260048101879052602360248201527f496e766f6963654d616e616765723a20696e766f696365206e6f74207965742060448201526264756560e81b6064820152608490fd5b60405162461bcd60e51b815260048101869052602a60248201527f496e766f6963654d616e616765723a20696e766f696365206e6f7420696e2073604482015269656e742073746174757360b01b6064820152608490fd5b634e487b7160e01b600052602160045260246000fd5b61035a9150843d8611610360575b6103528183612597565b810190612627565b846101a1565b503d610348565b6040513d6000823e3d90fd5b3461012a5760208060031936011261012a5760043560018060a01b037f000000000000000000000000000000000000000000000000000000000000000016604051906395a8c58d60e01b82528382806103cf336004830161263f565b0381845afa908115610367576103f0859260049460009161054a5750612659565b604051635c975abb60e01b815292839182905afa80156103675761041d9160009161052d575b50156126b6565b80600052600182526104356040600020541515612981565b80600052600182526040600020600b8101805460ff81166006811015610324576104d45760019060ff1916179055600c429101556104746008546129dc565b600855610482600954612701565b600955604051428152817ffd1c81a2bc25422156e578c29cbc07e5587a1529c0337ba6a99bbd2ab386161c843393a360016040519260008452830152600080516020612aab83398151915260403393a3005b60405162461bcd60e51b815260048101869052602b60248201527f496e766f6963654d616e616765723a20696e766f696365206e6f7420696e206460448201526a726166742073746174757360a81b6064820152608490fd5b6105449150843d8611610360576103528183612597565b84610416565b6105619150843d8611610360576103528183612597565b876101a1565b3461012a5760208060031936011261012a5760043560018060a01b037f000000000000000000000000000000000000000000000000000000000000000016604051906395a8c58d60e01b82528382806105c3336004830161263f565b0381845afa908115610367576105e4859260049460009161054a5750612659565b604051635c975abb60e01b815292839182905afa8015610367576106109160009161052d5750156126b6565b80600052600182526106286040600020541515612981565b80600052600182526040600020600b81019283549160ff831694600686101590816103245786159485801561073e575b156106e55760ff1916600417905561032457600a6106a1916004946000146106ca576106856008546129dc565b6008555b610694600c54612701565b600c5501546010546128c3565b6010556106b16040518095612538565b830152600080516020612aab83398151915260403393a3005b60018703610689576106dd6009546129dc565b600955610689565b60405162461bcd60e51b815260048101869052602b60248201527f496e766f6963654d616e616765723a20696e766f6963652063616e6e6f74206260448201526a194818d85b98d95b1b195960aa1b6064820152608490fd5b506000925060018814610658565b3461012a57600036600319011261012a57610140600754600854600954600a54600b54600c54600d5491600e5493600f549560105497604051998a5260208a015260408901526060880152608087015260a086015260c085015260e0840152610100830152610120820152f35b3461012a5760208060031936011261012a5760043590816000526001918282526107e96040600020541515612981565b600052600290818152604060002090815461080381612610565b936108116040519586612597565b81855260009384528284208386019491855b8484106108c35750505050506040519384938285019083865251809152604085019260408260051b87010194936000905b8382106108615787870388f35b918496819592949698508190603f198b8203018552895190815181526108938383015160a080868501528301906124f8565b91604081015160408301526060808201519083015260808091015191015298019201920187969593919492610854565b97600586829899979a6040516108d88161257c565b865481526040516108f6816108ef81898c016128eb565b0382612597565b8382015285870154604082015260038701546060820152600487015460808201528152019301930192919794969597610823565b3461012a57600036600319011261012a576040516395a8c58d60e01b815260209081818061095b336004830161263f565b03817f00000000000000000000000000000000000000000000000000000000000000006001600160a01b03165afa8015610367576109a091600091610a845750612659565b60005b600554811015610a82576109b6816128d0565b919054600392831b1c806000526001928385526040600020600b9182820190815460ff811693600685101561032457610a03988a951480610a75575b610a08575b50505050505050612701565b6109a3565b600080516020612a8b833981519152956201518094610a6194600d9460ff19161790556009610a3781546129dc565b9055610a438154612701565b9055600a810154610a57600f9182546128a3565b90550154426128c3565b04604051908152a2838084818080806109f7565b50600d81015442116109f2565b005b610a9b9150833d8511610360576103528183612597565b836101a1565b3461012a5760e036600319011261012a576044356001600160401b03811161012a57610ad19036906004016125ba565b606435906001600160401b03821161012a573660238301121561012a578160040135610afc81612610565b92610b0a6040519485612597565b8184526024602085019260051b8201019036821161012a5760248101925b8284106115a05785856040516395a8c58d60e01b815280610b4c336004830161263f565b7f00000000000000000000000000000000000000000000000000000000000000006001600160a01b0316916020918491900381845afa90811561036757610b9f60209260049460009161054a5750612659565b604051635c975abb60e01b815292839182905afa801561036757610bcb916000916115875750156126b6565b815115611532574260c43511156114da5780511561148657600435611419575b610bf6600054612701565b60008181559290835b8251851015610d02576040610c148685612710565b51015115610cbe578160005260026020526040600020610c348685612710565b5191815491600160401b831015610ca85760018301808255831015610c9257610c8c93610c8693610c719260005260056020600020910201612775565b6080610c7d8887612710565b510151906128a3565b94612701565b93610bff565b634e487b7160e01b600052603260045260246000fd5b634e487b7160e01b600052604160045260246000fd5b606460405162461bcd60e51b815260206004820152602060248201527f496e766f6963654d616e616765723a20696e76616c6964207175616e746974796044820152fd5b612710925082610d1460a435836128b0565b04610d37610d2282846128c3565b94610d2f608435876128b0565b0480956128a3565b9360405184602082015260243560408201528560608201524260808201523360601b60a082015260948152610d6b81612561565b602081519101209260405180602081011060018060401b03602083011117610ca8576020810160409081526000825251946001600160401b036080870190811190871117610ca8576080860160405260428652602086016060368237865115610c925760309053855160011015610c92576078602187015360005b60208110611397575050604051976001600160401b036102008a01908111908a1117610ca857610200890160405286895260043560208a015260243560408a01526060890152608088015260a087015260843560c087015260e086015260a4356101008601526101208501528261014085015260006101608501524261018085015260c4356101a085015260006101c08501526101e0840152806000526001602052604060002092805184556020810151600185015560408101516002850155606081015180519060018060401b038211610ca8578190610eca6003880154612724565b601f8111611362575b50602090601f83116001146112f0576000926112e5575b50508160011b916000199060031b1c19161760038501555b6080810151805190600160401b8211610ca857600486015482600488015580831061121b575b506020016004860160005260206000206000915b8383106111fd575050505060a0810151600585015560c0810151600685015560e0810151600785015561010081015160088501556101208101516009850155610140810151600a850155600b840190610160810151916006831015610324576101e09260ff80198354169116179055610180810151600c8601556101a0810151600d8601556101c0810151600e86015501519283519060018060401b038211610ca857600f0190610fed8254612724565b601f81116111c0575b50602094601f821160011461115a5794819293949560009261114f575b50508160011b916000199060031b1c19161790555b600435611138575b602435600052600360205260406000208054600160401b811015610ca85760018101808355811015610c925782916000526020600020015560055491600160401b831015610ca85761108a836001602095016005556128d0565b81549060031b9084821b91600019901b19161790556110aa600754612701565b6007556110b8600854612701565b6008556110c781600d546128a3565b600d556110d6816010546128a3565b6010558160005260018352600f604060002001604051918252604084830152827f987d53ad57cc3fb98d35c39226887f683dba454bfe0f35c720c83c685e4fec38600435938061112d6024359560408301906128eb565b0390a4604051908152f35b600435600052600460205280604060002055611030565b015190508580611013565b601f198216958360005260206000209160005b8881106111a85750836001959697981061118f575b505050811b019055611028565b015160001960f88460031b161c19169055858080611182565b9192602060018192868501518155019401920161116d565b6111ed90836000526020600020601f840160051c810191602085106111f3575b601f0160051c019061275e565b85610ff6565b90915081906111e0565b600560208261120f6001945186612775565b01920192019190610f3c565b60058181020481036112cf5760058381020483036112cf576004870160005260206000208360050281015b8260050282018110611259575050610f28565b806000600592556001810161126e8154612724565b9081611292575b505060006002820155600060038201556000600482015501611246565b81601f600093116001146112aa5750555b8a80611275565b9080839182526112c8601f602084209401871c84016001850161275e565b55556112a3565b634e487b7160e01b600052601160045260246000fd5b015190508680610eea565b9250600387016000526020600020906000935b601f1984168510611347576001945083601f1981161061132e575b505050811b016003850155610f02565b015160001960f88460031b161c1916905586808061131e565b81810151835560209485019460019093019290910190611303565b61139190600389016000526020600020601f850160051c810191602086106111f357601f0160051c019061275e565b87610ed3565b6113a8600f83831a60041c16612a48565b600290828060011b048214831517156112cf578260011b820182116112cf576113da9060001a918360011b0189612a37565b536113e9600f83831a16612a48565b9060038160011b810181116112cf5761140e6114149360001a918360011b018a612a37565b53612701565b610de6565b600435600052600460205260406000205415610beb5760405162461bcd60e51b815260206004820152602960248201527f496e766f6963654d616e616765723a206f7264657220616c72656164792068616044820152687320696e766f69636560b81b6064820152608490fd5b60405162461bcd60e51b815260206004820152602660248201527f496e766f6963654d616e616765723a20637573746f6d6572206e616d652072656044820152651c5d5a5c995960d21b6064820152608490fd5b60405162461bcd60e51b815260206004820152602a60248201527f496e766f6963654d616e616765723a206475652064617465206d75737420626560448201526920696e2066757475726560b01b6064820152608490fd5b60405162461bcd60e51b815260206004820152602760248201527f496e766f6963654d616e616765723a20696e766f696365206d7573742068617660448201526665206974656d7360c81b6064820152608490fd5b610544915060203d602011610360576103528183612597565b83356001600160401b03811161012a57820160a0602319823603011261012a57604051916115cd8361257c565b602482013583526044820135926001600160401b03841161012a5760a4602094936115ff8695602436918401016125ba565b85840152606481013560408401526084810135606084015201356080820152815201930192610b28565b3461012a57602036600319011261012a5760043560005260046020526020604060002054604051908152f35b3461012a57600036600319011261012a576020600554604051908152f35b3461012a5760208060031936011261012a57600435600680821015928361012a57600554916000805b84811061174357506116ad90612a05565b9360009160005b8581106116cd57604051806116c989826124bd565b0390f35b6116d6816128d0565b9054600391821b1c600052600186528860ff600b6040600020015416906103245783811015610324578414611715575b5061171090612701565b6116b4565b819461173c91611727611710946128d0565b9054911b1c611736828b612710565b52612701565b9390611706565b61174c816128d0565b90549060031b1c600052600184528660ff600b6040600020015416906103245783811015610324578614611789575b61178490612701565b61169c565b9061179661178491612701565b91905061177b565b3461012a57608036600319011261012a576044356001600160401b03811161012a576117ce9036906004016125ba565b6064356001600160401b03811161012a576117ed9036906004016125ba565b6040516395a8c58d60e01b81527f00000000000000000000000000000000000000000000000000000000000000006001600160a01b031660208280611835336004830161263f565b0381845afa9081156103675761185760209260049460009161054a5750612659565b604051635c975abb60e01b815292839182905afa801561036757611883916000916115875750156126b6565b600435600052600160205261189e6040600020541515612981565b600435600052600160205260406000209060ff600b8301541660068110156103245760018114908115611e7e575b5015611e2d5760243515611dd057600a82015460243511611d7457600435600052600660205260406000206040519061190482612561565b60043582526020820190602435825260408301908682528460608501524260808501523360a08501528054600160401b811015610ca85761194a916001820181556129e9565b929092611d5e5783518355516001830155518051906001600160401b038211610ca857819061197c6002850154612724565b601f8111611d29575b50602090601f8311600114611cb757600092611cac575b50508160011b916000199060031b1c19161760028201555b60608201518051906001600160401b038211610ca8576119d76003840154612724565b601f8111611c77575b50602090601f8311600114611c0457600593929160009183611bf9575b50508160011b916000199060031b1c19161760038201555b6080830151600482015560a090920151910180546001600160a01b0319166001600160a01b0392909216919091179055600090815b600435600052600660205260406000208054841015611a8b57611a85916001611a7686611a7f946129e9565b500154906128a3565b92612701565b91611a4a565b50915092600a830154821015611ae4575b837f3a0a4e128eb0fdb3fdaa4310f7edb34724c04c0510e0764b1db6a3ffa0a26a5c60405160243581526040602082015280611adf6004359460408301906124f8565b0390a2005b600b8301805460ff19811660021790915542600e85015560ff1692600684101561032457600a611b509160018614600014611bcc57611b246009546129dc565b6009555b611b328254612701565b8255611b4382820154600e546128a3565b600e5501546010546128c3565b601055604051918252604060208301527faced186434fb60ffcd823706478c354a0845787467f99374d3c83b56465c54a4339280611b956004359460408301906124f8565b0390a3611ba56040518092612538565b600260208201523390600080516020612aab833981519152604060043592a3818080611a9c565b60038603611b2857611bdf600b546129dc565b600b55611bf182820154600f546128c3565b600f55611b28565b0151905088806119fd565b906003840160005260206000209160005b601f1985168110611c5f575091839160019360059695601f19811610611c46575b505050811b016003820155611a15565b015160001960f88460031b161c19169055888080611c36565b91926020600181928685015181550194019201611c15565b611ca690600385016000526020600020601f850160051c810191602086106111f357601f0160051c019061275e565b876119e0565b01519050878061199c565b9250600284016000526020600020906000935b601f1984168510611d0e576001945083601f19811610611cf5575b505050811b0160028201556119b4565b015160001960f88460031b161c19169055878080611ce5565b81810151835560209485019460019093019290910190611cca565b611d5890600286016000526020600020601f850160051c810191602086106111f357601f0160051c019061275e565b88611985565b634e487b7160e01b600052600060045260246000fd5b60405162461bcd60e51b815260206004820152602e60248201527f496e766f6963654d616e616765723a207061796d656e7420657863656564732060448201526d1a5b9d9bda58d948185b5bdd5b9d60921b6064820152608490fd5b60405162461bcd60e51b815260206004820152602f60248201527f496e766f6963654d616e616765723a207061796d656e7420616d6f756e74206d60448201526e75737420626520706f73697469766560881b6064820152608490fd5b60405162461bcd60e51b815260206004820152602360248201527f496e766f6963654d616e616765723a20696e766f696365206e6f742070617961604482015262626c6560e81b6064820152608490fd5b6003915014846118cc565b3461012a5760208060031936011261012a576004359081600052600191828252611eb96040600020541515612981565b6000526006908181526040600020908154611ed381612610565b93611ee16040519586612597565b8185528285018094600052836000206000915b848310611fb35750505050506040519384938285019083865251809152604085019260408260051b87010194936000905b838210611f325787870388f35b918496819592949698508190603f198b8203018552895190815181528282015183820152611f84611f71604084015160c08060408601528401906124f8565b60608085015190848303908501526124f8565b916080808201519083015260a0908160018060a01b039101511691015298019201920187969593919492611f25565b978386829899979a604051611fc781612561565b855481528486015483820152604051611fe7816108ef8160028b016128eb565b6040820152604051612000816108ef8160038b016128eb565b60608201526004860154608082015260058601546001600160a01b031660a08201528152989a979998929094019392019101611ef4565b3461012a57600036600319011261012a5761014060405161205781612545565b6000815260006020820152600060408201526000606082015260006080820152600060a0820152600060c0820152600060e0820152610100906000828201526000610120809201526040516120ab81612545565b600754928382526008546020830190815260095460408401908152600a5460608501908152600b5460808601908152600c549060a08701918252600d549260c08801938452600e549460e08901958652600f5496888a019788528a6010549a01998a526040519b8c525160208c01525160408b01525160608a01525160808901525160a08801525160c08701525160e086015251908401525190820152f35b3461012a57602036600319011261012a57600435806000526001602052604060002054151561217890612981565b600052600160205260406000208054600182015491600281015460058201549060078301546009840154600a850154600b86015460ff1690600c87015492600d88015494600e8901549660405190818060038d01906121d6916128eb565b036121e19083612597565b60405180600f819d01906121f4916128eb565b036121ff908c612597565b6040519c8d9c8d5260208d015260408c01526101a08060608d01528b01612225916124f8565b9760808b015260a08a015260c089015260e0880152610100870161224891612538565b6101208601526101408501526101608401528281036101808401526116c9916124f8565b3461012a5760208060031936011261012a5760043560005260038152604060002090604051908181845491828152019360005281600020916000905b8282106122cb576116c9856122bf81890382612597565b604051918291826124bd565b8354865294850194600193840193909101906122a8565b3461012a57600036600319011261012a576005546000805b8281106123c0575061230b90612a05565b906000805b82811061232557604051806116c986826124bd565b61232e816128d0565b9054600391821b1c600052600180602052604060002060ff600b82015416916006831015610324578383149283156123a0575b505050612378575b5061237390612701565b612310565b81926123999161238a612373946128d0565b9054911b1c6117368288612710565b9190612369565b149150816123b2575b50868080612361565b600d915001544211866123a9565b6123c9816128d0565b9054600391821b1c60005260018060205260406000209060ff600b83015416926006841015610324578314928315612427575b505050612412575b61240d90612701565b6122fa565b9061241f61240d91612701565b919050612404565b14915081612439575b508480806123fc565b600d91500154421184612430565b3461012a57600036600319011261012a57600580548083526000918252602080840193927f036b6384b5eca791c62761152d0c79bb0604c104a5fb6f4eb0703f3154bb3db092915b8282106124a6576116c9856122bf81890382612597565b83548652948501946001938401939091019061248f565b6020908160408183019282815285518094520193019160005b8281106124e4575050505090565b8351855293810193928101926001016124d6565b919082519283825260005b848110612524575050826000602080949584010152601f8019910116010190565b602081830181015184830182015201612503565b9060068210156103245752565b61014081019081106001600160401b03821117610ca857604052565b60c081019081106001600160401b03821117610ca857604052565b60a081019081106001600160401b03821117610ca857604052565b601f909101601f19168101906001600160401b03821190821017610ca857604052565b81601f8201121561012a578035906001600160401b038211610ca857604051926125ee601f8401601f191660200185612597565b8284526020838301011161012a57816000926020809301838601378301015290565b6001600160401b038111610ca85760051b60200190565b9081602091031261012a5751801515810361012a5790565b6001600160a01b0390911681526002602082015260400190565b1561266057565b60405162461bcd60e51b815260206004820152602860248201527f496e766f6963654d616e616765723a20696e73756666696369656e74207065726044820152676d697373696f6e7360c01b6064820152608490fd5b156126bd57565b606460405162461bcd60e51b815260206004820152602060248201527f496e766f6963654d616e616765723a2073797374656d206973207061757365646044820152fd5b60001981146112cf5760010190565b8051821015610c925760209160051b010190565b90600182811c92168015612754575b602083101461273e57565b634e487b7160e01b600052602260045260246000fd5b91607f1691612733565b818110612769575050565b6000815560010161275e565b90805182556001908183016020808301519384519160018060401b038311610ca8576127a18454612724565b601f8111612873575b5080601f841160011461280457509180809260809695946004986000946127f9575b50501b916000199060031b1c19161790555b60408101516002850155606081015160038501550151910155565b0151925038806127cc565b91939495601f1984168660005283600020936000905b82821061285c5750509160049795939185608098969410612843575b505050811b0190556127de565b015160001960f88460031b161c19169055388080612836565b80888697829497870151815501960194019061281a565b61289d908560005282600020601f860160051c8101918487106111f357601f0160051c019061275e565b386127aa565b919082018092116112cf57565b818102929181159184041417156112cf57565b919082039182116112cf57565b600554811015610c9257600560005260206000200190600090565b90600092918054916128fc83612724565b91828252600193848116908160001461295e575060011461291e575b50505050565b90919394506000526020928360002092846000945b83861061294a575050505001019038808080612918565b805485870183015294019385908201612933565b9294505050602093945060ff191683830152151560051b01019038808080612918565b1561298857565b60405162461bcd60e51b815260206004820152602660248201527f496e766f6963654d616e616765723a20696e766f69636520646f6573206e6f7460448201526508195e1a5cdd60d21b6064820152608490fd5b80156112cf576000190190565b8054821015610c92576000526006602060002091020190600090565b90612a0f82612610565b612a1c6040519182612597565b8281528092612a2d601f1991612610565b0190602036910137565b908151811015610c92570160200190565b60ff16600a811015612a6f5760300160ff81116112cf5760f81b6001600160f81b03191690565b60570160ff81116112cf5760f81b6001600160f81b0319169056fe4810d15d0e5b37f62cb63e3ffea0ad598da586aab0fbc697babdc7eeabc92728b89c6a5b22ada28927599faa0e19ce3e2a73b028af45bcae9fba803b04f43fc2a26469706673582212201bad60b1d62d1154fa5c438d8ff2417f874b5f9b168d5dbcc864f059ac83e93d64736f6c63430008130033",
  "linkReferences": {},
  "deployedLinkReferences": {}
}