{
  "_format": "hh-sol-artifact-1",
  "contractName": "OrderManager",
  "sourceName": "contracts/OrderManager.sol",
  "abi": [
    {
      "inputs": [
        {
          "internalType": "address",
          "name": "_coreAddress",
          "type": "address"
        }
      ],
      "stateMutability": "nonpayable",
      "type": "constructor"
    },
    {
      "anonymous": false,
      "inputs": [
        {
          "indexed": true,
          "internalType": "uint256",
          "name": "orderId",
          "type": "uint256"
        },
        {
          "indexed": false,
          "internalType": "string",
          "name": "reason",
          "type": "string"
        },
        {
          "indexed": true,
          "internalType": "address",
          "name": "cancelledBy",
          "type": "address"
        }
      ],
      "name": "OrderCancelled",
      "type": "event"
    },
    {
      "anonymous": false,
      "inputs": [
        {
          "indexed": true,
          "internalType": "uint256",
          "name": "orderId",
          "type": "uint256"
        },
        {
          "indexed": true,
          "internalType": "uint256",
          "name": "customerId",
          "type": "uint256"
        },
        {
          "indexed": false,
          "internalType": "uint256",
          "name": "totalAmount",
          "type": "uint256"
        },
        {
          "indexed": false,
          "internalType": "string",
          "name": "blockchainHash",
          "type": "string"
        }
      ],
      "name": "OrderCreated",
      "type": "event"
    },
    {
      "anonymous": false,
      "inputs": [
        {
          "indexed": true,
          "internalType": "uint256",
          "name": "orderId",
          "type": "uint256"
        },
        {
          "indexed": true,
          "internalType": "uint256",
          "name": "productId",
          "type": "uint256"
        },
        {
          "indexed": false,
          "internalType": "uint256",
          "name": "quantity",
          "type": "uint256"
        }
      ],
      "name": "OrderItemAdded",
      "type": "event"
    },
    {
      "anonymous": false,
      "inputs": [
        {
          "indexed": true,
          "internalType": "uint256",
          "name": "orderId",
          "type": "uint256"
        },
        {
          "indexed": false,
          "internalType": "enum IOrderTypes.OrderStatus",
          "name": "previousStatus",
          "type": "uint8"
        },
        {
          "indexed": false,
          "internalType": "enum IOrderTypes.OrderStatus",
          "name": "newStatus",
          "type": "uint8"
        },
        {
          "indexed": true,
          "internalType": "address",
          "name": "updatedBy",
          "type": "address"
        }
      ],
      "name": "OrderStatusUpdated",
      "type": "event"
    },
    {
      "anonymous": false,
      "inputs": [
        {
          "indexed": true,
          "internalType": "uint256",
          "name": "orderId",
          "type": "uint256"
        },
        {
          "indexed": false,
          "internalType": "bytes32",
          "name": "verificationHash",
          "type": "bytes32"
        },
        {
          "indexed": true,
          "internalType": "address",
          "name": "verifiedBy",
          "type": "address"
        }
      ],
      "name": "OrderVerified",
      "type": "event"
    },
    {
      "inputs": [
        {
          "internalType": "uint256[]",
          "name": "orderIds",
          "type": "uint256[]"
        }
      ],
      "name": "batchVerifyOrders",
      "outputs": [],
      "stateMutability": "nonpayable",
      "type": "function"
    },
    {
      "inputs": [
        {
          "internalType": "uint256",
          "name": "orderId",
          "type": "uint256"
        },
        {
          "internalType": "string",
          "name": "reason",
          "type": "string"
        }
      ],
      "name": "cancelOrder",
      "outputs": [],
      "stateMutability": "nonpayable",
      "type": "function"
    },
    {
      "inputs": [],
      "name": "core",
      "outputs": [
        {
          "internalType": "contract BlockERPCore",
          "name": "",
          "type": "address"
        }
      ],
      "stateMutability": "view",
      "type": "function"
    },
    {
      "inputs": [
        {
          "internalType": "uint256",
          "name": "customerId",
          "type": "uint256"
        },
        {
          "internalType": "string",
          "name": "customerName",
          "type": "string"
        },
        {
          "components": [
            {
              "internalType": "uint256",
              "name": "productId",
              "type": "uint256"
            },
            {
              "internalType": "string",
              "name": "productName",
              "type": "string"
            },
            {
              "internalType": "string",
              "name": "sku",
              "type": "string"
            },
            {
              "internalType": "uint256",
              "name": "quantity",
              "type": "uint256"
            },
            {
              "internalType": "uint256",
              "name": "unitPrice",
              "type": "uint256"
            },
            {
              "internalType": "uint256",
              "name": "totalPrice",
              "type": "uint256"
            }
          ],
          "internalType": "struct IOrderTypes.OrderItem[]",
          "name": "items",
          "type": "tuple[]"
        }
      ],
      "name": "createOrder",
      "outputs": [
        {
          "internalType": "uint256",
          "name": "",
          "type": "uint256"
        }
      ],
      "stateMutability": "nonpayable",
      "type": "function"
    },
    {
      "inputs": [],
      "name": "getAllOrderIds",
      "outputs": [
        {
          "internalType": "uint256[]",
          "name": "",
          "type": "uint256[]"
        }
      ],
      "stateMutability": "view",
      "type": "function"
    },
    {
      "inputs": [
        {
          "internalType": "uint256",
          "name": "customerId",
          "type": "uint256"
        }
      ],
      "name": "getCustomerOrders",
      "outputs": [
        {
          "internalType": "uint256[]",
          "name": "",
          "type": "uint256[]"
        }
      ],
      "stateMutability": "view",
      "type": "function"
    },
    {
      "inputs": [
        {
          "internalType": "uint256",
          "name": "orderId",
          "type": "uint256"
        }
      ],
      "name": "getOrder",
      "outputs": [
        {
          "internalType": "uint256",
          "name": "id",
          "type": "uint256"
        },
        {
          "internalType": "uint256",
          "name": "customerId",
          "type": "uint256"
        },
        {
          "internalType": "string",
          "name": "customerName",
          "type": "string"
        },
        {
          "internalType": "uint256",
          "name": "totalAmount",
          "type": "uint256"
        },
        {
          "internalType": "enum IOrderTypes.OrderStatus",
          "name": "status",
          "type": "uint8"
        },
        {
          "internalType": "uint256",
          "name": "createdAt",
          "type": "uint256"
        },
        {
          "internalType": "uint256",
          "name": "updatedAt",
          "type": "uint256"
        },
        {
          "internalType": "string",
          "name": "blockchainHash",
          "type": "string"
        },
        {
          "internalType": "bool",
          "name": "verified",
          "type": "bool"
        }
      ],
      "stateMutability": "view",
      "type": "function"
    },
    {
      "inputs": [],
      "name": "getOrderCount",
      "outputs": [
        {
          "internalType": "uint256",
          "name": "",
          "type": "uint256"
        }
      ],
      "stateMutability": "view",
      "type": "function"
    },
    {
      "inputs": [
        {
          "internalType": "uint256",
          "name": "orderId",
          "type": "uint256"
        }
      ],
      "name": "getOrderItems",
      "outputs": [
        {
          "components": [
            {
              "internalType": "uint256",
              "name": "productId",
              "type": "uint256"
            },
            {
              "internalType": "string",
              "name": "productName",
              "type": "string"
            },
            {
              "internalType": "string",
              "name": "sku",
              "type": "string"
            },
            {
              "internalType": "uint256",
              "name": "quantity",
              "type": "uint256"
            },
            {
              "internalType": "uint256",
              "name": "unitPrice",
              "type": "uint256"
            },
            {
              "internalType": "uint256",
              "name": "totalPrice",
              "type": "uint256"
            }
          ],
          "internalType": "struct IOrderTypes.OrderItem[]",
          "name": "",
          "type": "tuple[]"
        }
      ],
      "stateMutability": "view",
      "type": "function"
    },
    {
      "inputs": [],
      "name": "getOrderStats",
      "outputs": [
        {
          "components": [
            {
              "internalType": "uint256",
              "name": "totalOrders",
              "type": "uint256"
            },
            {
              "internalType": "uint256",
              "name": "pendingOrders",
              "type": "uint256"
            },
            {
              "internalType": "uint256",
              "name": "processingOrders",
              "type": "uint256"
            },
            {
              "internalType": "uint256",
              "name": "shippedOrders",
              "type": "uint256"
            },
            {
              "internalType": "uint256",
              "name": "deliveredOrders",
              "type": "uint256"
            },
            {
              "internalType": "uint256",
              "name": "cancelledOrders",
              "type": "uint256"
            },
            {
              "internalType": "uint256",
              "name": "totalRevenue",
              "type": "uint256"
            }
          ],
          "internalType": "struct OrderManager.OrderStats",
          "name": "",
          "type": "tuple"
        }
      ],
      "stateMutability": "view",
      "type": "function"
    },
    {
      "inputs": [
        {
          "internalType": "enum IOrderTypes.OrderStatus",
          "name": "status",
          "type": "uint8"
        }
      ],
      "name": "getOrdersByStatus",
      "outputs": [
        {
          "internalType": "uint256[]",
          "name": "",
          "type": "uint256[]"
        }
      ],
      "stateMutability": "view",
      "type": "function"
    },
    {
      "inputs": [
        {
          "internalType": "uint256",
          "name": "count",
          "type": "uint256"
        }
      ],
      "name": "getRecentOrders",
      "outputs": [
        {
          "internalType": "uint256[]",
          "name": "",
          "type": "uint256[]"
        }
      ],
      "stateMutability": "view",
      "type": "function"
    },
    {
      "inputs": [],
      "name": "stats",
      "outputs": [
        {
          "internalType": "uint256",
          "name": "totalOrders",
          "type": "uint256"
        },
        {
          "internalType": "uint256",
          "name": "pendingOrders",
          "type": "uint256"
        },
        {
          "internalType": "uint256",
          "name": "processingOrders",
          "type": "uint256"
        },
        {
          "internalType": "uint256",
          "name": "shippedOrders",
          "type": "uint256"
        },
        {
          "internalType": "uint256",
          "name": "deliveredOrders",
          "type": "uint256"
        },
        {
          "internalType": "uint256",
          "name": "cancelledOrders",
          "type": "uint256"
        },
        {
          "internalType": "uint256",
          "name": "totalRevenue",
          "type": "uint256"
        }
      ],
      "stateMutability": "view",
      "type": "function"
    },
    {
      "inputs": [
        {
          "internalType": "uint256",
          "name": "orderId",
          "type": "uint256"
        },
        {
          "internalType": "enum IOrderTypes.OrderStatus",
          "name": "newStatus",
          "type": "uint8"
        }
      ],
      "name": "updateOrderStatus",
      "outputs": [],
      "stateMutability": "nonpayable",
      "type": "function"
    },
    {
      "inputs": [
        {
          "internalType": "uint256",
          "name": "orderId",
          "type": "uint256"
        }
      ],
      "name": "verifyOrder",
      "outputs": [],
      "stateMutability": "nonpayable",
      "type": "function"
    },
    {
      "inputs": [
        {
          "internalType": "uint256",
          "name": "orderId",
          "type": "uint256"
        },
        {
          "internalType": "bytes32",
          "name": "providedHash",
          "type": "bytes32"
        }
      ],
      "name": "verifyOrderHash",
      "outputs": [
        {
          "internalType": "bool",
          "name": "",
          "type": "bool"
        }
      ],
      "stateMutability": "view",
      "type": "function"
    }
  ],
  "bytecode": "0x60a0346100ed57601f620027ee38819003918201601f19168301916001600160401b038311848410176100f2578084926020946040528339810103126100ed57516001600160a01b038116908190036100ed57801561009d576080526103e86000556040516126e5908162000109823960805181818161026e015281816104690152818161076201528181610a0c01528181610fc00152611c620152f35b60405162461bcd60e51b815260206004820152602260248201527f4f726465724d616e616765723a20696e76616c696420636f7265206164647265604482015261737360f01b6064820152608490fd5b600080fd5b634e487b7160e01b600052604160045260246000fdfe6080604052600436101561001257600080fd5b6000803560e01c806307989df614611d9c578063347dd4f014611c2b5780634811bc4b14611b795780634b2b612a14611b035780638ce2ec79146119ba5780638d0a5fbb1461199c578063a27e595614610f10578063aab3196d146109d6578063ad7e218114610719578063d09ef24114610645578063d80528ae146105f4578063d94a2168146103d3578063da0df7ff1461035e578063ec35356e1461029d578063f2f4eb26146102585763fb13e2eb146100cd57600080fd5b3461025557602080600319360112610251576004358083526001908183526100fa6040852054151561246c565b83526002928383526040812091825461011281611fac565b956101206040519788611f2e565b81875285870190819585528685209085925b8484106101e457505050505060405194848695860191818752518092526040860160408360051b8801019594905b83821061016d5787870388f35b918496819592949698508190603f198b8203018552895190815181526101b46101a28484015160c08087860152840190611fc3565b60408401518382036040850152611fc3565b91606080820151908301526080808201519083015260a08091015191015298019201920187969593919492610160565b9460068982999a9760409c999c516101fb81611ec7565b8654815261020a858801612519565b83820152610219868801612519565b60408201526003870154606082015260048701546080820152600587015460a082015281520193019301929198959897969497610132565b5080fd5b80fd5b50346102555780600319360112610255576040517f00000000000000000000000000000000000000000000000000000000000000006001600160a01b03168152602090f35b503461025557806003193601126102555760c06040516102bc81611ef8565b8281528260208201528260408201528260608201528260808201528260a0820152015260e06040516102ed81611ef8565b60065490818152600754602082019081526008546040830190815260095460608401908152600a549160808501928352600b549360a0860194855260c0600c5496019586526040519687525160208701525160408601525160608501525160808401525160a08301525160c0820152f35b5034610255576020806003193601126102515760043582526003815260408220916040518092808554928381520194835280832092905b8282106103bc576103b8856103ac81890382611f2e565b60405191829182611e8c565b0390f35b835486529485019460019384019390910190610395565b503461025557602080600319360112610251576004356001600160401b0381116105f057366023820112156105f05780600401359061041182611fac565b9161041f6040519384611f2e565b80835260248484019160051b830101913683116105ec576024859101915b8383106105dc57505050506040516395a8c58d60e01b8152828180610465336004830161203e565b03817f00000000000000000000000000000000000000000000000000000000000000006001600160a01b03165afa80156105d1576104aa9185916105a4575b506124c3565b825b81518110156105a057806104c36104e3928461213e565b5185526001808552604086205415158061057e575b6104e8575b50612119565b6104ac565b6104f2828561213e565b51865280855260408620600901805460ff191682179055610513828561213e565b518652845242600760408720015561052b818461213e565b51604051858101918252426040820152606033811b908201526054815261055181611f13565b51902061055e828561213e565b51604051918252600080516020612690833981519152863393a3386104dd565b50610589828561213e565b51865280855260ff600960408820015416156104d8565b8380f35b6105c49150843d86116105ca575b6105bc8183611f2e565b810190612026565b386104a4565b503d6105b2565b6040513d86823e3d90fd5b823581529181019185910161043d565b8580fd5b8280fd5b503461025557806003193601126102555760e0600654600754600854600954600a5490600b5492600c5494604051968752602087015260408601526060850152608084015260a083015260c0820152f35b503461025557602036600319011261025557604090600435808252600160205261067383832054151561246c565b8152600160205220805460018201549161070c600482015460ff6005840154169260068101546007820154906106f560ff600985015416966106e56106c660086106bf60028901612519565b9701612519565b956040519b8c9b8c5260208c01526101208060408d01528b0190611fc3565b9560608a01526080890190612003565b60a087015260c086015284820360e0860152611fc3565b9015156101008301520390f35b503461025557604036600319011261025557600435906024356001600160401b0381116102515761074e903690600401611f51565b6040516395a8c58d60e01b815290926020917f00000000000000000000000000000000000000000000000000000000000000006001600160a01b03169083818061079b3360048301612058565b0381855afa9081156109cb57916107bd859260049488916109ae575b50612072565b604051635c975abb60e01b815292839182905afa9081156105d157906107eb918591610991575b50156120cd565b808352600182526108016040842054151561246c565b808352600182526040832091600583019460ff86541693600685101561097d57841596878015610973575b1561091e576004949596976000146108cc576108496007546125ef565b6007555b610858600b54612119565b600b558460ff19825416179055600742910155837f85926d36c97ddd4ac50016e818b0a400a1940c03bac8da5ae1f8ef1e15ec4394604051848152806108a2339587830190611fc3565b0390a36108b26040518095612003565b83015260008051602061267083398151915260403393a380f35b600187036108e8576108df6008546125ef565b6008555b61084d565b60028703610903576108fb6009546125ef565b60095561084d565b600387036108e357610916600a546125ef565b600a5561084d565b60405162461bcd60e51b815260048101859052602760248201527f4f726465724d616e616765723a206f726465722063616e6e6f742062652063616044820152661b98d95b1b195960ca1b6064820152608490fd5b506001861461082c565b634e487b7160e01b86526021600452602486fd5b6109a89150843d86116105ca576105bc8183611f2e565b386107e4565b6109c59150843d86116105ca576105bc8183611f2e565b386107b7565b6040513d87823e3d90fd5b503461025557604036600319011261025557602490813560043560068210156105f0576040516395a8c58d60e01b8152602092907f00000000000000000000000000000000000000000000000000000000000000006001600160a01b031690848180610a453360048301612058565b0381855afa908115610f055791610a66869260049489916109ae5750612072565b604051635c975abb60e01b815292839182905afa9081156109cb5790610a93918691610eee5750156120cd565b818452600192838152610aab6040862054151561246c565b828552838152604085206005810160ff815416956006871015610e2957848714610eaa5787600488141580610e9d575b15610e3c57610e29578615888115610c9757610c84578186148015610c7a575b15610c2b57610b599697989950918591610b3e935b15610bda57610b206007546125ef565b6007555b82610b705750610b35600754612119565b6007555b612439565b600742910155610b516040518096612003565b840190612003565b60008051602061267083398151915260403393a380f35b8203610b8957610b81600854612119565b600855612439565b60028203610ba457610b9c600954612119565b600955612439565b60038203610bbf57610bb7600a54612119565b600a55612439565b60048203610b3957610bd2600b54612119565b600b55612439565b898103610bf557610bec6008546125ef565b6008555b610b24565b60028a03610c1057610c086009546125ef565b600955610b24565b60038a03610bf057610c23600a546125ef565b600a55610b24565b60405162461bcd60e51b8152600481018690526034818c01526000805160206126508339815191526044820152736e736974696f6e2066726f6d2050454e44494e4760601b6064820152608490fd5b5060048614610afb565b634e487b7160e01b895260216004528989fd5b50878203610d245788610c8457600286148015610d1a575b15610cc857610b599697989950918591610b3e93610b10565b60405162461bcd60e51b8152600481018690526037818c01526000805160206126508339815191526044820152766e736974696f6e2066726f6d2050524f43455353494e4760481b6064820152608490fd5b5060048614610caf565b9760028803610dab5797600386148015610da1575b15610d5257610b599697989950918591610b3e93610b10565b60405162461bcd60e51b8152600481018690526034818c01526000805160206126508339815191526044820152731b9cda5d1a5bdb88199c9bdb4814d2125414115160621b6064820152608490fd5b5060058614610d39565b979860038814610dc9575b50610b3e918591610b599798999a610b10565b9860058603610dd85798610db6565b60405162461bcd60e51b8152600481018690526036818c01526000805160206126508339815191526044820152751b9cda5d1a5bdb88199c9bdb4811115312559154915160521b6064820152608490fd5b634e487b7160e01b885260216004528888fd5b60405162461bcd60e51b8152600481018690526034818c01527f4f726465724d616e616765723a2063616e6e6f74207570646174652063616e6360448201527332b63632b217b932b33ab73232b21037b93232b960611b6064820152608490fd5b5050876005881415610adb565b60405162461bcd60e51b815260048101859052601e818b01527f4f726465724d616e616765723a2073746174757320756e6368616e67656400006044820152606490fd5b6109a89150853d87116105ca576105bc8183611f2e565b6040513d88823e3d90fd5b5034610255576060366003190112610255576024356001600160401b03811161025157610f41903690600401611f51565b6001600160401b0360443511610251573660236044350112156102515760443560040135610f6e81611fac565b90610f7c6040519283611f2e565b808252602082013660248360051b60443501011161199857602460443501905b60248360051b604435010182106118be5750506040516395a8c58d60e01b815290507f00000000000000000000000000000000000000000000000000000000000000006001600160a01b031660208280610ff93360048301612058565b0381845afa9081156109cb5761101a60209260049488916109ae5750612072565b604051635c975abb60e01b815292839182905afa80156105d1576110459185916118a55750156120cd565b805115611854578151156118035761105d8354612119565b80845583805b83518210156111a6576060611078838661213e565b5101511561116157828652600260205260408620611096838661213e565b5181549091600160401b82101561114d5760018201808255821015611139576110e79261113394926110d2928b52600660208c209102016121b9565b60a06110de858861213e565b510151906123e2565b916110f2818661213e565b5151847f8a1280fca4a230513637a971f1744d0fac074bb2cf3742f1fa0b07251651e0ad60206060611124868b61213e565b510151604051908152a3612119565b90611063565b634e487b7160e01b89526032600452602489fd5b634e487b7160e01b89526041600452602489fd5b60405162461bcd60e51b815260206004820152601e60248201527f4f726465724d616e616765723a20696e76616c6964207175616e7469747900006044820152606490fd5b82858792604051602081019084825260043560408201528260608201524260808201523360601b60a0820152609481526111df81611ec7565b519020604051926111ef84611f13565b6042845260208401606036823784511561150757603090538351600110156117ef5760786021850153855b602081106117595750604051602081016001600160401b0381118282101761174557604090815287825251916001600160401b03610140840190811190841117611745576101408301604052868352602083019160043583526040840191825260608401528460808401528760a08401524260c08401524260e0840152856101008401528761012084015286885260016020526040882091835183555160018301555180519060018060401b03821161114d5781906112dc6002850154612168565b601f8111611712575b50602090601f83116001146116a3578a92611698575b50508160011b916000199060031b1c19161760028201555b6060820151805190600160401b821161114d576003830154826003850155808310611612575b506020016003830189526020892089915b8383106115f457505050506080820151600482015560a082015160068110156115e05761137a9060058301612439565b60c0820151600682015560e0820151600782015561010082015180516001600160401b03811161114d5760088301916113b38354612168565b601f81116115a5575b50602090601f831160011461153a5791806009949261012096948d9261152f575b50508160011b916000199060031b1c19161790555b01910151151560ff801983541691161790556004358552600360205260408520805490600160401b82101561151b57600182018082558210156115075786526020862001849055600454600160401b8110156114f357918460406020977ffba86b63f29512c0954255c52c425a587c4e5346933cf1c260091c732d7e819f94611482876001869901600455612451565b81549060031b9086821b91600019901b191617905581526005895220556114aa600654612119565b6006556114b8600754612119565b6007556114c781600c546123e2565b600c55604051908152604086820152806114e8600435956040830190611fc3565b0390a3604051908152f35b634e487b7160e01b86526041600452602486fd5b634e487b7160e01b87526032600452602487fd5b634e487b7160e01b87526041600452602487fd5b015190508c806113dd565b838b5260208b209190601f1984168c5b81811061158d575092600192859261012098966009989610611574575b505050811b0190556113f2565b015160001960f88460031b161c191690558c8080611567565b9293602060018192878601518155019501930161154a565b6115d090848c5260208c20601f850160051c810191602086106115d6575b601f0160051c01906121a2565b8a6113bc565b90915081906115c3565b634e487b7160e01b88526021600452602488fd5b600660208261160660019451866121b9565b0192019201919061134a565b600681810204810361168457600683810204830361168457600384018a5260208a208360060281015b826006028201811061164e575050611339565b808c60069255611660600182016123ef565b61166c600282016123ef565b8c60038201558c60048201558c60058201550161163b565b634e487b7160e01b8a52601160045260248afd5b0151905089806112fb565b9250600284018a5260208a20908a935b601f19841685106116f7576001945083601f198116106116de575b505050811b016002820155611313565b015160001960f88460031b161c191690558980806116ce565b818101518355602094850194600190930192909101906116b3565b61173f90600286018c5260208c20601f850160051c810191602086106115d657601f0160051c01906121a2565b8a6112e5565b634e487b7160e01b88526041600452602488fd5b61176a600f84831a60041c1661260d565b600290828060011b048214831517156117db578260011b820182116117db5761179b90891a918360011b01876125fc565b536117aa600f84831a1661260d565b6003908260011b820182116117db57906117d06117d693928a1a918360011b01886125fc565b53612119565b61121a565b634e487b7160e01b89526011600452602489fd5b634e487b7160e01b86526032600452602486fd5b60405162461bcd60e51b8152602060048201526024808201527f4f726465724d616e616765723a20637573746f6d6572206e616d6520726571756044820152631a5c995960e21b6064820152608490fd5b60405162461bcd60e51b815260206004820152602360248201527f4f726465724d616e616765723a206f72646572206d7573742068617665206974604482015262656d7360e81b6064820152608490fd5b6109a8915060203d6020116105ca576105bc8183611f2e565b81356001600160401b0381116119945760c060443582013603602319011261199457604051906118ed82611ec7565b604480358201602481013584526001600160401b039101351161199057611921366044803584019081013501602401611f51565b60208301526001600160401b036044358201606401351161199057602492602092839260c49061195d3660443583016064810135018901611f51565b6040840152604435016084810135606084015260a48101356080840152013560a082015281529190930192019050610f9c565b8780fd5b8680fd5b8480fd5b50346102555780600319360112610255576020600454604051908152f35b50346102555760208060031936011261025157600435600691828210159283611998576004549285805b858110611a9657506119f5906125bd565b948692875b868110611a0f57604051806103b88a82611e8c565b611a1881612451565b9054600391821b1c8a526001875260408a206005015460ff1684611a825783811015611a82578514611a54575b50611a4f90612119565b6119fa565b8195611a7b91611a66611a4f94612451565b9054911b1c611a75828c61213e565b52612119565b9490611a45565b634e487b7160e01b8b52602160045260248bfd5b611a9f81612451565b90549060031b1c8852600185528660ff600560408b2001541690611aef5784811015611aef578314611ada575b611ad590612119565b6119e4565b90611ae7611ad591612119565b919050611acc565b634e487b7160e01b89526021600452602489fd5b5034610255578060031936011261025557604051600480548083529083526020808301937f8a35acfbc15ff81a39ae7d344fd709f28e8600b4aa8c65c6b64bfe7fe36bd19b92915b828210611b62576103b8856103ac81890382611f2e565b835486529485019460019384019390910190611b4b565b5034610255576020366003190112610255576004805491903582811115611c265750815b611ba6816125bd565b60001980850194919391808611835b858110611bca57604051806103b88982611e8c565b81611c12578381840301888111611bfe5790611be8611bf992612451565b90549060031b1c611a75828a61213e565b611bb5565b634e487b7160e01b86526011600452602486fd5b634e487b7160e01b85526011600452602485fd5b611b9d565b503461025557602080600319360112610251576004356040516395a8c58d60e01b8152828180611c5e336004830161203e565b03817f00000000000000000000000000000000000000000000000000000000000000006001600160a01b03165afa80156105d157611ca29185916105a457506124c3565b80835260018252611cb86040842054151561246c565b808352600182526040832091600983019283549360ff8516611d4b5790600080516020612690833981519152929160018254818401546004850154600686015490604051928884019485526040840152606083015260808201524260a08201523360601b60c082015260b48152611d2e81611ef8565b5190209660ff19161790556007429101556040519384523393a380f35b60405162461bcd60e51b8152600481018490526024808201527f4f726465724d616e616765723a206f7264657220616c72656164792076657269604482015263199a595960e21b6064820152608490fd5b50346102555760403660031901126102555760043590818152600190602092828452611dcd6040832054151561246c565b81528183528260086040832001604051938491838301948092825492611df284612168565b93828116908115611e6a5750600114611e2d575b50505050611e1d925003601f198101845283611f2e565b6024359151902014604051908152f35b909180939450528482205b838310611e545750505091611e1d928201018592388080611e06565b8054888401870152879450918501918101611e38565b9350505050611e1d94925060ff19168552801515028201018592388080611e06565b6020908160408183019282815285518094520193019160005b828110611eb3575050505090565b835185529381019392810192600101611ea5565b60c081019081106001600160401b03821117611ee257604052565b634e487b7160e01b600052604160045260246000fd5b60e081019081106001600160401b03821117611ee257604052565b608081019081106001600160401b03821117611ee257604052565b601f909101601f19168101906001600160401b03821190821017611ee257604052565b81601f82011215611fa7578035906001600160401b038211611ee25760405192611f85601f8401601f191660200185611f2e565b82845260208383010111611fa757816000926020809301838601378301015290565b600080fd5b6001600160401b038111611ee25760051b60200190565b919082519283825260005b848110611fef575050826000602080949584010152601f8019910116010190565b602081830181015184830182015201611fce565b9060068210156120105752565b634e487b7160e01b600052602160045260246000fd5b90816020910312611fa757518015158103611fa75790565b6001600160a01b0390911681526003602082015260400190565b6001600160a01b0390911681526002602082015260400190565b1561207957565b60405162461bcd60e51b815260206004820152602660248201527f4f726465724d616e616765723a20696e73756666696369656e74207065726d696044820152657373696f6e7360d01b6064820152608490fd5b156120d457565b60405162461bcd60e51b815260206004820152601e60248201527f4f726465724d616e616765723a2073797374656d2069732070617573656400006044820152606490fd5b60001981146121285760010190565b634e487b7160e01b600052601160045260246000fd5b80518210156121525760209160051b010190565b634e487b7160e01b600052603260045260246000fd5b90600182811c92168015612198575b602083101461218257565b634e487b7160e01b600052602260045260246000fd5b91607f1691612177565b8181106121ad575050565b600081556001016121a2565b815181556020808301518051929391926001600160401b039060019081870190838111611ee257806121eb8354612168565b95601f968781116123b4575b50889087831160011461235157600092612346575b5050600019600383901b1c191690831b1790555b60028601926040850151958651938411611ee25761223e8554612168565b82811161230e575b508091841160011461229f57509180809260a0969594600598600094612294575b50501b916000199060031b1c19161790555b60608101516003850155608081015160048501550151910155565b015192503880612267565b91939495601f1984168660005283600020936000905b8282106122f7575050916005979593918560a0989694106122de575b505050811b019055612279565b015160001960f88460031b161c191690553880806122d1565b8088869782949787015181550196019401906122b5565b6123379086600052826000208480880160051c82019285891061233d575b0160051c01906121a2565b38612246565b9250819261232c565b01519050388061220c565b90859350601f19831691856000528a6000209260005b8c82821061239e5750508411612385575b505050811b019055612220565b015160001960f88460031b161c19169055388080612378565b8385015186558997909501949384019301612367565b6123dc90856000528a6000208980860160051c8201928d871061233d570160051c01906121a2565b386121f7565b9190820180921161212857565b6123f98154612168565b9081612403575050565b81601f600093116001146124165750555b565b908083918252612435601f60208420940160051c8401600185016121a2565b5555565b9060068110156120105760ff80198354169116179055565b60045481101561215257600460005260206000200190600090565b1561247357565b60405162461bcd60e51b815260206004820152602260248201527f4f726465724d616e616765723a206f7264657220646f6573206e6f74206578696044820152611cdd60f21b6064820152608490fd5b156124ca57565b60405162461bcd60e51b815260206004820152602160248201527f4f726465724d616e616765723a2063616c6c6572206973206e6f742061646d696044820152603760f91b6064820152608490fd5b906040519182600082549261252d84612168565b90818452600194858116908160001461259a5750600114612557575b505061241492500383611f2e565b9093915060005260209081600020936000915b81831061258257505061241493508201013880612549565b8554888401850152948501948794509183019161256a565b91505061241494506020925060ff191682840152151560051b8201013880612549565b906125c782611fac565b6125d46040519182611f2e565b82815280926125e5601f1991611fac565b0190602036910137565b8015612128576000190190565b908151811015612152570160200190565b60ff16600a8110156126345760300160ff81116121285760f81b6001600160f81b03191690565b60570160ff81116121285760f81b6001600160f81b0319169056fe4f726465724d616e616765723a20696e76616c696420737461747573207472612b230c88a2dfbd05827496c85a5481f5b5fd85a1306a77da91f82d920e23169468182752f7c36c047099c6828b2fec7d51058945f7c6196a02681fe819d7ee80a2646970667358221220443e23d3c24afd348087fccd1d8d69d83fac409bcce29b5a66f766db6b3734fe64736f6c63430008130033",
  "linkReferences": {},
  "deployedLinkReferences": {}
}