{
  "_format": "hh-sol-artifact-1",
  "contractName": "AuditLog",
  "sourceName": "contracts/AuditLog.sol",
  "abi": [
    {
      "inputs": [
        {
          "internalType": "address",
          "name": "_coreAddress",
          "type": "address"
        }
      ],
      "stateMutability": "nonpayable",
      "type": "constructor"
    },
    {
      "anonymous": false,
      "inputs": [
        {
          "indexed": true,
          "internalType": "uint256",
          "name": "entryId",
          "type": "uint256"
        },
        {
          "indexed": true,
          "internalType": "address",
          "name": "user",
          "type": "address"
        },
        {
          "indexed": false,
          "internalType": "enum IAuditTypes.AuditAction",
          "name": "action",
          "type": "uint8"
        },
        {
          "indexed": false,
          "internalType": "string",
          "name": "entityType",
          "type": "string"
        },
        {
          "indexed": true,
          "internalType": "uint256",
          "name": "entityId",
          "type": "uint256"
        },
        {
          "indexed": false,
          "internalType": "bytes32",
          "name": "dataHash",
          "type": "bytes32"
        }
      ],
      "name": "AuditEntryCreated",
      "type": "event"
    },
    {
      "anonymous": false,
      "inputs": [
        {
          "indexed": false,
          "internalType": "uint256",
          "name": "previousLimit",
          "type": "uint256"
        },
        {
          "indexed": false,
          "internalType": "uint256",
          "name": "newLimit",
          "type": "uint256"
        }
      ],
      "name": "DailyLimitUpdated",
      "type": "event"
    },
    {
      "anonymous": false,
      "inputs": [
        {
          "indexed": true,
          "internalType": "uint256",
          "name": "entryId",
          "type": "uint256"
        },
        {
          "indexed": false,
          "internalType": "bytes32",
          "name": "dataHash",
          "type": "bytes32"
        },
        {
          "indexed": false,
          "internalType": "bool",
          "name": "isValid",
          "type": "bool"
        },
        {
          "indexed": false,
          "internalType": "address",
          "name": "verifiedBy",
          "type": "address"
        }
      ],
      "name": "HashVerified",
      "type": "event"
    },
    {
      "anonymous": false,
      "inputs": [
        {
          "indexed": true,
          "internalType": "address",
          "name": "module",
          "type": "address"
        },
        {
          "indexed": true,
          "internalType": "address",
          "name": "authorizedBy",
          "type": "address"
        }
      ],
      "name": "ModuleAuthorized",
      "type": "event"
    },
    {
      "anonymous": false,
      "inputs": [
        {
          "indexed": true,
          "internalType": "address",
          "name": "module",
          "type": "address"
        },
        {
          "indexed": true,
          "internalType": "address",
          "name": "deauthorizedBy",
          "type": "address"
        }
      ],
      "name": "ModuleDeauthorized",
      "type": "event"
    },
    {
      "inputs": [
        {
          "internalType": "address",
          "name": "module",
          "type": "address"
        }
      ],
      "name": "authorizeModule",
      "outputs": [],
      "stateMutability": "nonpayable",
      "type": "function"
    },
    {
      "inputs": [
        {
          "internalType": "address",
          "name": "",
          "type": "address"
        }
      ],
      "name": "authorizedModules",
      "outputs": [
        {
          "internalType": "bool",
          "name": "",
          "type": "bool"
        }
      ],
      "stateMutability": "view",
      "type": "function"
    },
    {
      "inputs": [
        {
          "internalType": "address[]",
          "name": "users",
          "type": "address[]"
        },
        {
          "internalType": "string[]",
          "name": "userNames",
          "type": "string[]"
        },
        {
          "internalType": "enum IAuditTypes.AuditAction[]",
          "name": "actions",
          "type": "uint8[]"
        },
        {
          "internalType": "string[]",
          "name": "entityTypes",
          "type": "string[]"
        },
        {
          "internalType": "uint256[]",
          "name": "entityIds",
          "type": "uint256[]"
        },
        {
          "internalType": "string[]",
          "name": "detailsArray",
          "type": "string[]"
        }
      ],
      "name": "batchLogEntries",
      "outputs": [],
      "stateMutability": "nonpayable",
      "type": "function"
    },
    {
      "inputs": [],
      "name": "core",
      "outputs": [
        {
          "internalType": "contract BlockERPCore",
          "name": "",
          "type": "address"
        }
      ],
      "stateMutability": "view",
      "type": "function"
    },
    {
      "inputs": [],
      "name": "dailyLimitPerUser",
      "outputs": [
        {
          "internalType": "uint256",
          "name": "",
          "type": "uint256"
        }
      ],
      "stateMutability": "view",
      "type": "function"
    },
    {
      "inputs": [
        {
          "internalType": "address",
          "name": "module",
          "type": "address"
        }
      ],
      "name": "deauthorizeModule",
      "outputs": [],
      "stateMutability": "nonpayable",
      "type": "function"
    },
    {
      "inputs": [],
      "name": "getAllEntryIds",
      "outputs": [
        {
          "internalType": "uint256[]",
          "name": "",
          "type": "uint256[]"
        }
      ],
      "stateMutability": "view",
      "type": "function"
    },
    {
      "inputs": [],
      "name": "getAuditStats",
      "outputs": [
        {
          "internalType": "uint256",
          "name": "total",
          "type": "uint256"
        },
        {
          "internalType": "uint256",
          "name": "today",
          "type": "uint256"
        },
        {
          "internalType": "uint256",
          "name": "uniqueUsers",
          "type": "uint256"
        },
        {
          "internalType": "uint256",
          "name": "withHashes",
          "type": "uint256"
        }
      ],
      "stateMutability": "view",
      "type": "function"
    },
    {
      "inputs": [
        {
          "internalType": "enum IAuditTypes.AuditAction",
          "name": "action",
          "type": "uint8"
        }
      ],
      "name": "getEntriesByAction",
      "outputs": [
        {
          "internalType": "uint256[]",
          "name": "",
          "type": "uint256[]"
        }
      ],
      "stateMutability": "view",
      "type": "function"
    },
    {
      "inputs": [
        {
          "internalType": "uint256",
          "name": "entityId",
          "type": "uint256"
        }
      ],
      "name": "getEntriesByEntityId",
      "outputs": [
        {
          "internalType": "uint256[]",
          "name": "",
          "type": "uint256[]"
        }
      ],
      "stateMutability": "view",
      "type": "function"
    },
    {
      "inputs": [
        {
          "internalType": "string",
          "name": "entityType",
          "type": "string"
        }
      ],
      "name": "getEntriesByEntityType",
      "outputs": [
        {
          "internalType": "uint256[]",
          "name": "",
          "type": "uint256[]"
        }
      ],
      "stateMutability": "view",
      "type": "function"
    },
    {
      "inputs": [
        {
          "internalType": "address",
          "name": "user",
          "type": "address"
        }
      ],
      "name": "getEntriesByUser",
      "outputs": [
        {
          "internalType": "uint256[]",
          "name": "",
          "type": "uint256[]"
        }
      ],
      "stateMutability": "view",
      "type": "function"
    },
    {
      "inputs": [
        {
          "internalType": "uint256",
          "name": "fromTimestamp",
          "type": "uint256"
        },
        {
          "internalType": "uint256",
          "name": "toTimestamp",
          "type": "uint256"
        }
      ],
      "name": "getEntriesInRange",
      "outputs": [
        {
          "internalType": "uint256[]",
          "name": "",
          "type": "uint256[]"
        }
      ],
      "stateMutability": "view",
      "type": "function"
    },
    {
      "inputs": [
        {
          "internalType": "uint256",
          "name": "entryId",
          "type": "uint256"
        }
      ],
      "name": "getEntry",
      "outputs": [
        {
          "components": [
            {
              "internalType": "uint256",
              "name": "id",
              "type": "uint256"
            },
            {
              "internalType": "address",
              "name": "user",
              "type": "address"
            },
            {
              "internalType": "string",
              "name": "userName",
              "type": "string"
            },
            {
              "internalType": "enum IAuditTypes.AuditAction",
              "name": "action",
              "type": "uint8"
            },
            {
              "internalType": "string",
              "name": "entityType",
              "type": "string"
            },
            {
              "internalType": "uint256",
              "name": "entityId",
              "type": "uint256"
            },
            {
              "internalType": "string",
              "name": "details",
              "type": "string"
            },
            {
              "internalType": "bytes32",
              "name": "dataHash",
              "type": "bytes32"
            },
            {
              "internalType": "uint256",
              "name": "timestamp",
              "type": "uint256"
            },
            {
              "internalType": "uint256",
              "name": "blockNumber",
              "type": "uint256"
            }
          ],
          "internalType": "struct IAuditTypes.AuditEntry",
          "name": "",
          "type": "tuple"
        }
      ],
      "stateMutability": "view",
      "type": "function"
    },
    {
      "inputs": [
        {
          "internalType": "bytes32",
          "name": "dataHash",
          "type": "bytes32"
        }
      ],
      "name": "getEntryByHash",
      "outputs": [
        {
          "components": [
            {
              "internalType": "uint256",
              "name": "id",
              "type": "uint256"
            },
            {
              "internalType": "address",
              "name": "user",
              "type": "address"
            },
            {
              "internalType": "string",
              "name": "userName",
              "type": "string"
            },
            {
              "internalType": "enum IAuditTypes.AuditAction",
              "name": "action",
              "type": "uint8"
            },
            {
              "internalType": "string",
              "name": "entityType",
              "type": "string"
            },
            {
              "internalType": "uint256",
              "name": "entityId",
              "type": "uint256"
            },
            {
              "internalType": "string",
              "name": "details",
              "type": "string"
            },
            {
              "internalType": "bytes32",
              "name": "dataHash",
              "type": "bytes32"
            },
            {
              "internalType": "uint256",
              "name": "timestamp",
              "type": "uint256"
            },
            {
              "internalType": "uint256",
              "name": "blockNumber",
              "type": "uint256"
            }
          ],
          "internalType": "struct IAuditTypes.AuditEntry",
          "name": "",
          "type": "tuple"
        }
      ],
      "stateMutability": "view",
      "type": "function"
    },
    {
      "inputs": [],
      "name": "getEntryCount",
      "outputs": [
        {
          "internalType": "uint256",
          "name": "",
          "type": "uint256"
        }
      ],
      "stateMutability": "view",
      "type": "function"
    },
    {
      "inputs": [
        {
          "internalType": "uint256",
          "name": "count",
          "type": "uint256"
        }
      ],
      "name": "getRecentEntries",
      "outputs": [
        {
          "components": [
            {
              "internalType": "uint256",
              "name": "id",
              "type": "uint256"
            },
            {
              "internalType": "address",
              "name": "user",
              "type": "address"
            },
            {
              "internalType": "string",
              "name": "userName",
              "type": "string"
            },
            {
              "internalType": "enum IAuditTypes.AuditAction",
              "name": "action",
              "type": "uint8"
            },
            {
              "internalType": "string",
              "name": "entityType",
              "type": "string"
            },
            {
              "internalType": "uint256",
              "name": "entityId",
              "type": "uint256"
            },
            {
              "internalType": "string",
              "name": "details",
              "type": "string"
            },
            {
              "internalType": "bytes32",
              "name": "dataHash",
              "type": "bytes32"
            },
            {
              "internalType": "uint256",
              "name": "timestamp",
              "type": "uint256"
            },
            {
              "internalType": "uint256",
              "name": "blockNumber",
              "type": "uint256"
            }
          ],
          "internalType": "struct IAuditTypes.AuditEntry[]",
          "name": "",
          "type": "tuple[]"
        }
      ],
      "stateMutability": "view",
      "type": "function"
    },
    {
      "inputs": [
        {
          "internalType": "string",
          "name": "entityType",
          "type": "string"
        },
        {
          "internalType": "uint256",
          "name": "entityId",
          "type": "uint256"
        },
        {
          "internalType": "string",
          "name": "details",
          "type": "string"
        }
      ],
      "name": "logCreate",
      "outputs": [
        {
          "internalType": "uint256",
          "name": "",
          "type": "uint256"
        }
      ],
      "stateMutability": "nonpayable",
      "type": "function"
    },
    {
      "inputs": [
        {
          "internalType": "string",
          "name": "entityType",
          "type": "string"
        },
        {
          "internalType": "uint256",
          "name": "entityId",
          "type": "uint256"
        },
        {
          "internalType": "string",
          "name": "details",
          "type": "string"
        }
      ],
      "name": "logDelete",
      "outputs": [
        {
          "internalType": "uint256",
          "name": "",
          "type": "uint256"
        }
      ],
      "stateMutability": "nonpayable",
      "type": "function"
    },
    {
      "inputs": [
        {
          "internalType": "address",
          "name": "user",
          "type": "address"
        },
        {
          "internalType": "string",
          "name": "userName",
          "type": "string"
        },
        {
          "internalType": "enum IAuditTypes.AuditAction",
          "name": "action",
          "type": "uint8"
        },
        {
          "internalType": "string",
          "name": "entityType",
          "type": "string"
        },
        {
          "internalType": "uint256",
          "name": "entityId",
          "type": "uint256"
        },
        {
          "internalType": "string",
          "name": "details",
          "type": "string"
        },
        {
          "internalType": "bytes32",
          "name": "dataHash",
          "type": "bytes32"
        }
      ],
      "name": "logEntry",
      "outputs": [
        {
          "internalType": "uint256",
          "name": "",
          "type": "uint256"
        }
      ],
      "stateMutability": "nonpayable",
      "type": "function"
    },
    {
      "inputs": [
        {
          "internalType": "string",
          "name": "entityType",
          "type": "string"
        },
        {
          "internalType": "uint256",
          "name": "entityId",
          "type": "uint256"
        },
        {
          "internalType": "string",
          "name": "details",
          "type": "string"
        }
      ],
      "name": "logStatusChange",
      "outputs": [
        {
          "internalType": "uint256",
          "name": "",
          "type": "uint256"
        }
      ],
      "stateMutability": "nonpayable",
      "type": "function"
    },
    {
      "inputs": [
        {
          "internalType": "string",
          "name": "entityType",
          "type": "string"
        },
        {
          "internalType": "uint256",
          "name": "entityId",
          "type": "uint256"
        },
        {
          "internalType": "string",
          "name": "details",
          "type": "string"
        }
      ],
      "name": "logTransfer",
      "outputs": [
        {
          "internalType": "uint256",
          "name": "",
          "type": "uint256"
        }
      ],
      "stateMutability": "nonpayable",
      "type": "function"
    },
    {
      "inputs": [
        {
          "internalType": "string",
          "name": "entityType",
          "type": "string"
        },
        {
          "internalType": "uint256",
          "name": "entityId",
          "type": "uint256"
        },
        {
          "internalType": "string",
          "name": "details",
          "type": "string"
        }
      ],
      "name": "logUpdate",
      "outputs": [
        {
          "internalType": "uint256",
          "name": "",
          "type": "uint256"
        }
      ],
      "stateMutability": "nonpayable",
      "type": "function"
    },
    {
      "inputs": [
        {
          "internalType": "string",
          "name": "entityType",
          "type": "string"
        },
        {
          "internalType": "uint256",
          "name": "entityId",
          "type": "uint256"
        },
        {
          "internalType": "string",
          "name": "details",
          "type": "string"
        },
        {
          "internalType": "bytes32",
          "name": "dataHash",
          "type": "bytes32"
        }
      ],
      "name": "logVerification",
      "outputs": [
        {
          "internalType": "uint256",
          "name": "",
          "type": "uint256"
        }
      ],
      "stateMutability": "nonpayable",
      "type": "function"
    },
    {
      "inputs": [
        {
          "internalType": "uint256",
          "name": "newLimit",
          "type": "uint256"
        }
      ],
      "name": "setDailyLimit",
      "outputs": [],
      "stateMutability": "nonpayable",
      "type": "function"
    },
    {
      "inputs": [
        {
          "internalType": "uint256",
          "name": "entryId",
          "type": "uint256"
        },
        {
          "internalType": "bytes32",
          "name": "providedHash",
          "type": "bytes32"
        }
      ],
      "name": "verifyEntryIntegrity",
      "outputs": [
        {
          "internalType": "bool",
          "name": "",
          "type": "bool"
        }
      ],
      "stateMutability": "view",
      "type": "function"
    },
    {
      "inputs": [
        {
          "internalType": "bytes32",
          "name": "dataHash",
          "type": "bytes32"
        }
      ],
      "name": "verifyHash",
      "outputs": [
        {
          "internalType": "bool",
          "name": "",
          "type": "bool"
        }
      ],
      "stateMutability": "view",
      "type": "function"
    }
  ],
  "bytecode": "0x60a0346200011457601f6200665938819003918201601f19168301916001600160401b0383118484101762000119578084926020946040528339810103126200011457516001600160a01b0381169081900362000114578015620000cf57608052600080556000600855604051616529908162000130823960805181818161015e015281816101f1015281816110e3015281816111ae01528181611d9601528181611f4e015281816123370152818161251a0152818161309a01528181613dd70152818161454101526147650152f35b60405162461bcd60e51b815260206004820152601e60248201527f41756469744c6f673a20696e76616c696420636f7265206164647265737300006044820152606490fd5b600080fd5b634e487b7160e01b600052604160045260246000fdfe608080604052600436101561001357600080fd5b60003560e01c9081630ce3d863146153a25750806317f6fe5b146153635780631b5b0148146152f95780631b9efecd14615280578063268719021461473457806345b454711461461557806352f00b05146144f85780635e1fa7bf14613c165780636191043b14613bca578063650834d6146130695780637a360e651461304b5780637bf2abdc146124e95780637d7aed9e14612401578063813289971461229057806392860ff2146121f557806393cb8108146121685780639c32f6b41461203d578063a252b87e14611ed8578063a30a8e7114611d4d578063ad72367314611cc9578063af8c57e71461117d578063b20d30a9146110ac578063bae78d7b14610fbe578063c2b0ad4b14610dd9578063e271105f146101c0578063ef020f4a146101925763f2f4eb261461014857600080fd5b3461018d57600036600319011261018d576040517f00000000000000000000000000000000000000000000000000000000000000006001600160a01b03168152602090f35b600080fd5b3461018d57602036600319011261018d57600435600052600660205260206040600020541515604051908152f35b3461018d576101ce366154a3565b906040516395a8c58d60e01b8152602081806101ed336004830161568a565b03817f00000000000000000000000000000000000000000000000000000000000000006001600160a01b03165afa908115610dcd57600091610d9e575b508015610d85575b61023b906156be565b6008541561083757336000526009602052604060002062015180420460005260205261026f60406000205460085411615705565b610277615dac565b91610283600054615751565b9283600055604051602081019085825260018060601b03193360601b166040820152600160f91b60548201526102e560958289516102c9818c6020605586019101615584565b810188605582015242607582015203607581018452018261542a565b51902091604051916102f68361540e565b8583523360208401526040830152600260608301528560808301528360a083015260c08201528160e082015242610100820152436101208201528360005260016020526040600020815181556001810160018060a01b0360208401511660018060a01b0319825416179055604082015180519060018060401b038211610675578190610385600285015461576c565b601f81116107e4575b50602090601f83116001146107775760009261076c575b50508160011b916000199060031b1c19161760028201555b60038101606083015160068110156107565760ff80198354169116179055608082015180519060018060401b0382116106755781906103ff600485015461576c565b601f8111610703575b50602090601f83116001146106965760009261068b575b50508160011b916000199060031b1c19161760048201555b60a0820151600582015560c0820151805192906001600160401b03841161067557610465600684015461576c565b601f811161062e575b50916020979187938990601f87116001146105a65791866000805160206164d483398151915296976101209360099560009261059b575b50508160011b916000199060031b1c19161760068501555b60e08101516007850155610100810151600885015501519101556104e0836157d7565b33600052600387526104f683604060002061580e565b61051d836040518981855161050e8183858a01615584565b8101600481520301902061580e565b846000526005875261053383604060002061580e565b83600052600687528260406000205561055d604051916002835260608984015260608301906155a7565b9360408201528033940390a433600052600982526040600020620151804204600052825260406000206105908154615751565b90555b604051908152f35b015190508d806104a5565b9590600684016000528a6000209660005b601f19841681106106145750826000805160206164d483398151915297986009959360019361012096601f198116106105fb575b505050811b0160068501556104bd565b015160001960f88460031b161c191690558d80806105eb565b8282015189556001909801978b9750918c01918c016105b7565b600684016000526020600020601f860160051c81016020871061066e575b601f830160051c8201811061066257505061046e565b6000815560010161064c565b508061064c565b634e487b7160e01b600052604160045260246000fd5b01519050888061041f565b600485016000908152602081209350601f198516905b8181106106eb57509084600195949392106106d2575b505050811b016004820155610437565b015160001960f88460031b161c191690558880806106c2565b929360206001819287860151815501950193016106ac565b909150600484016000526020600020601f840160051c81016020851061074f575b90849392915b601f830160051c82018110610740575050610408565b6000815585945060010161072a565b5080610724565b634e487b7160e01b600052602160045260246000fd5b0151905088806103a5565b600285016000908152602081209350601f198516905b8181106107cc57509084600195949392106107b3575b505050811b0160028201556103bd565b015160001960f88460031b161c191690558880806107a3565b9293602060018192878601518155019501930161078d565b909150600284016000526020600020601f840160051c810160208510610830575b90849392915b601f830160051c8201811061082157505061038e565b6000815585945060010161080b565b5080610805565b61083f615dac565b9161084b600054615751565b9283600055604051602081019085825260018060601b03193360601b166040820152600160f91b605482015261089160958289516102c9818c6020605586019101615584565b51902091604051916108a28361540e565b8583523360208401526040830152600260608301528560808301528360a083015260c08201528160e082015242610100820152436101208201528360005260016020526040600020815181556001810160018060a01b0360208401511660018060a01b0319825416179055604082015180519060018060401b038211610675578190610931600285015461576c565b601f8111610d32575b50602090601f8311600114610cc057600092610cb5575b50508160011b916000199060031b1c19161760028201555b60038101606083015160068110156107565760ff80198354169116179055608082015180519060018060401b0382116106755781906109ab600485015461576c565b601f8111610c62575b50602090601f8311600114610bf057600092610be5575b50508160011b916000199060031b1c19161760048201555b60a0820151600582015560c0820151805192906001600160401b03841161067557610a11600684015461576c565b601f8111610b9e575b50916020979187938990601f8711600114610b165791866000805160206164d4833981519152969761012093600995600092610b0b575b50508160011b916000199060031b1c19161760068501555b60e0810151600785015561010081015160088501550151910155610a8c836157d7565b3360005260038752610aa283604060002061580e565b610aba836040518981855161050e8183858a01615584565b8460005260058752610ad083604060002061580e565b836000526006875282604060002055610afa604051916002835260608984015260608301906155a7565b9360408201528033940390a4610593565b015190508d80610a51565b9590600684016000528a6000209660005b601f1984168110610b845750826000805160206164d483398151915297986009959360019361012096601f19811610610b6b575b505050811b016006850155610a69565b015160001960f88460031b161c191690558d8080610b5b565b8282015189556001909801978b9750918c01918c01610b27565b600684016000526020600020601f860160051c810160208710610bde575b601f830160051c82018110610bd2575050610a1a565b60008155600101610bbc565b5080610bbc565b0151905088806109cb565b9250600484016000526020600020906000935b601f1984168510610c47576001945083601f19811610610c2e575b505050811b0160048201556109e3565b015160001960f88460031b161c19169055888080610c1e565b81810151835560209485019460019093019290910190610c03565b909150600484016000526020600020601f840160051c810160208510610cae575b90849392915b601f830160051c82018110610c9f5750506109b4565b60008155859450600101610c89565b5080610c83565b015190508880610951565b9250600284016000526020600020906000935b601f1984168510610d17576001945083601f19811610610cfe575b505050811b016002820155610969565b015160001960f88460031b161c19169055888080610cee565b81810151835560209485019460019093019290910190610cd3565b909150600284016000526020600020601f840160051c810160208510610d7e575b90849392915b601f830160051c82018110610d6f57505061093a565b60008155859450600101610d59565b5080610d53565b503360009081526007602052604090205460ff16610232565b610dc0915060203d602011610dc6575b610db8818361542a565b810190615672565b8461022a565b503d610dae565b6040513d6000823e3d90fd5b3461018d5760208060031936011261018d57600280549060043582811115610fb85750815b610e07836154ed565b92610e15604051948561542a565b808452601f19610e24826154ed565b018560005b828110610fa2575091926000198082019350915080831160005b858110610ea857604080518a81528951818c01819052600092600582901b83018101918c8e01918e9085015b828710610e7c5785850386f35b909192938280610e98600193603f198a820301865288516155d9565b9601920196019592919092610e6f565b81610f8c57838184030190858211610f8c578760098b610f2360ff610ecf610f87976157a6565b9054600391821b1c600052610f1160019687865260406000209560405198610ef68a61540e565b87548a528701546001600160a01b03169089015285016163af565b60408701528301541660608501615760565b610f2f600482016163af565b6080840152600581015460a0840152610f4a600682016163af565b60c0840152600781015460e084015260088101546101008401520154610120820152610f76828b61634c565b52610f81818a61634c565b50615751565b610e43565b634e487b7160e01b600052601160045260246000fd5b610faa616360565b828289010152018690610e29565b91610dfe565b3461018d5760208060031936011261018d57600435610fdb616360565b508060005260018252610ff46040600020541515616455565b600052600181526040600020906009604051926110108461540e565b8054845260018101546001600160a01b031683850152611032600282016163af565b604085015261104b60ff60038301541660608601615760565b611057600482016163af565b6080850152600581015460a0850152611072600682016163af565b60c0850152600781015460e0850152600881015461010085015201546101208301526110a86040519282849384528301906155d9565b0390f35b3461018d57602036600319011261018d57600435604051906395a8c58d60e01b8252602082806110df33600483016156a4565b03817f00000000000000000000000000000000000000000000000000000000000000006001600160a01b03165afa908115610dcd5761114a6040927f207c4cbdf55ec315a13f0d5e047732ec5d947da056e706593aa509909941cedf9460009161115f575b50616300565b600854908060085582519182526020820152a1005b611177915060203d8111610dc657610db8818361542a565b85611144565b3461018d5761118b366154a3565b906040516395a8c58d60e01b8152602081806111aa336004830161568a565b03817f00000000000000000000000000000000000000000000000000000000000000006001600160a01b03165afa908115610dcd57600091611caa575b508015611c91575b6111f8906156be565b6008541561175f57336000526009602052604060002062015180420460005260205261122c60406000205460085411615705565b611234615dac565b91611240600054615751565b9283600055604051602081019085825260018060601b03193360601b166040820152600160fa1b605482015261128660958289516102c9818c6020605586019101615584565b51902091604051916112978361540e565b8583523360208401526040830152600460608301528560808301528360a083015260c08201528160e082015242610100820152436101208201528360005260016020526040600020815181556001810160018060a01b0360208401511660018060a01b0319825416179055604082015180519060018060401b038211610675578190611326600285015461576c565b601f811161170c575b50602090601f831160011461169f57600092611694575b50508160011b916000199060031b1c19161760028201555b60038101606083015160068110156107565760ff80198354169116179055608082015180519060018060401b0382116106755781906113a0600485015461576c565b601f8111611641575b50602090601f83116001146115d4576000926115c9575b50508160011b916000199060031b1c19161760048201555b60a0820151600582015560c0820151805192906001600160401b03841161067557611406600684015461576c565b601f8111611582575b50916020979187938990601f87116001146114fa5791866000805160206164d48339815191529697610120936009956000926114ef575b50508160011b916000199060031b1c19161760068501555b60e0810151600785015561010081015160088501550151910155611481836157d7565b336000526003875261149783604060002061580e565b6114af836040518981855161050e8183858a01615584565b84600052600587526114c583604060002061580e565b83600052600687528260406000205561055d604051916004835260608984015260608301906155a7565b015190508d80611446565b9590600684016000528a6000209660005b601f19841681106115685750826000805160206164d483398151915297986009959360019361012096601f1981161061154f575b505050811b01600685015561145e565b015160001960f88460031b161c191690558d808061153f565b8282015189556001909801978b9750918c01918c0161150b565b600684016000526020600020601f860160051c8101602087106115c2575b601f830160051c820181106115b657505061140f565b600081556001016115a0565b50806115a0565b0151905088806113c0565b600485016000908152602081209350601f198516905b8181106116295750908460019594939210611610575b505050811b0160048201556113d8565b015160001960f88460031b161c19169055888080611600565b929360206001819287860151815501950193016115ea565b909150600484016000526020600020601f840160051c81016020851061168d575b90849392915b601f830160051c8201811061167e5750506113a9565b60008155859450600101611668565b5080611662565b015190508880611346565b600285016000908152602081209350601f198516905b8181106116f457509084600195949392106116db575b505050811b01600282015561135e565b015160001960f88460031b161c191690558880806116cb565b929360206001819287860151815501950193016116b5565b909150600284016000526020600020601f840160051c810160208510611758575b90849392915b601f830160051c8201811061174957505061132f565b60008155859450600101611733565b508061172d565b611767615dac565b91611773600054615751565b9283600055604051602081019085825260018060601b03193360601b166040820152600160fa1b60548201526117b960958289516102c9818c6020605586019101615584565b51902091604051916117ca8361540e565b858352602083019133835260408401918252600460608501528760808501528560a085015260c08401528360e0840152426101008401524361012084015285600052600160205260406000209183518355600183019060018060a01b0390511660018060a01b03198254161790555180519060018060401b038211610675578190611858600285015461576c565b601f8111611c3e575b50602090601f8311600114611bd157600092611bc6575b50508160011b916000199060031b1c19161760028201555b60038101606083015160068110156107565760ff80198354169116179055608082015180519060018060401b0382116106755781906118d2600485015461576c565b601f8111611b73575b50602090601f8311600114611b0657600092611afb575b50508160011b916000199060031b1c19161760048201555b60a0820151600582015560c0820151805192906001600160401b03841161067557611938600684015461576c565b601f8111611ab4575b50916020979187938990601f8711600114611a2c5791866000805160206164d4833981519152969761012093600995600092611a21575b50508160011b916000199060031b1c19161760068501555b60e08101516007850155610100810151600885015501519101556119b3836157d7565b33600052600387526119c983604060002061580e565b6119e1836040518981855161050e8183858a01615584565b84600052600587526119f783604060002061580e565b836000526006875282604060002055610afa604051916004835260608984015260608301906155a7565b015190508d80611978565b9590600684016000528a6000209660005b601f1984168110611a9a5750826000805160206164d483398151915297986009959360019361012096601f19811610611a81575b505050811b016006850155611990565b015160001960f88460031b161c191690558d8080611a71565b8282015189556001909801978b9750918c01918c01611a3d565b600684016000526020600020601f860160051c810160208710611af4575b601f830160051c82018110611ae8575050611941565b60008155600101611ad2565b5080611ad2565b0151905088806118f2565b600485016000908152602081209350601f198516905b818110611b5b5750908460019594939210611b42575b505050811b01600482015561190a565b015160001960f88460031b161c19169055888080611b32565b92936020600181928786015181550195019301611b1c565b909150600484016000526020600020601f840160051c810160208510611bbf575b90849392915b601f830160051c82018110611bb05750506118db565b60008155859450600101611b9a565b5080611b94565b015190508880611878565b600285016000908152602081209350601f198516905b818110611c265750908460019594939210611c0d575b505050811b016002820155611890565b015160001960f88460031b161c19169055888080611bfd565b92936020600181928786015181550195019301611be7565b909150600284016000526020600020601f840160051c810160208510611c8a575b90849392915b601f830160051c82018110611c7b575050611861565b60008155859450600101611c65565b5080611c5f565b503360009081526007602052604090205460ff166111ef565b611cc3915060203d602011610dc657610db8818361542a565b846111e7565b3461018d5760208060031936011261018d576001600160a01b03611ceb6153bd565b1660005260038152604060002090604051908181845491828152019360005281600020916000905b828210611d36576110a885611d2a8189038261542a565b604051918291826153d3565b835486529485019460019384019390910190611d13565b3461018d5760208060031936011261018d57611d676153bd565b6040516395a8c58d60e01b81529081611d8333600483016156a4565b6001600160a01b039391859183919003817f000000000000000000000000000000000000000000000000000000000000000087165afa8015610dcd57611dd091600091611ec15750616300565b16908115611e7e57816000526007815260ff60406000205416611e2e5760079082600052526040600020600160ff1982541617905533907fbc77d0d80282c2ecb43fbfedcc07876ee409cc1d3444079d801da714afda69f2600080a3005b6084906040519062461bcd60e51b82526004820152602360248201527f41756469744c6f673a206d6f64756c6520616c726561647920617574686f72696044820152621e995960ea1b6064820152fd5b6064906040519062461bcd60e51b825280600483015260248201527f41756469744c6f673a20696e76616c6964206d6f64756c6520616464726573736044820152fd5b6111779150853d8711610dc657610db8818361542a565b3461018d57608036600319011261018d576001600160401b0360043581811161018d57611f0990369060040161544d565b6024359160443590811161018d57611f2590369060040161544d565b6040516395a8c58d60e01b81526020936064359291858180611f4a336004830161568a565b03817f00000000000000000000000000000000000000000000000000000000000000006001600160a01b03165afa908115610dcd57600091612020575b508015612008575b611f98906156be565b60085415611ffa5790611fd792916201518042049433600052600987526040600020866000528752611fd260406000205460085411615705565b615dde565b903360005260098352604060002090600052825260406000206105908154615751565b61200393615dde565b610593565b5033600090815260078652604090205460ff16611f8f565b6120379150863d8811610dc657610db8818361542a565b86611f87565b3461018d57604036600319011261018d57600254600435906024356000805b838110612106575061206d906164a1565b9260009060005b84811061208957604051806110a888826153d3565b612092816157a6565b9054600391821b1c6000526001602052600860406000200154858482101591826120fb575b50506120cd575b506120c890615751565b612074565b81936120f4916120df6120c8946157a6565b9054911b1c6120ee828a61634c565b52615751565b92906120be565b1115905085896120b7565b61210f816157a6565b90549060031b1c60005260016020526008604060002001548386821015918261215d575b5050612148575b61214390615751565b61205c565b9061215561214391615751565b91905061213a565b111590508387612133565b3461018d5760208060031936011261018d57612182616360565b506004356000526006815260406000205480156121b557600052600181526040600020906009604051926110108461540e565b60405162461bcd60e51b8152600481018390526018602482015277105d591a5d131bd9ce881a185cda081b9bdd08199bdd5b9960421b6044820152606490fd5b3461018d5760208060031936011261018d576004356001600160401b03811161018d578161222a61223d92369060040161544d565b8160405193828580945193849201615584565b8101600481520301902090604051908181845491828152019360005281600020916000905b828210612279576110a885611d2a8189038261542a565b835486529485019460019384019390910190612262565b3461018d5760e036600319011261018d576122a96153bd565b6001600160401b039060243582811161018d576122ca90369060040161544d565b9160443590600682101561018d5760643581811161018d576122f090369060040161544d565b906084359060a43590811161018d5761230d90369060040161544d565b9160c43593604051966395a8c58d60e01b8852602097888180612333336004830161568a565b03817f00000000000000000000000000000000000000000000000000000000000000006001600160a01b03165afa908115610dcd576000916123e4575b5080156123cc575b612381906156be565b600854156123c35790611fd79594939291620151804204973360005260098a526040600020896000528a526123be60406000205460085411615705565b615860565b61200396615860565b5033600090815260078952604090205460ff16612378565b6123fb9150893d8b11610dc657610db8818361542a565b89612370565b3461018d57600036600319011261018d576002546201518090814204828102928184041490151715610f8c5760009160009060005b83811061247f5750506080926064831160001461246a57600a8304905b604051938452602084015260408301526060820152f35b821561247857825b90612453565b6001612472565b612488816157a6565b90549060031b1c6000526001602052604060002082600882015410156124d5575b600701546124c0575b6124bb90615751565b612436565b916124cd6124bb91615751565b9290506124b2565b946124e1600791615751565b9590506124a9565b3461018d576124f7366154a3565b906040516395a8c58d60e01b815260208180612516336004830161568a565b03817f00000000000000000000000000000000000000000000000000000000000000006001600160a01b03165afa908115610dcd5760009161302c575b508015613013575b612564906156be565b60085415612ad557336000526009602052604060002062015180420460005260205261259860406000205460085411615705565b6125a0615dac565b916125ac600054615751565b9283600055604051602081019085825260018060601b03193360601b166040820152600360f81b60548201526125f260958289516102c9818c6020605586019101615584565b51902091604051916126038361540e565b8583523360208401526040830152600360608301528560808301528360a083015260c08201528160e082015242610100820152436101208201528360005260016020526040600020815181556001810160018060a01b0360208401511660018060a01b0319825416179055604082015180519060018060401b038211610675578190612692600285015461576c565b601f8111612a82575b50602090601f8311600114612a1057600092612a05575b50508160011b916000199060031b1c19161760028201555b60038101606083015160068110156107565760ff80198354169116179055608082015180519060018060401b03821161067557819061270c600485015461576c565b601f81116129b2575b50602090601f831160011461294057600092612935575b50508160011b916000199060031b1c19161760048201555b60a0820151600582015560c0820151805192906001600160401b03841161067557612772600684015461576c565b601f81116128ee575b50916020979187938990601f87116001146128665791866000805160206164d483398151915296976101209360099560009261285b575b50508160011b916000199060031b1c19161760068501555b60e08101516007850155610100810151600885015501519101556127ed836157d7565b336000526003875261280383604060002061580e565b61281b836040518981855161050e8183858a01615584565b846000526005875261283183604060002061580e565b83600052600687528260406000205561055d604051916003835260608984015260608301906155a7565b015190508d806127b2565b9590600684016000528a6000209660005b601f19841681106128d45750826000805160206164d483398151915297986009959360019361012096601f198116106128bb575b505050811b0160068501556127ca565b015160001960f88460031b161c191690558d80806128ab565b8282015189556001909801978b9750918c01918c01612877565b600684016000526020600020601f860160051c81016020871061292e575b601f830160051c8201811061292257505061277b565b6000815560010161290c565b508061290c565b01519050888061272c565b9250600484016000526020600020906000935b601f1984168510612997576001945083601f1981161061297e575b505050811b016004820155612744565b015160001960f88460031b161c1916905588808061296e565b81810151835560209485019460019093019290910190612953565b909150600484016000526020600020601f840160051c8101602085106129fe575b90849392915b601f830160051c820181106129ef575050612715565b600081558594506001016129d9565b50806129d3565b0151905088806126b2565b9250600284016000526020600020906000935b601f1984168510612a67576001945083601f19811610612a4e575b505050811b0160028201556126ca565b015160001960f88460031b161c19169055888080612a3e565b81810151835560209485019460019093019290910190612a23565b909150600284016000526020600020601f840160051c810160208510612ace575b90849392915b601f830160051c82018110612abf57505061269b565b60008155859450600101612aa9565b5080612aa3565b612add615dac565b91612ae9600054615751565b9283600055604051602081019085825260018060601b03193360601b166040820152600360f81b6054820152612b2f60958289516102c9818c6020605586019101615584565b5190209160405191612b408361540e565b8583523360208401526040830152600360608301528560808301528360a083015260c08201528160e082015242610100820152436101208201528360005260016020526040600020815181556001810160018060a01b0360208401511660018060a01b0319825416179055604082015180519060018060401b038211610675578190612bcf600285015461576c565b601f8111612fc0575b50602090601f8311600114612f4e57600092612f43575b50508160011b916000199060031b1c19161760028201555b6060820151600681101561075657600382019060ff80198354169116179055608082015180519060018060401b038211610675578190612c4a600485015461576c565b601f8111612ef0575b50602090601f8311600114612e7e57600092612e73575b50508160011b916000199060031b1c19161760048201555b60a0820151600582015560c0820151805192906001600160401b03841161067557612cb0600684015461576c565b601f8111612e2c575b50916020979187938990601f8711600114612da45791866000805160206164d4833981519152969761012093600995600092612d99575b50508160011b916000199060031b1c19161760068501555b60e0810151600785015561010081015160088501550151910155612d2b836157d7565b3360005260038752612d4183604060002061580e565b612d59836040518981855161050e8183858a01615584565b8460005260058752612d6f83604060002061580e565b836000526006875282604060002055610afa604051916003835260608984015260608301906155a7565b015190508d80612cf0565b9590600684016000528a6000209660005b601f1984168110612e125750826000805160206164d483398151915297986009959360019361012096601f19811610612df9575b505050811b016006850155612d08565b015160001960f88460031b161c191690558d8080612de9565b8282015189556001909801978b9750918c01918c01612db5565b600684016000526020600020601f860160051c810160208710612e6c575b601f830160051c82018110612e60575050612cb9565b60008155600101612e4a565b5080612e4a565b015190508880612c6a565b9250600484016000526020600020906000935b601f1984168510612ed5576001945083601f19811610612ebc575b505050811b016004820155612c82565b015160001960f88460031b161c19169055888080612eac565b81810151835560209485019460019093019290910190612e91565b909150600484016000526020600020601f840160051c810160208510612f3c575b90849392915b601f830160051c82018110612f2d575050612c53565b60008155859450600101612f17565b5080612f11565b015190508880612bef565b9250600284016000526020600020906000935b601f1984168510612fa5576001945083601f19811610612f8c575b505050811b016002820155612c07565b015160001960f88460031b161c19169055888080612f7c565b81810151835560209485019460019093019290910190612f61565b909150600284016000526020600020601f840160051c81016020851061300c575b90849392915b601f830160051c82018110612ffd575050612bd8565b60008155859450600101612fe7565b5080612fe1565b503360009081526007602052604090205460ff1661255b565b613045915060203d602011610dc657610db8818361542a565b84612553565b3461018d57600036600319011261018d576020600254604051908152f35b3461018d57613077366154a3565b906040516395a8c58d60e01b815260208180613096336004830161568a565b03817f00000000000000000000000000000000000000000000000000000000000000006001600160a01b03165afa908115610dcd57600091613bab575b508015613b92575b6130e4906156be565b6008541561365557336000526009602052604060002062015180420460005260205261311860406000205460085411615705565b613120615dac565b9161312c600054615751565b9283600055604051602081019085825260018060601b03193360601b166040820152600160f81b605482015261317260958289516102c9818c6020605586019101615584565b51902091604051916131838361540e565b8583523360208401526040830152600160608301528560808301528360a083015260c08201528160e082015242610100820152436101208201528360005260016020526040600020815181556001810160018060a01b0360208401511660018060a01b0319825416179055604082015180519060018060401b038211610675578190613212600285015461576c565b601f8111613602575b50602090601f831160011461359057600092613585575b50508160011b916000199060031b1c19161760028201555b60038101606083015160068110156107565760ff80198354169116179055608082015180519060018060401b03821161067557819061328c600485015461576c565b601f8111613532575b50602090601f83116001146134c0576000926134b5575b50508160011b916000199060031b1c19161760048201555b60a0820151600582015560c0820151805192906001600160401b038411610675576132f2600684015461576c565b601f811161346e575b50916020979187938990601f87116001146133e65791866000805160206164d48339815191529697610120936009956000926133db575b50508160011b916000199060031b1c19161760068501555b60e081015160078501556101008101516008850155015191015561336d836157d7565b336000526003875261338383604060002061580e565b61339b836040518981855161050e8183858a01615584565b84600052600587526133b183604060002061580e565b83600052600687528260406000205561055d604051916001835260608984015260608301906155a7565b015190508d80613332565b9590600684016000528a6000209660005b601f19841681106134545750826000805160206164d483398151915297986009959360019361012096601f1981161061343b575b505050811b01600685015561334a565b015160001960f88460031b161c191690558d808061342b565b8282015189556001909801978b9750918c01918c016133f7565b600684016000526020600020601f860160051c8101602087106134ae575b601f830160051c820181106134a25750506132fb565b6000815560010161348c565b508061348c565b0151905088806132ac565b9250600484016000526020600020906000935b601f1984168510613517576001945083601f198116106134fe575b505050811b0160048201556132c4565b015160001960f88460031b161c191690558880806134ee565b818101518355602094850194600190930192909101906134d3565b909150600484016000526020600020601f840160051c81016020851061357e575b90849392915b601f830160051c8201811061356f575050613295565b60008155859450600101613559565b5080613553565b015190508880613232565b9250600284016000526020600020906000935b601f19841685106135e7576001945083601f198116106135ce575b505050811b01600282015561324a565b015160001960f88460031b161c191690558880806135be565b818101518355602094850194600190930192909101906135a3565b909150600284016000526020600020601f840160051c81016020851061364e575b90849392915b601f830160051c8201811061363f57505061321b565b60008155859450600101613629565b5080613623565b61365d615dac565b91613669600054615751565b9283600055604051602081019085825260018060601b03193360601b166040820152600160f81b60548201526136af60958289516102c9818c6020605586019101615584565b51902091604051916136c08361540e565b8583523360208401526040830152600160608301528560808301528360a083015260c08201528160e082015242610100820152436101208201528360005260016020526040600020815181556001810160018060a01b0360208401511660018060a01b0319825416179055604082015180519060018060401b03821161067557819061374f600285015461576c565b601f8111613b3f575b50602090601f8311600114613acd57600092613ac2575b50508160011b916000199060031b1c19161760028201555b60038101606083015160068110156107565760ff80198354169116179055608082015180519060018060401b0382116106755781906137c9600485015461576c565b601f8111613a6f575b50602090601f83116001146139fd576000926139f2575b50508160011b916000199060031b1c19161760048201555b60a0820151600582015560c0820151805192906001600160401b0384116106755761382f600684015461576c565b601f81116139ab575b50916020979187938990601f87116001146139235791866000805160206164d4833981519152969761012093600995600092613918575b50508160011b916000199060031b1c19161760068501555b60e08101516007850155610100810151600885015501519101556138aa836157d7565b33600052600387526138c083604060002061580e565b6138d8836040518981855161050e8183858a01615584565b84600052600587526138ee83604060002061580e565b836000526006875282604060002055610afa604051916001835260608984015260608301906155a7565b015190508d8061386f565b9590600684016000528a6000209660005b601f19841681106139915750826000805160206164d483398151915297986009959360019361012096601f19811610613978575b505050811b016006850155613887565b015160001960f88460031b161c191690558d8080613968565b8282015189556001909801978b9750918c01918c01613934565b600684016000526020600020601f860160051c8101602087106139eb575b601f830160051c820181106139df575050613838565b600081556001016139c9565b50806139c9565b0151905088806137e9565b9250600484016000526020600020906000935b601f1984168510613a54576001945083601f19811610613a3b575b505050811b016004820155613801565b015160001960f88460031b161c19169055888080613a2b565b81810151835560209485019460019093019290910190613a10565b909150600484016000526020600020601f840160051c810160208510613abb575b90849392915b601f830160051c82018110613aac5750506137d2565b60008155859450600101613a96565b5080613a90565b01519050888061376f565b9250600284016000526020600020906000935b601f1984168510613b24576001945083601f19811610613b0b575b505050811b016002820155613787565b015160001960f88460031b161c19169055888080613afb565b81810151835560209485019460019093019290910190613ae0565b909150600284016000526020600020601f840160051c810160208510613b8b575b90849392915b601f830160051c82018110613b7c575050613758565b60008155859450600101613b66565b5080613b60565b503360009081526007602052604090205460ff166130db565b613bc4915060203d602011610dc657610db8818361542a565b846130d3565b3461018d57604036600319011261018d57600435806000526001602052613bf76040600020541515616455565b6000526001602052602060243560076040600020015414604051908152f35b3461018d5760c036600319011261018d576004356001600160401b03811161018d573660238201121561018d578060040135613c51816154ed565b91613c5f604051938461542a565b8183526024602084019260051b8201019036821161018d57602401915b8183106144d857836024356001600160401b03811161018d57613ca3903690600401615504565b60443591906001600160401b03831161018d573660238401121561018d578260040135613ccf816154ed565b93613cdd604051958661542a565b8185526024602086019260051b8201019036821161018d57602401915b8183106144bf57505060643590506001600160401b03811161018d57613d24903690600401615504565b6001600160401b036084351161018d5736602360843501121561018d576084356004013593613d52856154ed565b94613d60604051968761542a565b808652602086013660248360051b60843501011161018d57602460843501905b60248360051b608435010182106144af57505060a43590506001600160401b03811161018d57613db4903690600401615504565b926040516395a8c58d60e01b815260208180613dd333600483016156a4565b03817f00000000000000000000000000000000000000000000000000000000000000006001600160a01b03165afa8015610dcd57613e18916000916144905750616300565b8451815181149081614485575b8161447a575b8161446f575b81614464575b501561441f5760005b855181101561441d57613e53818761634c565b51613e5e828461634c565b51613e69838661634c565b5190600682101561075657613e7e848861634c565b51613e89858c61634c565b5193613e95868b61634c565b51613ea1600054615751565b938460005560405185602082015260018060601b03198460601b1660408201528660f81b6054820152613f0060958651613ee2816055860160208b01615584565b83018a6055820152836075914283820152039081018452018261542a565b602081519101209160405191613f158361540e565b8683526001600160a01b03851660208401526040830152613f398760608401615760565b8460808301528760a083015260c08201528160e08201524261010082015243610120820152846000526001602052604060002090805182556001820160018060a01b0360208301511660018060a01b0319825416179055604081015180519060018060401b038211610675578190613fb4600286015461576c565b601f81116143ca575b50602090601f83116001146143585760009261434d575b50508160011b916000199060031b1c19161760028301555b6060810151600681101561075657600383019060ff80198354169116179055608081015180519060018060401b03821161067557819061402f600486015461576c565b601f81116142fa575b50602090601f83116001146142885760009261427d575b50508160011b916000199060031b1c19161760048301555b60a0810151600583015560c08101518051906001600160401b03821161067557614094600685015461576c565b601f8111614236575b50602090601f83116001146141a25761012061418a94846141929e9d9c9b9a98956000805160206164d48339815191529a9895600995600092614197575b50508160011b916000199060031b1c19161760068501555b60e0810151600785015561010081015160088501550151910155614116866157d7565b60018060a01b038316600052600360205261413586604060002061580e565b61414e86604051602081885161050e8183858d01615584565b87600052600560205261416586604060002061580e565b8060005260066020528560406000205560405193849360018060a01b03169784615837565b0390a4615751565b613e40565b0151905038806140db565b906006850160005260206000209160005b601f198516811061421e575061418a946001856141929f9e9d9c9b999695600995610120956000805160206164d48339815191529d9b98601f19811610614205575b505050811b0160068501556140f3565b015160001960f88460031b161c191690553880806141f5565b919260206001819286850151815501940192016141b3565b600685016000526020600020601f840160051c810160208510614276575b601f830160051c8201811061426a57505061409d565b60008155600101614254565b5080614254565b01519050388061404f565b9250600485016000526020600020906000935b601f19841685106142df576001945083601f198116106142c6575b505050811b016004830155614067565b015160001960f88460031b161c191690553880806142b6565b8181015183556020948501946001909301929091019061429b565b909150600485016000526020600020601f840160051c810160208510614346575b90849392915b601f830160051c82018110614337575050614038565b60008155859450600101614321565b508061431b565b015190503880613fd4565b9250600285016000526020600020906000935b601f19841685106143af576001945083601f19811610614396575b505050811b016002830155613fec565b015160001960f88460031b161c19169055388080614386565b8181015183556020948501946001909301929091019061436b565b909150600285016000526020600020601f840160051c810160208510614416575b90849392915b601f830160051c82018110614407575050613fbd565b600081558594506001016143f1565b50806143eb565b005b60405162461bcd60e51b815260206004820152601f60248201527f41756469744c6f673a206172726179206c656e677468206d69736d61746368006044820152606490fd5b905084511487613e37565b875181149150613e31565b845181149150613e2b565b835181149150613e25565b6144a9915060203d602011610dc657610db8818361542a565b88611144565b8135815260209182019101613d80565b8235600681101561018d57815260209283019201613cfa565b82356001600160a01b038116810361018d57815260209283019201613c7c565b3461018d5760208060031936011261018d576145126153bd565b6040516395a8c58d60e01b8152908161452e33600483016156a4565b6001600160a01b039391859183919003817f000000000000000000000000000000000000000000000000000000000000000087165afa8015610dcd5761457b91600091611ec15750616300565b1690816000526007815260ff60406000205416156145d1576007908260005252604060002060ff19815416905533907fb542d86d237fe74c234c6e7863d124bdade62e5da92ba5692155922e6daf65c3600080a3005b6064906040519062461bcd60e51b82526004820152601f60248201527f41756469744c6f673a206d6f64756c65206e6f7420617574686f72697a6564006044820152fd5b3461018d5760208060031936011261018d57600435600680821015928361018d57600254916000805b8481106146da575061464f906164a1565b9360009160005b85811061466b57604051806110a889826153d3565b614674816157a6565b9054600391821b1c600052600186528860ff8260406000200154169061075657838110156107565784146146b2575b506146ad90615751565b614656565b81946146d3916146c46146ad946157a6565b9054911b1c6120ee828b61634c565b93906146a3565b8660ff6146e6836157a6565b9054600391821b1c60005260018752604060002001541690610756578381101561075657861461471f575b61471a90615751565b61463e565b9061472c61471a91615751565b919050614711565b3461018d57614742366154a3565b906040516395a8c58d60e01b815260208180614761336004830161568a565b03817f00000000000000000000000000000000000000000000000000000000000000006001600160a01b03165afa908115610dcd57600091615261575b508015615248575b6147af906156be565b60085415614d135733600052600960205260406000206201518042046000526020526147e360406000205460085411615705565b6147eb615dac565b916147f7600054615751565b9283600055604051602081019085825260018060601b03193360601b1660408201526000605482015261483a60958289516102c9818c6020605586019101615584565b519020916040519161484b8361540e565b8583523360208401526040830152600060608301528560808301528360a083015260c08201528160e082015242610100820152436101208201528360005260016020526040600020815181556001810160018060a01b0360208401511660018060a01b0319825416179055604082015180519060018060401b0382116106755781906148da600285015461576c565b601f8111614cc0575b50602090601f8311600114614c5357600092614c48575b50508160011b916000199060031b1c19161760028201555b60038101606083015160068110156107565760ff80198354169116179055608082015180519060018060401b038211610675578190614954600485015461576c565b601f8111614bf5575b50602090601f8311600114614b8857600092614b7d575b50508160011b916000199060031b1c19161760048201555b60a0820151600582015560c0820151805192906001600160401b038411610675576149ba600684015461576c565b601f8111614b36575b50916020979187938990601f8711600114614aae5791866000805160206164d4833981519152969761012093600995600092614aa3575b50508160011b916000199060031b1c19161760068501555b60e0810151600785015561010081015160088501550151910155614a35836157d7565b3360005260038752614a4b83604060002061580e565b614a63836040518981855161050e8183858a01615584565b8460005260058752614a7983604060002061580e565b83600052600687528260406000205561055d604051916000835260608984015260608301906155a7565b015190508d806149fa565b9590600684016000528a6000209660005b601f1984168110614b1c5750826000805160206164d483398151915297986009959360019361012096601f19811610614b03575b505050811b016006850155614a12565b015160001960f88460031b161c191690558d8080614af3565b8282015189556001909801978b9750918c01918c01614abf565b600684016000526020600020601f860160051c810160208710614b76575b601f830160051c82018110614b6a5750506149c3565b60008155600101614b54565b5080614b54565b015190508880614974565b600485016000908152602081209350601f198516905b818110614bdd5750908460019594939210614bc4575b505050811b01600482015561498c565b015160001960f88460031b161c19169055888080614bb4565b92936020600181928786015181550195019301614b9e565b909150600484016000526020600020601f840160051c810160208510614c41575b90849392915b601f830160051c82018110614c3257505061495d565b60008155859450600101614c1c565b5080614c16565b0151905088806148fa565b600285016000908152602081209350601f198516905b818110614ca85750908460019594939210614c8f575b505050811b016002820155614912565b015160001960f88460031b161c19169055888080614c7f565b92936020600181928786015181550195019301614c69565b909150600284016000526020600020601f840160051c810160208510614d0c575b90849392915b601f830160051c82018110614cfd5750506148e3565b60008155859450600101614ce7565b5080614ce1565b614d1b615dac565b91614d27600054615751565b9283600055604051602081019085825260018060601b03193360601b16604082015260006054820152614d6a60958289516102c9818c6020605586019101615584565b5190209160405191614d7b8361540e565b8583523360208401526040830152600060608301528560808301528360a083015260c08201528160e082015242610100820152436101208201528360005260016020526040600020815181556001810160018060a01b0360208401511660018060a01b0319825416179055604082015180519060018060401b038211610675578190614e0a600285015461576c565b601f81116151f5575b50602090601f83116001146151885760009261517d575b50508160011b916000199060031b1c19161760028201555b60038101606083015160068110156107565760ff80198354169116179055608082015180519060018060401b038211610675578190614e84600485015461576c565b601f811161512a575b50602090601f83116001146150b8576000926150ad575b50508160011b916000199060031b1c19161760048201555b60a0820151600582015560c0820151805192906001600160401b03841161067557614eea600684015461576c565b601f8111615066575b50916020979187938990601f8711600114614fde5791866000805160206164d4833981519152969761012093600995600092614fd3575b50508160011b916000199060031b1c19161760068501555b60e0810151600785015561010081015160088501550151910155614f65836157d7565b3360005260038752614f7b83604060002061580e565b614f93836040518981855161050e8183858a01615584565b8460005260058752614fa983604060002061580e565b836000526006875282604060002055610afa604051916000835260608984015260608301906155a7565b015190508d80614f2a565b9590600684016000528a6000209660005b601f198416811061504c5750826000805160206164d483398151915297986009959360019361012096601f19811610615033575b505050811b016006850155614f42565b015160001960f88460031b161c191690558d8080615023565b8282015189556001909801978b9750918c01918c01614fef565b600684016000526020600020601f860160051c8101602087106150a6575b601f830160051c8201811061509a575050614ef3565b60008155600101615084565b5080615084565b015190508880614ea4565b9250600484016000526020600020906000935b601f198416851061510f576001945083601f198116106150f6575b505050811b016004820155614ebc565b015160001960f88460031b161c191690558880806150e6565b818101518355602094850194600190930192909101906150cb565b909150600484016000526020600020601f840160051c810160208510615176575b90849392915b601f830160051c82018110615167575050614e8d565b60008155859450600101615151565b508061514b565b015190508880614e2a565b600285016000908152602081209350601f198516905b8181106151dd57509084600195949392106151c4575b505050811b016002820155614e42565b015160001960f88460031b161c191690558880806151b4565b9293602060018192878601518155019501930161519e565b909150600284016000526020600020601f840160051c810160208510615241575b90849392915b601f830160051c82018110615232575050614e13565b6000815585945060010161521c565b5080615216565b503360009081526007602052604090205460ff166147a6565b61527a915060203d602011610dc657610db8818361542a565b8461479e565b3461018d57600036600319011261018d57604051600280548083526000918252602080840193927f405787fa12a823e0f2b7631cc41b3ba8828b3321ca811111fa75cd3aa3bb5ace92915b8282106152e2576110a885611d2a8189038261542a565b8354865294850194600193840193909101906152cb565b3461018d5760208060031936011261018d5760043560005260058152604060002090604051908181845491828152019360005281600020916000905b82821061534c576110a885611d2a8189038261542a565b835486529485019460019384019390910190615335565b3461018d57602036600319011261018d576001600160a01b036153846153bd565b166000526007602052602060ff604060002054166040519015158152f35b3461018d57600036600319011261018d576020906008548152f35b600435906001600160a01b038216820361018d57565b6020908160408183019282815285518094520193019160005b8281106153fa575050505090565b8351855293810193928101926001016153ec565b61014081019081106001600160401b0382111761067557604052565b601f909101601f19168101906001600160401b0382119082101761067557604052565b81601f8201121561018d578035906001600160401b0382116106755760405192615481601f8401601f19166020018561542a565b8284526020838301011161018d57816000926020809301838601378301015290565b606060031982011261018d576001600160401b039160043583811161018d57826154cf9160040161544d565b926024359260443591821161018d576154ea9160040161544d565b90565b6001600160401b0381116106755760051b60200190565b9080601f8301121561018d5781359061551c826154ed565b9261552a604051948561542a565b828452602092838086019160051b8301019280841161018d57848301915b8483106155585750505050505090565b82356001600160401b03811161018d5786916155798484809489010161544d565b815201920191615548565b60005b8381106155975750506000910152565b8181015183820152602001615587565b906020916155c081518092818552858086019101615584565b601f01601f1916010190565b9060068210156107565752565b908151815260018060a01b03602083015116602082015261564f61563361560f60408501516101408060408701528501906155a7565b615621606086015160608601906155cc565b608085015184820360808601526155a7565b60a084015160a084015260c084015183820360c08501526155a7565b9160e081015160e083015261010080820151908301526101208091015191015290565b9081602091031261018d5751801515810361018d5790565b6001600160a01b0390911681526002602082015260400190565b6001600160a01b0390911681526003602082015260400190565b156156c557565b60405162461bcd60e51b8152602060048201526018602482015277105d591a5d131bd9ce881b9bdd08185d5d1a1bdc9a5e995960421b6044820152606490fd5b1561570c57565b60405162461bcd60e51b815260206004820152601e60248201527f41756469744c6f673a206461696c79206c696d697420657863656564656400006044820152606490fd5b6000198114610f8c5760010190565b60068210156107565752565b90600182811c9216801561579c575b602083101461578657565b634e487b7160e01b600052602260045260246000fd5b91607f169161577b565b6002548110156157c157600260005260206000200190600090565b634e487b7160e01b600052603260045260246000fd5b600254600160401b811015610675578060016157f692016002556157a6565b819291549060031b91821b91600019901b1916179055565b805490600160401b82101561067557600182018082558210156157c15760005260206000200155565b93929161585b9061584a866040946155cc565b6060602087015260608601906155a7565b930152565b949290919394615871600054615751565b9687600055604051936158838561540e565b8885526001600160a01b0383166020860190815260408601918252956158ac8860608801615760565b6080860185905260a0860189905260c086015260e085018290524261010086015243610120860152600089815260016020819052604090912086518155965190870180546001600160a01b0319166001600160a01b0392909216919091179055518051906001600160401b03821161067557819061592d600289015461576c565b601f8111615d59575b50602090601f8311600114615ce757600092615cdc575b50508160011b916000199060031b1c19161760028601555b60038501606085015160068110156107565760ff80198354169116179055608084015180519060018060401b0382116106755781906159a7600489015461576c565b601f8111615c89575b50602090601f8311600114615c1757600092615c0c575b50508160011b916000199060031b1c19161760048601555b60a0840151600586015560c084015180519094906001600160401b038111610675578995615a10600689015461576c565b601f8111615baf575b50602090601f8311600114615b1e57615af89493836000805160206164d4833981519152999a9460099461012094600092615b13575b50508160011b916000199060031b1c19161760068501555b60e0810151600785015561010081015160088501550151910155615a8a866157d7565b60018060a01b0383166000526003602052615aa986604060002061580e565b615ac286604051602081885161050e8183858d01615584565b876000526005602052615ad986604060002061580e565b80615afe575b6040516001600160a01b03909316969293849384615837565b0390a490565b80600052600660205285604060002055615adf565b015190503880615a4f565b979291906006840160005260206000209860005b601f1984168110615b945750926001836000805160206164d48339815191529a9b61012094615af8999897600997601f19811610615b7b575b505050811b016006850155615a67565b015160001960f88460031b161c19169055388080615b6b565b828201518b556001909a01998d995060209283019201615b32565b9091929394959650600688016000526020600020601f840160051c810160208510615c05575b908c98979695949392915b601f830160051c82018110615bf6575050615a19565b600081558d9950600101615be0565b5080615bd5565b0151905038806159c7565b9250600488016000526020600020906000935b601f1984168510615c6e576001945083601f19811610615c55575b505050811b0160048601556159df565b015160001960f88460031b161c19169055388080615c45565b81810151835560209485019460019093019290910190615c2a565b909150600488016000526020600020601f840160051c810160208510615cd5575b90849392915b601f830160051c82018110615cc65750506159b0565b60008155859450600101615cb0565b5080615caa565b01519050388061594d565b9250600288016000526020600020906000935b601f1984168510615d3e576001945083601f19811610615d25575b505050811b016002860155615965565b015160001960f88460031b161c19169055388080615d15565b81810151835560209485019460019093019290910190615cfa565b909150600288016000526020600020601f840160051c810160208510615da5575b90849392915b601f830160051c82018110615d96575050615936565b60008155859450600101615d80565b5080615d7a565b60408051919082016001600160401b0381118382101761067557604052600682526553797374656d60d01b6020830152565b929091615dec600054615751565b938460005560405191615dfe8361540e565b858352336020840152615e0f615dac565b6040840152600560608401528160808401528460a084015260c08301528260e08301524261010083015243610120830152846000526001602052604060002090825182556001820160018060a01b0360208501511660018060a01b0319825416179055604083015180519060018060401b038211610675578190615e96600286015461576c565b601f81116162ad575b50602090601f831160011461623b57600092616230575b50508160011b916000199060031b1c19161760028301555b6060830151600681101561075657600383019060ff80198354169116179055608083015180519060018060401b038211610675578190615f11600486015461576c565b601f81116161dd575b50602090601f831160011461616b57600092616160575b50508160011b916000199060031b1c19161760048301555b60a0830151600583015560c08301518051939092906001600160401b038511610675578793615f7b600684015461576c565b601f8111616107575b50602090601f871160011461607d5791866000805160206164d4833981519152969761012093600995600092616072575b50508160011b916000199060031b1c19161760068501555b60e0810151600785015561010081015160088501550151910155615ff0836157d7565b33600052600360205261600783604060002061580e565b61602083604051602081855161050e8183858a01615584565b84600052600560205261603783604060002061580e565b8360005260066020528260406000205561606360405191600583526060602084015260608301906155a7565b9360408201528033940390a490565b015190503880615fb5565b95906006840160005260206000209660005b601f19841681106160ec5750826000805160206164d483398151915297986009959360019361012096601f198116106160d3575b505050811b016006850155615fcd565b015160001960f88460031b161c191690553880806160c3565b8282015189556001909801978b97506020928301920161608f565b909192939450600684016000526020600020601f870160051c810160208810616159575b908a9695949392915b601f830160051c8201811061614a575050615f84565b600081558b9750600101616134565b508061612b565b015190503880615f31565b9250600485016000526020600020906000935b601f19841685106161c2576001945083601f198116106161a9575b505050811b016004830155615f49565b015160001960f88460031b161c19169055388080616199565b8181015183556020948501946001909301929091019061617e565b909150600485016000526020600020601f840160051c810160208510616229575b90849392915b601f830160051c8201811061621a575050615f1a565b60008155859450600101616204565b50806161fe565b015190503880615eb6565b9250600285016000526020600020906000935b601f1984168510616292576001945083601f19811610616279575b505050811b016002830155615ece565b015160001960f88460031b161c19169055388080616269565b8181015183556020948501946001909301929091019061624e565b909150600285016000526020600020601f840160051c8101602085106162f9575b90849392915b601f830160051c820181106162ea575050615e9f565b600081558594506001016162d4565b50806162ce565b1561630757565b60405162461bcd60e51b815260206004820152601d60248201527f41756469744c6f673a2063616c6c6572206973206e6f742061646d696e0000006044820152606490fd5b80518210156157c15760209160051b010190565b6040519061636d8261540e565b8161012060009182815282602082015260606040820152826060820152606060808201528260a0820152606060c08201528260e0820152826101008201520152565b90604051918260008254926163c38461576c565b90818452600194858116908160001461643257506001146163ef575b50506163ed9250038361542a565b565b9093915060005260209081600020936000915b81831061641a5750506163ed935082010138806163df565b85548884018501529485019487945091830191616402565b9150506163ed94506020925060ff191682840152151560051b82010138806163df565b1561645c57565b60405162461bcd60e51b815260206004820152601e60248201527f41756469744c6f673a20656e74727920646f6573206e6f7420657869737400006044820152606490fd5b906164ab826154ed565b6164b8604051918261542a565b82815280926164c9601f19916154ed565b019060203691013756fe2b32f171df3023a9c6e3aaf128c89842c3ba1e1105096b07e85bd76fb2378df3a2646970667358221220a23e6ee0140e5bc023ae854e65581aaee0c73ffe83b109f6aebd6bba1c0997e164736f6c63430008130033",
  "linkReferences": {},
  "deployedLinkReferences": {}
}