{
  "_format": "hh-sol-artifact-1",
  "contractName": "SupplyChain",
  "sourceName": "contracts/SupplyChain.sol",
  "abi": [
    {
      "inputs": [
        {
          "internalType": "address",
          "name": "_coreAddress",
          "type": "address"
        }
      ],
      "stateMutability": "nonpayable",
      "type": "constructor"
    },
    {
      "anonymous": false,
      "inputs": [
        {
          "indexed": true,
          "internalType": "address",
          "name": "handlerAddress",
          "type": "address"
        },
        {
          "indexed": true,
          "internalType": "address",
          "name": "deactivatedBy",
          "type": "address"
        }
      ],
      "name": "HandlerDeactivated",
      "type": "event"
    },
    {
      "anonymous": false,
      "inputs": [
        {
          "indexed": true,
          "internalType": "address",
          "name": "handlerAddress",
          "type": "address"
        },
        {
          "indexed": false,
          "internalType": "string",
          "name": "name",
          "type": "string"
        },
        {
          "indexed": false,
          "internalType": "string",
          "name": "handlerType",
          "type": "string"
        }
      ],
      "name": "HandlerRegistered",
      "type": "event"
    },
    {
      "anonymous": false,
      "inputs": [
        {
          "indexed": true,
          "internalType": "uint256",
          "name": "productId",
          "type": "uint256"
        },
        {
          "indexed": false,
          "internalType": "bool",
          "name": "isValid",
          "type": "bool"
        },
        {
          "indexed": false,
          "internalType": "address",
          "name": "verifiedBy",
          "type": "address"
        }
      ],
      "name": "ProvenanceVerified",
      "type": "event"
    },
    {
      "anonymous": false,
      "inputs": [
        {
          "indexed": true,
          "internalType": "uint256",
          "name": "productId",
          "type": "uint256"
        },
        {
          "indexed": false,
          "internalType": "uint256",
          "name": "totalEvents",
          "type": "uint256"
        },
        {
          "indexed": false,
          "internalType": "bytes32",
          "name": "finalHash",
          "type": "bytes32"
        }
      ],
      "name": "TrackingCompleted",
      "type": "event"
    },
    {
      "anonymous": false,
      "inputs": [
        {
          "indexed": true,
          "internalType": "uint256",
          "name": "productId",
          "type": "uint256"
        },
        {
          "indexed": false,
          "internalType": "enum ISupplyChainTypes.TrackingStatus",
          "name": "status",
          "type": "uint8"
        },
        {
          "indexed": false,
          "internalType": "string",
          "name": "location",
          "type": "string"
        },
        {
          "indexed": false,
          "internalType": "string",
          "name": "handler",
          "type": "string"
        },
        {
          "indexed": false,
          "internalType": "bytes32",
          "name": "eventHash",
          "type": "bytes32"
        }
      ],
      "name": "TrackingEventRecorded",
      "type": "event"
    },
    {
      "anonymous": false,
      "inputs": [
        {
          "indexed": true,
          "internalType": "uint256",
          "name": "productId",
          "type": "uint256"
        },
        {
          "indexed": false,
          "internalType": "string",
          "name": "origin",
          "type": "string"
        },
        {
          "indexed": false,
          "internalType": "string",
          "name": "destination",
          "type": "string"
        },
        {
          "indexed": false,
          "internalType": "bytes32",
          "name": "initialHash",
          "type": "bytes32"
        }
      ],
      "name": "TrackingStarted",
      "type": "event"
    },
    {
      "inputs": [
        {
          "internalType": "address",
          "name": "handlerAddress",
          "type": "address"
        }
      ],
      "name": "approveHandler",
      "outputs": [],
      "stateMutability": "nonpayable",
      "type": "function"
    },
    {
      "inputs": [
        {
          "internalType": "uint256",
          "name": "productId",
          "type": "uint256"
        }
      ],
      "name": "completeTracking",
      "outputs": [],
      "stateMutability": "nonpayable",
      "type": "function"
    },
    {
      "inputs": [],
      "name": "core",
      "outputs": [
        {
          "internalType": "contract BlockERPCore",
          "name": "",
          "type": "address"
        }
      ],
      "stateMutability": "view",
      "type": "function"
    },
    {
      "inputs": [
        {
          "internalType": "address",
          "name": "handlerAddress",
          "type": "address"
        }
      ],
      "name": "deactivateHandler",
      "outputs": [],
      "stateMutability": "nonpayable",
      "type": "function"
    },
    {
      "inputs": [],
      "name": "getActiveShipments",
      "outputs": [
        {
          "internalType": "uint256[]",
          "name": "",
          "type": "uint256[]"
        }
      ],
      "stateMutability": "view",
      "type": "function"
    },
    {
      "inputs": [],
      "name": "getAllHandlers",
      "outputs": [
        {
          "internalType": "address[]",
          "name": "",
          "type": "address[]"
        }
      ],
      "stateMutability": "view",
      "type": "function"
    },
    {
      "inputs": [],
      "name": "getAllTrackedProducts",
      "outputs": [
        {
          "internalType": "uint256[]",
          "name": "",
          "type": "uint256[]"
        }
      ],
      "stateMutability": "view",
      "type": "function"
    },
    {
      "inputs": [
        {
          "internalType": "uint256",
          "name": "productId",
          "type": "uint256"
        }
      ],
      "name": "getCurrentStatus",
      "outputs": [
        {
          "internalType": "enum ISupplyChainTypes.TrackingStatus",
          "name": "",
          "type": "uint8"
        }
      ],
      "stateMutability": "view",
      "type": "function"
    },
    {
      "inputs": [
        {
          "internalType": "address",
          "name": "handlerAddress",
          "type": "address"
        }
      ],
      "name": "getHandlerInfo",
      "outputs": [
        {
          "components": [
            {
              "internalType": "string",
              "name": "name",
              "type": "string"
            },
            {
              "internalType": "string",
              "name": "handlerType",
              "type": "string"
            },
            {
              "internalType": "string",
              "name": "location",
              "type": "string"
            },
            {
              "internalType": "bool",
              "name": "isActive",
              "type": "bool"
            },
            {
              "internalType": "uint256",
              "name": "registeredAt",
              "type": "uint256"
            }
          ],
          "internalType": "struct SupplyChain.HandlerInfo",
          "name": "",
          "type": "tuple"
        }
      ],
      "stateMutability": "view",
      "type": "function"
    },
    {
      "inputs": [
        {
          "internalType": "uint256",
          "name": "productId",
          "type": "uint256"
        }
      ],
      "name": "getLatestEvent",
      "outputs": [
        {
          "components": [
            {
              "internalType": "uint256",
              "name": "productId",
              "type": "uint256"
            },
            {
              "internalType": "enum ISupplyChainTypes.TrackingStatus",
              "name": "status",
              "type": "uint8"
            },
            {
              "internalType": "string",
              "name": "location",
              "type": "string"
            },
            {
              "internalType": "string",
              "name": "handler",
              "type": "string"
            },
            {
              "internalType": "string",
              "name": "notes",
              "type": "string"
            },
            {
              "internalType": "uint256",
              "name": "timestamp",
              "type": "uint256"
            },
            {
              "internalType": "bytes32",
              "name": "previousHash",
              "type": "bytes32"
            },
            {
              "internalType": "bytes32",
              "name": "currentHash",
              "type": "bytes32"
            }
          ],
          "internalType": "struct ISupplyChainTypes.TrackingEvent",
          "name": "",
          "type": "tuple"
        }
      ],
      "stateMutability": "view",
      "type": "function"
    },
    {
      "inputs": [
        {
          "internalType": "bytes32",
          "name": "hash",
          "type": "bytes32"
        }
      ],
      "name": "getProductByHash",
      "outputs": [
        {
          "internalType": "uint256",
          "name": "",
          "type": "uint256"
        }
      ],
      "stateMutability": "view",
      "type": "function"
    },
    {
      "inputs": [],
      "name": "getSupplyChainStats",
      "outputs": [
        {
          "components": [
            {
              "internalType": "uint256",
              "name": "totalTrackedProducts",
              "type": "uint256"
            },
            {
              "internalType": "uint256",
              "name": "activeShipments",
              "type": "uint256"
            },
            {
              "internalType": "uint256",
              "name": "completedShipments",
              "type": "uint256"
            },
            {
              "internalType": "uint256",
              "name": "totalEvents",
              "type": "uint256"
            },
            {
              "internalType": "uint256",
              "name": "registeredHandlers",
              "type": "uint256"
            }
          ],
          "internalType": "struct SupplyChain.SupplyChainStats",
          "name": "",
          "type": "tuple"
        }
      ],
      "stateMutability": "view",
      "type": "function"
    },
    {
      "inputs": [
        {
          "internalType": "uint256",
          "name": "productId",
          "type": "uint256"
        }
      ],
      "name": "getTrackingEvents",
      "outputs": [
        {
          "components": [
            {
              "internalType": "uint256",
              "name": "productId",
              "type": "uint256"
            },
            {
              "internalType": "enum ISupplyChainTypes.TrackingStatus",
              "name": "status",
              "type": "uint8"
            },
            {
              "internalType": "string",
              "name": "location",
              "type": "string"
            },
            {
              "internalType": "string",
              "name": "handler",
              "type": "string"
            },
            {
              "internalType": "string",
              "name": "notes",
              "type": "string"
            },
            {
              "internalType": "uint256",
              "name": "timestamp",
              "type": "uint256"
            },
            {
              "internalType": "bytes32",
              "name": "previousHash",
              "type": "bytes32"
            },
            {
              "internalType": "bytes32",
              "name": "currentHash",
              "type": "bytes32"
            }
          ],
          "internalType": "struct ISupplyChainTypes.TrackingEvent[]",
          "name": "",
          "type": "tuple[]"
        }
      ],
      "stateMutability": "view",
      "type": "function"
    },
    {
      "inputs": [
        {
          "internalType": "uint256",
          "name": "productId",
          "type": "uint256"
        }
      ],
      "name": "getTrackingRecord",
      "outputs": [
        {
          "internalType": "string",
          "name": "origin",
          "type": "string"
        },
        {
          "internalType": "string",
          "name": "destination",
          "type": "string"
        },
        {
          "internalType": "uint256",
          "name": "createdAt",
          "type": "uint256"
        },
        {
          "internalType": "bool",
          "name": "isComplete",
          "type": "bool"
        },
        {
          "internalType": "uint256",
          "name": "eventCount",
          "type": "uint256"
        }
      ],
      "stateMutability": "view",
      "type": "function"
    },
    {
      "inputs": [
        {
          "internalType": "address",
          "name": "",
          "type": "address"
        }
      ],
      "name": "handlers",
      "outputs": [
        {
          "internalType": "string",
          "name": "name",
          "type": "string"
        },
        {
          "internalType": "string",
          "name": "handlerType",
          "type": "string"
        },
        {
          "internalType": "string",
          "name": "location",
          "type": "string"
        },
        {
          "internalType": "bool",
          "name": "isActive",
          "type": "bool"
        },
        {
          "internalType": "uint256",
          "name": "registeredAt",
          "type": "uint256"
        }
      ],
      "stateMutability": "view",
      "type": "function"
    },
    {
      "inputs": [
        {
          "internalType": "uint256",
          "name": "productId",
          "type": "uint256"
        }
      ],
      "name": "isTracked",
      "outputs": [
        {
          "internalType": "bool",
          "name": "",
          "type": "bool"
        }
      ],
      "stateMutability": "view",
      "type": "function"
    },
    {
      "inputs": [
        {
          "internalType": "uint256",
          "name": "productId",
          "type": "uint256"
        },
        {
          "internalType": "enum ISupplyChainTypes.TrackingStatus",
          "name": "status",
          "type": "uint8"
        },
        {
          "internalType": "string",
          "name": "location",
          "type": "string"
        },
        {
          "internalType": "string",
          "name": "notes",
          "type": "string"
        }
      ],
      "name": "recordEvent",
      "outputs": [],
      "stateMutability": "nonpayable",
      "type": "function"
    },
    {
      "inputs": [
        {
          "internalType": "uint256",
          "name": "productId",
          "type": "uint256"
        },
        {
          "internalType": "string",
          "name": "location",
          "type": "string"
        },
        {
          "internalType": "bool",
          "name": "passed",
          "type": "bool"
        },
        {
          "internalType": "string",
          "name": "details",
          "type": "string"
        }
      ],
      "name": "recordQualityCheck",
      "outputs": [],
      "stateMutability": "nonpayable",
      "type": "function"
    },
    {
      "inputs": [
        {
          "internalType": "uint256",
          "name": "productId",
          "type": "uint256"
        },
        {
          "internalType": "string",
          "name": "fromLocation",
          "type": "string"
        },
        {
          "internalType": "string",
          "name": "toLocation",
          "type": "string"
        },
        {
          "internalType": "string",
          "name": "notes",
          "type": "string"
        }
      ],
      "name": "recordTransit",
      "outputs": [],
      "stateMutability": "nonpayable",
      "type": "function"
    },
    {
      "inputs": [
        {
          "internalType": "address",
          "name": "handlerAddress",
          "type": "address"
        },
        {
          "internalType": "string",
          "name": "name",
          "type": "string"
        },
        {
          "internalType": "string",
          "name": "handlerType",
          "type": "string"
        },
        {
          "internalType": "string",
          "name": "location",
          "type": "string"
        }
      ],
      "name": "registerHandler",
      "outputs": [],
      "stateMutability": "nonpayable",
      "type": "function"
    },
    {
      "inputs": [
        {
          "internalType": "string",
          "name": "name",
          "type": "string"
        },
        {
          "internalType": "string",
          "name": "handlerType",
          "type": "string"
        },
        {
          "internalType": "string",
          "name": "location",
          "type": "string"
        }
      ],
      "name": "selfRegisterHandler",
      "outputs": [],
      "stateMutability": "nonpayable",
      "type": "function"
    },
    {
      "inputs": [
        {
          "internalType": "uint256",
          "name": "productId",
          "type": "uint256"
        },
        {
          "internalType": "string",
          "name": "origin",
          "type": "string"
        },
        {
          "internalType": "string",
          "name": "destination",
          "type": "string"
        }
      ],
      "name": "startTracking",
      "outputs": [
        {
          "internalType": "bool",
          "name": "",
          "type": "bool"
        }
      ],
      "stateMutability": "nonpayable",
      "type": "function"
    },
    {
      "inputs": [],
      "name": "stats",
      "outputs": [
        {
          "internalType": "uint256",
          "name": "totalTrackedProducts",
          "type": "uint256"
        },
        {
          "internalType": "uint256",
          "name": "activeShipments",
          "type": "uint256"
        },
        {
          "internalType": "uint256",
          "name": "completedShipments",
          "type": "uint256"
        },
        {
          "internalType": "uint256",
          "name": "totalEvents",
          "type": "uint256"
        },
        {
          "internalType": "uint256",
          "name": "registeredHandlers",
          "type": "uint256"
        }
      ],
      "stateMutability": "view",
      "type": "function"
    },
    {
      "inputs": [
        {
          "internalType": "uint256",
          "name": "productId",
          "type": "uint256"
        },
        {
          "internalType": "uint256",
          "name": "eventIndex",
          "type": "uint256"
        },
        {
          "internalType": "bytes32",
          "name": "providedHash",
          "type": "bytes32"
        }
      ],
      "name": "verifyEventHash",
      "outputs": [
        {
          "internalType": "bool",
          "name": "",
          "type": "bool"
        }
      ],
      "stateMutability": "view",
      "type": "function"
    },
    {
      "inputs": [
        {
          "internalType": "uint256",
          "name": "productId",
          "type": "uint256"
        }
      ],
      "name": "verifyProvenance",
      "outputs": [
        {
          "internalType": "bool",
          "name": "isValid",
          "type": "bool"
        },
        {
          "internalType": "uint256",
          "name": "eventCount",
          "type": "uint256"
        }
      ],
      "stateMutability": "view",
      "type": "function"
    }
  ],
  "bytecode": "0x60a0346200010457601f6200388838819003918201601f19168301916001600160401b0383118484101762000109578084926020946040528339810103126200010457516001600160a01b0381169081900362000104578015620000b5576080526000805560405161376890816200012082396080518181816101e3015281816104c70152818161078f01528181610f8e015281816110ea0152818161171601528181611940015281816124f001526127b70152f35b60405162461bcd60e51b815260206004820152602160248201527f537570706c79436861696e3a20696e76616c696420636f7265206164647265736044820152607360f81b6064820152608490fd5b600080fd5b634e487b7160e01b600052604160045260246000fdfe6080604052600436101561001257600080fd5b60003560e01c806309afa64e146129ba5780631194f9e91461298c5780631a21c0bc146128e35780631dd26b3a1461289f57806327f829081461276e578063635885311461243e5780637c1250731461203d5780639419a41d14611f4f57806397fbe35314611e3f5780639a8c20c6146118995780639cc4a0cc146116cd5780639ec57ee8146116375780639f11d9401461160b578063a0aa13c6146115bc578063a3007b33146114c3578063a60e9b9b14611418578063b38fe15b14611393578063b60d55071461102b578063ba3df94014610f57578063ce4a301a1461071e578063d4c22ece146105df578063d80528ae1461059f578063e49339e5146104f6578063f2f4eb26146104b15763f4906cb11461012f57600080fd5b346104ac5760803660031901126104ac576004356001600160401b036024358181116104ac57610163903690600401612c1f565b60443591821515908184036104ac576064359081116104ac5761018a903690600401612c1f565b84600052602093600185526101a5604060002054151561340a565b85600052600185526101c260ff6005604060002001541615613455565b6040516395a8c58d60e01b81528581806101df3360048301612d7f565b03817f00000000000000000000000000000000000000000000000000000000000000006001600160a01b03165afa80156104a05761022591600091610473575b50612f86565b15610433576102746036604051809375028bab0b634ba3c9031b432b1b5902820a9a9a2a217160551b88830152610264815180928a8686019101612bd7565b8101036016810184520182612b0e565b925b846000526002815260406000209182548015156000146104145760001981019081116103fe576000805160206136d3833981519152958460076102be610364946040986133ab565b500154935b8651868101918b8352600360f81b8983015260f81b6041820152426042820152856062820152606281526102f681612ad8565b51902093336000526006865260ff6003886000200154166000146103d857336000526006865261032887600020612b31565b925b87519361033685612abc565b8b85526003888601528989860152606085015260808401524260a084015260c08301528360e08301526133c7565b856000526003825282600020600360ff198254161790558060005260048252858360002055610394600b54612ed4565b600b556824b739b832b1ba37b960b91b6103be845195600387526080858801526080870190612bfa565b9285840393848688015260098152015260608401520190a2005b86516103e381612af3565b600981526824b739b832b1ba37b960b91b878201529261032a565b634e487b7160e01b600052601160045260246000fd5b506103646000805160206136d3833981519152956040946000936102c3565b61046d6036604051809375028bab0b634ba3c9031b432b1b5902320a4a622a217160551b88830152610264815180928a8686019101612bd7565b92610276565b6104939150873d8911610499575b61048b8183612b0e565b810190612d4d565b3861021f565b503d610481565b6040513d6000823e3d90fd5b600080fd5b346104ac5760003660031901126104ac576040517f00000000000000000000000000000000000000000000000000000000000000006001600160a01b03168152602090f35b346104ac5760203660031901126104ac57600435806000526001602052610523604060002054151561340a565b600052600160205261057b6040600020600481015460ff600583015416600260205260406000205490610589610567600261056060018801612b31565b9601612b31565b60405196879660a0885260a0880190612bfa565b908682036020880152612bfa565b9260408501521515606084015260808301520390f35b346104ac5760003660031901126104ac5760a0600854600954600a54600b5490600c54926040519485526020850152604084015260608301526080820152f35b346104ac5760003660031901126104ac5760008060058054915b8281106106d2575061060a83612fe0565b926106186040519485612b0e565b808452610627601f1991612fe0565b01602090368286013760009060005b84811061064f576040518061064b8882612d12565b0390f35b61065881612e55565b9054600391821b1c6000526001835260ff85604060002001541615610687575b5061068290612ed4565b610636565b610692829492612e55565b9054911b1c86518210156106bc57816106b5918461068294881b8a010152612ed4565b9290610678565b634e487b7160e01b600052603260045260246000fd5b6106db81612e55565b90549060031b1c600052600160205260ff82604060002001541615610709575b61070490612ed4565b6105f9565b9261071661070491612ed4565b9390506106fb565b346104ac5760603660031901126104ac576024356001600160401b0381116104ac5761074e903690600401612c1f565b6044356001600160401b0381116104ac5761076d903690600401612c1f565b6040516395a8c58d60e01b81526020818061078b3360048301612d7f565b03817f00000000000000000000000000000000000000000000000000000000000000006001600160a01b03165afa80156104a0576107d091600091610f385750612f86565b60043515610ef3576004356000526001602052604060002054610eaf57815115610e6b57805115610e1c57604051602081019060043582526108556074828651610821816040840160208b01612bd7565b8101865190610837826040830160208b01612bd7565b014260408201523360601b6060820152036054810184520182612b0e565b519020604051909290602081016001600160401b03811182821017610bdf576040908152600082525160c081016001600160401b03811182821017610bdf57604052600435815260208101918383528460408301526060820152426080820152600060a08201526004356000526001602052604060002091815183555180519060018060401b038211610bdf5781906108f16001860154612a82565b601f8111610de7575b50602090601f8311600114610d7557600092610d6a575b50508160011b916000199060031b1c19161760018301555b60408101518051906001600160401b038211610bdf57819061094e6002860154612a82565b601f8111610d2a575b50602090601f8311600114610cb857600092610cad575b50508160011b916000199060031b1c19161760028301555b6060810151805190600160401b8211610bdf576003840154826003860155808310610c21575b506020016003840160005260206000206000915b838310610c03575050505090600560a08360806109e99501516004850155015115159101612e44565b6004356000526002602052610a9c604060002033600052600660205260ff60036040600020015416600014610bf557336000526006602052610a2e6040600020612b31565b905b60405191610a3d83612abc565b6004358352600060208401528460408401526060830152604051610a6081612af3565b6012815271151c9858dada5b99c81a5b9a5d1a585d195960721b602082015260808301524260a0830152600060c08301528560e08301526133c7565b6004356000908152600360205260409020805460ff1916905560055491600160401b831015610bdf57610ae48360016000805160206136d38339815191529501600555612e55565b81549060031b90600435821b91600019901b1916179055836000526004602052600435604060002055610b18600854612ed4565b600855610b26600954612ed4565b600955610b34600b54612ed4565b600b557f1c04cc19959544f72f2427f86d72cde97024df1d0ed1200d5f6cee4f098e866f610b7e6040519260608452610b706060850186612bfa565b908482036020860152612bfa565b9185604082015280600435930390a2610ba96040519160008352608060208401526080830190612bfa565b926553797374656d60d01b60208386039586604086015260068152015260608201526040600435930190a2602060405160018152f35b634e487b7160e01b600052604160045260246000fd5b610bfd61337d565b90610a30565b6008602082610c156001945186613058565b019201920191906109c0565b6001600160fd1b0381811682036103fe57831683036103fe576003850160005260206000208360031b81015b8260031b82018110610c605750506109ac565b8060006008925560006001820155610c7a60028201612ff7565b610c8660038201612ff7565b610c9260048201612ff7565b60006005820155600060068201556000600782015501610c4d565b01519050878061096e565b9250600285016000526020600020906000935b601f1984168510610d0f576001945083601f19811610610cf6575b505050811b016002830155610986565b015160001960f88460031b161c19169055878080610ce6565b81810151835560209485019460019093019290910190610ccb565b610d5a90600287016000526020600020601f850160051c81019160208610610d60575b601f0160051c0190612e2d565b88610957565b9091508190610d4d565b015190508780610911565b9250600185016000526020600020906000935b601f1984168510610dcc576001945083601f19811610610db3575b505050811b016001830155610929565b015160001960f88460031b161c19169055878080610da3565b81810151835560209485019460019093019290910190610d88565b610e1690600187016000526020600020601f850160051c81019160208610610d6057601f0160051c0190612e2d565b886108fa565b60405162461bcd60e51b815260206004820152602160248201527f537570706c79436861696e3a2064657374696e6174696f6e20726571756972656044820152601960fa1b6064820152608490fd5b60405162461bcd60e51b815260206004820152601c60248201527b14dd5c1c1b1e50da185a5b8e881bdc9a59da5b881c995c5d5a5c995960221b6044820152606490fd5b60405162461bcd60e51b815260206004820152601c60248201527b14dd5c1c1b1e50da185a5b8e88185b1c9958591e481d1c9858dad95960221b6044820152606490fd5b60405162461bcd60e51b815260206004820152601f60248201527f537570706c79436861696e3a20696e76616c69642070726f64756374204944006044820152606490fd5b610f51915060203d6020116104995761048b8183612b0e565b8461021f565b346104ac576020806003193601126104ac57600435604051916395a8c58d60e01b8352808380610f8a3360048301612d7f565b03817f00000000000000000000000000000000000000000000000000000000000000006001600160a01b03165afa9081156104a057610fd660019261100c9560009161100e5750612f86565b82600052818152610fed604060002054151561340a565b826000525261100760ff6005604060002001541615613455565b613617565b005b6110259150833d85116104995761048b8183612b0e565b8661021f565b346104ac5760803660031901126104ac576004356001600160401b036024358181116104ac5761105f903690600401612c1f565b906044358181116104ac57611078903690600401612c1f565b906064359081116104ac57611091903690600401612c1f565b83600052602090600182526110ac604060002054151561340a565b84600052600182526110c960ff6005604060002001541615613455565b6040516395a8c58d60e01b81528281806110e63360048301612d7f565b03817f00000000000000000000000000000000000000000000000000000000000000006001600160a01b03165afa9081156104a057600091611376575b50801561135b575b611134906134b1565b6111b7603360405180966c02a3930b739b4ba10333937b69609d1b868301526111668151809288602d86019101612bd7565b810193630103a37960e51b602d86015286518688019561118a826031830189612bd7565b0161017160f51b60318201526111a882518093898785019101612bd7565b01036013810187520185612b0e565b600085815260028352604090208054909181156113345760001982019182116103fe5761130d6080956112c16000805160206136d3833981519152988a600761120361131b988a6133ab565b500154955b61124f608160405180938d8201958652600160f81b6040830152611233895180926041850190612bd7565b81014260418201528a6061820152036061810184520182612b0e565b51902096336000526006895260ff600360406000200154166000146113265733600052600689526112836040600020612b31565b955b6040519261129284612abc565b8d845260018b8501528560408501528760608501528b8401524260a084015260c08301528760e08301526133c7565b88600052600386526040600020600160ff198254161790558460005260048652886040600020556112f3600b54612ed4565b600b55604051968796600188528701526080860190612bfa565b908482036040860152612bfa565b9060608301520390a2005b61132e61337d565b95611285565b61131b915061130d6080956112c16000805160206136d3833981519152988a600095611208565b5033600090815260068352604090206003015460ff1661112b565b61138d9150833d85116104995761048b8183612b0e565b86611123565b346104ac5760003660031901126104ac57604051600580548083526000918252602080840193927f036b6384b5eca791c62761152d0c79bb0604c104a5fb6f4eb0703f3154bb3db092915b8282106114015761064b856113f581890382612b0e565b60405191829182612d12565b8354865294850194600193840193909101906113de565b346104ac5760003660031901126104ac5760405180600754808352602080930180916007600052846000209060005b868282106114a657868661145d82880383612b0e565b604051928392818401908285525180915260408401929160005b82811061148657505050500390f35b83516001600160a01b031685528695509381019392810192600101611477565b83546001600160a01b031685529093019260019283019201611447565b346104ac576020806003193601126104ac5760043590816000526001918282526114f3604060002054151561340a565b6000526002815260406000209182549161150c83612fe0565b9261151a6040519485612b0e565b8084528184018095600052826000206000915b8383106115955750505050604051928184019082855251809152604084019160408260051b86010195926000905b8382106115685786880387f35b90919293948380611584839a603f198b82030186528951612c98565b99970195949391909101910161155b565b946008858299976115a8859a989a61359e565b81520192019201919096949695939561152d565b346104ac5760203660031901126104ac576004358060005260016020526115e9604060002054151561340a565b6000526003602052602060ff604060002054166116096040518092612c75565bf35b346104ac5760203660031901126104ac5760043560005260046020526020604060002054604051908152f35b346104ac5760003660031901126104ac576000608060405161165881612ad8565b828152826020820152826040820152826060820152015260a060405161167d81612ad8565b6008549081815260095460208201908152600a5460408301908152600b5491606084019283526080600c549401938452604051948552516020850152516040840152516060830152516080820152f35b346104ac576020806003193601126104ac576116e7612a6c565b6040516395a8c58d60e01b815290816117033360048301612d65565b6001600160a01b039391859183919003817f000000000000000000000000000000000000000000000000000000000000000087165afa80156104a0576117519160009161187c575b50612d99565b169081600052600681526004604060002001541561183857816000526006815260ff600360406000200154166117f65760016000805160206136f383398151915291836000526006815260036040600020018260ff198254161790556117b8600c54612ed4565b600c5583600052600681526117f1604060002091604051938493604085526117e36040860182612ef0565b928584039086015201612ef0565b0390a2005b6064906040519062461bcd60e51b82526004820152601b60248201527a537570706c79436861696e3a20616c72656164792061637469766560281b6044820152fd5b6064906040519062461bcd60e51b82526004820152601e60248201527f537570706c79436861696e3a2068616e646c6572206e6f7420666f756e6400006044820152fd5b6118939150853d87116104995761048b8183612b0e565b8561174b565b346104ac5760803660031901126104ac576118b2612a6c565b6024356001600160401b0381116104ac576118d1903690600401612c1f565b6044356001600160401b0381116104ac576118f0903690600401612c1f565b916064356001600160401b0381116104ac57611910903690600401612c1f565b6040516395a8c58d60e01b8152908161192c3360048301612d65565b6001600160a01b03939160209183919003817f000000000000000000000000000000000000000000000000000000000000000087165afa80156104a05761197a91600091611e205750612d99565b81831615611ddc57818316600052600660205260ff60036040600020015416611d8b576119a984511515612de4565b604051906119b682612ad8565b8482528560208301526040820152600160608201524260808201528183166000526006602052604060002090805180519060018060401b038211610bdf578190611a008554612a82565b601f8111611d59575b50602090601f8311600114611ced57600092611ce2575b50508160011b916000199060031b1c19161782555b60208101518051906001600160401b038211610bdf578190611a5a6001860154612a82565b601f8111611cad575b50602090601f8311600114611c3b57600092611c30575b50508160011b916000199060031b1c19161760018301555b60408101518051906001600160401b038211610bdf57611ab56002850154612a82565b601f8111611bfb575b50602090601f8311600114611b6d576080611b529794846000805160206136f38339815191529a98956117f19895600495600092611b62575b50508160011b916000199060031b1c19161760028501555b611b226060820151151560038601612e44565b0151910155611b3082612e70565b611b3b600c54612ed4565b600c55604051948594604086526040860190612bfa565b9184830360208601521695612bfa565b015190508d80611af7565b906002850160005260206000209160005b601f1985168110611be35750611b5297946001856117f198956004956080956000805160206136f38339815191529e9c99601f19811610611bca575b505050811b016002850155611b0f565b015160001960f88460031b161c191690558d8080611bba565b91926020600181928685015181550194019201611b7e565b611c2a90600286016000526020600020601f850160051c81019160208610610d6057601f0160051c0190612e2d565b88611abe565b015190508880611a7a565b9250600185016000526020600020906000935b601f1984168510611c92576001945083601f19811610611c79575b505050811b016001830155611a92565b015160001960f88460031b161c19169055888080611c69565b81810151835560209485019460019093019290910190611c4e565b611cdc90600187016000526020600020601f850160051c81019160208610610d6057601f0160051c0190612e2d565b89611a63565b015190508880611a20565b9250846000526020600020906000935b601f1984168510611d3e576001945083601f19811610611d25575b505050811b018255611a35565b015160001960f88460031b161c19169055888080611d18565b81810151835560209485019460019093019290910190611cfd565b611d8590866000526020600020601f850160051c81019160208610610d6057601f0160051c0190612e2d565b89611a09565b60405162461bcd60e51b815260206004820152602360248201527f537570706c79436861696e3a2068616e646c657220616c72656164792065786960448201526273747360e81b6064820152608490fd5b60405162461bcd60e51b815260206004820152601c60248201527b537570706c79436861696e3a20696e76616c6964206164647265737360201b6044820152606490fd5b611e39915060203d6020116104995761048b8183612b0e565b8761174b565b346104ac576020806003193601126104ac5760a090611e5c612a6c565b9060405191611e6a83612ad8565b60006080606094858152858582015285604082015282868201520152600180851b031660005260068152604060002090611f3c60405193611eaa85612ad8565b611eb384612b31565b8552611ec160018501612b31565b838601908152611ed360028601612b31565b9160408701928352611f2c611f16600460ff60038a01541698848b019915158a5201549660808a019788526040519a8b9a828c5251918b015260c08a0190612bfa565b925192601f1993848a83030160408b0152612bfa565b9251918784030190870152612bfa565b9151151560808401525160a08301520390f35b346104ac576020806003193601126104ac57600435600060e0604051611f7481612abc565b828152828582015260606040820152606080820152606060808201528260a08201528260c082015201528060005260018252611fb6604060002054151561340a565b6000526002815260406000208054908115611fff5760001982019182116103fe57611fea91611fe4916133ab565b5061359e565b9061064b604051928284938452830190612c98565b60405162461bcd60e51b8152600481018490526016602482015275537570706c79436861696e3a206e6f206576656e747360501b6044820152606490fd5b346104ac5760603660031901126104ac576001600160401b036004358181116104ac5761206e903690600401612c1f565b906024358181116104ac57612087903690600401612c1f565b906044358181116104ac576120a0903690600401612c1f565b91336000526020926006845260039260ff8460406000200154166123f9576120ca86511515612de4565b604051956120d787612ad8565b8652848601928352604086019182526060860192600084526080870195428752336000526006815260406000209751908151848111610bdf578061211b8b54612a82565b93601f948581116123cb575b5083908583116001146123675760009261235c575b50508160011b91600019908a1b1c19161789555b600192838a019051805190868211610bdf57819061216e8454612a82565b86811161232e575b5084908683116001146122cc576000926122c1575b5050600019828b1b1c191690851b1790555b600289019451908151948511610bdf576121b78654612a82565b838111612289575b50809285116001146122175750928060049897959381936121ff989660009461220c575b50501b9160001990861b1c19161790555b511515908501612e44565b5191015561100c33612e70565b015192508b806121e3565b9190601f9493941984168660005283600020936000905b828210612272575050916121ff979593918560049b9a9896941061225a575b505050811b0190556121f4565b015160001983881b60f8161c1916905589808061224d565b80888697829497870151815501960194019061222e565b6122b29087600052826000208580890160051c820192858a106122b8575b0160051c0190612e2d565b8a6121bf565b925081926122a7565b015190508c8061218b565b90879350601f1983169185600052866000209260005b888282106123185750508411612300575b505050811b01905561219d565b0151600019838d1b60f8161c191690558c80806122f3565b8385015186558b979095019493840193016122e2565b6123569085600052866000208880860160051c8201928987106122b8570160051c0190612e2d565b8d612176565b015190508b8061213c565b60008d81528581209350601f198516905b868282106123b557505090846001959493921061239d575b505050811b018955612150565b0151600019838c1b60f8161c191690558b8080612390565b6001859682939686015181550195019301612378565b6123f3908d600052856000208780860160051c8201928887106122b8570160051c0190612e2d565b8c612127565b60405162461bcd60e51b815260048101869052601f60248201527f537570706c79436861696e3a20616c72656164792072656769737465726564006044820152606490fd5b346104ac5760803660031901126104ac57600960243510156104ac576001600160401b036044358181116104ac5761247a903690600401612c1f565b906064359081116104ac57612493903690600401612c1f565b60043560005260016020526124ae604060002054151561340a565b60043560005260016020526124ce60ff6005604060002001541615613455565b6040516395a8c58d60e01b8152602081806124ec3360048301612d7f565b03817f00000000000000000000000000000000000000000000000000000000000000006001600160a01b03165afa9081156104a05760009161274f575b508015612733575b61253a906134b1565b600435600052600260205260406000209182548015156000146127145760001981019081116103fe576000805160206136d38339815191529261266160076125856126ce94886133ab565b500154915b6040516020810190600435825260243560f81b60408201526125e160958289516125bc818c6020604186019101612bd7565b81014260418201528860618201523360601b6081820152036075810184520182612b0e565b5190209633600052600660205260ff60036040600020015416600014612706573360005260066020526126176040600020612b31565b935b6040519261262684612abc565b600435845261263a6024356020860161339f565b87604085015285606085015260808401524260a084015260c08301528760e08301526133c7565b600435600052600360205261267c6024356040600020613040565b846000526004602052600435604060002055612699600b54612ed4565b600b556126c0604051936126af85602435612c75565b608060208601526080850190612bfa565b908382036040850152612bfa565b92606082015280600435930390a260076024351480156126fa575b6126ef57005b61100c600435613617565b506008602435146126e9565b61270e61337d565b93612619565b506126ce6000805160206136d38339815191529261266160009161258a565b503360009081526006602052604090206003015460ff16612531565b612768915060203d6020116104995761048b8183612b0e565b83612529565b346104ac576020806003193601126104ac57612788612a6c565b6040516395a8c58d60e01b815290816127a43360048301612d65565b6001600160a01b039391859183919003817f000000000000000000000000000000000000000000000000000000000000000087165afa80156104a0576127f19160009161187c5750612d99565b1690816000526006815260ff600360406000200154161561285b576006908260005252600360406000200160ff19815416905561282f600c54612ee3565b600c5533907fd372aaddcce66c5ca0222952f4c0e6115f475aace5ac1a642e18a2855ff5fab7600080a3005b6064906040519062461bcd60e51b82526004820152601f60248201527f537570706c79436861696e3a2068616e646c6572206e6f7420616374697665006044820152fd5b346104ac5760203660031901126104ac5760406128d56004358060005260016020526128d08360002054151561340a565b6134fb565b825191151582526020820152f35b346104ac5760203660031901126104ac576001600160a01b03612904612a6c565b16600052600660205261295f604060002061291e81612b31565b9061292b60018201612b31565b61297b61293a60028401612b31565b61296d600460ff6003870154169501549360405197889760a0895260a0890190612bfa565b908782036020890152612bfa565b908582036040870152612bfa565b911515606084015260808301520390f35b346104ac5760203660031901126104ac57600435600052600160205260206040600020541515604051908152f35b346104ac5760603660031901126104ac5760043560243581600052602091600183526129ec604060002054151561340a565b8060005260028352604060002054821015612a295790612a17916000526002835260406000206133ab565b50600760443591015414604051908152f35b6064836040519062461bcd60e51b825280600483015260248201527f537570706c79436861696e3a20696e76616c6964206576656e7420696e6465786044820152fd5b600435906001600160a01b03821682036104ac57565b90600182811c92168015612ab2575b6020831014612a9c57565b634e487b7160e01b600052602260045260246000fd5b91607f1691612a91565b61010081019081106001600160401b03821117610bdf57604052565b60a081019081106001600160401b03821117610bdf57604052565b604081019081106001600160401b03821117610bdf57604052565b601f909101601f19168101906001600160401b03821190821017610bdf57604052565b9060405191826000825492612b4584612a82565b908184526001948581169081600014612bb45750600114612b71575b5050612b6f92500383612b0e565b565b9093915060005260209081600020936000915b818310612b9c575050612b6f93508201013880612b61565b85548884018501529485019487945091830191612b84565b915050612b6f94506020925060ff191682840152151560051b8201013880612b61565b60005b838110612bea5750506000910152565b8181015183820152602001612bda565b90602091612c1381518092818552858086019101612bd7565b601f01601f1916010190565b81601f820112156104ac578035906001600160401b038211610bdf5760405192612c53601f8401601f191660200185612b0e565b828452602083830101116104ac57816000926020809301838601378301015290565b906009821015612c825752565b634e487b7160e01b600052602160045260246000fd5b9081518152612caf60208301516020830190612c75565b60e080612cf5612ce3612cd16040870151610100806040890152870190612bfa565b60608701518682036060880152612bfa565b60808601518582036080870152612bfa565b9360a081015160a085015260c081015160c0850152015191015290565b6020908160408183019282815285518094520193019160005b828110612d39575050505090565b835185529381019392810192600101612d2b565b908160209103126104ac575180151581036104ac5790565b6001600160a01b0390911681526003602082015260400190565b6001600160a01b0390911681526002602082015260400190565b15612da057565b606460405162461bcd60e51b815260206004820152602060248201527f537570706c79436861696e3a2063616c6c6572206973206e6f742061646d696e6044820152fd5b15612deb57565b60405162461bcd60e51b815260206004820152601a60248201527914dd5c1c1b1e50da185a5b8e881b985b59481c995c5d5a5c995960321b6044820152606490fd5b818110612e38575050565b60008155600101612e2d565b9060ff801983541691151516179055565b6005548110156106bc57600560005260206000200190600090565b600754600160401b811015610bdf5760018101806007558110156106bc5760076000527fa66cc928b5edb82af9bd49922954155ab7b0942694bea4ce44661d9a8736c6880180546001600160a01b0319166001600160a01b03909216919091179055565b60001981146103fe5760010190565b80156103fe576000190190565b9060009291805491612f0183612a82565b918282526001938481169081600014612f635750600114612f23575b50505050565b90919394506000526020928360002092846000945b838610612f4f575050505001019038808080612f1d565b805485870183015294019385908201612f38565b9294505050602093945060ff191683830152151560051b01019038808080612f1d565b15612f8d57565b60405162461bcd60e51b815260206004820152602560248201527f537570706c79436861696e3a20696e73756666696369656e74207065726d697360448201526473696f6e7360d81b6064820152608490fd5b6001600160401b038111610bdf5760051b60200190565b6130018154612a82565b908161300b575050565b81601f6000931160011461301d575055565b90808391825261303c601f60208420940160051c840160018501612e2d565b5555565b906009811015612c825760ff80198354169116179055565b9080518255602090818101516009811015612c825761307b600191828601613040565b6040820151805190916001600160401b03916002870190838111610bdf57806130a48354612a82565b95601f9687811161334f575b5088908783116001146132ec576000926132e1575b5050600019600383901b1c191690831b1790555b600386016060850151805190848211610bdf5781906130f88454612a82565b8781116132b3575b50889087831160011461325057600092613245575b5050600019600383901b1c191690831b1790555b60048601926080850151958651938411610bdf576131478554612a82565b828111613217575b50809184116001146131a857509180809260e096959460079860009461319d575b50501b916000199060031b1c19161790555b60a0810151600585015560c081015160068501550151910155565b015192503880613170565b91939495601f1984168660005283600020936000905b828210613200575050916007979593918560e0989694106131e7575b505050811b019055613182565b015160001960f88460031b161c191690553880806131da565b8088869782949787015181550196019401906131be565b61323f9086600052826000208480880160051c8201928589106122b8570160051c0190612e2d565b3861314f565b015190503880613115565b90859350601f19831691856000528a6000209260005b8c82821061329d5750508411613284575b505050811b019055613129565b015160001960f88460031b161c19169055388080613277565b8385015186558997909501949384019301613266565b6132db90856000528a6000208980860160051c8201928d87106122b8570160051c0190612e2d565b38613100565b0151905038806130c5565b90859350601f19831691856000528a6000209260005b8c8282106133395750508411613320575b505050811b0190556130d9565b015160001960f88460031b161c19169055388080613313565b8385015186558997909501949384019301613302565b61337790856000528a6000208980860160051c8201928d87106122b8570160051c0190612e2d565b386130b0565b6040519061338a82612af3565b600682526553797374656d60d01b6020830152565b6009821015612c825752565b80548210156106bc5760005260206000209060031b0190600090565b8054600160401b811015610bdf576133e4916001820181556133ab565b9190916133f457612b6f91613058565b634e487b7160e01b600052600060045260246000fd5b1561341157565b606460405162461bcd60e51b815260206004820152602060248201527f537570706c79436861696e3a2070726f64756374206e6f7420747261636b65646044820152fd5b1561345c57565b60405162461bcd60e51b815260206004820152602760248201527f537570706c79436861696e3a20747261636b696e6720616c726561647920636f6044820152661b5c1b195d195960ca1b6064820152608490fd5b156134b857565b60405162461bcd60e51b815260206004820152601b60248201527a14dd5c1c1b1e50da185a5b8e881b9bdd08185d5d1a1bdc9a5e9959602a1b6044820152606490fd5b90600091825260026020526040822090815492831561359757828152600692836020832001546135915760015b858110613539575060019493505050565b8461354482846133ab565b500154600019820182811161357d5761355f600791856133ab565b500154036135755761357090612ed4565b613528565b509093925050565b634e487b7160e01b85526011600452602485fd5b50929150565b9250829150565b906040516135ab81612abc565b60e060078294805484526135c960ff6001830154166020860161339f565b6135d560028201612b31565b60408501526135e660038201612b31565b60608501526135f760048201612b31565b6080850152600581015460a0850152600681015460c08501520154910152565b6000818152600160205260056040822001600160ff19825416179055600260205260408120908154908115156000146136b95760001982019182116136a55750816007613675604093600080516020613713833981519152956133ab565b500154905b613685600954612ee3565b600955613693600a54612ed4565b600a55549082519182526020820152a2565b634e487b7160e01b81526011600452602490fd5b600080516020613713833981519152926040925061367a56fe1c620caf7272ea68d185312da9e80a0f9a18725fc4202f9ad295ab5da3b050c5b392e043fcc88cd6c798b4615e3e1fd977dd2c89a079f6f3a3991b1a81f3d1decb6754496a2d043a4e60ac5490b5499ff538def1f25babeebebce56d09572136a2646970667358221220764dba808ccb53313e0101f02f5f9a8ed7f11b9b3b0676f6d4960185142d6b3c64736f6c63430008130033",
  "linkReferences": {},
  "deployedLinkReferences": {}
}