{
  "_format": "hh-sol-artifact-1",
  "contractName": "BlockERPCore",
  "sourceName": "contracts/BlockERPCore.sol",
  "abi": [
    {
      "inputs": [
        {
          "internalType": "string",
          "name": "_companyName",
          "type": "string"
        },
        {
          "internalType": "string",
          "name": "_registrationNumber",
          "type": "string"
        },
        {
          "internalType": "string",
          "name": "_country",
          "type": "string"
        }
      ],
      "stateMutability": "nonpayable",
      "type": "constructor"
    },
    {
      "anonymous": false,
      "inputs": [
        {
          "indexed": false,
          "internalType": "string",
          "name": "name",
          "type": "string"
        },
        {
          "indexed": true,
          "internalType": "address",
          "name": "updatedBy",
          "type": "address"
        }
      ],
      "name": "CompanyInfoUpdated",
      "type": "event"
    },
    {
      "anonymous": false,
      "inputs": [
        {
          "indexed": true,
          "internalType": "string",
          "name": "moduleName",
          "type": "string"
        },
        {
          "indexed": false,
          "internalType": "address",
          "name": "moduleAddress",
          "type": "address"
        }
      ],
      "name": "ModuleRegistered",
      "type": "event"
    },
    {
      "anonymous": false,
      "inputs": [
        {
          "indexed": true,
          "internalType": "string",
          "name": "moduleName",
          "type": "string"
        },
        {
          "indexed": false,
          "internalType": "address",
          "name": "oldAddress",
          "type": "address"
        },
        {
          "indexed": false,
          "internalType": "address",
          "name": "newAddress",
          "type": "address"
        }
      ],
      "name": "ModuleUpdated",
      "type": "event"
    },
    {
      "anonymous": false,
      "inputs": [
        {
          "indexed": true,
          "internalType": "address",
          "name": "previousOwner",
          "type": "address"
        },
        {
          "indexed": true,
          "internalType": "address",
          "name": "newOwner",
          "type": "address"
        }
      ],
      "name": "OwnershipTransferred",
      "type": "event"
    },
    {
      "anonymous": false,
      "inputs": [
        {
          "indexed": true,
          "internalType": "address",
          "name": "account",
          "type": "address"
        },
        {
          "indexed": false,
          "internalType": "enum IAccessControl.Role",
          "name": "role",
          "type": "uint8"
        },
        {
          "indexed": true,
          "internalType": "address",
          "name": "grantor",
          "type": "address"
        }
      ],
      "name": "RoleGranted",
      "type": "event"
    },
    {
      "anonymous": false,
      "inputs": [
        {
          "indexed": true,
          "internalType": "address",
          "name": "account",
          "type": "address"
        },
        {
          "indexed": false,
          "internalType": "enum IAccessControl.Role",
          "name": "role",
          "type": "uint8"
        },
        {
          "indexed": true,
          "internalType": "address",
          "name": "revoker",
          "type": "address"
        }
      ],
      "name": "RoleRevoked",
      "type": "event"
    },
    {
      "anonymous": false,
      "inputs": [
        {
          "indexed": true,
          "internalType": "address",
          "name": "by",
          "type": "address"
        }
      ],
      "name": "SystemPaused",
      "type": "event"
    },
    {
      "anonymous": false,
      "inputs": [
        {
          "indexed": true,
          "internalType": "address",
          "name": "by",
          "type": "address"
        }
      ],
      "name": "SystemUnpaused",
      "type": "event"
    },
    {
      "inputs": [
        {
          "internalType": "enum IAccessControl.Role",
          "name": "minRole",
          "type": "uint8"
        }
      ],
      "name": "checkAccess",
      "outputs": [
        {
          "internalType": "bool",
          "name": "",
          "type": "bool"
        }
      ],
      "stateMutability": "view",
      "type": "function"
    },
    {
      "inputs": [],
      "name": "company",
      "outputs": [
        {
          "internalType": "string",
          "name": "name",
          "type": "string"
        },
        {
          "internalType": "string",
          "name": "registrationNumber",
          "type": "string"
        },
        {
          "internalType": "string",
          "name": "country",
          "type": "string"
        },
        {
          "internalType": "string",
          "name": "website",
          "type": "string"
        },
        {
          "internalType": "bool",
          "name": "isVerified",
          "type": "bool"
        }
      ],
      "stateMutability": "view",
      "type": "function"
    },
    {
      "inputs": [],
      "name": "deployedAt",
      "outputs": [
        {
          "internalType": "uint256",
          "name": "",
          "type": "uint256"
        }
      ],
      "stateMutability": "view",
      "type": "function"
    },
    {
      "inputs": [],
      "name": "getAllUsers",
      "outputs": [
        {
          "internalType": "address[]",
          "name": "",
          "type": "address[]"
        }
      ],
      "stateMutability": "view",
      "type": "function"
    },
    {
      "inputs": [],
      "name": "getCompanyInfo",
      "outputs": [
        {
          "components": [
            {
              "internalType": "string",
              "name": "name",
              "type": "string"
            },
            {
              "internalType": "string",
              "name": "registrationNumber",
              "type": "string"
            },
            {
              "internalType": "string",
              "name": "country",
              "type": "string"
            },
            {
              "internalType": "string",
              "name": "website",
              "type": "string"
            },
            {
              "internalType": "bool",
              "name": "isVerified",
              "type": "bool"
            }
          ],
          "internalType": "struct BlockERPCore.CompanyInfo",
          "name": "",
          "type": "tuple"
        }
      ],
      "stateMutability": "view",
      "type": "function"
    },
    {
      "inputs": [
        {
          "internalType": "string",
          "name": "moduleName",
          "type": "string"
        }
      ],
      "name": "getModule",
      "outputs": [
        {
          "internalType": "address",
          "name": "",
          "type": "address"
        }
      ],
      "stateMutability": "view",
      "type": "function"
    },
    {
      "inputs": [
        {
          "internalType": "address",
          "name": "account",
          "type": "address"
        }
      ],
      "name": "getRole",
      "outputs": [
        {
          "internalType": "enum IAccessControl.Role",
          "name": "",
          "type": "uint8"
        }
      ],
      "stateMutability": "view",
      "type": "function"
    },
    {
      "inputs": [],
      "name": "getSystemStatus",
      "outputs": [
        {
          "internalType": "bool",
          "name": "isPaused",
          "type": "bool"
        },
        {
          "internalType": "uint256",
          "name": "_deployedAt",
          "type": "uint256"
        },
        {
          "internalType": "uint256",
          "name": "userCount",
          "type": "uint256"
        },
        {
          "internalType": "address",
          "name": "_owner",
          "type": "address"
        }
      ],
      "stateMutability": "view",
      "type": "function"
    },
    {
      "inputs": [],
      "name": "getUserCount",
      "outputs": [
        {
          "internalType": "uint256",
          "name": "",
          "type": "uint256"
        }
      ],
      "stateMutability": "view",
      "type": "function"
    },
    {
      "inputs": [
        {
          "internalType": "address",
          "name": "account",
          "type": "address"
        },
        {
          "internalType": "enum IAccessControl.Role",
          "name": "role",
          "type": "uint8"
        }
      ],
      "name": "grantRole",
      "outputs": [],
      "stateMutability": "nonpayable",
      "type": "function"
    },
    {
      "inputs": [
        {
          "internalType": "address",
          "name": "account",
          "type": "address"
        },
        {
          "internalType": "enum IAccessControl.Role",
          "name": "role",
          "type": "uint8"
        }
      ],
      "name": "hasRole",
      "outputs": [
        {
          "internalType": "bool",
          "name": "",
          "type": "bool"
        }
      ],
      "stateMutability": "view",
      "type": "function"
    },
    {
      "inputs": [
        {
          "internalType": "address",
          "name": "",
          "type": "address"
        }
      ],
      "name": "isRegistered",
      "outputs": [
        {
          "internalType": "bool",
          "name": "",
          "type": "bool"
        }
      ],
      "stateMutability": "view",
      "type": "function"
    },
    {
      "inputs": [
        {
          "internalType": "string",
          "name": "",
          "type": "string"
        }
      ],
      "name": "modules",
      "outputs": [
        {
          "internalType": "address",
          "name": "",
          "type": "address"
        }
      ],
      "stateMutability": "view",
      "type": "function"
    },
    {
      "inputs": [],
      "name": "owner",
      "outputs": [
        {
          "internalType": "address",
          "name": "",
          "type": "address"
        }
      ],
      "stateMutability": "view",
      "type": "function"
    },
    {
      "inputs": [],
      "name": "pause",
      "outputs": [],
      "stateMutability": "nonpayable",
      "type": "function"
    },
    {
      "inputs": [],
      "name": "paused",
      "outputs": [
        {
          "internalType": "bool",
          "name": "",
          "type": "bool"
        }
      ],
      "stateMutability": "view",
      "type": "function"
    },
    {
      "inputs": [
        {
          "internalType": "string",
          "name": "moduleName",
          "type": "string"
        },
        {
          "internalType": "address",
          "name": "moduleAddress",
          "type": "address"
        }
      ],
      "name": "registerModule",
      "outputs": [],
      "stateMutability": "nonpayable",
      "type": "function"
    },
    {
      "inputs": [
        {
          "internalType": "address",
          "name": "account",
          "type": "address"
        }
      ],
      "name": "revokeRole",
      "outputs": [],
      "stateMutability": "nonpayable",
      "type": "function"
    },
    {
      "inputs": [
        {
          "internalType": "address",
          "name": "newOwner",
          "type": "address"
        }
      ],
      "name": "transferOwnership",
      "outputs": [],
      "stateMutability": "nonpayable",
      "type": "function"
    },
    {
      "inputs": [],
      "name": "unpause",
      "outputs": [],
      "stateMutability": "nonpayable",
      "type": "function"
    },
    {
      "inputs": [
        {
          "internalType": "string",
          "name": "_name",
          "type": "string"
        },
        {
          "internalType": "string",
          "name": "_website",
          "type": "string"
        }
      ],
      "name": "updateCompanyInfo",
      "outputs": [],
      "stateMutability": "nonpayable",
      "type": "function"
    },
    {
      "inputs": [
        {
          "internalType": "string",
          "name": "moduleName",
          "type": "string"
        },
        {
          "internalType": "address",
          "name": "newAddress",
          "type": "address"
        }
      ],
      "name": "updateModule",
      "outputs": [],
      "stateMutability": "nonpayable",
      "type": "function"
    },
    {
      "inputs": [
        {
          "internalType": "uint256",
          "name": "",
          "type": "uint256"
        }
      ],
      "name": "users",
      "outputs": [
        {
          "internalType": "address",
          "name": "",
          "type": "address"
        }
      ],
      "stateMutability": "view",
      "type": "function"
    },
    {
      "inputs": [],
      "name": "verifyCompany",
      "outputs": [],
      "stateMutability": "nonpayable",
      "type": "function"
    }
  ],
  "bytecode": "0x608060405234620007ac57620020a5803803806200001d81620007b1565b9283398101606082820312620007ac5781516001600160401b038111620007ac57816200004c918401620007d7565b60208301519092906001600160401b038111620007ac578262000071918301620007d7565b60408201519092906001600160401b038111620007ac57620000949201620007d7565b9060018060a01b031933816000541617600055426001553360005260036020526040600020600360ff19825416179055600554680100000000000000008110156200049557600181018060055581101562000796577f036b6384b5eca791c62761152d0c79bb0604c104a5fb6f4eb0703f3154bb3db00180543392168217905560009081526006602052604090819020805460ff19166001179055519260a084018481106001600160401b0382111762000495576040528352602083015260408201526040516020810181811060018060401b03821117620004955760405260008082526060830191909152608082015280518051906001600160401b038211620004955760075490600182811c921680156200078b575b6020831014620004745781601f84931162000727575b50602090601f8311600114620006a9576000926200069d575b50508160011b916000199060031b1c1916176007555b60208101518051906001600160401b038211620004955760085490600182811c9216801562000692575b6020831014620004745781601f8493116200062e575b50602090601f8311600114620005b057600092620005a4575b50508160011b916000199060031b1c1916176008555b60408101518051906001600160401b038211620004955760095490600182811c9216801562000599575b6020831014620004745781601f84931162000535575b50602090601f8311600114620004b757600092620004ab575b50508160011b916000199060031b1c1916176009555b6060810151805191906001600160401b0383116200049557600a54600181811c911680156200048a575b60208210146200047457601f81116200041b575b50602090601f84116001146200039e57608093916000918362000392575b50508160011b916000199060031b1c191617600a555b0151151560ff8019600b5416911617600b556040516003815233907f454d3be37ac6a7b902340e5413df5663e10f86d1a576286058188216404a88ef60203392a36040516117db90816200084a8239f35b0151905038806200032b565b600a600090815260008051602062002025833981519152929190601f198616905b8181106200040257509160019391866080979410620003e8575b505050811b01600a5562000341565b015160001960f88460031b161c19169055388080620003d9565b92936020600181928786015181550195019301620003bf565b600a60005260008051602062002025833981519152601f850160051c8101916020861062000469575b601f0160051c01905b8181106200045c57506200030d565b600081556001016200044d565b909150819062000444565b634e487b7160e01b600052602260045260246000fd5b90607f1690620002f9565b634e487b7160e01b600052604160045260246000fd5b015190503880620002b9565b6009600090815293506000805160206200208583398151915291905b601f198416851062000519576001945083601f19811610620004ff575b505050811b01600955620002cf565b015160001960f88460031b161c19169055388080620004f0565b81810151835560209485019460019093019290910190620004d3565b600960005290915060008051602062002085833981519152601f840160051c810191602085106200058e575b90601f859493920160051c01905b8181106200057e5750620002a0565b600081558493506001016200056f565b909150819062000561565b91607f16916200028a565b0151905038806200024a565b6008600090815293506000805160206200206583398151915291905b601f198416851062000612576001945083601f19811610620005f8575b505050811b0160085562000260565b015160001960f88460031b161c19169055388080620005e9565b81810151835560209485019460019093019290910190620005cc565b600860005290915060008051602062002065833981519152601f840160051c8101916020851062000687575b90601f859493920160051c01905b81811062000677575062000231565b6000815584935060010162000668565b90915081906200065a565b91607f16916200021b565b015190503880620001db565b6007600090815293506000805160206200204583398151915291905b601f19841685106200070b576001945083601f19811610620006f1575b505050811b01600755620001f1565b015160001960f88460031b161c19169055388080620006e2565b81810151835560209485019460019093019290910190620006c5565b600760005290915060008051602062002045833981519152601f840160051c8101916020851062000780575b90601f859493920160051c01905b818110620007705750620001c2565b6000815584935060010162000761565b909150819062000753565b91607f1691620001ac565b634e487b7160e01b600052603260045260246000fd5b600080fd5b6040519190601f01601f191682016001600160401b038111838210176200049557604052565b919080601f84011215620007ac5782516001600160401b03811162000495576020906200080d601f8201601f19168301620007b1565b92818452828287010111620007ac5760005b8181106200083557508260009394955001015290565b85810183015184820184015282016200081f56fe6040608081526004908136101561001557600080fd5b600091823560e01c806308f523d8146106075780631a0a6c6814610d9c578063365b98b214610d535780633e84023614610bb15780633f4ba83a14610b305780634427673314610afa57806350c1d19d14610ab45780635c975abb14610a905780635d4ca7d514610a67578063639cc67d146109705780636904c94d146108de57806380e52e3f146107505780638456cb59146106b95780638da5cb5b1461069157806395a8c58d1461066c57806399b0d6d014610607578063a5b1b097146104d1578063b5cb15f7146104b2578063c3c5a54714610474578063ccef66f31461043f578063d7710d6214610348578063e2842d7914610292578063eae4c19f1461026f5763f2fde38b1461012957600080fd5b3461026b5760208060031936011261026757610143611138565b84546001600160a01b038082169592919061015f338814611688565b82169461016d861515611547565b86861461021357506001600160a01b031916841786558386526003808452828720805460ff19908116909217905560068452828720546000805160206117668339815191529493929060ff16156101f0575b50505183857f8be0079c531659141344cd1fd0a4f28419497f9722a3daafe3b4186f6b6457e08880a360038152a380f35b6101f990611593565b8487526006835260018288209182541617905538806101bf565b835162461bcd60e51b8152908101859052602860248201527f426c6f636b455250436f72653a206e6577206f776e6572206973206375727265604482015267373a1037bbb732b960c11b6064820152608490fd5b8380fd5b8280fd5b50503461028e578160031936011261028e576020906001549051908152f35b5080fd5b82843461034557806003193601126103455781516005805480835290835260209392848301929091839060008051602061174683398151915290845b81811061032857505050816102e49103826110ba565b83519485948186019282875251809352850193925b82811061030857505050500390f35b83516001600160a01b0316855286955093810193928101926001016102f9565b82546001600160a01b0316845292880192600192830192016102ce565b80fd5b50503461028e578160031936011261028e5790816103fc92519161036b83611089565b608060609384815284602082015284848201528480820152015261043281519261039484611089565b61039c611221565b84526103a66112de565b92602085019384526104216103b9611377565b8287019081526103c7611410565b9380880194855261041060ff600b54169760808a01981515895285519a8b9a60208c525160a060208d015260c08c01906114cc565b9051601f1996878c840301908c01526114cc565b9151908489840301908901526114cc565b9151908583030160808601526114cc565b9051151560a08301520390f35b833461034557806003193601126103455761046460018060a01b038254163314611688565b600160ff19600b541617600b5580f35b50503461028e57602036600319011261028e5760209160ff9082906001600160a01b0361049f611138565b1681526006855220541690519015158152f35b50503461028e578160031936011261028e576020906005549051908152f35b5091903461028e576104e2366111a6565b91909360018060a01b0380936104fc828754163314611688565b16610508811515611547565b825193865190806020968781818c01956105238183896114a9565b8101888152030190205416156105b8579661058d866105ab937fe5340bb646fa554a3082f7baa2b415eb1874ff7d4c3f118686180386e71f738e98999a8851838187516105718183886114a9565b81018b81520301902054169688518094819387519283916114a9565b82019081520301902080546001600160a01b031916841790556116e2565b948351928352820152a280f35b845162461bcd60e51b8152808501879052602360248201527f426c6f636b455250436f72653a206d6f64756c65206e6f7420726567697374656044820152621c995960ea1b6064820152608490fd5b503461026b57602036600319011261026b578035926001600160401b038411610345575061063a602093369083016110dd565b8361064d845192838151938492016114a9565b810191825290819003830190205490516001600160a01b039091168152f35b50503461028e576020906106886106823661114e565b906115fb565b90519015158152f35b50503461028e578160031936011261028e57905490516001600160a01b039091168152602090f35b5091903461028e578160031936011261028e57338252600360205281205460ff168281101561073d57600314801561072a575b6106f5906114f1565b600160ff196002541617600255337f0e453e53649b13b8c30ef82dd7bce6c745cfcc7a1dc95170b4750764194f19b28280a280f35b5080546001600160a01b031633146106ec565b506021602492634e487b7160e01b835252fd5b503461026b576020806003193601126102675761076b611138565b913385526003825260ff8486205416818110156108685760031480156108cb575b610795906114f1565b6001600160a01b03928316926107ac841515611547565b855416831461087b578285526003825260ff848620541681811015610868571561081d5750600390828552527fdc8ee88592cee6126ab42f95859fdf2bbf7b0a614a14d4fb307b601e2b5b0b058284209283549360ff1985169055518061081760ff3396168261117d565b0390a380f35b60849184519162461bcd60e51b8352820152602160248201527f426c6f636b455250436f72653a206163636f756e7420686173206e6f20726f6c6044820152606560f81b6064820152fd5b634e487b7160e01b865260218252602486fd5b60849184519162461bcd60e51b8352820152602660248201527f426c6f636b455250436f72653a2063616e6e6f74207265766f6b65206f776e656044820152657220726f6c6560d01b6064820152fd5b5084546001600160a01b0316331461078c565b50503461028e578160031936011261028e5761093b906108fc611221565b906109646109086112de565b91610956610914611377565b9161091d611410565b9261094960ff600b5416968351998a9960a08b5260a08b01906114cc565b9089820360208b01526114cc565b91878303908801526114cc565b9084820360608601526114cc565b90151560808301520390f35b503461026b5761097f366111a6565b84546001600160a01b039182916109999083163314611688565b16926109a6841515611547565b845191835192602081818701956109be8183896114a9565b8101858152030190205416610a145760209261058d847f34f835834b4752e7ed14d07e75a41134c2755912fe2f7d64b21a84828be793159694610a0b9489518094819387519283916114a9565b9351908152a280f35b608490602086519162461bcd60e51b8352820152602760248201527f426c6f636b455250436f72653a206d6f64756c6520616c7265616479207265676044820152661a5cdd195c995960ca1b6064820152fd5b509134610345576020366003190112610345578235928310156103455750610688602092611702565b50503461028e578160031936011261028e5760209060ff6002541690519015158152f35b50503461028e578160031936011261028e579060809160ff6002541691600154916005549160018060a01b03905416928151941515855260208501528301526060820152f35b50503461028e57602036600319011261028e57610b2c90610b21610b1c611138565b611658565b90519182918261117d565b0390f35b5091903461028e578160031936011261028e57338252600360205281205460ff168281101561073d576003148015610b9e575b610b6c906114f1565b60ff1960025416600255337f92414512bd79c80103975d8bef2f4e78aa5930c2869b4bd6139d98836ba8d9188280a280f35b5080546001600160a01b03163314610b63565b503461026b57610bc03661114e565b92903385526020906003825260ff838720541684811015610d40576003148015610d2d575b610bee906114f1565b6001600160a01b03811693610c04851515611547565b60ff60025416610cea5780861015610cd7578515610c88575060008051602061176683398151915292916003918588526006825260ff848920541615610c64575b505280852060ff1981541660ff8616179055518061081733958261117d565b610c6d90611593565b84875260068152828720805460ff1916600117905538610c45565b835162461bcd60e51b81529081018390526024808201527f426c6f636b455250436f72653a2063616e6e6f74206772616e74204e4f4e4520604482015263726f6c6560e01b6064820152608490fd5b634e487b7160e01b875260219052602486fd5b835162461bcd60e51b8152908101839052601e60248201527f426c6f636b455250436f72653a2073797374656d2069732070617573656400006044820152606490fd5b5085546001600160a01b03163314610be5565b634e487b7160e01b875260218552602487fd5b503461026b57602036600319011261026b573560055481101561026b5760059092526000805160206117468339815191529091015490516001600160a01b039091168152602090f35b50903461026b578060031936011261026b576001600160401b0390823582811161108557610dcd90369085016110dd565b9160243581811161108157610de590369086016110dd565b9333865260039060209582875260ff85892054168281101561106e578314801561105b575b610e13906114f1565b855191848311610f9957610e286007546111e7565b92601f9384811161101a575b508089858211600114610fb7578b91610fac575b508160011b9160001990871b1c1916176007555b8151948511610f995750610e71600a546111e7565b828111610f58575b5086918411600114610edb5792610eca9492819260008051602061178683398151915297958a93610ed0575b50508260011b92600019911b1c191617600a555b5191829185835233958301906114cc565b0390a280f35b015191503880610ea5565b600a8852868820929190601f198516895b89828210610f42575050928592610eca979592600080516020611786833981519152999760019610610f28575b50505050811b01600a55610eb9565b01519060f884600019921b161c1916905538808080610f19565b6001859782939686015181550196019301610eec565b600a89528789208380870160051c8201928a8810610f90575b0160051c01905b818110610f855750610e79565b898155600101610f78565b92508192610f71565b634e487b7160e01b895260419052602488fd5b905088015138610e48565b60078c528a8c209150601f1983168c5b8c8c838310611005575050509083600194939210610fed575b5050811b01600755610e5c565b8a015160001983891b60f8161c191690553880610fe0565b84015185556001909401939283019201610fc7565b60078b52898b208580840160051c8201928c8510611052575b0160051c01905b8181106110475750610e34565b8b815560010161103a565b92508192611033565b5087546001600160a01b03163314610e0a565b634e487b7160e01b895260218352602489fd5b8580fd5b8480fd5b60a081019081106001600160401b038211176110a457604052565b634e487b7160e01b600052604160045260246000fd5b601f909101601f19168101906001600160401b038211908210176110a457604052565b81601f82011215611133578035906001600160401b0382116110a45760405192611111601f8401601f1916602001856110ba565b8284526020838301011161113357816000926020809301838601378301015290565b600080fd5b600435906001600160a01b038216820361113357565b6040906003190112611133576004356001600160a01b0381168103611133579060243560048110156111335790565b9190602083019260048210156111905752565b634e487b7160e01b600052602160045260246000fd5b604060031982011261113357600435906001600160401b038211611133576111d0916004016110dd565b906024356001600160a01b03811681036111335790565b90600182811c92168015611217575b602083101461120157565b634e487b7160e01b600052602260045260246000fd5b91607f16916111f6565b6040519060008260075491611235836111e7565b8083526001938085169081156112bd575060011461125d575b5061125b925003836110ba565b565b600760009081527fa66cc928b5edb82af9bd49922954155ab7b0942694bea4ce44661d9a8736c68894602093509091905b8183106112a557505061125b93508201013861124e565b8554888401850152948501948794509183019161128e565b905061125b94506020925060ff191682840152151560051b8201013861124e565b60405190600082600854916112f2836111e7565b8083526001938085169081156112bd5750600114611317575061125b925003836110ba565b600860009081527ff3f7a9fe364faab93b216da50a3214154f22a0a2b415b23a84c8169e8b636ee394602093509091905b81831061135f57505061125b93508201013861124e565b85548884018501529485019487945091830191611348565b604051906000826009549161138b836111e7565b8083526001938085169081156112bd57506001146113b0575061125b925003836110ba565b600960009081527f6e1540171b6c0c960b71a7020d9f60077f6af931a8bbf590da0223dacf75c7af94602093509091905b8183106113f857505061125b93508201013861124e565b855488840185015294850194879450918301916113e1565b60405190600082600a5491611424836111e7565b8083526001938085169081156112bd5750600114611449575061125b925003836110ba565b600a60009081527fc65a7bb8d6351c1cf70c95a316cc6a92839c986682d98bc35f958f4883f9d2a894602093509091905b81831061149157505061125b93508201013861124e565b8554888401850152948501948794509183019161147a565b60005b8381106114bc5750506000910152565b81810151838201526020016114ac565b906020916114e5815180928185528580860191016114a9565b601f01601f1916010190565b156114f857565b60405162461bcd60e51b815260206004820152602160248201527f426c6f636b455250436f72653a2063616c6c6572206973206e6f742061646d696044820152603760f91b6064820152608490fd5b1561154e57565b60405162461bcd60e51b815260206004820152601d60248201527f426c6f636b455250436f72653a20696e76616c696420616464726573730000006044820152606490fd5b600554600160401b8110156110a45760018101806005558110156115e55760056000526000805160206117468339815191520180546001600160a01b0319166001600160a01b03909216919091179055565b634e487b7160e01b600052603260045260246000fd5b6000805490916001600160a01b0390811691168114611650578152600360205260ff60408220541690600483101561163c57600482101561163c5750101590565b634e487b7160e01b81526021600452602490fd5b505050600190565b6000546001600160a01b039182169116811461168257600052600360205260ff6040600020541690565b50600390565b1561168f57565b60405162461bcd60e51b815260206004820152602560248201527f426c6f636b455250436f72653a2063616c6c6572206973206e6f74207468652060448201526437bbb732b960d91b6064820152608490fd5b6116fa906020604051928284809451938492016114a9565b810103902090565b600080546001600160a01b0316331461173e57338152600360205260ff60408220541690600483101561163c57600482101561163c5750101590565b505060019056fe036b6384b5eca791c62761152d0c79bb0604c104a5fb6f4eb0703f3154bb3db0454d3be37ac6a7b902340e5413df5663e10f86d1a576286058188216404a88ef15d9807ddbf27af3fbab302a6b39dcccb77286631c2de9283dd0c66d15776528a2646970667358221220a22024bf7fca2904142af4cbae607de968126b1ce9833bdba6e1b9180a9c405e64736f6c63430008130033c65a7bb8d6351c1cf70c95a316cc6a92839c986682d98bc35f958f4883f9d2a8a66cc928b5edb82af9bd49922954155ab7b0942694bea4ce44661d9a8736c688f3f7a9fe364faab93b216da50a3214154f22a0a2b415b23a84c8169e8b636ee36e1540171b6c0c960b71a7020d9f60077f6af931a8bbf590da0223dacf75c7af",
  "linkReferences": {},
  "deployedLinkReferences": {}
}